{
  "_format": "hh-sol-artifact-1",
  "contractName": "HemanRefundIDO",
  "sourceName": "contracts/HemanRefundIDO.sol",
  "abi": [
    {
      "inputs": [
        {
          "internalType": "address",
          "name": "_HesmanPoolNft",
          "type": "address"
        },
        {
          "internalType": "address",
          "name": "_refundToken",
          "type": "address"
        },
        {
          "internalType": "address",
          "name": "_refundOwner",
          "type": "address"
        }
      ],
      "stateMutability": "nonpayable",
      "type": "constructor"
    },
    {
      "anonymous": false,
      "inputs": [
        {
          "indexed": true,
          "internalType": "address",
          "name": "previousOwner",
          "type": "address"
        },
        {
          "indexed": true,
          "internalType": "address",
          "name": "newOwner",
          "type": "address"
        }
      ],
      "name": "OwnershipTransferred",
      "type": "event"
    },
    {
      "anonymous": false,
      "inputs": [
        {
          "indexed": false,
          "internalType": "address",
          "name": "user",
          "type": "address"
        },
        {
          "indexed": false,
          "internalType": "uint256",
          "name": "amount",
          "type": "uint256"
        },
        {
          "indexed": false,
          "internalType": "address",
          "name": "pool",
          "type": "address"
        }
      ],
      "name": "Refund",
      "type": "event"
    },
    {
      "inputs": [
        {
          "internalType": "address",
          "name": "",
          "type": "address"
        }
      ],
      "name": "blacklistMap",
      "outputs": [
        {
          "internalType": "bool",
          "name": "",
          "type": "bool"
        }
      ],
      "stateMutability": "view",
      "type": "function"
    },
    {
      "inputs": [],
      "name": "endTimeRefund",
      "outputs": [
        {
          "internalType": "uint256",
          "name": "",
          "type": "uint256"
        }
      ],
      "stateMutability": "view",
      "type": "function"
    },
    {
      "inputs": [],
      "name": "isPause",
      "outputs": [
        {
          "internalType": "bool",
          "name": "",
          "type": "bool"
        }
      ],
      "stateMutability": "view",
      "type": "function"
    },
    {
      "inputs": [],
      "name": "owner",
      "outputs": [
        {
          "internalType": "address",
          "name": "",
          "type": "address"
        }
      ],
      "stateMutability": "view",
      "type": "function"
    },
    {
      "inputs": [],
      "name": "poolHesman",
      "outputs": [
        {
          "internalType": "address",
          "name": "",
          "type": "address"
        }
      ],
      "stateMutability": "view",
      "type": "function"
    },
    {
      "inputs": [],
      "name": "refund",
      "outputs": [],
      "stateMutability": "nonpayable",
      "type": "function"
    },
    {
      "inputs": [],
      "name": "refundOwner",
      "outputs": [
        {
          "internalType": "address",
          "name": "",
          "type": "address"
        }
      ],
      "stateMutability": "view",
      "type": "function"
    },
    {
      "inputs": [],
      "name": "refundToken",
      "outputs": [
        {
          "internalType": "contract ERC20",
          "name": "",
          "type": "address"
        }
      ],
      "stateMutability": "view",
      "type": "function"
    },
    {
      "inputs": [
        {
          "internalType": "address",
          "name": "",
          "type": "address"
        },
        {
          "internalType": "address",
          "name": "",
          "type": "address"
        }
      ],
      "name": "refundedMap",
      "outputs": [
        {
          "internalType": "bool",
          "name": "",
          "type": "bool"
        }
      ],
      "stateMutability": "view",
      "type": "function"
    },
    {
      "inputs": [
        {
          "internalType": "address[]",
          "name": "userList",
          "type": "address[]"
        }
      ],
      "name": "removeBlackList",
      "outputs": [],
      "stateMutability": "nonpayable",
      "type": "function"
    },
    {
      "inputs": [
        {
          "internalType": "address[]",
          "name": "userList",
          "type": "address[]"
        }
      ],
      "name": "removeWhiteList",
      "outputs": [],
      "stateMutability": "nonpayable",
      "type": "function"
    },
    {
      "inputs": [],
      "name": "renounceOwnership",
      "outputs": [],
      "stateMutability": "nonpayable",
      "type": "function"
    },
    {
      "inputs": [
        {
          "internalType": "address[]",
          "name": "userList",
          "type": "address[]"
        }
      ],
      "name": "setBlackList",
      "outputs": [],
      "stateMutability": "nonpayable",
      "type": "function"
    },
    {
      "inputs": [
        {
          "internalType": "bool",
          "name": "_status",
          "type": "bool"
        }
      ],
      "name": "setPauseContract",
      "outputs": [],
      "stateMutability": "nonpayable",
      "type": "function"
    },
    {
      "inputs": [
        {
          "internalType": "address",
          "name": "_HesmanPoolNft",
          "type": "address"
        }
      ],
      "name": "setPool",
      "outputs": [],
      "stateMutability": "nonpayable",
      "type": "function"
    },
    {
      "inputs": [
        {
          "internalType": "address",
          "name": "_refundOwner",
          "type": "address"
        }
      ],
      "name": "setRefundOwner",
      "outputs": [],
      "stateMutability": "nonpayable",
      "type": "function"
    },
    {
      "inputs": [
        {
          "internalType": "address",
          "name": "_refundToken",
          "type": "address"
        }
      ],
      "name": "setRefundToken",
      "outputs": [],
      "stateMutability": "nonpayable",
      "type": "function"
    },
    {
      "inputs": [
        {
          "internalType": "uint256",
          "name": "_startTimeRefund",
          "type": "uint256"
        },
        {
          "internalType": "uint256",
          "name": "_endTimeRefund",
          "type": "uint256"
        }
      ],
      "name": "setTimeRefund",
      "outputs": [],
      "stateMutability": "nonpayable",
      "type": "function"
    },
    {
      "inputs": [
        {
          "internalType": "address[]",
          "name": "userList",
          "type": "address[]"
        }
      ],
      "name": "setWhiteList",
      "outputs": [],
      "stateMutability": "nonpayable",
      "type": "function"
    },
    {
      "inputs": [],
      "name": "startTimeRefund",
      "outputs": [
        {
          "internalType": "uint256",
          "name": "",
          "type": "uint256"
        }
      ],
      "stateMutability": "view",
      "type": "function"
    },
    {
      "inputs": [
        {
          "internalType": "address",
          "name": "newOwner",
          "type": "address"
        }
      ],
      "name": "transferOwnership",
      "outputs": [],
      "stateMutability": "nonpayable",
      "type": "function"
    },
    {
      "inputs": [],
      "name": "urgentWithdrawAllToken",
      "outputs": [],
      "stateMutability": "nonpayable",
      "type": "function"
    },
    {
      "inputs": [
        {
          "internalType": "address",
          "name": "",
          "type": "address"
        }
      ],
      "name": "whitelistMap",
      "outputs": [
        {
          "internalType": "bool",
          "name": "",
          "type": "bool"
        }
      ],
      "stateMutability": "view",
      "type": "function"
    }
  ],
  "bytecode": "0x60806040523480156200001157600080fd5b5060405162002bd038038062002bd083398181016040528101906200003791906200028b565b620000576200004b620001a860201b60201c565b620001b060201b60201c565b6001808190555082600560006101000a81548173ffffffffffffffffffffffffffffffffffffffff021916908373ffffffffffffffffffffffffffffffffffffffff160217905550600560009054906101000a900473ffffffffffffffffffffffffffffffffffffffff16600760006101000a81548173ffffffffffffffffffffffffffffffffffffffff021916908373ffffffffffffffffffffffffffffffffffffffff16021790555081600660006101000a81548173ffffffffffffffffffffffffffffffffffffffff021916908373ffffffffffffffffffffffffffffffffffffffff16021790555080600260006101000a81548173ffffffffffffffffffffffffffffffffffffffff021916908373ffffffffffffffffffffffffffffffffffffffff1602179055506001600260146101000a81548160ff0219169083151502179055505050506200033a565b600033905090565b60008060009054906101000a900473ffffffffffffffffffffffffffffffffffffffff169050816000806101000a81548173ffffffffffffffffffffffffffffffffffffffff021916908373ffffffffffffffffffffffffffffffffffffffff1602179055508173ffffffffffffffffffffffffffffffffffffffff168173ffffffffffffffffffffffffffffffffffffffff167f8be0079c531659141344cd1fd0a4f28419497f9722a3daafe3b4186f6b6457e060405160405180910390a35050565b600081519050620002858162000320565b92915050565b600080600060608486031215620002a757620002a66200031b565b5b6000620002b78682870162000274565b9350506020620002ca8682870162000274565b9250506040620002dd8682870162000274565b9150509250925092565b6000620002f482620002fb565b9050919050565b600073ffffffffffffffffffffffffffffffffffffffff82169050919050565b600080fd5b6200032b81620002e7565b81146200033757600080fd5b50565b612886806200034a6000396000f3fe608060405234801561001057600080fd5b506004361061014d5760003560e01c8063777e092b116100c35780639bf411351161007c5780639bf411351461033e578063e10de6781461035a578063e601af7314610376578063ecb172a314610392578063f2fde38b146103b0578063ff0938a7146103cc5761014d565b8063777e092b1461026857806386105a63146102845780638c47ddcc146102a25780638da5cb5b146102c057806397747a2b146102de5780639aa0ea191461030e5761014d565b80635b9c8b5b116101155780635b9c8b5b146101e05780635cb732be146101fc578063638862621461021a578063715018a614610224578063750fd1d11461022e578063775b9c131461024c5761014d565b806332531c3c1461015257806335d05b9314610182578063397457911461019e5780634437152a146101ba578063590e1ae3146101d6575b600080fd5b61016c60048036038101906101679190611c5d565b6103ea565b60405161017991906120dd565b60405180910390f35b61019c60048036038101906101979190611c5d565b61040a565b005b6101b860048036038101906101b39190611cca565b6104ca565b005b6101d460048036038101906101cf9190611c5d565b6105eb565b005b6101de61070e565b005b6101fa60048036038101906101f59190611d9e565b610e55565b005b610204610ee3565b60405161021191906120f8565b60405180910390f35b610222610f09565b005b61022c6110b0565b005b610236611138565b60405161024391906122d5565b60405180910390f35b61026660048036038101906102619190611cca565b61113e565b005b610282600480360381019061027d9190611cca565b61125f565b005b61028c611380565b6040516102999190612062565b60405180910390f35b6102aa6113a6565b6040516102b79190612062565b60405180910390f35b6102c86113cc565b6040516102d59190612062565b60405180910390f35b6102f860048036038101906102f39190611c8a565b6113f5565b60405161030591906120dd565b60405180910390f35b61032860048036038101906103239190611c5d565b611424565b60405161033591906120dd565b60405180910390f35b61035860048036038101906103539190611cca565b611444565b005b610374600480360381019061036f9190611c5d565b611565565b005b610390600480360381019061038b9190611d17565b611625565b005b61039a6116be565b6040516103a791906122d5565b60405180910390f35b6103ca60048036038101906103c59190611c5d565b6116c4565b005b6103d46117bc565b6040516103e191906120dd565b60405180910390f35b60036020528060005260406000206000915054906101000a900460ff1681565b6104126117cf565b73ffffffffffffffffffffffffffffffffffffffff166104306113cc565b73ffffffffffffffffffffffffffffffffffffffff1614610486576040517f08c379a000000000000000000000000000000000000000000000000000000000815260040161047d906121d5565b60405180910390fd5b80600260006101000a81548173ffffffffffffffffffffffffffffffffffffffff021916908373ffffffffffffffffffffffffffffffffffffffff16021790555050565b6104d26117cf565b73ffffffffffffffffffffffffffffffffffffffff166104f06113cc565b73ffffffffffffffffffffffffffffffffffffffff1614610546576040517f08c379a000000000000000000000000000000000000000000000000000000000815260040161053d906121d5565b60405180910390fd5b60005b828290508110156105e65760006003600085858581811061056d5761056c612505565b5b90506020020160208101906105829190611c5d565b73ffffffffffffffffffffffffffffffffffffffff1673ffffffffffffffffffffffffffffffffffffffff16815260200190815260200160002060006101000a81548160ff02191690831515021790555080806105de9061245e565b915050610549565b505050565b6105f36117cf565b73ffffffffffffffffffffffffffffffffffffffff166106116113cc565b73ffffffffffffffffffffffffffffffffffffffff1614610667576040517f08c379a000000000000000000000000000000000000000000000000000000000815260040161065e906121d5565b60405180910390fd5b80600560006101000a81548173ffffffffffffffffffffffffffffffffffffffff021916908373ffffffffffffffffffffffffffffffffffffffff160217905550600560009054906101000a900473ffffffffffffffffffffffffffffffffffffffff16600760006101000a81548173ffffffffffffffffffffffffffffffffffffffff021916908373ffffffffffffffffffffffffffffffffffffffff16021790555050565b60026001541415610754576040517f08c379a000000000000000000000000000000000000000000000000000000000815260040161074b90612295565b60405180910390fd5b600260018190555060001515600260149054906101000a900460ff161515146107b2576040517f08c379a00000000000000000000000000000000000000000000000000000000081526004016107a990612275565b60405180910390fd5b42600954106107f6576040517f08c379a00000000000000000000000000000000000000000000000000000000081526004016107ed90612175565b60405180910390fd5b600a54421061083a576040517f08c379a000000000000000000000000000000000000000000000000000000000815260040161083190612175565b60405180910390fd5b60001515600460003373ffffffffffffffffffffffffffffffffffffffff1673ffffffffffffffffffffffffffffffffffffffff16815260200190815260200160002060009054906101000a900460ff161515146108cd576040517f08c379a00000000000000000000000000000000000000000000000000000000081526004016108c490612155565b60405180910390fd5b600360003373ffffffffffffffffffffffffffffffffffffffff1673ffffffffffffffffffffffffffffffffffffffff16815260200190815260200160002060009054906101000a900460ff16610959576040517f08c379a0000000000000000000000000000000000000000000000000000000008152600401610950906122b5565b60405180910390fd5b600760009054906101000a900473ffffffffffffffffffffffffffffffffffffffff1673ffffffffffffffffffffffffffffffffffffffff166332531c3c336040518263ffffffff1660e01b81526004016109b49190612062565b60206040518083038186803b1580156109cc57600080fd5b505afa1580156109e0573d6000803e3d6000fd5b505050506040513d601f19601f82011682018060405250810190610a049190611d44565b610a43576040517f08c379a0000000000000000000000000000000000000000000000000000000008152600401610a3a906121b5565b60405180910390fd5b6000151560086000600560009054906101000a900473ffffffffffffffffffffffffffffffffffffffff1673ffffffffffffffffffffffffffffffffffffffff1673ffffffffffffffffffffffffffffffffffffffff16815260200190815260200160002060003373ffffffffffffffffffffffffffffffffffffffff1673ffffffffffffffffffffffffffffffffffffffff16815260200190815260200160002060009054906101000a900460ff16151514610b35576040517f08c379a0000000000000000000000000000000000000000000000000000000008152600401610b2c906121f5565b60405180910390fd5b6001600760009054906101000a900473ffffffffffffffffffffffffffffffffffffffff1673ffffffffffffffffffffffffffffffffffffffff1663782a2737336040518263ffffffff1660e01b8152600401610b929190612062565b60206040518083038186803b158015610baa57600080fd5b505afa158015610bbe573d6000803e3d6000fd5b505050506040513d601f19601f82011682018060405250810190610be29190611d71565b1015610c23576040517f08c379a0000000000000000000000000000000000000000000000000000000008152600401610c1a90612215565b60405180910390fd5b600160086000600560009054906101000a900473ffffffffffffffffffffffffffffffffffffffff1673ffffffffffffffffffffffffffffffffffffffff1673ffffffffffffffffffffffffffffffffffffffff16815260200190815260200160002060003373ffffffffffffffffffffffffffffffffffffffff1673ffffffffffffffffffffffffffffffffffffffff16815260200190815260200160002060006101000a81548160ff02191690831515021790555060006064604b600760009054906101000a900473ffffffffffffffffffffffffffffffffffffffff1673ffffffffffffffffffffffffffffffffffffffff16633aa399b5336040518263ffffffff1660e01b8152600401610d3b9190612062565b60206040518083038186803b158015610d5357600080fd5b505afa158015610d67573d6000803e3d6000fd5b505050506040513d601f19601f82011682018060405250810190610d8b9190611d71565b610d959190612353565b610d9f9190612322565b9050610dee3382600660009054906101000a900473ffffffffffffffffffffffffffffffffffffffff1673ffffffffffffffffffffffffffffffffffffffff166117d79092919063ffffffff16565b7f149635d19f798f6b7c74c74a500d362c89316a0ab808abe5e0c0de45da9b1d2c3382600560009054906101000a900473ffffffffffffffffffffffffffffffffffffffff16604051610e43939291906120a6565b60405180910390a15060018081905550565b610e5d6117cf565b73ffffffffffffffffffffffffffffffffffffffff16610e7b6113cc565b73ffffffffffffffffffffffffffffffffffffffff1614610ed1576040517f08c379a0000000000000000000000000000000000000000000000000000000008152600401610ec8906121d5565b60405180910390fd5b8160098190555080600a819055505050565b600660009054906101000a900473ffffffffffffffffffffffffffffffffffffffff1681565b610f116117cf565b73ffffffffffffffffffffffffffffffffffffffff16610f2f6113cc565b73ffffffffffffffffffffffffffffffffffffffff1614610f85576040517f08c379a0000000000000000000000000000000000000000000000000000000008152600401610f7c906121d5565b60405180910390fd5b6000600660009054906101000a900473ffffffffffffffffffffffffffffffffffffffff1673ffffffffffffffffffffffffffffffffffffffff166370a08231306040518263ffffffff1660e01b8152600401610fe29190612062565b60206040518083038186803b158015610ffa57600080fd5b505afa15801561100e573d6000803e3d6000fd5b505050506040513d601f19601f820116820180604052508101906110329190611d71565b905060008111156110ad576110ac600260009054906101000a900473ffffffffffffffffffffffffffffffffffffffff1682600660009054906101000a900473ffffffffffffffffffffffffffffffffffffffff1673ffffffffffffffffffffffffffffffffffffffff166117d79092919063ffffffff16565b5b50565b6110b86117cf565b73ffffffffffffffffffffffffffffffffffffffff166110d66113cc565b73ffffffffffffffffffffffffffffffffffffffff161461112c576040517f08c379a0000000000000000000000000000000000000000000000000000000008152600401611123906121d5565b60405180910390fd5b611136600061185d565b565b60095481565b6111466117cf565b73ffffffffffffffffffffffffffffffffffffffff166111646113cc565b73ffffffffffffffffffffffffffffffffffffffff16146111ba576040517f08c379a00000000000000000000000000000000000000000000000000000000081526004016111b1906121d5565b60405180910390fd5b60005b8282905081101561125a576001600360008585858181106111e1576111e0612505565b5b90506020020160208101906111f69190611c5d565b73ffffffffffffffffffffffffffffffffffffffff1673ffffffffffffffffffffffffffffffffffffffff16815260200190815260200160002060006101000a81548160ff02191690831515021790555080806112529061245e565b9150506111bd565b505050565b6112676117cf565b73ffffffffffffffffffffffffffffffffffffffff166112856113cc565b73ffffffffffffffffffffffffffffffffffffffff16146112db576040517f08c379a00000000000000000000000000000000000000000000000000000000081526004016112d2906121d5565b60405180910390fd5b60005b8282905081101561137b5760016004600085858581811061130257611301612505565b5b90506020020160208101906113179190611c5d565b73ffffffffffffffffffffffffffffffffffffffff1673ffffffffffffffffffffffffffffffffffffffff16815260200190815260200160002060006101000a81548160ff02191690831515021790555080806113739061245e565b9150506112de565b505050565b600560009054906101000a900473ffffffffffffffffffffffffffffffffffffffff1681565b600260009054906101000a900473ffffffffffffffffffffffffffffffffffffffff1681565b60008060009054906101000a900473ffffffffffffffffffffffffffffffffffffffff16905090565b60086020528160005260406000206020528060005260406000206000915091509054906101000a900460ff1681565b60046020528060005260406000206000915054906101000a900460ff1681565b61144c6117cf565b73ffffffffffffffffffffffffffffffffffffffff1661146a6113cc565b73ffffffffffffffffffffffffffffffffffffffff16146114c0576040517f08c379a00000000000000000000000000000000000000000000000000000000081526004016114b7906121d5565b60405180910390fd5b60005b82829050811015611560576000600460008585858181106114e7576114e6612505565b5b90506020020160208101906114fc9190611c5d565b73ffffffffffffffffffffffffffffffffffffffff1673ffffffffffffffffffffffffffffffffffffffff16815260200190815260200160002060006101000a81548160ff02191690831515021790555080806115589061245e565b9150506114c3565b505050565b61156d6117cf565b73ffffffffffffffffffffffffffffffffffffffff1661158b6113cc565b73ffffffffffffffffffffffffffffffffffffffff16146115e1576040517f08c379a00000000000000000000000000000000000000000000000000000000081526004016115d8906121d5565b60405180910390fd5b80600660006101000a81548173ffffffffffffffffffffffffffffffffffffffff021916908373ffffffffffffffffffffffffffffffffffffffff16021790555050565b61162d6117cf565b73ffffffffffffffffffffffffffffffffffffffff1661164b6113cc565b73ffffffffffffffffffffffffffffffffffffffff16146116a1576040517f08c379a0000000000000000000000000000000000000000000000000000000008152600401611698906121d5565b60405180910390fd5b80600260146101000a81548160ff02191690831515021790555050565b600a5481565b6116cc6117cf565b73ffffffffffffffffffffffffffffffffffffffff166116ea6113cc565b73ffffffffffffffffffffffffffffffffffffffff1614611740576040517f08c379a0000000000000000000000000000000000000000000000000000000008152600401611737906121d5565b60405180910390fd5b600073ffffffffffffffffffffffffffffffffffffffff168173ffffffffffffffffffffffffffffffffffffffff1614156117b0576040517f08c379a00000000000000000000000000000000000000000000000000000000081526004016117a790612135565b60405180910390fd5b6117b98161185d565b50565b600260149054906101000a900460ff1681565b600033905090565b6118588363a9059cbb60e01b84846040516024016117f692919061207d565b604051602081830303815290604052907bffffffffffffffffffffffffffffffffffffffffffffffffffffffff19166020820180517bffffffffffffffffffffffffffffffffffffffffffffffffffffffff8381831617835250505050611921565b505050565b60008060009054906101000a900473ffffffffffffffffffffffffffffffffffffffff169050816000806101000a81548173ffffffffffffffffffffffffffffffffffffffff021916908373ffffffffffffffffffffffffffffffffffffffff1602179055508173ffffffffffffffffffffffffffffffffffffffff168173ffffffffffffffffffffffffffffffffffffffff167f8be0079c531659141344cd1fd0a4f28419497f9722a3daafe3b4186f6b6457e060405160405180910390a35050565b6000611983826040518060400160405280602081526020017f5361666545524332303a206c6f772d6c6576656c2063616c6c206661696c65648152508573ffffffffffffffffffffffffffffffffffffffff166119e89092919063ffffffff16565b90506000815111156119e357808060200190518101906119a39190611d44565b6119e2576040517f08c379a00000000000000000000000000000000000000000000000000000000081526004016119d990612255565b60405180910390fd5b5b505050565b60606119f78484600085611a00565b90509392505050565b606082471015611a45576040517f08c379a0000000000000000000000000000000000000000000000000000000008152600401611a3c90612195565b60405180910390fd5b611a4e85611b14565b611a8d576040517f08c379a0000000000000000000000000000000000000000000000000000000008152600401611a8490612235565b60405180910390fd5b6000808673ffffffffffffffffffffffffffffffffffffffff168587604051611ab6919061204b565b60006040518083038185875af1925050503d8060008114611af3576040519150601f19603f3d011682016040523d82523d6000602084013e611af8565b606091505b5091509150611b08828286611b37565b92505050949350505050565b6000808273ffffffffffffffffffffffffffffffffffffffff163b119050919050565b60608315611b4757829050611b97565b600083511115611b5a5782518084602001fd5b816040517f08c379a0000000000000000000000000000000000000000000000000000000008152600401611b8e9190612113565b60405180910390fd5b9392505050565b600081359050611bad8161280b565b92915050565b60008083601f840112611bc957611bc8612539565b5b8235905067ffffffffffffffff811115611be657611be5612534565b5b602083019150836020820283011115611c0257611c0161253e565b5b9250929050565b600081359050611c1881612822565b92915050565b600081519050611c2d81612822565b92915050565b600081359050611c4281612839565b92915050565b600081519050611c5781612839565b92915050565b600060208284031215611c7357611c72612548565b5b6000611c8184828501611b9e565b91505092915050565b60008060408385031215611ca157611ca0612548565b5b6000611caf85828601611b9e565b9250506020611cc085828601611b9e565b9150509250929050565b60008060208385031215611ce157611ce0612548565b5b600083013567ffffffffffffffff811115611cff57611cfe612543565b5b611d0b85828601611bb3565b92509250509250929050565b600060208284031215611d2d57611d2c612548565b5b6000611d3b84828501611c09565b91505092915050565b600060208284031215611d5a57611d59612548565b5b6000611d6884828501611c1e565b91505092915050565b600060208284031215611d8757611d86612548565b5b6000611d9584828501611c48565b91505092915050565b60008060408385031215611db557611db4612548565b5b6000611dc385828601611c33565b9250506020611dd485828601611c33565b9150509250929050565b611de7816123ad565b82525050565b611df6816123bf565b82525050565b6000611e07826122f0565b611e118185612306565b9350611e2181856020860161242b565b80840191505092915050565b611e36816123f5565b82525050565b6000611e47826122fb565b611e518185612311565b9350611e6181856020860161242b565b611e6a8161254d565b840191505092915050565b6000611e82602683612311565b9150611e8d8261255e565b604082019050919050565b6000611ea5601483612311565b9150611eb0826125ad565b602082019050919050565b6000611ec8601383612311565b9150611ed3826125d6565b602082019050919050565b6000611eeb602683612311565b9150611ef6826125ff565b604082019050919050565b6000611f0e601983612311565b9150611f198261264e565b602082019050919050565b6000611f31602083612311565b9150611f3c82612677565b602082019050919050565b6000611f54601083612311565b9150611f5f826126a0565b602082019050919050565b6000611f77602383612311565b9150611f82826126c9565b604082019050919050565b6000611f9a601d83612311565b9150611fa582612718565b602082019050919050565b6000611fbd602a83612311565b9150611fc882612741565b604082019050919050565b6000611fe0601283612311565b9150611feb82612790565b602082019050919050565b6000612003601f83612311565b915061200e826127b9565b602082019050919050565b6000612026600d83612311565b9150612031826127e2565b602082019050919050565b612045816123eb565b82525050565b60006120578284611dfc565b915081905092915050565b60006020820190506120776000830184611dde565b92915050565b60006040820190506120926000830185611dde565b61209f602083018461203c565b9392505050565b60006060820190506120bb6000830186611dde565b6120c8602083018561203c565b6120d56040830184611dde565b949350505050565b60006020820190506120f26000830184611ded565b92915050565b600060208201905061210d6000830184611e2d565b92915050565b6000602082019050818103600083015261212d8184611e3c565b905092915050565b6000602082019050818103600083015261214e81611e75565b9050919050565b6000602082019050818103600083015261216e81611e98565b9050919050565b6000602082019050818103600083015261218e81611ebb565b9050919050565b600060208201905081810360008301526121ae81611ede565b9050919050565b600060208201905081810360008301526121ce81611f01565b9050919050565b600060208201905081810360008301526121ee81611f24565b9050919050565b6000602082019050818103600083015261220e81611f47565b9050919050565b6000602082019050818103600083015261222e81611f6a565b9050919050565b6000602082019050818103600083015261224e81611f8d565b9050919050565b6000602082019050818103600083015261226e81611fb0565b9050919050565b6000602082019050818103600083015261228e81611fd3565b9050919050565b600060208201905081810360008301526122ae81611ff6565b9050919050565b600060208201905081810360008301526122ce81612019565b9050919050565b60006020820190506122ea600083018461203c565b92915050565b600081519050919050565b600081519050919050565b600081905092915050565b600082825260208201905092915050565b600061232d826123eb565b9150612338836123eb565b925082612348576123476124d6565b5b828204905092915050565b600061235e826123eb565b9150612369836123eb565b9250817fffffffffffffffffffffffffffffffffffffffffffffffffffffffffffffffff04831182151516156123a2576123a16124a7565b5b828202905092915050565b60006123b8826123cb565b9050919050565b60008115159050919050565b600073ffffffffffffffffffffffffffffffffffffffff82169050919050565b6000819050919050565b600061240082612407565b9050919050565b600061241282612419565b9050919050565b6000612424826123cb565b9050919050565b60005b8381101561244957808201518184015260208101905061242e565b83811115612458576000848401525b50505050565b6000612469826123eb565b91507fffffffffffffffffffffffffffffffffffffffffffffffffffffffffffffffff82141561249c5761249b6124a7565b5b600182019050919050565b7f4e487b7100000000000000000000000000000000000000000000000000000000600052601160045260246000fd5b7f4e487b7100000000000000000000000000000000000000000000000000000000600052601260045260246000fd5b7f4e487b7100000000000000000000000000000000000000000000000000000000600052603260045260246000fd5b600080fd5b600080fd5b600080fd5b600080fd5b600080fd5b6000601f19601f8301169050919050565b7f4f776e61626c653a206e6577206f776e657220697320746865207a65726f206160008201527f6464726573730000000000000000000000000000000000000000000000000000602082015250565b7f596f752061726520696e20426c61636b6c697374000000000000000000000000600082015250565b7f54696d6520726566756e6420696e76616c696400000000000000000000000000600082015250565b7f416464726573733a20696e73756666696369656e742062616c616e636520666f60008201527f722063616c6c0000000000000000000000000000000000000000000000000000602082015250565b7f4e6f742077686974656c69737420706f6f6c206865736d616e00000000000000600082015250565b7f4f776e61626c653a2063616c6c6572206973206e6f7420746865206f776e6572600082015250565b7f416c726561647920726566756e64656400000000000000000000000000000000600082015250565b7f596f752068617665206e6f7420636c61696d656420746865206669727374207460008201527f696d650000000000000000000000000000000000000000000000000000000000602082015250565b7f416464726573733a2063616c6c20746f206e6f6e2d636f6e7472616374000000600082015250565b7f5361666545524332303a204552433230206f7065726174696f6e20646964206e60008201527f6f74207375636365656400000000000000000000000000000000000000000000602082015250565b7f436f6e7472616374206973207061757365640000000000000000000000000000600082015250565b7f5265656e7472616e637947756172643a207265656e7472616e742063616c6c00600082015250565b7f4e6f742077686974656c69737400000000000000000000000000000000000000600082015250565b612814816123ad565b811461281f57600080fd5b50565b61282b816123bf565b811461283657600080fd5b50565b612842816123eb565b811461284d57600080fd5b5056fea264697066735822122085049dc392fbb8b4999f018e4e8c6010837046112787a9261388e061ddc4c27c64736f6c63430008070033",
  "linkReferences": {},
  "deployedLinkReferences": {}
}