{
  "_format": "hh-sol-artifact-1",
  "contractName": "HesmanPoolNft",
  "sourceName": "contracts/HemanRefundIDO.sol",
  "abi": [
    {
      "inputs": [
        {
          "internalType": "address",
          "name": "",
          "type": "address"
        }
      ],
      "name": "userBusdAllocationMap",
      "outputs": [
        {
          "internalType": "uint256",
          "name": "",
          "type": "uint256"
        }
      ],
      "stateMutability": "view",
      "type": "function"
    },
    {
      "inputs": [
        {
          "internalType": "address",
          "name": "",
          "type": "address"
        }
      ],
      "name": "vestingMap",
      "outputs": [
        {
          "internalType": "uint256",
          "name": "",
          "type": "uint256"
        }
      ],
      "stateMutability": "view",
      "type": "function"
    },
    {
      "inputs": [
        {
          "internalType": "address",
          "name": "",
          "type": "address"
        }
      ],
      "name": "whitelistMap",
      "outputs": [
        {
          "internalType": "bool",
          "name": "",
          "type": "bool"
        }
      ],
      "stateMutability": "view",
      "type": "function"
    }
  ],
  "bytecode": "0x608060405234801561001057600080fd5b50610256806100206000396000f3fe608060405234801561001057600080fd5b50600436106100415760003560e01c806332531c3c146100465780633aa399b514610076578063782a2737146100a6575b600080fd5b610060600480360381019061005b919061013b565b6100d6565b60405161006d9190610186565b60405180910390f35b610090600480360381019061008b919061013b565b6100f6565b60405161009d91906101a1565b60405180910390f35b6100c060048036038101906100bb919061013b565b61010e565b6040516100cd91906101a1565b60405180910390f35b60006020528060005260406000206000915054906101000a900460ff1681565b60026020528060005260406000206000915090505481565b60016020528060005260406000206000915090505481565b60008135905061013581610209565b92915050565b60006020828403121561015157610150610204565b5b600061015f84828501610126565b91505092915050565b610171816101ce565b82525050565b610180816101fa565b82525050565b600060208201905061019b6000830184610168565b92915050565b60006020820190506101b66000830184610177565b92915050565b60006101c7826101da565b9050919050565b60008115159050919050565b600073ffffffffffffffffffffffffffffffffffffffff82169050919050565b6000819050919050565b600080fd5b610212816101bc565b811461021d57600080fd5b5056fea2646970667358221220c6a68d013e04b9668b6f60a0426216424ae2defaa1f474fabfab5d35602aecf564736f6c63430008070033",
  "linkReferences": {},
  "deployedLinkReferences": {}
}