{
  "_format": "hh-sol-artifact-1",
  "contractName": "RunTogetherMarketplaceAdmin",
  "sourceName": "contracts/RunTogetherMarketplaceAdmin.sol",
  "abi": [
    {
      "inputs": [
        {
          "internalType": "address",
          "name": "_addressRunTogether",
          "type": "address"
        },
        {
          "internalType": "address",
          "name": "_paymentToken",
          "type": "address"
        },
        {
          "internalType": "address",
          "name": "_poolReward",
          "type": "address"
        },
        {
          "internalType": "address",
          "name": "_poolAdmin",
          "type": "address"
        },
        {
          "internalType": "uint256",
          "name": "_feeRate",
          "type": "uint256"
        },
        {
          "internalType": "bool",
          "name": "_isOpenMarket",
          "type": "bool"
        }
      ],
      "stateMutability": "nonpayable",
      "type": "constructor"
    },
    {
      "anonymous": false,
      "inputs": [
        {
          "indexed": false,
          "internalType": "address",
          "name": "buyer",
          "type": "address"
        },
        {
          "indexed": false,
          "internalType": "uint256[]",
          "name": "numOfboxTypes",
          "type": "uint256[]"
        },
        {
          "indexed": false,
          "internalType": "uint256",
          "name": "totalPrice",
          "type": "uint256"
        }
      ],
      "name": "EventBuyCompleted",
      "type": "event"
    },
    {
      "anonymous": false,
      "inputs": [
        {
          "indexed": false,
          "internalType": "address",
          "name": "buyer",
          "type": "address"
        },
        {
          "indexed": false,
          "internalType": "uint256",
          "name": "nftId",
          "type": "uint256"
        }
      ],
      "name": "EventClaimCompleted",
      "type": "event"
    },
    {
      "anonymous": false,
      "inputs": [
        {
          "indexed": false,
          "internalType": "uint256[]",
          "name": "boxTypes",
          "type": "uint256[]"
        },
        {
          "indexed": false,
          "internalType": "uint256[]",
          "name": "price",
          "type": "uint256[]"
        },
        {
          "indexed": false,
          "internalType": "uint256",
          "name": "from",
          "type": "uint256"
        },
        {
          "indexed": false,
          "internalType": "uint256",
          "name": "to",
          "type": "uint256"
        }
      ],
      "name": "EventUpdateBoxPrice",
      "type": "event"
    },
    {
      "anonymous": false,
      "inputs": [
        {
          "indexed": true,
          "internalType": "address",
          "name": "previousOwner",
          "type": "address"
        },
        {
          "indexed": true,
          "internalType": "address",
          "name": "newOwner",
          "type": "address"
        }
      ],
      "name": "OwnershipTransferred",
      "type": "event"
    },
    {
      "anonymous": false,
      "inputs": [
        {
          "indexed": false,
          "internalType": "address",
          "name": "account",
          "type": "address"
        }
      ],
      "name": "Paused",
      "type": "event"
    },
    {
      "anonymous": false,
      "inputs": [
        {
          "indexed": false,
          "internalType": "address",
          "name": "account",
          "type": "address"
        }
      ],
      "name": "Unpaused",
      "type": "event"
    },
    {
      "inputs": [
        {
          "internalType": "uint256",
          "name": "_boxType",
          "type": "uint256"
        }
      ],
      "name": "CountNftInMarket",
      "outputs": [
        {
          "internalType": "uint256",
          "name": "",
          "type": "uint256"
        }
      ],
      "stateMutability": "view",
      "type": "function"
    },
    {
      "inputs": [
        {
          "internalType": "uint256",
          "name": "",
          "type": "uint256"
        }
      ],
      "name": "Kho",
      "outputs": [
        {
          "internalType": "uint256",
          "name": "",
          "type": "uint256"
        }
      ],
      "stateMutability": "view",
      "type": "function"
    },
    {
      "inputs": [
        {
          "internalType": "address[]",
          "name": "_seller",
          "type": "address[]"
        }
      ],
      "name": "addSellerList",
      "outputs": [],
      "stateMutability": "nonpayable",
      "type": "function"
    },
    {
      "inputs": [],
      "name": "baseRate",
      "outputs": [
        {
          "internalType": "uint256",
          "name": "",
          "type": "uint256"
        }
      ],
      "stateMutability": "view",
      "type": "function"
    },
    {
      "inputs": [
        {
          "internalType": "address",
          "name": "",
          "type": "address"
        }
      ],
      "name": "blacklistMap",
      "outputs": [
        {
          "internalType": "bool",
          "name": "",
          "type": "bool"
        }
      ],
      "stateMutability": "view",
      "type": "function"
    },
    {
      "inputs": [
        {
          "internalType": "uint256[]",
          "name": "_numOfboxTypes",
          "type": "uint256[]"
        }
      ],
      "name": "buyItem",
      "outputs": [],
      "stateMutability": "nonpayable",
      "type": "function"
    },
    {
      "inputs": [
        {
          "internalType": "uint256",
          "name": "_pricing",
          "type": "uint256"
        },
        {
          "internalType": "uint256",
          "name": "_percentSaleOff",
          "type": "uint256"
        }
      ],
      "name": "calPercentSaleOff",
      "outputs": [
        {
          "internalType": "uint256",
          "name": "saleOff",
          "type": "uint256"
        }
      ],
      "stateMutability": "view",
      "type": "function"
    },
    {
      "inputs": [
        {
          "internalType": "uint256",
          "name": "_pricing",
          "type": "uint256"
        }
      ],
      "name": "callTradingFee",
      "outputs": [
        {
          "internalType": "uint256",
          "name": "feeTrading",
          "type": "uint256"
        }
      ],
      "stateMutability": "view",
      "type": "function"
    },
    {
      "inputs": [],
      "name": "claimItem",
      "outputs": [],
      "stateMutability": "nonpayable",
      "type": "function"
    },
    {
      "inputs": [
        {
          "internalType": "uint256",
          "name": "_numOfNfts",
          "type": "uint256"
        }
      ],
      "name": "cleanMarket",
      "outputs": [],
      "stateMutability": "nonpayable",
      "type": "function"
    },
    {
      "inputs": [],
      "name": "devWallet",
      "outputs": [
        {
          "internalType": "address",
          "name": "",
          "type": "address"
        }
      ],
      "stateMutability": "view",
      "type": "function"
    },
    {
      "inputs": [],
      "name": "feeRate",
      "outputs": [
        {
          "internalType": "uint256",
          "name": "",
          "type": "uint256"
        }
      ],
      "stateMutability": "view",
      "type": "function"
    },
    {
      "inputs": [
        {
          "internalType": "uint256",
          "name": "index",
          "type": "uint256"
        }
      ],
      "name": "getBoxTypeRunTogether",
      "outputs": [
        {
          "internalType": "uint256",
          "name": "",
          "type": "uint256"
        }
      ],
      "stateMutability": "view",
      "type": "function"
    },
    {
      "inputs": [],
      "name": "isOpenMarket",
      "outputs": [
        {
          "internalType": "bool",
          "name": "",
          "type": "bool"
        }
      ],
      "stateMutability": "view",
      "type": "function"
    },
    {
      "inputs": [
        {
          "internalType": "uint256",
          "name": "",
          "type": "uint256"
        }
      ],
      "name": "maxNftInTransfer",
      "outputs": [
        {
          "internalType": "uint256",
          "name": "",
          "type": "uint256"
        }
      ],
      "stateMutability": "view",
      "type": "function"
    },
    {
      "inputs": [
        {
          "internalType": "uint256",
          "name": "a",
          "type": "uint256"
        },
        {
          "internalType": "uint256",
          "name": "b",
          "type": "uint256"
        }
      ],
      "name": "min",
      "outputs": [
        {
          "internalType": "uint256",
          "name": "",
          "type": "uint256"
        }
      ],
      "stateMutability": "pure",
      "type": "function"
    },
    {
      "inputs": [
        {
          "internalType": "address",
          "name": "",
          "type": "address"
        },
        {
          "internalType": "address",
          "name": "",
          "type": "address"
        },
        {
          "internalType": "uint256",
          "name": "",
          "type": "uint256"
        },
        {
          "internalType": "bytes",
          "name": "",
          "type": "bytes"
        }
      ],
      "name": "onERC721Received",
      "outputs": [
        {
          "internalType": "bytes4",
          "name": "",
          "type": "bytes4"
        }
      ],
      "stateMutability": "pure",
      "type": "function"
    },
    {
      "inputs": [],
      "name": "owner",
      "outputs": [
        {
          "internalType": "address",
          "name": "",
          "type": "address"
        }
      ],
      "stateMutability": "view",
      "type": "function"
    },
    {
      "inputs": [],
      "name": "paused",
      "outputs": [
        {
          "internalType": "bool",
          "name": "",
          "type": "bool"
        }
      ],
      "stateMutability": "view",
      "type": "function"
    },
    {
      "inputs": [
        {
          "internalType": "uint256",
          "name": "",
          "type": "uint256"
        }
      ],
      "name": "percentSaleOffKhoMap",
      "outputs": [
        {
          "internalType": "uint256",
          "name": "",
          "type": "uint256"
        }
      ],
      "stateMutability": "view",
      "type": "function"
    },
    {
      "inputs": [],
      "name": "poolAdmin",
      "outputs": [
        {
          "internalType": "address",
          "name": "",
          "type": "address"
        }
      ],
      "stateMutability": "view",
      "type": "function"
    },
    {
      "inputs": [],
      "name": "poolReward",
      "outputs": [
        {
          "internalType": "address",
          "name": "",
          "type": "address"
        }
      ],
      "stateMutability": "view",
      "type": "function"
    },
    {
      "inputs": [
        {
          "internalType": "address[]",
          "name": "userList",
          "type": "address[]"
        }
      ],
      "name": "removeBlackList",
      "outputs": [],
      "stateMutability": "nonpayable",
      "type": "function"
    },
    {
      "inputs": [
        {
          "internalType": "address[]",
          "name": "_seller",
          "type": "address[]"
        }
      ],
      "name": "removeSellerList",
      "outputs": [],
      "stateMutability": "nonpayable",
      "type": "function"
    },
    {
      "inputs": [],
      "name": "renounceOwnership",
      "outputs": [],
      "stateMutability": "nonpayable",
      "type": "function"
    },
    {
      "inputs": [
        {
          "internalType": "uint256[]",
          "name": "_boxTypes",
          "type": "uint256[]"
        }
      ],
      "name": "resetNft",
      "outputs": [],
      "stateMutability": "nonpayable",
      "type": "function"
    },
    {
      "inputs": [],
      "name": "runTogetherBoxNft",
      "outputs": [
        {
          "internalType": "address",
          "name": "",
          "type": "address"
        }
      ],
      "stateMutability": "view",
      "type": "function"
    },
    {
      "inputs": [
        {
          "internalType": "uint256",
          "name": "",
          "type": "uint256"
        },
        {
          "internalType": "uint256",
          "name": "",
          "type": "uint256"
        }
      ],
      "name": "runTogetherBoxNftMap",
      "outputs": [
        {
          "internalType": "uint256",
          "name": "",
          "type": "uint256"
        }
      ],
      "stateMutability": "view",
      "type": "function"
    },
    {
      "inputs": [
        {
          "internalType": "uint256",
          "name": "",
          "type": "uint256"
        }
      ],
      "name": "runTogetherBoxNftTypeCountMap",
      "outputs": [
        {
          "internalType": "uint256",
          "name": "",
          "type": "uint256"
        }
      ],
      "stateMutability": "view",
      "type": "function"
    },
    {
      "inputs": [
        {
          "internalType": "uint256",
          "name": "",
          "type": "uint256"
        }
      ],
      "name": "runTogetherBoxNftTypePriceMap",
      "outputs": [
        {
          "internalType": "uint256",
          "name": "",
          "type": "uint256"
        }
      ],
      "stateMutability": "view",
      "type": "function"
    },
    {
      "inputs": [
        {
          "internalType": "address",
          "name": "",
          "type": "address"
        }
      ],
      "name": "sellerListMap",
      "outputs": [
        {
          "internalType": "bool",
          "name": "",
          "type": "bool"
        }
      ],
      "stateMutability": "view",
      "type": "function"
    },
    {
      "inputs": [
        {
          "internalType": "address[]",
          "name": "userList",
          "type": "address[]"
        }
      ],
      "name": "setBlackList",
      "outputs": [],
      "stateMutability": "nonpayable",
      "type": "function"
    },
    {
      "inputs": [
        {
          "internalType": "address",
          "name": "_devWallet",
          "type": "address"
        }
      ],
      "name": "setDevWallet",
      "outputs": [],
      "stateMutability": "nonpayable",
      "type": "function"
    },
    {
      "inputs": [
        {
          "internalType": "uint256[]",
          "name": "_boxTypes",
          "type": "uint256[]"
        },
        {
          "internalType": "uint256[]",
          "name": "_maxNftInTransfer",
          "type": "uint256[]"
        }
      ],
      "name": "setMaxNftInTransfer",
      "outputs": [],
      "stateMutability": "nonpayable",
      "type": "function"
    },
    {
      "inputs": [
        {
          "internalType": "uint256[]",
          "name": "_Kho",
          "type": "uint256[]"
        },
        {
          "internalType": "uint256[]",
          "name": "_percentSaleOffKhoMap",
          "type": "uint256[]"
        }
      ],
      "name": "setPercentSaleOffKho",
      "outputs": [],
      "stateMutability": "nonpayable",
      "type": "function"
    },
    {
      "inputs": [
        {
          "internalType": "address",
          "name": "_poolAdmin",
          "type": "address"
        },
        {
          "internalType": "address",
          "name": "_poolReward",
          "type": "address"
        }
      ],
      "name": "setPool",
      "outputs": [],
      "stateMutability": "nonpayable",
      "type": "function"
    },
    {
      "inputs": [
        {
          "internalType": "uint256",
          "name": "_tokenId",
          "type": "uint256"
        }
      ],
      "name": "setTokenIdToAddressZero",
      "outputs": [],
      "stateMutability": "nonpayable",
      "type": "function"
    },
    {
      "inputs": [
        {
          "internalType": "uint256",
          "name": "_totalBoxType",
          "type": "uint256"
        }
      ],
      "name": "setTotalBoxType",
      "outputs": [],
      "stateMutability": "nonpayable",
      "type": "function"
    },
    {
      "inputs": [
        {
          "internalType": "uint256",
          "name": "_newRate",
          "type": "uint256"
        }
      ],
      "name": "setTradingFee",
      "outputs": [],
      "stateMutability": "nonpayable",
      "type": "function"
    },
    {
      "inputs": [
        {
          "internalType": "uint256",
          "name": "",
          "type": "uint256"
        }
      ],
      "name": "tokenIdToAddressMap",
      "outputs": [
        {
          "internalType": "address",
          "name": "",
          "type": "address"
        }
      ],
      "stateMutability": "view",
      "type": "function"
    },
    {
      "inputs": [
        {
          "internalType": "address",
          "name": "",
          "type": "address"
        }
      ],
      "name": "totalBoxOfUser",
      "outputs": [
        {
          "internalType": "uint256",
          "name": "",
          "type": "uint256"
        }
      ],
      "stateMutability": "view",
      "type": "function"
    },
    {
      "inputs": [],
      "name": "totalBoxType",
      "outputs": [
        {
          "internalType": "uint256",
          "name": "",
          "type": "uint256"
        }
      ],
      "stateMutability": "view",
      "type": "function"
    },
    {
      "inputs": [
        {
          "internalType": "address",
          "name": "newOwner",
          "type": "address"
        }
      ],
      "name": "transferOwnership",
      "outputs": [],
      "stateMutability": "nonpayable",
      "type": "function"
    },
    {
      "inputs": [
        {
          "internalType": "uint256[]",
          "name": "_boxTypes",
          "type": "uint256[]"
        },
        {
          "internalType": "uint256[]",
          "name": "_price",
          "type": "uint256[]"
        },
        {
          "internalType": "uint256",
          "name": "_from",
          "type": "uint256"
        },
        {
          "internalType": "uint256",
          "name": "_to",
          "type": "uint256"
        }
      ],
      "name": "updateBoxPrice",
      "outputs": [],
      "stateMutability": "nonpayable",
      "type": "function"
    },
    {
      "inputs": [
        {
          "internalType": "address",
          "name": "",
          "type": "address"
        },
        {
          "internalType": "uint256",
          "name": "",
          "type": "uint256"
        }
      ],
      "name": "userBoxTypeMap",
      "outputs": [
        {
          "internalType": "uint256",
          "name": "",
          "type": "uint256"
        }
      ],
      "stateMutability": "view",
      "type": "function"
    }
  ],
  "bytecode": "0x60806040526004600d5560c86012556103e86013553480156200002157600080fd5b50604051620044fe380380620044fe83398181016040528101906200004791906200030c565b620000676200005b620001fb60201b60201c565b6200020360201b60201c565b600180819055506000600260006101000a81548160ff02191690831515021790555080601160146101000a81548160ff02191690831515021790555084601160006101000a81548173ffffffffffffffffffffffffffffffffffffffff021916908373ffffffffffffffffffffffffffffffffffffffff1602179055508160128190555083601460006101000a81548173ffffffffffffffffffffffffffffffffffffffff021916908373ffffffffffffffffffffffffffffffffffffffff16021790555082601560006101000a81548173ffffffffffffffffffffffffffffffffffffffff021916908373ffffffffffffffffffffffffffffffffffffffff16021790555085600760006101000a81548173ffffffffffffffffffffffffffffffffffffffff021916908373ffffffffffffffffffffffffffffffffffffffff16021790555085600660006101000a81548173ffffffffffffffffffffffffffffffffffffffff021916908373ffffffffffffffffffffffffffffffffffffffff16021790555050505050505062000445565b600033905090565b60008060009054906101000a900473ffffffffffffffffffffffffffffffffffffffff169050816000806101000a81548173ffffffffffffffffffffffffffffffffffffffff021916908373ffffffffffffffffffffffffffffffffffffffff1602179055508173ffffffffffffffffffffffffffffffffffffffff168173ffffffffffffffffffffffffffffffffffffffff167f8be0079c531659141344cd1fd0a4f28419497f9722a3daafe3b4186f6b6457e060405160405180910390a35050565b600081519050620002d881620003f7565b92915050565b600081519050620002ef8162000411565b92915050565b60008151905062000306816200042b565b92915050565b60008060008060008060c087890312156200032c576200032b620003f2565b5b60006200033c89828a01620002c7565b96505060206200034f89828a01620002c7565b95505060406200036289828a01620002c7565b94505060606200037589828a01620002c7565b93505060806200038889828a01620002f5565b92505060a06200039b89828a01620002de565b9150509295509295509295565b6000620003b582620003c8565b9050919050565b60008115159050919050565b600073ffffffffffffffffffffffffffffffffffffffff82169050919050565b6000819050919050565b600080fd5b6200040281620003a8565b81146200040e57600080fd5b50565b6200041c81620003bc565b81146200042857600080fd5b50565b6200043681620003e8565b81146200044257600080fd5b50565b6140a980620004556000396000f3fe608060405234801561001057600080fd5b506004361061027f5760003560e01c80637d69a6d51161015c578063b0d54bcf116100ce578063db72d95a11610087578063db72d95a146107ce578063e709e257146107fe578063f2fde38b1461082e578063f3e768801461084a578063f3f4a6771461087a578063fef10b95146108965761027f565b8063b0d54bcf146106fc578063b782cc4914610718578063bce51dda14610736578063c8f106d214610752578063d34de64114610782578063daa3828d146107b25761027f565b806392431a841161012057806392431a8414610638578063940f40a314610656578063978bbdb9146106745780639aa0ea19146106925780639bf41135146106c2578063aeaf0430146106de5761027f565b80637d69a6d51461058057806380341f17146105b05780638da5cb5b146105cc5780638e293b8a146105ea5780638ea5220f1461061a5761027f565b80634addcf93116101f55780635c975abb116101b95780635c975abb146104ac5780635e129512146104ca578063715018a6146104fa578063734007e514610504578063777e092b146105345780637ae2b5c7146105505761027f565b80634addcf93146103f85780634e847fc7146104145780634f63e5b71461043057806354571217146104605780635844225a146104905761027f565b80631f68f20a116102475780631f68f20a1461032657806334a9035a146103445780633beba517146103745780633dccc4211461039057806340526063146103ac5780634825fd4e146103c85761027f565b806302b7f5ef1461028457806307e6bf5b146102a0578063150b7a02146102d0578063154d3126146103005780631f53ac021461030a575b600080fd5b61029e600480360381019061029991906131ef565b6108b4565b005b6102ba60048036038101906102b591906133de565b6109d5565b6040516102c79190613a4f565b60405180910390f35b6102ea60048036038101906102e59190613127565b6109ed565b6040516102f79190613862565b60405180910390f35b610308610a1b565b005b610324600480360381019061031f91906130ba565b610fa4565b005b61032e611064565b60405161033b9190613a4f565b60405180910390f35b61035e600480360381019061035991906133de565b61106a565b60405161036b9190613a4f565b60405180910390f35b61038e60048036038101906103899190613289565b61108e565b005b6103aa60048036038101906103a591906133de565b61117c565b005b6103c660048036038101906103c1919061323c565b61139a565b005b6103e260048036038101906103dd91906133de565b611ab3565b6040516103ef9190613a4f565b60405180910390f35b610412600480360381019061040d9190613289565b611ad3565b005b61042e600480360381019061042991906130e7565b611bd8565b005b61044a60048036038101906104459190613438565b611cda565b6040516104579190613a4f565b60405180910390f35b61047a600480360381019061047591906133de565b611d0b565b6040516104879190613a4f565b60405180910390f35b6104aa60048036038101906104a591906133de565b611d23565b005b6104b4611da9565b6040516104c19190613847565b60405180910390f35b6104e460048036038101906104df91906133de565b611dc0565b6040516104f19190613a4f565b60405180910390f35b610502611de4565b005b61051e600480360381019061051991906133de565b611e6c565b60405161052b9190613a4f565b60405180910390f35b61054e600480360381019061054991906131ef565b611f20565b005b61056a60048036038101906105659190613438565b612041565b6040516105779190613a4f565b60405180910390f35b61059a600480360381019061059591906133de565b61205b565b6040516105a79190613a4f565b60405180910390f35b6105ca60048036038101906105c5919061323c565b612073565b005b6105d461217f565b6040516105e19190613735565b60405180910390f35b61060460048036038101906105ff91906133de565b6121a8565b6040516106119190613735565b60405180910390f35b6106226121db565b60405161062f9190613735565b60405180910390f35b610640612201565b60405161064d9190613a4f565b60405180910390f35b61065e612207565b60405161066b9190613735565b60405180910390f35b61067c61222d565b6040516106899190613a4f565b60405180910390f35b6106ac60048036038101906106a791906130ba565b612233565b6040516106b99190613847565b60405180910390f35b6106dc60048036038101906106d791906131ef565b612253565b005b6106e6612374565b6040516106f39190613847565b60405180910390f35b610716600480360381019061071191906133de565b612387565b005b61072061240d565b60405161072d9190613735565b60405180910390f35b610750600480360381019061074b919061330a565b612433565b005b61076c600480360381019061076791906133de565b612715565b6040516107799190613a4f565b60405180910390f35b61079c600480360381019061079791906131af565b61272d565b6040516107a99190613a4f565b60405180910390f35b6107cc60048036038101906107c791906133de565b612752565b005b6107e860048036038101906107e39190613438565b6127a8565b6040516107f59190613a4f565b60405180910390f35b610818600480360381019061081391906130ba565b6127cb565b6040516108259190613a4f565b60405180910390f35b610848600480360381019061084391906130ba565b6127e3565b005b610864600480360381019061085f91906130ba565b6128db565b6040516108719190613847565b60405180910390f35b610894600480360381019061088f91906131ef565b6128fb565b005b61089e612a1c565b6040516108ab9190613735565b60405180910390f35b6108bc612a42565b73ffffffffffffffffffffffffffffffffffffffff166108da61217f565b73ffffffffffffffffffffffffffffffffffffffff1614610930576040517f08c379a00000000000000000000000000000000000000000000000000000000081526004016109279061398f565b60405180910390fd5b60005b828290508110156109d05760016010600085858581811061095757610956613d4e565b5b905060200201602081019061096c91906130ba565b73ffffffffffffffffffffffffffffffffffffffff1673ffffffffffffffffffffffffffffffffffffffff16815260200190815260200160002060006101000a81548160ff02191690831515021790555080806109c890613c78565b915050610933565b505050565b60056020528060005260406000206000915090505481565b60007f150b7a023d4804d13e8c85fb27262cb750cf6ba9f9dd3bb30d90f482ceeb4b1f905095945050505050565b60011515601160149054906101000a900460ff16151514610a71576040517f08c379a0000000000000000000000000000000000000000000000000000000008152600401610a68906139ef565b60405180910390fd5b60026001541415610ab7576040517f08c379a0000000000000000000000000000000000000000000000000000000008152600401610aae90613a2f565b60405180910390fd5b600260018190555060001515600f60003373ffffffffffffffffffffffffffffffffffffffff1673ffffffffffffffffffffffffffffffffffffffff16815260200190815260200160002060009054906101000a900460ff16151514610b52576040517f08c379a0000000000000000000000000000000000000000000000000000000008152600401610b499061390f565b60405180910390fd5b6000600c60003373ffffffffffffffffffffffffffffffffffffffff1673ffffffffffffffffffffffffffffffffffffffff1681526020019081526020016000205411610bd4576040517f08c379a0000000000000000000000000000000000000000000000000000000008152600401610bcb9061396f565b60405180910390fd5b6000600190505b600d548111610f9a5760006017600083815260200190815260200160002054600b60003373ffffffffffffffffffffffffffffffffffffffff1673ffffffffffffffffffffffffffffffffffffffff16815260200190815260200160002060008481526020019081526020016000205411610ca857600b60003373ffffffffffffffffffffffffffffffffffffffff1673ffffffffffffffffffffffffffffffffffffffff1681526020019081526020016000206000838152602001908152602001600020549050610cbf565b601760008381526020019081526020016000205490505b610cfe6040518060400160405280600881526020017f746f74616c4e667400000000000000000000000000000000000000000000000081525082612a4a565b80600b60003373ffffffffffffffffffffffffffffffffffffffff1673ffffffffffffffffffffffffffffffffffffffff16815260200190815260200160002060008481526020019081526020016000206000828254610d5e9190613b8e565b9250508190555080600c60003373ffffffffffffffffffffffffffffffffffffffff1673ffffffffffffffffffffffffffffffffffffffff1681526020019081526020016000206000828254610db49190613b8e565b9250508190555060005b81811015610f855760006008600085815260200190815260200160002060016008600087815260200190815260200160002080549050610dfe9190613b8e565b81548110610e0f57610e0e613d4e565b5b90600052602060002001549050600760009054906101000a900473ffffffffffffffffffffffffffffffffffffffff1673ffffffffffffffffffffffffffffffffffffffff166342842e0e3033846040518463ffffffff1660e01b8152600401610e7b93929190613750565b600060405180830381600087803b158015610e9557600080fd5b505af1158015610ea9573d6000803e3d6000fd5b5050505033600e600083815260200190815260200160002060006101000a81548173ffffffffffffffffffffffffffffffffffffffff021916908373ffffffffffffffffffffffffffffffffffffffff16021790555060086000858152602001908152602001600020805480610f2257610f21613d1f565b5b600190038181906000526020600020016000905590557ffd6aa60772b5711958f4a06d7a71d634d54ef552f7515f1f11c5726d228be9a13382604051610f699291906137c7565b60405180910390a1508080610f7d90613c78565b915050610dbe565b50508080610f9290613c78565b915050610bdb565b5060018081905550565b610fac612a42565b73ffffffffffffffffffffffffffffffffffffffff16610fca61217f565b73ffffffffffffffffffffffffffffffffffffffff1614611020576040517f08c379a00000000000000000000000000000000000000000000000000000000081526004016110179061398f565b60405180910390fd5b80601660006101000a81548173ffffffffffffffffffffffffffffffffffffffff021916908373ffffffffffffffffffffffffffffffffffffffff16021790555050565b60135481565b6004818154811061107a57600080fd5b906000526020600020016000915090505481565b611096612a42565b73ffffffffffffffffffffffffffffffffffffffff166110b461217f565b73ffffffffffffffffffffffffffffffffffffffff161461110a576040517f08c379a00000000000000000000000000000000000000000000000000000000081526004016111019061398f565b60405180910390fd5b60005b828290508110156111755782828281811061112b5761112a613d4e565b5b905060200201356017600087878581811061114957611148613d4e565b5b90506020020135815260200190815260200160002081905550808061116d90613c78565b91505061110d565b5050505050565b611184612a42565b73ffffffffffffffffffffffffffffffffffffffff166111a261217f565b73ffffffffffffffffffffffffffffffffffffffff16146111f8576040517f08c379a00000000000000000000000000000000000000000000000000000000081526004016111ef9061398f565b60405180910390fd5b60005b8181101561137b576000600760009054906101000a900473ffffffffffffffffffffffffffffffffffffffff1673ffffffffffffffffffffffffffffffffffffffff16632f745c5930846040518363ffffffff1660e01b81526004016112629291906137c7565b60206040518083038186803b15801561127a57600080fd5b505afa15801561128e573d6000803e3d6000fd5b505050506040513d601f19601f820116820180604052508101906112b2919061340b565b9050600760009054906101000a900473ffffffffffffffffffffffffffffffffffffffff1673ffffffffffffffffffffffffffffffffffffffff166342842e0e30601660009054906101000a900473ffffffffffffffffffffffffffffffffffffffff16846040518463ffffffff1660e01b815260040161133593929190613750565b600060405180830381600087803b15801561134f57600080fd5b505af1158015611363573d6000803e3d6000fd5b5050505050808061137390613c78565b9150506111fb565b506000601160146101000a81548160ff02191690831515021790555050565b60011515601160149054906101000a900460ff161515146113f0576040517f08c379a00000000000000000000000000000000000000000000000000000000081526004016113e7906139ef565b60405180910390fd5b60026001541415611436576040517f08c379a000000000000000000000000000000000000000000000000000000000815260040161142d90613a2f565b60405180910390fd5b600260018190555060001515600f60003373ffffffffffffffffffffffffffffffffffffffff1673ffffffffffffffffffffffffffffffffffffffff16815260200190815260200160002060009054906101000a900460ff161515146114d1576040517f08c379a00000000000000000000000000000000000000000000000000000000081526004016114c89061390f565b60405180910390fd5b600d548282905014611518576040517f08c379a000000000000000000000000000000000000000000000000000000000815260040161150f906139af565b60405180910390fd5b600080600190505b600d54811161180a576115686040518060400160405280600581526020017f696e64657800000000000000000000000000000000000000000000000000000081525082612a4a565b61159d60405180606001604052806024815260200161405060249139600a600084815260200190815260200160002054612a4a565b600a60008281526020019081526020016000205484846001846115c09190613b8e565b8181106115d0576115cf613d4e565b5b9050602002013510611617576040517f08c379a000000000000000000000000000000000000000000000000000000000815260040161160e9061392f565b60405180910390fd5b83836001836116269190613b8e565b81811061163657611635613d4e565b5b90506020020135600b60003373ffffffffffffffffffffffffffffffffffffffff1673ffffffffffffffffffffffffffffffffffffffff168152602001908152602001600020600083815260200190815260200160002081905550600960008281526020019081526020016000205484846001846116b49190613b8e565b8181106116c4576116c3613d4e565b5b905060200201356116d59190613b34565b826116e09190613aad565b91506000600b60003373ffffffffffffffffffffffffffffffffffffffff1673ffffffffffffffffffffffffffffffffffffffff168152602001908152602001600020600083815260200190815260200160002054905080600a6000848152602001908152602001600020600082825461175a9190613b8e565b9250508190555080600c60003373ffffffffffffffffffffffffffffffffffffffff1673ffffffffffffffffffffffffffffffffffffffff16815260200190815260200160002060008282546117b09190613aad565b925050819055506117f66040518060400160405280600881526020017f6e756d4f66426f7800000000000000000000000000000000000000000000000081525082612a4a565b50808061180290613c78565b915050611520565b50600081905060005b6004805490508110156118e9576004818154811061183457611833613d4e565b5b9060005260206000200154600c60003373ffffffffffffffffffffffffffffffffffffffff1673ffffffffffffffffffffffffffffffffffffffff16815260200190815260200160002054106118d6576118d3826118c38560056000600487815481106118a4576118a3613d4e565b5b90600052602060002001548152602001908152602001600020546127a8565b856118ce9190613b8e565b612041565b91505b80806118e190613c78565b915050611813565b506119296040518060400160405280600a81526020017f746f74616c50726963650000000000000000000000000000000000000000000081525083612a4a565b6119686040518060400160405280600881526020017f6e6577507269636500000000000000000000000000000000000000000000000081525082612a4a565b600061197382611dc0565b9050600081836119839190613b8e565b90506119f633601460009054906101000a900473ffffffffffffffffffffffffffffffffffffffff1684601160009054906101000a900473ffffffffffffffffffffffffffffffffffffffff1673ffffffffffffffffffffffffffffffffffffffff16612ae6909392919063ffffffff16565b611a6733601560009054906101000a900473ffffffffffffffffffffffffffffffffffffffff1683601160009054906101000a900473ffffffffffffffffffffffffffffffffffffffff1673ffffffffffffffffffffffffffffffffffffffff16612ae6909392919063ffffffff16565b7f3199e44eb1ce0078d653b304115c703a51b9a322b1f657b6adb06401f4ac1f2833878786604051611a9c9493929190613787565b60405180910390a150505050600180819055505050565b600060086000838152602001908152602001600020805490509050919050565b611adb612a42565b73ffffffffffffffffffffffffffffffffffffffff16611af961217f565b73ffffffffffffffffffffffffffffffffffffffff1614611b4f576040517f08c379a0000000000000000000000000000000000000000000000000000000008152600401611b469061398f565b60405180910390fd5b838360049190611b60929190612ed9565b5060005b82829050811015611bd157828282818110611b8257611b81613d4e565b5b905060200201356005600060048481548110611ba157611ba0613d4e565b5b90600052602060002001548152602001908152602001600020819055508080611bc990613c78565b915050611b64565b5050505050565b611be0612a42565b73ffffffffffffffffffffffffffffffffffffffff16611bfe61217f565b73ffffffffffffffffffffffffffffffffffffffff1614611c54576040517f08c379a0000000000000000000000000000000000000000000000000000000008152600401611c4b9061398f565b60405180910390fd5b81601560006101000a81548173ffffffffffffffffffffffffffffffffffffffff021916908373ffffffffffffffffffffffffffffffffffffffff16021790555080601460006101000a81548173ffffffffffffffffffffffffffffffffffffffff021916908373ffffffffffffffffffffffffffffffffffffffff1602179055505050565b60086020528160005260406000208181548110611cf657600080fd5b90600052602060002001600091509150505481565b600a6020528060005260406000206000915090505481565b611d2b612a42565b73ffffffffffffffffffffffffffffffffffffffff16611d4961217f565b73ffffffffffffffffffffffffffffffffffffffff1614611d9f576040517f08c379a0000000000000000000000000000000000000000000000000000000008152600401611d969061398f565b60405180910390fd5b80600d8190555050565b6000600260009054906101000a900460ff16905090565b600060135460125483611dd39190613b34565b611ddd9190613b03565b9050919050565b611dec612a42565b73ffffffffffffffffffffffffffffffffffffffff16611e0a61217f565b73ffffffffffffffffffffffffffffffffffffffff1614611e60576040517f08c379a0000000000000000000000000000000000000000000000000000000008152600401611e579061398f565b60405180910390fd5b611e6a6000612b6f565b565b6000600660009054906101000a900473ffffffffffffffffffffffffffffffffffffffff1673ffffffffffffffffffffffffffffffffffffffff1663b546a3bc836040518263ffffffff1660e01b8152600401611ec99190613a4f565b60206040518083038186803b158015611ee157600080fd5b505afa158015611ef5573d6000803e3d6000fd5b505050506040513d601f19601f82011682018060405250810190611f19919061340b565b9050919050565b611f28612a42565b73ffffffffffffffffffffffffffffffffffffffff16611f4661217f565b73ffffffffffffffffffffffffffffffffffffffff1614611f9c576040517f08c379a0000000000000000000000000000000000000000000000000000000008152600401611f939061398f565b60405180910390fd5b60005b8282905081101561203c576001600f6000858585818110611fc357611fc2613d4e565b5b9050602002016020810190611fd891906130ba565b73ffffffffffffffffffffffffffffffffffffffff1673ffffffffffffffffffffffffffffffffffffffff16815260200190815260200160002060006101000a81548160ff021916908315150217905550808061203490613c78565b915050611f9f565b505050565b6000818311156120515781612053565b825b905092915050565b60096020528060005260406000206000915090505481565b61207b612a42565b73ffffffffffffffffffffffffffffffffffffffff1661209961217f565b73ffffffffffffffffffffffffffffffffffffffff16146120ef576040517f08c379a00000000000000000000000000000000000000000000000000000000081526004016120e69061398f565b60405180910390fd5b60005b8282905081101561217a576008600084848481811061211457612113613d4e565b5b90506020020135815260200190815260200160002060006121359190612f26565b6000600a600085858581811061214e5761214d613d4e565b5b90506020020135815260200190815260200160002081905550808061217290613c78565b9150506120f2565b505050565b60008060009054906101000a900473ffffffffffffffffffffffffffffffffffffffff16905090565b600e6020528060005260406000206000915054906101000a900473ffffffffffffffffffffffffffffffffffffffff1681565b601660009054906101000a900473ffffffffffffffffffffffffffffffffffffffff1681565b600d5481565b600760009054906101000a900473ffffffffffffffffffffffffffffffffffffffff1681565b60125481565b600f6020528060005260406000206000915054906101000a900460ff1681565b61225b612a42565b73ffffffffffffffffffffffffffffffffffffffff1661227961217f565b73ffffffffffffffffffffffffffffffffffffffff16146122cf576040517f08c379a00000000000000000000000000000000000000000000000000000000081526004016122c69061398f565b60405180910390fd5b60005b8282905081101561236f576000600f60008585858181106122f6576122f5613d4e565b5b905060200201602081019061230b91906130ba565b73ffffffffffffffffffffffffffffffffffffffff1673ffffffffffffffffffffffffffffffffffffffff16815260200190815260200160002060006101000a81548160ff021916908315150217905550808061236790613c78565b9150506122d2565b505050565b601160149054906101000a900460ff1681565b61238f612a42565b73ffffffffffffffffffffffffffffffffffffffff166123ad61217f565b73ffffffffffffffffffffffffffffffffffffffff1614612403576040517f08c379a00000000000000000000000000000000000000000000000000000000081526004016123fa9061398f565b60405180910390fd5b8060128190555050565b601560009054906101000a900473ffffffffffffffffffffffffffffffffffffffff1681565b60026001541415612479576040517f08c379a000000000000000000000000000000000000000000000000000000000815260040161247090613a2f565b60405180910390fd5b600260018190555060011515601060003373ffffffffffffffffffffffffffffffffffffffff1673ffffffffffffffffffffffffffffffffffffffff16815260200190815260200160002060009054906101000a900460ff16151514612514576040517f08c379a000000000000000000000000000000000000000000000000000000000815260040161250b906138cf565b60405180910390fd5b60005b8686905081101561257f5784848281811061253557612534613d4e565b5b905060200201356009600089898581811061255357612552613d4e565b5b90506020020135815260200190815260200160002081905550808061257790613c78565b915050612517565b5060008290505b818110156126c4576000600760009054906101000a900473ffffffffffffffffffffffffffffffffffffffff1673ffffffffffffffffffffffffffffffffffffffff16632f745c5930846040518363ffffffff1660e01b81526004016125ed9291906137c7565b60206040518083038186803b15801561260557600080fd5b505afa158015612619573d6000803e3d6000fd5b505050506040513d601f19601f8201168201806040525081019061263d919061340b565b9050600061264a82611e6c565b905060086000828152602001908152602001600020829080600181540180825580915050600190039060005260206000200160009091909190915055600a600082815260200190815260200160002060008154809291906126aa90613c78565b9190505550505080806126bc90613c78565b915050612586565b507f16fc2031ac3033ea9fa8da593e814eed1dcc3d86034f7a7ce3290267077cb60a8686868686866040516126fe969594939291906137f0565b60405180910390a160018081905550505050505050565b60176020528060005260406000206000915090505481565b600b602052816000526040600020602052806000526040600020600091509150505481565b6000600e600083815260200190815260200160002060006101000a81548173ffffffffffffffffffffffffffffffffffffffff021916908373ffffffffffffffffffffffffffffffffffffffff16021790555050565b600060135482846127b99190613b34565b6127c39190613b03565b905092915050565b600c6020528060005260406000206000915090505481565b6127eb612a42565b73ffffffffffffffffffffffffffffffffffffffff1661280961217f565b73ffffffffffffffffffffffffffffffffffffffff161461285f576040517f08c379a00000000000000000000000000000000000000000000000000000000081526004016128569061398f565b60405180910390fd5b600073ffffffffffffffffffffffffffffffffffffffff168173ffffffffffffffffffffffffffffffffffffffff1614156128cf576040517f08c379a00000000000000000000000000000000000000000000000000000000081526004016128c6906138ef565b60405180910390fd5b6128d881612b6f565b50565b60106020528060005260406000206000915054906101000a900460ff1681565b612903612a42565b73ffffffffffffffffffffffffffffffffffffffff1661292161217f565b73ffffffffffffffffffffffffffffffffffffffff1614612977576040517f08c379a000000000000000000000000000000000000000000000000000000000815260040161296e9061398f565b60405180910390fd5b60005b82829050811015612a175760006010600085858581811061299e5761299d613d4e565b5b90506020020160208101906129b391906130ba565b73ffffffffffffffffffffffffffffffffffffffff1673ffffffffffffffffffffffffffffffffffffffff16815260200190815260200160002060006101000a81548160ff0219169083151502179055508080612a0f90613c78565b91505061297a565b505050565b601460009054906101000a900473ffffffffffffffffffffffffffffffffffffffff1681565b600033905090565b612ae28282604051602401612a6092919061389f565b6040516020818303038152906040527f9710a9d0000000000000000000000000000000000000000000000000000000007bffffffffffffffffffffffffffffffffffffffffffffffffffffffff19166020820180517bffffffffffffffffffffffffffffffffffffffffffffffffffffffff8381831617835250505050612c33565b5050565b612b69846323b872dd60e01b858585604051602401612b0793929190613750565b604051602081830303815290604052907bffffffffffffffffffffffffffffffffffffffffffffffffffffffff19166020820180517bffffffffffffffffffffffffffffffffffffffffffffffffffffffff8381831617835250505050612c5c565b50505050565b60008060009054906101000a900473ffffffffffffffffffffffffffffffffffffffff169050816000806101000a81548173ffffffffffffffffffffffffffffffffffffffff021916908373ffffffffffffffffffffffffffffffffffffffff1602179055508173ffffffffffffffffffffffffffffffffffffffff168173ffffffffffffffffffffffffffffffffffffffff167f8be0079c531659141344cd1fd0a4f28419497f9722a3daafe3b4186f6b6457e060405160405180910390a35050565b60008151905060006a636f6e736f6c652e6c6f679050602083016000808483855afa5050505050565b6000612cbe826040518060400160405280602081526020017f5361666545524332303a206c6f772d6c6576656c2063616c6c206661696c65648152508573ffffffffffffffffffffffffffffffffffffffff16612d239092919063ffffffff16565b9050600081511115612d1e5780806020019051810190612cde91906133b1565b612d1d576040517f08c379a0000000000000000000000000000000000000000000000000000000008152600401612d1490613a0f565b60405180910390fd5b5b505050565b6060612d328484600085612d3b565b90509392505050565b606082471015612d80576040517f08c379a0000000000000000000000000000000000000000000000000000000008152600401612d779061394f565b60405180910390fd5b612d8985612e4f565b612dc8576040517f08c379a0000000000000000000000000000000000000000000000000000000008152600401612dbf906139cf565b60405180910390fd5b6000808673ffffffffffffffffffffffffffffffffffffffff168587604051612df1919061371e565b60006040518083038185875af1925050503d8060008114612e2e576040519150601f19603f3d011682016040523d82523d6000602084013e612e33565b606091505b5091509150612e43828286612e72565b92505050949350505050565b6000808273ffffffffffffffffffffffffffffffffffffffff163b119050919050565b60608315612e8257829050612ed2565b600083511115612e955782518084602001fd5b816040517f08c379a0000000000000000000000000000000000000000000000000000000008152600401612ec9919061387d565b60405180910390fd5b9392505050565b828054828255906000526020600020908101928215612f15579160200282015b82811115612f14578235825591602001919060010190612ef9565b5b509050612f229190612f47565b5090565b5080546000825590600052602060002090810190612f449190612f47565b50565b5b80821115612f60576000816000905550600101612f48565b5090565b600081359050612f738161400a565b92915050565b60008083601f840112612f8f57612f8e613d82565b5b8235905067ffffffffffffffff811115612fac57612fab613d7d565b5b602083019150836020820283011115612fc857612fc7613d87565b5b9250929050565b60008083601f840112612fe557612fe4613d82565b5b8235905067ffffffffffffffff81111561300257613001613d7d565b5b60208301915083602082028301111561301e5761301d613d87565b5b9250929050565b60008151905061303481614021565b92915050565b60008083601f8401126130505761304f613d82565b5b8235905067ffffffffffffffff81111561306d5761306c613d7d565b5b60208301915083600182028301111561308957613088613d87565b5b9250929050565b60008135905061309f81614038565b92915050565b6000815190506130b481614038565b92915050565b6000602082840312156130d0576130cf613d96565b5b60006130de84828501612f64565b91505092915050565b600080604083850312156130fe576130fd613d96565b5b600061310c85828601612f64565b925050602061311d85828601612f64565b9150509250929050565b60008060008060006080868803121561314357613142613d96565b5b600061315188828901612f64565b955050602061316288828901612f64565b945050604061317388828901613090565b935050606086013567ffffffffffffffff81111561319457613193613d8c565b5b6131a08882890161303a565b92509250509295509295909350565b600080604083850312156131c6576131c5613d96565b5b60006131d485828601612f64565b92505060206131e585828601613090565b9150509250929050565b6000806020838503121561320657613205613d96565b5b600083013567ffffffffffffffff81111561322457613223613d8c565b5b61323085828601612f79565b92509250509250929050565b6000806020838503121561325357613252613d96565b5b600083013567ffffffffffffffff81111561327157613270613d8c565b5b61327d85828601612fcf565b92509250509250929050565b600080600080604085870312156132a3576132a2613d96565b5b600085013567ffffffffffffffff8111156132c1576132c0613d8c565b5b6132cd87828801612fcf565b9450945050602085013567ffffffffffffffff8111156132f0576132ef613d8c565b5b6132fc87828801612fcf565b925092505092959194509250565b6000806000806000806080878903121561332757613326613d96565b5b600087013567ffffffffffffffff81111561334557613344613d8c565b5b61335189828a01612fcf565b9650965050602087013567ffffffffffffffff81111561337457613373613d8c565b5b61338089828a01612fcf565b9450945050604061339389828a01613090565b92505060606133a489828a01613090565b9150509295509295509295565b6000602082840312156133c7576133c6613d96565b5b60006133d584828501613025565b91505092915050565b6000602082840312156133f4576133f3613d96565b5b600061340284828501613090565b91505092915050565b60006020828403121561342157613420613d96565b5b600061342f848285016130a5565b91505092915050565b6000806040838503121561344f5761344e613d96565b5b600061345d85828601613090565b925050602061346e85828601613090565b9150509250929050565b61348181613bc2565b82525050565b60006134938385613a80565b93507f07ffffffffffffffffffffffffffffffffffffffffffffffffffffffffffffff8311156134c6576134c5613d91565b5b6020830292506134d7838584613c36565b82840190509392505050565b6134ec81613bd4565b82525050565b6134fb81613be0565b82525050565b600061350c82613a6a565b6135168185613a91565b9350613526818560208601613c45565b80840191505092915050565b600061353d82613a75565b6135478185613a9c565b9350613557818560208601613c45565b61356081613d9b565b840191505092915050565b6000613578601a83613a9c565b915061358382613dac565b602082019050919050565b600061359b602683613a9c565b91506135a682613dd5565b604082019050919050565b60006135be601483613a9c565b91506135c982613e24565b602082019050919050565b60006135e1600e83613a9c565b91506135ec82613e4d565b602082019050919050565b6000613604602683613a9c565b915061360f82613e76565b604082019050919050565b6000613627601983613a9c565b915061363282613ec5565b602082019050919050565b600061364a602083613a9c565b915061365582613eee565b602082019050919050565b600061366d601a83613a9c565b915061367882613f17565b602082019050919050565b6000613690601d83613a9c565b915061369b82613f40565b602082019050919050565b60006136b3601583613a9c565b91506136be82613f69565b602082019050919050565b60006136d6602a83613a9c565b91506136e182613f92565b604082019050919050565b60006136f9601f83613a9c565b915061370482613fe1565b602082019050919050565b61371881613c2c565b82525050565b600061372a8284613501565b915081905092915050565b600060208201905061374a6000830184613478565b92915050565b60006060820190506137656000830186613478565b6137726020830185613478565b61377f604083018461370f565b949350505050565b600060608201905061379c6000830187613478565b81810360208301526137af818587613487565b90506137be604083018461370f565b95945050505050565b60006040820190506137dc6000830185613478565b6137e9602083018461370f565b9392505050565b6000608082019050818103600083015261380b81888a613487565b90508181036020830152613820818688613487565b905061382f604083018561370f565b61383c606083018461370f565b979650505050505050565b600060208201905061385c60008301846134e3565b92915050565b600060208201905061387760008301846134f2565b92915050565b600060208201905081810360008301526138978184613532565b905092915050565b600060408201905081810360008301526138b98185613532565b90506138c8602083018461370f565b9392505050565b600060208201905081810360008301526138e88161356b565b9050919050565b600060208201905081810360008301526139088161358e565b9050919050565b60006020820190508181036000830152613928816135b1565b9050919050565b60006020820190508181036000830152613948816135d4565b9050919050565b60006020820190508181036000830152613968816135f7565b9050919050565b600060208201905081810360008301526139888161361a565b9050919050565b600060208201905081810360008301526139a88161363d565b9050919050565b600060208201905081810360008301526139c881613660565b9050919050565b600060208201905081810360008301526139e881613683565b9050919050565b60006020820190508181036000830152613a08816136a6565b9050919050565b60006020820190508181036000830152613a28816136c9565b9050919050565b60006020820190508181036000830152613a48816136ec565b9050919050565b6000602082019050613a64600083018461370f565b92915050565b600081519050919050565b600081519050919050565b600082825260208201905092915050565b600081905092915050565b600082825260208201905092915050565b6000613ab882613c2c565b9150613ac383613c2c565b9250827fffffffffffffffffffffffffffffffffffffffffffffffffffffffffffffffff03821115613af857613af7613cc1565b5b828201905092915050565b6000613b0e82613c2c565b9150613b1983613c2c565b925082613b2957613b28613cf0565b5b828204905092915050565b6000613b3f82613c2c565b9150613b4a83613c2c565b9250817fffffffffffffffffffffffffffffffffffffffffffffffffffffffffffffffff0483118215151615613b8357613b82613cc1565b5b828202905092915050565b6000613b9982613c2c565b9150613ba483613c2c565b925082821015613bb757613bb6613cc1565b5b828203905092915050565b6000613bcd82613c0c565b9050919050565b60008115159050919050565b60007fffffffff0000000000000000000000000000000000000000000000000000000082169050919050565b600073ffffffffffffffffffffffffffffffffffffffff82169050919050565b6000819050919050565b82818337600083830152505050565b60005b83811015613c63578082015181840152602081019050613c48565b83811115613c72576000848401525b50505050565b6000613c8382613c2c565b91507fffffffffffffffffffffffffffffffffffffffffffffffffffffffffffffffff821415613cb657613cb5613cc1565b5b600182019050919050565b7f4e487b7100000000000000000000000000000000000000000000000000000000600052601160045260246000fd5b7f4e487b7100000000000000000000000000000000000000000000000000000000600052601260045260246000fd5b7f4e487b7100000000000000000000000000000000000000000000000000000000600052603160045260246000fd5b7f4e487b7100000000000000000000000000000000000000000000000000000000600052603260045260246000fd5b600080fd5b600080fd5b600080fd5b600080fd5b600080fd5b600080fd5b6000601f19601f8301169050919050565b7f596f7520617265206e6f7420696e2073656c6c6572206c697374000000000000600082015250565b7f4f776e61626c653a206e6577206f776e657220697320746865207a65726f206160008201527f6464726573730000000000000000000000000000000000000000000000000000602082015250565b7f596f752061726520696e20426c61636b6c697374000000000000000000000000600082015250565b7f4e6f7420656e6f75676820626f78000000000000000000000000000000000000600082015250565b7f416464726573733a20696e73756666696369656e742062616c616e636520666f60008201527f722063616c6c0000000000000000000000000000000000000000000000000000602082015250565b7f596f752068617665206e6f206974656d20746f20636c61696d00000000000000600082015250565b7f4f776e61626c653a2063616c6c6572206973206e6f7420746865206f776e6572600082015250565b7f496e76616c6964206e756d626572206f6620626f782074797065000000000000600082015250565b7f416464726573733a2063616c6c20746f206e6f6e2d636f6e7472616374000000600082015250565b7f4d61726b6574706c61636520697320636c6f7365640000000000000000000000600082015250565b7f5361666545524332303a204552433230206f7065726174696f6e20646964206e60008201527f6f74207375636365656400000000000000000000000000000000000000000000602082015250565b7f5265656e7472616e637947756172643a207265656e7472616e742063616c6c00600082015250565b61401381613bc2565b811461401e57600080fd5b50565b61402a81613bd4565b811461403557600080fd5b50565b61404181613c2c565b811461404c57600080fd5b5056fe72756e546f676574686572426f784e667454797065436f756e744d61705b696e6465785da26469706673582212203bb4d62f5cd3c5be922e0c5adaa674ae495f81a0df961c6185e37a762f246d1464736f6c63430008070033",
  "linkReferences": {},
  "deployedLinkReferences": {}
}