{
  "_format": "hh-sol-artifact-1",
  "contractName": "BamiIDO3",
  "sourceName": "contracts/BamixHesmanPool3.sol",
  "abi": [
    {
      "inputs": [
        {
          "internalType": "address",
          "name": "_devWallet",
          "type": "address"
        },
        {
          "internalType": "address",
          "name": "_idoOwner",
          "type": "address"
        },
        {
          "internalType": "address",
          "name": "_hesmanToken",
          "type": "address"
        },
        {
          "internalType": "address",
          "name": "_bamiToken",
          "type": "address"
        },
        {
          "internalType": "address",
          "name": "_paymentToken",
          "type": "address"
        }
      ],
      "stateMutability": "nonpayable",
      "type": "constructor"
    },
    {
      "anonymous": false,
      "inputs": [
        {
          "indexed": false,
          "internalType": "address",
          "name": "user",
          "type": "address"
        },
        {
          "indexed": false,
          "internalType": "uint256",
          "name": "amount",
          "type": "uint256"
        },
        {
          "indexed": false,
          "internalType": "uint256",
          "name": "time",
          "type": "uint256"
        }
      ],
      "name": "EventUserBuy",
      "type": "event"
    },
    {
      "anonymous": false,
      "inputs": [
        {
          "indexed": false,
          "internalType": "address",
          "name": "user",
          "type": "address"
        },
        {
          "indexed": false,
          "internalType": "uint256",
          "name": "amount",
          "type": "uint256"
        },
        {
          "indexed": false,
          "internalType": "uint256",
          "name": "time",
          "type": "uint256"
        }
      ],
      "name": "EventUserClaim",
      "type": "event"
    },
    {
      "anonymous": false,
      "inputs": [
        {
          "indexed": false,
          "internalType": "address",
          "name": "user",
          "type": "address"
        },
        {
          "indexed": false,
          "internalType": "uint256",
          "name": "amount",
          "type": "uint256"
        },
        {
          "indexed": false,
          "internalType": "uint256",
          "name": "time",
          "type": "uint256"
        }
      ],
      "name": "EventUserStake",
      "type": "event"
    },
    {
      "anonymous": false,
      "inputs": [
        {
          "indexed": false,
          "internalType": "address",
          "name": "user",
          "type": "address"
        },
        {
          "indexed": false,
          "internalType": "uint256",
          "name": "amount",
          "type": "uint256"
        },
        {
          "indexed": false,
          "internalType": "uint256",
          "name": "time",
          "type": "uint256"
        }
      ],
      "name": "EventUserUnstake",
      "type": "event"
    },
    {
      "anonymous": false,
      "inputs": [
        {
          "indexed": true,
          "internalType": "address",
          "name": "previousOwner",
          "type": "address"
        },
        {
          "indexed": true,
          "internalType": "address",
          "name": "newOwner",
          "type": "address"
        }
      ],
      "name": "OwnershipTransferred",
      "type": "event"
    },
    {
      "inputs": [],
      "name": "bamiToken",
      "outputs": [
        {
          "internalType": "contract ERC20",
          "name": "",
          "type": "address"
        }
      ],
      "stateMutability": "view",
      "type": "function"
    },
    {
      "inputs": [
        {
          "internalType": "address",
          "name": "",
          "type": "address"
        }
      ],
      "name": "blacklistMap",
      "outputs": [
        {
          "internalType": "bool",
          "name": "",
          "type": "bool"
        }
      ],
      "stateMutability": "view",
      "type": "function"
    },
    {
      "inputs": [],
      "name": "buyIdo",
      "outputs": [],
      "stateMutability": "nonpayable",
      "type": "function"
    },
    {
      "inputs": [],
      "name": "claimIdo",
      "outputs": [],
      "stateMutability": "nonpayable",
      "type": "function"
    },
    {
      "inputs": [],
      "name": "devWallet",
      "outputs": [
        {
          "internalType": "address",
          "name": "",
          "type": "address"
        }
      ],
      "stateMutability": "view",
      "type": "function"
    },
    {
      "inputs": [],
      "name": "endBuyTime",
      "outputs": [
        {
          "internalType": "uint256",
          "name": "",
          "type": "uint256"
        }
      ],
      "stateMutability": "view",
      "type": "function"
    },
    {
      "inputs": [],
      "name": "endClaimTime",
      "outputs": [
        {
          "internalType": "uint256",
          "name": "",
          "type": "uint256"
        }
      ],
      "stateMutability": "view",
      "type": "function"
    },
    {
      "inputs": [],
      "name": "hesmanToken",
      "outputs": [
        {
          "internalType": "contract ERC20",
          "name": "",
          "type": "address"
        }
      ],
      "stateMutability": "view",
      "type": "function"
    },
    {
      "inputs": [],
      "name": "idoOwner",
      "outputs": [
        {
          "internalType": "address",
          "name": "",
          "type": "address"
        }
      ],
      "stateMutability": "view",
      "type": "function"
    },
    {
      "inputs": [],
      "name": "isPause",
      "outputs": [
        {
          "internalType": "bool",
          "name": "",
          "type": "bool"
        }
      ],
      "stateMutability": "view",
      "type": "function"
    },
    {
      "inputs": [],
      "name": "nextStageIndex",
      "outputs": [
        {
          "internalType": "uint256",
          "name": "",
          "type": "uint256"
        }
      ],
      "stateMutability": "view",
      "type": "function"
    },
    {
      "inputs": [],
      "name": "owner",
      "outputs": [
        {
          "internalType": "address",
          "name": "",
          "type": "address"
        }
      ],
      "stateMutability": "view",
      "type": "function"
    },
    {
      "inputs": [
        {
          "internalType": "address",
          "name": "",
          "type": "address"
        }
      ],
      "name": "paidIdoMap",
      "outputs": [
        {
          "internalType": "bool",
          "name": "",
          "type": "bool"
        }
      ],
      "stateMutability": "view",
      "type": "function"
    },
    {
      "inputs": [],
      "name": "payAmountPerSlot",
      "outputs": [
        {
          "internalType": "uint256",
          "name": "",
          "type": "uint256"
        }
      ],
      "stateMutability": "view",
      "type": "function"
    },
    {
      "inputs": [],
      "name": "paymentToken",
      "outputs": [
        {
          "internalType": "contract ERC20",
          "name": "",
          "type": "address"
        }
      ],
      "stateMutability": "view",
      "type": "function"
    },
    {
      "inputs": [
        {
          "internalType": "address[]",
          "name": "userList",
          "type": "address[]"
        }
      ],
      "name": "removeBlackList",
      "outputs": [],
      "stateMutability": "nonpayable",
      "type": "function"
    },
    {
      "inputs": [
        {
          "internalType": "address[]",
          "name": "userList",
          "type": "address[]"
        }
      ],
      "name": "removeWhitelist",
      "outputs": [],
      "stateMutability": "nonpayable",
      "type": "function"
    },
    {
      "inputs": [],
      "name": "renounceOwnership",
      "outputs": [],
      "stateMutability": "nonpayable",
      "type": "function"
    },
    {
      "inputs": [
        {
          "internalType": "address[]",
          "name": "userList",
          "type": "address[]"
        }
      ],
      "name": "setBlackList",
      "outputs": [],
      "stateMutability": "nonpayable",
      "type": "function"
    },
    {
      "inputs": [
        {
          "internalType": "uint256",
          "name": "_startBuyTime",
          "type": "uint256"
        },
        {
          "internalType": "uint256",
          "name": "_endBuyTime",
          "type": "uint256"
        }
      ],
      "name": "setBuyTime",
      "outputs": [],
      "stateMutability": "nonpayable",
      "type": "function"
    },
    {
      "inputs": [
        {
          "internalType": "uint256[]",
          "name": "_startTimeList",
          "type": "uint256[]"
        },
        {
          "internalType": "uint256[]",
          "name": "_percentList",
          "type": "uint256[]"
        }
      ],
      "name": "setClaimTime",
      "outputs": [],
      "stateMutability": "nonpayable",
      "type": "function"
    },
    {
      "inputs": [
        {
          "internalType": "address",
          "name": "_devWallet",
          "type": "address"
        }
      ],
      "name": "setDevWallet",
      "outputs": [],
      "stateMutability": "nonpayable",
      "type": "function"
    },
    {
      "inputs": [
        {
          "internalType": "uint256",
          "name": "_payAmountPerSlot",
          "type": "uint256"
        },
        {
          "internalType": "uint256",
          "name": "_tokenPerSlot",
          "type": "uint256"
        },
        {
          "internalType": "uint256",
          "name": "_totalOfSlot",
          "type": "uint256"
        },
        {
          "internalType": "uint256",
          "name": "_startBuyTime",
          "type": "uint256"
        },
        {
          "internalType": "uint256",
          "name": "_endBuyTime",
          "type": "uint256"
        }
      ],
      "name": "setIdoConfig",
      "outputs": [],
      "stateMutability": "nonpayable",
      "type": "function"
    },
    {
      "inputs": [
        {
          "internalType": "address",
          "name": "_idoOwner",
          "type": "address"
        }
      ],
      "name": "setIdoOwner",
      "outputs": [],
      "stateMutability": "nonpayable",
      "type": "function"
    },
    {
      "inputs": [
        {
          "internalType": "uint256",
          "name": "_startBuyTime",
          "type": "uint256"
        },
        {
          "internalType": "uint256",
          "name": "_endBuyTime",
          "type": "uint256"
        }
      ],
      "name": "setIdoTime",
      "outputs": [],
      "stateMutability": "nonpayable",
      "type": "function"
    },
    {
      "inputs": [
        {
          "internalType": "bool",
          "name": "_status",
          "type": "bool"
        }
      ],
      "name": "setPauseContract",
      "outputs": [],
      "stateMutability": "nonpayable",
      "type": "function"
    },
    {
      "inputs": [
        {
          "internalType": "uint256",
          "name": "_payAmountPerSlot",
          "type": "uint256"
        }
      ],
      "name": "setPayAmountPerSlot",
      "outputs": [],
      "stateMutability": "nonpayable",
      "type": "function"
    },
    {
      "inputs": [
        {
          "internalType": "address",
          "name": "_hesmanToken",
          "type": "address"
        },
        {
          "internalType": "address",
          "name": "_bamiToken",
          "type": "address"
        },
        {
          "internalType": "address",
          "name": "_paymentToken",
          "type": "address"
        }
      ],
      "name": "setTokenIdo",
      "outputs": [],
      "stateMutability": "nonpayable",
      "type": "function"
    },
    {
      "inputs": [
        {
          "internalType": "uint256",
          "name": "_totalOfSlot",
          "type": "uint256"
        }
      ],
      "name": "setTotalOfSlot",
      "outputs": [],
      "stateMutability": "nonpayable",
      "type": "function"
    },
    {
      "inputs": [
        {
          "internalType": "address[]",
          "name": "userList",
          "type": "address[]"
        }
      ],
      "name": "setWhitelist",
      "outputs": [],
      "stateMutability": "nonpayable",
      "type": "function"
    },
    {
      "inputs": [
        {
          "internalType": "uint256",
          "name": "",
          "type": "uint256"
        }
      ],
      "name": "stageList",
      "outputs": [
        {
          "internalType": "uint256",
          "name": "id",
          "type": "uint256"
        },
        {
          "internalType": "uint256",
          "name": "percent",
          "type": "uint256"
        },
        {
          "internalType": "uint256",
          "name": "startTime",
          "type": "uint256"
        }
      ],
      "stateMutability": "view",
      "type": "function"
    },
    {
      "inputs": [],
      "name": "startBuyTime",
      "outputs": [
        {
          "internalType": "uint256",
          "name": "",
          "type": "uint256"
        }
      ],
      "stateMutability": "view",
      "type": "function"
    },
    {
      "inputs": [],
      "name": "startClaimTime",
      "outputs": [
        {
          "internalType": "uint256",
          "name": "",
          "type": "uint256"
        }
      ],
      "stateMutability": "view",
      "type": "function"
    },
    {
      "inputs": [],
      "name": "tokenInWalletRequire",
      "outputs": [
        {
          "internalType": "uint256",
          "name": "",
          "type": "uint256"
        }
      ],
      "stateMutability": "view",
      "type": "function"
    },
    {
      "inputs": [],
      "name": "tokenPerSlot",
      "outputs": [
        {
          "internalType": "uint256",
          "name": "",
          "type": "uint256"
        }
      ],
      "stateMutability": "view",
      "type": "function"
    },
    {
      "inputs": [],
      "name": "totalOfPaid",
      "outputs": [
        {
          "internalType": "uint256",
          "name": "",
          "type": "uint256"
        }
      ],
      "stateMutability": "view",
      "type": "function"
    },
    {
      "inputs": [],
      "name": "totalOfSlot",
      "outputs": [
        {
          "internalType": "uint256",
          "name": "",
          "type": "uint256"
        }
      ],
      "stateMutability": "view",
      "type": "function"
    },
    {
      "inputs": [],
      "name": "totalOfUserWhilist",
      "outputs": [
        {
          "internalType": "uint256",
          "name": "",
          "type": "uint256"
        }
      ],
      "stateMutability": "view",
      "type": "function"
    },
    {
      "inputs": [
        {
          "internalType": "address",
          "name": "newOwner",
          "type": "address"
        }
      ],
      "name": "transferOwnership",
      "outputs": [],
      "stateMutability": "nonpayable",
      "type": "function"
    },
    {
      "inputs": [
        {
          "internalType": "address",
          "name": "",
          "type": "address"
        }
      ],
      "name": "unstakeMap",
      "outputs": [
        {
          "internalType": "bool",
          "name": "",
          "type": "bool"
        }
      ],
      "stateMutability": "view",
      "type": "function"
    },
    {
      "inputs": [],
      "name": "urgentWithdrawAllToken",
      "outputs": [],
      "stateMutability": "nonpayable",
      "type": "function"
    },
    {
      "inputs": [
        {
          "internalType": "address",
          "name": "",
          "type": "address"
        }
      ],
      "name": "vestingMap",
      "outputs": [
        {
          "internalType": "uint256",
          "name": "",
          "type": "uint256"
        }
      ],
      "stateMutability": "view",
      "type": "function"
    },
    {
      "inputs": [
        {
          "internalType": "address",
          "name": "",
          "type": "address"
        }
      ],
      "name": "whitelistMap",
      "outputs": [
        {
          "internalType": "bool",
          "name": "",
          "type": "bool"
        }
      ],
      "stateMutability": "view",
      "type": "function"
    }
  ],
  "bytecode": "0x6080604052670de0b6b3a7640000600a55600a54603262000021919062000382565b600b55600a546109c462000036919062000382565b600c556032600d55600a54600a6200004f919062000382565b6010553480156200005f57600080fd5b5060405162004220380380620042208339818101604052810190620000859190620002fa565b620000a5620000996200021760201b60201c565b6200021f60201b60201c565b6001808190555084600260006101000a81548173ffffffffffffffffffffffffffffffffffffffff021916908373ffffffffffffffffffffffffffffffffffffffff16021790555083600360006101000a81548173ffffffffffffffffffffffffffffffffffffffff021916908373ffffffffffffffffffffffffffffffffffffffff16021790555082601160006101000a81548173ffffffffffffffffffffffffffffffffffffffff021916908373ffffffffffffffffffffffffffffffffffffffff16021790555081601360006101000a81548173ffffffffffffffffffffffffffffffffffffffff021916908373ffffffffffffffffffffffffffffffffffffffff16021790555080601260006101000a81548173ffffffffffffffffffffffffffffffffffffffff021916908373ffffffffffffffffffffffffffffffffffffffff1602179055506001600960006101000a81548160ff02191690831515021790555050505050506200046f565b600033905090565b60008060009054906101000a900473ffffffffffffffffffffffffffffffffffffffff169050816000806101000a81548173ffffffffffffffffffffffffffffffffffffffff021916908373ffffffffffffffffffffffffffffffffffffffff1602179055508173ffffffffffffffffffffffffffffffffffffffff168173ffffffffffffffffffffffffffffffffffffffff167f8be0079c531659141344cd1fd0a4f28419497f9722a3daafe3b4186f6b6457e060405160405180910390a35050565b600081519050620002f48162000455565b92915050565b600080600080600060a0868803121562000319576200031862000450565b5b60006200032988828901620002e3565b95505060206200033c88828901620002e3565b94505060406200034f88828901620002e3565b93505060606200036288828901620002e3565b92505060806200037588828901620002e3565b9150509295509295909350565b60006200038f8262000417565b91506200039c8362000417565b9250817fffffffffffffffffffffffffffffffffffffffffffffffffffffffffffffffff0483118215151615620003d857620003d762000421565b5b828202905092915050565b6000620003f082620003f7565b9050919050565b600073ffffffffffffffffffffffffffffffffffffffff82169050919050565b6000819050919050565b7f4e487b7100000000000000000000000000000000000000000000000000000000600052601160045260246000fd5b600080fd5b6200046081620003e3565b81146200046c57600080fd5b50565b613da1806200047f6000396000f3fe608060405234801561001057600080fd5b50600436106102695760003560e01c80637c50db0d11610151578063c78057c6116100c3578063f2fde38b11610087578063f2fde38b146106cc578063f4217648146106e8578063fc7a679214610704578063fd8c0e8d14610720578063feda1fd61461073e578063ff0938a71461075a57610269565b8063c78057c61461064c578063cc6cd0341461066a578063e601af7314610674578063e9dc574b14610690578063f01d226f146106ae57610269565b8063aa68268211610115578063aa6826821461059e578063af0efb52146105bc578063b153cc5c146105da578063b4908ae7146105f6578063bbdf452614610612578063c2f2fbf51461062e57610269565b80637c50db0d146104fa5780638da5cb5b146105165780638ea5220f146105345780639aa0ea19146105525780639bf411351461058257610269565b8063552e0c1f116101ea57806370c8e0ed116101ae57806370c8e0ed1461045e57806370d8ca3214610468578063715018a614610486578063777e092b14610490578063782a2737146104ac5780637908e764146104dc57610269565b8063552e0c1f146103ba5780635d308bdd146103d657806363886262146103f45780636b91ef3f146103fe5780636f3e57711461042e57610269565b806329a51e381161023157806329a51e38146102fe5780633013ce291461031c57806332531c3c1461033a578063355fdc2d1461036a5780633fc6e10d1461038857610269565b806315c629511461026e5780631b7e555b1461028a5780631bfc751e146102a85780631f53ac02146102c657806323245216146102e2575b600080fd5b61028860048036038101906102839190612e9c565b610778565b005b61029261081e565b60405161029f919061361a565b60405180910390f35b6102b0610865565b6040516102bd919061361a565b60405180910390f35b6102e060048036038101906102db9190612c5a565b61086b565b005b6102fc60048036038101906102f79190612cda565b61092b565b005b610306610aea565b604051610313919061361a565b60405180910390f35b610324610af0565b604051610331919061335d565b60405180910390f35b610354600480360381019061034f9190612c5a565b610b16565b6040516103619190613342565b60405180910390f35b610372610b36565b60405161037f9190613290565b60405180910390f35b6103a2600480360381019061039d9190612e02565b610b5c565b6040516103b193929190613635565b60405180910390f35b6103d460048036038101906103cf9190612c87565b610b96565b005b6103de610cda565b6040516103eb919061361a565b60405180910390f35b6103fc610ce0565b005b61041860048036038101906104139190612c5a565b610fb0565b6040516104259190613342565b60405180910390f35b61044860048036038101906104439190612c5a565b610fd0565b6040516104559190613342565b60405180910390f35b610466610ff0565b005b610470611578565b60405161047d919061361a565b60405180910390f35b61048e61157e565b005b6104aa60048036038101906104a59190612cda565b611606565b005b6104c660048036038101906104c19190612c5a565b611727565b6040516104d3919061361a565b60405180910390f35b6104e461173f565b6040516104f1919061335d565b60405180910390f35b610514600480360381019061050f9190612e5c565b611765565b005b61051e611835565b60405161052b9190613290565b60405180910390f35b61053c61185e565b6040516105499190613290565b60405180910390f35b61056c60048036038101906105679190612c5a565b611884565b6040516105799190613342565b60405180910390f35b61059c60048036038101906105979190612cda565b6118a4565b005b6105a66119c5565b6040516105b3919061361a565b60405180910390f35b6105c46119cb565b6040516105d1919061335d565b60405180910390f35b6105f460048036038101906105ef9190612e02565b6119f1565b005b610610600480360381019061060b9190612d27565b611a77565b005b61062c60048036038101906106279190612e02565b611c5c565b005b610636611ce2565b604051610643919061361a565b60405180910390f35b610654611ce8565b604051610661919061361a565b60405180910390f35b610672611cee565b005b61068e60048036038101906106899190612da8565b6121ce565b005b610698612267565b6040516106a5919061361a565b60405180910390f35b6106b661226d565b6040516106c3919061361a565b60405180910390f35b6106e660048036038101906106e19190612c5a565b612273565b005b61070260048036038101906106fd9190612cda565b61236b565b005b61071e60048036038101906107199190612e5c565b6124a4565b005b610728612574565b604051610735919061361a565b60405180910390f35b61075860048036038101906107539190612c5a565b61257a565b005b61076261263a565b60405161076f9190613342565b60405180910390f35b61078061264d565b73ffffffffffffffffffffffffffffffffffffffff1661079e611835565b73ffffffffffffffffffffffffffffffffffffffff16146107f4576040517f08c379a00000000000000000000000000000000000000000000000000000000081526004016107eb9061351a565b60405180910390fd5b816014819055508060158190555084600b8190555083600c8190555082600d819055505050505050565b6000600660003373ffffffffffffffffffffffffffffffffffffffff1673ffffffffffffffffffffffffffffffffffffffff16815260200190815260200160002054905090565b60165481565b61087361264d565b73ffffffffffffffffffffffffffffffffffffffff16610891611835565b73ffffffffffffffffffffffffffffffffffffffff16146108e7576040517f08c379a00000000000000000000000000000000000000000000000000000000081526004016108de9061351a565b60405180910390fd5b80600260006101000a81548173ffffffffffffffffffffffffffffffffffffffff021916908373ffffffffffffffffffffffffffffffffffffffff16021790555050565b61093361264d565b73ffffffffffffffffffffffffffffffffffffffff16610951611835565b73ffffffffffffffffffffffffffffffffffffffff16146109a7576040517f08c379a000000000000000000000000000000000000000000000000000000000815260040161099e9061351a565b60405180910390fd5b60005b82829050811015610ae557600460008484848181106109cc576109cb613901565b5b90506020020160208101906109e19190612c5a565b73ffffffffffffffffffffffffffffffffffffffff1673ffffffffffffffffffffffffffffffffffffffff16815260200190815260200160002060009054906101000a900460ff1615610ad257600060046000858585818110610a4757610a46613901565b5b9050602002016020810190610a5c9190612c5a565b73ffffffffffffffffffffffffffffffffffffffff1673ffffffffffffffffffffffffffffffffffffffff16815260200190815260200160002060006101000a81548160ff0219169083151502179055506000600f541115610ad157600f6000815480929190610acb90613830565b91905055505b5b8080610add9061385a565b9150506109aa565b505050565b600b5481565b601260009054906101000a900473ffffffffffffffffffffffffffffffffffffffff1681565b60046020528060005260406000206000915054906101000a900460ff1681565b600360009054906101000a900473ffffffffffffffffffffffffffffffffffffffff1681565b60188181548110610b6c57600080fd5b90600052602060002090600302016000915090508060000154908060010154908060020154905083565b610b9e61264d565b73ffffffffffffffffffffffffffffffffffffffff16610bbc611835565b73ffffffffffffffffffffffffffffffffffffffff1614610c12576040517f08c379a0000000000000000000000000000000000000000000000000000000008152600401610c099061351a565b60405180910390fd5b82601160006101000a81548173ffffffffffffffffffffffffffffffffffffffff021916908373ffffffffffffffffffffffffffffffffffffffff16021790555081601360006101000a81548173ffffffffffffffffffffffffffffffffffffffff021916908373ffffffffffffffffffffffffffffffffffffffff16021790555080601260006101000a81548173ffffffffffffffffffffffffffffffffffffffff021916908373ffffffffffffffffffffffffffffffffffffffff160217905550505050565b600f5481565b610ce861264d565b73ffffffffffffffffffffffffffffffffffffffff16610d06611835565b73ffffffffffffffffffffffffffffffffffffffff1614610d5c576040517f08c379a0000000000000000000000000000000000000000000000000000000008152600401610d539061351a565b60405180910390fd5b6000601160009054906101000a900473ffffffffffffffffffffffffffffffffffffffff1673ffffffffffffffffffffffffffffffffffffffff166370a08231306040518263ffffffff1660e01b8152600401610db99190613290565b60206040518083038186803b158015610dd157600080fd5b505afa158015610de5573d6000803e3d6000fd5b505050506040513d601f19601f82011682018060405250810190610e099190612e2f565b90506000811115610e8457610e83600360009054906101000a900473ffffffffffffffffffffffffffffffffffffffff1682601160009054906101000a900473ffffffffffffffffffffffffffffffffffffffff1673ffffffffffffffffffffffffffffffffffffffff166126559092919063ffffffff16565b5b6000601360009054906101000a900473ffffffffffffffffffffffffffffffffffffffff1673ffffffffffffffffffffffffffffffffffffffff166370a08231306040518263ffffffff1660e01b8152600401610ee19190613290565b60206040518083038186803b158015610ef957600080fd5b505afa158015610f0d573d6000803e3d6000fd5b505050506040513d601f19601f82011682018060405250810190610f319190612e2f565b90506000811115610fac57610fab600360009054906101000a900473ffffffffffffffffffffffffffffffffffffffff1682601360009054906101000a900473ffffffffffffffffffffffffffffffffffffffff1673ffffffffffffffffffffffffffffffffffffffff166126559092919063ffffffff16565b5b5050565b60056020528060005260406000206000915054906101000a900460ff1681565b60076020528060005260406000206000915054906101000a900460ff1681565b4260145410611034576040517f08c379a000000000000000000000000000000000000000000000000000000000815260040161102b906134da565b60405180910390fd5b6015544210611078576040517f08c379a000000000000000000000000000000000000000000000000000000000815260040161106f906134da565b60405180910390fd5b600260015414156110be576040517f08c379a00000000000000000000000000000000000000000000000000000000081526004016110b5906135fa565b60405180910390fd5b600260018190555060001515600960009054906101000a900460ff1615151461111c576040517f08c379a0000000000000000000000000000000000000000000000000000000008152600401611113906135da565b60405180910390fd5b60001515600860003373ffffffffffffffffffffffffffffffffffffffff1673ffffffffffffffffffffffffffffffffffffffff16815260200190815260200160002060009054906101000a900460ff161515146111af576040517f08c379a00000000000000000000000000000000000000000000000000000000081526004016111a69061341a565b60405180910390fd5b60011515600460003373ffffffffffffffffffffffffffffffffffffffff1673ffffffffffffffffffffffffffffffffffffffff16815260200190815260200160002060009054906101000a900460ff16151514611242576040517f08c379a00000000000000000000000000000000000000000000000000000000081526004016112399061347a565b60405180910390fd5b60001515600560003373ffffffffffffffffffffffffffffffffffffffff1673ffffffffffffffffffffffffffffffffffffffff16815260200190815260200160002060009054906101000a900460ff161515146112d5576040517f08c379a00000000000000000000000000000000000000000000000000000000081526004016112cc906133ba565b60405180910390fd5b600d54600e541061131b576040517f08c379a00000000000000000000000000000000000000000000000000000000081526004016113129061345a565b60405180910390fd5b601054601360009054906101000a900473ffffffffffffffffffffffffffffffffffffffff1673ffffffffffffffffffffffffffffffffffffffff166370a08231336040518263ffffffff1660e01b81526004016113799190613290565b60206040518083038186803b15801561139157600080fd5b505afa1580156113a5573d6000803e3d6000fd5b505050506040513d601f19601f820116820180604052508101906113c99190612e2f565b101561140a576040517f08c379a00000000000000000000000000000000000000000000000000000000081526004016114019061355a565b60405180910390fd5b6001600560003373ffffffffffffffffffffffffffffffffffffffff1673ffffffffffffffffffffffffffffffffffffffff16815260200190815260200160002060006101000a81548160ff0219169083151502179055506000600660003373ffffffffffffffffffffffffffffffffffffffff1673ffffffffffffffffffffffffffffffffffffffff16815260200190815260200160002081905550600e60008154809291906114ba9061385a565b919050555061153233600360009054906101000a900473ffffffffffffffffffffffffffffffffffffffff16600b54601260009054906101000a900473ffffffffffffffffffffffffffffffffffffffff1673ffffffffffffffffffffffffffffffffffffffff166126db909392919063ffffffff16565b7f71e7fc59da617bbf910e2b3b57519b82737429dbdda70a81d4ba4b71d6796e0233600b54426040516115679392919061330b565b60405180910390a160018081905550565b60105481565b61158661264d565b73ffffffffffffffffffffffffffffffffffffffff166115a4611835565b73ffffffffffffffffffffffffffffffffffffffff16146115fa576040517f08c379a00000000000000000000000000000000000000000000000000000000081526004016115f19061351a565b60405180910390fd5b6116046000612764565b565b61160e61264d565b73ffffffffffffffffffffffffffffffffffffffff1661162c611835565b73ffffffffffffffffffffffffffffffffffffffff1614611682576040517f08c379a00000000000000000000000000000000000000000000000000000000081526004016116799061351a565b60405180910390fd5b60005b82829050811015611722576001600860008585858181106116a9576116a8613901565b5b90506020020160208101906116be9190612c5a565b73ffffffffffffffffffffffffffffffffffffffff1673ffffffffffffffffffffffffffffffffffffffff16815260200190815260200160002060006101000a81548160ff021916908315150217905550808061171a9061385a565b915050611685565b505050565b60066020528060005260406000206000915090505481565b601360009054906101000a900473ffffffffffffffffffffffffffffffffffffffff1681565b61176d61264d565b73ffffffffffffffffffffffffffffffffffffffff1661178b611835565b73ffffffffffffffffffffffffffffffffffffffff16146117e1576040517f08c379a00000000000000000000000000000000000000000000000000000000081526004016117d89061351a565b60405180910390fd5b808210611823576040517f08c379a000000000000000000000000000000000000000000000000000000000815260040161181a9061343a565b60405180910390fd5b81601481905550806015819055505050565b60008060009054906101000a900473ffffffffffffffffffffffffffffffffffffffff16905090565b600260009054906101000a900473ffffffffffffffffffffffffffffffffffffffff1681565b60086020528060005260406000206000915054906101000a900460ff1681565b6118ac61264d565b73ffffffffffffffffffffffffffffffffffffffff166118ca611835565b73ffffffffffffffffffffffffffffffffffffffff1614611920576040517f08c379a00000000000000000000000000000000000000000000000000000000081526004016119179061351a565b60405180910390fd5b60005b828290508110156119c05760006008600085858581811061194757611946613901565b5b905060200201602081019061195c9190612c5a565b73ffffffffffffffffffffffffffffffffffffffff1673ffffffffffffffffffffffffffffffffffffffff16815260200190815260200160002060006101000a81548160ff02191690831515021790555080806119b89061385a565b915050611923565b505050565b60145481565b601160009054906101000a900473ffffffffffffffffffffffffffffffffffffffff1681565b6119f961264d565b73ffffffffffffffffffffffffffffffffffffffff16611a17611835565b73ffffffffffffffffffffffffffffffffffffffff1614611a6d576040517f08c379a0000000000000000000000000000000000000000000000000000000008152600401611a649061351a565b60405180910390fd5b80600b8190555050565b611a7f61264d565b73ffffffffffffffffffffffffffffffffffffffff16611a9d611835565b73ffffffffffffffffffffffffffffffffffffffff1614611af3576040517f08c379a0000000000000000000000000000000000000000000000000000000008152600401611aea9061351a565b60405180910390fd5b60008484905011611b39576040517f08c379a0000000000000000000000000000000000000000000000000000000008152600401611b30906134ba565b60405180910390fd5b818190508484905014611b81576040517f08c379a0000000000000000000000000000000000000000000000000000000008152600401611b78906134ba565b60405180910390fd5b60186000611b8f9190612ad1565b60005b84849050811015611c5557611ba5612af5565b81816000018181525050858583818110611bc257611bc1613901565b5b90506020020135816040018181525050838383818110611be557611be4613901565b5b9050602002013581602001818152505060188190806001815401808255809150506001900390600052602060002090600302016000909190919091506000820151816000015560208201518160010155604082015181600201555050508080611c4d9061385a565b915050611b92565b5050505050565b611c6461264d565b73ffffffffffffffffffffffffffffffffffffffff16611c82611835565b73ffffffffffffffffffffffffffffffffffffffff1614611cd8576040517f08c379a0000000000000000000000000000000000000000000000000000000008152600401611ccf9061351a565b60405180910390fd5b80600d8190555050565b600d5481565b600e5481565b60026001541415611d34576040517f08c379a0000000000000000000000000000000000000000000000000000000008152600401611d2b906135fa565b60405180910390fd5b600260018190555060001515600960009054906101000a900460ff16151514611d92576040517f08c379a0000000000000000000000000000000000000000000000000000000008152600401611d89906135da565b60405180910390fd5b60001515600860003373ffffffffffffffffffffffffffffffffffffffff1673ffffffffffffffffffffffffffffffffffffffff16815260200190815260200160002060009054906101000a900460ff16151514611e25576040517f08c379a0000000000000000000000000000000000000000000000000000000008152600401611e1c9061341a565b60405180910390fd5b60011515600460003373ffffffffffffffffffffffffffffffffffffffff1673ffffffffffffffffffffffffffffffffffffffff16815260200190815260200160002060009054906101000a900460ff16151514611eb8576040517f08c379a0000000000000000000000000000000000000000000000000000000008152600401611eaf9061359a565b60405180910390fd5b60011515600560003373ffffffffffffffffffffffffffffffffffffffff1673ffffffffffffffffffffffffffffffffffffffff16815260200190815260200160002060009054906101000a900460ff16151514611f4b576040517f08c379a0000000000000000000000000000000000000000000000000000000008152600401611f42906134fa565b60405180910390fd5b6000600660003373ffffffffffffffffffffffffffffffffffffffff1673ffffffffffffffffffffffffffffffffffffffff168152602001908152602001600020549050600060188281548110611fa557611fa4613901565b5b9060005260206000209060030201604051806060016040529081600082015481526020016001820154815260200160028201548152505090506000816020015190506000826040015190506018805490508410612037576040517f08c379a000000000000000000000000000000000000000000000000000000000815260040161202e906133da565b60405180910390fd5b6000821161207a576040517f08c379a00000000000000000000000000000000000000000000000000000000081526004016120719061353a565b60405180910390fd5b4281106120bc576040517f08c379a00000000000000000000000000000000000000000000000000000000081526004016120b39061339a565b60405180910390fd5b6001846120c9919061369e565b600660003373ffffffffffffffffffffffffffffffffffffffff1673ffffffffffffffffffffffffffffffffffffffff1681526020019081526020016000208190555060006121366064612128600c548661282890919063ffffffff16565b61283e90919063ffffffff16565b90506121853382601160009054906101000a900473ffffffffffffffffffffffffffffffffffffffff1673ffffffffffffffffffffffffffffffffffffffff166126559092919063ffffffff16565b7fd458cbd7941a406cf0211a0f3f08d437b196748d53096e98baf5a27041c2ea263382426040516121b89392919061330b565b60405180910390a1505050505060018081905550565b6121d661264d565b73ffffffffffffffffffffffffffffffffffffffff166121f4611835565b73ffffffffffffffffffffffffffffffffffffffff161461224a576040517f08c379a00000000000000000000000000000000000000000000000000000000081526004016122419061351a565b60405180910390fd5b80600960006101000a81548160ff02191690831515021790555050565b600c5481565b60155481565b61227b61264d565b73ffffffffffffffffffffffffffffffffffffffff16612299611835565b73ffffffffffffffffffffffffffffffffffffffff16146122ef576040517f08c379a00000000000000000000000000000000000000000000000000000000081526004016122e69061351a565b60405180910390fd5b600073ffffffffffffffffffffffffffffffffffffffff168173ffffffffffffffffffffffffffffffffffffffff16141561235f576040517f08c379a0000000000000000000000000000000000000000000000000000000008152600401612356906133fa565b60405180910390fd5b61236881612764565b50565b61237361264d565b73ffffffffffffffffffffffffffffffffffffffff16612391611835565b73ffffffffffffffffffffffffffffffffffffffff16146123e7576040517f08c379a00000000000000000000000000000000000000000000000000000000081526004016123de9061351a565b60405180910390fd5b60005b8282905081101561249f5760016004600085858581811061240e5761240d613901565b5b90506020020160208101906124239190612c5a565b73ffffffffffffffffffffffffffffffffffffffff1673ffffffffffffffffffffffffffffffffffffffff16815260200190815260200160002060006101000a81548160ff021916908315150217905550600f60008154809291906124879061385a565b919050555080806124979061385a565b9150506123ea565b505050565b6124ac61264d565b73ffffffffffffffffffffffffffffffffffffffff166124ca611835565b73ffffffffffffffffffffffffffffffffffffffff1614612520576040517f08c379a00000000000000000000000000000000000000000000000000000000081526004016125179061351a565b60405180910390fd5b808210612562576040517f08c379a00000000000000000000000000000000000000000000000000000000081526004016125599061343a565b60405180910390fd5b81601481905550806015819055505050565b60175481565b61258261264d565b73ffffffffffffffffffffffffffffffffffffffff166125a0611835565b73ffffffffffffffffffffffffffffffffffffffff16146125f6576040517f08c379a00000000000000000000000000000000000000000000000000000000081526004016125ed9061351a565b60405180910390fd5b80600360006101000a81548173ffffffffffffffffffffffffffffffffffffffff021916908373ffffffffffffffffffffffffffffffffffffffff16021790555050565b600960009054906101000a900460ff1681565b600033905090565b6126d68363a9059cbb60e01b84846040516024016126749291906132e2565b604051602081830303815290604052907bffffffffffffffffffffffffffffffffffffffffffffffffffffffff19166020820180517bffffffffffffffffffffffffffffffffffffffffffffffffffffffff8381831617835250505050612854565b505050565b61275e846323b872dd60e01b8585856040516024016126fc939291906132ab565b604051602081830303815290604052907bffffffffffffffffffffffffffffffffffffffffffffffffffffffff19166020820180517bffffffffffffffffffffffffffffffffffffffffffffffffffffffff8381831617835250505050612854565b50505050565b60008060009054906101000a900473ffffffffffffffffffffffffffffffffffffffff169050816000806101000a81548173ffffffffffffffffffffffffffffffffffffffff021916908373ffffffffffffffffffffffffffffffffffffffff1602179055508173ffffffffffffffffffffffffffffffffffffffff168173ffffffffffffffffffffffffffffffffffffffff167f8be0079c531659141344cd1fd0a4f28419497f9722a3daafe3b4186f6b6457e060405160405180910390a35050565b600081836128369190613725565b905092915050565b6000818361284c91906136f4565b905092915050565b60006128b6826040518060400160405280602081526020017f5361666545524332303a206c6f772d6c6576656c2063616c6c206661696c65648152508573ffffffffffffffffffffffffffffffffffffffff1661291b9092919063ffffffff16565b905060008151111561291657808060200190518101906128d69190612dd5565b612915576040517f08c379a000000000000000000000000000000000000000000000000000000000815260040161290c906135ba565b60405180910390fd5b5b505050565b606061292a8484600085612933565b90509392505050565b606082471015612978576040517f08c379a000000000000000000000000000000000000000000000000000000000815260040161296f9061349a565b60405180910390fd5b61298185612a47565b6129c0576040517f08c379a00000000000000000000000000000000000000000000000000000000081526004016129b79061357a565b60405180910390fd5b6000808673ffffffffffffffffffffffffffffffffffffffff1685876040516129e99190613279565b60006040518083038185875af1925050503d8060008114612a26576040519150601f19603f3d011682016040523d82523d6000602084013e612a2b565b606091505b5091509150612a3b828286612a6a565b92505050949350505050565b6000808273ffffffffffffffffffffffffffffffffffffffff163b119050919050565b60608315612a7a57829050612aca565b600083511115612a8d5782518084602001fd5b816040517f08c379a0000000000000000000000000000000000000000000000000000000008152600401612ac19190613378565b60405180910390fd5b9392505050565b5080546000825560030290600052602060002090810190612af29190612b16565b50565b60405180606001604052806000815260200160008152602001600081525090565b5b80821115612b41576000808201600090556001820160009055600282016000905550600301612b17565b5090565b600081359050612b5481613d26565b92915050565b60008083601f840112612b7057612b6f613935565b5b8235905067ffffffffffffffff811115612b8d57612b8c613930565b5b602083019150836020820283011115612ba957612ba861393a565b5b9250929050565b60008083601f840112612bc657612bc5613935565b5b8235905067ffffffffffffffff811115612be357612be2613930565b5b602083019150836020820283011115612bff57612bfe61393a565b5b9250929050565b600081359050612c1581613d3d565b92915050565b600081519050612c2a81613d3d565b92915050565b600081359050612c3f81613d54565b92915050565b600081519050612c5481613d54565b92915050565b600060208284031215612c7057612c6f613944565b5b6000612c7e84828501612b45565b91505092915050565b600080600060608486031215612ca057612c9f613944565b5b6000612cae86828701612b45565b9350506020612cbf86828701612b45565b9250506040612cd086828701612b45565b9150509250925092565b60008060208385031215612cf157612cf0613944565b5b600083013567ffffffffffffffff811115612d0f57612d0e61393f565b5b612d1b85828601612b5a565b92509250509250929050565b60008060008060408587031215612d4157612d40613944565b5b600085013567ffffffffffffffff811115612d5f57612d5e61393f565b5b612d6b87828801612bb0565b9450945050602085013567ffffffffffffffff811115612d8e57612d8d61393f565b5b612d9a87828801612bb0565b925092505092959194509250565b600060208284031215612dbe57612dbd613944565b5b6000612dcc84828501612c06565b91505092915050565b600060208284031215612deb57612dea613944565b5b6000612df984828501612c1b565b91505092915050565b600060208284031215612e1857612e17613944565b5b6000612e2684828501612c30565b91505092915050565b600060208284031215612e4557612e44613944565b5b6000612e5384828501612c45565b91505092915050565b60008060408385031215612e7357612e72613944565b5b6000612e8185828601612c30565b9250506020612e9285828601612c30565b9150509250929050565b600080600080600060a08688031215612eb857612eb7613944565b5b6000612ec688828901612c30565b9550506020612ed788828901612c30565b9450506040612ee888828901612c30565b9350506060612ef988828901612c30565b9250506080612f0a88828901612c30565b9150509295509295909350565b612f208161377f565b82525050565b612f2f81613791565b82525050565b6000612f408261366c565b612f4a8185613682565b9350612f5a8185602086016137fd565b80840191505092915050565b612f6f816137c7565b82525050565b6000612f8082613677565b612f8a818561368d565b9350612f9a8185602086016137fd565b612fa381613949565b840191505092915050565b6000612fbb60198361368d565b9150612fc68261395a565b602082019050919050565b6000612fde60138361368d565b9150612fe982613983565b602082019050919050565b600061300160168361368d565b915061300c826139ac565b602082019050919050565b600061302460268361368d565b915061302f826139d5565b604082019050919050565b600061304760148361368d565b915061305282613a24565b602082019050919050565b600061306a60168361368d565b915061307582613a4d565b602082019050919050565b600061308d600d8361368d565b915061309882613a76565b602082019050919050565b60006130b060188361368d565b91506130bb82613a9f565b602082019050919050565b60006130d360268361368d565b91506130de82613ac8565b604082019050919050565b60006130f660138361368d565b915061310182613b17565b602082019050919050565b600061311960108361368d565b915061312482613b40565b602082019050919050565b600061313c60178361368d565b915061314782613b69565b602082019050919050565b600061315f60208361368d565b915061316a82613b92565b602082019050919050565b6000613182601a8361368d565b915061318d82613bbb565b602082019050919050565b60006131a560248361368d565b91506131b082613be4565b604082019050919050565b60006131c8601d8361368d565b91506131d382613c33565b602082019050919050565b60006131eb601c8361368d565b91506131f682613c5c565b602082019050919050565b600061320e602a8361368d565b915061321982613c85565b604082019050919050565b600061323160128361368d565b915061323c82613cd4565b602082019050919050565b6000613254601f8361368d565b915061325f82613cfd565b602082019050919050565b613273816137bd565b82525050565b60006132858284612f35565b915081905092915050565b60006020820190506132a56000830184612f17565b92915050565b60006060820190506132c06000830186612f17565b6132cd6020830185612f17565b6132da604083018461326a565b949350505050565b60006040820190506132f76000830185612f17565b613304602083018461326a565b9392505050565b60006060820190506133206000830186612f17565b61332d602083018561326a565b61333a604083018461326a565b949350505050565b60006020820190506133576000830184612f26565b92915050565b60006020820190506133726000830184612f66565b92915050565b600060208201905081810360008301526133928184612f75565b905092915050565b600060208201905081810360008301526133b381612fae565b9050919050565b600060208201905081810360008301526133d381612fd1565b9050919050565b600060208201905081810360008301526133f381612ff4565b9050919050565b6000602082019050818103600083015261341381613017565b9050919050565b600060208201905081810360008301526134338161303a565b9050919050565b600060208201905081810360008301526134538161305d565b9050919050565b6000602082019050818103600083015261347381613080565b9050919050565b60006020820190508181036000830152613493816130a3565b9050919050565b600060208201905081810360008301526134b3816130c6565b9050919050565b600060208201905081810360008301526134d3816130e9565b9050919050565b600060208201905081810360008301526134f38161310c565b9050919050565b600060208201905081810360008301526135138161312f565b9050919050565b6000602082019050818103600083015261353381613152565b9050919050565b6000602082019050818103600083015261355381613175565b9050919050565b6000602082019050818103600083015261357381613198565b9050919050565b60006020820190508181036000830152613593816131bb565b9050919050565b600060208201905081810360008301526135b3816131de565b9050919050565b600060208201905081810360008301526135d381613201565b9050919050565b600060208201905081810360008301526135f381613224565b9050919050565b6000602082019050818103600083015261361381613247565b9050919050565b600060208201905061362f600083018461326a565b92915050565b600060608201905061364a600083018661326a565b613657602083018561326a565b613664604083018461326a565b949350505050565b600081519050919050565b600081519050919050565b600081905092915050565b600082825260208201905092915050565b60006136a9826137bd565b91506136b4836137bd565b9250827fffffffffffffffffffffffffffffffffffffffffffffffffffffffffffffffff038211156136e9576136e86138a3565b5b828201905092915050565b60006136ff826137bd565b915061370a836137bd565b92508261371a576137196138d2565b5b828204905092915050565b6000613730826137bd565b915061373b836137bd565b9250817fffffffffffffffffffffffffffffffffffffffffffffffffffffffffffffffff0483118215151615613774576137736138a3565b5b828202905092915050565b600061378a8261379d565b9050919050565b60008115159050919050565b600073ffffffffffffffffffffffffffffffffffffffff82169050919050565b6000819050919050565b60006137d2826137d9565b9050919050565b60006137e4826137eb565b9050919050565b60006137f68261379d565b9050919050565b60005b8381101561381b578082015181840152602081019050613800565b8381111561382a576000848401525b50505050565b600061383b826137bd565b9150600082141561384f5761384e6138a3565b5b600182039050919050565b6000613865826137bd565b91507fffffffffffffffffffffffffffffffffffffffffffffffffffffffffffffffff821415613898576138976138a3565b5b600182019050919050565b7f4e487b7100000000000000000000000000000000000000000000000000000000600052601160045260246000fd5b7f4e487b7100000000000000000000000000000000000000000000000000000000600052601260045260246000fd5b7f4e487b7100000000000000000000000000000000000000000000000000000000600052603260045260246000fd5b600080fd5b600080fd5b600080fd5b600080fd5b600080fd5b6000601f19601f8301169050919050565b7f436c61696d2074696d65206973206e6f74207374617274656400000000000000600082015250565b7f596f75206172652070616964206265666f726500000000000000000000000000600082015250565b7f436c61696d20696e64657820697320696e76616c696400000000000000000000600082015250565b7f4f776e61626c653a206e6577206f776e657220697320746865207a65726f206160008201527f6464726573730000000000000000000000000000000000000000000000000000602082015250565b7f596f752061726520696e20426c61636b6c697374000000000000000000000000600082015250565b7f496e7075742074696d652062757920696e76616c696400000000000000000000600082015250565b7f46756c6c2062757920736c6f7400000000000000000000000000000000000000600082015250565b7f596f7520617265206e6f7420696e2077686974656c6973740000000000000000600082015250565b7f416464726573733a20696e73756666696369656e742062616c616e636520666f60008201527f722063616c6c0000000000000000000000000000000000000000000000000000602082015250565b7f496e70757420737461676520696e76616c696400000000000000000000000000600082015250565b7f54696d652062757920696e76616c696400000000000000000000000000000000600082015250565b7f596f7520617265206e6f742070616964206265666f7265000000000000000000600082015250565b7f4f776e61626c653a2063616c6c6572206973206e6f7420746865206f776e6572600082015250565b7f50657263656e742076657374696e6720697320696e76616c6964000000000000600082015250565b7f4e6f7420656e6f7567682042414d4920746f6b656e20696e20796f757220776160008201527f6c6c657400000000000000000000000000000000000000000000000000000000602082015250565b7f416464726573733a2063616c6c20746f206e6f6e2d636f6e7472616374000000600082015250565b7f596f7520617265206e6f742077686974656c697374206265666f726500000000600082015250565b7f5361666545524332303a204552433230206f7065726174696f6e20646964206e60008201527f6f74207375636365656400000000000000000000000000000000000000000000602082015250565b7f436f6e7472616374206973207061757365640000000000000000000000000000600082015250565b7f5265656e7472616e637947756172643a207265656e7472616e742063616c6c00600082015250565b613d2f8161377f565b8114613d3a57600080fd5b50565b613d4681613791565b8114613d5157600080fd5b50565b613d5d816137bd565b8114613d6857600080fd5b5056fea2646970667358221220a67bdcf0940d508e356343ab451c528eaf456edba7a17e3cd43ad84d77c0d26b64736f6c63430008070033",
  "linkReferences": {},
  "deployedLinkReferences": {}
}