{
  "_format": "hh-sol-artifact-1",
  "contractName": "IRunTogetherPoolStore",
  "sourceName": "contracts/RunTogetherPoolProposal.sol",
  "abi": [
    {
      "inputs": [],
      "name": "poolLength",
      "outputs": [
        {
          "internalType": "uint256",
          "name": "",
          "type": "uint256"
        }
      ],
      "stateMutability": "view",
      "type": "function"
    },
    {
      "inputs": [
        {
          "internalType": "uint256",
          "name": "_pid",
          "type": "uint256"
        },
        {
          "internalType": "address",
          "name": "_user",
          "type": "address"
        }
      ],
      "name": "updatePool",
      "outputs": [],
      "stateMutability": "nonpayable",
      "type": "function"
    }
  ],
  "bytecode": "0x608060405234801561001057600080fd5b506101b7806100206000396000f3fe608060405234801561001057600080fd5b50600436106100365760003560e01c8063081e3eda1461003b57806373309b9614610059575b600080fd5b610043610075565b60405161005091906100f7565b60405180910390f35b610073600480360381019061006e91906100a8565b61007a565b005b600090565b5050565b60008135905061008d81610153565b92915050565b6000813590506100a28161016a565b92915050565b600080604083850312156100bf576100be61014e565b5b60006100cd85828601610093565b92505060206100de8582860161007e565b9150509250929050565b6100f181610144565b82525050565b600060208201905061010c60008301846100e8565b92915050565b600061011d82610124565b9050919050565b600073ffffffffffffffffffffffffffffffffffffffff82169050919050565b6000819050919050565b600080fd5b61015c81610112565b811461016757600080fd5b50565b61017381610144565b811461017e57600080fd5b5056fea2646970667358221220e0fac86a37af6c1649fc3d4c9ac7c060ab632c3e5c72578967daf4b2b310d4a264736f6c63430008070033",
  "linkReferences": {},
  "deployedLinkReferences": {}
}