{
  "_format": "hh-sol-artifact-1",
  "contractName": "RunTogetherPoolProposal",
  "sourceName": "contracts/RunTogetherPoolProposal.sol",
  "abi": [
    {
      "inputs": [
        {
          "internalType": "address",
          "name": "_stakedToken",
          "type": "address"
        },
        {
          "internalType": "address",
          "name": "_rewardToken",
          "type": "address"
        },
        {
          "internalType": "address",
          "name": "_devWallet",
          "type": "address"
        },
        {
          "internalType": "address",
          "name": "_feeWallet",
          "type": "address"
        }
      ],
      "stateMutability": "nonpayable",
      "type": "constructor"
    },
    {
      "anonymous": false,
      "inputs": [
        {
          "indexed": true,
          "internalType": "address",
          "name": "user",
          "type": "address"
        },
        {
          "indexed": false,
          "internalType": "uint256",
          "name": "amount",
          "type": "uint256"
        }
      ],
      "name": "Deposit",
      "type": "event"
    },
    {
      "anonymous": false,
      "inputs": [
        {
          "indexed": true,
          "internalType": "address",
          "name": "user",
          "type": "address"
        },
        {
          "indexed": false,
          "internalType": "uint256",
          "name": "amount",
          "type": "uint256"
        }
      ],
      "name": "EmergencyWithdraw",
      "type": "event"
    },
    {
      "anonymous": false,
      "inputs": [
        {
          "indexed": true,
          "internalType": "address",
          "name": "previousOwner",
          "type": "address"
        },
        {
          "indexed": true,
          "internalType": "address",
          "name": "newOwner",
          "type": "address"
        }
      ],
      "name": "OwnershipTransferred",
      "type": "event"
    },
    {
      "anonymous": false,
      "inputs": [
        {
          "indexed": true,
          "internalType": "address",
          "name": "user",
          "type": "address"
        },
        {
          "indexed": false,
          "internalType": "uint256",
          "name": "amount",
          "type": "uint256"
        }
      ],
      "name": "Reward",
      "type": "event"
    },
    {
      "anonymous": false,
      "inputs": [
        {
          "indexed": true,
          "internalType": "address",
          "name": "user",
          "type": "address"
        },
        {
          "indexed": false,
          "internalType": "uint256",
          "name": "amount",
          "type": "uint256"
        }
      ],
      "name": "Withdraw",
      "type": "event"
    },
    {
      "inputs": [],
      "name": "amountStakedToken",
      "outputs": [
        {
          "internalType": "uint256",
          "name": "",
          "type": "uint256"
        }
      ],
      "stateMutability": "view",
      "type": "function"
    },
    {
      "inputs": [],
      "name": "baseRate",
      "outputs": [
        {
          "internalType": "uint256",
          "name": "",
          "type": "uint256"
        }
      ],
      "stateMutability": "view",
      "type": "function"
    },
    {
      "inputs": [
        {
          "internalType": "address",
          "name": "",
          "type": "address"
        }
      ],
      "name": "blacklistMap",
      "outputs": [
        {
          "internalType": "bool",
          "name": "",
          "type": "bool"
        }
      ],
      "stateMutability": "view",
      "type": "function"
    },
    {
      "inputs": [],
      "name": "blockPerYear",
      "outputs": [
        {
          "internalType": "uint256",
          "name": "",
          "type": "uint256"
        }
      ],
      "stateMutability": "view",
      "type": "function"
    },
    {
      "inputs": [
        {
          "internalType": "uint256",
          "name": "_amount",
          "type": "uint256"
        },
        {
          "internalType": "address",
          "name": "_user",
          "type": "address"
        }
      ],
      "name": "deposit",
      "outputs": [],
      "stateMutability": "nonpayable",
      "type": "function"
    },
    {
      "inputs": [],
      "name": "devWallet",
      "outputs": [
        {
          "internalType": "address",
          "name": "",
          "type": "address"
        }
      ],
      "stateMutability": "view",
      "type": "function"
    },
    {
      "inputs": [],
      "name": "emergencyRewardWithdraw",
      "outputs": [],
      "stateMutability": "nonpayable",
      "type": "function"
    },
    {
      "inputs": [],
      "name": "emergencyWithdraw",
      "outputs": [],
      "stateMutability": "nonpayable",
      "type": "function"
    },
    {
      "inputs": [],
      "name": "endBlock",
      "outputs": [
        {
          "internalType": "uint256",
          "name": "",
          "type": "uint256"
        }
      ],
      "stateMutability": "view",
      "type": "function"
    },
    {
      "inputs": [],
      "name": "endTime",
      "outputs": [
        {
          "internalType": "uint256",
          "name": "",
          "type": "uint256"
        }
      ],
      "stateMutability": "view",
      "type": "function"
    },
    {
      "inputs": [
        {
          "internalType": "uint256",
          "name": "",
          "type": "uint256"
        }
      ],
      "name": "feeUnstake",
      "outputs": [
        {
          "internalType": "uint256",
          "name": "",
          "type": "uint256"
        }
      ],
      "stateMutability": "view",
      "type": "function"
    },
    {
      "inputs": [
        {
          "internalType": "uint256",
          "name": "",
          "type": "uint256"
        }
      ],
      "name": "feeUnstakeDuration",
      "outputs": [
        {
          "internalType": "uint256",
          "name": "",
          "type": "uint256"
        }
      ],
      "stateMutability": "view",
      "type": "function"
    },
    {
      "inputs": [],
      "name": "feeWallet",
      "outputs": [
        {
          "internalType": "address",
          "name": "",
          "type": "address"
        }
      ],
      "stateMutability": "view",
      "type": "function"
    },
    {
      "inputs": [
        {
          "internalType": "address",
          "name": "_user",
          "type": "address"
        }
      ],
      "name": "getUserInfoAmount",
      "outputs": [
        {
          "internalType": "uint256",
          "name": "",
          "type": "uint256"
        }
      ],
      "stateMutability": "view",
      "type": "function"
    },
    {
      "inputs": [
        {
          "internalType": "uint256",
          "name": "_index",
          "type": "uint256"
        }
      ],
      "name": "getUserInfoArray",
      "outputs": [
        {
          "internalType": "address",
          "name": "",
          "type": "address"
        }
      ],
      "stateMutability": "view",
      "type": "function"
    },
    {
      "inputs": [],
      "name": "getUserInfoArrayLength",
      "outputs": [
        {
          "internalType": "uint256",
          "name": "",
          "type": "uint256"
        }
      ],
      "stateMutability": "view",
      "type": "function"
    },
    {
      "inputs": [],
      "name": "isPause",
      "outputs": [
        {
          "internalType": "bool",
          "name": "",
          "type": "bool"
        }
      ],
      "stateMutability": "view",
      "type": "function"
    },
    {
      "inputs": [],
      "name": "lockStakeDuration",
      "outputs": [
        {
          "internalType": "uint256",
          "name": "",
          "type": "uint256"
        }
      ],
      "stateMutability": "view",
      "type": "function"
    },
    {
      "inputs": [],
      "name": "maxAmountStake",
      "outputs": [
        {
          "internalType": "uint256",
          "name": "",
          "type": "uint256"
        }
      ],
      "stateMutability": "view",
      "type": "function"
    },
    {
      "inputs": [],
      "name": "minBlock",
      "outputs": [
        {
          "internalType": "uint256",
          "name": "",
          "type": "uint256"
        }
      ],
      "stateMutability": "view",
      "type": "function"
    },
    {
      "inputs": [],
      "name": "owner",
      "outputs": [
        {
          "internalType": "address",
          "name": "",
          "type": "address"
        }
      ],
      "stateMutability": "view",
      "type": "function"
    },
    {
      "inputs": [
        {
          "internalType": "address",
          "name": "_user",
          "type": "address"
        }
      ],
      "name": "pendingReward",
      "outputs": [
        {
          "internalType": "uint256",
          "name": "_totalGain",
          "type": "uint256"
        }
      ],
      "stateMutability": "view",
      "type": "function"
    },
    {
      "inputs": [],
      "name": "rateReward",
      "outputs": [
        {
          "internalType": "uint256",
          "name": "",
          "type": "uint256"
        }
      ],
      "stateMutability": "view",
      "type": "function"
    },
    {
      "inputs": [],
      "name": "rateRewardToken",
      "outputs": [
        {
          "internalType": "uint256",
          "name": "",
          "type": "uint256"
        }
      ],
      "stateMutability": "view",
      "type": "function"
    },
    {
      "inputs": [],
      "name": "rateStakedToken",
      "outputs": [
        {
          "internalType": "uint256",
          "name": "",
          "type": "uint256"
        }
      ],
      "stateMutability": "view",
      "type": "function"
    },
    {
      "inputs": [
        {
          "internalType": "address[]",
          "name": "userList",
          "type": "address[]"
        }
      ],
      "name": "removeBlackList",
      "outputs": [],
      "stateMutability": "nonpayable",
      "type": "function"
    },
    {
      "inputs": [],
      "name": "renounceOwnership",
      "outputs": [],
      "stateMutability": "nonpayable",
      "type": "function"
    },
    {
      "inputs": [],
      "name": "rewardToken",
      "outputs": [
        {
          "internalType": "contract ERC20",
          "name": "",
          "type": "address"
        }
      ],
      "stateMutability": "view",
      "type": "function"
    },
    {
      "inputs": [
        {
          "internalType": "address[]",
          "name": "userList",
          "type": "address[]"
        }
      ],
      "name": "setBlackList",
      "outputs": [],
      "stateMutability": "nonpayable",
      "type": "function"
    },
    {
      "inputs": [
        {
          "internalType": "uint256",
          "name": "_blockPerYear",
          "type": "uint256"
        }
      ],
      "name": "setBlockPerYear",
      "outputs": [],
      "stateMutability": "nonpayable",
      "type": "function"
    },
    {
      "inputs": [
        {
          "internalType": "address",
          "name": "_devWallet",
          "type": "address"
        }
      ],
      "name": "setDevWallet",
      "outputs": [],
      "stateMutability": "nonpayable",
      "type": "function"
    },
    {
      "inputs": [
        {
          "internalType": "uint256[]",
          "name": "_feeUnstake",
          "type": "uint256[]"
        }
      ],
      "name": "setFeeUnstake",
      "outputs": [],
      "stateMutability": "nonpayable",
      "type": "function"
    },
    {
      "inputs": [
        {
          "internalType": "address",
          "name": "_feeWallet",
          "type": "address"
        }
      ],
      "name": "setFeeWallet",
      "outputs": [],
      "stateMutability": "nonpayable",
      "type": "function"
    },
    {
      "inputs": [
        {
          "internalType": "uint256",
          "name": "_maxAmountStake",
          "type": "uint256"
        }
      ],
      "name": "setMaxAmountStake",
      "outputs": [],
      "stateMutability": "nonpayable",
      "type": "function"
    },
    {
      "inputs": [
        {
          "internalType": "uint256",
          "name": "_minBlock",
          "type": "uint256"
        }
      ],
      "name": "setMinBlock",
      "outputs": [],
      "stateMutability": "nonpayable",
      "type": "function"
    },
    {
      "inputs": [
        {
          "internalType": "bool",
          "name": "_status",
          "type": "bool"
        }
      ],
      "name": "setPauseContract",
      "outputs": [],
      "stateMutability": "nonpayable",
      "type": "function"
    },
    {
      "inputs": [
        {
          "internalType": "uint256",
          "name": "_rateReward",
          "type": "uint256"
        },
        {
          "internalType": "uint256",
          "name": "_rateStakedToken",
          "type": "uint256"
        },
        {
          "internalType": "uint256",
          "name": "_rateRewardToken",
          "type": "uint256"
        }
      ],
      "name": "setRate",
      "outputs": [],
      "stateMutability": "nonpayable",
      "type": "function"
    },
    {
      "inputs": [
        {
          "internalType": "address",
          "name": "_runTogetherPoolStore",
          "type": "address"
        }
      ],
      "name": "setRunTogetherPoolStore",
      "outputs": [],
      "stateMutability": "nonpayable",
      "type": "function"
    },
    {
      "inputs": [
        {
          "internalType": "uint256",
          "name": "_startBlock",
          "type": "uint256"
        },
        {
          "internalType": "uint256",
          "name": "_endBlock",
          "type": "uint256"
        }
      ],
      "name": "setStartEndBlockPool",
      "outputs": [],
      "stateMutability": "nonpayable",
      "type": "function"
    },
    {
      "inputs": [
        {
          "internalType": "uint256",
          "name": "_startTime",
          "type": "uint256"
        },
        {
          "internalType": "uint256",
          "name": "_endTime",
          "type": "uint256"
        }
      ],
      "name": "setStartEndTimePool",
      "outputs": [],
      "stateMutability": "nonpayable",
      "type": "function"
    },
    {
      "inputs": [
        {
          "internalType": "uint256",
          "name": "_lockStakeDuration",
          "type": "uint256"
        },
        {
          "internalType": "uint256[]",
          "name": "_feeUnstakeDuration",
          "type": "uint256[]"
        }
      ],
      "name": "setTimeDuration",
      "outputs": [],
      "stateMutability": "nonpayable",
      "type": "function"
    },
    {
      "inputs": [
        {
          "internalType": "address",
          "name": "_stakedToken",
          "type": "address"
        },
        {
          "internalType": "address",
          "name": "_rewardToken",
          "type": "address"
        }
      ],
      "name": "setToken",
      "outputs": [],
      "stateMutability": "nonpayable",
      "type": "function"
    },
    {
      "inputs": [],
      "name": "stakedToken",
      "outputs": [
        {
          "internalType": "contract ERC20",
          "name": "",
          "type": "address"
        }
      ],
      "stateMutability": "view",
      "type": "function"
    },
    {
      "inputs": [],
      "name": "startBlock",
      "outputs": [
        {
          "internalType": "uint256",
          "name": "",
          "type": "uint256"
        }
      ],
      "stateMutability": "view",
      "type": "function"
    },
    {
      "inputs": [],
      "name": "startTime",
      "outputs": [
        {
          "internalType": "uint256",
          "name": "",
          "type": "uint256"
        }
      ],
      "stateMutability": "view",
      "type": "function"
    },
    {
      "inputs": [
        {
          "internalType": "address",
          "name": "newOwner",
          "type": "address"
        }
      ],
      "name": "transferOwnership",
      "outputs": [],
      "stateMutability": "nonpayable",
      "type": "function"
    },
    {
      "inputs": [
        {
          "internalType": "address",
          "name": "",
          "type": "address"
        }
      ],
      "name": "userInfo",
      "outputs": [
        {
          "internalType": "address",
          "name": "userAddress",
          "type": "address"
        },
        {
          "internalType": "uint256",
          "name": "amount",
          "type": "uint256"
        },
        {
          "internalType": "uint256",
          "name": "stakeBlock",
          "type": "uint256"
        },
        {
          "internalType": "uint256",
          "name": "unstakeLockTime",
          "type": "uint256"
        }
      ],
      "stateMutability": "view",
      "type": "function"
    },
    {
      "inputs": [
        {
          "internalType": "uint256",
          "name": "",
          "type": "uint256"
        }
      ],
      "name": "userInfoArray",
      "outputs": [
        {
          "internalType": "address",
          "name": "userAddress",
          "type": "address"
        },
        {
          "internalType": "uint256",
          "name": "amount",
          "type": "uint256"
        },
        {
          "internalType": "uint256",
          "name": "stakeBlock",
          "type": "uint256"
        },
        {
          "internalType": "uint256",
          "name": "unstakeLockTime",
          "type": "uint256"
        }
      ],
      "stateMutability": "view",
      "type": "function"
    },
    {
      "inputs": [
        {
          "internalType": "uint256",
          "name": "_amount",
          "type": "uint256"
        },
        {
          "internalType": "address",
          "name": "_user",
          "type": "address"
        }
      ],
      "name": "withdraw",
      "outputs": [],
      "stateMutability": "nonpayable",
      "type": "function"
    }
  ],
  "bytecode": "0x60806040526103e860035562a0668060045560c860055560646006556001600755606460085560006009556040518060200160405280601460ff16815250600a9060016200004f929190620002d8565b50604051806020016040528062ed4e0062ffffff16815250600b906001620000799291906200032f565b506a0211654585005212800000600c553480156200009657600080fd5b5060405162004765380380620047658339818101604052810190620000bc9190620003be565b620000dc620000d06200020c60201b60201c565b6200021460201b60201c565b6001808190555083601660006101000a81548173ffffffffffffffffffffffffffffffffffffffff021916908373ffffffffffffffffffffffffffffffffffffffff16021790555082601560006101000a81548173ffffffffffffffffffffffffffffffffffffffff021916908373ffffffffffffffffffffffffffffffffffffffff16021790555081601360006101000a81548173ffffffffffffffffffffffffffffffffffffffff021916908373ffffffffffffffffffffffffffffffffffffffff16021790555080601260006101000a81548173ffffffffffffffffffffffffffffffffffffffff021916908373ffffffffffffffffffffffffffffffffffffffff1602179055506001600260146101000a81548160ff0219169083151502179055505050505062000483565b600033905090565b60008060009054906101000a900473ffffffffffffffffffffffffffffffffffffffff169050816000806101000a81548173ffffffffffffffffffffffffffffffffffffffff021916908373ffffffffffffffffffffffffffffffffffffffff1602179055508173ffffffffffffffffffffffffffffffffffffffff168173ffffffffffffffffffffffffffffffffffffffff167f8be0079c531659141344cd1fd0a4f28419497f9722a3daafe3b4186f6b6457e060405160405180910390a35050565b8280548282559060005260206000209081019282156200031c579160200282015b828111156200031b578251829060ff16905591602001919060010190620002f9565b5b5090506200032b919062000388565b5090565b82805482825590600052602060002090810192821562000375579160200282015b8281111562000374578251829062ffffff1690559160200191906001019062000350565b5b50905062000384919062000388565b5090565b5b80821115620003a357600081600090555060010162000389565b5090565b600081519050620003b88162000469565b92915050565b60008060008060808587031215620003db57620003da62000464565b5b6000620003eb87828801620003a7565b9450506020620003fe87828801620003a7565b93505060406200041187828801620003a7565b92505060606200042487828801620003a7565b91505092959194509250565b60006200043d8262000444565b9050919050565b600073ffffffffffffffffffffffffffffffffffffffff82169050919050565b600080fd5b620004748162000430565b81146200048057600080fd5b50565b6142d280620004936000396000f3fe608060405234801561001057600080fd5b50600436106102ba5760003560e01c80638b4c308a11610182578063b9d6ad67116100e9578063e601af73116100a2578063f2fde38b1161007c578063f2fde38b1461082b578063f40f0f5214610847578063f7c618c114610877578063ff0938a714610895576102ba565b8063e601af73146107d5578063f080fa11146107f1578063f25f4b561461080d576102ba565b8063b9d6ad671461074b578063bf0d2e3f14610769578063cc7a262e14610785578063d0761c34146107a3578063d437c6be146107c1578063db2e21bc146107cb576102ba565b80639aa0ea191161013b5780639aa0ea19146106875780639acf1228146106b75780639bf41135146106d55780639fd98de1146106f1578063a1c9389a1461070f578063a26ecf981461072d576102ba565b80638b4c308a146105c45780638da5cb5b146105f75780638ea5220f14610615578063907f5dbe1461063357806390d49b9d1461064f57806391ca7bd51461066b576102ba565b8063335b2575116102265780634da13a66116101df5780634da13a661461052a5780636bdfeed7146105485780636e553f6514610564578063715018a614610580578063777e092b1461058a57806378e97925146105a6576102ba565b8063335b2575146104565780633989c666146104865780634033dcd6146104a257806348cd4cb1146104be5780634912fc74146104dc5780634a6bedfd1461050c576102ba565b80631f68f20a116102785780631f68f20a14610380578063225e63d71461039e5780632278ebe5146103bc57806329d8fe47146103ec5780632ef1faff146104085780633197cbb614610438576102ba565b8062f714ce146102bf57806303700d6b146102db578063083c6323146102f75780631959a002146103155780631da26a8b146103485780631f53ac0214610364575b600080fd5b6102d960048036038101906102d4919061351e565b6108b3565b005b6102f560048036038101906102f091906134c4565b610f2c565b005b6102ff610fb2565b60405161030c9190613c13565b60405180910390f35b61032f600480360381019061032a9190613363565b610fb8565b60405161033f9493929190613996565b60405180910390f35b610362600480360381019061035d9190613390565b611008565b005b61037e60048036038101906103799190613363565b61110a565b005b6103886111ca565b6040516103959190613c13565b60405180910390f35b6103a66111d0565b6040516103b39190613c13565b60405180910390f35b6103d660048036038101906103d19190613363565b6111d6565b6040516103e39190613c13565b60405180910390f35b610406600480360381019061040191906135be565b611222565b005b610422600480360381019061041d91906134c4565b6112b0565b60405161042f919061391b565b60405180910390f35b6104406112ff565b60405161044d9190613c13565b60405180910390f35b610470600480360381019061046b91906134c4565b611305565b60405161047d9190613c13565b60405180910390f35b6104a0600480360381019061049b91906135fe565b611329565b005b6104bc60048036038101906104b791906134c4565b6113bf565b005b6104c6611445565b6040516104d39190613c13565b60405180910390f35b6104f660048036038101906104f191906134c4565b61144b565b6040516105039190613c13565b60405180910390f35b61051461146f565b6040516105219190613c13565b60405180910390f35b61053261147c565b60405161053f9190613c13565b60405180910390f35b610562600480360381019061055d919061355e565b611482565b005b61057e6004803603810190610579919061351e565b61151c565b005b610588611df7565b005b6105a4600480360381019061059f91906133d0565b611e7f565b005b6105ae611fa0565b6040516105bb9190613c13565b60405180910390f35b6105de60048036038101906105d991906134c4565b611fa6565b6040516105ee9493929190613996565b60405180910390f35b6105ff612006565b60405161060c919061391b565b60405180910390f35b61061d61202f565b60405161062a919061391b565b60405180910390f35b61064d6004803603810190610648919061341d565b612055565b005b61066960048036038101906106649190613363565b6120e7565b005b61068560048036038101906106809190613363565b6121a7565b005b6106a1600480360381019061069c9190613363565b612267565b6040516106ae91906139db565b60405180910390f35b6106bf612287565b6040516106cc9190613c13565b60405180910390f35b6106ef60048036038101906106ea91906133d0565b61228d565b005b6106f96123ae565b6040516107069190613c13565b60405180910390f35b6107176123b4565b6040516107249190613c13565b60405180910390f35b6107356123ba565b6040516107429190613c13565b60405180910390f35b6107536123c0565b6040516107609190613c13565b60405180910390f35b610783600480360381019061077e91906134c4565b6123c6565b005b61078d61244c565b60405161079a91906139f6565b60405180910390f35b6107ab612472565b6040516107b89190613c13565b60405180910390f35b6107c9612478565b005b6107d3612615565b005b6107ef60048036038101906107ea919061346a565b61276d565b005b61080b600480360381019061080691906135be565b612806565b005b610815612894565b604051610822919061391b565b60405180910390f35b61084560048036038101906108409190613363565b6128ba565b005b610861600480360381019061085c9190613363565b6129b2565b60405161086e9190613c13565b60405180910390f35b61087f612c43565b60405161088c91906139f6565b60405180910390f35b61089d612c69565b6040516108aa91906139db565b60405180910390f35b600260015414156108f9576040517f08c379a00000000000000000000000000000000000000000000000000000000081526004016108f090613bd3565b60405180910390fd5b600260018190555060001515600260149054906101000a900460ff16151514610957576040517f08c379a000000000000000000000000000000000000000000000000000000000815260040161094e90613bb3565b60405180910390fd5b3373ffffffffffffffffffffffffffffffffffffffff168173ffffffffffffffffffffffffffffffffffffffff16146109c5576040517f08c379a00000000000000000000000000000000000000000000000000000000081526004016109bc90613b73565b60405180910390fd5b60001515601460008373ffffffffffffffffffffffffffffffffffffffff1673ffffffffffffffffffffffffffffffffffffffff16815260200190815260200160002060009054906101000a900460ff16151514610a58576040517f08c379a0000000000000000000000000000000000000000000000000000000008152600401610a4f90613a73565b60405180910390fd5b6000601760008373ffffffffffffffffffffffffffffffffffffffff1673ffffffffffffffffffffffffffffffffffffffff16815260200190815260200160002090508060010154831115610ae2576040517f08c379a0000000000000000000000000000000000000000000000000000000008152600401610ad990613b13565b60405180910390fd5b6000610aed836129b2565b90506000841115610cd05742826003015410610b3e576040517f08c379a0000000000000000000000000000000000000000000000000000000008152600401610b3590613a33565b60405180910390fd5b610b55848360010154612c7c90919063ffffffff16565b8260010181905550600084905060005b600b80549050811015610c805742846004018281548110610b8957610b88613ef6565b5b90600052602060002001541115610c6d576000610be1600354610bd3600a8581548110610bb957610bb8613ef6565b5b90600052602060002001548a612c9290919063ffffffff16565b612ca890919063ffffffff16565b9050610bf68184612c7c90919063ffffffff16565b9250610c67601260009054906101000a900473ffffffffffffffffffffffffffffffffffffffff1682601660009054906101000a900473ffffffffffffffffffffffffffffffffffffffff1673ffffffffffffffffffffffffffffffffffffffff16612cbe9092919063ffffffff16565b50610c80565b8080610c7890613e4f565b915050610b65565b50610cce8482601660009054906101000a900473ffffffffffffffffffffffffffffffffffffffff1673ffffffffffffffffffffffffffffffffffffffff16612cbe9092919063ffffffff16565b505b6000811115610d7e57610d268382601560009054906101000a900473ffffffffffffffffffffffffffffffffffffffff1673ffffffffffffffffffffffffffffffffffffffff16612cbe9092919063ffffffff16565b4382600201819055508273ffffffffffffffffffffffffffffffffffffffff167f619caafabdd75649b302ba8419e48cccf64f37f1983ac4727cfb38b57703ffc982604051610d759190613c13565b60405180910390a25b83600d6000828254610d909190613d6a565b92505081905550600260009054906101000a900473ffffffffffffffffffffffffffffffffffffffff1673ffffffffffffffffffffffffffffffffffffffff166373309b966001600260009054906101000a900473ffffffffffffffffffffffffffffffffffffffff1673ffffffffffffffffffffffffffffffffffffffff1663081e3eda6040518163ffffffff1660e01b815260040160206040518083038186803b158015610e3f57600080fd5b505afa158015610e53573d6000803e3d6000fd5b505050506040513d601f19601f82011682018060405250810190610e7791906134f1565b610e819190613d6a565b856040518363ffffffff1660e01b8152600401610e9f929190613c2e565b600060405180830381600087803b158015610eb957600080fd5b505af1158015610ecd573d6000803e3d6000fd5b505050508273ffffffffffffffffffffffffffffffffffffffff167f884edad9ce6fa2440d8a54cc123490eb96d2768479d49ff9c7366125a942436485604051610f179190613c13565b60405180910390a25050600180819055505050565b610f34612d44565b73ffffffffffffffffffffffffffffffffffffffff16610f52612006565b73ffffffffffffffffffffffffffffffffffffffff1614610fa8576040517f08c379a0000000000000000000000000000000000000000000000000000000008152600401610f9f90613b33565b60405180910390fd5b8060048190555050565b60115481565b60176020528060005260406000206000915090508060000160009054906101000a900473ffffffffffffffffffffffffffffffffffffffff16908060010154908060020154908060030154905084565b611010612d44565b73ffffffffffffffffffffffffffffffffffffffff1661102e612006565b73ffffffffffffffffffffffffffffffffffffffff1614611084576040517f08c379a000000000000000000000000000000000000000000000000000000000815260040161107b90613b33565b60405180910390fd5b81601660006101000a81548173ffffffffffffffffffffffffffffffffffffffff021916908373ffffffffffffffffffffffffffffffffffffffff16021790555080601560006101000a81548173ffffffffffffffffffffffffffffffffffffffff021916908373ffffffffffffffffffffffffffffffffffffffff1602179055505050565b611112612d44565b73ffffffffffffffffffffffffffffffffffffffff16611130612006565b73ffffffffffffffffffffffffffffffffffffffff1614611186576040517f08c379a000000000000000000000000000000000000000000000000000000000815260040161117d90613b33565b60405180910390fd5b80601360006101000a81548173ffffffffffffffffffffffffffffffffffffffff021916908373ffffffffffffffffffffffffffffffffffffffff16021790555050565b60035481565b60065481565b6000601760008373ffffffffffffffffffffffffffffffffffffffff1673ffffffffffffffffffffffffffffffffffffffff168152602001908152602001600020600101549050919050565b61122a612d44565b73ffffffffffffffffffffffffffffffffffffffff16611248612006565b73ffffffffffffffffffffffffffffffffffffffff161461129e576040517f08c379a000000000000000000000000000000000000000000000000000000000815260040161129590613b33565b60405180910390fd5b81601081905550806011819055505050565b6000601882815481106112c6576112c5613ef6565b5b906000526020600020906005020160000160009054906101000a900473ffffffffffffffffffffffffffffffffffffffff169050919050565b600f5481565b600b818154811061131557600080fd5b906000526020600020016000915090505481565b611331612d44565b73ffffffffffffffffffffffffffffffffffffffff1661134f612006565b73ffffffffffffffffffffffffffffffffffffffff16146113a5576040517f08c379a000000000000000000000000000000000000000000000000000000000815260040161139c90613b33565b60405180910390fd5b826005819055508160068190555080600781905550505050565b6113c7612d44565b73ffffffffffffffffffffffffffffffffffffffff166113e5612006565b73ffffffffffffffffffffffffffffffffffffffff161461143b576040517f08c379a000000000000000000000000000000000000000000000000000000000815260040161143290613b33565b60405180910390fd5b80600c8190555050565b60105481565b600a818154811061145b57600080fd5b906000526020600020016000915090505481565b6000601880549050905090565b60095481565b61148a612d44565b73ffffffffffffffffffffffffffffffffffffffff166114a8612006565b73ffffffffffffffffffffffffffffffffffffffff16146114fe576040517f08c379a00000000000000000000000000000000000000000000000000000000081526004016114f590613b33565b60405180910390fd5b826009819055508181600b9190611516929190613145565b50505050565b60026001541415611562576040517f08c379a000000000000000000000000000000000000000000000000000000000815260040161155990613bd3565b60405180910390fd5b600260018190555060001515600260149054906101000a900460ff161515146115c0576040517f08c379a00000000000000000000000000000000000000000000000000000000081526004016115b790613bb3565b60405180910390fd5b600e544211611604576040517f08c379a00000000000000000000000000000000000000000000000000000000081526004016115fb90613ad3565b60405180910390fd5b600f54421115611649576040517f08c379a000000000000000000000000000000000000000000000000000000000815260040161164090613ab3565b60405180910390fd5b601054431161168d576040517f08c379a000000000000000000000000000000000000000000000000000000000815260040161168490613ad3565b60405180910390fd5b6011544311156116d2576040517f08c379a00000000000000000000000000000000000000000000000000000000081526004016116c990613ab3565b60405180910390fd5b3373ffffffffffffffffffffffffffffffffffffffff168173ffffffffffffffffffffffffffffffffffffffff1614611740576040517f08c379a000000000000000000000000000000000000000000000000000000000815260040161173790613b73565b60405180910390fd5b60001515601460008373ffffffffffffffffffffffffffffffffffffffff1673ffffffffffffffffffffffffffffffffffffffff16815260200190815260200160002060009054906101000a900460ff161515146117d3576040517f08c379a00000000000000000000000000000000000000000000000000000000081526004016117ca90613a73565b60405180910390fd5b60008211611816576040517f08c379a000000000000000000000000000000000000000000000000000000000815260040161180d90613a93565b60405180910390fd5b61182b82600d54612d4c90919063ffffffff16565b600d81905550600c54600d541115611878576040517f08c379a000000000000000000000000000000000000000000000000000000000815260040161186f90613bf3565b60405180910390fd5b6000601760008373ffffffffffffffffffffffffffffffffffffffff1673ffffffffffffffffffffffffffffffffffffffff168152602001908152602001600020905060008073ffffffffffffffffffffffffffffffffffffffff168260000160009054906101000a900473ffffffffffffffffffffffffffffffffffffffff1673ffffffffffffffffffffffffffffffffffffffff16141561191a57600190505b6000826001015411156119db576000611932846129b2565b905060008111156119d95761198a8482601560009054906101000a900473ffffffffffffffffffffffffffffffffffffffff1673ffffffffffffffffffffffffffffffffffffffff16612cbe9092919063ffffffff16565b8373ffffffffffffffffffffffffffffffffffffffff167f619caafabdd75649b302ba8419e48cccf64f37f1983ac4727cfb38b57703ffc9826040516119d09190613c13565b60405180910390a25b505b6119f2848360010154612d4c90919063ffffffff16565b8260010181905550611a0f60095442612d4c90919063ffffffff16565b8260030181905550600b8054905067ffffffffffffffff811115611a3657611a35613f25565b5b604051908082528060200260200182016040528015611a645781602001602082028036833780820191505090505b50826004019080519060200190611a7c929190613192565b5060005b600b80549050811015611af557611abe600b8281548110611aa457611aa3613ef6565b5b906000526020600020015442612d4c90919063ffffffff16565b836004018281548110611ad457611ad3613ef6565b5b90600052602060002001819055508080611aed90613e4f565b915050611a80565b50611b45833086601660009054906101000a900473ffffffffffffffffffffffffffffffffffffffff1673ffffffffffffffffffffffffffffffffffffffff16612d62909392919063ffffffff16565b438260020181905550828260000160006101000a81548173ffffffffffffffffffffffffffffffffffffffff021916908373ffffffffffffffffffffffffffffffffffffffff1602179055508015611c625760188290806001815401808255809150506001900390600052602060002090600502016000909190919091506000820160009054906101000a900473ffffffffffffffffffffffffffffffffffffffff168160000160006101000a81548173ffffffffffffffffffffffffffffffffffffffff021916908373ffffffffffffffffffffffffffffffffffffffff1602179055506001820154816001015560028201548160020155600382015481600301556004820181600401908054611c5e9291906131df565b5050505b600260009054906101000a900473ffffffffffffffffffffffffffffffffffffffff1673ffffffffffffffffffffffffffffffffffffffff166373309b966001600260009054906101000a900473ffffffffffffffffffffffffffffffffffffffff1673ffffffffffffffffffffffffffffffffffffffff1663081e3eda6040518163ffffffff1660e01b815260040160206040518083038186803b158015611d0a57600080fd5b505afa158015611d1e573d6000803e3d6000fd5b505050506040513d601f19601f82011682018060405250810190611d4291906134f1565b611d4c9190613d6a565b856040518363ffffffff1660e01b8152600401611d6a929190613c2e565b600060405180830381600087803b158015611d8457600080fd5b505af1158015611d98573d6000803e3d6000fd5b505050508273ffffffffffffffffffffffffffffffffffffffff167fe1fffcc4923d04b559f4d29a8bfc6cda04eb5b0d3c460751c2402c5c5cc9109c85604051611de29190613c13565b60405180910390a25050600180819055505050565b611dff612d44565b73ffffffffffffffffffffffffffffffffffffffff16611e1d612006565b73ffffffffffffffffffffffffffffffffffffffff1614611e73576040517f08c379a0000000000000000000000000000000000000000000000000000000008152600401611e6a90613b33565b60405180910390fd5b611e7d6000612deb565b565b611e87612d44565b73ffffffffffffffffffffffffffffffffffffffff16611ea5612006565b73ffffffffffffffffffffffffffffffffffffffff1614611efb576040517f08c379a0000000000000000000000000000000000000000000000000000000008152600401611ef290613b33565b60405180910390fd5b60005b82829050811015611f9b57600160146000858585818110611f2257611f21613ef6565b5b9050602002016020810190611f379190613363565b73ffffffffffffffffffffffffffffffffffffffff1673ffffffffffffffffffffffffffffffffffffffff16815260200190815260200160002060006101000a81548160ff0219169083151502179055508080611f9390613e4f565b915050611efe565b505050565b600e5481565b60188181548110611fb657600080fd5b90600052602060002090600502016000915090508060000160009054906101000a900473ffffffffffffffffffffffffffffffffffffffff16908060010154908060020154908060030154905084565b60008060009054906101000a900473ffffffffffffffffffffffffffffffffffffffff16905090565b601360009054906101000a900473ffffffffffffffffffffffffffffffffffffffff1681565b61205d612d44565b73ffffffffffffffffffffffffffffffffffffffff1661207b612006565b73ffffffffffffffffffffffffffffffffffffffff16146120d1576040517f08c379a00000000000000000000000000000000000000000000000000000000081526004016120c890613b33565b60405180910390fd5b8181600a91906120e2929190613145565b505050565b6120ef612d44565b73ffffffffffffffffffffffffffffffffffffffff1661210d612006565b73ffffffffffffffffffffffffffffffffffffffff1614612163576040517f08c379a000000000000000000000000000000000000000000000000000000000815260040161215a90613b33565b60405180910390fd5b80601260006101000a81548173ffffffffffffffffffffffffffffffffffffffff021916908373ffffffffffffffffffffffffffffffffffffffff16021790555050565b6121af612d44565b73ffffffffffffffffffffffffffffffffffffffff166121cd612006565b73ffffffffffffffffffffffffffffffffffffffff1614612223576040517f08c379a000000000000000000000000000000000000000000000000000000000815260040161221a90613b33565b60405180910390fd5b80600260006101000a81548173ffffffffffffffffffffffffffffffffffffffff021916908373ffffffffffffffffffffffffffffffffffffffff16021790555050565b60146020528060005260406000206000915054906101000a900460ff1681565b600d5481565b612295612d44565b73ffffffffffffffffffffffffffffffffffffffff166122b3612006565b73ffffffffffffffffffffffffffffffffffffffff1614612309576040517f08c379a000000000000000000000000000000000000000000000000000000000815260040161230090613b33565b60405180910390fd5b60005b828290508110156123a9576000601460008585858181106123305761232f613ef6565b5b90506020020160208101906123459190613363565b73ffffffffffffffffffffffffffffffffffffffff1673ffffffffffffffffffffffffffffffffffffffff16815260200190815260200160002060006101000a81548160ff02191690831515021790555080806123a190613e4f565b91505061230c565b505050565b60055481565b60085481565b60075481565b60045481565b6123ce612d44565b73ffffffffffffffffffffffffffffffffffffffff166123ec612006565b73ffffffffffffffffffffffffffffffffffffffff1614612442576040517f08c379a000000000000000000000000000000000000000000000000000000000815260040161243990613b33565b60405180910390fd5b8060088190555050565b601660009054906101000a900473ffffffffffffffffffffffffffffffffffffffff1681565b600c5481565b612480612d44565b73ffffffffffffffffffffffffffffffffffffffff1661249e612006565b73ffffffffffffffffffffffffffffffffffffffff16146124f4576040517f08c379a00000000000000000000000000000000000000000000000000000000081526004016124eb90613b33565b60405180910390fd5b6000601560009054906101000a900473ffffffffffffffffffffffffffffffffffffffff1673ffffffffffffffffffffffffffffffffffffffff166370a08231306040518263ffffffff1660e01b8152600401612551919061391b565b60206040518083038186803b15801561256957600080fd5b505afa15801561257d573d6000803e3d6000fd5b505050506040513d601f19601f820116820180604052508101906125a191906134f1565b9050612612601360009054906101000a900473ffffffffffffffffffffffffffffffffffffffff1682601560009054906101000a900473ffffffffffffffffffffffffffffffffffffffff1673ffffffffffffffffffffffffffffffffffffffff16612cbe9092919063ffffffff16565b50565b6002600154141561265b576040517f08c379a000000000000000000000000000000000000000000000000000000000815260040161265290613bd3565b60405180910390fd5b60026001819055506000601760003373ffffffffffffffffffffffffffffffffffffffff1673ffffffffffffffffffffffffffffffffffffffff16815260200190815260200160002090506000816001015490506000826001018190555060008111156127105761270f3382601660009054906101000a900473ffffffffffffffffffffffffffffffffffffffff1673ffffffffffffffffffffffffffffffffffffffff16612cbe9092919063ffffffff16565b5b3373ffffffffffffffffffffffffffffffffffffffff167f5fafa99d0643513820be26656b45130b01e1c03062e1266bf36f88cbd3bd9695836001015460405161275a9190613c13565b60405180910390a2505060018081905550565b612775612d44565b73ffffffffffffffffffffffffffffffffffffffff16612793612006565b73ffffffffffffffffffffffffffffffffffffffff16146127e9576040517f08c379a00000000000000000000000000000000000000000000000000000000081526004016127e090613b33565b60405180910390fd5b80600260146101000a81548160ff02191690831515021790555050565b61280e612d44565b73ffffffffffffffffffffffffffffffffffffffff1661282c612006565b73ffffffffffffffffffffffffffffffffffffffff1614612882576040517f08c379a000000000000000000000000000000000000000000000000000000000815260040161287990613b33565b60405180910390fd5b81600e8190555080600f819055505050565b601260009054906101000a900473ffffffffffffffffffffffffffffffffffffffff1681565b6128c2612d44565b73ffffffffffffffffffffffffffffffffffffffff166128e0612006565b73ffffffffffffffffffffffffffffffffffffffff1614612936576040517f08c379a000000000000000000000000000000000000000000000000000000000815260040161292d90613b33565b60405180910390fd5b600073ffffffffffffffffffffffffffffffffffffffff168173ffffffffffffffffffffffffffffffffffffffff1614156129a6576040517f08c379a000000000000000000000000000000000000000000000000000000000815260040161299d90613a53565b60405180910390fd5b6129af81612deb565b50565b600080601760008473ffffffffffffffffffffffffffffffffffffffff1673ffffffffffffffffffffffffffffffffffffffff1681526020019081526020016000206040518060a00160405290816000820160009054906101000a900473ffffffffffffffffffffffffffffffffffffffff1673ffffffffffffffffffffffffffffffffffffffff1673ffffffffffffffffffffffffffffffffffffffff16815260200160018201548152602001600282015481526020016003820154815260200160048201805480602002602001604051908101604052809291908181526020018280548015612ac257602002820191906000526020600020905b815481526020019060010190808311612aae575b5050505050815250509050600854816040015143612ae09190613d6a565b1115612c38576000612af443601154612eaf565b90506000826040015182612b089190613d6a565b9050600083602001519050612b8a600454612b7c600354612b6e600654612b60600754612b52600554612b448b8d612c9290919063ffffffff16565b612c9290919063ffffffff16565b612c9290919063ffffffff16565b612ca890919063ffffffff16565b612ca890919063ffffffff16565b612ca890919063ffffffff16565b9450601560009054906101000a900473ffffffffffffffffffffffffffffffffffffffff1673ffffffffffffffffffffffffffffffffffffffff16601660009054906101000a900473ffffffffffffffffffffffffffffffffffffffff1673ffffffffffffffffffffffffffffffffffffffff161415612c3057612c2d600654612c1f60075488612c9290919063ffffffff16565b612ca890919063ffffffff16565b94505b505050612c3d565b600091505b50919050565b601560009054906101000a900473ffffffffffffffffffffffffffffffffffffffff1681565b600260149054906101000a900460ff1681565b60008183612c8a9190613d6a565b905092915050565b60008183612ca09190613d10565b905092915050565b60008183612cb69190613cdf565b905092915050565b612d3f8363a9059cbb60e01b8484604051602401612cdd92919061396d565b604051602081830303815290604052907bffffffffffffffffffffffffffffffffffffffffffffffffffffffff19166020820180517bffffffffffffffffffffffffffffffffffffffffffffffffffffffff8381831617835250505050612ec8565b505050565b600033905090565b60008183612d5a9190613c89565b905092915050565b612de5846323b872dd60e01b858585604051602401612d8393929190613936565b604051602081830303815290604052907bffffffffffffffffffffffffffffffffffffffffffffffffffffffff19166020820180517bffffffffffffffffffffffffffffffffffffffffffffffffffffffff8381831617835250505050612ec8565b50505050565b60008060009054906101000a900473ffffffffffffffffffffffffffffffffffffffff169050816000806101000a81548173ffffffffffffffffffffffffffffffffffffffff021916908373ffffffffffffffffffffffffffffffffffffffff1602179055508173ffffffffffffffffffffffffffffffffffffffff168173ffffffffffffffffffffffffffffffffffffffff167f8be0079c531659141344cd1fd0a4f28419497f9722a3daafe3b4186f6b6457e060405160405180910390a35050565b6000818310612ebe5781612ec0565b825b905092915050565b6000612f2a826040518060400160405280602081526020017f5361666545524332303a206c6f772d6c6576656c2063616c6c206661696c65648152508573ffffffffffffffffffffffffffffffffffffffff16612f8f9092919063ffffffff16565b9050600081511115612f8a5780806020019051810190612f4a9190613497565b612f89576040517f08c379a0000000000000000000000000000000000000000000000000000000008152600401612f8090613b93565b60405180910390fd5b5b505050565b6060612f9e8484600085612fa7565b90509392505050565b606082471015612fec576040517f08c379a0000000000000000000000000000000000000000000000000000000008152600401612fe390613af3565b60405180910390fd5b612ff5856130bb565b613034576040517f08c379a000000000000000000000000000000000000000000000000000000000815260040161302b90613b53565b60405180910390fd5b6000808673ffffffffffffffffffffffffffffffffffffffff16858760405161305d9190613904565b60006040518083038185875af1925050503d806000811461309a576040519150601f19603f3d011682016040523d82523d6000602084013e61309f565b606091505b50915091506130af8282866130de565b92505050949350505050565b6000808273ffffffffffffffffffffffffffffffffffffffff163b119050919050565b606083156130ee5782905061313e565b6000835111156131015782518084602001fd5b816040517f08c379a00000000000000000000000000000000000000000000000000000000081526004016131359190613a11565b60405180910390fd5b9392505050565b828054828255906000526020600020908101928215613181579160200282015b82811115613180578235825591602001919060010190613165565b5b50905061318e9190613231565b5090565b8280548282559060005260206000209081019282156131ce579160200282015b828111156131cd5782518255916020019190600101906131b2565b5b5090506131db9190613231565b5090565b8280548282559060005260206000209081019282156132205760005260206000209182015b8281111561321f578254825591600101919060010190613204565b5b50905061322d9190613231565b5090565b5b8082111561324a576000816000905550600101613232565b5090565b60008135905061325d81614257565b92915050565b60008083601f84011261327957613278613f59565b5b8235905067ffffffffffffffff81111561329657613295613f54565b5b6020830191508360208202830111156132b2576132b1613f5e565b5b9250929050565b60008083601f8401126132cf576132ce613f59565b5b8235905067ffffffffffffffff8111156132ec576132eb613f54565b5b60208301915083602082028301111561330857613307613f5e565b5b9250929050565b60008135905061331e8161426e565b92915050565b6000815190506133338161426e565b92915050565b60008135905061334881614285565b92915050565b60008151905061335d81614285565b92915050565b60006020828403121561337957613378613f68565b5b60006133878482850161324e565b91505092915050565b600080604083850312156133a7576133a6613f68565b5b60006133b58582860161324e565b92505060206133c68582860161324e565b9150509250929050565b600080602083850312156133e7576133e6613f68565b5b600083013567ffffffffffffffff81111561340557613404613f63565b5b61341185828601613263565b92509250509250929050565b6000806020838503121561343457613433613f68565b5b600083013567ffffffffffffffff81111561345257613451613f63565b5b61345e858286016132b9565b92509250509250929050565b6000602082840312156134805761347f613f68565b5b600061348e8482850161330f565b91505092915050565b6000602082840312156134ad576134ac613f68565b5b60006134bb84828501613324565b91505092915050565b6000602082840312156134da576134d9613f68565b5b60006134e884828501613339565b91505092915050565b60006020828403121561350757613506613f68565b5b60006135158482850161334e565b91505092915050565b6000806040838503121561353557613534613f68565b5b600061354385828601613339565b92505060206135548582860161324e565b9150509250929050565b60008060006040848603121561357757613576613f68565b5b600061358586828701613339565b935050602084013567ffffffffffffffff8111156135a6576135a5613f63565b5b6135b2868287016132b9565b92509250509250925092565b600080604083850312156135d5576135d4613f68565b5b60006135e385828601613339565b92505060206135f485828601613339565b9150509250929050565b60008060006060848603121561361757613616613f68565b5b600061362586828701613339565b935050602061363686828701613339565b925050604061364786828701613339565b9150509250925092565b61365a81613d9e565b82525050565b61366981613db0565b82525050565b600061367a82613c57565b6136848185613c6d565b9350613694818560208601613e1c565b80840191505092915050565b6136a981613de6565b82525050565b60006136ba82613c62565b6136c48185613c78565b93506136d4818560208601613e1c565b6136dd81613f6d565b840191505092915050565b60006136f5601783613c78565b915061370082613f7e565b602082019050919050565b6000613718602683613c78565b915061372382613fa7565b604082019050919050565b600061373b601483613c78565b915061374682613ff6565b602082019050919050565b600061375e601d83613c78565b91506137698261401f565b602082019050919050565b6000613781600d83613c78565b915061378c82614048565b602082019050919050565b60006137a4601783613c78565b91506137af82614071565b602082019050919050565b60006137c7602683613c78565b91506137d28261409a565b604082019050919050565b60006137ea601d83613c78565b91506137f5826140e9565b602082019050919050565b600061380d602083613c78565b915061381882614112565b602082019050919050565b6000613830601d83613c78565b915061383b8261413b565b602082019050919050565b6000613853600c83613c78565b915061385e82614164565b602082019050919050565b6000613876602a83613c78565b91506138818261418d565b604082019050919050565b6000613899601283613c78565b91506138a4826141dc565b602082019050919050565b60006138bc601f83613c78565b91506138c782614205565b602082019050919050565b60006138df600c83613c78565b91506138ea8261422e565b602082019050919050565b6138fe81613ddc565b82525050565b6000613910828461366f565b915081905092915050565b60006020820190506139306000830184613651565b92915050565b600060608201905061394b6000830186613651565b6139586020830185613651565b61396560408301846138f5565b949350505050565b60006040820190506139826000830185613651565b61398f60208301846138f5565b9392505050565b60006080820190506139ab6000830187613651565b6139b860208301866138f5565b6139c560408301856138f5565b6139d260608301846138f5565b95945050505050565b60006020820190506139f06000830184613660565b92915050565b6000602082019050613a0b60008301846136a0565b92915050565b60006020820190508181036000830152613a2b81846136af565b905092915050565b60006020820190508181036000830152613a4c816136e8565b9050919050565b60006020820190508181036000830152613a6c8161370b565b9050919050565b60006020820190508181036000830152613a8c8161372e565b9050919050565b60006020820190508181036000830152613aac81613751565b9050919050565b60006020820190508181036000830152613acc81613774565b9050919050565b60006020820190508181036000830152613aec81613797565b9050919050565b60006020820190508181036000830152613b0c816137ba565b9050919050565b60006020820190508181036000830152613b2c816137dd565b9050919050565b60006020820190508181036000830152613b4c81613800565b9050919050565b60006020820190508181036000830152613b6c81613823565b9050919050565b60006020820190508181036000830152613b8c81613846565b9050919050565b60006020820190508181036000830152613bac81613869565b9050919050565b60006020820190508181036000830152613bcc8161388c565b9050919050565b60006020820190508181036000830152613bec816138af565b9050919050565b60006020820190508181036000830152613c0c816138d2565b9050919050565b6000602082019050613c2860008301846138f5565b92915050565b6000604082019050613c4360008301856138f5565b613c506020830184613651565b9392505050565b600081519050919050565b600081519050919050565b600081905092915050565b600082825260208201905092915050565b6000613c9482613ddc565b9150613c9f83613ddc565b9250827fffffffffffffffffffffffffffffffffffffffffffffffffffffffffffffffff03821115613cd457613cd3613e98565b5b828201905092915050565b6000613cea82613ddc565b9150613cf583613ddc565b925082613d0557613d04613ec7565b5b828204905092915050565b6000613d1b82613ddc565b9150613d2683613ddc565b9250817fffffffffffffffffffffffffffffffffffffffffffffffffffffffffffffffff0483118215151615613d5f57613d5e613e98565b5b828202905092915050565b6000613d7582613ddc565b9150613d8083613ddc565b925082821015613d9357613d92613e98565b5b828203905092915050565b6000613da982613dbc565b9050919050565b60008115159050919050565b600073ffffffffffffffffffffffffffffffffffffffff82169050919050565b6000819050919050565b6000613df182613df8565b9050919050565b6000613e0382613e0a565b9050919050565b6000613e1582613dbc565b9050919050565b60005b83811015613e3a578082015181840152602081019050613e1f565b83811115613e49576000848401525b50505050565b6000613e5a82613ddc565b91507fffffffffffffffffffffffffffffffffffffffffffffffffffffffffffffffff821415613e8d57613e8c613e98565b5b600182019050919050565b7f4e487b7100000000000000000000000000000000000000000000000000000000600052601160045260246000fd5b7f4e487b7100000000000000000000000000000000000000000000000000000000600052601260045260246000fd5b7f4e487b7100000000000000000000000000000000000000000000000000000000600052603260045260246000fd5b7f4e487b7100000000000000000000000000000000000000000000000000000000600052604160045260246000fd5b600080fd5b600080fd5b600080fd5b600080fd5b600080fd5b6000601f19601f8301169050919050565b7f596f752063616e206e6f7420756e7374616b65206e6f77000000000000000000600082015250565b7f4f776e61626c653a206e6577206f776e657220697320746865207a65726f206160008201527f6464726573730000000000000000000000000000000000000000000000000000602082015250565b7f596f752061726520696e20426c61636b6c697374000000000000000000000000600082015250565b7f416d6f756e74206d7573742062652067726561746572207468616e2030000000600082015250565b7f506f6f6c20697320656e64656400000000000000000000000000000000000000600082015250565b7f506f6f6c206973206e6f74207374617274656420796574000000000000000000600082015250565b7f416464726573733a20696e73756666696369656e742062616c616e636520666f60008201527f722063616c6c0000000000000000000000000000000000000000000000000000602082015250565b7f416d6f756e7420746f207769746864726177206e6f7420656e6f756768000000600082015250565b7f4f776e61626c653a2063616c6c6572206973206e6f7420746865206f776e6572600082015250565b7f416464726573733a2063616c6c20746f206e6f6e2d636f6e7472616374000000600082015250565b7f496e76616c696420757365720000000000000000000000000000000000000000600082015250565b7f5361666545524332303a204552433230206f7065726174696f6e20646964206e60008201527f6f74207375636365656400000000000000000000000000000000000000000000602082015250565b7f436f6e7472616374206973207061757365640000000000000000000000000000600082015250565b7f5265656e7472616e637947756172643a207265656e7472616e742063616c6c00600082015250565b7f506f6f6c2069732066756c6c0000000000000000000000000000000000000000600082015250565b61426081613d9e565b811461426b57600080fd5b50565b61427781613db0565b811461428257600080fd5b50565b61428e81613ddc565b811461429957600080fd5b5056fea26469706673582212206ae501ddbd4d53e55871bed3a39d386c6ac791a06a3285c133dcb150c9dc290664736f6c63430008070033",
  "linkReferences": {},
  "deployedLinkReferences": {}
}