{
  "_format": "hh-sol-artifact-1",
  "contractName": "IRunTogetherPool",
  "sourceName": "contracts/RunTogetherPoolStore.sol",
  "abi": [
    {
      "inputs": [
        {
          "internalType": "address",
          "name": "_user",
          "type": "address"
        }
      ],
      "name": "getUserInfoAmount",
      "outputs": [
        {
          "internalType": "uint256",
          "name": "",
          "type": "uint256"
        }
      ],
      "stateMutability": "view",
      "type": "function"
    },
    {
      "inputs": [
        {
          "internalType": "uint256",
          "name": "_index",
          "type": "uint256"
        }
      ],
      "name": "getUserInfoArray",
      "outputs": [
        {
          "internalType": "address",
          "name": "",
          "type": "address"
        }
      ],
      "stateMutability": "view",
      "type": "function"
    },
    {
      "inputs": [],
      "name": "getUserInfoArrayLength",
      "outputs": [
        {
          "internalType": "uint256",
          "name": "",
          "type": "uint256"
        }
      ],
      "stateMutability": "view",
      "type": "function"
    }
  ],
  "bytecode": "0x608060405234801561001057600080fd5b50610254806100206000396000f3fe608060405234801561001057600080fd5b50600436106100415760003560e01c80632278ebe5146100465780632ef1faff146100765780634a6bedfd146100a6575b600080fd5b610060600480360381019061005b9190610101565b6100c4565b60405161006d9190610194565b60405180910390f35b610090600480360381019061008b919061012e565b6100cb565b60405161009d9190610179565b60405180910390f35b6100ae6100d2565b6040516100bb9190610194565b60405180910390f35b6000919050565b6000919050565b600090565b6000813590506100e6816101f0565b92915050565b6000813590506100fb81610207565b92915050565b600060208284031215610117576101166101eb565b5b6000610125848285016100d7565b91505092915050565b600060208284031215610144576101436101eb565b5b6000610152848285016100ec565b91505092915050565b610164816101af565b82525050565b610173816101e1565b82525050565b600060208201905061018e600083018461015b565b92915050565b60006020820190506101a9600083018461016a565b92915050565b60006101ba826101c1565b9050919050565b600073ffffffffffffffffffffffffffffffffffffffff82169050919050565b6000819050919050565b600080fd5b6101f9816101af565b811461020457600080fd5b50565b610210816101e1565b811461021b57600080fd5b5056fea2646970667358221220b26331455dff6eb5e16821dcf305fcf9be2533b79d9250b6f3a32b2b7d0d191364736f6c63430008070033",
  "linkReferences": {},
  "deployedLinkReferences": {}
}