{
  "_format": "hh-sol-artifact-1",
  "contractName": "RunTogetherPoolStore",
  "sourceName": "contracts/RunTogetherPoolStore.sol",
  "abi": [
    {
      "inputs": [
        {
          "internalType": "address",
          "name": "_runTogetherPoolAddress",
          "type": "address"
        },
        {
          "internalType": "address",
          "name": "_devWallet",
          "type": "address"
        }
      ],
      "stateMutability": "nonpayable",
      "type": "constructor"
    },
    {
      "anonymous": false,
      "inputs": [
        {
          "indexed": true,
          "internalType": "address",
          "name": "previousOwner",
          "type": "address"
        },
        {
          "indexed": true,
          "internalType": "address",
          "name": "newOwner",
          "type": "address"
        }
      ],
      "name": "OwnershipTransferred",
      "type": "event"
    },
    {
      "anonymous": false,
      "inputs": [
        {
          "indexed": false,
          "internalType": "uint256",
          "name": "poolId",
          "type": "uint256"
        },
        {
          "indexed": false,
          "internalType": "address",
          "name": "userAdrress",
          "type": "address"
        }
      ],
      "name": "snapshotComplete",
      "type": "event"
    },
    {
      "anonymous": false,
      "inputs": [
        {
          "indexed": false,
          "internalType": "uint256",
          "name": "poolId",
          "type": "uint256"
        },
        {
          "indexed": false,
          "internalType": "address",
          "name": "withdrawerAddress",
          "type": "address"
        },
        {
          "indexed": false,
          "internalType": "uint256",
          "name": "withdrawAmount",
          "type": "uint256"
        }
      ],
      "name": "withdrawComplete",
      "type": "event"
    },
    {
      "inputs": [
        {
          "internalType": "contract ERC20",
          "name": "_tokenStaked",
          "type": "address"
        },
        {
          "internalType": "contract ERC20",
          "name": "_tokenReward",
          "type": "address"
        }
      ],
      "name": "addPool",
      "outputs": [],
      "stateMutability": "nonpayable",
      "type": "function"
    },
    {
      "inputs": [
        {
          "internalType": "address",
          "name": "",
          "type": "address"
        }
      ],
      "name": "checkpointStakedAmountMap",
      "outputs": [
        {
          "internalType": "uint256",
          "name": "",
          "type": "uint256"
        }
      ],
      "stateMutability": "view",
      "type": "function"
    },
    {
      "inputs": [],
      "name": "devWallet",
      "outputs": [
        {
          "internalType": "address",
          "name": "",
          "type": "address"
        }
      ],
      "stateMutability": "view",
      "type": "function"
    },
    {
      "inputs": [
        {
          "internalType": "address",
          "name": "_tokenAddress",
          "type": "address"
        }
      ],
      "name": "emergencyWithdraw",
      "outputs": [],
      "stateMutability": "nonpayable",
      "type": "function"
    },
    {
      "inputs": [],
      "name": "isPause",
      "outputs": [
        {
          "internalType": "bool",
          "name": "",
          "type": "bool"
        }
      ],
      "stateMutability": "view",
      "type": "function"
    },
    {
      "inputs": [],
      "name": "owner",
      "outputs": [
        {
          "internalType": "address",
          "name": "",
          "type": "address"
        }
      ],
      "stateMutability": "view",
      "type": "function"
    },
    {
      "inputs": [
        {
          "internalType": "uint256",
          "name": "_pid",
          "type": "uint256"
        },
        {
          "internalType": "address",
          "name": "_user",
          "type": "address"
        }
      ],
      "name": "pendingReward",
      "outputs": [
        {
          "internalType": "uint256",
          "name": "",
          "type": "uint256"
        }
      ],
      "stateMutability": "view",
      "type": "function"
    },
    {
      "inputs": [
        {
          "internalType": "address",
          "name": "_user",
          "type": "address"
        }
      ],
      "name": "pendingRewardAll",
      "outputs": [
        {
          "internalType": "uint256",
          "name": "",
          "type": "uint256"
        }
      ],
      "stateMutability": "view",
      "type": "function"
    },
    {
      "inputs": [
        {
          "internalType": "uint256",
          "name": "",
          "type": "uint256"
        }
      ],
      "name": "poolInfo",
      "outputs": [
        {
          "internalType": "contract ERC20",
          "name": "tokenStaked",
          "type": "address"
        },
        {
          "internalType": "contract ERC20",
          "name": "tokenReward",
          "type": "address"
        },
        {
          "internalType": "uint256",
          "name": "lastRewardBlock",
          "type": "uint256"
        },
        {
          "internalType": "uint256",
          "name": "lastTimestamp",
          "type": "uint256"
        },
        {
          "internalType": "uint256",
          "name": "totalTokenStakedPool",
          "type": "uint256"
        },
        {
          "internalType": "uint256",
          "name": "totalProfitAmount",
          "type": "uint256"
        },
        {
          "internalType": "bool",
          "name": "isStopPool",
          "type": "bool"
        }
      ],
      "stateMutability": "view",
      "type": "function"
    },
    {
      "inputs": [],
      "name": "poolLength",
      "outputs": [
        {
          "internalType": "uint256",
          "name": "",
          "type": "uint256"
        }
      ],
      "stateMutability": "view",
      "type": "function"
    },
    {
      "inputs": [],
      "name": "renounceOwnership",
      "outputs": [],
      "stateMutability": "nonpayable",
      "type": "function"
    },
    {
      "inputs": [],
      "name": "runTogetherPoolAddress",
      "outputs": [
        {
          "internalType": "address",
          "name": "",
          "type": "address"
        }
      ],
      "stateMutability": "view",
      "type": "function"
    },
    {
      "inputs": [
        {
          "internalType": "address",
          "name": "_devWallet",
          "type": "address"
        }
      ],
      "name": "setDevWallet",
      "outputs": [],
      "stateMutability": "nonpayable",
      "type": "function"
    },
    {
      "inputs": [
        {
          "internalType": "bool",
          "name": "_status",
          "type": "bool"
        }
      ],
      "name": "setPauseContract",
      "outputs": [],
      "stateMutability": "nonpayable",
      "type": "function"
    },
    {
      "inputs": [
        {
          "internalType": "address",
          "name": "_runTogetherPoolAddress",
          "type": "address"
        }
      ],
      "name": "setRunTogetherPoolAddress",
      "outputs": [],
      "stateMutability": "nonpayable",
      "type": "function"
    },
    {
      "inputs": [
        {
          "internalType": "uint256",
          "name": "_pid",
          "type": "uint256"
        },
        {
          "internalType": "uint256",
          "name": "_totalProfitAmount",
          "type": "uint256"
        }
      ],
      "name": "snapshot",
      "outputs": [],
      "stateMutability": "nonpayable",
      "type": "function"
    },
    {
      "inputs": [
        {
          "internalType": "uint256",
          "name": "",
          "type": "uint256"
        },
        {
          "internalType": "address",
          "name": "",
          "type": "address"
        }
      ],
      "name": "snapshotStakedAmountMap",
      "outputs": [
        {
          "internalType": "uint256",
          "name": "",
          "type": "uint256"
        }
      ],
      "stateMutability": "view",
      "type": "function"
    },
    {
      "inputs": [
        {
          "internalType": "address",
          "name": "newOwner",
          "type": "address"
        }
      ],
      "name": "transferOwnership",
      "outputs": [],
      "stateMutability": "nonpayable",
      "type": "function"
    },
    {
      "inputs": [
        {
          "internalType": "uint256",
          "name": "_pid",
          "type": "uint256"
        },
        {
          "internalType": "address",
          "name": "_user",
          "type": "address"
        }
      ],
      "name": "updatePool",
      "outputs": [],
      "stateMutability": "nonpayable",
      "type": "function"
    },
    {
      "inputs": [
        {
          "internalType": "address",
          "name": "",
          "type": "address"
        }
      ],
      "name": "userDebtMap",
      "outputs": [
        {
          "internalType": "uint256",
          "name": "",
          "type": "uint256"
        }
      ],
      "stateMutability": "view",
      "type": "function"
    },
    {
      "inputs": [
        {
          "internalType": "uint256",
          "name": "_pid",
          "type": "uint256"
        }
      ],
      "name": "withdraw",
      "outputs": [],
      "stateMutability": "nonpayable",
      "type": "function"
    },
    {
      "inputs": [],
      "name": "withdrawAll",
      "outputs": [],
      "stateMutability": "nonpayable",
      "type": "function"
    },
    {
      "inputs": [
        {
          "internalType": "uint256",
          "name": "",
          "type": "uint256"
        },
        {
          "internalType": "address",
          "name": "",
          "type": "address"
        }
      ],
      "name": "withdrawStatusByBlockMap",
      "outputs": [
        {
          "internalType": "bool",
          "name": "",
          "type": "bool"
        }
      ],
      "stateMutability": "view",
      "type": "function"
    }
  ],
  "bytecode": "0x60806040523480156200001157600080fd5b5060405162002edb38038062002edb833981810160405281019062000037919062000227565b620000576200004b6200014460201b60201c565b6200014c60201b60201c565b6001808190555081600360006101000a81548173ffffffffffffffffffffffffffffffffffffffff021916908373ffffffffffffffffffffffffffffffffffffffff16021790555081600260006101000a81548173ffffffffffffffffffffffffffffffffffffffff021916908373ffffffffffffffffffffffffffffffffffffffff16021790555080600460006101000a81548173ffffffffffffffffffffffffffffffffffffffff021916908373ffffffffffffffffffffffffffffffffffffffff1602179055506001600260146101000a81548160ff0219169083151502179055505050620002c1565b600033905090565b60008060009054906101000a900473ffffffffffffffffffffffffffffffffffffffff169050816000806101000a81548173ffffffffffffffffffffffffffffffffffffffff021916908373ffffffffffffffffffffffffffffffffffffffff1602179055508173ffffffffffffffffffffffffffffffffffffffff168173ffffffffffffffffffffffffffffffffffffffff167f8be0079c531659141344cd1fd0a4f28419497f9722a3daafe3b4186f6b6457e060405160405180910390a35050565b6000815190506200022181620002a7565b92915050565b60008060408385031215620002415762000240620002a2565b5b6000620002518582860162000210565b9250506020620002648582860162000210565b9150509250929050565b60006200027b8262000282565b9050919050565b600073ffffffffffffffffffffffffffffffffffffffff82169050919050565b600080fd5b620002b2816200026e565b8114620002be57600080fd5b50565b612c0a80620002d16000396000f3fe608060405234801561001057600080fd5b506004361061014d5760003560e01c8063715018a6116100c357806398969e821161007c57806398969e821461038e578063e601af73146103be578063eb511dd4146103da578063f2fde38b146103f6578063fb8e767b14610412578063ff0938a7146104305761014d565b8063715018a6146102f257806373309b96146102fc578063853828b6146103185780638da5cb5b146103225780638ea5220f146103405780638f9f725a1461035e5761014d565b806337c3071a1161011557806337c3071a1461020e578063415846e81461022a5780635c545ba51461025a5780636d7b7b99146102765780636f67b29b146102a65780636ff1c9bc146102d65761014d565b806303da12a614610152578063081e3eda146101825780631526fe27146101a05780631f53ac02146101d65780632e1a7d4d146101f2575b600080fd5b61016c6004803603810190610167919061210a565b61044e565b60405161017991906125d5565b60405180910390f35b61018a610473565b60405161019791906125d5565b60405180910390f35b6101ba60048036038101906101b591906120b0565b610480565b6040516101cd9796959493929190612404565b60405180910390f35b6101f060048036038101906101eb9190611fe9565b61051f565b005b61020c600480360381019061020791906120b0565b6105df565b005b6102286004803603810190610223919061214a565b61085d565b005b610244600480360381019061023f919061210a565b610aeb565b60405161025191906123e9565b60405180910390f35b610274600480360381019061026f9190611fe9565b610b1a565b005b610290600480360381019061028b9190611fe9565b610c1b565b60405161029d91906125d5565b60405180910390f35b6102c060048036038101906102bb9190611fe9565b610c6d565b6040516102cd91906125d5565b60405180910390f35b6102f060048036038101906102eb9190611fe9565b610c85565b005b6102fa610ddf565b005b6103166004803603810190610311919061210a565b610e67565b005b61032061139a565b005b61032a6115cb565b60405161033791906123a5565b60405180910390f35b6103486115f4565b60405161035591906123a5565b60405180910390f35b61037860048036038101906103739190611fe9565b61161a565b60405161038591906125d5565b60405180910390f35b6103a860048036038101906103a3919061210a565b611632565b6040516103b591906125d5565b60405180910390f35b6103d860048036038101906103d39190612016565b6117a9565b005b6103f460048036038101906103ef9190612070565b611842565b005b610410600480360381019061040b9190611fe9565b611a29565b005b61041a611b21565b60405161042791906123a5565b60405180910390f35b610438611b47565b60405161044591906123e9565b60405180910390f35b6006602052816000526040600020602052806000526040600020600091509150505481565b6000600980549050905090565b6009818154811061049057600080fd5b90600052602060002090600702016000915090508060000160009054906101000a900473ffffffffffffffffffffffffffffffffffffffff16908060010160009054906101000a900473ffffffffffffffffffffffffffffffffffffffff16908060020154908060030154908060040154908060050154908060060160009054906101000a900460ff16905087565b610527611b5a565b73ffffffffffffffffffffffffffffffffffffffff166105456115cb565b73ffffffffffffffffffffffffffffffffffffffff161461059b576040517f08c379a000000000000000000000000000000000000000000000000000000000815260040161059290612555565b60405180910390fd5b80600460006101000a81548173ffffffffffffffffffffffffffffffffffffffff021916908373ffffffffffffffffffffffffffffffffffffffff16021790555050565b60001515600260149054906101000a900460ff16151514610635576040517f08c379a000000000000000000000000000000000000000000000000000000000815260040161062c906125b5565b60405180910390fd5b60006009828154811061064b5761064a612901565b5b90600052602060002090600702019050600115158160060160009054906101000a900460ff161515146106b3576040517f08c379a00000000000000000000000000000000000000000000000000000000081526004016106aa90612535565b60405180910390fd5b600015156008600084815260200190815260200160002060003373ffffffffffffffffffffffffffffffffffffffff1673ffffffffffffffffffffffffffffffffffffffff16815260200190815260200160002060009054906101000a900460ff16151514610757576040517f08c379a000000000000000000000000000000000000000000000000000000000815260040161074e90612515565b60405180910390fd5b60006107638333611632565b90506107b433828460010160009054906101000a900473ffffffffffffffffffffffffffffffffffffffff1673ffffffffffffffffffffffffffffffffffffffff16611b629092919063ffffffff16565b60016008600085815260200190815260200160002060003373ffffffffffffffffffffffffffffffffffffffff1673ffffffffffffffffffffffffffffffffffffffff16815260200190815260200160002060006101000a81548160ff0219169083151502179055507f3cbfdff4cd61d9274405c1142831d01b4415aa931aa022a9fdfe7de52b04f83f83338360405161085093929190612619565b60405180910390a1505050565b60001515600260149054906101000a900460ff161515146108b3576040517f08c379a00000000000000000000000000000000000000000000000000000000081526004016108aa906125b5565b60405180910390fd5b6108bb611b5a565b73ffffffffffffffffffffffffffffffffffffffff166108d96115cb565b73ffffffffffffffffffffffffffffffffffffffff161461092f576040517f08c379a000000000000000000000000000000000000000000000000000000000815260040161092690612555565b60405180910390fd5b60006009838154811061094557610944612901565b5b9060005260206000209060070201905060008160000160009054906101000a900473ffffffffffffffffffffffffffffffffffffffff1673ffffffffffffffffffffffffffffffffffffffff166370a08231600360009054906101000a900473ffffffffffffffffffffffffffffffffffffffff166040518263ffffffff1660e01b81526004016109d691906123a5565b60206040518083038186803b1580156109ee57600080fd5b505afa158015610a02573d6000803e3d6000fd5b505050506040513d601f19601f82011682018060405250810190610a2691906120dd565b905060008111610a6b576040517f08c379a0000000000000000000000000000000000000000000000000000000008152600401610a62906124f5565b60405180910390fd5b80826004018190555060018260060160006101000a81548160ff0219169083151502179055508282600501819055504382600201819055504282600301819055507fc26d6c89d99cb060131d8e304b84ff97f2a7cd6de4ca97376ca78cface30ea4e8433604051610add9291906125f0565b60405180910390a150505050565b60086020528160005260406000206020528060005260406000206000915091509054906101000a900460ff1681565b610b22611b5a565b73ffffffffffffffffffffffffffffffffffffffff16610b406115cb565b73ffffffffffffffffffffffffffffffffffffffff1614610b96576040517f08c379a0000000000000000000000000000000000000000000000000000000008152600401610b8d90612555565b60405180910390fd5b80600360006101000a81548173ffffffffffffffffffffffffffffffffffffffff021916908373ffffffffffffffffffffffffffffffffffffffff16021790555080600260006101000a81548173ffffffffffffffffffffffffffffffffffffffff021916908373ffffffffffffffffffffffffffffffffffffffff16021790555050565b6000806000905060005b600980549050811015610c6357610c4e610c3f8286611632565b83611be890919063ffffffff16565b91508080610c5b9061285a565b915050610c25565b5080915050919050565b60056020528060005260406000206000915090505481565b610c8d611b5a565b73ffffffffffffffffffffffffffffffffffffffff16610cab6115cb565b73ffffffffffffffffffffffffffffffffffffffff1614610d01576040517f08c379a0000000000000000000000000000000000000000000000000000000008152600401610cf890612555565b60405180910390fd5b60008173ffffffffffffffffffffffffffffffffffffffff166370a08231306040518263ffffffff1660e01b8152600401610d3c91906123a5565b60206040518083038186803b158015610d5457600080fd5b505afa158015610d68573d6000803e3d6000fd5b505050506040513d601f19601f82011682018060405250810190610d8c91906120dd565b9050610ddb600460009054906101000a900473ffffffffffffffffffffffffffffffffffffffff16828473ffffffffffffffffffffffffffffffffffffffff16611b629092919063ffffffff16565b5050565b610de7611b5a565b73ffffffffffffffffffffffffffffffffffffffff16610e056115cb565b73ffffffffffffffffffffffffffffffffffffffff1614610e5b576040517f08c379a0000000000000000000000000000000000000000000000000000000008152600401610e5290612555565b60405180910390fd5b610e656000611bfe565b565b600060098381548110610e7d57610e7c612901565b5b90600052602060002090600702019050600015158160060160009054906101000a900460ff16151514610ee5576040517f08c379a0000000000000000000000000000000000000000000000000000000008152600401610edc906124b5565b60405180910390fd5b60008160000160009054906101000a900473ffffffffffffffffffffffffffffffffffffffff1673ffffffffffffffffffffffffffffffffffffffff166370a08231600360009054906101000a900473ffffffffffffffffffffffffffffffffffffffff166040518263ffffffff1660e01b8152600401610f6691906123a5565b60206040518083038186803b158015610f7e57600080fd5b505afa158015610f92573d6000803e3d6000fd5b505050506040513d601f19601f82011682018060405250810190610fb691906120dd565b90506000811415610fda574382600201819055504282600301819055505050611396565b8082600401819055504382600201819055504282600301819055506000600760008573ffffffffffffffffffffffffffffffffffffffff1673ffffffffffffffffffffffffffffffffffffffff16815260200190815260200160002054146111565760006001600760008673ffffffffffffffffffffffffffffffffffffffff1673ffffffffffffffffffffffffffffffffffffffff1681526020019081526020016000205461108a9190612682565b90505b60018561109a9190612682565b81101561115457600560008573ffffffffffffffffffffffffffffffffffffffff1673ffffffffffffffffffffffffffffffffffffffff16815260200190815260200160002054600660006001846110f29190612763565b815260200190815260200160002060008673ffffffffffffffffffffffffffffffffffffffff1673ffffffffffffffffffffffffffffffffffffffff16815260200190815260200160002081905550808061114c9061285a565b91505061108d565b505b600260009054906101000a900473ffffffffffffffffffffffffffffffffffffffff1673ffffffffffffffffffffffffffffffffffffffff16632278ebe5846040518263ffffffff1660e01b81526004016111b191906123a5565b60206040518083038186803b1580156111c957600080fd5b505afa1580156111dd573d6000803e3d6000fd5b505050506040513d601f19601f8201168201806040525081019061120191906120dd565b6006600086815260200190815260200160002060008573ffffffffffffffffffffffffffffffffffffffff1673ffffffffffffffffffffffffffffffffffffffff16815260200190815260200160002081905550600260009054906101000a900473ffffffffffffffffffffffffffffffffffffffff1673ffffffffffffffffffffffffffffffffffffffff16632278ebe5846040518263ffffffff1660e01b81526004016112b091906123a5565b60206040518083038186803b1580156112c857600080fd5b505afa1580156112dc573d6000803e3d6000fd5b505050506040513d601f19601f8201168201806040525081019061130091906120dd565b600560008573ffffffffffffffffffffffffffffffffffffffff1673ffffffffffffffffffffffffffffffffffffffff168152602001908152602001600020819055506001846113509190612682565b600760008573ffffffffffffffffffffffffffffffffffffffff1673ffffffffffffffffffffffffffffffffffffffff1681526020019081526020016000208190555050505b5050565b60001515600260149054906101000a900460ff161515146113f0576040517f08c379a00000000000000000000000000000000000000000000000000000000081526004016113e7906125b5565b60405180910390fd5b60005b6009805490508110156115c85760006009828154811061141657611415612901565b5b90600052602060002090600702019050600115158160060160009054906101000a900460ff1615151480156114ac5750600015156008600084815260200190815260200160002060003373ffffffffffffffffffffffffffffffffffffffff1673ffffffffffffffffffffffffffffffffffffffff16815260200190815260200160002060009054906101000a900460ff161515145b156115b45760006114bd8333611632565b905061150e33828460010160009054906101000a900473ffffffffffffffffffffffffffffffffffffffff1673ffffffffffffffffffffffffffffffffffffffff16611b629092919063ffffffff16565b60016008600085815260200190815260200160002060003373ffffffffffffffffffffffffffffffffffffffff1673ffffffffffffffffffffffffffffffffffffffff16815260200190815260200160002060006101000a81548160ff0219169083151502179055507f3cbfdff4cd61d9274405c1142831d01b4415aa931aa022a9fdfe7de52b04f83f8333836040516115aa93929190612619565b60405180910390a1505b5080806115c09061285a565b9150506113f3565b50565b60008060009054906101000a900473ffffffffffffffffffffffffffffffffffffffff16905090565b600460009054906101000a900473ffffffffffffffffffffffffffffffffffffffff1681565b60076020528060005260406000206000915090505481565b6000806009848154811061164957611648612901565b5b906000526020600020906007020190506000816004015490506000811415611676576000925050506117a3565b60008260050154905060006006600088815260200190815260200160002060008773ffffffffffffffffffffffffffffffffffffffff1673ffffffffffffffffffffffffffffffffffffffff16815260200190815260200160002054905060008114801561172f5750600760008773ffffffffffffffffffffffffffffffffffffffff1673ffffffffffffffffffffffffffffffffffffffff1681526020019081526020016000205460018861172c9190612682565b10155b1561177757600560008773ffffffffffffffffffffffffffffffffffffffff1673ffffffffffffffffffffffffffffffffffffffff1681526020019081526020016000205490505b61179c8361178e8484611cc290919063ffffffff16565b611cd890919063ffffffff16565b9450505050505b92915050565b6117b1611b5a565b73ffffffffffffffffffffffffffffffffffffffff166117cf6115cb565b73ffffffffffffffffffffffffffffffffffffffff1614611825576040517f08c379a000000000000000000000000000000000000000000000000000000000815260040161181c90612555565b60405180910390fd5b80600260146101000a81548160ff02191690831515021790555050565b61184a611b5a565b73ffffffffffffffffffffffffffffffffffffffff166118686115cb565b73ffffffffffffffffffffffffffffffffffffffff16146118be576040517f08c379a00000000000000000000000000000000000000000000000000000000081526004016118b590612555565b60405180910390fd5b60096040518060e001604052808473ffffffffffffffffffffffffffffffffffffffff1681526020018373ffffffffffffffffffffffffffffffffffffffff168152602001438152602001428152602001600081526020016000815260200160001515815250908060018154018082558091505060019003906000526020600020906007020160009091909190915060008201518160000160006101000a81548173ffffffffffffffffffffffffffffffffffffffff021916908373ffffffffffffffffffffffffffffffffffffffff16021790555060208201518160010160006101000a81548173ffffffffffffffffffffffffffffffffffffffff021916908373ffffffffffffffffffffffffffffffffffffffff16021790555060408201518160020155606082015181600301556080820151816004015560a0820151816005015560c08201518160060160006101000a81548160ff02191690831515021790555050505050565b611a31611b5a565b73ffffffffffffffffffffffffffffffffffffffff16611a4f6115cb565b73ffffffffffffffffffffffffffffffffffffffff1614611aa5576040517f08c379a0000000000000000000000000000000000000000000000000000000008152600401611a9c90612555565b60405180910390fd5b600073ffffffffffffffffffffffffffffffffffffffff168173ffffffffffffffffffffffffffffffffffffffff161415611b15576040517f08c379a0000000000000000000000000000000000000000000000000000000008152600401611b0c90612495565b60405180910390fd5b611b1e81611bfe565b50565b600360009054906101000a900473ffffffffffffffffffffffffffffffffffffffff1681565b600260149054906101000a900460ff1681565b600033905090565b611be38363a9059cbb60e01b8484604051602401611b819291906123c0565b604051602081830303815290604052907bffffffffffffffffffffffffffffffffffffffffffffffffffffffff19166020820180517bffffffffffffffffffffffffffffffffffffffffffffffffffffffff8381831617835250505050611cee565b505050565b60008183611bf69190612682565b905092915050565b60008060009054906101000a900473ffffffffffffffffffffffffffffffffffffffff169050816000806101000a81548173ffffffffffffffffffffffffffffffffffffffff021916908373ffffffffffffffffffffffffffffffffffffffff1602179055508173ffffffffffffffffffffffffffffffffffffffff168173ffffffffffffffffffffffffffffffffffffffff167f8be0079c531659141344cd1fd0a4f28419497f9722a3daafe3b4186f6b6457e060405160405180910390a35050565b60008183611cd09190612709565b905092915050565b60008183611ce691906126d8565b905092915050565b6000611d50826040518060400160405280602081526020017f5361666545524332303a206c6f772d6c6576656c2063616c6c206661696c65648152508573ffffffffffffffffffffffffffffffffffffffff16611db59092919063ffffffff16565b9050600081511115611db05780806020019051810190611d709190612043565b611daf576040517f08c379a0000000000000000000000000000000000000000000000000000000008152600401611da690612595565b60405180910390fd5b5b505050565b6060611dc48484600085611dcd565b90509392505050565b606082471015611e12576040517f08c379a0000000000000000000000000000000000000000000000000000000008152600401611e09906124d5565b60405180910390fd5b611e1b85611ee1565b611e5a576040517f08c379a0000000000000000000000000000000000000000000000000000000008152600401611e5190612575565b60405180910390fd5b6000808673ffffffffffffffffffffffffffffffffffffffff168587604051611e83919061238e565b60006040518083038185875af1925050503d8060008114611ec0576040519150601f19603f3d011682016040523d82523d6000602084013e611ec5565b606091505b5091509150611ed5828286611f04565b92505050949350505050565b6000808273ffffffffffffffffffffffffffffffffffffffff163b119050919050565b60608315611f1457829050611f64565b600083511115611f275782518084602001fd5b816040517f08c379a0000000000000000000000000000000000000000000000000000000008152600401611f5b9190612473565b60405180910390fd5b9392505050565b600081359050611f7a81612b78565b92915050565b600081359050611f8f81612b8f565b92915050565b600081519050611fa481612b8f565b92915050565b600081359050611fb981612ba6565b92915050565b600081359050611fce81612bbd565b92915050565b600081519050611fe381612bbd565b92915050565b600060208284031215611fff57611ffe612930565b5b600061200d84828501611f6b565b91505092915050565b60006020828403121561202c5761202b612930565b5b600061203a84828501611f80565b91505092915050565b60006020828403121561205957612058612930565b5b600061206784828501611f95565b91505092915050565b6000806040838503121561208757612086612930565b5b600061209585828601611faa565b92505060206120a685828601611faa565b9150509250929050565b6000602082840312156120c6576120c5612930565b5b60006120d484828501611fbf565b91505092915050565b6000602082840312156120f3576120f2612930565b5b600061210184828501611fd4565b91505092915050565b6000806040838503121561212157612120612930565b5b600061212f85828601611fbf565b925050602061214085828601611f6b565b9150509250929050565b6000806040838503121561216157612160612930565b5b600061216f85828601611fbf565b925050602061218085828601611fbf565b9150509250929050565b61219381612797565b82525050565b6121a2816127a9565b82525050565b60006121b382612650565b6121bd8185612666565b93506121cd818560208601612827565b80840191505092915050565b6121e2816127f1565b82525050565b60006121f38261265b565b6121fd8185612671565b935061220d818560208601612827565b61221681612935565b840191505092915050565b600061222e602683612671565b915061223982612946565b604082019050919050565b6000612251600f83612671565b915061225c82612995565b602082019050919050565b6000612274602683612671565b915061227f826129be565b604082019050919050565b6000612297602b83612671565b91506122a282612a0d565b604082019050919050565b60006122ba600a83612671565b91506122c582612a5c565b602082019050919050565b60006122dd601583612671565b91506122e882612a85565b602082019050919050565b6000612300602083612671565b915061230b82612aae565b602082019050919050565b6000612323601d83612671565b915061232e82612ad7565b602082019050919050565b6000612346602a83612671565b915061235182612b00565b604082019050919050565b6000612369601283612671565b915061237482612b4f565b602082019050919050565b612388816127e7565b82525050565b600061239a82846121a8565b915081905092915050565b60006020820190506123ba600083018461218a565b92915050565b60006040820190506123d5600083018561218a565b6123e2602083018461237f565b9392505050565b60006020820190506123fe6000830184612199565b92915050565b600060e082019050612419600083018a6121d9565b61242660208301896121d9565b612433604083018861237f565b612440606083018761237f565b61244d608083018661237f565b61245a60a083018561237f565b61246760c0830184612199565b98975050505050505050565b6000602082019050818103600083015261248d81846121e8565b905092915050565b600060208201905081810360008301526124ae81612221565b9050919050565b600060208201905081810360008301526124ce81612244565b9050919050565b600060208201905081810360008301526124ee81612267565b9050919050565b6000602082019050818103600083015261250e8161228a565b9050919050565b6000602082019050818103600083015261252e816122ad565b9050919050565b6000602082019050818103600083015261254e816122d0565b9050919050565b6000602082019050818103600083015261256e816122f3565b9050919050565b6000602082019050818103600083015261258e81612316565b9050919050565b600060208201905081810360008301526125ae81612339565b9050919050565b600060208201905081810360008301526125ce8161235c565b9050919050565b60006020820190506125ea600083018461237f565b92915050565b6000604082019050612605600083018561237f565b612612602083018461218a565b9392505050565b600060608201905061262e600083018661237f565b61263b602083018561218a565b612648604083018461237f565b949350505050565b600081519050919050565b600081519050919050565b600081905092915050565b600082825260208201905092915050565b600061268d826127e7565b9150612698836127e7565b9250827fffffffffffffffffffffffffffffffffffffffffffffffffffffffffffffffff038211156126cd576126cc6128a3565b5b828201905092915050565b60006126e3826127e7565b91506126ee836127e7565b9250826126fe576126fd6128d2565b5b828204905092915050565b6000612714826127e7565b915061271f836127e7565b9250817fffffffffffffffffffffffffffffffffffffffffffffffffffffffffffffffff0483118215151615612758576127576128a3565b5b828202905092915050565b600061276e826127e7565b9150612779836127e7565b92508282101561278c5761278b6128a3565b5b828203905092915050565b60006127a2826127c7565b9050919050565b60008115159050919050565b60006127c082612797565b9050919050565b600073ffffffffffffffffffffffffffffffffffffffff82169050919050565b6000819050919050565b60006127fc82612803565b9050919050565b600061280e82612815565b9050919050565b6000612820826127c7565b9050919050565b60005b8381101561284557808201518184015260208101905061282a565b83811115612854576000848401525b50505050565b6000612865826127e7565b91507fffffffffffffffffffffffffffffffffffffffffffffffffffffffffffffffff821415612898576128976128a3565b5b600182019050919050565b7f4e487b7100000000000000000000000000000000000000000000000000000000600052601160045260246000fd5b7f4e487b7100000000000000000000000000000000000000000000000000000000600052601260045260246000fd5b7f4e487b7100000000000000000000000000000000000000000000000000000000600052603260045260246000fd5b600080fd5b6000601f19601f8301169050919050565b7f4f776e61626c653a206e6577206f776e657220697320746865207a65726f206160008201527f6464726573730000000000000000000000000000000000000000000000000000602082015250565b7f506f6f6c2069732073746f707065640000000000000000000000000000000000600082015250565b7f416464726573733a20696e73756666696369656e742062616c616e636520666f60008201527f722063616c6c0000000000000000000000000000000000000000000000000000602082015250565b7f746f74616c546f6b656e5374616b6564506f6f6c206d7573742062652067726560008201527f61746572207468616e2030000000000000000000000000000000000000000000602082015250565b7f5769746864726177656400000000000000000000000000000000000000000000600082015250565b7f506f6f6c20686173206e6f7420736e617073686f740000000000000000000000600082015250565b7f4f776e61626c653a2063616c6c6572206973206e6f7420746865206f776e6572600082015250565b7f416464726573733a2063616c6c20746f206e6f6e2d636f6e7472616374000000600082015250565b7f5361666545524332303a204552433230206f7065726174696f6e20646964206e60008201527f6f74207375636365656400000000000000000000000000000000000000000000602082015250565b7f436f6e7472616374206973207061757365640000000000000000000000000000600082015250565b612b8181612797565b8114612b8c57600080fd5b50565b612b98816127a9565b8114612ba357600080fd5b50565b612baf816127b5565b8114612bba57600080fd5b50565b612bc6816127e7565b8114612bd157600080fd5b5056fea2646970667358221220580ba49a25aa04e2ddae971ccf5ba121c4c1189d70fb41e0cfb8de189b930e3064736f6c63430008070033",
  "linkReferences": {},
  "deployedLinkReferences": {}
}