{
  "_format": "hh-sol-artifact-1",
  "contractName": "BamiRefundIDO",
  "sourceName": "contracts/BamiRefundIDO.sol",
  "abi": [
    {
      "inputs": [
        {
          "internalType": "address",
          "name": "_BamiHesmanPool1",
          "type": "address"
        },
        {
          "internalType": "address",
          "name": "_BamiHesmanPool2",
          "type": "address"
        },
        {
          "internalType": "address",
          "name": "_BamiHesmanPool3",
          "type": "address"
        },
        {
          "internalType": "address",
          "name": "_refundToken",
          "type": "address"
        }
      ],
      "stateMutability": "nonpayable",
      "type": "constructor"
    },
    {
      "anonymous": false,
      "inputs": [
        {
          "indexed": true,
          "internalType": "address",
          "name": "previousOwner",
          "type": "address"
        },
        {
          "indexed": true,
          "internalType": "address",
          "name": "newOwner",
          "type": "address"
        }
      ],
      "name": "OwnershipTransferred",
      "type": "event"
    },
    {
      "anonymous": false,
      "inputs": [
        {
          "indexed": false,
          "internalType": "address",
          "name": "user",
          "type": "address"
        },
        {
          "indexed": false,
          "internalType": "uint256",
          "name": "amount",
          "type": "uint256"
        },
        {
          "indexed": false,
          "internalType": "address",
          "name": "pool",
          "type": "address"
        }
      ],
      "name": "Refund",
      "type": "event"
    },
    {
      "inputs": [],
      "name": "amountRefundPool1",
      "outputs": [
        {
          "internalType": "uint256",
          "name": "",
          "type": "uint256"
        }
      ],
      "stateMutability": "view",
      "type": "function"
    },
    {
      "inputs": [],
      "name": "amountRefundPool2",
      "outputs": [
        {
          "internalType": "uint256",
          "name": "",
          "type": "uint256"
        }
      ],
      "stateMutability": "view",
      "type": "function"
    },
    {
      "inputs": [],
      "name": "amountRefundPool3",
      "outputs": [
        {
          "internalType": "uint256",
          "name": "",
          "type": "uint256"
        }
      ],
      "stateMutability": "view",
      "type": "function"
    },
    {
      "inputs": [],
      "name": "endTimeRefund",
      "outputs": [
        {
          "internalType": "uint256",
          "name": "",
          "type": "uint256"
        }
      ],
      "stateMutability": "view",
      "type": "function"
    },
    {
      "inputs": [],
      "name": "isPause",
      "outputs": [
        {
          "internalType": "bool",
          "name": "",
          "type": "bool"
        }
      ],
      "stateMutability": "view",
      "type": "function"
    },
    {
      "inputs": [],
      "name": "owner",
      "outputs": [
        {
          "internalType": "address",
          "name": "",
          "type": "address"
        }
      ],
      "stateMutability": "view",
      "type": "function"
    },
    {
      "inputs": [],
      "name": "pool1",
      "outputs": [
        {
          "internalType": "address",
          "name": "",
          "type": "address"
        }
      ],
      "stateMutability": "view",
      "type": "function"
    },
    {
      "inputs": [],
      "name": "pool2",
      "outputs": [
        {
          "internalType": "address",
          "name": "",
          "type": "address"
        }
      ],
      "stateMutability": "view",
      "type": "function"
    },
    {
      "inputs": [],
      "name": "pool3",
      "outputs": [
        {
          "internalType": "address",
          "name": "",
          "type": "address"
        }
      ],
      "stateMutability": "view",
      "type": "function"
    },
    {
      "inputs": [],
      "name": "refundPool1",
      "outputs": [],
      "stateMutability": "nonpayable",
      "type": "function"
    },
    {
      "inputs": [],
      "name": "refundPool2",
      "outputs": [],
      "stateMutability": "nonpayable",
      "type": "function"
    },
    {
      "inputs": [],
      "name": "refundPool3",
      "outputs": [],
      "stateMutability": "nonpayable",
      "type": "function"
    },
    {
      "inputs": [],
      "name": "refundToken",
      "outputs": [
        {
          "internalType": "contract ERC20",
          "name": "",
          "type": "address"
        }
      ],
      "stateMutability": "view",
      "type": "function"
    },
    {
      "inputs": [
        {
          "internalType": "address",
          "name": "",
          "type": "address"
        },
        {
          "internalType": "address",
          "name": "",
          "type": "address"
        }
      ],
      "name": "refundedMap",
      "outputs": [
        {
          "internalType": "bool",
          "name": "",
          "type": "bool"
        }
      ],
      "stateMutability": "view",
      "type": "function"
    },
    {
      "inputs": [
        {
          "internalType": "address[]",
          "name": "userList",
          "type": "address[]"
        }
      ],
      "name": "removeWhiteListPool1",
      "outputs": [],
      "stateMutability": "nonpayable",
      "type": "function"
    },
    {
      "inputs": [
        {
          "internalType": "address[]",
          "name": "userList",
          "type": "address[]"
        }
      ],
      "name": "removeWhiteListPool2",
      "outputs": [],
      "stateMutability": "nonpayable",
      "type": "function"
    },
    {
      "inputs": [
        {
          "internalType": "address[]",
          "name": "userList",
          "type": "address[]"
        }
      ],
      "name": "removeWhiteListPool3",
      "outputs": [],
      "stateMutability": "nonpayable",
      "type": "function"
    },
    {
      "inputs": [],
      "name": "renounceOwnership",
      "outputs": [],
      "stateMutability": "nonpayable",
      "type": "function"
    },
    {
      "inputs": [
        {
          "internalType": "uint256",
          "name": "_amountRefundPool1",
          "type": "uint256"
        },
        {
          "internalType": "uint256",
          "name": "_amountRefundPool2",
          "type": "uint256"
        },
        {
          "internalType": "uint256",
          "name": "_amountRefundPool3",
          "type": "uint256"
        }
      ],
      "name": "setAmountRefund",
      "outputs": [],
      "stateMutability": "nonpayable",
      "type": "function"
    },
    {
      "inputs": [
        {
          "internalType": "bool",
          "name": "_status",
          "type": "bool"
        }
      ],
      "name": "setPauseContract",
      "outputs": [],
      "stateMutability": "nonpayable",
      "type": "function"
    },
    {
      "inputs": [
        {
          "internalType": "address",
          "name": "_BamiHesmanPool1",
          "type": "address"
        },
        {
          "internalType": "address",
          "name": "_BamiHesmanPool2",
          "type": "address"
        },
        {
          "internalType": "address",
          "name": "_BamiHesmanPool3",
          "type": "address"
        }
      ],
      "name": "setPool",
      "outputs": [],
      "stateMutability": "nonpayable",
      "type": "function"
    },
    {
      "inputs": [
        {
          "internalType": "address",
          "name": "_refundToken",
          "type": "address"
        }
      ],
      "name": "setRefundToken",
      "outputs": [],
      "stateMutability": "nonpayable",
      "type": "function"
    },
    {
      "inputs": [
        {
          "internalType": "uint256",
          "name": "_startTimeRefund",
          "type": "uint256"
        },
        {
          "internalType": "uint256",
          "name": "_endTimeRefund",
          "type": "uint256"
        }
      ],
      "name": "setTimeRefund",
      "outputs": [],
      "stateMutability": "nonpayable",
      "type": "function"
    },
    {
      "inputs": [
        {
          "internalType": "address[]",
          "name": "userList",
          "type": "address[]"
        }
      ],
      "name": "setWhiteListPool1",
      "outputs": [],
      "stateMutability": "nonpayable",
      "type": "function"
    },
    {
      "inputs": [
        {
          "internalType": "address[]",
          "name": "userList",
          "type": "address[]"
        }
      ],
      "name": "setWhiteListPool2",
      "outputs": [],
      "stateMutability": "nonpayable",
      "type": "function"
    },
    {
      "inputs": [
        {
          "internalType": "address[]",
          "name": "userList",
          "type": "address[]"
        }
      ],
      "name": "setWhiteListPool3",
      "outputs": [],
      "stateMutability": "nonpayable",
      "type": "function"
    },
    {
      "inputs": [],
      "name": "startTimeRefund",
      "outputs": [
        {
          "internalType": "uint256",
          "name": "",
          "type": "uint256"
        }
      ],
      "stateMutability": "view",
      "type": "function"
    },
    {
      "inputs": [
        {
          "internalType": "address",
          "name": "newOwner",
          "type": "address"
        }
      ],
      "name": "transferOwnership",
      "outputs": [],
      "stateMutability": "nonpayable",
      "type": "function"
    },
    {
      "inputs": [
        {
          "internalType": "address",
          "name": "",
          "type": "address"
        },
        {
          "internalType": "address",
          "name": "",
          "type": "address"
        }
      ],
      "name": "whitelistMap",
      "outputs": [
        {
          "internalType": "bool",
          "name": "",
          "type": "bool"
        }
      ],
      "stateMutability": "view",
      "type": "function"
    }
  ],
  "bytecode": "0x6080604052670de0b6b3a7640000600355680410d586a20a4c0000600c556802086ac35105260000600d556802086ac35105260000600e553480156200004457600080fd5b50604051620039d5380380620039d583398181016040528101906200006a9190620003c6565b6200008a6200007e620002e360201b60201c565b620002eb60201b60201c565b6001808190555083600560006101000a81548173ffffffffffffffffffffffffffffffffffffffff021916908373ffffffffffffffffffffffffffffffffffffffff16021790555082600660006101000a81548173ffffffffffffffffffffffffffffffffffffffff021916908373ffffffffffffffffffffffffffffffffffffffff16021790555081600760006101000a81548173ffffffffffffffffffffffffffffffffffffffff021916908373ffffffffffffffffffffffffffffffffffffffff160217905550600560009054906101000a900473ffffffffffffffffffffffffffffffffffffffff16600960006101000a81548173ffffffffffffffffffffffffffffffffffffffff021916908373ffffffffffffffffffffffffffffffffffffffff160217905550600660009054906101000a900473ffffffffffffffffffffffffffffffffffffffff16600a60006101000a81548173ffffffffffffffffffffffffffffffffffffffff021916908373ffffffffffffffffffffffffffffffffffffffff160217905550600760009054906101000a900473ffffffffffffffffffffffffffffffffffffffff16600b60006101000a81548173ffffffffffffffffffffffffffffffffffffffff021916908373ffffffffffffffffffffffffffffffffffffffff16021790555080600860006101000a81548173ffffffffffffffffffffffffffffffffffffffff021916908373ffffffffffffffffffffffffffffffffffffffff1602179055506001600260006101000a81548160ff021916908315150217905550505050506200048b565b600033905090565b60008060009054906101000a900473ffffffffffffffffffffffffffffffffffffffff169050816000806101000a81548173ffffffffffffffffffffffffffffffffffffffff021916908373ffffffffffffffffffffffffffffffffffffffff1602179055508173ffffffffffffffffffffffffffffffffffffffff168173ffffffffffffffffffffffffffffffffffffffff167f8be0079c531659141344cd1fd0a4f28419497f9722a3daafe3b4186f6b6457e060405160405180910390a35050565b600081519050620003c08162000471565b92915050565b60008060008060808587031215620003e357620003e26200046c565b5b6000620003f387828801620003af565b94505060206200040687828801620003af565b93505060406200041987828801620003af565b92505060606200042c87828801620003af565b91505092959194509250565b600062000445826200044c565b9050919050565b600073ffffffffffffffffffffffffffffffffffffffff82169050919050565b600080fd5b6200047c8162000438565b81146200048857600080fd5b50565b61353a806200049b6000396000f3fe608060405234801561001057600080fd5b50600436106101cf5760003560e01c80639a62b39a11610104578063d16696f2116100a2578063e601af7311610071578063e601af7314610482578063ecb172a31461049e578063f2fde38b146104bc578063ff0938a7146104d8576101cf565b8063d16696f2146103fc578063de5a165e1461041a578063e02296af14610436578063e10de67814610466576101cf565b8063aaca4d67116100de578063aaca4d67146103ae578063b63c3906146103b8578063b941d3e0146103c2578063c0826d33146103e0576101cf565b80639a62b39a1461035a5780639bcaae9a14610376578063a319777514610392576101cf565b80635b9c8b5b11610171578063715018a61161014b578063715018a6146102e4578063750fd1d1146102ee5780638da5cb5b1461030c57806397747a2b1461032a576101cf565b80635b9c8b5b1461028e5780635cb732be146102aa5780636af15857146102c8576101cf565b80633daf1dac116101ad5780633daf1dac1461022e57806340cc461d14610238578063520b1a5d1461025457806353ce36a914610270576101cf565b806305ea3ed5146101d4578063182b4903146101f257806339c22ddb14610210575b600080fd5b6101dc6104f6565b6040516101e99190612f35565b60405180910390f35b6101fa61051c565b6040516102079190613146565b60405180910390f35b610218610522565b6040516102259190613146565b60405180910390f35b610236610528565b005b610252600480360381019061024d9190612c11565b610bda565b005b61026e60048036038101906102699190612c11565b610d5a565b005b610278610eda565b6040516102859190612f35565b60405180910390f35b6102a860048036038101906102a39190612ce5565b610f00565b005b6102b2610f8e565b6040516102bf9190612fcb565b60405180910390f35b6102e260048036038101906102dd9190612c11565b610fb4565b005b6102ec611134565b005b6102f66111bc565b6040516103039190613146565b60405180910390f35b6103146111c2565b6040516103219190612f35565b60405180910390f35b610344600480360381019061033f9190612b7e565b6111eb565b6040516103519190612fb0565b60405180910390f35b610374600480360381019061036f9190612bbe565b61121a565b005b610390600480360381019061038b9190612d25565b611487565b005b6103ac60048036038101906103a79190612c11565b61151d565b005b6103b661169d565b005b6103c0611d4f565b005b6103ca612401565b6040516103d79190612f35565b60405180910390f35b6103fa60048036038101906103f59190612c11565b612427565b005b6104046125a7565b6040516104119190613146565b60405180910390f35b610434600480360381019061042f9190612c11565b6125ad565b005b610450600480360381019061044b9190612b7e565b61272d565b60405161045d9190612fb0565b60405180910390f35b610480600480360381019061047b9190612b51565b61275c565b005b61049c60048036038101906104979190612c5e565b61281c565b005b6104a66128b5565b6040516104b39190613146565b60405180910390f35b6104d660048036038101906104d19190612b51565b6128bb565b005b6104e06129b3565b6040516104ed9190612fb0565b60405180910390f35b600560009054906101000a900473ffffffffffffffffffffffffffffffffffffffff1681565b600e5481565b600c5481565b6002600154141561056e576040517f08c379a000000000000000000000000000000000000000000000000000000000815260040161056590613106565b60405180910390fd5b600260018190555060001515600260009054906101000a900460ff161515146105cc576040517f08c379a00000000000000000000000000000000000000000000000000000000081526004016105c3906130e6565b60405180910390fd5b4260105410610610576040517f08c379a000000000000000000000000000000000000000000000000000000000815260040161060790613046565b60405180910390fd5b6011544210610654576040517f08c379a000000000000000000000000000000000000000000000000000000000815260040161064b90613046565b60405180910390fd5b60046000600660009054906101000a900473ffffffffffffffffffffffffffffffffffffffff1673ffffffffffffffffffffffffffffffffffffffff1673ffffffffffffffffffffffffffffffffffffffff16815260200190815260200160002060003373ffffffffffffffffffffffffffffffffffffffff1673ffffffffffffffffffffffffffffffffffffffff16815260200190815260200160002060009054906101000a900460ff1661073f576040517f08c379a000000000000000000000000000000000000000000000000000000000815260040161073690613126565b60405180910390fd5b600a60009054906101000a900473ffffffffffffffffffffffffffffffffffffffff1673ffffffffffffffffffffffffffffffffffffffff166332531c3c336040518263ffffffff1660e01b815260040161079a9190612f35565b60206040518083038186803b1580156107b257600080fd5b505afa1580156107c6573d6000803e3d6000fd5b505050506040513d601f19601f820116820180604052508101906107ea9190612c8b565b610829576040517f08c379a000000000000000000000000000000000000000000000000000000000815260040161082090613026565b60405180910390fd5b60001515600f6000600660009054906101000a900473ffffffffffffffffffffffffffffffffffffffff1673ffffffffffffffffffffffffffffffffffffffff1673ffffffffffffffffffffffffffffffffffffffff16815260200190815260200160002060003373ffffffffffffffffffffffffffffffffffffffff1673ffffffffffffffffffffffffffffffffffffffff16815260200190815260200160002060009054906101000a900460ff1615151461091b576040517f08c379a000000000000000000000000000000000000000000000000000000000815260040161091290613086565b60405180910390fd5b6001600a60009054906101000a900473ffffffffffffffffffffffffffffffffffffffff1673ffffffffffffffffffffffffffffffffffffffff1663782a2737336040518263ffffffff1660e01b81526004016109789190612f35565b60206040518083038186803b15801561099057600080fd5b505afa1580156109a4573d6000803e3d6000fd5b505050506040513d601f19601f820116820180604052508101906109c89190612cb8565b1015610a09576040517f08c379a0000000000000000000000000000000000000000000000000000000008152600401610a00906130a6565b60405180910390fd5b6001600f6000600660009054906101000a900473ffffffffffffffffffffffffffffffffffffffff1673ffffffffffffffffffffffffffffffffffffffff1673ffffffffffffffffffffffffffffffffffffffff16815260200190815260200160002060003373ffffffffffffffffffffffffffffffffffffffff1673ffffffffffffffffffffffffffffffffffffffff16815260200190815260200160002060006101000a81548160ff021916908315150217905550600860009054906101000a900473ffffffffffffffffffffffffffffffffffffffff1673ffffffffffffffffffffffffffffffffffffffff1663a9059cbb33600d546040518363ffffffff1660e01b8152600401610b1f929190612f50565b602060405180830381600087803b158015610b3957600080fd5b505af1158015610b4d573d6000803e3d6000fd5b505050506040513d601f19601f82011682018060405250810190610b719190612c8b565b507f149635d19f798f6b7c74c74a500d362c89316a0ab808abe5e0c0de45da9b1d2c33600d54600660009054906101000a900473ffffffffffffffffffffffffffffffffffffffff16604051610bc993929190612f79565b60405180910390a160018081905550565b610be26129c6565b73ffffffffffffffffffffffffffffffffffffffff16610c006111c2565b73ffffffffffffffffffffffffffffffffffffffff1614610c56576040517f08c379a0000000000000000000000000000000000000000000000000000000008152600401610c4d90613066565b60405180910390fd5b60005b82829050811015610d5557600160046000600560009054906101000a900473ffffffffffffffffffffffffffffffffffffffff1673ffffffffffffffffffffffffffffffffffffffff1673ffffffffffffffffffffffffffffffffffffffff1681526020019081526020016000206000858585818110610cdc57610cdb613268565b5b9050602002016020810190610cf19190612b51565b73ffffffffffffffffffffffffffffffffffffffff1673ffffffffffffffffffffffffffffffffffffffff16815260200190815260200160002060006101000a81548160ff0219169083151502179055508080610d4d906131f0565b915050610c59565b505050565b610d626129c6565b73ffffffffffffffffffffffffffffffffffffffff16610d806111c2565b73ffffffffffffffffffffffffffffffffffffffff1614610dd6576040517f08c379a0000000000000000000000000000000000000000000000000000000008152600401610dcd90613066565b60405180910390fd5b60005b82829050811015610ed557600060046000600560009054906101000a900473ffffffffffffffffffffffffffffffffffffffff1673ffffffffffffffffffffffffffffffffffffffff1673ffffffffffffffffffffffffffffffffffffffff1681526020019081526020016000206000858585818110610e5c57610e5b613268565b5b9050602002016020810190610e719190612b51565b73ffffffffffffffffffffffffffffffffffffffff1673ffffffffffffffffffffffffffffffffffffffff16815260200190815260200160002060006101000a81548160ff0219169083151502179055508080610ecd906131f0565b915050610dd9565b505050565b600760009054906101000a900473ffffffffffffffffffffffffffffffffffffffff1681565b610f086129c6565b73ffffffffffffffffffffffffffffffffffffffff16610f266111c2565b73ffffffffffffffffffffffffffffffffffffffff1614610f7c576040517f08c379a0000000000000000000000000000000000000000000000000000000008152600401610f7390613066565b60405180910390fd5b81601081905550806011819055505050565b600860009054906101000a900473ffffffffffffffffffffffffffffffffffffffff1681565b610fbc6129c6565b73ffffffffffffffffffffffffffffffffffffffff16610fda6111c2565b73ffffffffffffffffffffffffffffffffffffffff1614611030576040517f08c379a000000000000000000000000000000000000000000000000000000000815260040161102790613066565b60405180910390fd5b60005b8282905081101561112f57600160046000600760009054906101000a900473ffffffffffffffffffffffffffffffffffffffff1673ffffffffffffffffffffffffffffffffffffffff1673ffffffffffffffffffffffffffffffffffffffff16815260200190815260200160002060008585858181106110b6576110b5613268565b5b90506020020160208101906110cb9190612b51565b73ffffffffffffffffffffffffffffffffffffffff1673ffffffffffffffffffffffffffffffffffffffff16815260200190815260200160002060006101000a81548160ff0219169083151502179055508080611127906131f0565b915050611033565b505050565b61113c6129c6565b73ffffffffffffffffffffffffffffffffffffffff1661115a6111c2565b73ffffffffffffffffffffffffffffffffffffffff16146111b0576040517f08c379a00000000000000000000000000000000000000000000000000000000081526004016111a790613066565b60405180910390fd5b6111ba60006129ce565b565b60105481565b60008060009054906101000a900473ffffffffffffffffffffffffffffffffffffffff16905090565b600f6020528160005260406000206020528060005260406000206000915091509054906101000a900460ff1681565b6112226129c6565b73ffffffffffffffffffffffffffffffffffffffff166112406111c2565b73ffffffffffffffffffffffffffffffffffffffff1614611296576040517f08c379a000000000000000000000000000000000000000000000000000000000815260040161128d90613066565b60405180910390fd5b82600560006101000a81548173ffffffffffffffffffffffffffffffffffffffff021916908373ffffffffffffffffffffffffffffffffffffffff16021790555081600660006101000a81548173ffffffffffffffffffffffffffffffffffffffff021916908373ffffffffffffffffffffffffffffffffffffffff16021790555080600760006101000a81548173ffffffffffffffffffffffffffffffffffffffff021916908373ffffffffffffffffffffffffffffffffffffffff160217905550600560009054906101000a900473ffffffffffffffffffffffffffffffffffffffff16600960006101000a81548173ffffffffffffffffffffffffffffffffffffffff021916908373ffffffffffffffffffffffffffffffffffffffff160217905550600660009054906101000a900473ffffffffffffffffffffffffffffffffffffffff16600a60006101000a81548173ffffffffffffffffffffffffffffffffffffffff021916908373ffffffffffffffffffffffffffffffffffffffff160217905550600760009054906101000a900473ffffffffffffffffffffffffffffffffffffffff16600b60006101000a81548173ffffffffffffffffffffffffffffffffffffffff021916908373ffffffffffffffffffffffffffffffffffffffff160217905550505050565b61148f6129c6565b73ffffffffffffffffffffffffffffffffffffffff166114ad6111c2565b73ffffffffffffffffffffffffffffffffffffffff1614611503576040517f08c379a00000000000000000000000000000000000000000000000000000000081526004016114fa90613066565b60405180910390fd5b82600c8190555081600d8190555080600e81905550505050565b6115256129c6565b73ffffffffffffffffffffffffffffffffffffffff166115436111c2565b73ffffffffffffffffffffffffffffffffffffffff1614611599576040517f08c379a000000000000000000000000000000000000000000000000000000000815260040161159090613066565b60405180910390fd5b60005b8282905081101561169857600160046000600660009054906101000a900473ffffffffffffffffffffffffffffffffffffffff1673ffffffffffffffffffffffffffffffffffffffff1673ffffffffffffffffffffffffffffffffffffffff168152602001908152602001600020600085858581811061161f5761161e613268565b5b90506020020160208101906116349190612b51565b73ffffffffffffffffffffffffffffffffffffffff1673ffffffffffffffffffffffffffffffffffffffff16815260200190815260200160002060006101000a81548160ff0219169083151502179055508080611690906131f0565b91505061159c565b505050565b600260015414156116e3576040517f08c379a00000000000000000000000000000000000000000000000000000000081526004016116da90613106565b60405180910390fd5b600260018190555060001515600260009054906101000a900460ff16151514611741576040517f08c379a0000000000000000000000000000000000000000000000000000000008152600401611738906130e6565b60405180910390fd5b4260105410611785576040517f08c379a000000000000000000000000000000000000000000000000000000000815260040161177c90613046565b60405180910390fd5b60115442106117c9576040517f08c379a00000000000000000000000000000000000000000000000000000000081526004016117c090613046565b60405180910390fd5b60046000600560009054906101000a900473ffffffffffffffffffffffffffffffffffffffff1673ffffffffffffffffffffffffffffffffffffffff1673ffffffffffffffffffffffffffffffffffffffff16815260200190815260200160002060003373ffffffffffffffffffffffffffffffffffffffff1673ffffffffffffffffffffffffffffffffffffffff16815260200190815260200160002060009054906101000a900460ff166118b4576040517f08c379a00000000000000000000000000000000000000000000000000000000081526004016118ab90613126565b60405180910390fd5b600960009054906101000a900473ffffffffffffffffffffffffffffffffffffffff1673ffffffffffffffffffffffffffffffffffffffff166332531c3c336040518263ffffffff1660e01b815260040161190f9190612f35565b60206040518083038186803b15801561192757600080fd5b505afa15801561193b573d6000803e3d6000fd5b505050506040513d601f19601f8201168201806040525081019061195f9190612c8b565b61199e576040517f08c379a0000000000000000000000000000000000000000000000000000000008152600401611995906130c6565b60405180910390fd5b60001515600f6000600560009054906101000a900473ffffffffffffffffffffffffffffffffffffffff1673ffffffffffffffffffffffffffffffffffffffff1673ffffffffffffffffffffffffffffffffffffffff16815260200190815260200160002060003373ffffffffffffffffffffffffffffffffffffffff1673ffffffffffffffffffffffffffffffffffffffff16815260200190815260200160002060009054906101000a900460ff16151514611a90576040517f08c379a0000000000000000000000000000000000000000000000000000000008152600401611a8790613086565b60405180910390fd5b6001600960009054906101000a900473ffffffffffffffffffffffffffffffffffffffff1673ffffffffffffffffffffffffffffffffffffffff1663782a2737336040518263ffffffff1660e01b8152600401611aed9190612f35565b60206040518083038186803b158015611b0557600080fd5b505afa158015611b19573d6000803e3d6000fd5b505050506040513d601f19601f82011682018060405250810190611b3d9190612cb8565b1015611b7e576040517f08c379a0000000000000000000000000000000000000000000000000000000008152600401611b75906130a6565b60405180910390fd5b6001600f6000600560009054906101000a900473ffffffffffffffffffffffffffffffffffffffff1673ffffffffffffffffffffffffffffffffffffffff1673ffffffffffffffffffffffffffffffffffffffff16815260200190815260200160002060003373ffffffffffffffffffffffffffffffffffffffff1673ffffffffffffffffffffffffffffffffffffffff16815260200190815260200160002060006101000a81548160ff021916908315150217905550600860009054906101000a900473ffffffffffffffffffffffffffffffffffffffff1673ffffffffffffffffffffffffffffffffffffffff1663a9059cbb33600c546040518363ffffffff1660e01b8152600401611c94929190612f50565b602060405180830381600087803b158015611cae57600080fd5b505af1158015611cc2573d6000803e3d6000fd5b505050506040513d601f19601f82011682018060405250810190611ce69190612c8b565b507f149635d19f798f6b7c74c74a500d362c89316a0ab808abe5e0c0de45da9b1d2c33600c54600560009054906101000a900473ffffffffffffffffffffffffffffffffffffffff16604051611d3e93929190612f79565b60405180910390a160018081905550565b60026001541415611d95576040517f08c379a0000000000000000000000000000000000000000000000000000000008152600401611d8c90613106565b60405180910390fd5b600260018190555060001515600260009054906101000a900460ff16151514611df3576040517f08c379a0000000000000000000000000000000000000000000000000000000008152600401611dea906130e6565b60405180910390fd5b4260105410611e37576040517f08c379a0000000000000000000000000000000000000000000000000000000008152600401611e2e90613046565b60405180910390fd5b6011544210611e7b576040517f08c379a0000000000000000000000000000000000000000000000000000000008152600401611e7290613046565b60405180910390fd5b60046000600760009054906101000a900473ffffffffffffffffffffffffffffffffffffffff1673ffffffffffffffffffffffffffffffffffffffff1673ffffffffffffffffffffffffffffffffffffffff16815260200190815260200160002060003373ffffffffffffffffffffffffffffffffffffffff1673ffffffffffffffffffffffffffffffffffffffff16815260200190815260200160002060009054906101000a900460ff16611f66576040517f08c379a0000000000000000000000000000000000000000000000000000000008152600401611f5d90613126565b60405180910390fd5b600b60009054906101000a900473ffffffffffffffffffffffffffffffffffffffff1673ffffffffffffffffffffffffffffffffffffffff166332531c3c336040518263ffffffff1660e01b8152600401611fc19190612f35565b60206040518083038186803b158015611fd957600080fd5b505afa158015611fed573d6000803e3d6000fd5b505050506040513d601f19601f820116820180604052508101906120119190612c8b565b612050576040517f08c379a000000000000000000000000000000000000000000000000000000000815260040161204790613006565b60405180910390fd5b60001515600f6000600760009054906101000a900473ffffffffffffffffffffffffffffffffffffffff1673ffffffffffffffffffffffffffffffffffffffff1673ffffffffffffffffffffffffffffffffffffffff16815260200190815260200160002060003373ffffffffffffffffffffffffffffffffffffffff1673ffffffffffffffffffffffffffffffffffffffff16815260200190815260200160002060009054906101000a900460ff16151514612142576040517f08c379a000000000000000000000000000000000000000000000000000000000815260040161213990613086565b60405180910390fd5b6001600b60009054906101000a900473ffffffffffffffffffffffffffffffffffffffff1673ffffffffffffffffffffffffffffffffffffffff1663782a2737336040518263ffffffff1660e01b815260040161219f9190612f35565b60206040518083038186803b1580156121b757600080fd5b505afa1580156121cb573d6000803e3d6000fd5b505050506040513d601f19601f820116820180604052508101906121ef9190612cb8565b1015612230576040517f08c379a0000000000000000000000000000000000000000000000000000000008152600401612227906130a6565b60405180910390fd5b6001600f6000600760009054906101000a900473ffffffffffffffffffffffffffffffffffffffff1673ffffffffffffffffffffffffffffffffffffffff1673ffffffffffffffffffffffffffffffffffffffff16815260200190815260200160002060003373ffffffffffffffffffffffffffffffffffffffff1673ffffffffffffffffffffffffffffffffffffffff16815260200190815260200160002060006101000a81548160ff021916908315150217905550600860009054906101000a900473ffffffffffffffffffffffffffffffffffffffff1673ffffffffffffffffffffffffffffffffffffffff1663a9059cbb33600e546040518363ffffffff1660e01b8152600401612346929190612f50565b602060405180830381600087803b15801561236057600080fd5b505af1158015612374573d6000803e3d6000fd5b505050506040513d601f19601f820116820180604052508101906123989190612c8b565b507f149635d19f798f6b7c74c74a500d362c89316a0ab808abe5e0c0de45da9b1d2c33600e54600760009054906101000a900473ffffffffffffffffffffffffffffffffffffffff166040516123f093929190612f79565b60405180910390a160018081905550565b600660009054906101000a900473ffffffffffffffffffffffffffffffffffffffff1681565b61242f6129c6565b73ffffffffffffffffffffffffffffffffffffffff1661244d6111c2565b73ffffffffffffffffffffffffffffffffffffffff16146124a3576040517f08c379a000000000000000000000000000000000000000000000000000000000815260040161249a90613066565b60405180910390fd5b60005b828290508110156125a257600060046000600760009054906101000a900473ffffffffffffffffffffffffffffffffffffffff1673ffffffffffffffffffffffffffffffffffffffff1673ffffffffffffffffffffffffffffffffffffffff168152602001908152602001600020600085858581811061252957612528613268565b5b905060200201602081019061253e9190612b51565b73ffffffffffffffffffffffffffffffffffffffff1673ffffffffffffffffffffffffffffffffffffffff16815260200190815260200160002060006101000a81548160ff021916908315150217905550808061259a906131f0565b9150506124a6565b505050565b600d5481565b6125b56129c6565b73ffffffffffffffffffffffffffffffffffffffff166125d36111c2565b73ffffffffffffffffffffffffffffffffffffffff1614612629576040517f08c379a000000000000000000000000000000000000000000000000000000000815260040161262090613066565b60405180910390fd5b60005b8282905081101561272857600060046000600660009054906101000a900473ffffffffffffffffffffffffffffffffffffffff1673ffffffffffffffffffffffffffffffffffffffff1673ffffffffffffffffffffffffffffffffffffffff16815260200190815260200160002060008585858181106126af576126ae613268565b5b90506020020160208101906126c49190612b51565b73ffffffffffffffffffffffffffffffffffffffff1673ffffffffffffffffffffffffffffffffffffffff16815260200190815260200160002060006101000a81548160ff0219169083151502179055508080612720906131f0565b91505061262c565b505050565b60046020528160005260406000206020528060005260406000206000915091509054906101000a900460ff1681565b6127646129c6565b73ffffffffffffffffffffffffffffffffffffffff166127826111c2565b73ffffffffffffffffffffffffffffffffffffffff16146127d8576040517f08c379a00000000000000000000000000000000000000000000000000000000081526004016127cf90613066565b60405180910390fd5b80600860006101000a81548173ffffffffffffffffffffffffffffffffffffffff021916908373ffffffffffffffffffffffffffffffffffffffff16021790555050565b6128246129c6565b73ffffffffffffffffffffffffffffffffffffffff166128426111c2565b73ffffffffffffffffffffffffffffffffffffffff1614612898576040517f08c379a000000000000000000000000000000000000000000000000000000000815260040161288f90613066565b60405180910390fd5b80600260006101000a81548160ff02191690831515021790555050565b60115481565b6128c36129c6565b73ffffffffffffffffffffffffffffffffffffffff166128e16111c2565b73ffffffffffffffffffffffffffffffffffffffff1614612937576040517f08c379a000000000000000000000000000000000000000000000000000000000815260040161292e90613066565b60405180910390fd5b600073ffffffffffffffffffffffffffffffffffffffff168173ffffffffffffffffffffffffffffffffffffffff1614156129a7576040517f08c379a000000000000000000000000000000000000000000000000000000000815260040161299e90612fe6565b60405180910390fd5b6129b0816129ce565b50565b600260009054906101000a900460ff1681565b600033905090565b60008060009054906101000a900473ffffffffffffffffffffffffffffffffffffffff169050816000806101000a81548173ffffffffffffffffffffffffffffffffffffffff021916908373ffffffffffffffffffffffffffffffffffffffff1602179055508173ffffffffffffffffffffffffffffffffffffffff168173ffffffffffffffffffffffffffffffffffffffff167f8be0079c531659141344cd1fd0a4f28419497f9722a3daafe3b4186f6b6457e060405160405180910390a35050565b600081359050612aa1816134bf565b92915050565b60008083601f840112612abd57612abc61329c565b5b8235905067ffffffffffffffff811115612ada57612ad9613297565b5b602083019150836020820283011115612af657612af56132a1565b5b9250929050565b600081359050612b0c816134d6565b92915050565b600081519050612b21816134d6565b92915050565b600081359050612b36816134ed565b92915050565b600081519050612b4b816134ed565b92915050565b600060208284031215612b6757612b666132ab565b5b6000612b7584828501612a92565b91505092915050565b60008060408385031215612b9557612b946132ab565b5b6000612ba385828601612a92565b9250506020612bb485828601612a92565b9150509250929050565b600080600060608486031215612bd757612bd66132ab565b5b6000612be586828701612a92565b9350506020612bf686828701612a92565b9250506040612c0786828701612a92565b9150509250925092565b60008060208385031215612c2857612c276132ab565b5b600083013567ffffffffffffffff811115612c4657612c456132a6565b5b612c5285828601612aa7565b92509250509250929050565b600060208284031215612c7457612c736132ab565b5b6000612c8284828501612afd565b91505092915050565b600060208284031215612ca157612ca06132ab565b5b6000612caf84828501612b12565b91505092915050565b600060208284031215612cce57612ccd6132ab565b5b6000612cdc84828501612b3c565b91505092915050565b60008060408385031215612cfc57612cfb6132ab565b5b6000612d0a85828601612b27565b9250506020612d1b85828601612b27565b9150509250929050565b600080600060608486031215612d3e57612d3d6132ab565b5b6000612d4c86828701612b27565b9350506020612d5d86828701612b27565b9250506040612d6e86828701612b27565b9150509250925092565b612d8181613172565b82525050565b612d9081613184565b82525050565b612d9f816131ba565b82525050565b6000612db2602683613161565b9150612dbd826132b0565b604082019050919050565b6000612dd5601483613161565b9150612de0826132ff565b602082019050919050565b6000612df8601483613161565b9150612e0382613328565b602082019050919050565b6000612e1b601383613161565b9150612e2682613351565b602082019050919050565b6000612e3e602083613161565b9150612e498261337a565b602082019050919050565b6000612e61601083613161565b9150612e6c826133a3565b602082019050919050565b6000612e84602383613161565b9150612e8f826133cc565b604082019050919050565b6000612ea7601483613161565b9150612eb28261341b565b602082019050919050565b6000612eca601283613161565b9150612ed582613444565b602082019050919050565b6000612eed601f83613161565b9150612ef88261346d565b602082019050919050565b6000612f10600d83613161565b9150612f1b82613496565b602082019050919050565b612f2f816131b0565b82525050565b6000602082019050612f4a6000830184612d78565b92915050565b6000604082019050612f656000830185612d78565b612f726020830184612f26565b9392505050565b6000606082019050612f8e6000830186612d78565b612f9b6020830185612f26565b612fa86040830184612d78565b949350505050565b6000602082019050612fc56000830184612d87565b92915050565b6000602082019050612fe06000830184612d96565b92915050565b60006020820190508181036000830152612fff81612da5565b9050919050565b6000602082019050818103600083015261301f81612dc8565b9050919050565b6000602082019050818103600083015261303f81612deb565b9050919050565b6000602082019050818103600083015261305f81612e0e565b9050919050565b6000602082019050818103600083015261307f81612e31565b9050919050565b6000602082019050818103600083015261309f81612e54565b9050919050565b600060208201905081810360008301526130bf81612e77565b9050919050565b600060208201905081810360008301526130df81612e9a565b9050919050565b600060208201905081810360008301526130ff81612ebd565b9050919050565b6000602082019050818103600083015261311f81612ee0565b9050919050565b6000602082019050818103600083015261313f81612f03565b9050919050565b600060208201905061315b6000830184612f26565b92915050565b600082825260208201905092915050565b600061317d82613190565b9050919050565b60008115159050919050565b600073ffffffffffffffffffffffffffffffffffffffff82169050919050565b6000819050919050565b60006131c5826131cc565b9050919050565b60006131d7826131de565b9050919050565b60006131e982613190565b9050919050565b60006131fb826131b0565b91507fffffffffffffffffffffffffffffffffffffffffffffffffffffffffffffffff82141561322e5761322d613239565b5b600182019050919050565b7f4e487b7100000000000000000000000000000000000000000000000000000000600052601160045260246000fd5b7f4e487b7100000000000000000000000000000000000000000000000000000000600052603260045260246000fd5b600080fd5b600080fd5b600080fd5b600080fd5b600080fd5b7f4f776e61626c653a206e6577206f776e657220697320746865207a65726f206160008201527f6464726573730000000000000000000000000000000000000000000000000000602082015250565b7f4e6f742077686974656c69737420706f6f6c2033000000000000000000000000600082015250565b7f4e6f742077686974656c69737420706f6f6c2032000000000000000000000000600082015250565b7f54696d6520726566756e6420696e76616c696400000000000000000000000000600082015250565b7f4f776e61626c653a2063616c6c6572206973206e6f7420746865206f776e6572600082015250565b7f416c726561647920726566756e64656400000000000000000000000000000000600082015250565b7f596f752068617665206e6f7420636c61696d656420746865206669727374207460008201527f696d650000000000000000000000000000000000000000000000000000000000602082015250565b7f4e6f742077686974656c69737420706f6f6c2031000000000000000000000000600082015250565b7f436f6e7472616374206973207061757365640000000000000000000000000000600082015250565b7f5265656e7472616e637947756172643a207265656e7472616e742063616c6c00600082015250565b7f4e6f742077686974656c69737400000000000000000000000000000000000000600082015250565b6134c881613172565b81146134d357600080fd5b50565b6134df81613184565b81146134ea57600080fd5b50565b6134f6816131b0565b811461350157600080fd5b5056fea26469706673582212205b6b39f615e862170437536bdcb58624b009a5659bb81ce821d0841ead18e79964736f6c63430008070033",
  "linkReferences": {},
  "deployedLinkReferences": {}
}