{
  "_format": "hh-sol-artifact-1",
  "contractName": "CreateNFTGold",
  "sourceName": "contracts/contractNFT3.sol",
  "abi": [
    {
      "inputs": [],
      "stateMutability": "nonpayable",
      "type": "constructor"
    },
    {
      "anonymous": false,
      "inputs": [
        {
          "indexed": true,
          "internalType": "address",
          "name": "owner",
          "type": "address"
        },
        {
          "indexed": true,
          "internalType": "address",
          "name": "approved",
          "type": "address"
        },
        {
          "indexed": true,
          "internalType": "uint256",
          "name": "tokenId",
          "type": "uint256"
        }
      ],
      "name": "Approval",
      "type": "event"
    },
    {
      "anonymous": false,
      "inputs": [
        {
          "indexed": true,
          "internalType": "address",
          "name": "owner",
          "type": "address"
        },
        {
          "indexed": true,
          "internalType": "address",
          "name": "operator",
          "type": "address"
        },
        {
          "indexed": false,
          "internalType": "bool",
          "name": "approved",
          "type": "bool"
        }
      ],
      "name": "ApprovalForAll",
      "type": "event"
    },
    {
      "anonymous": false,
      "inputs": [
        {
          "indexed": true,
          "internalType": "address",
          "name": "previousOwner",
          "type": "address"
        },
        {
          "indexed": true,
          "internalType": "address",
          "name": "newOwner",
          "type": "address"
        }
      ],
      "name": "OwnershipTransferred",
      "type": "event"
    },
    {
      "anonymous": false,
      "inputs": [
        {
          "indexed": false,
          "internalType": "address",
          "name": "account",
          "type": "address"
        }
      ],
      "name": "Paused",
      "type": "event"
    },
    {
      "anonymous": false,
      "inputs": [
        {
          "indexed": true,
          "internalType": "address",
          "name": "from",
          "type": "address"
        },
        {
          "indexed": true,
          "internalType": "address",
          "name": "to",
          "type": "address"
        },
        {
          "indexed": true,
          "internalType": "uint256",
          "name": "tokenId",
          "type": "uint256"
        }
      ],
      "name": "Transfer",
      "type": "event"
    },
    {
      "anonymous": false,
      "inputs": [
        {
          "indexed": false,
          "internalType": "address",
          "name": "account",
          "type": "address"
        }
      ],
      "name": "Unpaused",
      "type": "event"
    },
    {
      "inputs": [
        {
          "internalType": "address",
          "name": "to",
          "type": "address"
        },
        {
          "internalType": "uint256",
          "name": "tokenId",
          "type": "uint256"
        }
      ],
      "name": "approve",
      "outputs": [],
      "stateMutability": "nonpayable",
      "type": "function"
    },
    {
      "inputs": [
        {
          "internalType": "address",
          "name": "owner",
          "type": "address"
        }
      ],
      "name": "balanceOf",
      "outputs": [
        {
          "internalType": "uint256",
          "name": "",
          "type": "uint256"
        }
      ],
      "stateMutability": "view",
      "type": "function"
    },
    {
      "inputs": [
        {
          "internalType": "uint256",
          "name": "tokenId",
          "type": "uint256"
        }
      ],
      "name": "burn",
      "outputs": [],
      "stateMutability": "nonpayable",
      "type": "function"
    },
    {
      "inputs": [
        {
          "internalType": "uint256",
          "name": "tokenId",
          "type": "uint256"
        }
      ],
      "name": "getApproved",
      "outputs": [
        {
          "internalType": "address",
          "name": "",
          "type": "address"
        }
      ],
      "stateMutability": "view",
      "type": "function"
    },
    {
      "inputs": [
        {
          "internalType": "address",
          "name": "owner",
          "type": "address"
        },
        {
          "internalType": "address",
          "name": "operator",
          "type": "address"
        }
      ],
      "name": "isApprovedForAll",
      "outputs": [
        {
          "internalType": "bool",
          "name": "",
          "type": "bool"
        }
      ],
      "stateMutability": "view",
      "type": "function"
    },
    {
      "inputs": [],
      "name": "name",
      "outputs": [
        {
          "internalType": "string",
          "name": "",
          "type": "string"
        }
      ],
      "stateMutability": "view",
      "type": "function"
    },
    {
      "inputs": [],
      "name": "owner",
      "outputs": [
        {
          "internalType": "address",
          "name": "",
          "type": "address"
        }
      ],
      "stateMutability": "view",
      "type": "function"
    },
    {
      "inputs": [
        {
          "internalType": "uint256",
          "name": "tokenId",
          "type": "uint256"
        }
      ],
      "name": "ownerOf",
      "outputs": [
        {
          "internalType": "address",
          "name": "",
          "type": "address"
        }
      ],
      "stateMutability": "view",
      "type": "function"
    },
    {
      "inputs": [],
      "name": "pause",
      "outputs": [],
      "stateMutability": "nonpayable",
      "type": "function"
    },
    {
      "inputs": [],
      "name": "paused",
      "outputs": [
        {
          "internalType": "bool",
          "name": "",
          "type": "bool"
        }
      ],
      "stateMutability": "view",
      "type": "function"
    },
    {
      "inputs": [],
      "name": "renounceOwnership",
      "outputs": [],
      "stateMutability": "nonpayable",
      "type": "function"
    },
    {
      "inputs": [
        {
          "internalType": "address",
          "name": "to",
          "type": "address"
        }
      ],
      "name": "safeMint",
      "outputs": [],
      "stateMutability": "nonpayable",
      "type": "function"
    },
    {
      "inputs": [
        {
          "internalType": "address",
          "name": "to",
          "type": "address"
        },
        {
          "internalType": "uint256",
          "name": "amount",
          "type": "uint256"
        }
      ],
      "name": "safeMintWithAmount",
      "outputs": [],
      "stateMutability": "nonpayable",
      "type": "function"
    },
    {
      "inputs": [
        {
          "internalType": "address",
          "name": "from",
          "type": "address"
        },
        {
          "internalType": "address",
          "name": "to",
          "type": "address"
        },
        {
          "internalType": "uint256",
          "name": "tokenId",
          "type": "uint256"
        }
      ],
      "name": "safeTransferFrom",
      "outputs": [],
      "stateMutability": "nonpayable",
      "type": "function"
    },
    {
      "inputs": [
        {
          "internalType": "address",
          "name": "from",
          "type": "address"
        },
        {
          "internalType": "address",
          "name": "to",
          "type": "address"
        },
        {
          "internalType": "uint256",
          "name": "tokenId",
          "type": "uint256"
        },
        {
          "internalType": "bytes",
          "name": "_data",
          "type": "bytes"
        }
      ],
      "name": "safeTransferFrom",
      "outputs": [],
      "stateMutability": "nonpayable",
      "type": "function"
    },
    {
      "inputs": [
        {
          "internalType": "address",
          "name": "operator",
          "type": "address"
        },
        {
          "internalType": "bool",
          "name": "approved",
          "type": "bool"
        }
      ],
      "name": "setApprovalForAll",
      "outputs": [],
      "stateMutability": "nonpayable",
      "type": "function"
    },
    {
      "inputs": [
        {
          "internalType": "bytes4",
          "name": "interfaceId",
          "type": "bytes4"
        }
      ],
      "name": "supportsInterface",
      "outputs": [
        {
          "internalType": "bool",
          "name": "",
          "type": "bool"
        }
      ],
      "stateMutability": "view",
      "type": "function"
    },
    {
      "inputs": [],
      "name": "symbol",
      "outputs": [
        {
          "internalType": "string",
          "name": "",
          "type": "string"
        }
      ],
      "stateMutability": "view",
      "type": "function"
    },
    {
      "inputs": [
        {
          "internalType": "uint256",
          "name": "tokenId",
          "type": "uint256"
        }
      ],
      "name": "tokenURI",
      "outputs": [
        {
          "internalType": "string",
          "name": "",
          "type": "string"
        }
      ],
      "stateMutability": "view",
      "type": "function"
    },
    {
      "inputs": [
        {
          "internalType": "address",
          "name": "to",
          "type": "address"
        },
        {
          "internalType": "uint256",
          "name": "totalTranfer",
          "type": "uint256"
        }
      ],
      "name": "tranferMulti",
      "outputs": [],
      "stateMutability": "nonpayable",
      "type": "function"
    },
    {
      "inputs": [
        {
          "internalType": "address",
          "name": "from",
          "type": "address"
        },
        {
          "internalType": "address",
          "name": "to",
          "type": "address"
        },
        {
          "internalType": "uint256",
          "name": "tokenId",
          "type": "uint256"
        }
      ],
      "name": "transferFrom",
      "outputs": [],
      "stateMutability": "nonpayable",
      "type": "function"
    },
    {
      "inputs": [
        {
          "internalType": "address",
          "name": "newOwner",
          "type": "address"
        }
      ],
      "name": "transferOwnership",
      "outputs": [],
      "stateMutability": "nonpayable",
      "type": "function"
    },
    {
      "inputs": [],
      "name": "unpause",
      "outputs": [],
      "stateMutability": "nonpayable",
      "type": "function"
    }
  ],
  "bytecode": "0x60806040523480156200001157600080fd5b506040518060400160405280600c81526020017f466f6f744561726e476f6c6400000000000000000000000000000000000000008152506040518060400160405280600381526020017f4645470000000000000000000000000000000000000000000000000000000000815250816000908051906020019062000096929190620001c1565b508060019080519060200190620000af929190620001c1565b5050506000600660006101000a81548160ff021916908315150217905550620000ed620000e1620000f360201b60201c565b620000fb60201b60201c565b620002d6565b600033905090565b6000600660019054906101000a900473ffffffffffffffffffffffffffffffffffffffff16905081600660016101000a81548173ffffffffffffffffffffffffffffffffffffffff021916908373ffffffffffffffffffffffffffffffffffffffff1602179055508173ffffffffffffffffffffffffffffffffffffffff168173ffffffffffffffffffffffffffffffffffffffff167f8be0079c531659141344cd1fd0a4f28419497f9722a3daafe3b4186f6b6457e060405160405180910390a35050565b828054620001cf9062000271565b90600052602060002090601f016020900481019282620001f357600085556200023f565b82601f106200020e57805160ff19168380011785556200023f565b828001600101855582156200023f579182015b828111156200023e57825182559160200191906001019062000221565b5b5090506200024e919062000252565b5090565b5b808211156200026d57600081600090555060010162000253565b5090565b600060028204905060018216806200028a57607f821691505b60208210811415620002a157620002a0620002a7565b5b50919050565b7f4e487b7100000000000000000000000000000000000000000000000000000000600052602260045260246000fd5b6134e280620002e66000396000f3fe608060405234801561001057600080fd5b506004361061014d5760003560e01c80636352211e116100c357806395d89b411161007c57806395d89b411461034e578063a22cb4651461036c578063b88d4fde14610388578063c87b56dd146103a4578063e985e9c5146103d4578063f2fde38b146104045761014d565b80636352211e146102a057806370a08231146102d0578063715018a61461030057806378c9b1631461030a5780638456cb59146103265780638da5cb5b146103305761014d565b806338b15b431161011557806338b15b43146102085780633f4ba83a1461022457806340d097c31461022e57806342842e0e1461024a57806342966c68146102665780635c975abb146102825761014d565b806301ffc9a71461015257806306fdde0314610182578063081812fc146101a0578063095ea7b3146101d057806323b872dd146101ec575b600080fd5b61016c6004803603810190610167919061237f565b610420565b6040516101799190612896565b60405180910390f35b61018a610502565b60405161019791906128b1565b60405180910390f35b6101ba60048036038101906101b591906123d9565b610594565b6040516101c791906127cf565b60405180910390f35b6101ea60048036038101906101e5919061233f565b610619565b005b61020660048036038101906102019190612229565b610731565b005b610222600480360381019061021d919061233f565b610791565b005b61022c610839565b005b610248600480360381019061024391906121bc565b6108bf565b005b610264600480360381019061025f9190612229565b610961565b005b610280600480360381019061027b91906123d9565b610981565b005b61028a6109dd565b6040516102979190612896565b60405180910390f35b6102ba60048036038101906102b591906123d9565b6109f4565b6040516102c791906127cf565b60405180910390f35b6102ea60048036038101906102e591906121bc565b610aa6565b6040516102f79190612b33565b60405180910390f35b610308610b5e565b005b610324600480360381019061031f919061233f565b610be6565b005b61032e610d09565b005b610338610d8f565b60405161034591906127cf565b60405180910390f35b610356610db9565b60405161036391906128b1565b60405180910390f35b610386600480360381019061038191906122ff565b610e4b565b005b6103a2600480360381019061039d919061227c565b610e61565b005b6103be60048036038101906103b991906123d9565b610ec3565b6040516103cb91906128b1565b60405180910390f35b6103ee60048036038101906103e991906121e9565b610f6a565b6040516103fb9190612896565b60405180910390f35b61041e600480360381019061041991906121bc565b610ffe565b005b60007f80ac58cd000000000000000000000000000000000000000000000000000000007bffffffffffffffffffffffffffffffffffffffffffffffffffffffff1916827bffffffffffffffffffffffffffffffffffffffffffffffffffffffff191614806104eb57507f5b5e139f000000000000000000000000000000000000000000000000000000007bffffffffffffffffffffffffffffffffffffffffffffffffffffffff1916827bffffffffffffffffffffffffffffffffffffffffffffffffffffffff1916145b806104fb57506104fa826110f6565b5b9050919050565b60606000805461051190612d6a565b80601f016020809104026020016040519081016040528092919081815260200182805461053d90612d6a565b801561058a5780601f1061055f5761010080835404028352916020019161058a565b820191906000526020600020905b81548152906001019060200180831161056d57829003601f168201915b5050505050905090565b600061059f82611160565b6105de576040517f08c379a00000000000000000000000000000000000000000000000000000000081526004016105d590612a73565b60405180910390fd5b6004600083815260200190815260200160002060009054906101000a900473ffffffffffffffffffffffffffffffffffffffff169050919050565b6000610624826109f4565b90508073ffffffffffffffffffffffffffffffffffffffff168373ffffffffffffffffffffffffffffffffffffffff161415610695576040517f08c379a000000000000000000000000000000000000000000000000000000000815260040161068c90612ad3565b60405180910390fd5b8073ffffffffffffffffffffffffffffffffffffffff166106b46111cc565b73ffffffffffffffffffffffffffffffffffffffff1614806106e357506106e2816106dd6111cc565b610f6a565b5b610722576040517f08c379a0000000000000000000000000000000000000000000000000000000008152600401610719906129f3565b60405180910390fd5b61072c83836111d4565b505050565b61074261073c6111cc565b8261128d565b610781576040517f08c379a000000000000000000000000000000000000000000000000000000000815260040161077890612af3565b60405180910390fd5b61078c83838361136b565b505050565b6107996111cc565b73ffffffffffffffffffffffffffffffffffffffff166107b7610d8f565b73ffffffffffffffffffffffffffffffffffffffff161461080d576040517f08c379a000000000000000000000000000000000000000000000000000000000815260040161080490612a93565b60405180910390fd5b60005b8181101561083457610821836108bf565b808061082c90612dcd565b915050610810565b505050565b6108416111cc565b73ffffffffffffffffffffffffffffffffffffffff1661085f610d8f565b73ffffffffffffffffffffffffffffffffffffffff16146108b5576040517f08c379a00000000000000000000000000000000000000000000000000000000081526004016108ac90612a93565b60405180910390fd5b6108bd6115d2565b565b6108c76111cc565b73ffffffffffffffffffffffffffffffffffffffff166108e5610d8f565b73ffffffffffffffffffffffffffffffffffffffff161461093b576040517f08c379a000000000000000000000000000000000000000000000000000000000815260040161093290612a93565b60405180910390fd5b60006109476007611674565b90506109536007611682565b61095d8282611698565b5050565b61097c83838360405180602001604052806000815250610e61565b505050565b61099261098c6111cc565b8261128d565b6109d1576040517f08c379a00000000000000000000000000000000000000000000000000000000081526004016109c890612b13565b60405180910390fd5b6109da816116b6565b50565b6000600660009054906101000a900460ff16905090565b6000806002600084815260200190815260200160002060009054906101000a900473ffffffffffffffffffffffffffffffffffffffff169050600073ffffffffffffffffffffffffffffffffffffffff168173ffffffffffffffffffffffffffffffffffffffff161415610a9d576040517f08c379a0000000000000000000000000000000000000000000000000000000008152600401610a9490612a33565b60405180910390fd5b80915050919050565b60008073ffffffffffffffffffffffffffffffffffffffff168273ffffffffffffffffffffffffffffffffffffffff161415610b17576040517f08c379a0000000000000000000000000000000000000000000000000000000008152600401610b0e90612a13565b60405180910390fd5b600360008373ffffffffffffffffffffffffffffffffffffffff1673ffffffffffffffffffffffffffffffffffffffff168152602001908152602001600020549050919050565b610b666111cc565b73ffffffffffffffffffffffffffffffffffffffff16610b84610d8f565b73ffffffffffffffffffffffffffffffffffffffff1614610bda576040517f08c379a0000000000000000000000000000000000000000000000000000000008152600401610bd190612a93565b60405180910390fd5b610be460006117d3565b565b60005b81811015610d045760003073ffffffffffffffffffffffffffffffffffffffff16632f745c593360006040518363ffffffff1660e01b8152600401610c2f92919061286d565b60206040518083038186803b158015610c4757600080fd5b505afa158015610c5b573d6000803e3d6000fd5b505050506040513d601f19601f82011682018060405250810190610c7f9190612406565b90503073ffffffffffffffffffffffffffffffffffffffff166323b872dd3386846040518463ffffffff1660e01b8152600401610cbe939291906127ea565b600060405180830381600087803b158015610cd857600080fd5b505af1158015610cec573d6000803e3d6000fd5b50505050508080610cfc90612dcd565b915050610be9565b505050565b610d116111cc565b73ffffffffffffffffffffffffffffffffffffffff16610d2f610d8f565b73ffffffffffffffffffffffffffffffffffffffff1614610d85576040517f08c379a0000000000000000000000000000000000000000000000000000000008152600401610d7c90612a93565b60405180910390fd5b610d8d611899565b565b6000600660019054906101000a900473ffffffffffffffffffffffffffffffffffffffff16905090565b606060018054610dc890612d6a565b80601f0160208091040260200160405190810160405280929190818152602001828054610df490612d6a565b8015610e415780601f10610e1657610100808354040283529160200191610e41565b820191906000526020600020905b815481529060010190602001808311610e2457829003601f168201915b5050505050905090565b610e5d610e566111cc565b838361193c565b5050565b610e72610e6c6111cc565b8361128d565b610eb1576040517f08c379a0000000000000000000000000000000000000000000000000000000008152600401610ea890612af3565b60405180910390fd5b610ebd84848484611aa9565b50505050565b6060610ece82611160565b610f0d576040517f08c379a0000000000000000000000000000000000000000000000000000000008152600401610f0490612ab3565b60405180910390fd5b6000610f17611b05565b90506000815111610f375760405180602001604052806000815250610f62565b80610f4184611b1c565b604051602001610f529291906127ab565b6040516020818303038152906040525b915050919050565b6000600560008473ffffffffffffffffffffffffffffffffffffffff1673ffffffffffffffffffffffffffffffffffffffff16815260200190815260200160002060008373ffffffffffffffffffffffffffffffffffffffff1673ffffffffffffffffffffffffffffffffffffffff16815260200190815260200160002060009054906101000a900460ff16905092915050565b6110066111cc565b73ffffffffffffffffffffffffffffffffffffffff16611024610d8f565b73ffffffffffffffffffffffffffffffffffffffff161461107a576040517f08c379a000000000000000000000000000000000000000000000000000000000815260040161107190612a93565b60405180910390fd5b600073ffffffffffffffffffffffffffffffffffffffff168173ffffffffffffffffffffffffffffffffffffffff1614156110ea576040517f08c379a00000000000000000000000000000000000000000000000000000000081526004016110e190612913565b60405180910390fd5b6110f3816117d3565b50565b60007f01ffc9a7000000000000000000000000000000000000000000000000000000007bffffffffffffffffffffffffffffffffffffffffffffffffffffffff1916827bffffffffffffffffffffffffffffffffffffffffffffffffffffffff1916149050919050565b60008073ffffffffffffffffffffffffffffffffffffffff166002600084815260200190815260200160002060009054906101000a900473ffffffffffffffffffffffffffffffffffffffff1673ffffffffffffffffffffffffffffffffffffffff1614159050919050565b600033905090565b816004600083815260200190815260200160002060006101000a81548173ffffffffffffffffffffffffffffffffffffffff021916908373ffffffffffffffffffffffffffffffffffffffff160217905550808273ffffffffffffffffffffffffffffffffffffffff16611247836109f4565b73ffffffffffffffffffffffffffffffffffffffff167f8c5be1e5ebec7d5bd14f71427d1e84f3dd0314c0f7b2291e5b200ac8c7c3b92560405160405180910390a45050565b600061129882611160565b6112d7576040517f08c379a00000000000000000000000000000000000000000000000000000000081526004016112ce906129b3565b60405180910390fd5b60006112e2836109f4565b90508073ffffffffffffffffffffffffffffffffffffffff168473ffffffffffffffffffffffffffffffffffffffff16148061132457506113238185610f6a565b5b8061136257508373ffffffffffffffffffffffffffffffffffffffff1661134a84610594565b73ffffffffffffffffffffffffffffffffffffffff16145b91505092915050565b8273ffffffffffffffffffffffffffffffffffffffff1661138b826109f4565b73ffffffffffffffffffffffffffffffffffffffff16146113e1576040517f08c379a00000000000000000000000000000000000000000000000000000000081526004016113d890612933565b60405180910390fd5b600073ffffffffffffffffffffffffffffffffffffffff168273ffffffffffffffffffffffffffffffffffffffff161415611451576040517f08c379a000000000000000000000000000000000000000000000000000000000815260040161144890612973565b60405180910390fd5b61145c838383611c7d565b6114676000826111d4565b6001600360008573ffffffffffffffffffffffffffffffffffffffff1673ffffffffffffffffffffffffffffffffffffffff16815260200190815260200160002060008282546114b79190612c6e565b925050819055506001600360008473ffffffffffffffffffffffffffffffffffffffff1673ffffffffffffffffffffffffffffffffffffffff168152602001908152602001600020600082825461150e9190612be7565b92505081905550816002600083815260200190815260200160002060006101000a81548173ffffffffffffffffffffffffffffffffffffffff021916908373ffffffffffffffffffffffffffffffffffffffff160217905550808273ffffffffffffffffffffffffffffffffffffffff168473ffffffffffffffffffffffffffffffffffffffff167fddf252ad1be2c89b69c2b068fc378daa952ba7f163c4a11628f55a4df523b3ef60405160405180910390a46115cd838383611cd5565b505050565b6115da6109dd565b611619576040517f08c379a0000000000000000000000000000000000000000000000000000000008152600401611610906128d3565b60405180910390fd5b6000600660006101000a81548160ff0219169083151502179055507f5db9ee0a495bf2e6ff9c91a7834c1ba4fdd244a5e8aa4e537bd38aeae4b073aa61165d6111cc565b60405161166a91906127cf565b60405180910390a1565b600081600001549050919050565b6001816000016000828254019250508190555050565b6116b2828260405180602001604052806000815250611cda565b5050565b60006116c1826109f4565b90506116cf81600084611c7d565b6116da6000836111d4565b6001600360008373ffffffffffffffffffffffffffffffffffffffff1673ffffffffffffffffffffffffffffffffffffffff168152602001908152602001600020600082825461172a9190612c6e565b925050819055506002600083815260200190815260200160002060006101000a81549073ffffffffffffffffffffffffffffffffffffffff021916905581600073ffffffffffffffffffffffffffffffffffffffff168273ffffffffffffffffffffffffffffffffffffffff167fddf252ad1be2c89b69c2b068fc378daa952ba7f163c4a11628f55a4df523b3ef60405160405180910390a46117cf81600084611cd5565b5050565b6000600660019054906101000a900473ffffffffffffffffffffffffffffffffffffffff16905081600660016101000a81548173ffffffffffffffffffffffffffffffffffffffff021916908373ffffffffffffffffffffffffffffffffffffffff1602179055508173ffffffffffffffffffffffffffffffffffffffff168173ffffffffffffffffffffffffffffffffffffffff167f8be0079c531659141344cd1fd0a4f28419497f9722a3daafe3b4186f6b6457e060405160405180910390a35050565b6118a16109dd565b156118e1576040517f08c379a00000000000000000000000000000000000000000000000000000000081526004016118d8906129d3565b60405180910390fd5b6001600660006101000a81548160ff0219169083151502179055507f62e78cea01bee320cd4e420270b5ea74000d11b0c9f74754ebdbfc544b05a2586119256111cc565b60405161193291906127cf565b60405180910390a1565b8173ffffffffffffffffffffffffffffffffffffffff168373ffffffffffffffffffffffffffffffffffffffff1614156119ab576040517f08c379a00000000000000000000000000000000000000000000000000000000081526004016119a290612993565b60405180910390fd5b80600560008573ffffffffffffffffffffffffffffffffffffffff1673ffffffffffffffffffffffffffffffffffffffff16815260200190815260200160002060008473ffffffffffffffffffffffffffffffffffffffff1673ffffffffffffffffffffffffffffffffffffffff16815260200190815260200160002060006101000a81548160ff0219169083151502179055508173ffffffffffffffffffffffffffffffffffffffff168373ffffffffffffffffffffffffffffffffffffffff167f17307eab39ab6107e8899845ad3d59bd9653f200f220920489ca2b5937696c3183604051611a9c9190612896565b60405180910390a3505050565b611ab484848461136b565b611ac084848484611d35565b611aff576040517f08c379a0000000000000000000000000000000000000000000000000000000008152600401611af6906128f3565b60405180910390fd5b50505050565b606060405180602001604052806000815250905090565b60606000821415611b64576040518060400160405280600181526020017f30000000000000000000000000000000000000000000000000000000000000008152509050611c78565b600082905060005b60008214611b96578080611b7f90612dcd565b915050600a82611b8f9190612c3d565b9150611b6c565b60008167ffffffffffffffff811115611bb257611bb1612f03565b5b6040519080825280601f01601f191660200182016040528015611be45781602001600182028036833780820191505090505b5090505b60008514611c7157600182611bfd9190612c6e565b9150600a85611c0c9190612e16565b6030611c189190612be7565b60f81b818381518110611c2e57611c2d612ed4565b5b60200101907effffffffffffffffffffffffffffffffffffffffffffffffffffffffffffff1916908160001a905350600a85611c6a9190612c3d565b9450611be8565b8093505050505b919050565b611c856109dd565b15611cc5576040517f08c379a0000000000000000000000000000000000000000000000000000000008152600401611cbc906129d3565b60405180910390fd5b611cd0838383611ecc565b505050565b505050565b611ce48383611ed1565b611cf16000848484611d35565b611d30576040517f08c379a0000000000000000000000000000000000000000000000000000000008152600401611d27906128f3565b60405180910390fd5b505050565b6000611d568473ffffffffffffffffffffffffffffffffffffffff166120ab565b15611ebf578373ffffffffffffffffffffffffffffffffffffffff1663150b7a02611d7f6111cc565b8786866040518563ffffffff1660e01b8152600401611da19493929190612821565b602060405180830381600087803b158015611dbb57600080fd5b505af1925050508015611dec57506040513d601f19601f82011682018060405250810190611de991906123ac565b60015b611e6f573d8060008114611e1c576040519150601f19603f3d011682016040523d82523d6000602084013e611e21565b606091505b50600081511415611e67576040517f08c379a0000000000000000000000000000000000000000000000000000000008152600401611e5e906128f3565b60405180910390fd5b805181602001fd5b63150b7a0260e01b7bffffffffffffffffffffffffffffffffffffffffffffffffffffffff1916817bffffffffffffffffffffffffffffffffffffffffffffffffffffffff191614915050611ec4565b600190505b949350505050565b505050565b600073ffffffffffffffffffffffffffffffffffffffff168273ffffffffffffffffffffffffffffffffffffffff161415611f41576040517f08c379a0000000000000000000000000000000000000000000000000000000008152600401611f3890612a53565b60405180910390fd5b611f4a81611160565b15611f8a576040517f08c379a0000000000000000000000000000000000000000000000000000000008152600401611f8190612953565b60405180910390fd5b611f9660008383611c7d565b6001600360008473ffffffffffffffffffffffffffffffffffffffff1673ffffffffffffffffffffffffffffffffffffffff1681526020019081526020016000206000828254611fe69190612be7565b92505081905550816002600083815260200190815260200160002060006101000a81548173ffffffffffffffffffffffffffffffffffffffff021916908373ffffffffffffffffffffffffffffffffffffffff160217905550808273ffffffffffffffffffffffffffffffffffffffff16600073ffffffffffffffffffffffffffffffffffffffff167fddf252ad1be2c89b69c2b068fc378daa952ba7f163c4a11628f55a4df523b3ef60405160405180910390a46120a760008383611cd5565b5050565b6000808273ffffffffffffffffffffffffffffffffffffffff163b119050919050565b60006120e16120dc84612b73565b612b4e565b9050828152602081018484840111156120fd576120fc612f37565b5b612108848285612d28565b509392505050565b60008135905061211f81613450565b92915050565b60008135905061213481613467565b92915050565b6000813590506121498161347e565b92915050565b60008151905061215e8161347e565b92915050565b600082601f83011261217957612178612f32565b5b81356121898482602086016120ce565b91505092915050565b6000813590506121a181613495565b92915050565b6000815190506121b681613495565b92915050565b6000602082840312156121d2576121d1612f41565b5b60006121e084828501612110565b91505092915050565b60008060408385031215612200576121ff612f41565b5b600061220e85828601612110565b925050602061221f85828601612110565b9150509250929050565b60008060006060848603121561224257612241612f41565b5b600061225086828701612110565b935050602061226186828701612110565b925050604061227286828701612192565b9150509250925092565b6000806000806080858703121561229657612295612f41565b5b60006122a487828801612110565b94505060206122b587828801612110565b93505060406122c687828801612192565b925050606085013567ffffffffffffffff8111156122e7576122e6612f3c565b5b6122f387828801612164565b91505092959194509250565b6000806040838503121561231657612315612f41565b5b600061232485828601612110565b925050602061233585828601612125565b9150509250929050565b6000806040838503121561235657612355612f41565b5b600061236485828601612110565b925050602061237585828601612192565b9150509250929050565b60006020828403121561239557612394612f41565b5b60006123a38482850161213a565b91505092915050565b6000602082840312156123c2576123c1612f41565b5b60006123d08482850161214f565b91505092915050565b6000602082840312156123ef576123ee612f41565b5b60006123fd84828501612192565b91505092915050565b60006020828403121561241c5761241b612f41565b5b600061242a848285016121a7565b91505092915050565b61243c81612ca2565b82525050565b61244b81612cb4565b82525050565b600061245c82612ba4565b6124668185612bba565b9350612476818560208601612d37565b61247f81612f46565b840191505092915050565b61249381612d16565b82525050565b60006124a482612baf565b6124ae8185612bcb565b93506124be818560208601612d37565b6124c781612f46565b840191505092915050565b60006124dd82612baf565b6124e78185612bdc565b93506124f7818560208601612d37565b80840191505092915050565b6000612510601483612bcb565b915061251b82612f57565b602082019050919050565b6000612533603283612bcb565b915061253e82612f80565b604082019050919050565b6000612556602683612bcb565b915061256182612fcf565b604082019050919050565b6000612579602583612bcb565b91506125848261301e565b604082019050919050565b600061259c601c83612bcb565b91506125a78261306d565b602082019050919050565b60006125bf602483612bcb565b91506125ca82613096565b604082019050919050565b60006125e2601983612bcb565b91506125ed826130e5565b602082019050919050565b6000612605602c83612bcb565b91506126108261310e565b604082019050919050565b6000612628601083612bcb565b91506126338261315d565b602082019050919050565b600061264b603883612bcb565b915061265682613186565b604082019050919050565b600061266e602a83612bcb565b9150612679826131d5565b604082019050919050565b6000612691602983612bcb565b915061269c82613224565b604082019050919050565b60006126b4602083612bcb565b91506126bf82613273565b602082019050919050565b60006126d7602c83612bcb565b91506126e28261329c565b604082019050919050565b60006126fa602083612bcb565b9150612705826132eb565b602082019050919050565b600061271d602f83612bcb565b915061272882613314565b604082019050919050565b6000612740602183612bcb565b915061274b82613363565b604082019050919050565b6000612763603183612bcb565b915061276e826133b2565b604082019050919050565b6000612786603083612bcb565b915061279182613401565b604082019050919050565b6127a581612d0c565b82525050565b60006127b782856124d2565b91506127c382846124d2565b91508190509392505050565b60006020820190506127e46000830184612433565b92915050565b60006060820190506127ff6000830186612433565b61280c6020830185612433565b612819604083018461279c565b949350505050565b60006080820190506128366000830187612433565b6128436020830186612433565b612850604083018561279c565b81810360608301526128628184612451565b905095945050505050565b60006040820190506128826000830185612433565b61288f602083018461248a565b9392505050565b60006020820190506128ab6000830184612442565b92915050565b600060208201905081810360008301526128cb8184612499565b905092915050565b600060208201905081810360008301526128ec81612503565b9050919050565b6000602082019050818103600083015261290c81612526565b9050919050565b6000602082019050818103600083015261292c81612549565b9050919050565b6000602082019050818103600083015261294c8161256c565b9050919050565b6000602082019050818103600083015261296c8161258f565b9050919050565b6000602082019050818103600083015261298c816125b2565b9050919050565b600060208201905081810360008301526129ac816125d5565b9050919050565b600060208201905081810360008301526129cc816125f8565b9050919050565b600060208201905081810360008301526129ec8161261b565b9050919050565b60006020820190508181036000830152612a0c8161263e565b9050919050565b60006020820190508181036000830152612a2c81612661565b9050919050565b60006020820190508181036000830152612a4c81612684565b9050919050565b60006020820190508181036000830152612a6c816126a7565b9050919050565b60006020820190508181036000830152612a8c816126ca565b9050919050565b60006020820190508181036000830152612aac816126ed565b9050919050565b60006020820190508181036000830152612acc81612710565b9050919050565b60006020820190508181036000830152612aec81612733565b9050919050565b60006020820190508181036000830152612b0c81612756565b9050919050565b60006020820190508181036000830152612b2c81612779565b9050919050565b6000602082019050612b48600083018461279c565b92915050565b6000612b58612b69565b9050612b648282612d9c565b919050565b6000604051905090565b600067ffffffffffffffff821115612b8e57612b8d612f03565b5b612b9782612f46565b9050602081019050919050565b600081519050919050565b600081519050919050565b600082825260208201905092915050565b600082825260208201905092915050565b600081905092915050565b6000612bf282612d0c565b9150612bfd83612d0c565b9250827fffffffffffffffffffffffffffffffffffffffffffffffffffffffffffffffff03821115612c3257612c31612e47565b5b828201905092915050565b6000612c4882612d0c565b9150612c5383612d0c565b925082612c6357612c62612e76565b5b828204905092915050565b6000612c7982612d0c565b9150612c8483612d0c565b925082821015612c9757612c96612e47565b5b828203905092915050565b6000612cad82612cec565b9050919050565b60008115159050919050565b60007fffffffff0000000000000000000000000000000000000000000000000000000082169050919050565b600073ffffffffffffffffffffffffffffffffffffffff82169050919050565b6000819050919050565b6000612d2182612d0c565b9050919050565b82818337600083830152505050565b60005b83811015612d55578082015181840152602081019050612d3a565b83811115612d64576000848401525b50505050565b60006002820490506001821680612d8257607f821691505b60208210811415612d9657612d95612ea5565b5b50919050565b612da582612f46565b810181811067ffffffffffffffff82111715612dc457612dc3612f03565b5b80604052505050565b6000612dd882612d0c565b91507fffffffffffffffffffffffffffffffffffffffffffffffffffffffffffffffff821415612e0b57612e0a612e47565b5b600182019050919050565b6000612e2182612d0c565b9150612e2c83612d0c565b925082612e3c57612e3b612e76565b5b828206905092915050565b7f4e487b7100000000000000000000000000000000000000000000000000000000600052601160045260246000fd5b7f4e487b7100000000000000000000000000000000000000000000000000000000600052601260045260246000fd5b7f4e487b7100000000000000000000000000000000000000000000000000000000600052602260045260246000fd5b7f4e487b7100000000000000000000000000000000000000000000000000000000600052603260045260246000fd5b7f4e487b7100000000000000000000000000000000000000000000000000000000600052604160045260246000fd5b600080fd5b600080fd5b600080fd5b600080fd5b6000601f19601f8301169050919050565b7f5061757361626c653a206e6f7420706175736564000000000000000000000000600082015250565b7f4552433732313a207472616e7366657220746f206e6f6e20455243373231526560008201527f63656976657220696d706c656d656e7465720000000000000000000000000000602082015250565b7f4f776e61626c653a206e6577206f776e657220697320746865207a65726f206160008201527f6464726573730000000000000000000000000000000000000000000000000000602082015250565b7f4552433732313a207472616e736665722066726f6d20696e636f72726563742060008201527f6f776e6572000000000000000000000000000000000000000000000000000000602082015250565b7f4552433732313a20746f6b656e20616c7265616479206d696e74656400000000600082015250565b7f4552433732313a207472616e7366657220746f20746865207a65726f2061646460008201527f7265737300000000000000000000000000000000000000000000000000000000602082015250565b7f4552433732313a20617070726f766520746f2063616c6c657200000000000000600082015250565b7f4552433732313a206f70657261746f7220717565727920666f72206e6f6e657860008201527f697374656e7420746f6b656e0000000000000000000000000000000000000000602082015250565b7f5061757361626c653a2070617573656400000000000000000000000000000000600082015250565b7f4552433732313a20617070726f76652063616c6c6572206973206e6f74206f7760008201527f6e6572206e6f7220617070726f76656420666f7220616c6c0000000000000000602082015250565b7f4552433732313a2062616c616e636520717565727920666f7220746865207a6560008201527f726f206164647265737300000000000000000000000000000000000000000000602082015250565b7f4552433732313a206f776e657220717565727920666f72206e6f6e657869737460008201527f656e7420746f6b656e0000000000000000000000000000000000000000000000602082015250565b7f4552433732313a206d696e7420746f20746865207a65726f2061646472657373600082015250565b7f4552433732313a20617070726f76656420717565727920666f72206e6f6e657860008201527f697374656e7420746f6b656e0000000000000000000000000000000000000000602082015250565b7f4f776e61626c653a2063616c6c6572206973206e6f7420746865206f776e6572600082015250565b7f4552433732314d657461646174613a2055524920717565727920666f72206e6f60008201527f6e6578697374656e7420746f6b656e0000000000000000000000000000000000602082015250565b7f4552433732313a20617070726f76616c20746f2063757272656e74206f776e6560008201527f7200000000000000000000000000000000000000000000000000000000000000602082015250565b7f4552433732313a207472616e736665722063616c6c6572206973206e6f74206f60008201527f776e6572206e6f7220617070726f766564000000000000000000000000000000602082015250565b7f4552433732314275726e61626c653a2063616c6c6572206973206e6f74206f7760008201527f6e6572206e6f7220617070726f76656400000000000000000000000000000000602082015250565b61345981612ca2565b811461346457600080fd5b50565b61347081612cb4565b811461347b57600080fd5b50565b61348781612cc0565b811461349257600080fd5b50565b61349e81612d0c565b81146134a957600080fd5b5056fea2646970667358221220ff483198da1837cbf2c1342f8e8e1cf10cf6ef5a07c14576e137d857791c3dfa64736f6c63430008070033",
  "linkReferences": {},
  "deployedLinkReferences": {}
}