{
  "_format": "hh-sol-artifact-1",
  "contractName": "RunTogetherEcoVesting",
  "sourceName": "contracts/RunTogetherEcoVesting.sol",
  "abi": [
    {
      "inputs": [
        {
          "internalType": "address",
          "name": "_token",
          "type": "address"
        },
        {
          "internalType": "address",
          "name": "_beneficiary",
          "type": "address"
        },
        {
          "internalType": "uint256",
          "name": "_released",
          "type": "uint256"
        },
        {
          "internalType": "address",
          "name": "_owner",
          "type": "address"
        }
      ],
      "stateMutability": "nonpayable",
      "type": "constructor"
    },
    {
      "anonymous": false,
      "inputs": [
        {
          "indexed": true,
          "internalType": "address",
          "name": "previousOwner",
          "type": "address"
        },
        {
          "indexed": true,
          "internalType": "address",
          "name": "newOwner",
          "type": "address"
        }
      ],
      "name": "OwnershipTransferred",
      "type": "event"
    },
    {
      "anonymous": false,
      "inputs": [
        {
          "indexed": false,
          "internalType": "uint256",
          "name": "amount",
          "type": "uint256"
        }
      ],
      "name": "Released",
      "type": "event"
    },
    {
      "inputs": [],
      "name": "amountTotal",
      "outputs": [
        {
          "internalType": "uint256",
          "name": "",
          "type": "uint256"
        }
      ],
      "stateMutability": "view",
      "type": "function"
    },
    {
      "inputs": [],
      "name": "beneficiary",
      "outputs": [
        {
          "internalType": "address",
          "name": "",
          "type": "address"
        }
      ],
      "stateMutability": "view",
      "type": "function"
    },
    {
      "inputs": [
        {
          "internalType": "address",
          "name": "_beneficiary",
          "type": "address"
        }
      ],
      "name": "changeBeneficiary",
      "outputs": [],
      "stateMutability": "nonpayable",
      "type": "function"
    },
    {
      "inputs": [],
      "name": "cliff",
      "outputs": [
        {
          "internalType": "uint256",
          "name": "",
          "type": "uint256"
        }
      ],
      "stateMutability": "view",
      "type": "function"
    },
    {
      "inputs": [
        {
          "internalType": "uint256",
          "name": "currentTime",
          "type": "uint256"
        }
      ],
      "name": "computeReleasableAmount",
      "outputs": [
        {
          "internalType": "uint256",
          "name": "",
          "type": "uint256"
        }
      ],
      "stateMutability": "view",
      "type": "function"
    },
    {
      "inputs": [],
      "name": "duration",
      "outputs": [
        {
          "internalType": "uint256",
          "name": "",
          "type": "uint256"
        }
      ],
      "stateMutability": "view",
      "type": "function"
    },
    {
      "inputs": [],
      "name": "owner",
      "outputs": [
        {
          "internalType": "address",
          "name": "",
          "type": "address"
        }
      ],
      "stateMutability": "view",
      "type": "function"
    },
    {
      "inputs": [],
      "name": "release",
      "outputs": [],
      "stateMutability": "nonpayable",
      "type": "function"
    },
    {
      "inputs": [
        {
          "internalType": "uint256",
          "name": "amount",
          "type": "uint256"
        }
      ],
      "name": "releaseWithAmount",
      "outputs": [],
      "stateMutability": "nonpayable",
      "type": "function"
    },
    {
      "inputs": [],
      "name": "released",
      "outputs": [
        {
          "internalType": "uint256",
          "name": "",
          "type": "uint256"
        }
      ],
      "stateMutability": "view",
      "type": "function"
    },
    {
      "inputs": [],
      "name": "renounceOwnership",
      "outputs": [],
      "stateMutability": "nonpayable",
      "type": "function"
    },
    {
      "inputs": [
        {
          "internalType": "uint256",
          "name": "_released",
          "type": "uint256"
        }
      ],
      "name": "setReleased",
      "outputs": [],
      "stateMutability": "nonpayable",
      "type": "function"
    },
    {
      "inputs": [],
      "name": "slicePeriod",
      "outputs": [
        {
          "internalType": "uint256",
          "name": "",
          "type": "uint256"
        }
      ],
      "stateMutability": "view",
      "type": "function"
    },
    {
      "inputs": [],
      "name": "start",
      "outputs": [
        {
          "internalType": "uint256",
          "name": "",
          "type": "uint256"
        }
      ],
      "stateMutability": "view",
      "type": "function"
    },
    {
      "inputs": [],
      "name": "tgeAmount",
      "outputs": [
        {
          "internalType": "uint256",
          "name": "",
          "type": "uint256"
        }
      ],
      "stateMutability": "view",
      "type": "function"
    },
    {
      "inputs": [],
      "name": "token",
      "outputs": [
        {
          "internalType": "contract IERC20",
          "name": "",
          "type": "address"
        }
      ],
      "stateMutability": "view",
      "type": "function"
    },
    {
      "inputs": [
        {
          "internalType": "address",
          "name": "newOwner",
          "type": "address"
        }
      ],
      "name": "transferOwnership",
      "outputs": [],
      "stateMutability": "nonpayable",
      "type": "function"
    },
    {
      "inputs": [
        {
          "internalType": "uint256",
          "name": "amount",
          "type": "uint256"
        }
      ],
      "name": "withdraw",
      "outputs": [],
      "stateMutability": "nonpayable",
      "type": "function"
    }
  ],
  "bytecode": "0x6101606040523480156200001257600080fd5b506040516200271b3803806200271b833981810160405281019062000038919062000387565b620000586200004c6200014e60201b60201c565b6200015660201b60201c565b600180819055508373ffffffffffffffffffffffffffffffffffffffff166101408173ffffffffffffffffffffffffffffffffffffffff1660601b8152505082600260006101000a81548173ffffffffffffffffffffffffffffffffffffffff021916908373ffffffffffffffffffffffffffffffffffffffff1602179055506000608081815250506362e09e7860a0818152505063058fd40060c0818152505062278d0060e081815250506a334902bc15a18cfe00000061010081815250506a0cd240af0568633f80000061012081815250508160038190555062000144816200021a60201b60201c565b505050506200058b565b600033905090565b60008060009054906101000a900473ffffffffffffffffffffffffffffffffffffffff169050816000806101000a81548173ffffffffffffffffffffffffffffffffffffffff021916908373ffffffffffffffffffffffffffffffffffffffff1602179055508173ffffffffffffffffffffffffffffffffffffffff168173ffffffffffffffffffffffffffffffffffffffff167f8be0079c531659141344cd1fd0a4f28419497f9722a3daafe3b4186f6b6457e060405160405180910390a35050565b6200022a6200014e60201b60201c565b73ffffffffffffffffffffffffffffffffffffffff16620002506200033060201b60201c565b73ffffffffffffffffffffffffffffffffffffffff1614620002a9576040517f08c379a0000000000000000000000000000000000000000000000000000000008152600401620002a09062000469565b60405180910390fd5b600073ffffffffffffffffffffffffffffffffffffffff168173ffffffffffffffffffffffffffffffffffffffff1614156200031c576040517f08c379a0000000000000000000000000000000000000000000000000000000008152600401620003139062000447565b60405180910390fd5b6200032d816200015660201b60201c565b50565b60008060009054906101000a900473ffffffffffffffffffffffffffffffffffffffff16905090565b6000815190506200036a8162000557565b92915050565b600081519050620003818162000571565b92915050565b60008060008060808587031215620003a457620003a3620004da565b5b6000620003b48782880162000359565b9450506020620003c78782880162000359565b9350506040620003da8782880162000370565b9250506060620003ed8782880162000359565b91505092959194509250565b6000620004086026836200048b565b91506200041582620004df565b604082019050919050565b60006200042f6020836200048b565b91506200043c826200052e565b602082019050919050565b600060208201905081810360008301526200046281620003f9565b9050919050565b60006020820190508181036000830152620004848162000420565b9050919050565b600082825260208201905092915050565b6000620004a982620004b0565b9050919050565b600073ffffffffffffffffffffffffffffffffffffffff82169050919050565b6000819050919050565b600080fd5b7f4f776e61626c653a206e6577206f776e657220697320746865207a65726f206160008201527f6464726573730000000000000000000000000000000000000000000000000000602082015250565b7f4f776e61626c653a2063616c6c6572206973206e6f7420746865206f776e6572600082015250565b62000562816200049c565b81146200056e57600080fd5b50565b6200057c81620004d0565b81146200058857600080fd5b50565b60805160a05160c05160e05161010051610120516101405160601c61209862000683600039600081816107430152818161083901528181610c0501528181610edc015261111c01526000818161033d0152818161044c015281816104b3015261092b01526000818161046d015281816106040152818161094c0152610cbb015260008181610570015281816105a701526109c3015260008181610319015281816103bb01526105df01526000818161038701528181610400015281816104db01528181610b5401528181610cdf0152610de8015260008181610361015281816103df0152818161050d015261053901526120986000f3fe608060405234801561001057600080fd5b50600436106101165760003560e01c806386d1a69f116100a2578063be9a655511610071578063be9a655514610287578063cf206561146102a5578063dc070657146102c1578063f2fde38b146102dd578063fc0c546a146102f957610116565b806386d1a69f146102235780638da5cb5b1461022d578063961325211461024b578063a73c71401461026957610116565b80632e1a7d4d116100e95780632e1a7d4d146101a557806338af3eed146101c1578063474d896c146101df5780635afd6eb8146101fb578063715018a61461021957610116565b80630fb5a6b41461011b5780631091827a1461013957806313d033c014610157578063145d544b14610175575b600080fd5b610123610317565b6040516101309190611a7d565b60405180910390f35b61014161033b565b60405161014e9190611a7d565b60405180910390f35b61015f61035f565b60405161016c9190611a7d565b60405180910390f35b61018f600480360381019061018a9190611613565b610383565b60405161019c9190611a7d565b60405180910390f35b6101bf60048036038101906101ba9190611613565b610676565b005b6101c9610887565b6040516101d6919061189c565b60405180910390f35b6101f960048036038101906101f49190611613565b6108ad565b005b6102036109c1565b6040516102109190611a7d565b60405180910390f35b6102216109e5565b005b61022b610a6d565b005b610235610c8a565b604051610242919061189c565b60405180910390f35b610253610cb3565b6040516102609190611a7d565b60405180910390f35b610271610cb9565b60405161027e9190611a7d565b60405180910390f35b61028f610cdd565b60405161029c9190611a7d565b60405180910390f35b6102bf60048036038101906102ba9190611613565b610d01565b005b6102db60048036038101906102d691906115b9565b610f62565b005b6102f760048036038101906102f291906115b9565b611022565b005b61030161111a565b60405161030e91906118e0565b60405180910390f35b7f000000000000000000000000000000000000000000000000000000000000000081565b7f000000000000000000000000000000000000000000000000000000000000000081565b7f000000000000000000000000000000000000000000000000000000000000000081565b60007f00000000000000000000000000000000000000000000000000000000000000008210156103b65760009050610671565b61043b7f000000000000000000000000000000000000000000000000000000000000000061042d7f00000000000000000000000000000000000000000000000000000000000000007f000000000000000000000000000000000000000000000000000000000000000061113e90919063ffffffff16565b61113e90919063ffffffff16565b82106104af576104a860035461049a7f00000000000000000000000000000000000000000000000000000000000000007f000000000000000000000000000000000000000000000000000000000000000061113e90919063ffffffff16565b61115490919063ffffffff16565b9050610671565b60007f0000000000000000000000000000000000000000000000000000000000000000905060006105097f00000000000000000000000000000000000000000000000000000000000000008561115490919063ffffffff16565b90507f000000000000000000000000000000000000000000000000000000000000000081106106545760006105677f00000000000000000000000000000000000000000000000000000000000000008361115490919063ffffffff16565b9050600061059e7f00000000000000000000000000000000000000000000000000000000000000008361116a90919063ffffffff16565b905060006105d57f00000000000000000000000000000000000000000000000000000000000000008361118090919063ffffffff16565b905061064e61063f7f0000000000000000000000000000000000000000000000000000000000000000610631847f000000000000000000000000000000000000000000000000000000000000000061118090919063ffffffff16565b61116a90919063ffffffff16565b8661113e90919063ffffffff16565b94505050505b6106696003548361115490919063ffffffff16565b915081925050505b919050565b600260015414156106bc576040517f08c379a00000000000000000000000000000000000000000000000000000000081526004016106b390611a5d565b60405180910390fd5b60026001819055506106cc611196565b73ffffffffffffffffffffffffffffffffffffffff166106ea610c8a565b73ffffffffffffffffffffffffffffffffffffffff1614610740576040517f08c379a00000000000000000000000000000000000000000000000000000000081526004016107379061199d565b60405180910390fd5b807f000000000000000000000000000000000000000000000000000000000000000073ffffffffffffffffffffffffffffffffffffffff166370a08231306040518263ffffffff1660e01b815260040161079a919061189c565b60206040518083038186803b1580156107b257600080fd5b505afa1580156107c6573d6000803e3d6000fd5b505050506040513d601f19601f820116820180604052508101906107ea9190611640565b101561082b576040517f08c379a00000000000000000000000000000000000000000000000000000000081526004016108229061197d565b60405180910390fd5b61087d610836610c8a565b827f000000000000000000000000000000000000000000000000000000000000000073ffffffffffffffffffffffffffffffffffffffff1661119e9092919063ffffffff16565b6001808190555050565b600260009054906101000a900473ffffffffffffffffffffffffffffffffffffffff1681565b6108b5611196565b73ffffffffffffffffffffffffffffffffffffffff166108d3610c8a565b73ffffffffffffffffffffffffffffffffffffffff1614610929576040517f08c379a00000000000000000000000000000000000000000000000000000000081526004016109209061199d565b60405180910390fd5b7f00000000000000000000000000000000000000000000000000000000000000007f00000000000000000000000000000000000000000000000000000000000000006109759190611aca565b8111156109b7576040517f08c379a00000000000000000000000000000000000000000000000000000000081526004016109ae90611a1d565b60405180910390fd5b8060038190555050565b7f000000000000000000000000000000000000000000000000000000000000000081565b6109ed611196565b73ffffffffffffffffffffffffffffffffffffffff16610a0b610c8a565b73ffffffffffffffffffffffffffffffffffffffff1614610a61576040517f08c379a0000000000000000000000000000000000000000000000000000000008152600401610a589061199d565b60405180910390fd5b610a6b6000611224565b565b60026001541415610ab3576040517f08c379a0000000000000000000000000000000000000000000000000000000008152600401610aaa90611a5d565b60405180910390fd5b6002600181905550600260009054906101000a900473ffffffffffffffffffffffffffffffffffffffff1673ffffffffffffffffffffffffffffffffffffffff16610afc611196565b73ffffffffffffffffffffffffffffffffffffffff1614610b52576040517f08c379a0000000000000000000000000000000000000000000000000000000008152600401610b49906119fd565b60405180910390fd5b7f00000000000000000000000000000000000000000000000000000000000000004211610bb4576040517f08c379a0000000000000000000000000000000000000000000000000000000008152600401610bab9061193d565b60405180910390fd5b6000610bbf42610383565b9050610bd68160035461113e90919063ffffffff16565b600381905550610c49600260009054906101000a900473ffffffffffffffffffffffffffffffffffffffff16827f000000000000000000000000000000000000000000000000000000000000000073ffffffffffffffffffffffffffffffffffffffff1661119e9092919063ffffffff16565b7ffb81f9b30d73d830c3544b34d827c08142579ee75710b490bab0b3995468c56581604051610c789190611a7d565b60405180910390a15060018081905550565b60008060009054906101000a900473ffffffffffffffffffffffffffffffffffffffff16905090565b60035481565b7f000000000000000000000000000000000000000000000000000000000000000081565b7f000000000000000000000000000000000000000000000000000000000000000081565b60026001541415610d47576040517f08c379a0000000000000000000000000000000000000000000000000000000008152600401610d3e90611a5d565b60405180910390fd5b6002600181905550600260009054906101000a900473ffffffffffffffffffffffffffffffffffffffff1673ffffffffffffffffffffffffffffffffffffffff16610d90611196565b73ffffffffffffffffffffffffffffffffffffffff1614610de6576040517f08c379a0000000000000000000000000000000000000000000000000000000008152600401610ddd906119fd565b60405180910390fd5b7f00000000000000000000000000000000000000000000000000000000000000004211610e48576040517f08c379a0000000000000000000000000000000000000000000000000000000008152600401610e3f9061193d565b60405180910390fd5b6000610e5342610383565b905080821115610e98576040517f08c379a0000000000000000000000000000000000000000000000000000000008152600401610e8f906119bd565b60405180910390fd5b610ead8260035461113e90919063ffffffff16565b600381905550610f20600260009054906101000a900473ffffffffffffffffffffffffffffffffffffffff16837f000000000000000000000000000000000000000000000000000000000000000073ffffffffffffffffffffffffffffffffffffffff1661119e9092919063ffffffff16565b7ffb81f9b30d73d830c3544b34d827c08142579ee75710b490bab0b3995468c56582604051610f4f9190611a7d565b60405180910390a1506001808190555050565b610f6a611196565b73ffffffffffffffffffffffffffffffffffffffff16610f88610c8a565b73ffffffffffffffffffffffffffffffffffffffff1614610fde576040517f08c379a0000000000000000000000000000000000000000000000000000000008152600401610fd59061199d565b60405180910390fd5b80600260006101000a81548173ffffffffffffffffffffffffffffffffffffffff021916908373ffffffffffffffffffffffffffffffffffffffff16021790555050565b61102a611196565b73ffffffffffffffffffffffffffffffffffffffff16611048610c8a565b73ffffffffffffffffffffffffffffffffffffffff161461109e576040517f08c379a00000000000000000000000000000000000000000000000000000000081526004016110959061199d565b60405180910390fd5b600073ffffffffffffffffffffffffffffffffffffffff168173ffffffffffffffffffffffffffffffffffffffff16141561110e576040517f08c379a00000000000000000000000000000000000000000000000000000000081526004016111059061191d565b60405180910390fd5b61111781611224565b50565b7f000000000000000000000000000000000000000000000000000000000000000081565b6000818361114c9190611aca565b905092915050565b600081836111629190611bab565b905092915050565b600081836111789190611b20565b905092915050565b6000818361118e9190611b51565b905092915050565b600033905090565b61121f8363a9059cbb60e01b84846040516024016111bd9291906118b7565b604051602081830303815290604052907bffffffffffffffffffffffffffffffffffffffffffffffffffffffff19166020820180517bffffffffffffffffffffffffffffffffffffffffffffffffffffffff83818316178352505050506112e8565b505050565b60008060009054906101000a900473ffffffffffffffffffffffffffffffffffffffff169050816000806101000a81548173ffffffffffffffffffffffffffffffffffffffff021916908373ffffffffffffffffffffffffffffffffffffffff1602179055508173ffffffffffffffffffffffffffffffffffffffff168173ffffffffffffffffffffffffffffffffffffffff167f8be0079c531659141344cd1fd0a4f28419497f9722a3daafe3b4186f6b6457e060405160405180910390a35050565b600061134a826040518060400160405280602081526020017f5361666545524332303a206c6f772d6c6576656c2063616c6c206661696c65648152508573ffffffffffffffffffffffffffffffffffffffff166113af9092919063ffffffff16565b90506000815111156113aa578080602001905181019061136a91906115e6565b6113a9576040517f08c379a00000000000000000000000000000000000000000000000000000000081526004016113a090611a3d565b60405180910390fd5b5b505050565b60606113be84846000856113c7565b90509392505050565b60608247101561140c576040517f08c379a00000000000000000000000000000000000000000000000000000000081526004016114039061195d565b60405180910390fd5b611415856114db565b611454576040517f08c379a000000000000000000000000000000000000000000000000000000000815260040161144b906119dd565b60405180910390fd5b6000808673ffffffffffffffffffffffffffffffffffffffff16858760405161147d9190611885565b60006040518083038185875af1925050503d80600081146114ba576040519150601f19603f3d011682016040523d82523d6000602084013e6114bf565b606091505b50915091506114cf8282866114fe565b92505050949350505050565b6000808273ffffffffffffffffffffffffffffffffffffffff163b119050919050565b6060831561150e5782905061155e565b6000835111156115215782518084602001fd5b816040517f08c379a000000000000000000000000000000000000000000000000000000000815260040161155591906118fb565b60405180910390fd5b9392505050565b6000813590506115748161201d565b92915050565b60008151905061158981612034565b92915050565b60008135905061159e8161204b565b92915050565b6000815190506115b38161204b565b92915050565b6000602082840312156115cf576115ce611cee565b5b60006115dd84828501611565565b91505092915050565b6000602082840312156115fc576115fb611cee565b5b600061160a8482850161157a565b91505092915050565b60006020828403121561162957611628611cee565b5b60006116378482850161158f565b91505092915050565b60006020828403121561165657611655611cee565b5b6000611664848285016115a4565b91505092915050565b61167681611bdf565b82525050565b600061168782611a98565b6116918185611aae565b93506116a1818560208601611c5d565b80840191505092915050565b6116b681611c27565b82525050565b60006116c782611aa3565b6116d18185611ab9565b93506116e1818560208601611c5d565b6116ea81611cf3565b840191505092915050565b6000611702602683611ab9565b915061170d82611d04565b604082019050919050565b6000611725602783611ab9565b915061173082611d53565b604082019050919050565b6000611748602683611ab9565b915061175382611da2565b604082019050919050565b600061176b603183611ab9565b915061177682611df1565b604082019050919050565b600061178e602083611ab9565b915061179982611e40565b602082019050919050565b60006117b1603e83611ab9565b91506117bc82611e69565b604082019050919050565b60006117d4601d83611ab9565b91506117df82611eb8565b602082019050919050565b60006117f7603e83611ab9565b915061180282611ee1565b604082019050919050565b600061181a604283611ab9565b915061182582611f30565b606082019050919050565b600061183d602a83611ab9565b915061184882611fa5565b604082019050919050565b6000611860601f83611ab9565b915061186b82611ff4565b602082019050919050565b61187f81611c1d565b82525050565b6000611891828461167c565b915081905092915050565b60006020820190506118b1600083018461166d565b92915050565b60006040820190506118cc600083018561166d565b6118d96020830184611876565b9392505050565b60006020820190506118f560008301846116ad565b92915050565b6000602082019050818103600083015261191581846116bc565b905092915050565b60006020820190508181036000830152611936816116f5565b9050919050565b6000602082019050818103600083015261195681611718565b9050919050565b600060208201905081810360008301526119768161173b565b9050919050565b600060208201905081810360008301526119968161175e565b9050919050565b600060208201905081810360008301526119b681611781565b9050919050565b600060208201905081810360008301526119d6816117a4565b9050919050565b600060208201905081810360008301526119f6816117c7565b9050919050565b60006020820190508181036000830152611a16816117ea565b9050919050565b60006020820190508181036000830152611a368161180d565b9050919050565b60006020820190508181036000830152611a5681611830565b9050919050565b60006020820190508181036000830152611a7681611853565b9050919050565b6000602082019050611a926000830184611876565b92915050565b600081519050919050565b600081519050919050565b600081905092915050565b600082825260208201905092915050565b6000611ad582611c1d565b9150611ae083611c1d565b9250827fffffffffffffffffffffffffffffffffffffffffffffffffffffffffffffffff03821115611b1557611b14611c90565b5b828201905092915050565b6000611b2b82611c1d565b9150611b3683611c1d565b925082611b4657611b45611cbf565b5b828204905092915050565b6000611b5c82611c1d565b9150611b6783611c1d565b9250817fffffffffffffffffffffffffffffffffffffffffffffffffffffffffffffffff0483118215151615611ba057611b9f611c90565b5b828202905092915050565b6000611bb682611c1d565b9150611bc183611c1d565b925082821015611bd457611bd3611c90565b5b828203905092915050565b6000611bea82611bfd565b9050919050565b60008115159050919050565b600073ffffffffffffffffffffffffffffffffffffffff82169050919050565b6000819050919050565b6000611c3282611c39565b9050919050565b6000611c4482611c4b565b9050919050565b6000611c5682611bfd565b9050919050565b60005b83811015611c7b578082015181840152602081019050611c60565b83811115611c8a576000848401525b50505050565b7f4e487b7100000000000000000000000000000000000000000000000000000000600052601160045260246000fd5b7f4e487b7100000000000000000000000000000000000000000000000000000000600052601260045260246000fd5b600080fd5b6000601f19601f8301169050919050565b7f4f776e61626c653a206e6577206f776e657220697320746865207a65726f206160008201527f6464726573730000000000000000000000000000000000000000000000000000602082015250565b7f52756e546f67657468657256657374696e673a206e6f742072656c656173656460008201527f20706572696f6400000000000000000000000000000000000000000000000000602082015250565b7f416464726573733a20696e73756666696369656e742062616c616e636520666f60008201527f722063616c6c0000000000000000000000000000000000000000000000000000602082015250565b7f52756e546f67657468657256657374696e673a206e6f7420656e6f756768207760008201527f6974686472617761626c652066756e6473000000000000000000000000000000602082015250565b7f4f776e61626c653a2063616c6c6572206973206e6f7420746865206f776e6572600082015250565b7f52756e546f67657468657256657374696e673a20616d6f756e74206d7573742060008201527f6265206c657373207468616e2072656c65617361626c6520616d6f756e740000602082015250565b7f416464726573733a2063616c6c20746f206e6f6e2d636f6e7472616374000000600082015250565b7f52756e546f67657468657256657374696e673a206f6e6c792062656e6566696360008201527f696172792063616e2072656c656173652076657374656420746f6b656e730000602082015250565b7f52756e546f67657468657256657374696e673a2072656c656173656420616d6f60008201527f756e74206d757374206265206c657373207468616e20746f74616c20616d6f7560208201527f6e74000000000000000000000000000000000000000000000000000000000000604082015250565b7f5361666545524332303a204552433230206f7065726174696f6e20646964206e60008201527f6f74207375636365656400000000000000000000000000000000000000000000602082015250565b7f5265656e7472616e637947756172643a207265656e7472616e742063616c6c00600082015250565b61202681611bdf565b811461203157600080fd5b50565b61203d81611bf1565b811461204857600080fd5b50565b61205481611c1d565b811461205f57600080fd5b5056fea2646970667358221220a341407dba8b233419750f67f51c20952eb0c39d77fb26a92e47de2e9817a3c364736f6c63430008070033",
  "linkReferences": {},
  "deployedLinkReferences": {}
}