{
  "_format": "hh-sol-artifact-1",
  "contractName": "HesmanToken",
  "sourceName": "contracts/HestokenStake.sol",
  "abi": [
    {
      "inputs": [
        {
          "internalType": "address",
          "name": "_hesmanToken",
          "type": "address"
        },
        {
          "internalType": "address",
          "name": "_hesicNftAddress",
          "type": "address"
        },
        {
          "internalType": "uint256",
          "name": "_benefitPercentPerYear",
          "type": "uint256"
        },
        {
          "internalType": "uint256",
          "name": "_nftPrice",
          "type": "uint256"
        }
      ],
      "stateMutability": "nonpayable",
      "type": "constructor"
    },
    {
      "anonymous": false,
      "inputs": [
        {
          "indexed": false,
          "internalType": "address",
          "name": "user",
          "type": "address"
        },
        {
          "indexed": false,
          "internalType": "uint256",
          "name": "amount",
          "type": "uint256"
        },
        {
          "indexed": false,
          "internalType": "uint256",
          "name": "time",
          "type": "uint256"
        }
      ],
      "name": "EventUserClaim",
      "type": "event"
    },
    {
      "anonymous": false,
      "inputs": [
        {
          "indexed": true,
          "internalType": "address",
          "name": "user",
          "type": "address"
        },
        {
          "indexed": false,
          "internalType": "address",
          "name": "nft",
          "type": "address"
        },
        {
          "indexed": false,
          "internalType": "uint256",
          "name": "tokenId",
          "type": "uint256"
        },
        {
          "indexed": false,
          "internalType": "uint256",
          "name": "time",
          "type": "uint256"
        }
      ],
      "name": "EventUserClaimNFT",
      "type": "event"
    },
    {
      "anonymous": false,
      "inputs": [
        {
          "indexed": false,
          "internalType": "address",
          "name": "user",
          "type": "address"
        },
        {
          "indexed": false,
          "internalType": "uint256",
          "name": "numberOfNft",
          "type": "uint256"
        },
        {
          "indexed": false,
          "internalType": "uint256",
          "name": "time",
          "type": "uint256"
        }
      ],
      "name": "EventUserStake",
      "type": "event"
    },
    {
      "anonymous": false,
      "inputs": [
        {
          "indexed": false,
          "internalType": "address",
          "name": "user",
          "type": "address"
        },
        {
          "indexed": false,
          "internalType": "uint256",
          "name": "time",
          "type": "uint256"
        }
      ],
      "name": "EventUserUnstake",
      "type": "event"
    },
    {
      "anonymous": false,
      "inputs": [
        {
          "indexed": true,
          "internalType": "address",
          "name": "previousOwner",
          "type": "address"
        },
        {
          "indexed": true,
          "internalType": "address",
          "name": "newOwner",
          "type": "address"
        }
      ],
      "name": "OwnershipTransferred",
      "type": "event"
    },
    {
      "inputs": [],
      "name": "benefitPercentPerYear",
      "outputs": [
        {
          "internalType": "uint256",
          "name": "",
          "type": "uint256"
        }
      ],
      "stateMutability": "view",
      "type": "function"
    },
    {
      "inputs": [
        {
          "internalType": "address",
          "name": "",
          "type": "address"
        }
      ],
      "name": "blacklistMap",
      "outputs": [
        {
          "internalType": "bool",
          "name": "",
          "type": "bool"
        }
      ],
      "stateMutability": "view",
      "type": "function"
    },
    {
      "inputs": [],
      "name": "claimToken",
      "outputs": [],
      "stateMutability": "nonpayable",
      "type": "function"
    },
    {
      "inputs": [],
      "name": "endStakeTime",
      "outputs": [
        {
          "internalType": "uint256",
          "name": "",
          "type": "uint256"
        }
      ],
      "stateMutability": "view",
      "type": "function"
    },
    {
      "inputs": [],
      "name": "hesicNftAddress",
      "outputs": [
        {
          "internalType": "address",
          "name": "",
          "type": "address"
        }
      ],
      "stateMutability": "view",
      "type": "function"
    },
    {
      "inputs": [],
      "name": "hesmanToken",
      "outputs": [
        {
          "internalType": "contract ERC20",
          "name": "",
          "type": "address"
        }
      ],
      "stateMutability": "view",
      "type": "function"
    },
    {
      "inputs": [],
      "name": "isPause",
      "outputs": [
        {
          "internalType": "bool",
          "name": "",
          "type": "bool"
        }
      ],
      "stateMutability": "view",
      "type": "function"
    },
    {
      "inputs": [],
      "name": "nftPrice",
      "outputs": [
        {
          "internalType": "uint256",
          "name": "",
          "type": "uint256"
        }
      ],
      "stateMutability": "view",
      "type": "function"
    },
    {
      "inputs": [
        {
          "internalType": "address",
          "name": "",
          "type": "address"
        }
      ],
      "name": "nftStakedNumber",
      "outputs": [
        {
          "internalType": "uint256",
          "name": "",
          "type": "uint256"
        }
      ],
      "stateMutability": "view",
      "type": "function"
    },
    {
      "inputs": [
        {
          "internalType": "address",
          "name": "",
          "type": "address"
        },
        {
          "internalType": "address",
          "name": "",
          "type": "address"
        },
        {
          "internalType": "uint256",
          "name": "",
          "type": "uint256"
        },
        {
          "internalType": "bytes",
          "name": "",
          "type": "bytes"
        }
      ],
      "name": "onERC721Received",
      "outputs": [
        {
          "internalType": "bytes4",
          "name": "",
          "type": "bytes4"
        }
      ],
      "stateMutability": "nonpayable",
      "type": "function"
    },
    {
      "inputs": [],
      "name": "owner",
      "outputs": [
        {
          "internalType": "address",
          "name": "",
          "type": "address"
        }
      ],
      "stateMutability": "view",
      "type": "function"
    },
    {
      "inputs": [
        {
          "internalType": "address[]",
          "name": "userList",
          "type": "address[]"
        }
      ],
      "name": "removeBlackList",
      "outputs": [],
      "stateMutability": "nonpayable",
      "type": "function"
    },
    {
      "inputs": [],
      "name": "renounceOwnership",
      "outputs": [],
      "stateMutability": "nonpayable",
      "type": "function"
    },
    {
      "inputs": [
        {
          "internalType": "address[]",
          "name": "userList",
          "type": "address[]"
        }
      ],
      "name": "setBlackList",
      "outputs": [],
      "stateMutability": "nonpayable",
      "type": "function"
    },
    {
      "inputs": [
        {
          "internalType": "uint256",
          "name": "_startStakeTime",
          "type": "uint256"
        },
        {
          "internalType": "uint256",
          "name": "_endStakeTime",
          "type": "uint256"
        }
      ],
      "name": "setConfig",
      "outputs": [],
      "stateMutability": "nonpayable",
      "type": "function"
    },
    {
      "inputs": [
        {
          "internalType": "bool",
          "name": "_status",
          "type": "bool"
        }
      ],
      "name": "setPauseContract",
      "outputs": [],
      "stateMutability": "nonpayable",
      "type": "function"
    },
    {
      "inputs": [
        {
          "internalType": "address",
          "name": "_hesmanToken",
          "type": "address"
        },
        {
          "internalType": "address",
          "name": "_hesicNftAddress",
          "type": "address"
        }
      ],
      "name": "setToken",
      "outputs": [],
      "stateMutability": "nonpayable",
      "type": "function"
    },
    {
      "inputs": [
        {
          "internalType": "address",
          "name": "",
          "type": "address"
        }
      ],
      "name": "stakeBlock",
      "outputs": [
        {
          "internalType": "uint256",
          "name": "",
          "type": "uint256"
        }
      ],
      "stateMutability": "view",
      "type": "function"
    },
    {
      "inputs": [
        {
          "internalType": "uint256[]",
          "name": "_idNftList",
          "type": "uint256[]"
        }
      ],
      "name": "stakeNft",
      "outputs": [],
      "stateMutability": "nonpayable",
      "type": "function"
    },
    {
      "inputs": [
        {
          "internalType": "address",
          "name": "",
          "type": "address"
        }
      ],
      "name": "stakedUserMap",
      "outputs": [
        {
          "internalType": "bool",
          "name": "",
          "type": "bool"
        }
      ],
      "stateMutability": "view",
      "type": "function"
    },
    {
      "inputs": [],
      "name": "startStakeTime",
      "outputs": [
        {
          "internalType": "uint256",
          "name": "",
          "type": "uint256"
        }
      ],
      "stateMutability": "view",
      "type": "function"
    },
    {
      "inputs": [],
      "name": "totalOfUserStaked",
      "outputs": [
        {
          "internalType": "uint256",
          "name": "",
          "type": "uint256"
        }
      ],
      "stateMutability": "view",
      "type": "function"
    },
    {
      "inputs": [
        {
          "internalType": "address",
          "name": "newOwner",
          "type": "address"
        }
      ],
      "name": "transferOwnership",
      "outputs": [],
      "stateMutability": "nonpayable",
      "type": "function"
    },
    {
      "inputs": [],
      "name": "unStakeTime",
      "outputs": [
        {
          "internalType": "uint256",
          "name": "",
          "type": "uint256"
        }
      ],
      "stateMutability": "view",
      "type": "function"
    },
    {
      "inputs": [
        {
          "internalType": "address",
          "name": "",
          "type": "address"
        }
      ],
      "name": "unstakeBlock",
      "outputs": [
        {
          "internalType": "uint256",
          "name": "",
          "type": "uint256"
        }
      ],
      "stateMutability": "view",
      "type": "function"
    },
    {
      "inputs": [
        {
          "internalType": "address",
          "name": "",
          "type": "address"
        }
      ],
      "name": "unstakeMap",
      "outputs": [
        {
          "internalType": "bool",
          "name": "",
          "type": "bool"
        }
      ],
      "stateMutability": "view",
      "type": "function"
    },
    {
      "inputs": [],
      "name": "unstakeToken",
      "outputs": [],
      "stateMutability": "nonpayable",
      "type": "function"
    },
    {
      "inputs": [
        {
          "internalType": "address",
          "name": "",
          "type": "address"
        },
        {
          "internalType": "uint256",
          "name": "",
          "type": "uint256"
        }
      ],
      "name": "userNftMap",
      "outputs": [
        {
          "internalType": "address",
          "name": "user",
          "type": "address"
        },
        {
          "internalType": "uint256",
          "name": "nftId",
          "type": "uint256"
        }
      ],
      "stateMutability": "view",
      "type": "function"
    }
  ],
  "bytecode": "0x6080604052670de0b6b3a7640000600a553480156200001d57600080fd5b506040516200347238038062003472833981810160405281019062000043919062000219565b62000063620000576200011f60201b60201c565b6200012760201b60201c565b6001808190555083600e60006101000a81548173ffffffffffffffffffffffffffffffffffffffff021916908373ffffffffffffffffffffffffffffffffffffffff16021790555082600f60006101000a81548173ffffffffffffffffffffffffffffffffffffffff021916908373ffffffffffffffffffffffffffffffffffffffff16021790555081600c8190555080600d819055506001600960006101000a81548160ff0219169083151502179055505050505062000302565b600033905090565b60008060009054906101000a900473ffffffffffffffffffffffffffffffffffffffff169050816000806101000a81548173ffffffffffffffffffffffffffffffffffffffff021916908373ffffffffffffffffffffffffffffffffffffffff1602179055508173ffffffffffffffffffffffffffffffffffffffff168173ffffffffffffffffffffffffffffffffffffffff167f8be0079c531659141344cd1fd0a4f28419497f9722a3daafe3b4186f6b6457e060405160405180910390a35050565b600081519050620001fc81620002ce565b92915050565b6000815190506200021381620002e8565b92915050565b60008060008060808587031215620002365762000235620002c9565b5b60006200024687828801620001eb565b94505060206200025987828801620001eb565b93505060406200026c8782880162000202565b92505060606200027f8782880162000202565b91505092959194509250565b600062000298826200029f565b9050919050565b600073ffffffffffffffffffffffffffffffffffffffff82169050919050565b6000819050919050565b600080fd5b620002d9816200028b565b8114620002e557600080fd5b50565b620002f381620002bf565b8114620002ff57600080fd5b50565b61316080620003126000396000f3fe608060405234801561001057600080fd5b50600436106101c45760003560e01c80636f3e5771116100f9578063a58f03aa11610097578063d47ae11011610071578063d47ae110146104d2578063e601af7314610502578063f2fde38b1461051e578063ff0938a71461053a576101c4565b8063a58f03aa14610466578063af0efb5214610484578063cb224006146104a2576101c4565b8063777e092b116100d3578063777e092b146103e05780638da5cb5b146103fc5780639aa0ea191461041a5780639bf411351461044a576101c4565b80636f3e577114610388578063715018a6146103b857806371aec515146103c2576101c4565b80631e34c585116101665780634017cdce116101405780634017cdce146103265780634451d89f146103425780635481c4df1461034c57806369bdbfbb1461036a576101c4565b80631e34c585146102d057806320eb640c146102ec578063321e29a7146102f6576101c4565b80631197a8be116101a25780631197a8be14610236578063150b7a02146102665780631ba31584146102965780631da26a8b146102b4576101c4565b806309d9754e146101c95780630a883818146101e75780630d39fc8114610218575b600080fd5b6101d1610558565b6040516101de9190612a2b565b60405180910390f35b61020160048036038101906101fc919061235f565b61055e565b60405161020f9291906127b8565b60405180910390f35b6102206105bf565b60405161022d9190612a2b565b60405180910390f35b610250600480360381019061024b919061226f565b6105c5565b60405161025d9190612818565b60405180910390f35b610280600480360381019061027b91906122dc565b6105e5565b60405161028d9190612833565b60405180910390f35b61029e6105f9565b6040516102ab9190612a2b565b60405180910390f35b6102ce60048036038101906102c9919061229c565b6105ff565b005b6102ea60048036038101906102e59190612493565b610701565b005b6102f46107e6565b005b610310600480360381019061030b919061226f565b610d0d565b60405161031d9190612a2b565b60405180910390f35b610340600480360381019061033b91906123ec565b610d25565b005b61034a6111e4565b005b6103546116ad565b6040516103619190612766565b60405180910390f35b6103726116d3565b60405161037f9190612a2b565b60405180910390f35b6103a2600480360381019061039d919061226f565b6116d9565b6040516103af9190612818565b60405180910390f35b6103c06116f9565b005b6103ca611781565b6040516103d79190612a2b565b60405180910390f35b6103fa60048036038101906103f5919061239f565b611787565b005b6104046118a8565b6040516104119190612766565b60405180910390f35b610434600480360381019061042f919061226f565b6118d1565b6040516104419190612818565b60405180910390f35b610464600480360381019061045f919061239f565b6118f1565b005b61046e611a12565b60405161047b9190612a2b565b60405180910390f35b61048c611a18565b604051610499919061284e565b60405180910390f35b6104bc60048036038101906104b7919061226f565b611a3e565b6040516104c99190612a2b565b60405180910390f35b6104ec60048036038101906104e7919061226f565b611a56565b6040516104f99190612a2b565b60405180910390f35b61051c60048036038101906105179190612439565b611a6e565b005b6105386004803603810190610533919061226f565b611b07565b005b610542611bff565b60405161054f9190612818565b60405180910390f35b60125481565b6006602052816000526040600020818154811061057a57600080fd5b9060005260206000209060020201600091509150508060000160009054906101000a900473ffffffffffffffffffffffffffffffffffffffff16908060010154905082565b600d5481565b60026020528060005260406000206000915054906101000a900460ff1681565b600063150b7a0260e01b9050949350505050565b600b5481565b610607611c12565b73ffffffffffffffffffffffffffffffffffffffff166106256118a8565b73ffffffffffffffffffffffffffffffffffffffff161461067b576040517f08c379a00000000000000000000000000000000000000000000000000000000081526004016106729061294b565b60405180910390fd5b81600e60006101000a81548173ffffffffffffffffffffffffffffffffffffffff021916908373ffffffffffffffffffffffffffffffffffffffff16021790555080600f60006101000a81548173ffffffffffffffffffffffffffffffffffffffff021916908373ffffffffffffffffffffffffffffffffffffffff1602179055505050565b610709611c12565b73ffffffffffffffffffffffffffffffffffffffff166107276118a8565b73ffffffffffffffffffffffffffffffffffffffff161461077d576040517f08c379a00000000000000000000000000000000000000000000000000000000081526004016107749061294b565b60405180910390fd5b8082106107bf576040517f08c379a00000000000000000000000000000000000000000000000000000000081526004016107b690612a0b565b60405180910390fd5b816010819055508060118190555060016010546107dc9190612ace565b6012819055505050565b6002600154141561082c576040517f08c379a0000000000000000000000000000000000000000000000000000000008152600401610823906129eb565b60405180910390fd5b600260018190555060001515600760003373ffffffffffffffffffffffffffffffffffffffff1673ffffffffffffffffffffffffffffffffffffffff16815260200190815260200160002060009054906101000a900460ff161515146108c7576040517f08c379a00000000000000000000000000000000000000000000000000000000081526004016108be906128cb565b60405180910390fd5b60011515600260003373ffffffffffffffffffffffffffffffffffffffff1673ffffffffffffffffffffffffffffffffffffffff16815260200190815260200160002060009054906101000a900460ff1615151461095a576040517f08c379a00000000000000000000000000000000000000000000000000000000081526004016109519061292b565b60405180910390fd5b60001515600360003373ffffffffffffffffffffffffffffffffffffffff1673ffffffffffffffffffffffffffffffffffffffff16815260200190815260200160002060009054906101000a900460ff161515146109ed576040517f08c379a00000000000000000000000000000000000000000000000000000000081526004016109e4906128eb565b60405180910390fd5b6000600260003373ffffffffffffffffffffffffffffffffffffffff1673ffffffffffffffffffffffffffffffffffffffff16815260200190815260200160002060006101000a81548160ff0219169083151502179055506001600360003373ffffffffffffffffffffffffffffffffffffffff1673ffffffffffffffffffffffffffffffffffffffff16815260200190815260200160002060006101000a81548160ff02191690831515021790555043600560003373ffffffffffffffffffffffffffffffffffffffff1673ffffffffffffffffffffffffffffffffffffffff16815260200190815260200160002081905550600b6000815480929190610af490612ccf565b919050555060005b600660003373ffffffffffffffffffffffffffffffffffffffff1673ffffffffffffffffffffffffffffffffffffffff16815260200190815260200160002080549050811015610cca576000600660003373ffffffffffffffffffffffffffffffffffffffff1673ffffffffffffffffffffffffffffffffffffffff1681526020019081526020016000208281548110610b9957610b98612dd1565b5b90600052602060002090600202019050600f60009054906101000a900473ffffffffffffffffffffffffffffffffffffffff1673ffffffffffffffffffffffffffffffffffffffff166323b872dd303384600101546040518463ffffffff1660e01b8152600401610c0c93929190612781565b600060405180830381600087803b158015610c2657600080fd5b505af1158015610c3a573d6000803e3d6000fd5b505050503373ffffffffffffffffffffffffffffffffffffffff167f092f1d2f59723a7f07e48bc058ac50cfb9b46c50bf938f7c04a54e64f5f8be59600f60009054906101000a900473ffffffffffffffffffffffffffffffffffffffff16836001015442604051610cae939291906127e1565b60405180910390a2508080610cc290612d2a565b915050610afc565b507fb9656e7a29471c52d3abcf58c973bbfafa69456c3a7dba2ee0daada6d6d1aba43342604051610cfc9291906127b8565b60405180910390a160018081905550565b60086020528060005260406000206000915090505481565b60026001541415610d6b576040517f08c379a0000000000000000000000000000000000000000000000000000000008152600401610d62906129eb565b60405180910390fd5b600260018190555060001515600960009054906101000a900460ff16151514610dc9576040517f08c379a0000000000000000000000000000000000000000000000000000000008152600401610dc0906129cb565b60405180910390fd5b60001515600760003373ffffffffffffffffffffffffffffffffffffffff1673ffffffffffffffffffffffffffffffffffffffff16815260200190815260200160002060009054906101000a900460ff16151514610e5c576040517f08c379a0000000000000000000000000000000000000000000000000000000008152600401610e53906128cb565b60405180910390fd5b60008282905011610ea2576040517f08c379a0000000000000000000000000000000000000000000000000000000008152600401610e999061288b565b60405180910390fd5b6001600260003373ffffffffffffffffffffffffffffffffffffffff1673ffffffffffffffffffffffffffffffffffffffff16815260200190815260200160002060006101000a81548160ff02191690831515021790555043600460003373ffffffffffffffffffffffffffffffffffffffff1673ffffffffffffffffffffffffffffffffffffffff16815260200190815260200160002081905550600b6000815480929190610f5190612d2a565b919050555060005b8282905081101561114157610f6c6120cf565b33816000019073ffffffffffffffffffffffffffffffffffffffff16908173ffffffffffffffffffffffffffffffffffffffff1681525050838383818110610fb757610fb6612dd1565b5b90506020020135816020018181525050600660003373ffffffffffffffffffffffffffffffffffffffff1673ffffffffffffffffffffffffffffffffffffffff16815260200190815260200160002081908060018154018082558091505060019003906000526020600020906002020160009091909190915060008201518160000160006101000a81548173ffffffffffffffffffffffffffffffffffffffff021916908373ffffffffffffffffffffffffffffffffffffffff160217905550602082015181600101555050600f60009054906101000a900473ffffffffffffffffffffffffffffffffffffffff1673ffffffffffffffffffffffffffffffffffffffff166323b872dd33308787878181106110d6576110d5612dd1565b5b905060200201356040518463ffffffff1660e01b81526004016110fb93929190612781565b600060405180830381600087803b15801561111557600080fd5b505af1158015611129573d6000803e3d6000fd5b5050505050808061113990612d2a565b915050610f59565b5081819050600860003373ffffffffffffffffffffffffffffffffffffffff1673ffffffffffffffffffffffffffffffffffffffff16815260200190815260200160002060008282546111949190612ace565b925050819055507ff631376cacfb1b6aba2490572db8eba7204cd68f94db54296ec52fc97ae062753383839050426040516111d1939291906127e1565b60405180910390a1600180819055505050565b6002600154141561122a576040517f08c379a0000000000000000000000000000000000000000000000000000000008152600401611221906129eb565b60405180910390fd5b600260018190555060001515600960009054906101000a900460ff16151514611288576040517f08c379a000000000000000000000000000000000000000000000000000000000815260040161127f906129cb565b60405180910390fd5b60001515600760003373ffffffffffffffffffffffffffffffffffffffff1673ffffffffffffffffffffffffffffffffffffffff16815260200190815260200160002060009054906101000a900460ff1615151461131b576040517f08c379a0000000000000000000000000000000000000000000000000000000008152600401611312906128cb565b60405180910390fd5b60011515600360003373ffffffffffffffffffffffffffffffffffffffff1673ffffffffffffffffffffffffffffffffffffffff16815260200190815260200160002060009054906101000a900460ff161515146113ae576040517f08c379a00000000000000000000000000000000000000000000000000000000081526004016113a59061296b565b60405180910390fd5b6000600860003373ffffffffffffffffffffffffffffffffffffffff1673ffffffffffffffffffffffffffffffffffffffff16815260200190815260200160002054600d546113fd9190612b55565b9050611447600560003373ffffffffffffffffffffffffffffffffffffffff1673ffffffffffffffffffffffffffffffffffffffff16815260200190815260200160002054611c1a565b61148f600460003373ffffffffffffffffffffffffffffffffffffffff1673ffffffffffffffffffffffffffffffffffffffff16815260200190815260200160002054611c1a565b611521600460003373ffffffffffffffffffffffffffffffffffffffff1673ffffffffffffffffffffffffffffffffffffffff16815260200190815260200160002054600560003373ffffffffffffffffffffffffffffffffffffffff1673ffffffffffffffffffffffffffffffffffffffff1681526020019081526020016000205461151c9190612baf565b611c1a565b61152c600c54611c1a565b61153581611c1a565b600061160f629e340061160160646115f3600c546115e588600460003373ffffffffffffffffffffffffffffffffffffffff1673ffffffffffffffffffffffffffffffffffffffff16815260200190815260200160002054600560003373ffffffffffffffffffffffffffffffffffffffff1673ffffffffffffffffffffffffffffffffffffffff168152602001908152602001600020546115d79190612baf565b611cb390919063ffffffff16565b611cb390919063ffffffff16565b611cc990919063ffffffff16565b611cc990919063ffffffff16565b905061161a81611c1a565b6116673382600e60009054906101000a900473ffffffffffffffffffffffffffffffffffffffff1673ffffffffffffffffffffffffffffffffffffffff16611cdf9092919063ffffffff16565b7fd458cbd7941a406cf0211a0f3f08d437b196748d53096e98baf5a27041c2ea2633824260405161169a939291906127e1565b60405180910390a1505060018081905550565b600f60009054906101000a900473ffffffffffffffffffffffffffffffffffffffff1681565b600c5481565b60036020528060005260406000206000915054906101000a900460ff1681565b611701611c12565b73ffffffffffffffffffffffffffffffffffffffff1661171f6118a8565b73ffffffffffffffffffffffffffffffffffffffff1614611775576040517f08c379a000000000000000000000000000000000000000000000000000000000815260040161176c9061294b565b60405180910390fd5b61177f6000611d65565b565b60105481565b61178f611c12565b73ffffffffffffffffffffffffffffffffffffffff166117ad6118a8565b73ffffffffffffffffffffffffffffffffffffffff1614611803576040517f08c379a00000000000000000000000000000000000000000000000000000000081526004016117fa9061294b565b60405180910390fd5b60005b828290508110156118a35760016007600085858581811061182a57611829612dd1565b5b905060200201602081019061183f919061226f565b73ffffffffffffffffffffffffffffffffffffffff1673ffffffffffffffffffffffffffffffffffffffff16815260200190815260200160002060006101000a81548160ff021916908315150217905550808061189b90612d2a565b915050611806565b505050565b60008060009054906101000a900473ffffffffffffffffffffffffffffffffffffffff16905090565b60076020528060005260406000206000915054906101000a900460ff1681565b6118f9611c12565b73ffffffffffffffffffffffffffffffffffffffff166119176118a8565b73ffffffffffffffffffffffffffffffffffffffff161461196d576040517f08c379a00000000000000000000000000000000000000000000000000000000081526004016119649061294b565b60405180910390fd5b60005b82829050811015611a0d5760006007600085858581811061199457611993612dd1565b5b90506020020160208101906119a9919061226f565b73ffffffffffffffffffffffffffffffffffffffff1673ffffffffffffffffffffffffffffffffffffffff16815260200190815260200160002060006101000a81548160ff0219169083151502179055508080611a0590612d2a565b915050611970565b505050565b60115481565b600e60009054906101000a900473ffffffffffffffffffffffffffffffffffffffff1681565b60056020528060005260406000206000915090505481565b60046020528060005260406000206000915090505481565b611a76611c12565b73ffffffffffffffffffffffffffffffffffffffff16611a946118a8565b73ffffffffffffffffffffffffffffffffffffffff1614611aea576040517f08c379a0000000000000000000000000000000000000000000000000000000008152600401611ae19061294b565b60405180910390fd5b80600960006101000a81548160ff02191690831515021790555050565b611b0f611c12565b73ffffffffffffffffffffffffffffffffffffffff16611b2d6118a8565b73ffffffffffffffffffffffffffffffffffffffff1614611b83576040517f08c379a0000000000000000000000000000000000000000000000000000000008152600401611b7a9061294b565b60405180910390fd5b600073ffffffffffffffffffffffffffffffffffffffff168173ffffffffffffffffffffffffffffffffffffffff161415611bf3576040517f08c379a0000000000000000000000000000000000000000000000000000000008152600401611bea906128ab565b60405180910390fd5b611bfc81611d65565b50565b600960009054906101000a900460ff1681565b600033905090565b611cb081604051602401611c2e9190612a2b565b6040516020818303038152906040527ff5b1bba9000000000000000000000000000000000000000000000000000000007bffffffffffffffffffffffffffffffffffffffffffffffffffffffff19166020820180517bffffffffffffffffffffffffffffffffffffffffffffffffffffffff8381831617835250505050611e29565b50565b60008183611cc19190612b55565b905092915050565b60008183611cd79190612b24565b905092915050565b611d608363a9059cbb60e01b8484604051602401611cfe9291906127b8565b604051602081830303815290604052907bffffffffffffffffffffffffffffffffffffffffffffffffffffffff19166020820180517bffffffffffffffffffffffffffffffffffffffffffffffffffffffff8381831617835250505050611e52565b505050565b60008060009054906101000a900473ffffffffffffffffffffffffffffffffffffffff169050816000806101000a81548173ffffffffffffffffffffffffffffffffffffffff021916908373ffffffffffffffffffffffffffffffffffffffff1602179055508173ffffffffffffffffffffffffffffffffffffffff168173ffffffffffffffffffffffffffffffffffffffff167f8be0079c531659141344cd1fd0a4f28419497f9722a3daafe3b4186f6b6457e060405160405180910390a35050565b60008151905060006a636f6e736f6c652e6c6f679050602083016000808483855afa5050505050565b6000611eb4826040518060400160405280602081526020017f5361666545524332303a206c6f772d6c6576656c2063616c6c206661696c65648152508573ffffffffffffffffffffffffffffffffffffffff16611f199092919063ffffffff16565b9050600081511115611f145780806020019051810190611ed49190612466565b611f13576040517f08c379a0000000000000000000000000000000000000000000000000000000008152600401611f0a906129ab565b60405180910390fd5b5b505050565b6060611f288484600085611f31565b90509392505050565b606082471015611f76576040517f08c379a0000000000000000000000000000000000000000000000000000000008152600401611f6d9061290b565b60405180910390fd5b611f7f85612045565b611fbe576040517f08c379a0000000000000000000000000000000000000000000000000000000008152600401611fb59061298b565b60405180910390fd5b6000808673ffffffffffffffffffffffffffffffffffffffff168587604051611fe7919061274f565b60006040518083038185875af1925050503d8060008114612024576040519150601f19603f3d011682016040523d82523d6000602084013e612029565b606091505b5091509150612039828286612068565b92505050949350505050565b6000808273ffffffffffffffffffffffffffffffffffffffff163b119050919050565b60608315612078578290506120c8565b60008351111561208b5782518084602001fd5b816040517f08c379a00000000000000000000000000000000000000000000000000000000081526004016120bf9190612869565b60405180910390fd5b9392505050565b6040518060400160405280600073ffffffffffffffffffffffffffffffffffffffff168152602001600081525090565b600061211261210d84612a6b565b612a46565b90508281526020810184848401111561212e5761212d612e3e565b5b612139848285612c8d565b509392505050565b600081359050612150816130e5565b92915050565b60008083601f84011261216c5761216b612e34565b5b8235905067ffffffffffffffff81111561218957612188612e2f565b5b6020830191508360208202830111156121a5576121a4612e39565b5b9250929050565b60008083601f8401126121c2576121c1612e34565b5b8235905067ffffffffffffffff8111156121df576121de612e2f565b5b6020830191508360208202830111156121fb576121fa612e39565b5b9250929050565b600081359050612211816130fc565b92915050565b600081519050612226816130fc565b92915050565b600082601f83011261224157612240612e34565b5b81356122518482602086016120ff565b91505092915050565b60008135905061226981613113565b92915050565b60006020828403121561228557612284612e48565b5b600061229384828501612141565b91505092915050565b600080604083850312156122b3576122b2612e48565b5b60006122c185828601612141565b92505060206122d285828601612141565b9150509250929050565b600080600080608085870312156122f6576122f5612e48565b5b600061230487828801612141565b945050602061231587828801612141565b93505060406123268782880161225a565b925050606085013567ffffffffffffffff81111561234757612346612e43565b5b6123538782880161222c565b91505092959194509250565b6000806040838503121561237657612375612e48565b5b600061238485828601612141565b92505060206123958582860161225a565b9150509250929050565b600080602083850312156123b6576123b5612e48565b5b600083013567ffffffffffffffff8111156123d4576123d3612e43565b5b6123e085828601612156565b92509250509250929050565b6000806020838503121561240357612402612e48565b5b600083013567ffffffffffffffff81111561242157612420612e43565b5b61242d858286016121ac565b92509250509250929050565b60006020828403121561244f5761244e612e48565b5b600061245d84828501612202565b91505092915050565b60006020828403121561247c5761247b612e48565b5b600061248a84828501612217565b91505092915050565b600080604083850312156124aa576124a9612e48565b5b60006124b88582860161225a565b92505060206124c98582860161225a565b9150509250929050565b6124dc81612be3565b82525050565b6124eb81612bf5565b82525050565b6124fa81612c01565b82525050565b600061250b82612a9c565b6125158185612ab2565b9350612525818560208601612c9c565b80840191505092915050565b61253a81612c57565b82525050565b600061254b82612aa7565b6125558185612abd565b9350612565818560208601612c9c565b61256e81612e4d565b840191505092915050565b6000612586601e83612abd565b915061259182612e5e565b602082019050919050565b60006125a9602683612abd565b91506125b482612e87565b604082019050919050565b60006125cc601483612abd565b91506125d782612ed6565b602082019050919050565b60006125ef601983612abd565b91506125fa82612eff565b602082019050919050565b6000612612602683612abd565b915061261d82612f28565b604082019050919050565b6000612635601883612abd565b915061264082612f77565b602082019050919050565b6000612658602083612abd565b915061266382612fa0565b602082019050919050565b600061267b601883612abd565b915061268682612fc9565b602082019050919050565b600061269e601d83612abd565b91506126a982612ff2565b602082019050919050565b60006126c1602a83612abd565b91506126cc8261301b565b604082019050919050565b60006126e4601283612abd565b91506126ef8261306a565b602082019050919050565b6000612707601f83612abd565b915061271282613093565b602082019050919050565b600061272a601a83612abd565b9150612735826130bc565b602082019050919050565b61274981612c4d565b82525050565b600061275b8284612500565b915081905092915050565b600060208201905061277b60008301846124d3565b92915050565b600060608201905061279660008301866124d3565b6127a360208301856124d3565b6127b06040830184612740565b949350505050565b60006040820190506127cd60008301856124d3565b6127da6020830184612740565b9392505050565b60006060820190506127f660008301866124d3565b6128036020830185612740565b6128106040830184612740565b949350505050565b600060208201905061282d60008301846124e2565b92915050565b600060208201905061284860008301846124f1565b92915050565b60006020820190506128636000830184612531565b92915050565b600060208201905081810360008301526128838184612540565b905092915050565b600060208201905081810360008301526128a481612579565b9050919050565b600060208201905081810360008301526128c48161259c565b9050919050565b600060208201905081810360008301526128e4816125bf565b9050919050565b60006020820190508181036000830152612904816125e2565b9050919050565b6000602082019050818103600083015261292481612605565b9050919050565b6000602082019050818103600083015261294481612628565b9050919050565b600060208201905081810360008301526129648161264b565b9050919050565b600060208201905081810360008301526129848161266e565b9050919050565b600060208201905081810360008301526129a481612691565b9050919050565b600060208201905081810360008301526129c4816126b4565b9050919050565b600060208201905081810360008301526129e4816126d7565b9050919050565b60006020820190508181036000830152612a04816126fa565b9050919050565b60006020820190508181036000830152612a248161271d565b9050919050565b6000602082019050612a406000830184612740565b92915050565b6000612a50612a61565b9050612a5c8282612cf9565b919050565b6000604051905090565b600067ffffffffffffffff821115612a8657612a85612e00565b5b612a8f82612e4d565b9050602081019050919050565b600081519050919050565b600081519050919050565b600081905092915050565b600082825260208201905092915050565b6000612ad982612c4d565b9150612ae483612c4d565b9250827fffffffffffffffffffffffffffffffffffffffffffffffffffffffffffffffff03821115612b1957612b18612d73565b5b828201905092915050565b6000612b2f82612c4d565b9150612b3a83612c4d565b925082612b4a57612b49612da2565b5b828204905092915050565b6000612b6082612c4d565b9150612b6b83612c4d565b9250817fffffffffffffffffffffffffffffffffffffffffffffffffffffffffffffffff0483118215151615612ba457612ba3612d73565b5b828202905092915050565b6000612bba82612c4d565b9150612bc583612c4d565b925082821015612bd857612bd7612d73565b5b828203905092915050565b6000612bee82612c2d565b9050919050565b60008115159050919050565b60007fffffffff0000000000000000000000000000000000000000000000000000000082169050919050565b600073ffffffffffffffffffffffffffffffffffffffff82169050919050565b6000819050919050565b6000612c6282612c69565b9050919050565b6000612c7482612c7b565b9050919050565b6000612c8682612c2d565b9050919050565b82818337600083830152505050565b60005b83811015612cba578082015181840152602081019050612c9f565b83811115612cc9576000848401525b50505050565b6000612cda82612c4d565b91506000821415612cee57612ced612d73565b5b600182039050919050565b612d0282612e4d565b810181811067ffffffffffffffff82111715612d2157612d20612e00565b5b80604052505050565b6000612d3582612c4d565b91507fffffffffffffffffffffffffffffffffffffffffffffffffffffffffffffffff821415612d6857612d67612d73565b5b600182019050919050565b7f4e487b7100000000000000000000000000000000000000000000000000000000600052601160045260246000fd5b7f4e487b7100000000000000000000000000000000000000000000000000000000600052601260045260246000fd5b7f4e487b7100000000000000000000000000000000000000000000000000000000600052603260045260246000fd5b7f4e487b7100000000000000000000000000000000000000000000000000000000600052604160045260246000fd5b600080fd5b600080fd5b600080fd5b600080fd5b600080fd5b600080fd5b6000601f19601f8301169050919050565b7f4e465473206861766520746f2062652067726561746572207468616e20300000600082015250565b7f4f776e61626c653a206e6577206f776e657220697320746865207a65726f206160008201527f6464726573730000000000000000000000000000000000000000000000000000602082015250565b7f596f752061726520696e20426c61636b6c697374000000000000000000000000600082015250565b7f596f75206861766520756e7374616b656420616c726561647900000000000000600082015250565b7f416464726573733a20696e73756666696369656e742062616c616e636520666f60008201527f722063616c6c0000000000000000000000000000000000000000000000000000602082015250565b7f596f7520646964206e6f74207374616b65206265666f72650000000000000000600082015250565b7f4f776e61626c653a2063616c6c6572206973206e6f7420746865206f776e6572600082015250565b7f596f752073686f756c6420756e7374616b652066697273740000000000000000600082015250565b7f416464726573733a2063616c6c20746f206e6f6e2d636f6e7472616374000000600082015250565b7f5361666545524332303a204552433230206f7065726174696f6e20646964206e60008201527f6f74207375636365656400000000000000000000000000000000000000000000602082015250565b7f436f6e7472616374206973207061757365640000000000000000000000000000600082015250565b7f5265656e7472616e637947756172643a207265656e7472616e742063616c6c00600082015250565b7f496e7075742074696d65207374616b696e6720696e76616c6964000000000000600082015250565b6130ee81612be3565b81146130f957600080fd5b50565b61310581612bf5565b811461311057600080fd5b50565b61311c81612c4d565b811461312757600080fd5b5056fea2646970667358221220b7d104bb103956b1efd96358c06f21a5cb379c496761e16fa84bb26ae4b8728b64736f6c63430008070033",
  "linkReferences": {},
  "deployedLinkReferences": {}
}