{
  "_format": "hh-sol-artifact-1",
  "contractName": "RunTogetherMigration",
  "sourceName": "contracts/RunTogetherMigration.sol",
  "abi": [
    {
      "inputs": [
        {
          "internalType": "address",
          "name": "_runTogetherToken",
          "type": "address"
        },
        {
          "internalType": "address",
          "name": "_runTogetherTokenV2",
          "type": "address"
        },
        {
          "internalType": "address",
          "name": "_devWallet",
          "type": "address"
        }
      ],
      "stateMutability": "nonpayable",
      "type": "constructor"
    },
    {
      "anonymous": false,
      "inputs": [
        {
          "indexed": true,
          "internalType": "address",
          "name": "account",
          "type": "address"
        },
        {
          "indexed": false,
          "internalType": "uint256",
          "name": "amount",
          "type": "uint256"
        }
      ],
      "name": "EventSwap",
      "type": "event"
    },
    {
      "anonymous": false,
      "inputs": [
        {
          "indexed": true,
          "internalType": "address",
          "name": "previousOwner",
          "type": "address"
        },
        {
          "indexed": true,
          "internalType": "address",
          "name": "newOwner",
          "type": "address"
        }
      ],
      "name": "OwnershipTransferred",
      "type": "event"
    },
    {
      "inputs": [],
      "name": "devWallet",
      "outputs": [
        {
          "internalType": "address",
          "name": "",
          "type": "address"
        }
      ],
      "stateMutability": "view",
      "type": "function"
    },
    {
      "inputs": [],
      "name": "emergencyWithdrawToken",
      "outputs": [],
      "stateMutability": "nonpayable",
      "type": "function"
    },
    {
      "inputs": [],
      "name": "isPause",
      "outputs": [
        {
          "internalType": "bool",
          "name": "",
          "type": "bool"
        }
      ],
      "stateMutability": "view",
      "type": "function"
    },
    {
      "inputs": [],
      "name": "owner",
      "outputs": [
        {
          "internalType": "address",
          "name": "",
          "type": "address"
        }
      ],
      "stateMutability": "view",
      "type": "function"
    },
    {
      "inputs": [],
      "name": "renounceOwnership",
      "outputs": [],
      "stateMutability": "nonpayable",
      "type": "function"
    },
    {
      "inputs": [],
      "name": "runTogetherToken",
      "outputs": [
        {
          "internalType": "contract ERC20",
          "name": "",
          "type": "address"
        }
      ],
      "stateMutability": "view",
      "type": "function"
    },
    {
      "inputs": [],
      "name": "runTogetherTokenV2",
      "outputs": [
        {
          "internalType": "contract ERC20",
          "name": "",
          "type": "address"
        }
      ],
      "stateMutability": "view",
      "type": "function"
    },
    {
      "inputs": [
        {
          "internalType": "bool",
          "name": "_isPause",
          "type": "bool"
        }
      ],
      "name": "setPause",
      "outputs": [],
      "stateMutability": "nonpayable",
      "type": "function"
    },
    {
      "inputs": [
        {
          "internalType": "address",
          "name": "_runTogetherToken",
          "type": "address"
        },
        {
          "internalType": "address",
          "name": "_runTogetherTokenV2",
          "type": "address"
        }
      ],
      "name": "setToken",
      "outputs": [],
      "stateMutability": "nonpayable",
      "type": "function"
    },
    {
      "inputs": [
        {
          "internalType": "address",
          "name": "_devWallet",
          "type": "address"
        }
      ],
      "name": "setdevWallet",
      "outputs": [],
      "stateMutability": "nonpayable",
      "type": "function"
    },
    {
      "inputs": [],
      "name": "swap",
      "outputs": [],
      "stateMutability": "nonpayable",
      "type": "function"
    },
    {
      "inputs": [
        {
          "internalType": "address",
          "name": "newOwner",
          "type": "address"
        }
      ],
      "name": "transferOwnership",
      "outputs": [],
      "stateMutability": "nonpayable",
      "type": "function"
    },
    {
      "inputs": [
        {
          "internalType": "address",
          "name": "",
          "type": "address"
        }
      ],
      "name": "userSwapMap",
      "outputs": [
        {
          "internalType": "uint256",
          "name": "",
          "type": "uint256"
        }
      ],
      "stateMutability": "view",
      "type": "function"
    }
  ],
  "bytecode": "0x60806040523480156200001157600080fd5b5060405162001efa38038062001efa83398181016040528101906200003791906200020d565b620000576200004b6200012a60201b60201c565b6200013260201b60201c565b6001808190555082600360006101000a81548173ffffffffffffffffffffffffffffffffffffffff021916908373ffffffffffffffffffffffffffffffffffffffff16021790555081600460006101000a81548173ffffffffffffffffffffffffffffffffffffffff021916908373ffffffffffffffffffffffffffffffffffffffff16021790555080600260016101000a81548173ffffffffffffffffffffffffffffffffffffffff021916908373ffffffffffffffffffffffffffffffffffffffff160217905550505050620002bc565b600033905090565b60008060009054906101000a900473ffffffffffffffffffffffffffffffffffffffff169050816000806101000a81548173ffffffffffffffffffffffffffffffffffffffff021916908373ffffffffffffffffffffffffffffffffffffffff1602179055508173ffffffffffffffffffffffffffffffffffffffff168173ffffffffffffffffffffffffffffffffffffffff167f8be0079c531659141344cd1fd0a4f28419497f9722a3daafe3b4186f6b6457e060405160405180910390a35050565b6000815190506200020781620002a2565b92915050565b6000806000606084860312156200022957620002286200029d565b5b60006200023986828701620001f6565b93505060206200024c86828701620001f6565b92505060406200025f86828701620001f6565b9150509250925092565b600062000276826200027d565b9050919050565b600073ffffffffffffffffffffffffffffffffffffffff82169050919050565b600080fd5b620002ad8162000269565b8114620002b957600080fd5b50565b611c2e80620002cc6000396000f3fe608060405234801561001057600080fd5b50600436106100cf5760003560e01c80638da5cb5b1161008c578063bc60bf5a11610066578063bc60bf5a146101a2578063bedb86fb146101d2578063f2fde38b146101ee578063ff0938a71461020a576100cf565b80638da5cb5b1461014a5780638ea5220f1461016857806395f4d08814610186576100cf565b80631da26a8b146100d457806342c01271146100f0578063492560471461010e578063715018a6146101185780637c2ee4b6146101225780638119c06514610140575b600080fd5b6100ee60048036038101906100e9919061132f565b610228565b005b6100f861032a565b6040516101059190611684565b60405180910390f35b610116610350565b005b61012061060c565b005b61012a610694565b6040516101379190611684565b60405180910390f35b6101486106ba565b005b610152610ac6565b60405161015f91906115ee565b60405180910390f35b610170610aef565b60405161017d91906115ee565b60405180910390f35b6101a0600480360381019061019b9190611302565b610b15565b005b6101bc60048036038101906101b79190611302565b610bd5565b6040516101c99190611811565b60405180910390f35b6101ec60048036038101906101e7919061136f565b610bed565b005b61020860048036038101906102039190611302565b610c86565b005b610212610d7e565b60405161021f9190611669565b60405180910390f35b610230610d91565b73ffffffffffffffffffffffffffffffffffffffff1661024e610ac6565b73ffffffffffffffffffffffffffffffffffffffff16146102a4576040517f08c379a000000000000000000000000000000000000000000000000000000000815260040161029b90611791565b60405180910390fd5b81600360006101000a81548173ffffffffffffffffffffffffffffffffffffffff021916908373ffffffffffffffffffffffffffffffffffffffff16021790555080600460006101000a81548173ffffffffffffffffffffffffffffffffffffffff021916908373ffffffffffffffffffffffffffffffffffffffff1602179055505050565b600460009054906101000a900473ffffffffffffffffffffffffffffffffffffffff1681565b610358610d91565b73ffffffffffffffffffffffffffffffffffffffff16610376610ac6565b73ffffffffffffffffffffffffffffffffffffffff16146103cc576040517f08c379a00000000000000000000000000000000000000000000000000000000081526004016103c390611791565b60405180910390fd5b6000600360009054906101000a900473ffffffffffffffffffffffffffffffffffffffff1673ffffffffffffffffffffffffffffffffffffffff166370a08231306040518263ffffffff1660e01b815260040161042991906115ee565b60206040518083038186803b15801561044157600080fd5b505afa158015610455573d6000803e3d6000fd5b505050506040513d601f19601f8201168201806040525081019061047991906113c9565b90506104ea600260019054906101000a900473ffffffffffffffffffffffffffffffffffffffff1682600360009054906101000a900473ffffffffffffffffffffffffffffffffffffffff1673ffffffffffffffffffffffffffffffffffffffff16610d999092919063ffffffff16565b6000600460009054906101000a900473ffffffffffffffffffffffffffffffffffffffff1673ffffffffffffffffffffffffffffffffffffffff166370a08231306040518263ffffffff1660e01b815260040161054791906115ee565b60206040518083038186803b15801561055f57600080fd5b505afa158015610573573d6000803e3d6000fd5b505050506040513d601f19601f8201168201806040525081019061059791906113c9565b9050610608600260019054906101000a900473ffffffffffffffffffffffffffffffffffffffff1682600360009054906101000a900473ffffffffffffffffffffffffffffffffffffffff1673ffffffffffffffffffffffffffffffffffffffff16610d999092919063ffffffff16565b5050565b610614610d91565b73ffffffffffffffffffffffffffffffffffffffff16610632610ac6565b73ffffffffffffffffffffffffffffffffffffffff1614610688576040517f08c379a000000000000000000000000000000000000000000000000000000000815260040161067f90611791565b60405180910390fd5b6106926000610e1f565b565b600360009054906101000a900473ffffffffffffffffffffffffffffffffffffffff1681565b60026001541415610700576040517f08c379a00000000000000000000000000000000000000000000000000000000081526004016106f7906117f1565b60405180910390fd5b600260018190555060001515600260009054906101000a900460ff1615151461075e576040517f08c379a000000000000000000000000000000000000000000000000000000000815260040161075590611751565b60405180910390fd5b6000600360009054906101000a900473ffffffffffffffffffffffffffffffffffffffff1673ffffffffffffffffffffffffffffffffffffffff166370a08231336040518263ffffffff1660e01b81526004016107bb91906115ee565b60206040518083038186803b1580156107d357600080fd5b505afa1580156107e7573d6000803e3d6000fd5b505050506040513d601f19601f8201168201806040525081019061080b91906113c9565b905061084c6040518060400160405280600981526020017f62616c616e63653a20000000000000000000000000000000000000000000000081525082610ee3565b6000811161088f576040517f08c379a000000000000000000000000000000000000000000000000000000000815260040161088690611731565b60405180910390fd5b80600460009054906101000a900473ffffffffffffffffffffffffffffffffffffffff1673ffffffffffffffffffffffffffffffffffffffff166370a08231306040518263ffffffff1660e01b81526004016108eb91906115ee565b60206040518083038186803b15801561090357600080fd5b505afa158015610917573d6000803e3d6000fd5b505050506040513d601f19601f8201168201806040525081019061093b91906113c9565b101561097c576040517f08c379a0000000000000000000000000000000000000000000000000000000008152600401610973906116f1565b60405180910390fd5b6109cb333083600360009054906101000a900473ffffffffffffffffffffffffffffffffffffffff1673ffffffffffffffffffffffffffffffffffffffff16610f7f909392919063ffffffff16565b610a183382600460009054906101000a900473ffffffffffffffffffffffffffffffffffffffff1673ffffffffffffffffffffffffffffffffffffffff16610d999092919063ffffffff16565b80600560003373ffffffffffffffffffffffffffffffffffffffff1673ffffffffffffffffffffffffffffffffffffffff1681526020019081526020016000206000828254610a67919061185e565b925050819055503373ffffffffffffffffffffffffffffffffffffffff167f77d5ea197411a8912d2048fa88f78748572c6e0eb361487ebedb361b5c248ca482604051610ab49190611811565b60405180910390a25060018081905550565b60008060009054906101000a900473ffffffffffffffffffffffffffffffffffffffff16905090565b600260019054906101000a900473ffffffffffffffffffffffffffffffffffffffff1681565b610b1d610d91565b73ffffffffffffffffffffffffffffffffffffffff16610b3b610ac6565b73ffffffffffffffffffffffffffffffffffffffff1614610b91576040517f08c379a0000000000000000000000000000000000000000000000000000000008152600401610b8890611791565b60405180910390fd5b80600260016101000a81548173ffffffffffffffffffffffffffffffffffffffff021916908373ffffffffffffffffffffffffffffffffffffffff16021790555050565b60056020528060005260406000206000915090505481565b610bf5610d91565b73ffffffffffffffffffffffffffffffffffffffff16610c13610ac6565b73ffffffffffffffffffffffffffffffffffffffff1614610c69576040517f08c379a0000000000000000000000000000000000000000000000000000000008152600401610c6090611791565b60405180910390fd5b80600260006101000a81548160ff02191690831515021790555050565b610c8e610d91565b73ffffffffffffffffffffffffffffffffffffffff16610cac610ac6565b73ffffffffffffffffffffffffffffffffffffffff1614610d02576040517f08c379a0000000000000000000000000000000000000000000000000000000008152600401610cf990611791565b60405180910390fd5b600073ffffffffffffffffffffffffffffffffffffffff168173ffffffffffffffffffffffffffffffffffffffff161415610d72576040517f08c379a0000000000000000000000000000000000000000000000000000000008152600401610d6990611711565b60405180910390fd5b610d7b81610e1f565b50565b600260009054906101000a900460ff1681565b600033905090565b610e1a8363a9059cbb60e01b8484604051602401610db8929190611640565b604051602081830303815290604052907bffffffffffffffffffffffffffffffffffffffffffffffffffffffff19166020820180517bffffffffffffffffffffffffffffffffffffffffffffffffffffffff8381831617835250505050611008565b505050565b60008060009054906101000a900473ffffffffffffffffffffffffffffffffffffffff169050816000806101000a81548173ffffffffffffffffffffffffffffffffffffffff021916908373ffffffffffffffffffffffffffffffffffffffff1602179055508173ffffffffffffffffffffffffffffffffffffffff168173ffffffffffffffffffffffffffffffffffffffff167f8be0079c531659141344cd1fd0a4f28419497f9722a3daafe3b4186f6b6457e060405160405180910390a35050565b610f7b8282604051602401610ef99291906116c1565b6040516020818303038152906040527f9710a9d0000000000000000000000000000000000000000000000000000000007bffffffffffffffffffffffffffffffffffffffffffffffffffffffff19166020820180517bffffffffffffffffffffffffffffffffffffffffffffffffffffffff83818316178352505050506110cf565b5050565b611002846323b872dd60e01b858585604051602401610fa093929190611609565b604051602081830303815290604052907bffffffffffffffffffffffffffffffffffffffffffffffffffffffff19166020820180517bffffffffffffffffffffffffffffffffffffffffffffffffffffffff8381831617835250505050611008565b50505050565b600061106a826040518060400160405280602081526020017f5361666545524332303a206c6f772d6c6576656c2063616c6c206661696c65648152508573ffffffffffffffffffffffffffffffffffffffff166110f89092919063ffffffff16565b90506000815111156110ca578080602001905181019061108a919061139c565b6110c9576040517f08c379a00000000000000000000000000000000000000000000000000000000081526004016110c0906117d1565b60405180910390fd5b5b505050565b60008151905060006a636f6e736f6c652e6c6f679050602083016000808483855afa5050505050565b60606111078484600085611110565b90509392505050565b606082471015611155576040517f08c379a000000000000000000000000000000000000000000000000000000000815260040161114c90611771565b60405180910390fd5b61115e85611224565b61119d576040517f08c379a0000000000000000000000000000000000000000000000000000000008152600401611194906117b1565b60405180910390fd5b6000808673ffffffffffffffffffffffffffffffffffffffff1685876040516111c691906115d7565b60006040518083038185875af1925050503d8060008114611203576040519150601f19603f3d011682016040523d82523d6000602084013e611208565b606091505b5091509150611218828286611247565b92505050949350505050565b6000808273ffffffffffffffffffffffffffffffffffffffff163b119050919050565b60608315611257578290506112a7565b60008351111561126a5782518084602001fd5b816040517f08c379a000000000000000000000000000000000000000000000000000000000815260040161129e919061169f565b60405180910390fd5b9392505050565b6000813590506112bd81611bb3565b92915050565b6000813590506112d281611bca565b92915050565b6000815190506112e781611bca565b92915050565b6000815190506112fc81611be1565b92915050565b60006020828403121561131857611317611994565b5b6000611326848285016112ae565b91505092915050565b6000806040838503121561134657611345611994565b5b6000611354858286016112ae565b9250506020611365858286016112ae565b9150509250929050565b60006020828403121561138557611384611994565b5b6000611393848285016112c3565b91505092915050565b6000602082840312156113b2576113b1611994565b5b60006113c0848285016112d8565b91505092915050565b6000602082840312156113df576113de611994565b5b60006113ed848285016112ed565b91505092915050565b6113ff816118b4565b82525050565b61140e816118c6565b82525050565b600061141f8261182c565b6114298185611842565b9350611439818560208601611932565b80840191505092915050565b61144e816118fc565b82525050565b600061145f82611837565b611469818561184d565b9350611479818560208601611932565b61148281611999565b840191505092915050565b600061149a602d8361184d565b91506114a5826119aa565b604082019050919050565b60006114bd60268361184d565b91506114c8826119f9565b604082019050919050565b60006114e0601f8361184d565b91506114eb82611a48565b602082019050919050565b600061150360058361184d565b915061150e82611a71565b602082019050919050565b600061152660268361184d565b915061153182611a9a565b604082019050919050565b600061154960208361184d565b915061155482611ae9565b602082019050919050565b600061156c601d8361184d565b915061157782611b12565b602082019050919050565b600061158f602a8361184d565b915061159a82611b3b565b604082019050919050565b60006115b2601f8361184d565b91506115bd82611b8a565b602082019050919050565b6115d1816118f2565b82525050565b60006115e38284611414565b915081905092915050565b600060208201905061160360008301846113f6565b92915050565b600060608201905061161e60008301866113f6565b61162b60208301856113f6565b61163860408301846115c8565b949350505050565b600060408201905061165560008301856113f6565b61166260208301846115c8565b9392505050565b600060208201905061167e6000830184611405565b92915050565b60006020820190506116996000830184611445565b92915050565b600060208201905081810360008301526116b98184611454565b905092915050565b600060408201905081810360008301526116db8185611454565b90506116ea60208301846115c8565b9392505050565b6000602082019050818103600083015261170a8161148d565b9050919050565b6000602082019050818103600083015261172a816114b0565b9050919050565b6000602082019050818103600083015261174a816114d3565b9050919050565b6000602082019050818103600083015261176a816114f6565b9050919050565b6000602082019050818103600083015261178a81611519565b9050919050565b600060208201905081810360008301526117aa8161153c565b9050919050565b600060208201905081810360008301526117ca8161155f565b9050919050565b600060208201905081810360008301526117ea81611582565b9050919050565b6000602082019050818103600083015261180a816115a5565b9050919050565b600060208201905061182660008301846115c8565b92915050565b600081519050919050565b600081519050919050565b600081905092915050565b600082825260208201905092915050565b6000611869826118f2565b9150611874836118f2565b9250827fffffffffffffffffffffffffffffffffffffffffffffffffffffffffffffffff038211156118a9576118a8611965565b5b828201905092915050565b60006118bf826118d2565b9050919050565b60008115159050919050565b600073ffffffffffffffffffffffffffffffffffffffff82169050919050565b6000819050919050565b60006119078261190e565b9050919050565b600061191982611920565b9050919050565b600061192b826118d2565b9050919050565b60005b83811015611950578082015181840152602081019050611935565b8381111561195f576000848401525b50505050565b7f4e487b7100000000000000000000000000000000000000000000000000000000600052601160045260246000fd5b600080fd5b6000601f19601f8301169050919050565b7f436f6e747261637420646f65736e2774206861766520656e6f75676820746f6b60008201527f656e20763220746f207377617000000000000000000000000000000000000000602082015250565b7f4f776e61626c653a206e6577206f776e657220697320746865207a65726f206160008201527f6464726573730000000000000000000000000000000000000000000000000000602082015250565b7f596f7520646f6e2774206861766520746f6b656e20763120746f207377617000600082015250565b7f5061757365000000000000000000000000000000000000000000000000000000600082015250565b7f416464726573733a20696e73756666696369656e742062616c616e636520666f60008201527f722063616c6c0000000000000000000000000000000000000000000000000000602082015250565b7f4f776e61626c653a2063616c6c6572206973206e6f7420746865206f776e6572600082015250565b7f416464726573733a2063616c6c20746f206e6f6e2d636f6e7472616374000000600082015250565b7f5361666545524332303a204552433230206f7065726174696f6e20646964206e60008201527f6f74207375636365656400000000000000000000000000000000000000000000602082015250565b7f5265656e7472616e637947756172643a207265656e7472616e742063616c6c00600082015250565b611bbc816118b4565b8114611bc757600080fd5b50565b611bd3816118c6565b8114611bde57600080fd5b50565b611bea816118f2565b8114611bf557600080fd5b5056fea2646970667358221220fe3006dbacfb5b730150a0f71b6430b4748d5e05c068b0fb6781da7d0118362a64736f6c63430008070033",
  "linkReferences": {},
  "deployedLinkReferences": {}
}