{
  "_format": "hh-sol-artifact-1",
  "contractName": "HesmanStaking",
  "sourceName": "contracts/HesmanStaking.sol",
  "abi": [
    {
      "inputs": [
        {
          "internalType": "address",
          "name": "_hesmanToken",
          "type": "address"
        },
        {
          "internalType": "address",
          "name": "_hesicNftAddress",
          "type": "address"
        },
        {
          "internalType": "uint256",
          "name": "_benefitPercentPerYear",
          "type": "uint256"
        },
        {
          "internalType": "uint256",
          "name": "_nftPrice",
          "type": "uint256"
        }
      ],
      "stateMutability": "nonpayable",
      "type": "constructor"
    },
    {
      "anonymous": false,
      "inputs": [
        {
          "indexed": false,
          "internalType": "address",
          "name": "user",
          "type": "address"
        },
        {
          "indexed": false,
          "internalType": "uint256",
          "name": "amount",
          "type": "uint256"
        },
        {
          "indexed": false,
          "internalType": "uint256",
          "name": "time",
          "type": "uint256"
        }
      ],
      "name": "EventUserClaim",
      "type": "event"
    },
    {
      "anonymous": false,
      "inputs": [
        {
          "indexed": true,
          "internalType": "address",
          "name": "user",
          "type": "address"
        },
        {
          "indexed": false,
          "internalType": "address",
          "name": "nft",
          "type": "address"
        },
        {
          "indexed": false,
          "internalType": "uint256",
          "name": "tokenId",
          "type": "uint256"
        },
        {
          "indexed": false,
          "internalType": "uint256",
          "name": "time",
          "type": "uint256"
        }
      ],
      "name": "EventUserClaimNFT",
      "type": "event"
    },
    {
      "anonymous": false,
      "inputs": [
        {
          "indexed": false,
          "internalType": "address",
          "name": "user",
          "type": "address"
        },
        {
          "indexed": false,
          "internalType": "uint256",
          "name": "numberOfNft",
          "type": "uint256"
        },
        {
          "indexed": false,
          "internalType": "uint256",
          "name": "time",
          "type": "uint256"
        }
      ],
      "name": "EventUserStake",
      "type": "event"
    },
    {
      "anonymous": false,
      "inputs": [
        {
          "indexed": false,
          "internalType": "address",
          "name": "user",
          "type": "address"
        },
        {
          "indexed": false,
          "internalType": "uint256",
          "name": "time",
          "type": "uint256"
        }
      ],
      "name": "EventUserUnstake",
      "type": "event"
    },
    {
      "anonymous": false,
      "inputs": [
        {
          "indexed": true,
          "internalType": "address",
          "name": "previousOwner",
          "type": "address"
        },
        {
          "indexed": true,
          "internalType": "address",
          "name": "newOwner",
          "type": "address"
        }
      ],
      "name": "OwnershipTransferred",
      "type": "event"
    },
    {
      "inputs": [
        {
          "internalType": "address",
          "name": "",
          "type": "address"
        }
      ],
      "name": "amountClaim",
      "outputs": [
        {
          "internalType": "uint256",
          "name": "",
          "type": "uint256"
        }
      ],
      "stateMutability": "view",
      "type": "function"
    },
    {
      "inputs": [],
      "name": "benefitPercentPerYear",
      "outputs": [
        {
          "internalType": "uint256",
          "name": "",
          "type": "uint256"
        }
      ],
      "stateMutability": "view",
      "type": "function"
    },
    {
      "inputs": [
        {
          "internalType": "address",
          "name": "",
          "type": "address"
        }
      ],
      "name": "blacklistMap",
      "outputs": [
        {
          "internalType": "bool",
          "name": "",
          "type": "bool"
        }
      ],
      "stateMutability": "view",
      "type": "function"
    },
    {
      "inputs": [],
      "name": "claimToken",
      "outputs": [],
      "stateMutability": "nonpayable",
      "type": "function"
    },
    {
      "inputs": [],
      "name": "emergencyWithdrawSaleToken",
      "outputs": [],
      "stateMutability": "nonpayable",
      "type": "function"
    },
    {
      "inputs": [],
      "name": "endStakeTime",
      "outputs": [
        {
          "internalType": "uint256",
          "name": "",
          "type": "uint256"
        }
      ],
      "stateMutability": "view",
      "type": "function"
    },
    {
      "inputs": [],
      "name": "hesicNftAddress",
      "outputs": [
        {
          "internalType": "address",
          "name": "",
          "type": "address"
        }
      ],
      "stateMutability": "view",
      "type": "function"
    },
    {
      "inputs": [],
      "name": "hesmanToken",
      "outputs": [
        {
          "internalType": "contract ERC20",
          "name": "",
          "type": "address"
        }
      ],
      "stateMutability": "view",
      "type": "function"
    },
    {
      "inputs": [],
      "name": "isPause",
      "outputs": [
        {
          "internalType": "bool",
          "name": "",
          "type": "bool"
        }
      ],
      "stateMutability": "view",
      "type": "function"
    },
    {
      "inputs": [],
      "name": "nftPrice",
      "outputs": [
        {
          "internalType": "uint256",
          "name": "",
          "type": "uint256"
        }
      ],
      "stateMutability": "view",
      "type": "function"
    },
    {
      "inputs": [
        {
          "internalType": "address",
          "name": "",
          "type": "address"
        },
        {
          "internalType": "address",
          "name": "",
          "type": "address"
        },
        {
          "internalType": "uint256",
          "name": "",
          "type": "uint256"
        },
        {
          "internalType": "bytes",
          "name": "",
          "type": "bytes"
        }
      ],
      "name": "onERC721Received",
      "outputs": [
        {
          "internalType": "bytes4",
          "name": "",
          "type": "bytes4"
        }
      ],
      "stateMutability": "nonpayable",
      "type": "function"
    },
    {
      "inputs": [],
      "name": "owner",
      "outputs": [
        {
          "internalType": "address",
          "name": "",
          "type": "address"
        }
      ],
      "stateMutability": "view",
      "type": "function"
    },
    {
      "inputs": [
        {
          "internalType": "address[]",
          "name": "userList",
          "type": "address[]"
        }
      ],
      "name": "removeBlackList",
      "outputs": [],
      "stateMutability": "nonpayable",
      "type": "function"
    },
    {
      "inputs": [],
      "name": "renounceOwnership",
      "outputs": [],
      "stateMutability": "nonpayable",
      "type": "function"
    },
    {
      "inputs": [
        {
          "internalType": "address[]",
          "name": "userList",
          "type": "address[]"
        }
      ],
      "name": "setBlackList",
      "outputs": [],
      "stateMutability": "nonpayable",
      "type": "function"
    },
    {
      "inputs": [
        {
          "internalType": "uint256",
          "name": "_startStakeTime",
          "type": "uint256"
        },
        {
          "internalType": "uint256",
          "name": "_endStakeTime",
          "type": "uint256"
        }
      ],
      "name": "setConfig",
      "outputs": [],
      "stateMutability": "nonpayable",
      "type": "function"
    },
    {
      "inputs": [
        {
          "internalType": "bool",
          "name": "_status",
          "type": "bool"
        }
      ],
      "name": "setPauseContract",
      "outputs": [],
      "stateMutability": "nonpayable",
      "type": "function"
    },
    {
      "inputs": [
        {
          "internalType": "address",
          "name": "_hesmanToken",
          "type": "address"
        },
        {
          "internalType": "address",
          "name": "_hesicNftAddress",
          "type": "address"
        }
      ],
      "name": "setToken",
      "outputs": [],
      "stateMutability": "nonpayable",
      "type": "function"
    },
    {
      "inputs": [
        {
          "internalType": "uint256[]",
          "name": "_idNftList",
          "type": "uint256[]"
        }
      ],
      "name": "stakeNft",
      "outputs": [],
      "stateMutability": "nonpayable",
      "type": "function"
    },
    {
      "inputs": [
        {
          "internalType": "address",
          "name": "",
          "type": "address"
        }
      ],
      "name": "stakedUserMap",
      "outputs": [
        {
          "internalType": "bool",
          "name": "",
          "type": "bool"
        }
      ],
      "stateMutability": "view",
      "type": "function"
    },
    {
      "inputs": [],
      "name": "startStakeTime",
      "outputs": [
        {
          "internalType": "uint256",
          "name": "",
          "type": "uint256"
        }
      ],
      "stateMutability": "view",
      "type": "function"
    },
    {
      "inputs": [],
      "name": "totalUserStaked",
      "outputs": [
        {
          "internalType": "uint256",
          "name": "",
          "type": "uint256"
        }
      ],
      "stateMutability": "view",
      "type": "function"
    },
    {
      "inputs": [
        {
          "internalType": "address",
          "name": "newOwner",
          "type": "address"
        }
      ],
      "name": "transferOwnership",
      "outputs": [],
      "stateMutability": "nonpayable",
      "type": "function"
    },
    {
      "inputs": [],
      "name": "unStakeTime",
      "outputs": [
        {
          "internalType": "uint256",
          "name": "",
          "type": "uint256"
        }
      ],
      "stateMutability": "view",
      "type": "function"
    },
    {
      "inputs": [
        {
          "internalType": "uint256",
          "name": "_amountNft",
          "type": "uint256"
        }
      ],
      "name": "unstakeToken",
      "outputs": [],
      "stateMutability": "nonpayable",
      "type": "function"
    },
    {
      "inputs": [
        {
          "internalType": "address",
          "name": "",
          "type": "address"
        },
        {
          "internalType": "uint256",
          "name": "",
          "type": "uint256"
        }
      ],
      "name": "userNftMap",
      "outputs": [
        {
          "internalType": "uint256",
          "name": "stakeBlock",
          "type": "uint256"
        },
        {
          "internalType": "uint256",
          "name": "nftId",
          "type": "uint256"
        }
      ],
      "stateMutability": "view",
      "type": "function"
    }
  ],
  "bytecode": "0x6080604052670de0b6b3a76400006008553480156200001d57600080fd5b50604051620037d9380380620037d9833981810160405281019062000043919062000219565b62000063620000576200011f60201b60201c565b6200012760201b60201c565b6001808190555083600b60006101000a81548173ffffffffffffffffffffffffffffffffffffffff021916908373ffffffffffffffffffffffffffffffffffffffff16021790555082600c60006101000a81548173ffffffffffffffffffffffffffffffffffffffff021916908373ffffffffffffffffffffffffffffffffffffffff1602179055508160098190555080600a819055506001600760006101000a81548160ff0219169083151502179055505050505062000302565b600033905090565b60008060009054906101000a900473ffffffffffffffffffffffffffffffffffffffff169050816000806101000a81548173ffffffffffffffffffffffffffffffffffffffff021916908373ffffffffffffffffffffffffffffffffffffffff1602179055508173ffffffffffffffffffffffffffffffffffffffff168173ffffffffffffffffffffffffffffffffffffffff167f8be0079c531659141344cd1fd0a4f28419497f9722a3daafe3b4186f6b6457e060405160405180910390a35050565b600081519050620001fc81620002ce565b92915050565b6000815190506200021381620002e8565b92915050565b60008060008060808587031215620002365762000235620002c9565b5b60006200024687828801620001eb565b94505060206200025987828801620001eb565b93505060406200026c8782880162000202565b92505060606200027f8782880162000202565b91505092959194509250565b600062000298826200029f565b9050919050565b600073ffffffffffffffffffffffffffffffffffffffff82169050919050565b6000819050919050565b600080fd5b620002d9816200028b565b8114620002e557600080fd5b50565b620002f381620002bf565b8114620002ff57600080fd5b50565b6134c780620003126000396000f3fe608060405234801561001057600080fd5b506004361061018e5760003560e01c806360d66f7e116100de5780639aa0ea1911610097578063af0efb5211610071578063af0efb521461043a578063e601af7314610458578063f2fde38b14610474578063ff0938a7146104905761018e565b80639aa0ea19146103d05780639bf4113514610400578063a58f03aa1461041c5761018e565b806360d66f7e1461033257806369bdbfbb14610350578063715018a61461036e57806371aec51514610378578063777e092b146103965780638da5cb5b146103b25761018e565b80631e34c5851161014b5780634017cdce116101255780634017cdce146102be5780634451d89f146102da5780634d30b68b146102e45780635481c4df146103145761018e565b80631e34c5851461027c5780631f2c851f146102985780632cfb6688146102a25761018e565b806309d9754e146101935780630a883818146101b15780630d39fc81146101e25780631197a8be14610200578063150b7a02146102305780631da26a8b14610260575b600080fd5b61019b6104ae565b6040516101a89190612db6565b60405180910390f35b6101cb60048036038101906101c691906126e6565b6104b4565b6040516101d9929190612dd1565b60405180910390f35b6101ea6104f5565b6040516101f79190612db6565b60405180910390f35b61021a600480360381019061021591906125f6565b6104fb565b6040516102279190612bb3565b60405180910390f35b61024a60048036038101906102459190612663565b61051b565b6040516102579190612bce565b60405180910390f35b61027a60048036038101906102759190612623565b61052f565b005b61029660048036038101906102919190612874565b610631565b005b6102a0610716565b005b6102bc60048036038101906102b7919061281a565b6108f4565b005b6102d860048036038101906102d39190612773565b611037565b005b6102e2611448565b005b6102fe60048036038101906102f991906125f6565b6119c8565b60405161030b9190612db6565b60405180910390f35b61031c6119e0565b6040516103299190612b01565b60405180910390f35b61033a611a06565b6040516103479190612db6565b60405180910390f35b610358611a0c565b6040516103659190612db6565b60405180910390f35b610376611a12565b005b610380611a9a565b60405161038d9190612db6565b60405180910390f35b6103b060048036038101906103ab9190612726565b611aa0565b005b6103ba611bc1565b6040516103c79190612b01565b60405180910390f35b6103ea60048036038101906103e591906125f6565b611bea565b6040516103f79190612bb3565b60405180910390f35b61041a60048036038101906104159190612726565b611c0a565b005b610424611d2b565b6040516104319190612db6565b60405180910390f35b610442611d31565b60405161044f9190612be9565b60405180910390f35b610472600480360381019061046d91906127c0565b611d57565b005b61048e600480360381019061048991906125f6565b611df0565b005b610498611ee8565b6040516104a59190612bb3565b60405180910390f35b600f5481565b600360205281600052604060002081815481106104d057600080fd5b9060005260206000209060020201600091509150508060000154908060010154905082565b600a5481565b60026020528060005260406000206000915054906101000a900460ff1681565b600063150b7a0260e01b9050949350505050565b610537611efb565b73ffffffffffffffffffffffffffffffffffffffff16610555611bc1565b73ffffffffffffffffffffffffffffffffffffffff16146105ab576040517f08c379a00000000000000000000000000000000000000000000000000000000081526004016105a290612cf6565b60405180910390fd5b81600b60006101000a81548173ffffffffffffffffffffffffffffffffffffffff021916908373ffffffffffffffffffffffffffffffffffffffff16021790555080600c60006101000a81548173ffffffffffffffffffffffffffffffffffffffff021916908373ffffffffffffffffffffffffffffffffffffffff1602179055505050565b610639611efb565b73ffffffffffffffffffffffffffffffffffffffff16610657611bc1565b73ffffffffffffffffffffffffffffffffffffffff16146106ad576040517f08c379a00000000000000000000000000000000000000000000000000000000081526004016106a490612cf6565b60405180910390fd5b8082106106ef576040517f08c379a00000000000000000000000000000000000000000000000000000000081526004016106e690612d96565b60405180910390fd5b81600d8190555080600e819055506001600d5461070c9190612e82565b600f819055505050565b61071e611efb565b73ffffffffffffffffffffffffffffffffffffffff1661073c611bc1565b73ffffffffffffffffffffffffffffffffffffffff1614610792576040517f08c379a000000000000000000000000000000000000000000000000000000000815260040161078990612cf6565b60405180910390fd5b6000600b60009054906101000a900473ffffffffffffffffffffffffffffffffffffffff1673ffffffffffffffffffffffffffffffffffffffff166370a08231306040518263ffffffff1660e01b81526004016107ef9190612b01565b60206040518083038186803b15801561080757600080fd5b505afa15801561081b573d6000803e3d6000fd5b505050506040513d601f19601f8201168201806040525081019061083f9190612847565b9050600b60009054906101000a900473ffffffffffffffffffffffffffffffffffffffff1673ffffffffffffffffffffffffffffffffffffffff1663a9059cbb33836040518363ffffffff1660e01b815260040161089e929190612b53565b602060405180830381600087803b1580156108b857600080fd5b505af11580156108cc573d6000803e3d6000fd5b505050506040513d601f19601f820116820180604052508101906108f091906127ed565b5050565b6002600154141561093a576040517f08c379a000000000000000000000000000000000000000000000000000000000815260040161093190612d76565b60405180910390fd5b600260018190555060001515600460003373ffffffffffffffffffffffffffffffffffffffff1673ffffffffffffffffffffffffffffffffffffffff16815260200190815260200160002060009054906101000a900460ff161515146109d5576040517f08c379a00000000000000000000000000000000000000000000000000000000081526004016109cc90612c96565b60405180910390fd5b600080600360003373ffffffffffffffffffffffffffffffffffffffff1673ffffffffffffffffffffffffffffffffffffffff16815260200190815260200160002080549050905060008111610a60576040517f08c379a0000000000000000000000000000000000000000000000000000000008152600401610a5790612cd6565b60405180910390fd5b610a9f6040518060400160405280601281526020017f757365724e667420696e20756e7374616b65000000000000000000000000000081525082611f03565b60005b83811015610c5e576000600360003373ffffffffffffffffffffffffffffffffffffffff1673ffffffffffffffffffffffffffffffffffffffff1681526020019081526020016000208281548110610afd57610afc61318a565b5b90600052602060002090600202016000015443610b1a9190612f63565b9050610b5b6040518060400160405280600e81526020017f6e756d6265724f66426c6f636b7300000000000000000000000000000000000081525082611f03565b610b70600a5482611f9f90919063ffffffff16565b9350610baf629e3400610ba16064610b9360095489611f9f90919063ffffffff16565b611fb590919063ffffffff16565b611fb590919063ffffffff16565b600560003373ffffffffffffffffffffffffffffffffffffffff1673ffffffffffffffffffffffffffffffffffffffff1681526020019081526020016000206000828254610bfd9190612e82565b92505081905550610c4a84610c45629e3400610c376064610c296009548b611f9f90919063ffffffff16565b611fb590919063ffffffff16565b611fb590919063ffffffff16565b611fcb565b508080610c56906130b4565b915050610aa2565b5060005b83811015610db9576000600360003373ffffffffffffffffffffffffffffffffffffffff1673ffffffffffffffffffffffffffffffffffffffff1681526020019081526020016000208281548110610cbd57610cbc61318a565b5b90600052602060002090600202019050600c60009054906101000a900473ffffffffffffffffffffffffffffffffffffffff1673ffffffffffffffffffffffffffffffffffffffff166323b872dd303384600101546040518463ffffffff1660e01b8152600401610d3093929190612b1c565b600060405180830381600087803b158015610d4a57600080fd5b505af1158015610d5e573d6000803e3d6000fd5b50505050610da56040518060400160405280600581526020017f6e667449640000000000000000000000000000000000000000000000000000008152508260010154611f03565b508080610db1906130b4565b915050610c62565b5060005b83811015610f7357600360003373ffffffffffffffffffffffffffffffffffffffff1673ffffffffffffffffffffffffffffffffffffffff1681526020019081526020016000206001600360003373ffffffffffffffffffffffffffffffffffffffff1673ffffffffffffffffffffffffffffffffffffffff16815260200190815260200160002080549050610e539190612f63565b81548110610e6457610e6361318a565b5b9060005260206000209060020201600360003373ffffffffffffffffffffffffffffffffffffffff1673ffffffffffffffffffffffffffffffffffffffff1681526020019081526020016000208281548110610ec357610ec261318a565b5b90600052602060002090600202016000820154816000015560018201548160010155905050600360003373ffffffffffffffffffffffffffffffffffffffff1673ffffffffffffffffffffffffffffffffffffffff168152602001908152602001600020805480610f3757610f3661315b565b5b60019003818190600052602060002090600202016000808201600090556001820160009055505090558080610f6b906130b4565b915050610dbd565b50610ff26040518060400160405280600881526020017f616d6d6f756e743a000000000000000000000000000000000000000000000000815250600560003373ffffffffffffffffffffffffffffffffffffffff1673ffffffffffffffffffffffffffffffffffffffff16815260200190815260200160002054611f03565b7fb9656e7a29471c52d3abcf58c973bbfafa69456c3a7dba2ee0daada6d6d1aba43343604051611023929190612b53565b60405180910390a150506001808190555050565b6002600154141561107d576040517f08c379a000000000000000000000000000000000000000000000000000000000815260040161107490612d76565b60405180910390fd5b600260018190555060001515600760009054906101000a900460ff161515146110db576040517f08c379a00000000000000000000000000000000000000000000000000000000081526004016110d290612d56565b60405180910390fd5b60001515600460003373ffffffffffffffffffffffffffffffffffffffff1673ffffffffffffffffffffffffffffffffffffffff16815260200190815260200160002060009054906101000a900460ff1615151461116e576040517f08c379a000000000000000000000000000000000000000000000000000000000815260040161116590612c96565b60405180910390fd5b600082829050116111b4576040517f08c379a00000000000000000000000000000000000000000000000000000000081526004016111ab90612c56565b60405180910390fd5b60001515600260003373ffffffffffffffffffffffffffffffffffffffff1673ffffffffffffffffffffffffffffffffffffffff16815260200190815260200160002060009054906101000a900460ff161515141561127e576001600260003373ffffffffffffffffffffffffffffffffffffffff1673ffffffffffffffffffffffffffffffffffffffff16815260200190815260200160002060006101000a81548160ff02191690831515021790555060066000815480929190611278906130b4565b91905055505b611286612457565b60005b838390508110156113fd57438260000181815250508383828181106112b1576112b061318a565b5b90506020020135826020018181525050600360003373ffffffffffffffffffffffffffffffffffffffff1673ffffffffffffffffffffffffffffffffffffffff16815260200190815260200160002082908060018154018082558091505060019003906000526020600020906002020160009091909190915060008201518160000155602082015181600101555050600c60009054906101000a900473ffffffffffffffffffffffffffffffffffffffff1673ffffffffffffffffffffffffffffffffffffffff166323b872dd33308787868181106113935761139261318a565b5b905060200201356040518463ffffffff1660e01b81526004016113b893929190612b1c565b600060405180830381600087803b1580156113d257600080fd5b505af11580156113e6573d6000803e3d6000fd5b5050505080806113f5906130b4565b915050611289565b507ff631376cacfb1b6aba2490572db8eba7204cd68f94db54296ec52fc97ae0627533848490504360405161143493929190612b7c565b60405180910390a150600180819055505050565b6002600154141561148e576040517f08c379a000000000000000000000000000000000000000000000000000000000815260040161148590612d76565b60405180910390fd5b600260018190555060001515600760009054906101000a900460ff161515146114ec576040517f08c379a00000000000000000000000000000000000000000000000000000000081526004016114e390612d56565b60405180910390fd5b60001515600460003373ffffffffffffffffffffffffffffffffffffffff1673ffffffffffffffffffffffffffffffffffffffff16815260200190815260200160002060009054906101000a900460ff1615151461157f576040517f08c379a000000000000000000000000000000000000000000000000000000000815260040161157690612c96565b60405180910390fd5b600080600360003373ffffffffffffffffffffffffffffffffffffffff1673ffffffffffffffffffffffffffffffffffffffff1681526020019081526020016000208054905090506116066040518060400160405280601081526020017f757365724e667420696e20636c61696d0000000000000000000000000000000081525082611f03565b60005b8181101561182c576000600360003373ffffffffffffffffffffffffffffffffffffffff1673ffffffffffffffffffffffffffffffffffffffff16815260200190815260200160002082815481106116645761166361318a565b5b906000526020600020906002020160000154436116819190612f63565b90506116c26040518060400160405280600e81526020017f6e756d6265724f66426c6f636b7300000000000000000000000000000000000081525082611f03565b6116d7600a5482611f9f90919063ffffffff16565b9350611716629e340061170860646116fa60095489611f9f90919063ffffffff16565b611fb590919063ffffffff16565b611fb590919063ffffffff16565b600560003373ffffffffffffffffffffffffffffffffffffffff1673ffffffffffffffffffffffffffffffffffffffff16815260200190815260200160002060008282546117649190612e82565b925050819055506117b1846117ac629e340061179e60646117906009548b611f9f90919063ffffffff16565b611fb590919063ffffffff16565b611fb590919063ffffffff16565b611fcb565b43600360003373ffffffffffffffffffffffffffffffffffffffff1673ffffffffffffffffffffffffffffffffffffffff16815260200190815260200160002083815481106118035761180261318a565b5b906000526020600020906002020160000181905550508080611824906130b4565b915050611609565b506118ab6040518060400160405280600881526020017f616d6d6f756e743a000000000000000000000000000000000000000000000000815250600560003373ffffffffffffffffffffffffffffffffffffffff1673ffffffffffffffffffffffffffffffffffffffff16815260200190815260200160002054611f03565b6000600560003373ffffffffffffffffffffffffffffffffffffffff1673ffffffffffffffffffffffffffffffffffffffff16815260200190815260200160002054905061193c3382600b60009054906101000a900473ffffffffffffffffffffffffffffffffffffffff1673ffffffffffffffffffffffffffffffffffffffff166120679092919063ffffffff16565b6000600560003373ffffffffffffffffffffffffffffffffffffffff1673ffffffffffffffffffffffffffffffffffffffff168152602001908152602001600020819055507fd458cbd7941a406cf0211a0f3f08d437b196748d53096e98baf5a27041c2ea263382426040516119b493929190612b7c565b60405180910390a150505060018081905550565b60056020528060005260406000206000915090505481565b600c60009054906101000a900473ffffffffffffffffffffffffffffffffffffffff1681565b60065481565b60095481565b611a1a611efb565b73ffffffffffffffffffffffffffffffffffffffff16611a38611bc1565b73ffffffffffffffffffffffffffffffffffffffff1614611a8e576040517f08c379a0000000000000000000000000000000000000000000000000000000008152600401611a8590612cf6565b60405180910390fd5b611a9860006120ed565b565b600d5481565b611aa8611efb565b73ffffffffffffffffffffffffffffffffffffffff16611ac6611bc1565b73ffffffffffffffffffffffffffffffffffffffff1614611b1c576040517f08c379a0000000000000000000000000000000000000000000000000000000008152600401611b1390612cf6565b60405180910390fd5b60005b82829050811015611bbc57600160046000858585818110611b4357611b4261318a565b5b9050602002016020810190611b5891906125f6565b73ffffffffffffffffffffffffffffffffffffffff1673ffffffffffffffffffffffffffffffffffffffff16815260200190815260200160002060006101000a81548160ff0219169083151502179055508080611bb4906130b4565b915050611b1f565b505050565b60008060009054906101000a900473ffffffffffffffffffffffffffffffffffffffff16905090565b60046020528060005260406000206000915054906101000a900460ff1681565b611c12611efb565b73ffffffffffffffffffffffffffffffffffffffff16611c30611bc1565b73ffffffffffffffffffffffffffffffffffffffff1614611c86576040517f08c379a0000000000000000000000000000000000000000000000000000000008152600401611c7d90612cf6565b60405180910390fd5b60005b82829050811015611d2657600060046000858585818110611cad57611cac61318a565b5b9050602002016020810190611cc291906125f6565b73ffffffffffffffffffffffffffffffffffffffff1673ffffffffffffffffffffffffffffffffffffffff16815260200190815260200160002060006101000a81548160ff0219169083151502179055508080611d1e906130b4565b915050611c89565b505050565b600e5481565b600b60009054906101000a900473ffffffffffffffffffffffffffffffffffffffff1681565b611d5f611efb565b73ffffffffffffffffffffffffffffffffffffffff16611d7d611bc1565b73ffffffffffffffffffffffffffffffffffffffff1614611dd3576040517f08c379a0000000000000000000000000000000000000000000000000000000008152600401611dca90612cf6565b60405180910390fd5b80600760006101000a81548160ff02191690831515021790555050565b611df8611efb565b73ffffffffffffffffffffffffffffffffffffffff16611e16611bc1565b73ffffffffffffffffffffffffffffffffffffffff1614611e6c576040517f08c379a0000000000000000000000000000000000000000000000000000000008152600401611e6390612cf6565b60405180910390fd5b600073ffffffffffffffffffffffffffffffffffffffff168173ffffffffffffffffffffffffffffffffffffffff161415611edc576040517f08c379a0000000000000000000000000000000000000000000000000000000008152600401611ed390612c76565b60405180910390fd5b611ee5816120ed565b50565b600760009054906101000a900460ff1681565b600033905090565b611f9b8282604051602401611f19929190612c26565b6040516020818303038152906040527f9710a9d0000000000000000000000000000000000000000000000000000000007bffffffffffffffffffffffffffffffffffffffffffffffffffffffff19166020820180517bffffffffffffffffffffffffffffffffffffffffffffffffffffffff83818316178352505050506121b1565b5050565b60008183611fad9190612f09565b905092915050565b60008183611fc39190612ed8565b905092915050565b6120638282604051602401611fe1929190612dd1565b6040516020818303038152906040527f6c0f6980000000000000000000000000000000000000000000000000000000007bffffffffffffffffffffffffffffffffffffffffffffffffffffffff19166020820180517bffffffffffffffffffffffffffffffffffffffffffffffffffffffff83818316178352505050506121b1565b5050565b6120e88363a9059cbb60e01b8484604051602401612086929190612b53565b604051602081830303815290604052907bffffffffffffffffffffffffffffffffffffffffffffffffffffffff19166020820180517bffffffffffffffffffffffffffffffffffffffffffffffffffffffff83818316178352505050506121da565b505050565b60008060009054906101000a900473ffffffffffffffffffffffffffffffffffffffff169050816000806101000a81548173ffffffffffffffffffffffffffffffffffffffff021916908373ffffffffffffffffffffffffffffffffffffffff1602179055508173ffffffffffffffffffffffffffffffffffffffff168173ffffffffffffffffffffffffffffffffffffffff167f8be0079c531659141344cd1fd0a4f28419497f9722a3daafe3b4186f6b6457e060405160405180910390a35050565b60008151905060006a636f6e736f6c652e6c6f679050602083016000808483855afa5050505050565b600061223c826040518060400160405280602081526020017f5361666545524332303a206c6f772d6c6576656c2063616c6c206661696c65648152508573ffffffffffffffffffffffffffffffffffffffff166122a19092919063ffffffff16565b905060008151111561229c578080602001905181019061225c91906127ed565b61229b576040517f08c379a000000000000000000000000000000000000000000000000000000000815260040161229290612d36565b60405180910390fd5b5b505050565b60606122b084846000856122b9565b90509392505050565b6060824710156122fe576040517f08c379a00000000000000000000000000000000000000000000000000000000081526004016122f590612cb6565b60405180910390fd5b612307856123cd565b612346576040517f08c379a000000000000000000000000000000000000000000000000000000000815260040161233d90612d16565b60405180910390fd5b6000808673ffffffffffffffffffffffffffffffffffffffff16858760405161236f9190612aea565b60006040518083038185875af1925050503d80600081146123ac576040519150601f19603f3d011682016040523d82523d6000602084013e6123b1565b606091505b50915091506123c18282866123f0565b92505050949350505050565b6000808273ffffffffffffffffffffffffffffffffffffffff163b119050919050565b6060831561240057829050612450565b6000835111156124135782518084602001fd5b816040517f08c379a00000000000000000000000000000000000000000000000000000000081526004016124479190612c04565b60405180910390fd5b9392505050565b604051806040016040528060008152602001600081525090565b600061248461247f84612e1f565b612dfa565b9050828152602081018484840111156124a05761249f6131f7565b5b6124ab848285613041565b509392505050565b6000813590506124c28161344c565b92915050565b60008083601f8401126124de576124dd6131ed565b5b8235905067ffffffffffffffff8111156124fb576124fa6131e8565b5b602083019150836020820283011115612517576125166131f2565b5b9250929050565b60008083601f840112612534576125336131ed565b5b8235905067ffffffffffffffff811115612551576125506131e8565b5b60208301915083602082028301111561256d5761256c6131f2565b5b9250929050565b60008135905061258381613463565b92915050565b60008151905061259881613463565b92915050565b600082601f8301126125b3576125b26131ed565b5b81356125c3848260208601612471565b91505092915050565b6000813590506125db8161347a565b92915050565b6000815190506125f08161347a565b92915050565b60006020828403121561260c5761260b613201565b5b600061261a848285016124b3565b91505092915050565b6000806040838503121561263a57612639613201565b5b6000612648858286016124b3565b9250506020612659858286016124b3565b9150509250929050565b6000806000806080858703121561267d5761267c613201565b5b600061268b878288016124b3565b945050602061269c878288016124b3565b93505060406126ad878288016125cc565b925050606085013567ffffffffffffffff8111156126ce576126cd6131fc565b5b6126da8782880161259e565b91505092959194509250565b600080604083850312156126fd576126fc613201565b5b600061270b858286016124b3565b925050602061271c858286016125cc565b9150509250929050565b6000806020838503121561273d5761273c613201565b5b600083013567ffffffffffffffff81111561275b5761275a6131fc565b5b612767858286016124c8565b92509250509250929050565b6000806020838503121561278a57612789613201565b5b600083013567ffffffffffffffff8111156127a8576127a76131fc565b5b6127b48582860161251e565b92509250509250929050565b6000602082840312156127d6576127d5613201565b5b60006127e484828501612574565b91505092915050565b60006020828403121561280357612802613201565b5b600061281184828501612589565b91505092915050565b6000602082840312156128305761282f613201565b5b600061283e848285016125cc565b91505092915050565b60006020828403121561285d5761285c613201565b5b600061286b848285016125e1565b91505092915050565b6000806040838503121561288b5761288a613201565b5b6000612899858286016125cc565b92505060206128aa858286016125cc565b9150509250929050565b6128bd81612f97565b82525050565b6128cc81612fa9565b82525050565b6128db81612fb5565b82525050565b60006128ec82612e50565b6128f68185612e66565b9350612906818560208601613050565b80840191505092915050565b61291b8161300b565b82525050565b600061292c82612e5b565b6129368185612e71565b9350612946818560208601613050565b61294f81613206565b840191505092915050565b6000612967601e83612e71565b915061297282613217565b602082019050919050565b600061298a602683612e71565b915061299582613240565b604082019050919050565b60006129ad601483612e71565b91506129b88261328f565b602082019050919050565b60006129d0602683612e71565b91506129db826132b8565b604082019050919050565b60006129f3601883612e71565b91506129fe82613307565b602082019050919050565b6000612a16602083612e71565b9150612a2182613330565b602082019050919050565b6000612a39601d83612e71565b9150612a4482613359565b602082019050919050565b6000612a5c602a83612e71565b9150612a6782613382565b604082019050919050565b6000612a7f601283612e71565b9150612a8a826133d1565b602082019050919050565b6000612aa2601f83612e71565b9150612aad826133fa565b602082019050919050565b6000612ac5601a83612e71565b9150612ad082613423565b602082019050919050565b612ae481613001565b82525050565b6000612af682846128e1565b915081905092915050565b6000602082019050612b1660008301846128b4565b92915050565b6000606082019050612b3160008301866128b4565b612b3e60208301856128b4565b612b4b6040830184612adb565b949350505050565b6000604082019050612b6860008301856128b4565b612b756020830184612adb565b9392505050565b6000606082019050612b9160008301866128b4565b612b9e6020830185612adb565b612bab6040830184612adb565b949350505050565b6000602082019050612bc860008301846128c3565b92915050565b6000602082019050612be360008301846128d2565b92915050565b6000602082019050612bfe6000830184612912565b92915050565b60006020820190508181036000830152612c1e8184612921565b905092915050565b60006040820190508181036000830152612c408185612921565b9050612c4f6020830184612adb565b9392505050565b60006020820190508181036000830152612c6f8161295a565b9050919050565b60006020820190508181036000830152612c8f8161297d565b9050919050565b60006020820190508181036000830152612caf816129a0565b9050919050565b60006020820190508181036000830152612ccf816129c3565b9050919050565b60006020820190508181036000830152612cef816129e6565b9050919050565b60006020820190508181036000830152612d0f81612a09565b9050919050565b60006020820190508181036000830152612d2f81612a2c565b9050919050565b60006020820190508181036000830152612d4f81612a4f565b9050919050565b60006020820190508181036000830152612d6f81612a72565b9050919050565b60006020820190508181036000830152612d8f81612a95565b9050919050565b60006020820190508181036000830152612daf81612ab8565b9050919050565b6000602082019050612dcb6000830184612adb565b92915050565b6000604082019050612de66000830185612adb565b612df36020830184612adb565b9392505050565b6000612e04612e15565b9050612e108282613083565b919050565b6000604051905090565b600067ffffffffffffffff821115612e3a57612e396131b9565b5b612e4382613206565b9050602081019050919050565b600081519050919050565b600081519050919050565b600081905092915050565b600082825260208201905092915050565b6000612e8d82613001565b9150612e9883613001565b9250827fffffffffffffffffffffffffffffffffffffffffffffffffffffffffffffffff03821115612ecd57612ecc6130fd565b5b828201905092915050565b6000612ee382613001565b9150612eee83613001565b925082612efe57612efd61312c565b5b828204905092915050565b6000612f1482613001565b9150612f1f83613001565b9250817fffffffffffffffffffffffffffffffffffffffffffffffffffffffffffffffff0483118215151615612f5857612f576130fd565b5b828202905092915050565b6000612f6e82613001565b9150612f7983613001565b925082821015612f8c57612f8b6130fd565b5b828203905092915050565b6000612fa282612fe1565b9050919050565b60008115159050919050565b60007fffffffff0000000000000000000000000000000000000000000000000000000082169050919050565b600073ffffffffffffffffffffffffffffffffffffffff82169050919050565b6000819050919050565b60006130168261301d565b9050919050565b60006130288261302f565b9050919050565b600061303a82612fe1565b9050919050565b82818337600083830152505050565b60005b8381101561306e578082015181840152602081019050613053565b8381111561307d576000848401525b50505050565b61308c82613206565b810181811067ffffffffffffffff821117156130ab576130aa6131b9565b5b80604052505050565b60006130bf82613001565b91507fffffffffffffffffffffffffffffffffffffffffffffffffffffffffffffffff8214156130f2576130f16130fd565b5b600182019050919050565b7f4e487b7100000000000000000000000000000000000000000000000000000000600052601160045260246000fd5b7f4e487b7100000000000000000000000000000000000000000000000000000000600052601260045260246000fd5b7f4e487b7100000000000000000000000000000000000000000000000000000000600052603160045260246000fd5b7f4e487b7100000000000000000000000000000000000000000000000000000000600052603260045260246000fd5b7f4e487b7100000000000000000000000000000000000000000000000000000000600052604160045260246000fd5b600080fd5b600080fd5b600080fd5b600080fd5b600080fd5b600080fd5b6000601f19601f8301169050919050565b7f4e465473206861766520746f2062652067726561746572207468616e20300000600082015250565b7f4f776e61626c653a206e6577206f776e657220697320746865207a65726f206160008201527f6464726573730000000000000000000000000000000000000000000000000000602082015250565b7f596f752061726520696e20426c61636b6c697374000000000000000000000000600082015250565b7f416464726573733a20696e73756666696369656e742062616c616e636520666f60008201527f722063616c6c0000000000000000000000000000000000000000000000000000602082015250565b7f596f7520646964206e6f74207374616b65206265666f72650000000000000000600082015250565b7f4f776e61626c653a2063616c6c6572206973206e6f7420746865206f776e6572600082015250565b7f416464726573733a2063616c6c20746f206e6f6e2d636f6e7472616374000000600082015250565b7f5361666545524332303a204552433230206f7065726174696f6e20646964206e60008201527f6f74207375636365656400000000000000000000000000000000000000000000602082015250565b7f436f6e7472616374206973207061757365640000000000000000000000000000600082015250565b7f5265656e7472616e637947756172643a207265656e7472616e742063616c6c00600082015250565b7f496e7075742074696d65207374616b696e6720696e76616c6964000000000000600082015250565b61345581612f97565b811461346057600080fd5b50565b61346c81612fa9565b811461347757600080fd5b50565b61348381613001565b811461348e57600080fd5b5056fea2646970667358221220059e91727ca05d2ca48a2b80e17e25f2c9386c21965d6f83e22ac624e6ceed8664736f6c63430008070033",
  "linkReferences": {},
  "deployedLinkReferences": {}
}