{
  "_format": "hh-sol-artifact-1",
  "contractName": "HesmanStakingV3",
  "sourceName": "contracts/HesmanStakingv3.sol",
  "abi": [
    {
      "inputs": [
        {
          "internalType": "address",
          "name": "_hesmanToken",
          "type": "address"
        },
        {
          "internalType": "address",
          "name": "_hesicNftAddress",
          "type": "address"
        }
      ],
      "stateMutability": "nonpayable",
      "type": "constructor"
    },
    {
      "anonymous": false,
      "inputs": [
        {
          "indexed": false,
          "internalType": "address",
          "name": "user",
          "type": "address"
        },
        {
          "indexed": false,
          "internalType": "uint256",
          "name": "amount",
          "type": "uint256"
        },
        {
          "indexed": false,
          "internalType": "uint256",
          "name": "blockNumber",
          "type": "uint256"
        }
      ],
      "name": "EventUserClaim",
      "type": "event"
    },
    {
      "anonymous": false,
      "inputs": [
        {
          "indexed": true,
          "internalType": "address",
          "name": "user",
          "type": "address"
        },
        {
          "indexed": false,
          "internalType": "address",
          "name": "nft",
          "type": "address"
        },
        {
          "indexed": false,
          "internalType": "uint256",
          "name": "tokenId",
          "type": "uint256"
        },
        {
          "indexed": false,
          "internalType": "uint256",
          "name": "blockNumber",
          "type": "uint256"
        }
      ],
      "name": "EventUserClaimNFT",
      "type": "event"
    },
    {
      "anonymous": false,
      "inputs": [
        {
          "indexed": false,
          "internalType": "address",
          "name": "user",
          "type": "address"
        },
        {
          "indexed": false,
          "internalType": "uint256",
          "name": "numberOfNft",
          "type": "uint256"
        },
        {
          "indexed": false,
          "internalType": "uint256",
          "name": "blockNumber",
          "type": "uint256"
        },
        {
          "indexed": false,
          "internalType": "uint256",
          "name": "amount",
          "type": "uint256"
        }
      ],
      "name": "EventUserStake",
      "type": "event"
    },
    {
      "anonymous": false,
      "inputs": [
        {
          "indexed": true,
          "internalType": "address",
          "name": "user",
          "type": "address"
        },
        {
          "indexed": false,
          "internalType": "address",
          "name": "nft",
          "type": "address"
        },
        {
          "indexed": false,
          "internalType": "uint256",
          "name": "tokenId",
          "type": "uint256"
        },
        {
          "indexed": false,
          "internalType": "uint256",
          "name": "blockNumber",
          "type": "uint256"
        }
      ],
      "name": "EventUserStakeNFT",
      "type": "event"
    },
    {
      "anonymous": false,
      "inputs": [
        {
          "indexed": false,
          "internalType": "address",
          "name": "user",
          "type": "address"
        },
        {
          "indexed": false,
          "internalType": "uint256",
          "name": "blockNumber",
          "type": "uint256"
        },
        {
          "indexed": false,
          "internalType": "uint256",
          "name": "amount",
          "type": "uint256"
        }
      ],
      "name": "EventUserUnstake",
      "type": "event"
    },
    {
      "anonymous": false,
      "inputs": [
        {
          "indexed": true,
          "internalType": "address",
          "name": "previousOwner",
          "type": "address"
        },
        {
          "indexed": true,
          "internalType": "address",
          "name": "newOwner",
          "type": "address"
        }
      ],
      "name": "OwnershipTransferred",
      "type": "event"
    },
    {
      "inputs": [
        {
          "internalType": "address",
          "name": "",
          "type": "address"
        }
      ],
      "name": "blacklistMap",
      "outputs": [
        {
          "internalType": "bool",
          "name": "",
          "type": "bool"
        }
      ],
      "stateMutability": "view",
      "type": "function"
    },
    {
      "inputs": [],
      "name": "claimToken",
      "outputs": [],
      "stateMutability": "nonpayable",
      "type": "function"
    },
    {
      "inputs": [],
      "name": "emergencyWithdrawSaleToken",
      "outputs": [],
      "stateMutability": "nonpayable",
      "type": "function"
    },
    {
      "inputs": [],
      "name": "endStakeTime",
      "outputs": [
        {
          "internalType": "uint256",
          "name": "",
          "type": "uint256"
        }
      ],
      "stateMutability": "view",
      "type": "function"
    },
    {
      "inputs": [],
      "name": "getCurrentBlock",
      "outputs": [
        {
          "internalType": "uint256",
          "name": "blockNb",
          "type": "uint256"
        }
      ],
      "stateMutability": "view",
      "type": "function"
    },
    {
      "inputs": [
        {
          "internalType": "address",
          "name": "user",
          "type": "address"
        }
      ],
      "name": "getInterest",
      "outputs": [
        {
          "internalType": "uint256",
          "name": "nftTotalGain",
          "type": "uint256"
        }
      ],
      "stateMutability": "view",
      "type": "function"
    },
    {
      "inputs": [
        {
          "internalType": "address",
          "name": "user",
          "type": "address"
        }
      ],
      "name": "getNftNumber",
      "outputs": [
        {
          "internalType": "uint256",
          "name": "",
          "type": "uint256"
        }
      ],
      "stateMutability": "view",
      "type": "function"
    },
    {
      "inputs": [],
      "name": "hesicNftAddress",
      "outputs": [
        {
          "internalType": "address",
          "name": "",
          "type": "address"
        }
      ],
      "stateMutability": "view",
      "type": "function"
    },
    {
      "inputs": [],
      "name": "hesmanToken",
      "outputs": [
        {
          "internalType": "contract ERC20",
          "name": "",
          "type": "address"
        }
      ],
      "stateMutability": "view",
      "type": "function"
    },
    {
      "inputs": [],
      "name": "isPause",
      "outputs": [
        {
          "internalType": "bool",
          "name": "",
          "type": "bool"
        }
      ],
      "stateMutability": "view",
      "type": "function"
    },
    {
      "inputs": [
        {
          "internalType": "address",
          "name": "",
          "type": "address"
        }
      ],
      "name": "isStaked",
      "outputs": [
        {
          "internalType": "bool",
          "name": "",
          "type": "bool"
        }
      ],
      "stateMutability": "view",
      "type": "function"
    },
    {
      "inputs": [],
      "name": "minInterest",
      "outputs": [
        {
          "internalType": "uint256",
          "name": "",
          "type": "uint256"
        }
      ],
      "stateMutability": "view",
      "type": "function"
    },
    {
      "inputs": [
        {
          "internalType": "address",
          "name": "",
          "type": "address"
        },
        {
          "internalType": "uint256",
          "name": "",
          "type": "uint256"
        }
      ],
      "name": "nftIdList",
      "outputs": [
        {
          "internalType": "uint256",
          "name": "",
          "type": "uint256"
        }
      ],
      "stateMutability": "view",
      "type": "function"
    },
    {
      "inputs": [],
      "name": "nftToHes",
      "outputs": [
        {
          "internalType": "uint256",
          "name": "",
          "type": "uint256"
        }
      ],
      "stateMutability": "view",
      "type": "function"
    },
    {
      "inputs": [
        {
          "internalType": "address",
          "name": "",
          "type": "address"
        },
        {
          "internalType": "address",
          "name": "",
          "type": "address"
        },
        {
          "internalType": "uint256",
          "name": "",
          "type": "uint256"
        },
        {
          "internalType": "bytes",
          "name": "",
          "type": "bytes"
        }
      ],
      "name": "onERC721Received",
      "outputs": [
        {
          "internalType": "bytes4",
          "name": "",
          "type": "bytes4"
        }
      ],
      "stateMutability": "nonpayable",
      "type": "function"
    },
    {
      "inputs": [],
      "name": "owner",
      "outputs": [
        {
          "internalType": "address",
          "name": "",
          "type": "address"
        }
      ],
      "stateMutability": "view",
      "type": "function"
    },
    {
      "inputs": [
        {
          "internalType": "address[]",
          "name": "userList",
          "type": "address[]"
        }
      ],
      "name": "removeBlackList",
      "outputs": [],
      "stateMutability": "nonpayable",
      "type": "function"
    },
    {
      "inputs": [],
      "name": "renounceOwnership",
      "outputs": [],
      "stateMutability": "nonpayable",
      "type": "function"
    },
    {
      "inputs": [
        {
          "internalType": "address[]",
          "name": "userList",
          "type": "address[]"
        }
      ],
      "name": "setBlackList",
      "outputs": [],
      "stateMutability": "nonpayable",
      "type": "function"
    },
    {
      "inputs": [
        {
          "internalType": "uint256",
          "name": "_startStakeTime",
          "type": "uint256"
        },
        {
          "internalType": "uint256",
          "name": "_endStakeTime",
          "type": "uint256"
        }
      ],
      "name": "setConfig",
      "outputs": [],
      "stateMutability": "nonpayable",
      "type": "function"
    },
    {
      "inputs": [
        {
          "internalType": "uint256",
          "name": "_nftToHes",
          "type": "uint256"
        }
      ],
      "name": "setNftToHes",
      "outputs": [],
      "stateMutability": "nonpayable",
      "type": "function"
    },
    {
      "inputs": [
        {
          "internalType": "bool",
          "name": "_status",
          "type": "bool"
        }
      ],
      "name": "setPauseContract",
      "outputs": [],
      "stateMutability": "nonpayable",
      "type": "function"
    },
    {
      "inputs": [
        {
          "internalType": "bool",
          "name": "_status",
          "type": "bool"
        }
      ],
      "name": "setStopProfit",
      "outputs": [],
      "stateMutability": "nonpayable",
      "type": "function"
    },
    {
      "inputs": [
        {
          "internalType": "address",
          "name": "_hesmanToken",
          "type": "address"
        },
        {
          "internalType": "address",
          "name": "_hesicNftAddress",
          "type": "address"
        }
      ],
      "name": "setToken",
      "outputs": [],
      "stateMutability": "nonpayable",
      "type": "function"
    },
    {
      "inputs": [
        {
          "internalType": "address",
          "name": "",
          "type": "address"
        }
      ],
      "name": "stakeBlock",
      "outputs": [
        {
          "internalType": "uint256",
          "name": "",
          "type": "uint256"
        }
      ],
      "stateMutability": "view",
      "type": "function"
    },
    {
      "inputs": [
        {
          "internalType": "uint256[]",
          "name": "_idNftList",
          "type": "uint256[]"
        }
      ],
      "name": "stakeNft",
      "outputs": [],
      "stateMutability": "nonpayable",
      "type": "function"
    },
    {
      "inputs": [],
      "name": "startStakeTime",
      "outputs": [
        {
          "internalType": "uint256",
          "name": "",
          "type": "uint256"
        }
      ],
      "stateMutability": "view",
      "type": "function"
    },
    {
      "inputs": [],
      "name": "totalUserStaked",
      "outputs": [
        {
          "internalType": "uint256",
          "name": "",
          "type": "uint256"
        }
      ],
      "stateMutability": "view",
      "type": "function"
    },
    {
      "inputs": [
        {
          "internalType": "address",
          "name": "newOwner",
          "type": "address"
        }
      ],
      "name": "transferOwnership",
      "outputs": [],
      "stateMutability": "nonpayable",
      "type": "function"
    },
    {
      "inputs": [],
      "name": "unStakeTime",
      "outputs": [
        {
          "internalType": "uint256",
          "name": "",
          "type": "uint256"
        }
      ],
      "stateMutability": "view",
      "type": "function"
    },
    {
      "inputs": [
        {
          "internalType": "uint256[]",
          "name": "_idNftList",
          "type": "uint256[]"
        }
      ],
      "name": "unstakeNft",
      "outputs": [],
      "stateMutability": "nonpayable",
      "type": "function"
    }
  ],
  "bytecode": "0x6080604052670de0b6b3a76400006008556008546113886200002291906200030c565b60095562000078629e340062000064606462000050600f6009546200017a60201b620023d41790919060201c565b6200019260201b620023ea1790919060201c565b6200019260201b620023ea1790919060201c565b600a553480156200008857600080fd5b506040516200415e3803806200415e8339818101604052810190620000ae91906200028d565b620000ce620000c2620001aa60201b60201c565b620001b260201b60201c565b6001808190555081600b60016101000a81548173ffffffffffffffffffffffffffffffffffffffff021916908373ffffffffffffffffffffffffffffffffffffffff16021790555080600c60006101000a81548173ffffffffffffffffffffffffffffffffffffffff021916908373ffffffffffffffffffffffffffffffffffffffff1602179055506001600760006101000a81548160ff021916908315150217905550505062000428565b600081836200018a91906200030c565b905092915050565b60008183620001a29190620002d4565b905092915050565b600033905090565b60008060009054906101000a900473ffffffffffffffffffffffffffffffffffffffff169050816000806101000a81548173ffffffffffffffffffffffffffffffffffffffff021916908373ffffffffffffffffffffffffffffffffffffffff1602179055508173ffffffffffffffffffffffffffffffffffffffff168173ffffffffffffffffffffffffffffffffffffffff167f8be0079c531659141344cd1fd0a4f28419497f9722a3daafe3b4186f6b6457e060405160405180910390a35050565b60008151905062000287816200040e565b92915050565b60008060408385031215620002a757620002a662000409565b5b6000620002b78582860162000276565b9250506020620002ca8582860162000276565b9150509250929050565b6000620002e182620003a1565b9150620002ee83620003a1565b925082620003015762000300620003da565b5b828204905092915050565b60006200031982620003a1565b91506200032683620003a1565b9250817fffffffffffffffffffffffffffffffffffffffffffffffffffffffffffffffff0483118215151615620003625762000361620003ab565b5b828202905092915050565b60006200037a8262000381565b9050919050565b600073ffffffffffffffffffffffffffffffffffffffff82169050919050565b6000819050919050565b7f4e487b7100000000000000000000000000000000000000000000000000000000600052601160045260246000fd5b7f4e487b7100000000000000000000000000000000000000000000000000000000600052601260045260246000fd5b600080fd5b62000419816200036d565b81146200042557600080fd5b50565b613d2680620004386000396000f3fe608060405234801561001057600080fd5b50600436106101e55760003560e01c806371aec5151161010f578063af0efb52116100a2578063e601af7311610071578063e601af7314610546578063ef975be414610562578063f2fde38b14610580578063ff0938a71461059c576101e5565b8063af0efb52146104c0578063c2ce4951146104de578063d1981aa4146104fa578063d47ae11014610516576101e5565b80639aa0ea19116100de5780639aa0ea191461043a5780639bf411351461046a578063a58f03aa14610486578063a78d640e146104a4576101e5565b806371aec515146103b2578063777e092b146103d05780637aaa3470146103ec5780638da5cb5b1461041c576101e5565b80633d8bfa581161018757806360d66f7e1161015657806360d66f7e1461033c5780636177fd181461035a578063672d5d3b1461038a578063715018a6146103a8576101e5565b80633d8bfa58146102c85780634017cdce146102f85780634451d89f146103145780635481c4df1461031e576101e5565b80631da26a8b116101c35780631da26a8b146102565780631e34c585146102725780631f2c851f1461028e57806330bf443614610298576101e5565b806309d9754e146101ea5780630f3555a214610208578063150b7a0214610226575b600080fd5b6101f26105ba565b6040516101ff9190613547565b60405180910390f35b6102106105c0565b60405161021d9190613547565b60405180910390f35b610240600480360381019061023b9190612c90565b6105c6565b60405161024d91906132ef565b60405180910390f35b610270600480360381019061026b9190612c50565b6105da565b005b61028c60048036038101906102879190612ea1565b6106dc565b005b6102966107c1565b005b6102b260048036038101906102ad9190612c23565b61099f565b6040516102bf9190613547565b60405180910390f35b6102e260048036038101906102dd9190612d13565b6109eb565b6040516102ef9190613547565b60405180910390f35b610312600480360381019061030d9190612da0565b610a1c565b005b61031c61111c565b005b61032661147b565b60405161033391906131dd565b60405180910390f35b6103446114a1565b6040516103519190613547565b60405180910390f35b610374600480360381019061036f9190612c23565b6114a7565b60405161038191906132d4565b60405180910390f35b6103926114c7565b60405161039f9190613547565b60405180910390f35b6103b06114cf565b005b6103ba611557565b6040516103c79190613547565b60405180910390f35b6103ea60048036038101906103e59190612d53565b61155d565b005b61040660048036038101906104019190612c23565b61167e565b6040516104139190613547565b60405180910390f35b61042461173a565b60405161043191906131dd565b60405180910390f35b610454600480360381019061044f9190612c23565b611763565b60405161046191906132d4565b60405180910390f35b610484600480360381019061047f9190612d53565b611783565b005b61048e6118a4565b60405161049b9190613547565b60405180910390f35b6104be60048036038101906104b99190612ded565b6118aa565b005b6104c8611943565b6040516104d5919061330a565b60405180910390f35b6104f860048036038101906104f39190612da0565b611969565b005b610514600480360381019061050f9190612e47565b612148565b005b610530600480360381019061052b9190612c23565b612212565b60405161053d9190613547565b60405180910390f35b610560600480360381019061055b9190612ded565b61222a565b005b61056a6122c3565b6040516105779190613547565b60405180910390f35b61059a60048036038101906105959190612c23565b6122c9565b005b6105a46123c1565b6040516105b191906132d4565b60405180910390f35b600f5481565b60095481565b600063150b7a0260e01b9050949350505050565b6105e2612400565b73ffffffffffffffffffffffffffffffffffffffff1661060061173a565b73ffffffffffffffffffffffffffffffffffffffff1614610656576040517f08c379a000000000000000000000000000000000000000000000000000000000815260040161064d90613467565b60405180910390fd5b81600b60016101000a81548173ffffffffffffffffffffffffffffffffffffffff021916908373ffffffffffffffffffffffffffffffffffffffff16021790555080600c60006101000a81548173ffffffffffffffffffffffffffffffffffffffff021916908373ffffffffffffffffffffffffffffffffffffffff1602179055505050565b6106e4612400565b73ffffffffffffffffffffffffffffffffffffffff1661070261173a565b73ffffffffffffffffffffffffffffffffffffffff1614610758576040517f08c379a000000000000000000000000000000000000000000000000000000000815260040161074f90613467565b60405180910390fd5b80821061079a576040517f08c379a000000000000000000000000000000000000000000000000000000000815260040161079190613527565b60405180910390fd5b81600d8190555080600e819055506001600d546107b791906135ea565b600f819055505050565b6107c9612400565b73ffffffffffffffffffffffffffffffffffffffff166107e761173a565b73ffffffffffffffffffffffffffffffffffffffff161461083d576040517f08c379a000000000000000000000000000000000000000000000000000000000815260040161083490613467565b60405180910390fd5b6000600b60019054906101000a900473ffffffffffffffffffffffffffffffffffffffff1673ffffffffffffffffffffffffffffffffffffffff166370a08231306040518263ffffffff1660e01b815260040161089a91906131dd565b60206040518083038186803b1580156108b257600080fd5b505afa1580156108c6573d6000803e3d6000fd5b505050506040513d601f19601f820116820180604052508101906108ea9190612e74565b9050600b60019054906101000a900473ffffffffffffffffffffffffffffffffffffffff1673ffffffffffffffffffffffffffffffffffffffff1663a9059cbb33836040518363ffffffff1660e01b815260040161094992919061322f565b602060405180830381600087803b15801561096357600080fd5b505af1158015610977573d6000803e3d6000fd5b505050506040513d601f19601f8201168201806040525081019061099b9190612e1a565b5050565b6000600360008373ffffffffffffffffffffffffffffffffffffffff1673ffffffffffffffffffffffffffffffffffffffff168152602001908152602001600020805490509050919050565b60036020528160005260406000208181548110610a0757600080fd5b90600052602060002001600091509150505481565b60026001541415610a62576040517f08c379a0000000000000000000000000000000000000000000000000000000008152600401610a5990613507565b60405180910390fd5b600260018190555060001515600760009054906101000a900460ff16151514610ac0576040517f08c379a0000000000000000000000000000000000000000000000000000000008152600401610ab7906134e7565b60405180910390fd5b60001515600460003373ffffffffffffffffffffffffffffffffffffffff1673ffffffffffffffffffffffffffffffffffffffff16815260200190815260200160002060009054906101000a900460ff16151514610b53576040517f08c379a0000000000000000000000000000000000000000000000000000000008152600401610b4a906133c7565b60405180910390fd5b60008282905011610b99576040517f08c379a0000000000000000000000000000000000000000000000000000000008152600401610b9090613347565b60405180910390fd5b6032828290501115610be0576040517f08c379a0000000000000000000000000000000000000000000000000000000008152600401610bd790613427565b60405180910390fd5b6000600c60009054906101000a900473ffffffffffffffffffffffffffffffffffffffff1673ffffffffffffffffffffffffffffffffffffffff166370a08231336040518263ffffffff1660e01b8152600401610c3d91906131dd565b60206040518083038186803b158015610c5557600080fd5b505afa158015610c69573d6000803e3d6000fd5b505050506040513d601f19601f82011682018060405250810190610c8d9190612e74565b11610ccd576040517f08c379a0000000000000000000000000000000000000000000000000000000008152600401610cc490613367565b60405180910390fd5b610d20600260003373ffffffffffffffffffffffffffffffffffffffff1673ffffffffffffffffffffffffffffffffffffffff1681526020019081526020016000205443610d1b91906136cb565b612408565b43600260003373ffffffffffffffffffffffffffffffffffffffff1673ffffffffffffffffffffffffffffffffffffffff1681526020019081526020016000208190555060005b82829050811015610f3b57600c60009054906101000a900473ffffffffffffffffffffffffffffffffffffffff1673ffffffffffffffffffffffffffffffffffffffff166323b872dd3330868686818110610dc557610dc461391c565b5b905060200201356040518463ffffffff1660e01b8152600401610dea939291906131f8565b600060405180830381600087803b158015610e0457600080fd5b505af1158015610e18573d6000803e3d6000fd5b50505050600360003373ffffffffffffffffffffffffffffffffffffffff1673ffffffffffffffffffffffffffffffffffffffff168152602001908152602001600020838383818110610e6e57610e6d61391c565b5b9050602002013590806001815401808255809150506001900390600052602060002001600090919091909150553373ffffffffffffffffffffffffffffffffffffffff167f24657c9e85b3c893a60d35dc5a431bbc724aeed1d7f9951b03cea2ae7901d5ad600c60009054906101000a900473ffffffffffffffffffffffffffffffffffffffff16858585818110610f0957610f0861391c565b5b9050602002013543604051610f2093929190613258565b60405180910390a28080610f3390613846565b915050610d67565b5060001515600560003373ffffffffffffffffffffffffffffffffffffffff1673ffffffffffffffffffffffffffffffffffffffff16815260200190815260200160002060009054906101000a900460ff1615151415610fae5760106000815480929190610fa890613846565b91905055505b6001600560003373ffffffffffffffffffffffffffffffffffffffff1673ffffffffffffffffffffffffffffffffffffffff16815260200190815260200160002060006101000a81548160ff02191690831515021790555061109233600660003373ffffffffffffffffffffffffffffffffffffffff1673ffffffffffffffffffffffffffffffffffffffff16815260200190815260200160002054600b60019054906101000a900473ffffffffffffffffffffffffffffffffffffffff1673ffffffffffffffffffffffffffffffffffffffff1661251e9092919063ffffffff16565b7f82c0ec9a5f7e8ab3367d3802d357e9dbf0bc201f9120e7c7f056941ee08416d7338383905043600660003373ffffffffffffffffffffffffffffffffffffffff1673ffffffffffffffffffffffffffffffffffffffff16815260200190815260200160002054604051611109949392919061328f565b60405180910390a1600180819055505050565b60026001541415611162576040517f08c379a000000000000000000000000000000000000000000000000000000000815260040161115990613507565b60405180910390fd5b600260018190555060001515600760009054906101000a900460ff161515146111c0576040517f08c379a00000000000000000000000000000000000000000000000000000000081526004016111b7906134e7565b60405180910390fd5b60001515600460003373ffffffffffffffffffffffffffffffffffffffff1673ffffffffffffffffffffffffffffffffffffffff16815260200190815260200160002060009054906101000a900460ff16151514611253576040517f08c379a000000000000000000000000000000000000000000000000000000000815260040161124a906133c7565b60405180910390fd5b6112a6600260003373ffffffffffffffffffffffffffffffffffffffff1673ffffffffffffffffffffffffffffffffffffffff16815260200190815260200160002054436112a191906136cb565b612408565b6000600660003373ffffffffffffffffffffffffffffffffffffffff1673ffffffffffffffffffffffffffffffffffffffff1681526020019081526020016000205411611328576040517f08c379a000000000000000000000000000000000000000000000000000000000815260040161131f90613387565b60405180910390fd5b6113b433600660003373ffffffffffffffffffffffffffffffffffffffff1673ffffffffffffffffffffffffffffffffffffffff16815260200190815260200160002054600b60019054906101000a900473ffffffffffffffffffffffffffffffffffffffff1673ffffffffffffffffffffffffffffffffffffffff1661251e9092919063ffffffff16565b43600260003373ffffffffffffffffffffffffffffffffffffffff1673ffffffffffffffffffffffffffffffffffffffff168152602001908152602001600020819055507fd458cbd7941a406cf0211a0f3f08d437b196748d53096e98baf5a27041c2ea2633600660003373ffffffffffffffffffffffffffffffffffffffff1673ffffffffffffffffffffffffffffffffffffffff168152602001908152602001600020544360405161146a93929190613258565b60405180910390a160018081905550565b600c60009054906101000a900473ffffffffffffffffffffffffffffffffffffffff1681565b60105481565b60056020528060005260406000206000915054906101000a900460ff1681565b600043905090565b6114d7612400565b73ffffffffffffffffffffffffffffffffffffffff166114f561173a565b73ffffffffffffffffffffffffffffffffffffffff161461154b576040517f08c379a000000000000000000000000000000000000000000000000000000000815260040161154290613467565b60405180910390fd5b61155560006125a4565b565b600d5481565b611565612400565b73ffffffffffffffffffffffffffffffffffffffff1661158361173a565b73ffffffffffffffffffffffffffffffffffffffff16146115d9576040517f08c379a00000000000000000000000000000000000000000000000000000000081526004016115d090613467565b60405180910390fd5b60005b8282905081101561167957600160046000858585818110611600576115ff61391c565b5b90506020020160208101906116159190612c23565b73ffffffffffffffffffffffffffffffffffffffff1673ffffffffffffffffffffffffffffffffffffffff16815260200190815260200160002060006101000a81548160ff021916908315150217905550808061167190613846565b9150506115dc565b505050565b6000611733600a54611725600360008673ffffffffffffffffffffffffffffffffffffffff1673ffffffffffffffffffffffffffffffffffffffff16815260200190815260200160002080549050600260008773ffffffffffffffffffffffffffffffffffffffff1673ffffffffffffffffffffffffffffffffffffffff168152602001908152602001600020544361171791906136cb565b6123d490919063ffffffff16565b6123d490919063ffffffff16565b9050919050565b60008060009054906101000a900473ffffffffffffffffffffffffffffffffffffffff16905090565b60046020528060005260406000206000915054906101000a900460ff1681565b61178b612400565b73ffffffffffffffffffffffffffffffffffffffff166117a961173a565b73ffffffffffffffffffffffffffffffffffffffff16146117ff576040517f08c379a00000000000000000000000000000000000000000000000000000000081526004016117f690613467565b60405180910390fd5b60005b8282905081101561189f576000600460008585858181106118265761182561391c565b5b905060200201602081019061183b9190612c23565b73ffffffffffffffffffffffffffffffffffffffff1673ffffffffffffffffffffffffffffffffffffffff16815260200190815260200160002060006101000a81548160ff021916908315150217905550808061189790613846565b915050611802565b505050565b600e5481565b6118b2612400565b73ffffffffffffffffffffffffffffffffffffffff166118d061173a565b73ffffffffffffffffffffffffffffffffffffffff1614611926576040517f08c379a000000000000000000000000000000000000000000000000000000000815260040161191d90613467565b60405180910390fd5b80600b60006101000a81548160ff02191690831515021790555050565b600b60019054906101000a900473ffffffffffffffffffffffffffffffffffffffff1681565b600260015414156119af576040517f08c379a00000000000000000000000000000000000000000000000000000000081526004016119a690613507565b60405180910390fd5b600260018190555060001515600460003373ffffffffffffffffffffffffffffffffffffffff1673ffffffffffffffffffffffffffffffffffffffff16815260200190815260200160002060009054906101000a900460ff16151514611a4a576040517f08c379a0000000000000000000000000000000000000000000000000000000008152600401611a41906133c7565b60405180910390fd5b60008282905011611a90576040517f08c379a0000000000000000000000000000000000000000000000000000000008152600401611a8790613447565b60405180910390fd5b6032828290501115611ad7576040517f08c379a0000000000000000000000000000000000000000000000000000000008152600401611ace90613427565b60405180910390fd5b600360003373ffffffffffffffffffffffffffffffffffffffff1673ffffffffffffffffffffffffffffffffffffffff16815260200190815260200160002080549050828290501115611b5f576040517f08c379a0000000000000000000000000000000000000000000000000000000008152600401611b5690613487565b60405180910390fd5b6000600360003373ffffffffffffffffffffffffffffffffffffffff1673ffffffffffffffffffffffffffffffffffffffff168152602001908152602001600020805490509050611bf9600260003373ffffffffffffffffffffffffffffffffffffffff1673ffffffffffffffffffffffffffffffffffffffff1681526020019081526020016000205443611bf491906136cb565b612408565b43600260003373ffffffffffffffffffffffffffffffffffffffff1673ffffffffffffffffffffffffffffffffffffffff1681526020019081526020016000208190555060005b83839050811015611ef05760011515611c71858584818110611c6557611c6461391c565b5b90506020020135612668565b151514611cb3576040517f08c379a0000000000000000000000000000000000000000000000000000000008152600401611caa90613407565b60405180910390fd5b600c60009054906101000a900473ffffffffffffffffffffffffffffffffffffffff1673ffffffffffffffffffffffffffffffffffffffff166323b872dd3033878786818110611d0657611d0561391c565b5b905060200201356040518463ffffffff1660e01b8152600401611d2b939291906131f8565b600060405180830381600087803b158015611d4557600080fd5b505af1158015611d59573d6000803e3d6000fd5b50505050600360003373ffffffffffffffffffffffffffffffffffffffff1673ffffffffffffffffffffffffffffffffffffffff16815260200190815260200160002060018284611daa91906136cb565b611db491906136cb565b81548110611dc557611dc461391c565b5b9060005260206000200154600360003373ffffffffffffffffffffffffffffffffffffffff1673ffffffffffffffffffffffffffffffffffffffff168152602001908152602001600020611e31868685818110611e2557611e2461391c565b5b90506020020135612745565b81548110611e4257611e4161391c565b5b90600052602060002001819055503373ffffffffffffffffffffffffffffffffffffffff167f092f1d2f59723a7f07e48bc058ac50cfb9b46c50bf938f7c04a54e64f5f8be59600c60009054906101000a900473ffffffffffffffffffffffffffffffffffffffff16868685818110611ebe57611ebd61391c565b5b9050602002013543604051611ed593929190613258565b60405180910390a28080611ee890613846565b915050611c40565b50600360003373ffffffffffffffffffffffffffffffffffffffff1673ffffffffffffffffffffffffffffffffffffffff16815260200190815260200160002080549050838390501415611faf576000600560003373ffffffffffffffffffffffffffffffffffffffff1673ffffffffffffffffffffffffffffffffffffffff16815260200190815260200160002060006101000a81548160ff02191690831515021790555060106000815480929190611fa9906137eb565b91905055505b60005b8383905081101561203557600360003373ffffffffffffffffffffffffffffffffffffffff1673ffffffffffffffffffffffffffffffffffffffff16815260200190815260200160002080548061200c5761200b6138ed565b5b60019003818190600052602060002001600090559055808061202d90613846565b915050611fb2565b506120c233600660003373ffffffffffffffffffffffffffffffffffffffff1673ffffffffffffffffffffffffffffffffffffffff16815260200190815260200160002054600b60019054906101000a900473ffffffffffffffffffffffffffffffffffffffff1673ffffffffffffffffffffffffffffffffffffffff1661251e9092919063ffffffff16565b7f47149093c65ccaad4005584cef4131141e06e2a198dc71167740cf5c6062d5973343600660003373ffffffffffffffffffffffffffffffffffffffff1673ffffffffffffffffffffffffffffffffffffffff1681526020019081526020016000205460405161213493929190613258565b60405180910390a150600180819055505050565b612150612400565b73ffffffffffffffffffffffffffffffffffffffff1661216e61173a565b73ffffffffffffffffffffffffffffffffffffffff16146121c4576040517f08c379a00000000000000000000000000000000000000000000000000000000081526004016121bb90613467565b60405180910390fd5b80600981905550612209629e34006121fb60646121ed600f6009546123d490919063ffffffff16565b6123ea90919063ffffffff16565b6123ea90919063ffffffff16565b600a8190555050565b60026020528060005260406000206000915090505481565b612232612400565b73ffffffffffffffffffffffffffffffffffffffff1661225061173a565b73ffffffffffffffffffffffffffffffffffffffff16146122a6576040517f08c379a000000000000000000000000000000000000000000000000000000000815260040161229d90613467565b60405180910390fd5b80600760006101000a81548160ff02191690831515021790555050565b600a5481565b6122d1612400565b73ffffffffffffffffffffffffffffffffffffffff166122ef61173a565b73ffffffffffffffffffffffffffffffffffffffff1614612345576040517f08c379a000000000000000000000000000000000000000000000000000000000815260040161233c90613467565b60405180910390fd5b600073ffffffffffffffffffffffffffffffffffffffff168173ffffffffffffffffffffffffffffffffffffffff1614156123b5576040517f08c379a00000000000000000000000000000000000000000000000000000000081526004016123ac906133a7565b60405180910390fd5b6123be816125a4565b50565b600760009054906101000a900460ff1681565b600081836123e29190613671565b905092915050565b600081836123f89190613640565b905092915050565b600033905090565b60001515600b60009054906101000a900460ff16151514156124d55761248d600a5461247f600360003373ffffffffffffffffffffffffffffffffffffffff1673ffffffffffffffffffffffffffffffffffffffff16815260200190815260200160002080549050846123d490919063ffffffff16565b6123d490919063ffffffff16565b600660003373ffffffffffffffffffffffffffffffffffffffff1673ffffffffffffffffffffffffffffffffffffffff1681526020019081526020016000208190555061251b565b6000600660003373ffffffffffffffffffffffffffffffffffffffff1673ffffffffffffffffffffffffffffffffffffffff168152602001908152602001600020819055505b50565b61259f8363a9059cbb60e01b848460405160240161253d92919061322f565b604051602081830303815290604052907bffffffffffffffffffffffffffffffffffffffffffffffffffffffff19166020820180517bffffffffffffffffffffffffffffffffffffffffffffffffffffffff8381831617835250505050612821565b505050565b60008060009054906101000a900473ffffffffffffffffffffffffffffffffffffffff169050816000806101000a81548173ffffffffffffffffffffffffffffffffffffffff021916908373ffffffffffffffffffffffffffffffffffffffff1602179055508173ffffffffffffffffffffffffffffffffffffffff168173ffffffffffffffffffffffffffffffffffffffff167f8be0079c531659141344cd1fd0a4f28419497f9722a3daafe3b4186f6b6457e060405160405180910390a35050565b600080600090505b600360003373ffffffffffffffffffffffffffffffffffffffff1673ffffffffffffffffffffffffffffffffffffffff1681526020019081526020016000208054905081101561273a57600360003373ffffffffffffffffffffffffffffffffffffffff1673ffffffffffffffffffffffffffffffffffffffff168152602001908152602001600020818154811061270b5761270a61391c565b5b9060005260206000200154831415612727576001915050612740565b808061273290613846565b915050612670565b50600090505b919050565b600080600090505b600360003373ffffffffffffffffffffffffffffffffffffffff1673ffffffffffffffffffffffffffffffffffffffff1681526020019081526020016000208054905081101561281657600360003373ffffffffffffffffffffffffffffffffffffffff1673ffffffffffffffffffffffffffffffffffffffff16815260200190815260200160002081815481106127e8576127e761391c565b5b9060005260206000200154831415612803578091505061281c565b808061280e90613846565b91505061274d565b50600090505b919050565b6000612883826040518060400160405280602081526020017f5361666545524332303a206c6f772d6c6576656c2063616c6c206661696c65648152508573ffffffffffffffffffffffffffffffffffffffff166128e89092919063ffffffff16565b90506000815111156128e357808060200190518101906128a39190612e1a565b6128e2576040517f08c379a00000000000000000000000000000000000000000000000000000000081526004016128d9906134c7565b60405180910390fd5b5b505050565b60606128f78484600085612900565b90509392505050565b606082471015612945576040517f08c379a000000000000000000000000000000000000000000000000000000000815260040161293c906133e7565b60405180910390fd5b61294e85612a14565b61298d576040517f08c379a0000000000000000000000000000000000000000000000000000000008152600401612984906134a7565b60405180910390fd5b6000808673ffffffffffffffffffffffffffffffffffffffff1685876040516129b691906131c6565b60006040518083038185875af1925050503d80600081146129f3576040519150601f19603f3d011682016040523d82523d6000602084013e6129f8565b606091505b5091509150612a08828286612a37565b92505050949350505050565b6000808273ffffffffffffffffffffffffffffffffffffffff163b119050919050565b60608315612a4757829050612a97565b600083511115612a5a5782518084602001fd5b816040517f08c379a0000000000000000000000000000000000000000000000000000000008152600401612a8e9190613325565b60405180910390fd5b9392505050565b6000612ab1612aac84613587565b613562565b905082815260208101848484011115612acd57612acc613989565b5b612ad88482856137a9565b509392505050565b600081359050612aef81613cab565b92915050565b60008083601f840112612b0b57612b0a61397f565b5b8235905067ffffffffffffffff811115612b2857612b2761397a565b5b602083019150836020820283011115612b4457612b43613984565b5b9250929050565b60008083601f840112612b6157612b6061397f565b5b8235905067ffffffffffffffff811115612b7e57612b7d61397a565b5b602083019150836020820283011115612b9a57612b99613984565b5b9250929050565b600081359050612bb081613cc2565b92915050565b600081519050612bc581613cc2565b92915050565b600082601f830112612be057612bdf61397f565b5b8135612bf0848260208601612a9e565b91505092915050565b600081359050612c0881613cd9565b92915050565b600081519050612c1d81613cd9565b92915050565b600060208284031215612c3957612c38613993565b5b6000612c4784828501612ae0565b91505092915050565b60008060408385031215612c6757612c66613993565b5b6000612c7585828601612ae0565b9250506020612c8685828601612ae0565b9150509250929050565b60008060008060808587031215612caa57612ca9613993565b5b6000612cb887828801612ae0565b9450506020612cc987828801612ae0565b9350506040612cda87828801612bf9565b925050606085013567ffffffffffffffff811115612cfb57612cfa61398e565b5b612d0787828801612bcb565b91505092959194509250565b60008060408385031215612d2a57612d29613993565b5b6000612d3885828601612ae0565b9250506020612d4985828601612bf9565b9150509250929050565b60008060208385031215612d6a57612d69613993565b5b600083013567ffffffffffffffff811115612d8857612d8761398e565b5b612d9485828601612af5565b92509250509250929050565b60008060208385031215612db757612db6613993565b5b600083013567ffffffffffffffff811115612dd557612dd461398e565b5b612de185828601612b4b565b92509250509250929050565b600060208284031215612e0357612e02613993565b5b6000612e1184828501612ba1565b91505092915050565b600060208284031215612e3057612e2f613993565b5b6000612e3e84828501612bb6565b91505092915050565b600060208284031215612e5d57612e5c613993565b5b6000612e6b84828501612bf9565b91505092915050565b600060208284031215612e8a57612e89613993565b5b6000612e9884828501612c0e565b91505092915050565b60008060408385031215612eb857612eb7613993565b5b6000612ec685828601612bf9565b9250506020612ed785828601612bf9565b9150509250929050565b612eea816136ff565b82525050565b612ef981613711565b82525050565b612f088161371d565b82525050565b6000612f19826135b8565b612f2381856135ce565b9350612f338185602086016137b8565b80840191505092915050565b612f4881613773565b82525050565b6000612f59826135c3565b612f6381856135d9565b9350612f738185602086016137b8565b612f7c81613998565b840191505092915050565b6000612f94601e836135d9565b9150612f9f826139a9565b602082019050919050565b6000612fb76006836135d9565b9150612fc2826139d2565b602082019050919050565b6000612fda6014836135d9565b9150612fe5826139fb565b602082019050919050565b6000612ffd6026836135d9565b915061300882613a24565b604082019050919050565b60006130206014836135d9565b915061302b82613a73565b602082019050919050565b60006130436026836135d9565b915061304e82613a9c565b604082019050919050565b60006130666015836135d9565b915061307182613aeb565b602082019050919050565b6000613089600b836135d9565b915061309482613b14565b602082019050919050565b60006130ac6009836135d9565b91506130b782613b3d565b602082019050919050565b60006130cf6020836135d9565b91506130da82613b66565b602082019050919050565b60006130f2600f836135d9565b91506130fd82613b8f565b602082019050919050565b6000613115601d836135d9565b915061312082613bb8565b602082019050919050565b6000613138602a836135d9565b915061314382613be1565b604082019050919050565b600061315b6012836135d9565b915061316682613c30565b602082019050919050565b600061317e601f836135d9565b915061318982613c59565b602082019050919050565b60006131a1601a836135d9565b91506131ac82613c82565b602082019050919050565b6131c081613769565b82525050565b60006131d28284612f0e565b915081905092915050565b60006020820190506131f26000830184612ee1565b92915050565b600060608201905061320d6000830186612ee1565b61321a6020830185612ee1565b61322760408301846131b7565b949350505050565b60006040820190506132446000830185612ee1565b61325160208301846131b7565b9392505050565b600060608201905061326d6000830186612ee1565b61327a60208301856131b7565b61328760408301846131b7565b949350505050565b60006080820190506132a46000830187612ee1565b6132b160208301866131b7565b6132be60408301856131b7565b6132cb60608301846131b7565b95945050505050565b60006020820190506132e96000830184612ef0565b92915050565b60006020820190506133046000830184612eff565b92915050565b600060208201905061331f6000830184612f3f565b92915050565b6000602082019050818103600083015261333f8184612f4e565b905092915050565b6000602082019050818103600083015261336081612f87565b9050919050565b6000602082019050818103600083015261338081612faa565b9050919050565b600060208201905081810360008301526133a081612fcd565b9050919050565b600060208201905081810360008301526133c081612ff0565b9050919050565b600060208201905081810360008301526133e081613013565b9050919050565b6000602082019050818103600083015261340081613036565b9050919050565b6000602082019050818103600083015261342081613059565b9050919050565b600060208201905081810360008301526134408161307c565b9050919050565b600060208201905081810360008301526134608161309f565b9050919050565b60006020820190508181036000830152613480816130c2565b9050919050565b600060208201905081810360008301526134a0816130e5565b9050919050565b600060208201905081810360008301526134c081613108565b9050919050565b600060208201905081810360008301526134e08161312b565b9050919050565b600060208201905081810360008301526135008161314e565b9050919050565b6000602082019050818103600083015261352081613171565b9050919050565b6000602082019050818103600083015261354081613194565b9050919050565b600060208201905061355c60008301846131b7565b92915050565b600061356c61357d565b90506135788282613815565b919050565b6000604051905090565b600067ffffffffffffffff8211156135a2576135a161394b565b5b6135ab82613998565b9050602081019050919050565b600081519050919050565b600081519050919050565b600081905092915050565b600082825260208201905092915050565b60006135f582613769565b915061360083613769565b9250827fffffffffffffffffffffffffffffffffffffffffffffffffffffffffffffffff038211156136355761363461388f565b5b828201905092915050565b600061364b82613769565b915061365683613769565b925082613666576136656138be565b5b828204905092915050565b600061367c82613769565b915061368783613769565b9250817fffffffffffffffffffffffffffffffffffffffffffffffffffffffffffffffff04831182151516156136c0576136bf61388f565b5b828202905092915050565b60006136d682613769565b91506136e183613769565b9250828210156136f4576136f361388f565b5b828203905092915050565b600061370a82613749565b9050919050565b60008115159050919050565b60007fffffffff0000000000000000000000000000000000000000000000000000000082169050919050565b600073ffffffffffffffffffffffffffffffffffffffff82169050919050565b6000819050919050565b600061377e82613785565b9050919050565b600061379082613797565b9050919050565b60006137a282613749565b9050919050565b82818337600083830152505050565b60005b838110156137d65780820151818401526020810190506137bb565b838111156137e5576000848401525b50505050565b60006137f682613769565b9150600082141561380a5761380961388f565b5b600182039050919050565b61381e82613998565b810181811067ffffffffffffffff8211171561383d5761383c61394b565b5b80604052505050565b600061385182613769565b91507fffffffffffffffffffffffffffffffffffffffffffffffffffffffffffffffff8214156138845761388361388f565b5b600182019050919050565b7f4e487b7100000000000000000000000000000000000000000000000000000000600052601160045260246000fd5b7f4e487b7100000000000000000000000000000000000000000000000000000000600052601260045260246000fd5b7f4e487b7100000000000000000000000000000000000000000000000000000000600052603160045260246000fd5b7f4e487b7100000000000000000000000000000000000000000000000000000000600052603260045260246000fd5b7f4e487b7100000000000000000000000000000000000000000000000000000000600052604160045260246000fd5b600080fd5b600080fd5b600080fd5b600080fd5b600080fd5b600080fd5b6000601f19601f8301169050919050565b7f4e465473206861766520746f2062652067726561746572207468616e20300000600082015250565b7f4e6f204e46540000000000000000000000000000000000000000000000000000600082015250565b7f4e6f20696e74657265737420746f20636c61696d000000000000000000000000600082015250565b7f4f776e61626c653a206e6577206f776e657220697320746865207a65726f206160008201527f6464726573730000000000000000000000000000000000000000000000000000602082015250565b7f596f752061726520696e20426c61636b6c697374000000000000000000000000600082015250565b7f416464726573733a20696e73756666696369656e742062616c616e636520666f60008201527f722063616c6c0000000000000000000000000000000000000000000000000000602082015250565b7f4e4654206e6f7420657869737420696e206c6973740000000000000000000000600082015250565b7f4d6178203530204e465473000000000000000000000000000000000000000000600082015250565b7f4d696e2031204e46540000000000000000000000000000000000000000000000600082015250565b7f4f776e61626c653a2063616c6c6572206973206e6f7420746865206f776e6572600082015250565b7f416d6f756e742065786365656465640000000000000000000000000000000000600082015250565b7f416464726573733a2063616c6c20746f206e6f6e2d636f6e7472616374000000600082015250565b7f5361666545524332303a204552433230206f7065726174696f6e20646964206e60008201527f6f74207375636365656400000000000000000000000000000000000000000000602082015250565b7f436f6e7472616374206973207061757365640000000000000000000000000000600082015250565b7f5265656e7472616e637947756172643a207265656e7472616e742063616c6c00600082015250565b7f496e7075742074696d65207374616b696e6720696e76616c6964000000000000600082015250565b613cb4816136ff565b8114613cbf57600080fd5b50565b613ccb81613711565b8114613cd657600080fd5b50565b613ce281613769565b8114613ced57600080fd5b5056fea2646970667358221220e5f81dfb9f3cfa33e4f27eabdcad0a54f64a15ae9c9862ec0a4b56778dc00a1764736f6c63430008070033",
  "linkReferences": {},
  "deployedLinkReferences": {}
}