{
  "_format": "hh-sol-artifact-1",
  "contractName": "HesmanIDO",
  "sourceName": "contracts/HesmanNftPool.sol",
  "abi": [
    {
      "inputs": [
        {
          "internalType": "address",
          "name": "_idoOwner",
          "type": "address"
        },
        {
          "internalType": "address",
          "name": "_hesmanToken",
          "type": "address"
        },
        {
          "internalType": "address",
          "name": "_paymentToken",
          "type": "address"
        },
        {
          "internalType": "address",
          "name": "_hesicNftAddress",
          "type": "address"
        }
      ],
      "stateMutability": "nonpayable",
      "type": "constructor"
    },
    {
      "anonymous": false,
      "inputs": [
        {
          "indexed": true,
          "internalType": "address",
          "name": "user",
          "type": "address"
        },
        {
          "indexed": false,
          "internalType": "address",
          "name": "nft",
          "type": "address"
        },
        {
          "indexed": false,
          "internalType": "uint256",
          "name": "tokenId",
          "type": "uint256"
        },
        {
          "indexed": false,
          "internalType": "uint256",
          "name": "time",
          "type": "uint256"
        }
      ],
      "name": "EvenUserClaimNFT",
      "type": "event"
    },
    {
      "anonymous": false,
      "inputs": [
        {
          "indexed": false,
          "internalType": "address",
          "name": "user",
          "type": "address"
        },
        {
          "indexed": false,
          "internalType": "uint256",
          "name": "amount",
          "type": "uint256"
        },
        {
          "indexed": false,
          "internalType": "uint256",
          "name": "time",
          "type": "uint256"
        }
      ],
      "name": "EventUserBuy",
      "type": "event"
    },
    {
      "anonymous": false,
      "inputs": [
        {
          "indexed": false,
          "internalType": "address",
          "name": "user",
          "type": "address"
        },
        {
          "indexed": false,
          "internalType": "uint256",
          "name": "amount",
          "type": "uint256"
        },
        {
          "indexed": false,
          "internalType": "uint256",
          "name": "time",
          "type": "uint256"
        }
      ],
      "name": "EventUserClaim",
      "type": "event"
    },
    {
      "anonymous": false,
      "inputs": [
        {
          "indexed": false,
          "internalType": "address",
          "name": "user",
          "type": "address"
        },
        {
          "indexed": false,
          "internalType": "uint256",
          "name": "numberOfNft",
          "type": "uint256"
        },
        {
          "indexed": false,
          "internalType": "uint256",
          "name": "time",
          "type": "uint256"
        }
      ],
      "name": "EventUserStake",
      "type": "event"
    },
    {
      "anonymous": false,
      "inputs": [
        {
          "indexed": false,
          "internalType": "address",
          "name": "user",
          "type": "address"
        },
        {
          "indexed": false,
          "internalType": "uint256",
          "name": "time",
          "type": "uint256"
        }
      ],
      "name": "EventUserUnstake",
      "type": "event"
    },
    {
      "anonymous": false,
      "inputs": [
        {
          "indexed": true,
          "internalType": "address",
          "name": "previousOwner",
          "type": "address"
        },
        {
          "indexed": true,
          "internalType": "address",
          "name": "newOwner",
          "type": "address"
        }
      ],
      "name": "OwnershipTransferred",
      "type": "event"
    },
    {
      "inputs": [
        {
          "internalType": "address",
          "name": "",
          "type": "address"
        }
      ],
      "name": "blacklistMap",
      "outputs": [
        {
          "internalType": "bool",
          "name": "",
          "type": "bool"
        }
      ],
      "stateMutability": "view",
      "type": "function"
    },
    {
      "inputs": [],
      "name": "buyIdo",
      "outputs": [],
      "stateMutability": "nonpayable",
      "type": "function"
    },
    {
      "inputs": [],
      "name": "claimIdo",
      "outputs": [],
      "stateMutability": "nonpayable",
      "type": "function"
    },
    {
      "inputs": [],
      "name": "endBuyTime",
      "outputs": [
        {
          "internalType": "uint256",
          "name": "",
          "type": "uint256"
        }
      ],
      "stateMutability": "view",
      "type": "function"
    },
    {
      "inputs": [],
      "name": "endStakeTime",
      "outputs": [
        {
          "internalType": "uint256",
          "name": "",
          "type": "uint256"
        }
      ],
      "stateMutability": "view",
      "type": "function"
    },
    {
      "inputs": [],
      "name": "hesicNftAddress",
      "outputs": [
        {
          "internalType": "address",
          "name": "",
          "type": "address"
        }
      ],
      "stateMutability": "view",
      "type": "function"
    },
    {
      "inputs": [],
      "name": "hesmanToken",
      "outputs": [
        {
          "internalType": "contract ERC20",
          "name": "",
          "type": "address"
        }
      ],
      "stateMutability": "view",
      "type": "function"
    },
    {
      "inputs": [],
      "name": "idoOwner",
      "outputs": [
        {
          "internalType": "address",
          "name": "",
          "type": "address"
        }
      ],
      "stateMutability": "view",
      "type": "function"
    },
    {
      "inputs": [],
      "name": "isPause",
      "outputs": [
        {
          "internalType": "bool",
          "name": "",
          "type": "bool"
        }
      ],
      "stateMutability": "view",
      "type": "function"
    },
    {
      "inputs": [],
      "name": "limitNftPerSlot",
      "outputs": [
        {
          "internalType": "uint256",
          "name": "",
          "type": "uint256"
        }
      ],
      "stateMutability": "view",
      "type": "function"
    },
    {
      "inputs": [],
      "name": "nextStageIndex",
      "outputs": [
        {
          "internalType": "uint256",
          "name": "",
          "type": "uint256"
        }
      ],
      "stateMutability": "view",
      "type": "function"
    },
    {
      "inputs": [
        {
          "internalType": "address",
          "name": "",
          "type": "address"
        },
        {
          "internalType": "address",
          "name": "",
          "type": "address"
        },
        {
          "internalType": "uint256",
          "name": "",
          "type": "uint256"
        },
        {
          "internalType": "bytes",
          "name": "",
          "type": "bytes"
        }
      ],
      "name": "onERC721Received",
      "outputs": [
        {
          "internalType": "bytes4",
          "name": "",
          "type": "bytes4"
        }
      ],
      "stateMutability": "nonpayable",
      "type": "function"
    },
    {
      "inputs": [],
      "name": "owner",
      "outputs": [
        {
          "internalType": "address",
          "name": "",
          "type": "address"
        }
      ],
      "stateMutability": "view",
      "type": "function"
    },
    {
      "inputs": [
        {
          "internalType": "address",
          "name": "",
          "type": "address"
        }
      ],
      "name": "paidIdoMap",
      "outputs": [
        {
          "internalType": "bool",
          "name": "",
          "type": "bool"
        }
      ],
      "stateMutability": "view",
      "type": "function"
    },
    {
      "inputs": [],
      "name": "payAmountPerSlot",
      "outputs": [
        {
          "internalType": "uint256",
          "name": "",
          "type": "uint256"
        }
      ],
      "stateMutability": "view",
      "type": "function"
    },
    {
      "inputs": [],
      "name": "paymentToken",
      "outputs": [
        {
          "internalType": "contract ERC20",
          "name": "",
          "type": "address"
        }
      ],
      "stateMutability": "view",
      "type": "function"
    },
    {
      "inputs": [
        {
          "internalType": "address[]",
          "name": "userList",
          "type": "address[]"
        }
      ],
      "name": "removeBlackList",
      "outputs": [],
      "stateMutability": "nonpayable",
      "type": "function"
    },
    {
      "inputs": [],
      "name": "renounceOwnership",
      "outputs": [],
      "stateMutability": "nonpayable",
      "type": "function"
    },
    {
      "inputs": [
        {
          "internalType": "address[]",
          "name": "userList",
          "type": "address[]"
        }
      ],
      "name": "setBlackList",
      "outputs": [],
      "stateMutability": "nonpayable",
      "type": "function"
    },
    {
      "inputs": [
        {
          "internalType": "uint256",
          "name": "_startBuyTime",
          "type": "uint256"
        },
        {
          "internalType": "uint256",
          "name": "_endBuyTime",
          "type": "uint256"
        }
      ],
      "name": "setBuyTime",
      "outputs": [],
      "stateMutability": "nonpayable",
      "type": "function"
    },
    {
      "inputs": [
        {
          "internalType": "uint256[]",
          "name": "_startTimeList",
          "type": "uint256[]"
        },
        {
          "internalType": "uint256[]",
          "name": "_percentList",
          "type": "uint256[]"
        }
      ],
      "name": "setClaimTime",
      "outputs": [],
      "stateMutability": "nonpayable",
      "type": "function"
    },
    {
      "inputs": [
        {
          "internalType": "uint256",
          "name": "_payAmountPerSlot",
          "type": "uint256"
        },
        {
          "internalType": "uint256",
          "name": "_tokenPerSlot",
          "type": "uint256"
        },
        {
          "internalType": "uint256",
          "name": "_startStakeTime",
          "type": "uint256"
        },
        {
          "internalType": "uint256",
          "name": "_endStakeTime",
          "type": "uint256"
        },
        {
          "internalType": "uint256",
          "name": "_unStakeTime",
          "type": "uint256"
        },
        {
          "internalType": "uint256",
          "name": "_startBuyTime",
          "type": "uint256"
        },
        {
          "internalType": "uint256",
          "name": "_endBuyTime",
          "type": "uint256"
        }
      ],
      "name": "setIdoConfig",
      "outputs": [],
      "stateMutability": "nonpayable",
      "type": "function"
    },
    {
      "inputs": [
        {
          "internalType": "address",
          "name": "_idoOwner",
          "type": "address"
        }
      ],
      "name": "setIdoOwner",
      "outputs": [],
      "stateMutability": "nonpayable",
      "type": "function"
    },
    {
      "inputs": [
        {
          "internalType": "uint256",
          "name": "_startStakeTime",
          "type": "uint256"
        },
        {
          "internalType": "uint256",
          "name": "_endStakeTime",
          "type": "uint256"
        },
        {
          "internalType": "uint256",
          "name": "_unStakeTime",
          "type": "uint256"
        },
        {
          "internalType": "uint256",
          "name": "_startBuyTime",
          "type": "uint256"
        },
        {
          "internalType": "uint256",
          "name": "_endBuyTime",
          "type": "uint256"
        }
      ],
      "name": "setIdoTime",
      "outputs": [],
      "stateMutability": "nonpayable",
      "type": "function"
    },
    {
      "inputs": [
        {
          "internalType": "uint256",
          "name": "_limitNftPerSlot",
          "type": "uint256"
        }
      ],
      "name": "setLimitNftPerSlot",
      "outputs": [],
      "stateMutability": "nonpayable",
      "type": "function"
    },
    {
      "inputs": [
        {
          "internalType": "bool",
          "name": "_status",
          "type": "bool"
        }
      ],
      "name": "setPauseContract",
      "outputs": [],
      "stateMutability": "nonpayable",
      "type": "function"
    },
    {
      "inputs": [
        {
          "internalType": "uint256",
          "name": "_payAmountPerSlot",
          "type": "uint256"
        }
      ],
      "name": "setPayAmountPerSlot",
      "outputs": [],
      "stateMutability": "nonpayable",
      "type": "function"
    },
    {
      "inputs": [
        {
          "internalType": "uint256",
          "name": "_startStakeTime",
          "type": "uint256"
        },
        {
          "internalType": "uint256",
          "name": "_endStakeTime",
          "type": "uint256"
        },
        {
          "internalType": "uint256",
          "name": "_unStakeTime",
          "type": "uint256"
        }
      ],
      "name": "setTimeStake",
      "outputs": [],
      "stateMutability": "nonpayable",
      "type": "function"
    },
    {
      "inputs": [
        {
          "internalType": "address",
          "name": "_hesmanToken",
          "type": "address"
        },
        {
          "internalType": "address",
          "name": "_paymentToken",
          "type": "address"
        },
        {
          "internalType": "address",
          "name": "_hesicNftAddress",
          "type": "address"
        }
      ],
      "name": "setTokenIdo",
      "outputs": [],
      "stateMutability": "nonpayable",
      "type": "function"
    },
    {
      "inputs": [
        {
          "internalType": "uint256",
          "name": "_totalOfSlot",
          "type": "uint256"
        }
      ],
      "name": "setTotalOfSlot",
      "outputs": [],
      "stateMutability": "nonpayable",
      "type": "function"
    },
    {
      "inputs": [
        {
          "internalType": "uint256",
          "name": "",
          "type": "uint256"
        }
      ],
      "name": "stageList",
      "outputs": [
        {
          "internalType": "uint256",
          "name": "id",
          "type": "uint256"
        },
        {
          "internalType": "uint256",
          "name": "percent",
          "type": "uint256"
        },
        {
          "internalType": "uint256",
          "name": "startTime",
          "type": "uint256"
        }
      ],
      "stateMutability": "view",
      "type": "function"
    },
    {
      "inputs": [
        {
          "internalType": "uint256[]",
          "name": "_idNftList",
          "type": "uint256[]"
        }
      ],
      "name": "stakeNftGetSlot",
      "outputs": [],
      "stateMutability": "nonpayable",
      "type": "function"
    },
    {
      "inputs": [],
      "name": "startBuyTime",
      "outputs": [
        {
          "internalType": "uint256",
          "name": "",
          "type": "uint256"
        }
      ],
      "stateMutability": "view",
      "type": "function"
    },
    {
      "inputs": [],
      "name": "startStakeTime",
      "outputs": [
        {
          "internalType": "uint256",
          "name": "",
          "type": "uint256"
        }
      ],
      "stateMutability": "view",
      "type": "function"
    },
    {
      "inputs": [],
      "name": "tokenPerSlot",
      "outputs": [
        {
          "internalType": "uint256",
          "name": "",
          "type": "uint256"
        }
      ],
      "stateMutability": "view",
      "type": "function"
    },
    {
      "inputs": [],
      "name": "totalOfPaid",
      "outputs": [
        {
          "internalType": "uint256",
          "name": "",
          "type": "uint256"
        }
      ],
      "stateMutability": "view",
      "type": "function"
    },
    {
      "inputs": [],
      "name": "totalOfSlot",
      "outputs": [
        {
          "internalType": "uint256",
          "name": "",
          "type": "uint256"
        }
      ],
      "stateMutability": "view",
      "type": "function"
    },
    {
      "inputs": [],
      "name": "totalOfUserStaked",
      "outputs": [
        {
          "internalType": "uint256",
          "name": "",
          "type": "uint256"
        }
      ],
      "stateMutability": "view",
      "type": "function"
    },
    {
      "inputs": [
        {
          "internalType": "address",
          "name": "newOwner",
          "type": "address"
        }
      ],
      "name": "transferOwnership",
      "outputs": [],
      "stateMutability": "nonpayable",
      "type": "function"
    },
    {
      "inputs": [],
      "name": "unStakeTime",
      "outputs": [
        {
          "internalType": "uint256",
          "name": "",
          "type": "uint256"
        }
      ],
      "stateMutability": "view",
      "type": "function"
    },
    {
      "inputs": [
        {
          "internalType": "address",
          "name": "",
          "type": "address"
        }
      ],
      "name": "unstakeMap",
      "outputs": [
        {
          "internalType": "bool",
          "name": "",
          "type": "bool"
        }
      ],
      "stateMutability": "view",
      "type": "function"
    },
    {
      "inputs": [],
      "name": "unstakeToken",
      "outputs": [],
      "stateMutability": "nonpayable",
      "type": "function"
    },
    {
      "inputs": [],
      "name": "urgentWithdrawAllToken",
      "outputs": [],
      "stateMutability": "nonpayable",
      "type": "function"
    },
    {
      "inputs": [
        {
          "internalType": "address",
          "name": "",
          "type": "address"
        }
      ],
      "name": "userBusdAllocationMap",
      "outputs": [
        {
          "internalType": "uint256",
          "name": "",
          "type": "uint256"
        }
      ],
      "stateMutability": "view",
      "type": "function"
    },
    {
      "inputs": [
        {
          "internalType": "address",
          "name": "",
          "type": "address"
        }
      ],
      "name": "userHesmanTokenRecMap",
      "outputs": [
        {
          "internalType": "uint256",
          "name": "",
          "type": "uint256"
        }
      ],
      "stateMutability": "view",
      "type": "function"
    },
    {
      "inputs": [
        {
          "internalType": "address",
          "name": "",
          "type": "address"
        },
        {
          "internalType": "uint256",
          "name": "",
          "type": "uint256"
        }
      ],
      "name": "userNftMap",
      "outputs": [
        {
          "internalType": "address",
          "name": "user",
          "type": "address"
        },
        {
          "internalType": "uint256",
          "name": "nftId",
          "type": "uint256"
        }
      ],
      "stateMutability": "view",
      "type": "function"
    },
    {
      "inputs": [
        {
          "internalType": "address",
          "name": "",
          "type": "address"
        }
      ],
      "name": "vestingMap",
      "outputs": [
        {
          "internalType": "uint256",
          "name": "",
          "type": "uint256"
        }
      ],
      "stateMutability": "view",
      "type": "function"
    },
    {
      "inputs": [
        {
          "internalType": "address",
          "name": "",
          "type": "address"
        }
      ],
      "name": "whitelistMap",
      "outputs": [
        {
          "internalType": "bool",
          "name": "",
          "type": "bool"
        }
      ],
      "stateMutability": "view",
      "type": "function"
    }
  ],
  "bytecode": "0x6080604052670de0b6b3a7640000600c556005600d55600c5460326200002691906200031c565b600e55600c546109c46200003b91906200031c565b600f556127106010553480156200005157600080fd5b5060405162005287380380620052878339818101604052810190620000779190620002aa565b620000976200008b620001c760201b60201c565b620001cf60201b60201c565b6001808190555083600260006101000a81548173ffffffffffffffffffffffffffffffffffffffff021916908373ffffffffffffffffffffffffffffffffffffffff16021790555082601360006101000a81548173ffffffffffffffffffffffffffffffffffffffff021916908373ffffffffffffffffffffffffffffffffffffffff16021790555081601460006101000a81548173ffffffffffffffffffffffffffffffffffffffff021916908373ffffffffffffffffffffffffffffffffffffffff16021790555080601560006101000a81548173ffffffffffffffffffffffffffffffffffffffff021916908373ffffffffffffffffffffffffffffffffffffffff1602179055506001600b60006101000a81548160ff0219169083151502179055505050505062000409565b600033905090565b60008060009054906101000a900473ffffffffffffffffffffffffffffffffffffffff169050816000806101000a81548173ffffffffffffffffffffffffffffffffffffffff021916908373ffffffffffffffffffffffffffffffffffffffff1602179055508173ffffffffffffffffffffffffffffffffffffffff168173ffffffffffffffffffffffffffffffffffffffff167f8be0079c531659141344cd1fd0a4f28419497f9722a3daafe3b4186f6b6457e060405160405180910390a35050565b600081519050620002a481620003ef565b92915050565b60008060008060808587031215620002c757620002c6620003ea565b5b6000620002d78782880162000293565b9450506020620002ea8782880162000293565b9350506040620002fd8782880162000293565b9250506060620003108782880162000293565b91505092959194509250565b60006200032982620003b1565b91506200033683620003b1565b9250817fffffffffffffffffffffffffffffffffffffffffffffffffffffffffffffffff0483118215151615620003725762000371620003bb565b5b828202905092915050565b60006200038a8262000391565b9050919050565b600073ffffffffffffffffffffffffffffffffffffffff82169050919050565b6000819050919050565b7f4e487b7100000000000000000000000000000000000000000000000000000000600052601160045260246000fd5b600080fd5b620003fa816200037d565b81146200040657600080fd5b50565b614e6e80620004196000396000f3fe608060405234801561001057600080fd5b50600436106102a05760003560e01c806371aec51511610167578063b153cc5c116100ce578063e601af7311610087578063e601af73146107cc578063e9dc574b146107e8578063f01d226f14610806578063f2fde38b14610824578063feda1fd614610840578063ff0938a71461085c576102a0565b8063b153cc5c14610732578063b4908ae71461074e578063bbdf45261461076a578063c2f2fbf514610786578063c78057c6146107a4578063cc6cd034146107c2576102a0565b80638da5cb5b116101205780638da5cb5b1461066e5780639aa0ea191461068c5780639bf41135146106bc578063a58f03aa146106d8578063aa682682146106f6578063af0efb5214610714576102a0565b806371aec5151461059c578063777e092b146105ba578063782a2737146105d65780637c50db0d146106065780638130034714610622578063825935a21461063e576102a0565b806332531c3c1161020b578063552e0c1f116101c4578063552e0c1f14610502578063638862621461051e5780636b91ef3f146105285780636f3e57711461055857806370c8e0ed14610588578063715018a614610592576102a0565b806332531c3c14610418578063355fdc2d146104485780633aa399b5146104665780633fc6e10d1461049657806353c037b6146104c85780635481c4df146104e4576102a0565b80631ba315841161025d5780631ba315841461037c57806320eb640c1461039a578063288893c7146103a457806329a51e38146103c05780632c27c28f146103de5780633013ce29146103fa576102a0565b80630347fbc8146102a557806309d9754e146102c35780630a883818146102e1578063150b7a021461031257806319c76d7c146103425780631b7e555b1461035e575b600080fd5b6102ad61087a565b6040516102ba9190614522565b60405180910390f35b6102cb610880565b6040516102d89190614522565b60405180910390f35b6102fb60048036038101906102f69190613861565b610886565b6040516103099291906140ef565b60405180910390f35b61032c600480360381019061032791906137de565b6108e7565b604051610339919061416a565b60405180910390f35b61035c60048036038101906103579190613b7e565b6108fb565b005b610366610a77565b6040516103739190614522565b60405180910390f35b610384610abe565b6040516103919190614522565b60405180910390f35b6103a2610ac4565b005b6103be60048036038101906103b991906138ee565b610f7b565b005b6103c86115a8565b6040516103d59190614522565b60405180910390f35b6103f860048036038101906103f39190613ab0565b6115ae565b005b6104026116c8565b60405161040f9190614185565b60405180910390f35b610432600480360381019061042d919061375e565b6116ee565b60405161043f919061414f565b60405180910390f35b61045061170e565b60405161045d919061409d565b60405180910390f35b610480600480360381019061047b919061375e565b611734565b60405161048d9190614522565b60405180910390f35b6104b060048036038101906104ab9190613a16565b61174c565b6040516104bf9392919061453d565b60405180910390f35b6104e260048036038101906104dd9190613a16565b611786565b005b6104ec61180c565b6040516104f9919061409d565b60405180910390f35b61051c6004803603810190610517919061378b565b611832565b005b610526611976565b005b610542600480360381019061053d919061375e565b611b1d565b60405161054f919061414f565b60405180910390f35b610572600480360381019061056d919061375e565b611b3d565b60405161057f919061414f565b60405180910390f35b610590611b5d565b005b61059a612070565b005b6105a46120f8565b6040516105b19190614522565b60405180910390f35b6105d460048036038101906105cf91906138a1565b6120fe565b005b6105f060048036038101906105eb919061375e565b61221f565b6040516105fd9190614522565b60405180910390f35b610620600480360381019061061b9190613a70565b612237565b005b61063c60048036038101906106379190613b03565b612307565b005b6106586004803603810190610653919061375e565b612473565b6040516106659190614522565b60405180910390f35b61067661248b565b604051610683919061409d565b60405180910390f35b6106a660048036038101906106a1919061375e565b6124b4565b6040516106b3919061414f565b60405180910390f35b6106d660048036038101906106d191906138a1565b6124d4565b005b6106e06125f5565b6040516106ed9190614522565b60405180910390f35b6106fe6125fb565b60405161070b9190614522565b60405180910390f35b61071c612601565b6040516107299190614185565b60405180910390f35b61074c60048036038101906107479190613a16565b612627565b005b6107686004803603810190610763919061393b565b6126ad565b005b610784600480360381019061077f9190613a16565b612892565b005b61078e612918565b60405161079b9190614522565b60405180910390f35b6107ac61291e565b6040516107b99190614522565b60405180910390f35b6107ca612924565b005b6107e660048036038101906107e191906139bc565b612e41565b005b6107f0612eda565b6040516107fd9190614522565b60405180910390f35b61080e612ee0565b60405161081b9190614522565b60405180910390f35b61083e6004803603810190610839919061375e565b612ee6565b005b61085a6004803603810190610855919061375e565b612fde565b005b61086461309e565b604051610871919061414f565b60405180910390f35b600d5481565b60185481565b600760205281600052604060002081815481106108a257600080fd5b9060005260206000209060020201600091509150508060000160009054906101000a900473ffffffffffffffffffffffffffffffffffffffff16908060010154905082565b600063150b7a0260e01b9050949350505050565b6109036130b1565b73ffffffffffffffffffffffffffffffffffffffff1661092161248b565b73ffffffffffffffffffffffffffffffffffffffff1614610977576040517f08c379a000000000000000000000000000000000000000000000000000000000815260040161096e90614402565b60405180910390fd5b8385106109b9576040517f08c379a00000000000000000000000000000000000000000000000000000000081526004016109b090614502565b60405180910390fd5b8284106109fb576040517f08c379a00000000000000000000000000000000000000000000000000000000081526004016109f290614502565b60405180910390fd5b808210610a3d576040517f08c379a0000000000000000000000000000000000000000000000000000000008152600401610a34906142c2565b60405180910390fd5b8460168190555083601781905550826018819055508160198190555080601a8190555086600e8190555085600f8190555050505050505050565b6000600560003373ffffffffffffffffffffffffffffffffffffffff1673ffffffffffffffffffffffffffffffffffffffff16815260200190815260200160002054905090565b60115481565b60026001541415610b0a576040517f08c379a0000000000000000000000000000000000000000000000000000000008152600401610b01906144e2565b60405180910390fd5b60026001819055504260185410610b56576040517f08c379a0000000000000000000000000000000000000000000000000000000008152600401610b4d906141e2565b60405180910390fd5b60001515600a60003373ffffffffffffffffffffffffffffffffffffffff1673ffffffffffffffffffffffffffffffffffffffff16815260200190815260200160002060009054906101000a900460ff16151514610be9576040517f08c379a0000000000000000000000000000000000000000000000000000000008152600401610be0906142a2565b60405180910390fd5b60011515600360003373ffffffffffffffffffffffffffffffffffffffff1673ffffffffffffffffffffffffffffffffffffffff16815260200190815260200160002060009054906101000a900460ff16151514610c7c576040517f08c379a0000000000000000000000000000000000000000000000000000000008152600401610c7390614262565b60405180910390fd5b60001515600660003373ffffffffffffffffffffffffffffffffffffffff1673ffffffffffffffffffffffffffffffffffffffff16815260200190815260200160002060009054906101000a900460ff16151514610d0f576040517f08c379a0000000000000000000000000000000000000000000000000000000008152600401610d0690614322565b60405180910390fd5b6001600660003373ffffffffffffffffffffffffffffffffffffffff1673ffffffffffffffffffffffffffffffffffffffff16815260200190815260200160002060006101000a81548160ff02191690831515021790555060005b600760003373ffffffffffffffffffffffffffffffffffffffff1673ffffffffffffffffffffffffffffffffffffffff16815260200190815260200160002080549050811015610f38576000600760003373ffffffffffffffffffffffffffffffffffffffff1673ffffffffffffffffffffffffffffffffffffffff1681526020019081526020016000208281548110610e0757610e066148a1565b5b90600052602060002090600202019050601560009054906101000a900473ffffffffffffffffffffffffffffffffffffffff1673ffffffffffffffffffffffffffffffffffffffff166323b872dd303384600101546040518463ffffffff1660e01b8152600401610e7a939291906140b8565b600060405180830381600087803b158015610e9457600080fd5b505af1158015610ea8573d6000803e3d6000fd5b505050503373ffffffffffffffffffffffffffffffffffffffff167f10db36d88213424ea83c4265ba0017e495a566e9afbaef67c5fd1b020e835d6d601560009054906101000a900473ffffffffffffffffffffffffffffffffffffffff16836001015442604051610f1c93929190614118565b60405180910390a2508080610f30906147fa565b915050610d6a565b507fb9656e7a29471c52d3abcf58c973bbfafa69456c3a7dba2ee0daada6d6d1aba43342604051610f6a9291906140ef565b60405180910390a160018081905550565b4260165410610fbf576040517f08c379a0000000000000000000000000000000000000000000000000000000008152600401610fb6906141c2565b60405180910390fd5b6017544210611003576040517f08c379a0000000000000000000000000000000000000000000000000000000008152600401610ffa906141c2565b60405180910390fd5b60026001541415611049576040517f08c379a0000000000000000000000000000000000000000000000000000000008152600401611040906144e2565b60405180910390fd5b600260018190555060001515600b60009054906101000a900460ff161515146110a7576040517f08c379a000000000000000000000000000000000000000000000000000000000815260040161109e906144c2565b60405180910390fd5b60001515600a60003373ffffffffffffffffffffffffffffffffffffffff1673ffffffffffffffffffffffffffffffffffffffff16815260200190815260200160002060009054906101000a900460ff1615151461113a576040517f08c379a0000000000000000000000000000000000000000000000000000000008152600401611131906142a2565b60405180910390fd5b60001515600360003373ffffffffffffffffffffffffffffffffffffffff1673ffffffffffffffffffffffffffffffffffffffff16815260200190815260200160002060009054906101000a900460ff161515146111cd576040517f08c379a00000000000000000000000000000000000000000000000000000000081526004016111c4906143a2565b60405180910390fd5b600d54828290501115611215576040517f08c379a000000000000000000000000000000000000000000000000000000000815260040161120c906142e2565b60405180910390fd5b6000828290501161125b576040517f08c379a000000000000000000000000000000000000000000000000000000000815260040161125290614422565b60405180910390fd5b6001600360003373ffffffffffffffffffffffffffffffffffffffff1673ffffffffffffffffffffffffffffffffffffffff16815260200190815260200160002060006101000a81548160ff021916908315150217905550601160008154809291906112c6906147fa565b919050555060005b828290508110156114b6576112e1613535565b33816000019073ffffffffffffffffffffffffffffffffffffffff16908173ffffffffffffffffffffffffffffffffffffffff168152505083838381811061132c5761132b6148a1565b5b90506020020135816020018181525050600760003373ffffffffffffffffffffffffffffffffffffffff1673ffffffffffffffffffffffffffffffffffffffff16815260200190815260200160002081908060018154018082558091505060019003906000526020600020906002020160009091909190915060008201518160000160006101000a81548173ffffffffffffffffffffffffffffffffffffffff021916908373ffffffffffffffffffffffffffffffffffffffff160217905550602082015181600101555050601560009054906101000a900473ffffffffffffffffffffffffffffffffffffffff1673ffffffffffffffffffffffffffffffffffffffff166323b872dd333087878781811061144b5761144a6148a1565b5b905060200201356040518463ffffffff1660e01b8152600401611470939291906140b8565b600060405180830381600087803b15801561148a57600080fd5b505af115801561149e573d6000803e3d6000fd5b505050505080806114ae906147fa565b9150506112ce565b50600e54828290506114c89190614683565b600860003373ffffffffffffffffffffffffffffffffffffffff1673ffffffffffffffffffffffffffffffffffffffff16815260200190815260200160002081905550600f548282905061151c9190614683565b600960003373ffffffffffffffffffffffffffffffffffffffff1673ffffffffffffffffffffffffffffffffffffffff168152602001908152602001600020819055507ff631376cacfb1b6aba2490572db8eba7204cd68f94db54296ec52fc97ae0627533838390504260405161159593929190614118565b60405180910390a1600180819055505050565b600e5481565b6115b66130b1565b73ffffffffffffffffffffffffffffffffffffffff166115d461248b565b73ffffffffffffffffffffffffffffffffffffffff161461162a576040517f08c379a000000000000000000000000000000000000000000000000000000000815260040161162190614402565b60405180910390fd5b81831061166c576040517f08c379a000000000000000000000000000000000000000000000000000000000815260040161166390614502565b60405180910390fd5b8082106116ae576040517f08c379a00000000000000000000000000000000000000000000000000000000081526004016116a590614502565b60405180910390fd5b826016819055508160178190555080601881905550505050565b601460009054906101000a900473ffffffffffffffffffffffffffffffffffffffff1681565b60036020528060005260406000206000915054906101000a900460ff1681565b600260009054906101000a900473ffffffffffffffffffffffffffffffffffffffff1681565b60086020528060005260406000206000915090505481565b601b818154811061175c57600080fd5b90600052602060002090600302016000915090508060000154908060010154908060020154905083565b61178e6130b1565b73ffffffffffffffffffffffffffffffffffffffff166117ac61248b565b73ffffffffffffffffffffffffffffffffffffffff1614611802576040517f08c379a00000000000000000000000000000000000000000000000000000000081526004016117f990614402565b60405180910390fd5b80600d8190555050565b601560009054906101000a900473ffffffffffffffffffffffffffffffffffffffff1681565b61183a6130b1565b73ffffffffffffffffffffffffffffffffffffffff1661185861248b565b73ffffffffffffffffffffffffffffffffffffffff16146118ae576040517f08c379a00000000000000000000000000000000000000000000000000000000081526004016118a590614402565b60405180910390fd5b82601360006101000a81548173ffffffffffffffffffffffffffffffffffffffff021916908373ffffffffffffffffffffffffffffffffffffffff16021790555081601460006101000a81548173ffffffffffffffffffffffffffffffffffffffff021916908373ffffffffffffffffffffffffffffffffffffffff16021790555080601560006101000a81548173ffffffffffffffffffffffffffffffffffffffff021916908373ffffffffffffffffffffffffffffffffffffffff160217905550505050565b61197e6130b1565b73ffffffffffffffffffffffffffffffffffffffff1661199c61248b565b73ffffffffffffffffffffffffffffffffffffffff16146119f2576040517f08c379a00000000000000000000000000000000000000000000000000000000081526004016119e990614402565b60405180910390fd5b6000601360009054906101000a900473ffffffffffffffffffffffffffffffffffffffff1673ffffffffffffffffffffffffffffffffffffffff166370a08231306040518263ffffffff1660e01b8152600401611a4f919061409d565b60206040518083038186803b158015611a6757600080fd5b505afa158015611a7b573d6000803e3d6000fd5b505050506040513d601f19601f82011682018060405250810190611a9f9190613a43565b90506000811115611b1a57611b19600260009054906101000a900473ffffffffffffffffffffffffffffffffffffffff1682601360009054906101000a900473ffffffffffffffffffffffffffffffffffffffff1673ffffffffffffffffffffffffffffffffffffffff166130b99092919063ffffffff16565b5b50565b60046020528060005260406000206000915054906101000a900460ff1681565b60066020528060005260406000206000915054906101000a900460ff1681565b4260195410611ba1576040517f08c379a0000000000000000000000000000000000000000000000000000000008152600401611b98906143c2565b60405180910390fd5b601a544210611be5576040517f08c379a0000000000000000000000000000000000000000000000000000000008152600401611bdc906143c2565b60405180910390fd5b60026001541415611c2b576040517f08c379a0000000000000000000000000000000000000000000000000000000008152600401611c22906144e2565b60405180910390fd5b600260018190555060001515600b60009054906101000a900460ff16151514611c89576040517f08c379a0000000000000000000000000000000000000000000000000000000008152600401611c80906144c2565b60405180910390fd5b60001515600a60003373ffffffffffffffffffffffffffffffffffffffff1673ffffffffffffffffffffffffffffffffffffffff16815260200190815260200160002060009054906101000a900460ff16151514611d1c576040517f08c379a0000000000000000000000000000000000000000000000000000000008152600401611d13906142a2565b60405180910390fd5b60011515600360003373ffffffffffffffffffffffffffffffffffffffff1673ffffffffffffffffffffffffffffffffffffffff16815260200190815260200160002060009054906101000a900460ff16151514611daf576040517f08c379a0000000000000000000000000000000000000000000000000000000008152600401611da690614342565b60405180910390fd5b60001515600460003373ffffffffffffffffffffffffffffffffffffffff1673ffffffffffffffffffffffffffffffffffffffff16815260200190815260200160002060009054906101000a900460ff16151514611e42576040517f08c379a0000000000000000000000000000000000000000000000000000000008152600401611e3990614222565b60405180910390fd5b60105460125410611e88576040517f08c379a0000000000000000000000000000000000000000000000000000000008152600401611e7f90614302565b60405180910390fd5b6001600460003373ffffffffffffffffffffffffffffffffffffffff1673ffffffffffffffffffffffffffffffffffffffff16815260200190815260200160002060006101000a81548160ff0219169083151502179055506000600560003373ffffffffffffffffffffffffffffffffffffffff1673ffffffffffffffffffffffffffffffffffffffff1681526020019081526020016000208190555060126000815480929190611f38906147fa565b9190505550611fed33600260009054906101000a900473ffffffffffffffffffffffffffffffffffffffff16600860003373ffffffffffffffffffffffffffffffffffffffff1673ffffffffffffffffffffffffffffffffffffffff16815260200190815260200160002054601460009054906101000a900473ffffffffffffffffffffffffffffffffffffffff1673ffffffffffffffffffffffffffffffffffffffff1661313f909392919063ffffffff16565b7f71e7fc59da617bbf910e2b3b57519b82737429dbdda70a81d4ba4b71d6796e0233600860003373ffffffffffffffffffffffffffffffffffffffff1673ffffffffffffffffffffffffffffffffffffffff168152602001908152602001600020544260405161205f93929190614118565b60405180910390a160018081905550565b6120786130b1565b73ffffffffffffffffffffffffffffffffffffffff1661209661248b565b73ffffffffffffffffffffffffffffffffffffffff16146120ec576040517f08c379a00000000000000000000000000000000000000000000000000000000081526004016120e390614402565b60405180910390fd5b6120f660006131c8565b565b60165481565b6121066130b1565b73ffffffffffffffffffffffffffffffffffffffff1661212461248b565b73ffffffffffffffffffffffffffffffffffffffff161461217a576040517f08c379a000000000000000000000000000000000000000000000000000000000815260040161217190614402565b60405180910390fd5b60005b8282905081101561221a576001600a60008585858181106121a1576121a06148a1565b5b90506020020160208101906121b6919061375e565b73ffffffffffffffffffffffffffffffffffffffff1673ffffffffffffffffffffffffffffffffffffffff16815260200190815260200160002060006101000a81548160ff0219169083151502179055508080612212906147fa565b91505061217d565b505050565b60056020528060005260406000206000915090505481565b61223f6130b1565b73ffffffffffffffffffffffffffffffffffffffff1661225d61248b565b73ffffffffffffffffffffffffffffffffffffffff16146122b3576040517f08c379a00000000000000000000000000000000000000000000000000000000081526004016122aa90614402565b60405180910390fd5b8082106122f5576040517f08c379a00000000000000000000000000000000000000000000000000000000081526004016122ec906142c2565b60405180910390fd5b8160198190555080601a819055505050565b61230f6130b1565b73ffffffffffffffffffffffffffffffffffffffff1661232d61248b565b73ffffffffffffffffffffffffffffffffffffffff1614612383576040517f08c379a000000000000000000000000000000000000000000000000000000000815260040161237a90614402565b60405180910390fd5b8385106123c5576040517f08c379a00000000000000000000000000000000000000000000000000000000081526004016123bc90614502565b60405180910390fd5b828410612407576040517f08c379a00000000000000000000000000000000000000000000000000000000081526004016123fe90614502565b60405180910390fd5b808210612449576040517f08c379a0000000000000000000000000000000000000000000000000000000008152600401612440906142c2565b60405180910390fd5b8460168190555083601781905550826018819055508160198190555080601a819055505050505050565b60096020528060005260406000206000915090505481565b60008060009054906101000a900473ffffffffffffffffffffffffffffffffffffffff16905090565b600a6020528060005260406000206000915054906101000a900460ff1681565b6124dc6130b1565b73ffffffffffffffffffffffffffffffffffffffff166124fa61248b565b73ffffffffffffffffffffffffffffffffffffffff1614612550576040517f08c379a000000000000000000000000000000000000000000000000000000000815260040161254790614402565b60405180910390fd5b60005b828290508110156125f0576000600a6000858585818110612577576125766148a1565b5b905060200201602081019061258c919061375e565b73ffffffffffffffffffffffffffffffffffffffff1673ffffffffffffffffffffffffffffffffffffffff16815260200190815260200160002060006101000a81548160ff02191690831515021790555080806125e8906147fa565b915050612553565b505050565b60175481565b60195481565b601360009054906101000a900473ffffffffffffffffffffffffffffffffffffffff1681565b61262f6130b1565b73ffffffffffffffffffffffffffffffffffffffff1661264d61248b565b73ffffffffffffffffffffffffffffffffffffffff16146126a3576040517f08c379a000000000000000000000000000000000000000000000000000000000815260040161269a90614402565b60405180910390fd5b80600e8190555050565b6126b56130b1565b73ffffffffffffffffffffffffffffffffffffffff166126d361248b565b73ffffffffffffffffffffffffffffffffffffffff1614612729576040517f08c379a000000000000000000000000000000000000000000000000000000000815260040161272090614402565b60405180910390fd5b6000848490501161276f576040517f08c379a000000000000000000000000000000000000000000000000000000000815260040161276690614382565b60405180910390fd5b8181905084849050146127b7576040517f08c379a00000000000000000000000000000000000000000000000000000000081526004016127ae90614382565b60405180910390fd5b601b60006127c59190613565565b60005b8484905081101561288b576127db613589565b818160000181815250508585838181106127f8576127f76148a1565b5b9050602002013581604001818152505083838381811061281b5761281a6148a1565b5b90506020020135816020018181525050601b8190806001815401808255809150506001900390600052602060002090600302016000909190919091506000820151816000015560208201518160010155604082015181600201555050508080612883906147fa565b9150506127c8565b5050505050565b61289a6130b1565b73ffffffffffffffffffffffffffffffffffffffff166128b861248b565b73ffffffffffffffffffffffffffffffffffffffff161461290e576040517f08c379a000000000000000000000000000000000000000000000000000000000815260040161290590614402565b60405180910390fd5b8060108190555050565b60105481565b60125481565b6002600154141561296a576040517f08c379a0000000000000000000000000000000000000000000000000000000008152600401612961906144e2565b60405180910390fd5b600260018190555060001515600b60009054906101000a900460ff161515146129c8576040517f08c379a00000000000000000000000000000000000000000000000000000000081526004016129bf906144c2565b60405180910390fd5b60001515600a60003373ffffffffffffffffffffffffffffffffffffffff1673ffffffffffffffffffffffffffffffffffffffff16815260200190815260200160002060009054906101000a900460ff16151514612a5b576040517f08c379a0000000000000000000000000000000000000000000000000000000008152600401612a52906142a2565b60405180910390fd5b60011515600360003373ffffffffffffffffffffffffffffffffffffffff1673ffffffffffffffffffffffffffffffffffffffff16815260200190815260200160002060009054906101000a900460ff16151514612aee576040517f08c379a0000000000000000000000000000000000000000000000000000000008152600401612ae590614482565b60405180910390fd5b60011515600460003373ffffffffffffffffffffffffffffffffffffffff1673ffffffffffffffffffffffffffffffffffffffff16815260200190815260200160002060009054906101000a900460ff16151514612b81576040517f08c379a0000000000000000000000000000000000000000000000000000000008152600401612b78906143e2565b60405180910390fd5b6000600560003373ffffffffffffffffffffffffffffffffffffffff1673ffffffffffffffffffffffffffffffffffffffff1681526020019081526020016000205490506000601b8281548110612bdb57612bda6148a1565b5b906000526020600020906003020160405180606001604052908160008201548152602001600182015481526020016002820154815250509050600081602001519050600082604001519050601b805490508410612c6d576040517f08c379a0000000000000000000000000000000000000000000000000000000008152600401612c6490614242565b60405180910390fd5b60008211612cb0576040517f08c379a0000000000000000000000000000000000000000000000000000000008152600401612ca790614442565b60405180910390fd5b428110612cf2576040517f08c379a0000000000000000000000000000000000000000000000000000000008152600401612ce990614202565b60405180910390fd5b600184612cff91906145fc565b600560003373ffffffffffffffffffffffffffffffffffffffff1673ffffffffffffffffffffffffffffffffffffffff168152602001908152602001600020819055506000612da96064612d9b600960003373ffffffffffffffffffffffffffffffffffffffff1673ffffffffffffffffffffffffffffffffffffffff168152602001908152602001600020548661328c90919063ffffffff16565b6132a290919063ffffffff16565b9050612df83382601360009054906101000a900473ffffffffffffffffffffffffffffffffffffffff1673ffffffffffffffffffffffffffffffffffffffff166130b99092919063ffffffff16565b7fd458cbd7941a406cf0211a0f3f08d437b196748d53096e98baf5a27041c2ea26338242604051612e2b93929190614118565b60405180910390a1505050505060018081905550565b612e496130b1565b73ffffffffffffffffffffffffffffffffffffffff16612e6761248b565b73ffffffffffffffffffffffffffffffffffffffff1614612ebd576040517f08c379a0000000000000000000000000000000000000000000000000000000008152600401612eb490614402565b60405180910390fd5b80600b60006101000a81548160ff02191690831515021790555050565b600f5481565b601a5481565b612eee6130b1565b73ffffffffffffffffffffffffffffffffffffffff16612f0c61248b565b73ffffffffffffffffffffffffffffffffffffffff1614612f62576040517f08c379a0000000000000000000000000000000000000000000000000000000008152600401612f5990614402565b60405180910390fd5b600073ffffffffffffffffffffffffffffffffffffffff168173ffffffffffffffffffffffffffffffffffffffff161415612fd2576040517f08c379a0000000000000000000000000000000000000000000000000000000008152600401612fc990614282565b60405180910390fd5b612fdb816131c8565b50565b612fe66130b1565b73ffffffffffffffffffffffffffffffffffffffff1661300461248b565b73ffffffffffffffffffffffffffffffffffffffff161461305a576040517f08c379a000000000000000000000000000000000000000000000000000000000815260040161305190614402565b60405180910390fd5b80600260006101000a81548173ffffffffffffffffffffffffffffffffffffffff021916908373ffffffffffffffffffffffffffffffffffffffff16021790555050565b600b60009054906101000a900460ff1681565b600033905090565b61313a8363a9059cbb60e01b84846040516024016130d89291906140ef565b604051602081830303815290604052907bffffffffffffffffffffffffffffffffffffffffffffffffffffffff19166020820180517bffffffffffffffffffffffffffffffffffffffffffffffffffffffff83818316178352505050506132b8565b505050565b6131c2846323b872dd60e01b858585604051602401613160939291906140b8565b604051602081830303815290604052907bffffffffffffffffffffffffffffffffffffffffffffffffffffffff19166020820180517bffffffffffffffffffffffffffffffffffffffffffffffffffffffff83818316178352505050506132b8565b50505050565b60008060009054906101000a900473ffffffffffffffffffffffffffffffffffffffff169050816000806101000a81548173ffffffffffffffffffffffffffffffffffffffff021916908373ffffffffffffffffffffffffffffffffffffffff1602179055508173ffffffffffffffffffffffffffffffffffffffff168173ffffffffffffffffffffffffffffffffffffffff167f8be0079c531659141344cd1fd0a4f28419497f9722a3daafe3b4186f6b6457e060405160405180910390a35050565b6000818361329a9190614683565b905092915050565b600081836132b09190614652565b905092915050565b600061331a826040518060400160405280602081526020017f5361666545524332303a206c6f772d6c6576656c2063616c6c206661696c65648152508573ffffffffffffffffffffffffffffffffffffffff1661337f9092919063ffffffff16565b905060008151111561337a578080602001905181019061333a91906139e9565b613379576040517f08c379a0000000000000000000000000000000000000000000000000000000008152600401613370906144a2565b60405180910390fd5b5b505050565b606061338e8484600085613397565b90509392505050565b6060824710156133dc576040517f08c379a00000000000000000000000000000000000000000000000000000000081526004016133d390614362565b60405180910390fd5b6133e5856134ab565b613424576040517f08c379a000000000000000000000000000000000000000000000000000000000815260040161341b90614462565b60405180910390fd5b6000808673ffffffffffffffffffffffffffffffffffffffff16858760405161344d9190614086565b60006040518083038185875af1925050503d806000811461348a576040519150601f19603f3d011682016040523d82523d6000602084013e61348f565b606091505b509150915061349f8282866134ce565b92505050949350505050565b6000808273ffffffffffffffffffffffffffffffffffffffff163b119050919050565b606083156134de5782905061352e565b6000835111156134f15782518084602001fd5b816040517f08c379a000000000000000000000000000000000000000000000000000000000815260040161352591906141a0565b60405180910390fd5b9392505050565b6040518060400160405280600073ffffffffffffffffffffffffffffffffffffffff168152602001600081525090565b508054600082556003029060005260206000209081019061358691906135aa565b50565b60405180606001604052806000815260200160008152602001600081525090565b5b808211156135d55760008082016000905560018201600090556002820160009055506003016135ab565b5090565b60006135ec6135e784614599565b614574565b9050828152602081018484840111156136085761360761490e565b5b613613848285614787565b509392505050565b60008135905061362a81614df3565b92915050565b60008083601f84011261364657613645614904565b5b8235905067ffffffffffffffff811115613663576136626148ff565b5b60208301915083602082028301111561367f5761367e614909565b5b9250929050565b60008083601f84011261369c5761369b614904565b5b8235905067ffffffffffffffff8111156136b9576136b86148ff565b5b6020830191508360208202830111156136d5576136d4614909565b5b9250929050565b6000813590506136eb81614e0a565b92915050565b60008151905061370081614e0a565b92915050565b600082601f83011261371b5761371a614904565b5b813561372b8482602086016135d9565b91505092915050565b60008135905061374381614e21565b92915050565b60008151905061375881614e21565b92915050565b60006020828403121561377457613773614918565b5b60006137828482850161361b565b91505092915050565b6000806000606084860312156137a4576137a3614918565b5b60006137b28682870161361b565b93505060206137c38682870161361b565b92505060406137d48682870161361b565b9150509250925092565b600080600080608085870312156137f8576137f7614918565b5b60006138068782880161361b565b94505060206138178782880161361b565b935050604061382887828801613734565b925050606085013567ffffffffffffffff81111561384957613848614913565b5b61385587828801613706565b91505092959194509250565b6000806040838503121561387857613877614918565b5b60006138868582860161361b565b925050602061389785828601613734565b9150509250929050565b600080602083850312156138b8576138b7614918565b5b600083013567ffffffffffffffff8111156138d6576138d5614913565b5b6138e285828601613630565b92509250509250929050565b6000806020838503121561390557613904614918565b5b600083013567ffffffffffffffff81111561392357613922614913565b5b61392f85828601613686565b92509250509250929050565b6000806000806040858703121561395557613954614918565b5b600085013567ffffffffffffffff81111561397357613972614913565b5b61397f87828801613686565b9450945050602085013567ffffffffffffffff8111156139a2576139a1614913565b5b6139ae87828801613686565b925092505092959194509250565b6000602082840312156139d2576139d1614918565b5b60006139e0848285016136dc565b91505092915050565b6000602082840312156139ff576139fe614918565b5b6000613a0d848285016136f1565b91505092915050565b600060208284031215613a2c57613a2b614918565b5b6000613a3a84828501613734565b91505092915050565b600060208284031215613a5957613a58614918565b5b6000613a6784828501613749565b91505092915050565b60008060408385031215613a8757613a86614918565b5b6000613a9585828601613734565b9250506020613aa685828601613734565b9150509250929050565b600080600060608486031215613ac957613ac8614918565b5b6000613ad786828701613734565b9350506020613ae886828701613734565b9250506040613af986828701613734565b9150509250925092565b600080600080600060a08688031215613b1f57613b1e614918565b5b6000613b2d88828901613734565b9550506020613b3e88828901613734565b9450506040613b4f88828901613734565b9350506060613b6088828901613734565b9250506080613b7188828901613734565b9150509295509295909350565b600080600080600080600060e0888a031215613b9d57613b9c614918565b5b6000613bab8a828b01613734565b9750506020613bbc8a828b01613734565b9650506040613bcd8a828b01613734565b9550506060613bde8a828b01613734565b9450506080613bef8a828b01613734565b93505060a0613c008a828b01613734565b92505060c0613c118a828b01613734565b91505092959891949750929550565b613c29816146dd565b82525050565b613c38816146ef565b82525050565b613c47816146fb565b82525050565b6000613c58826145ca565b613c6281856145e0565b9350613c72818560208601614796565b80840191505092915050565b613c8781614751565b82525050565b6000613c98826145d5565b613ca281856145eb565b9350613cb2818560208601614796565b613cbb8161491d565b840191505092915050565b6000613cd36014836145eb565b9150613cde8261492e565b602082019050919050565b6000613cf6601a836145eb565b9150613d0182614957565b602082019050919050565b6000613d196019836145eb565b9150613d2482614980565b602082019050919050565b6000613d3c6013836145eb565b9150613d47826149a9565b602082019050919050565b6000613d5f6016836145eb565b9150613d6a826149d2565b602082019050919050565b6000613d826018836145eb565b9150613d8d826149fb565b602082019050919050565b6000613da56026836145eb565b9150613db082614a24565b604082019050919050565b6000613dc86014836145eb565b9150613dd382614a73565b602082019050919050565b6000613deb6016836145eb565b9150613df682614a9c565b602082019050919050565b6000613e0e6015836145eb565b9150613e1982614ac5565b602082019050919050565b6000613e31600d836145eb565b9150613e3c82614aee565b602082019050919050565b6000613e54601f836145eb565b9150613e5f82614b17565b602082019050919050565b6000613e776018836145eb565b9150613e8282614b40565b602082019050919050565b6000613e9a6026836145eb565b9150613ea582614b69565b604082019050919050565b6000613ebd6013836145eb565b9150613ec882614bb8565b602082019050919050565b6000613ee06014836145eb565b9150613eeb82614be1565b602082019050919050565b6000613f036010836145eb565b9150613f0e82614c0a565b602082019050919050565b6000613f266017836145eb565b9150613f3182614c33565b602082019050919050565b6000613f496020836145eb565b9150613f5482614c5c565b602082019050919050565b6000613f6c601a836145eb565b9150613f7782614c85565b602082019050919050565b6000613f8f601a836145eb565b9150613f9a82614cae565b602082019050919050565b6000613fb2601d836145eb565b9150613fbd82614cd7565b602082019050919050565b6000613fd5601c836145eb565b9150613fe082614d00565b602082019050919050565b6000613ff8602a836145eb565b915061400382614d29565b604082019050919050565b600061401b6012836145eb565b915061402682614d78565b602082019050919050565b600061403e601f836145eb565b915061404982614da1565b602082019050919050565b6000614061601a836145eb565b915061406c82614dca565b602082019050919050565b61408081614747565b82525050565b60006140928284613c4d565b915081905092915050565b60006020820190506140b26000830184613c20565b92915050565b60006060820190506140cd6000830186613c20565b6140da6020830185613c20565b6140e76040830184614077565b949350505050565b60006040820190506141046000830185613c20565b6141116020830184614077565b9392505050565b600060608201905061412d6000830186613c20565b61413a6020830185614077565b6141476040830184614077565b949350505050565b60006020820190506141646000830184613c2f565b92915050565b600060208201905061417f6000830184613c3e565b92915050565b600060208201905061419a6000830184613c7e565b92915050565b600060208201905081810360008301526141ba8184613c8d565b905092915050565b600060208201905081810360008301526141db81613cc6565b9050919050565b600060208201905081810360008301526141fb81613ce9565b9050919050565b6000602082019050818103600083015261421b81613d0c565b9050919050565b6000602082019050818103600083015261423b81613d2f565b9050919050565b6000602082019050818103600083015261425b81613d52565b9050919050565b6000602082019050818103600083015261427b81613d75565b9050919050565b6000602082019050818103600083015261429b81613d98565b9050919050565b600060208201905081810360008301526142bb81613dbb565b9050919050565b600060208201905081810360008301526142db81613dde565b9050919050565b600060208201905081810360008301526142fb81613e01565b9050919050565b6000602082019050818103600083015261431b81613e24565b9050919050565b6000602082019050818103600083015261433b81613e47565b9050919050565b6000602082019050818103600083015261435b81613e6a565b9050919050565b6000602082019050818103600083015261437b81613e8d565b9050919050565b6000602082019050818103600083015261439b81613eb0565b9050919050565b600060208201905081810360008301526143bb81613ed3565b9050919050565b600060208201905081810360008301526143db81613ef6565b9050919050565b600060208201905081810360008301526143fb81613f19565b9050919050565b6000602082019050818103600083015261441b81613f3c565b9050919050565b6000602082019050818103600083015261443b81613f5f565b9050919050565b6000602082019050818103600083015261445b81613f82565b9050919050565b6000602082019050818103600083015261447b81613fa5565b9050919050565b6000602082019050818103600083015261449b81613fc8565b9050919050565b600060208201905081810360008301526144bb81613feb565b9050919050565b600060208201905081810360008301526144db8161400e565b9050919050565b600060208201905081810360008301526144fb81614031565b9050919050565b6000602082019050818103600083015261451b81614054565b9050919050565b60006020820190506145376000830184614077565b92915050565b60006060820190506145526000830186614077565b61455f6020830185614077565b61456c6040830184614077565b949350505050565b600061457e61458f565b905061458a82826147c9565b919050565b6000604051905090565b600067ffffffffffffffff8211156145b4576145b36148d0565b5b6145bd8261491d565b9050602081019050919050565b600081519050919050565b600081519050919050565b600081905092915050565b600082825260208201905092915050565b600061460782614747565b915061461283614747565b9250827fffffffffffffffffffffffffffffffffffffffffffffffffffffffffffffffff0382111561464757614646614843565b5b828201905092915050565b600061465d82614747565b915061466883614747565b92508261467857614677614872565b5b828204905092915050565b600061468e82614747565b915061469983614747565b9250817fffffffffffffffffffffffffffffffffffffffffffffffffffffffffffffffff04831182151516156146d2576146d1614843565b5b828202905092915050565b60006146e882614727565b9050919050565b60008115159050919050565b60007fffffffff0000000000000000000000000000000000000000000000000000000082169050919050565b600073ffffffffffffffffffffffffffffffffffffffff82169050919050565b6000819050919050565b600061475c82614763565b9050919050565b600061476e82614775565b9050919050565b600061478082614727565b9050919050565b82818337600083830152505050565b60005b838110156147b4578082015181840152602081019050614799565b838111156147c3576000848401525b50505050565b6147d28261491d565b810181811067ffffffffffffffff821117156147f1576147f06148d0565b5b80604052505050565b600061480582614747565b91507fffffffffffffffffffffffffffffffffffffffffffffffffffffffffffffffff82141561483857614837614843565b5b600182019050919050565b7f4e487b7100000000000000000000000000000000000000000000000000000000600052601160045260246000fd5b7f4e487b7100000000000000000000000000000000000000000000000000000000600052601260045260246000fd5b7f4e487b7100000000000000000000000000000000000000000000000000000000600052603260045260246000fd5b7f4e487b7100000000000000000000000000000000000000000000000000000000600052604160045260246000fd5b600080fd5b600080fd5b600080fd5b600080fd5b600080fd5b600080fd5b6000601f19601f8301169050919050565b7f54696d65207374616b696e6720696e76616c6964000000000000000000000000600082015250565b7f54696d652072657475726e204845534d414e20696e76616c6964000000000000600082015250565b7f436c61696d2074696d65206973206e6f74207374617274656400000000000000600082015250565b7f596f75206172652070616964206265666f726500000000000000000000000000600082015250565b7f436c61696d20696e64657820697320696e76616c696400000000000000000000600082015250565b7f596f7520617265206e6f74207374616b65206265666f72650000000000000000600082015250565b7f4f776e61626c653a206e6577206f776e657220697320746865207a65726f206160008201527f6464726573730000000000000000000000000000000000000000000000000000602082015250565b7f596f752061726520696e20426c61636b6c697374000000000000000000000000600082015250565b7f496e7075742074696d652062757920696e76616c696400000000000000000000600082015250565b7f35204e667473206c696d69742070657220736c6f740000000000000000000000600082015250565b7f46756c6c2062757920736c6f7400000000000000000000000000000000000000600082015250565b7f596f7520617265206e6f74207374616b656420746f6b656e206265666f726500600082015250565b7f596f7520617265206e6f7420696e2077686974656c6973740000000000000000600082015250565b7f416464726573733a20696e73756666696369656e742062616c616e636520666f60008201527f722063616c6c0000000000000000000000000000000000000000000000000000602082015250565b7f496e70757420737461676520696e76616c696400000000000000000000000000600082015250565b7f596f752061726520696e2057686974656c697374000000000000000000000000600082015250565b7f54696d652062757920696e76616c696400000000000000000000000000000000600082015250565b7f596f7520617265206e6f742070616964206265666f7265000000000000000000600082015250565b7f4f776e61626c653a2063616c6c6572206973206e6f7420746865206f776e6572600082015250565b7f4e4654732068617320746f2067726561746572207468616e2030000000000000600082015250565b7f50657263656e742076657374696e6720697320696e76616c6964000000000000600082015250565b7f416464726573733a2063616c6c20746f206e6f6e2d636f6e7472616374000000600082015250565b7f596f7520617265206e6f742077686974656c697374206265666f726500000000600082015250565b7f5361666545524332303a204552433230206f7065726174696f6e20646964206e60008201527f6f74207375636365656400000000000000000000000000000000000000000000602082015250565b7f436f6e7472616374206973207061757365640000000000000000000000000000600082015250565b7f5265656e7472616e637947756172643a207265656e7472616e742063616c6c00600082015250565b7f496e7075742074696d65207374616b696e6720696e76616c6964000000000000600082015250565b614dfc816146dd565b8114614e0757600080fd5b50565b614e13816146ef565b8114614e1e57600080fd5b50565b614e2a81614747565b8114614e3557600080fd5b5056fea26469706673582212203785a63f88c2162fafdec171ce35a60429b9d18c8839cac22334f3c06d90017e64736f6c63430008070033",
  "linkReferences": {},
  "deployedLinkReferences": {}
}