{
  "_format": "hh-sol-artifact-1",
  "contractName": "PiBridgeTessaractNFTs",
  "sourceName": "contracts/PiNFT.sol",
  "abi": [
    {
      "inputs": [],
      "stateMutability": "nonpayable",
      "type": "constructor"
    },
    {
      "anonymous": false,
      "inputs": [
        {
          "indexed": true,
          "internalType": "address",
          "name": "owner",
          "type": "address"
        },
        {
          "indexed": true,
          "internalType": "address",
          "name": "approved",
          "type": "address"
        },
        {
          "indexed": true,
          "internalType": "uint256",
          "name": "tokenId",
          "type": "uint256"
        }
      ],
      "name": "Approval",
      "type": "event"
    },
    {
      "anonymous": false,
      "inputs": [
        {
          "indexed": true,
          "internalType": "address",
          "name": "owner",
          "type": "address"
        },
        {
          "indexed": true,
          "internalType": "address",
          "name": "operator",
          "type": "address"
        },
        {
          "indexed": false,
          "internalType": "bool",
          "name": "approved",
          "type": "bool"
        }
      ],
      "name": "ApprovalForAll",
      "type": "event"
    },
    {
      "anonymous": false,
      "inputs": [
        {
          "indexed": false,
          "internalType": "address",
          "name": "account",
          "type": "address"
        }
      ],
      "name": "Paused",
      "type": "event"
    },
    {
      "anonymous": false,
      "inputs": [
        {
          "indexed": true,
          "internalType": "bytes32",
          "name": "role",
          "type": "bytes32"
        },
        {
          "indexed": true,
          "internalType": "bytes32",
          "name": "previousAdminRole",
          "type": "bytes32"
        },
        {
          "indexed": true,
          "internalType": "bytes32",
          "name": "newAdminRole",
          "type": "bytes32"
        }
      ],
      "name": "RoleAdminChanged",
      "type": "event"
    },
    {
      "anonymous": false,
      "inputs": [
        {
          "indexed": true,
          "internalType": "bytes32",
          "name": "role",
          "type": "bytes32"
        },
        {
          "indexed": true,
          "internalType": "address",
          "name": "account",
          "type": "address"
        },
        {
          "indexed": true,
          "internalType": "address",
          "name": "sender",
          "type": "address"
        }
      ],
      "name": "RoleGranted",
      "type": "event"
    },
    {
      "anonymous": false,
      "inputs": [
        {
          "indexed": true,
          "internalType": "bytes32",
          "name": "role",
          "type": "bytes32"
        },
        {
          "indexed": true,
          "internalType": "address",
          "name": "account",
          "type": "address"
        },
        {
          "indexed": true,
          "internalType": "address",
          "name": "sender",
          "type": "address"
        }
      ],
      "name": "RoleRevoked",
      "type": "event"
    },
    {
      "anonymous": false,
      "inputs": [
        {
          "indexed": true,
          "internalType": "address",
          "name": "from",
          "type": "address"
        },
        {
          "indexed": true,
          "internalType": "address",
          "name": "to",
          "type": "address"
        },
        {
          "indexed": true,
          "internalType": "uint256",
          "name": "tokenId",
          "type": "uint256"
        }
      ],
      "name": "Transfer",
      "type": "event"
    },
    {
      "anonymous": false,
      "inputs": [
        {
          "indexed": false,
          "internalType": "address",
          "name": "account",
          "type": "address"
        }
      ],
      "name": "Unpaused",
      "type": "event"
    },
    {
      "anonymous": false,
      "inputs": [
        {
          "indexed": true,
          "internalType": "address",
          "name": "to",
          "type": "address"
        },
        {
          "indexed": true,
          "internalType": "uint256",
          "name": "tokenId",
          "type": "uint256"
        }
      ],
      "name": "WhitelistMinted",
      "type": "event"
    },
    {
      "inputs": [],
      "name": "DEFAULT_ADMIN_ROLE",
      "outputs": [
        {
          "internalType": "bytes32",
          "name": "",
          "type": "bytes32"
        }
      ],
      "stateMutability": "view",
      "type": "function"
    },
    {
      "inputs": [],
      "name": "MINTER_ROLE",
      "outputs": [
        {
          "internalType": "bytes32",
          "name": "",
          "type": "bytes32"
        }
      ],
      "stateMutability": "view",
      "type": "function"
    },
    {
      "inputs": [],
      "name": "PAUSER_ROLE",
      "outputs": [
        {
          "internalType": "bytes32",
          "name": "",
          "type": "bytes32"
        }
      ],
      "stateMutability": "view",
      "type": "function"
    },
    {
      "inputs": [],
      "name": "WHITELIST_ROLE",
      "outputs": [
        {
          "internalType": "bytes32",
          "name": "",
          "type": "bytes32"
        }
      ],
      "stateMutability": "view",
      "type": "function"
    },
    {
      "inputs": [
        {
          "internalType": "address",
          "name": "to",
          "type": "address"
        },
        {
          "internalType": "uint256",
          "name": "tokenId",
          "type": "uint256"
        }
      ],
      "name": "approve",
      "outputs": [],
      "stateMutability": "nonpayable",
      "type": "function"
    },
    {
      "inputs": [
        {
          "internalType": "address",
          "name": "owner",
          "type": "address"
        }
      ],
      "name": "balanceOf",
      "outputs": [
        {
          "internalType": "uint256",
          "name": "",
          "type": "uint256"
        }
      ],
      "stateMutability": "view",
      "type": "function"
    },
    {
      "inputs": [
        {
          "internalType": "uint256",
          "name": "tokenId",
          "type": "uint256"
        }
      ],
      "name": "burn",
      "outputs": [],
      "stateMutability": "nonpayable",
      "type": "function"
    },
    {
      "inputs": [
        {
          "internalType": "uint256",
          "name": "tokenId",
          "type": "uint256"
        }
      ],
      "name": "getApproved",
      "outputs": [
        {
          "internalType": "address",
          "name": "",
          "type": "address"
        }
      ],
      "stateMutability": "view",
      "type": "function"
    },
    {
      "inputs": [
        {
          "internalType": "bytes32",
          "name": "role",
          "type": "bytes32"
        }
      ],
      "name": "getRoleAdmin",
      "outputs": [
        {
          "internalType": "bytes32",
          "name": "",
          "type": "bytes32"
        }
      ],
      "stateMutability": "view",
      "type": "function"
    },
    {
      "inputs": [
        {
          "internalType": "bytes32",
          "name": "role",
          "type": "bytes32"
        },
        {
          "internalType": "address",
          "name": "account",
          "type": "address"
        }
      ],
      "name": "grantRole",
      "outputs": [],
      "stateMutability": "nonpayable",
      "type": "function"
    },
    {
      "inputs": [
        {
          "internalType": "bytes32",
          "name": "role",
          "type": "bytes32"
        },
        {
          "internalType": "address",
          "name": "account",
          "type": "address"
        }
      ],
      "name": "hasRole",
      "outputs": [
        {
          "internalType": "bool",
          "name": "",
          "type": "bool"
        }
      ],
      "stateMutability": "view",
      "type": "function"
    },
    {
      "inputs": [
        {
          "internalType": "address",
          "name": "owner",
          "type": "address"
        },
        {
          "internalType": "address",
          "name": "operator",
          "type": "address"
        }
      ],
      "name": "isApprovedForAll",
      "outputs": [
        {
          "internalType": "bool",
          "name": "",
          "type": "bool"
        }
      ],
      "stateMutability": "view",
      "type": "function"
    },
    {
      "inputs": [],
      "name": "maxSupply",
      "outputs": [
        {
          "internalType": "uint256",
          "name": "",
          "type": "uint256"
        }
      ],
      "stateMutability": "view",
      "type": "function"
    },
    {
      "inputs": [],
      "name": "name",
      "outputs": [
        {
          "internalType": "string",
          "name": "",
          "type": "string"
        }
      ],
      "stateMutability": "view",
      "type": "function"
    },
    {
      "inputs": [
        {
          "internalType": "uint256",
          "name": "tokenId",
          "type": "uint256"
        }
      ],
      "name": "ownerOf",
      "outputs": [
        {
          "internalType": "address",
          "name": "",
          "type": "address"
        }
      ],
      "stateMutability": "view",
      "type": "function"
    },
    {
      "inputs": [],
      "name": "pause",
      "outputs": [],
      "stateMutability": "nonpayable",
      "type": "function"
    },
    {
      "inputs": [],
      "name": "paused",
      "outputs": [
        {
          "internalType": "bool",
          "name": "",
          "type": "bool"
        }
      ],
      "stateMutability": "view",
      "type": "function"
    },
    {
      "inputs": [
        {
          "internalType": "bytes32",
          "name": "role",
          "type": "bytes32"
        },
        {
          "internalType": "address",
          "name": "account",
          "type": "address"
        }
      ],
      "name": "renounceRole",
      "outputs": [],
      "stateMutability": "nonpayable",
      "type": "function"
    },
    {
      "inputs": [
        {
          "internalType": "bytes32",
          "name": "role",
          "type": "bytes32"
        },
        {
          "internalType": "address",
          "name": "account",
          "type": "address"
        }
      ],
      "name": "revokeRole",
      "outputs": [],
      "stateMutability": "nonpayable",
      "type": "function"
    },
    {
      "inputs": [
        {
          "internalType": "address",
          "name": "to",
          "type": "address"
        }
      ],
      "name": "safeMint",
      "outputs": [],
      "stateMutability": "nonpayable",
      "type": "function"
    },
    {
      "inputs": [],
      "name": "safeMintWhiteList",
      "outputs": [],
      "stateMutability": "nonpayable",
      "type": "function"
    },
    {
      "inputs": [
        {
          "internalType": "address",
          "name": "from",
          "type": "address"
        },
        {
          "internalType": "address",
          "name": "to",
          "type": "address"
        },
        {
          "internalType": "uint256",
          "name": "tokenId",
          "type": "uint256"
        }
      ],
      "name": "safeTransferFrom",
      "outputs": [],
      "stateMutability": "nonpayable",
      "type": "function"
    },
    {
      "inputs": [
        {
          "internalType": "address",
          "name": "from",
          "type": "address"
        },
        {
          "internalType": "address",
          "name": "to",
          "type": "address"
        },
        {
          "internalType": "uint256",
          "name": "tokenId",
          "type": "uint256"
        },
        {
          "internalType": "bytes",
          "name": "_data",
          "type": "bytes"
        }
      ],
      "name": "safeTransferFrom",
      "outputs": [],
      "stateMutability": "nonpayable",
      "type": "function"
    },
    {
      "inputs": [
        {
          "internalType": "address",
          "name": "operator",
          "type": "address"
        },
        {
          "internalType": "bool",
          "name": "approved",
          "type": "bool"
        }
      ],
      "name": "setApprovalForAll",
      "outputs": [],
      "stateMutability": "nonpayable",
      "type": "function"
    },
    {
      "inputs": [
        {
          "internalType": "string",
          "name": "baseTokenURI",
          "type": "string"
        }
      ],
      "name": "setBaseURI",
      "outputs": [],
      "stateMutability": "nonpayable",
      "type": "function"
    },
    {
      "inputs": [
        {
          "internalType": "uint256",
          "name": "_startTime",
          "type": "uint256"
        }
      ],
      "name": "setStartTime",
      "outputs": [],
      "stateMutability": "nonpayable",
      "type": "function"
    },
    {
      "inputs": [
        {
          "internalType": "address[]",
          "name": "account",
          "type": "address[]"
        },
        {
          "internalType": "bool",
          "name": "_enable",
          "type": "bool"
        }
      ],
      "name": "setupMinterRole",
      "outputs": [],
      "stateMutability": "nonpayable",
      "type": "function"
    },
    {
      "inputs": [
        {
          "internalType": "address[]",
          "name": "account",
          "type": "address[]"
        },
        {
          "internalType": "bool",
          "name": "_enable",
          "type": "bool"
        }
      ],
      "name": "setupWhitelistRole",
      "outputs": [],
      "stateMutability": "nonpayable",
      "type": "function"
    },
    {
      "inputs": [],
      "name": "startTime",
      "outputs": [
        {
          "internalType": "uint256",
          "name": "",
          "type": "uint256"
        }
      ],
      "stateMutability": "view",
      "type": "function"
    },
    {
      "inputs": [
        {
          "internalType": "bytes4",
          "name": "interfaceId",
          "type": "bytes4"
        }
      ],
      "name": "supportsInterface",
      "outputs": [
        {
          "internalType": "bool",
          "name": "",
          "type": "bool"
        }
      ],
      "stateMutability": "view",
      "type": "function"
    },
    {
      "inputs": [],
      "name": "symbol",
      "outputs": [
        {
          "internalType": "string",
          "name": "",
          "type": "string"
        }
      ],
      "stateMutability": "view",
      "type": "function"
    },
    {
      "inputs": [
        {
          "internalType": "uint256",
          "name": "index",
          "type": "uint256"
        }
      ],
      "name": "tokenByIndex",
      "outputs": [
        {
          "internalType": "uint256",
          "name": "",
          "type": "uint256"
        }
      ],
      "stateMutability": "view",
      "type": "function"
    },
    {
      "inputs": [
        {
          "internalType": "address",
          "name": "owner",
          "type": "address"
        },
        {
          "internalType": "uint256",
          "name": "index",
          "type": "uint256"
        }
      ],
      "name": "tokenOfOwnerByIndex",
      "outputs": [
        {
          "internalType": "uint256",
          "name": "",
          "type": "uint256"
        }
      ],
      "stateMutability": "view",
      "type": "function"
    },
    {
      "inputs": [
        {
          "internalType": "uint256",
          "name": "tokenId",
          "type": "uint256"
        }
      ],
      "name": "tokenURI",
      "outputs": [
        {
          "internalType": "string",
          "name": "",
          "type": "string"
        }
      ],
      "stateMutability": "view",
      "type": "function"
    },
    {
      "inputs": [],
      "name": "totalSupply",
      "outputs": [
        {
          "internalType": "uint256",
          "name": "",
          "type": "uint256"
        }
      ],
      "stateMutability": "view",
      "type": "function"
    },
    {
      "inputs": [
        {
          "internalType": "address",
          "name": "from",
          "type": "address"
        },
        {
          "internalType": "address",
          "name": "to",
          "type": "address"
        },
        {
          "internalType": "uint256",
          "name": "tokenId",
          "type": "uint256"
        }
      ],
      "name": "transferFrom",
      "outputs": [],
      "stateMutability": "nonpayable",
      "type": "function"
    },
    {
      "inputs": [],
      "name": "unpause",
      "outputs": [],
      "stateMutability": "nonpayable",
      "type": "function"
    },
    {
      "inputs": [],
      "name": "whitelistCount",
      "outputs": [
        {
          "internalType": "uint256",
          "name": "",
          "type": "uint256"
        }
      ],
      "stateMutability": "view",
      "type": "function"
    },
    {
      "inputs": [],
      "name": "whitelistMintedCount",
      "outputs": [
        {
          "internalType": "uint256",
          "name": "",
          "type": "uint256"
        }
      ],
      "stateMutability": "view",
      "type": "function"
    }
  ],
  "bytecode": "0x608060405260405180602001604052806000815250600d90805190602001906200002b929190620002d9565b503480156200003957600080fd5b506040518060400160405280601581526020017f50694272696467655465737361726163744e46547300000000000000000000008152506040518060400160405280600581526020017f50694e46540000000000000000000000000000000000000000000000000000008152508160009080519060200190620000be929190620002d9565b508060019080519060200190620000d7929190620002d9565b5050506000600b60006101000a81548160ff0219169083151502179055506200010a6000801b336200017460201b60201c565b6200013c7f65d7a28e3265b37a6474929f336521b332c1681b933f6cb9f3376673440d862a336200017460201b60201c565b6200016e7f9f2df0fed2c77648de5860a4cc508cd0818c85b8b8a1ab4ceeef8d981c8956a6336200017460201b60201c565b620003ee565b6200018682826200026660201b60201c565b62000262576001600c600084815260200190815260200160002060000160008373ffffffffffffffffffffffffffffffffffffffff1673ffffffffffffffffffffffffffffffffffffffff16815260200190815260200160002060006101000a81548160ff02191690831515021790555062000207620002d160201b60201c565b73ffffffffffffffffffffffffffffffffffffffff168173ffffffffffffffffffffffffffffffffffffffff16837f2f8788117e7eff1d82e926ec794901d17c78024a50270940304540a733656f0d60405160405180910390a45b5050565b6000600c600084815260200190815260200160002060000160008373ffffffffffffffffffffffffffffffffffffffff1673ffffffffffffffffffffffffffffffffffffffff16815260200190815260200160002060009054906101000a900460ff16905092915050565b600033905090565b828054620002e79062000389565b90600052602060002090601f0160209004810192826200030b576000855562000357565b82601f106200032657805160ff191683800117855562000357565b8280016001018555821562000357579182015b828111156200035657825182559160200191906001019062000339565b5b5090506200036691906200036a565b5090565b5b80821115620003855760008160009055506001016200036b565b5090565b60006002820490506001821680620003a257607f821691505b60208210811415620003b957620003b8620003bf565b5b50919050565b7f4e487b7100000000000000000000000000000000000000000000000000000000600052602260045260246000fd5b614ae780620003fe6000396000f3fe608060405234801561001057600080fd5b506004361061023d5760003560e01c806370a082311161013b578063b88d4fde116100b8578063d5abeb011161007c578063d5abeb0114610688578063e63ab1e9146106a6578063e985e9c5146106c4578063f2624b5d146106f4578063feb4cffb146107125761023d565b8063b88d4fde146105e6578063c87b56dd14610602578063d539139314610632578063d547741f14610650578063d58770e31461066c5761023d565b806391d14854116100ff57806391d148541461054257806395d89b4114610572578063a217fddf14610590578063a22cb465146105ae578063abe527c5146105ca5761023d565b806370a08231146104c257806378e97925146104f25780637a0a8ac7146105105780637a997ab71461051a5780638456cb59146105385761023d565b806336568abe116101c957806342966c681161018d57806342966c681461040c5780634f6ccce71461042857806355f804b3146104585780635c975abb146104745780636352211e146104925761023d565b806336568abe146103925780633e0a322d146103ae5780633f4ba83a146103ca57806340d097c3146103d457806342842e0e146103f05761023d565b806318160ddd1161021057806318160ddd146102dc57806323b872dd146102fa578063248a9ca3146103165780632f2ff15d146103465780632f745c59146103625761023d565b806301ffc9a71461024257806306fdde0314610272578063081812fc14610290578063095ea7b3146102c0575b600080fd5b61025c600480360381019061025791906135d0565b610730565b6040516102699190613bba565b60405180910390f35b61027a610742565b6040516102879190613bf0565b60405180910390f35b6102aa60048036038101906102a59190613673565b6107d4565b6040516102b79190613b53565b60405180910390f35b6102da60048036038101906102d591906134c7565b610859565b005b6102e4610971565b6040516102f19190613ed2565b60405180910390f35b610314600480360381019061030f91906133b1565b61097e565b005b610330600480360381019061032b9190613563565b6109de565b60405161033d9190613bd5565b60405180910390f35b610360600480360381019061035b9190613590565b6109fe565b005b61037c600480360381019061037791906134c7565b610a1f565b6040516103899190613ed2565b60405180910390f35b6103ac60048036038101906103a79190613590565b610ac4565b005b6103c860048036038101906103c39190613673565b610b47565b005b6103d2610b5f565b005b6103ee60048036038101906103e99190613344565b610b94565b005b61040a600480360381019061040591906133b1565b610bfa565b005b61042660048036038101906104219190613673565b610c1a565b005b610442600480360381019061043d9190613673565b610c76565b60405161044f9190613ed2565b60405180910390f35b610472600480360381019061046d919061362a565b610ce7565b005b61047c610d0f565b6040516104899190613bba565b60405180910390f35b6104ac60048036038101906104a79190613673565b610d26565b6040516104b99190613b53565b60405180910390f35b6104dc60048036038101906104d79190613344565b610dd8565b6040516104e99190613ed2565b60405180910390f35b6104fa610e90565b6040516105079190613ed2565b60405180910390f35b610518610e96565b005b610522610fc6565b60405161052f9190613bd5565b60405180910390f35b610540610fea565b005b61055c60048036038101906105579190613590565b61101f565b6040516105699190613bba565b60405180910390f35b61057a61108a565b6040516105879190613bf0565b60405180910390f35b61059861111c565b6040516105a59190613bd5565b60405180910390f35b6105c860048036038101906105c39190613487565b611123565b005b6105e460048036038101906105df9190613507565b611139565b005b61060060048036038101906105fb9190613404565b611289565b005b61061c60048036038101906106179190613673565b6112eb565b6040516106299190613bf0565b60405180910390f35b61063a61134a565b6040516106479190613bd5565b60405180910390f35b61066a60048036038101906106659190613590565b61136e565b005b61068660048036038101906106819190613507565b61138f565b005b61069061150f565b60405161069d9190613ed2565b60405180910390f35b6106ae611515565b6040516106bb9190613bd5565b60405180910390f35b6106de60048036038101906106d99190613371565b611539565b6040516106eb9190613bba565b60405180910390f35b6106fc6115cd565b6040516107099190613ed2565b60405180910390f35b61071a6115d3565b6040516107279190613ed2565b60405180910390f35b600061073b826115d9565b9050919050565b606060008054610751906141e2565b80601f016020809104026020016040519081016040528092919081815260200182805461077d906141e2565b80156107ca5780601f1061079f576101008083540402835291602001916107ca565b820191906000526020600020905b8154815290600101906020018083116107ad57829003601f168201915b5050505050905090565b60006107df82611653565b61081e576040517f08c379a000000000000000000000000000000000000000000000000000000000815260040161081590613dd2565b60405180910390fd5b6004600083815260200190815260200160002060009054906101000a900473ffffffffffffffffffffffffffffffffffffffff169050919050565b600061086482610d26565b90508073ffffffffffffffffffffffffffffffffffffffff168373ffffffffffffffffffffffffffffffffffffffff1614156108d5576040517f08c379a00000000000000000000000000000000000000000000000000000000081526004016108cc90613df2565b60405180910390fd5b8073ffffffffffffffffffffffffffffffffffffffff166108f46116bf565b73ffffffffffffffffffffffffffffffffffffffff16148061092357506109228161091d6116bf565b611539565b5b610962576040517f08c379a000000000000000000000000000000000000000000000000000000000815260040161095990613d52565b60405180910390fd5b61096c83836116c7565b505050565b6000600880549050905090565b61098f6109896116bf565b82611780565b6109ce576040517f08c379a00000000000000000000000000000000000000000000000000000000081526004016109c590613e32565b60405180910390fd5b6109d983838361185e565b505050565b6000600c6000838152602001908152602001600020600101549050919050565b610a07826109de565b610a1081611ac5565b610a1a8383611ad9565b505050565b6000610a2a83610dd8565b8210610a6b576040517f08c379a0000000000000000000000000000000000000000000000000000000008152600401610a6290613c52565b60405180910390fd5b600660008473ffffffffffffffffffffffffffffffffffffffff1673ffffffffffffffffffffffffffffffffffffffff168152602001908152602001600020600083815260200190815260200160002054905092915050565b610acc6116bf565b73ffffffffffffffffffffffffffffffffffffffff168173ffffffffffffffffffffffffffffffffffffffff1614610b39576040517f08c379a0000000000000000000000000000000000000000000000000000000008152600401610b3090613eb2565b60405180910390fd5b610b438282611bba565b5050565b6000801b610b5481611ac5565b81600f819055505050565b7f65d7a28e3265b37a6474929f336521b332c1681b933f6cb9f3376673440d862a610b8981611ac5565b610b91611c9c565b50565b7f9f2df0fed2c77648de5860a4cc508cd0818c85b8b8a1ab4ceeef8d981c8956a6610bbe81611ac5565b611388610bc9610971565b10610bd357600080fd5b6000610bdf600e611d3e565b9050610beb600e611d4c565b610bf58382611d62565b505050565b610c1583838360405180602001604052806000815250611289565b505050565b610c2b610c256116bf565b82611780565b610c6a576040517f08c379a0000000000000000000000000000000000000000000000000000000008152600401610c6190613e92565b60405180910390fd5b610c7381611d80565b50565b6000610c80610971565b8210610cc1576040517f08c379a0000000000000000000000000000000000000000000000000000000008152600401610cb890613e72565b60405180910390fd5b60088281548110610cd557610cd461437b565b5b90600052602060002001549050919050565b6000801b610cf481611ac5565b81600d9080519060200190610d0a929190613065565b505050565b6000600b60009054906101000a900460ff16905090565b6000806002600084815260200190815260200160002060009054906101000a900473ffffffffffffffffffffffffffffffffffffffff169050600073ffffffffffffffffffffffffffffffffffffffff168173ffffffffffffffffffffffffffffffffffffffff161415610dcf576040517f08c379a0000000000000000000000000000000000000000000000000000000008152600401610dc690613d92565b60405180910390fd5b80915050919050565b60008073ffffffffffffffffffffffffffffffffffffffff168273ffffffffffffffffffffffffffffffffffffffff161415610e49576040517f08c379a0000000000000000000000000000000000000000000000000000000008152600401610e4090613d72565b60405180910390fd5b600360008373ffffffffffffffffffffffffffffffffffffffff1673ffffffffffffffffffffffffffffffffffffffff168152602001908152602001600020549050919050565b600f5481565b7fdc72ed553f2544c34465af23b847953efeb813428162d767f9ba5f4013be6760610ec081611ac5565b600f54421015610f05576040517f08c379a0000000000000000000000000000000000000000000000000000000008152600401610efc90613e12565b60405180910390fd5b611388610f10610971565b10610f1a57600080fd5b6000610f26600e611d3e565b9050610f32600e611d4c565b610f3c3382611d62565b60116000815480929190610f4f90614245565b9190505550610f7e7fdc72ed553f2544c34465af23b847953efeb813428162d767f9ba5f4013be676033611bba565b803373ffffffffffffffffffffffffffffffffffffffff167fce77e469b386be007f957632f6f65216f2e74c5daa303aff682e8296f628d01060405160405180910390a35050565b7fdc72ed553f2544c34465af23b847953efeb813428162d767f9ba5f4013be676081565b7f65d7a28e3265b37a6474929f336521b332c1681b933f6cb9f3376673440d862a61101481611ac5565b61101c611d8c565b50565b6000600c600084815260200190815260200160002060000160008373ffffffffffffffffffffffffffffffffffffffff1673ffffffffffffffffffffffffffffffffffffffff16815260200190815260200160002060009054906101000a900460ff16905092915050565b606060018054611099906141e2565b80601f01602080910402602001604051908101604052809291908181526020018280546110c5906141e2565b80156111125780601f106110e757610100808354040283529160200191611112565b820191906000526020600020905b8154815290600101906020018083116110f557829003601f168201915b5050505050905090565b6000801b81565b61113561112e6116bf565b8383611e2f565b5050565b6000801b61114681611ac5565b60005b835181101561128357600073ffffffffffffffffffffffffffffffffffffffff1684828151811061117d5761117c61437b565b5b602002602001015173ffffffffffffffffffffffffffffffffffffffff1614156111dc576040517f08c379a00000000000000000000000000000000000000000000000000000000081526004016111d390613e52565b60405180910390fd5b821561122b576112267f9f2df0fed2c77648de5860a4cc508cd0818c85b8b8a1ab4ceeef8d981c8956a68583815181106112195761121861437b565b5b6020026020010151611ad9565b611270565b61126f7f9f2df0fed2c77648de5860a4cc508cd0818c85b8b8a1ab4ceeef8d981c8956a68583815181106112625761126161437b565b5b6020026020010151611bba565b5b808061127b90614245565b915050611149565b50505050565b61129a6112946116bf565b83611780565b6112d9576040517f08c379a00000000000000000000000000000000000000000000000000000000081526004016112d090613e32565b60405180910390fd5b6112e584848484611f9c565b50505050565b606060006112f7611ff8565b905060008151116113175760405180602001604052806000815250611342565b806113218461208a565b604051602001611332929190613aea565b6040516020818303038152906040525b915050919050565b7f9f2df0fed2c77648de5860a4cc508cd0818c85b8b8a1ab4ceeef8d981c8956a681565b611377826109de565b61138081611ac5565b61138a8383611bba565b505050565b6000801b61139c81611ac5565b60005b835181101561150957600073ffffffffffffffffffffffffffffffffffffffff168482815181106113d3576113d261437b565b5b602002602001015173ffffffffffffffffffffffffffffffffffffffff161415611432576040517f08c379a000000000000000000000000000000000000000000000000000000000815260040161142990613e52565b60405180910390fd5b82156114995761147c7fdc72ed553f2544c34465af23b847953efeb813428162d767f9ba5f4013be676085838151811061146f5761146e61437b565b5b6020026020010151611ad9565b6010600081548092919061148f90614245565b91905055506114f6565b6114dd7fdc72ed553f2544c34465af23b847953efeb813428162d767f9ba5f4013be67608583815181106114d0576114cf61437b565b5b6020026020010151611bba565b601060008154809291906114f0906141b8565b91905055505b808061150190614245565b91505061139f565b50505050565b61138881565b7f65d7a28e3265b37a6474929f336521b332c1681b933f6cb9f3376673440d862a81565b6000600560008473ffffffffffffffffffffffffffffffffffffffff1673ffffffffffffffffffffffffffffffffffffffff16815260200190815260200160002060008373ffffffffffffffffffffffffffffffffffffffff1673ffffffffffffffffffffffffffffffffffffffff16815260200190815260200160002060009054906101000a900460ff16905092915050565b60105481565b60115481565b60007f7965db0b000000000000000000000000000000000000000000000000000000007bffffffffffffffffffffffffffffffffffffffffffffffffffffffff1916827bffffffffffffffffffffffffffffffffffffffffffffffffffffffff1916148061164c575061164b826121eb565b5b9050919050565b60008073ffffffffffffffffffffffffffffffffffffffff166002600084815260200190815260200160002060009054906101000a900473ffffffffffffffffffffffffffffffffffffffff1673ffffffffffffffffffffffffffffffffffffffff1614159050919050565b600033905090565b816004600083815260200190815260200160002060006101000a81548173ffffffffffffffffffffffffffffffffffffffff021916908373ffffffffffffffffffffffffffffffffffffffff160217905550808273ffffffffffffffffffffffffffffffffffffffff1661173a83610d26565b73ffffffffffffffffffffffffffffffffffffffff167f8c5be1e5ebec7d5bd14f71427d1e84f3dd0314c0f7b2291e5b200ac8c7c3b92560405160405180910390a45050565b600061178b82611653565b6117ca576040517f08c379a00000000000000000000000000000000000000000000000000000000081526004016117c190613d12565b60405180910390fd5b60006117d583610d26565b90508073ffffffffffffffffffffffffffffffffffffffff168473ffffffffffffffffffffffffffffffffffffffff16148061181757506118168185611539565b5b8061185557508373ffffffffffffffffffffffffffffffffffffffff1661183d846107d4565b73ffffffffffffffffffffffffffffffffffffffff16145b91505092915050565b8273ffffffffffffffffffffffffffffffffffffffff1661187e82610d26565b73ffffffffffffffffffffffffffffffffffffffff16146118d4576040517f08c379a00000000000000000000000000000000000000000000000000000000081526004016118cb90613c92565b60405180910390fd5b600073ffffffffffffffffffffffffffffffffffffffff168273ffffffffffffffffffffffffffffffffffffffff161415611944576040517f08c379a000000000000000000000000000000000000000000000000000000000815260040161193b90613cd2565b60405180910390fd5b61194f838383612265565b61195a6000826116c7565b6001600360008573ffffffffffffffffffffffffffffffffffffffff1673ffffffffffffffffffffffffffffffffffffffff16815260200190815260200160002060008282546119aa91906140c4565b925050819055506001600360008473ffffffffffffffffffffffffffffffffffffffff1673ffffffffffffffffffffffffffffffffffffffff1681526020019081526020016000206000828254611a019190613fe3565b92505081905550816002600083815260200190815260200160002060006101000a81548173ffffffffffffffffffffffffffffffffffffffff021916908373ffffffffffffffffffffffffffffffffffffffff160217905550808273ffffffffffffffffffffffffffffffffffffffff168473ffffffffffffffffffffffffffffffffffffffff167fddf252ad1be2c89b69c2b068fc378daa952ba7f163c4a11628f55a4df523b3ef60405160405180910390a4611ac08383836122bd565b505050565b611ad681611ad16116bf565b6122c2565b50565b611ae3828261101f565b611bb6576001600c600084815260200190815260200160002060000160008373ffffffffffffffffffffffffffffffffffffffff1673ffffffffffffffffffffffffffffffffffffffff16815260200190815260200160002060006101000a81548160ff021916908315150217905550611b5b6116bf565b73ffffffffffffffffffffffffffffffffffffffff168173ffffffffffffffffffffffffffffffffffffffff16837f2f8788117e7eff1d82e926ec794901d17c78024a50270940304540a733656f0d60405160405180910390a45b5050565b611bc4828261101f565b15611c98576000600c600084815260200190815260200160002060000160008373ffffffffffffffffffffffffffffffffffffffff1673ffffffffffffffffffffffffffffffffffffffff16815260200190815260200160002060006101000a81548160ff021916908315150217905550611c3d6116bf565b73ffffffffffffffffffffffffffffffffffffffff168173ffffffffffffffffffffffffffffffffffffffff16837ff6391f5c32d9c69d2a47ea670b442974b53935d1edc7fd64eb21e047a839171b60405160405180910390a45b5050565b611ca4610d0f565b611ce3576040517f08c379a0000000000000000000000000000000000000000000000000000000008152600401611cda90613c32565b60405180910390fd5b6000600b60006101000a81548160ff0219169083151502179055507f5db9ee0a495bf2e6ff9c91a7834c1ba4fdd244a5e8aa4e537bd38aeae4b073aa611d276116bf565b604051611d349190613b53565b60405180910390a1565b600081600001549050919050565b6001816000016000828254019250508190555050565b611d7c82826040518060200160405280600081525061235f565b5050565b611d89816123ba565b50565b611d94610d0f565b15611dd4576040517f08c379a0000000000000000000000000000000000000000000000000000000008152600401611dcb90613d32565b60405180910390fd5b6001600b60006101000a81548160ff0219169083151502179055507f62e78cea01bee320cd4e420270b5ea74000d11b0c9f74754ebdbfc544b05a258611e186116bf565b604051611e259190613b53565b60405180910390a1565b8173ffffffffffffffffffffffffffffffffffffffff168373ffffffffffffffffffffffffffffffffffffffff161415611e9e576040517f08c379a0000000000000000000000000000000000000000000000000000000008152600401611e9590613cf2565b60405180910390fd5b80600560008573ffffffffffffffffffffffffffffffffffffffff1673ffffffffffffffffffffffffffffffffffffffff16815260200190815260200160002060008473ffffffffffffffffffffffffffffffffffffffff1673ffffffffffffffffffffffffffffffffffffffff16815260200190815260200160002060006101000a81548160ff0219169083151502179055508173ffffffffffffffffffffffffffffffffffffffff168373ffffffffffffffffffffffffffffffffffffffff167f17307eab39ab6107e8899845ad3d59bd9653f200f220920489ca2b5937696c3183604051611f8f9190613bba565b60405180910390a3505050565b611fa784848461185e565b611fb38484848461240d565b611ff2576040517f08c379a0000000000000000000000000000000000000000000000000000000008152600401611fe990613c72565b60405180910390fd5b50505050565b6060600d8054612007906141e2565b80601f0160208091040260200160405190810160405280929190818152602001828054612033906141e2565b80156120805780601f1061205557610100808354040283529160200191612080565b820191906000526020600020905b81548152906001019060200180831161206357829003601f168201915b5050505050905090565b606060008214156120d2576040518060400160405280600181526020017f300000000000000000000000000000000000000000000000000000000000000081525090506121e6565b600082905060005b600082146121045780806120ed90614245565b915050600a826120fd9190614039565b91506120da565b60008167ffffffffffffffff8111156121205761211f6143aa565b5b6040519080825280601f01601f1916602001820160405280156121525781602001600182028036833780820191505090505b5090505b600085146121df5760018261216b91906140c4565b9150600a8561217a919061428e565b60306121869190613fe3565b60f81b81838151811061219c5761219b61437b565b5b60200101907effffffffffffffffffffffffffffffffffffffffffffffffffffffffffffff1916908160001a905350600a856121d89190614039565b9450612156565b8093505050505b919050565b60007f780e9d63000000000000000000000000000000000000000000000000000000007bffffffffffffffffffffffffffffffffffffffffffffffffffffffff1916827bffffffffffffffffffffffffffffffffffffffffffffffffffffffff1916148061225e575061225d826125a4565b5b9050919050565b61226d610d0f565b156122ad576040517f08c379a00000000000000000000000000000000000000000000000000000000081526004016122a490613d32565b60405180910390fd5b6122b8838383612686565b505050565b505050565b6122cc828261101f565b61235b576122f18173ffffffffffffffffffffffffffffffffffffffff16601461279a565b6122ff8360001c602061279a565b604051602001612310929190613b19565b6040516020818303038152906040526040517f08c379a00000000000000000000000000000000000000000000000000000000081526004016123529190613bf0565b60405180910390fd5b5050565b61236983836129d6565b612376600084848461240d565b6123b5576040517f08c379a00000000000000000000000000000000000000000000000000000000081526004016123ac90613c72565b60405180910390fd5b505050565b6123c381612bb0565b6000600a600083815260200190815260200160002080546123e3906141e2565b90501461240a57600a6000828152602001908152602001600020600061240991906130eb565b5b50565b600061242e8473ffffffffffffffffffffffffffffffffffffffff16612ccd565b15612597578373ffffffffffffffffffffffffffffffffffffffff1663150b7a026124576116bf565b8786866040518563ffffffff1660e01b81526004016124799493929190613b6e565b602060405180830381600087803b15801561249357600080fd5b505af19250505080156124c457506040513d601f19601f820116820180604052508101906124c191906135fd565b60015b612547573d80600081146124f4576040519150601f19603f3d011682016040523d82523d6000602084013e6124f9565b606091505b5060008151141561253f576040517f08c379a000000000000000000000000000000000000000000000000000000000815260040161253690613c72565b60405180910390fd5b805181602001fd5b63150b7a0260e01b7bffffffffffffffffffffffffffffffffffffffffffffffffffffffff1916817bffffffffffffffffffffffffffffffffffffffffffffffffffffffff19161491505061259c565b600190505b949350505050565b60007f80ac58cd000000000000000000000000000000000000000000000000000000007bffffffffffffffffffffffffffffffffffffffffffffffffffffffff1916827bffffffffffffffffffffffffffffffffffffffffffffffffffffffff1916148061266f57507f5b5e139f000000000000000000000000000000000000000000000000000000007bffffffffffffffffffffffffffffffffffffffffffffffffffffffff1916827bffffffffffffffffffffffffffffffffffffffffffffffffffffffff1916145b8061267f575061267e82612cf0565b5b9050919050565b612691838383612d5a565b600073ffffffffffffffffffffffffffffffffffffffff168373ffffffffffffffffffffffffffffffffffffffff1614156126d4576126cf81612d5f565b612713565b8173ffffffffffffffffffffffffffffffffffffffff168373ffffffffffffffffffffffffffffffffffffffff1614612712576127118382612da8565b5b5b600073ffffffffffffffffffffffffffffffffffffffff168273ffffffffffffffffffffffffffffffffffffffff1614156127565761275181612f15565b612795565b8273ffffffffffffffffffffffffffffffffffffffff168273ffffffffffffffffffffffffffffffffffffffff1614612794576127938282612fe6565b5b5b505050565b6060600060028360026127ad919061406a565b6127b79190613fe3565b67ffffffffffffffff8111156127d0576127cf6143aa565b5b6040519080825280601f01601f1916602001820160405280156128025781602001600182028036833780820191505090505b5090507f30000000000000000000000000000000000000000000000000000000000000008160008151811061283a5761283961437b565b5b60200101907effffffffffffffffffffffffffffffffffffffffffffffffffffffffffffff1916908160001a9053507f78000000000000000000000000000000000000000000000000000000000000008160018151811061289e5761289d61437b565b5b60200101907effffffffffffffffffffffffffffffffffffffffffffffffffffffffffffff1916908160001a905350600060018460026128de919061406a565b6128e89190613fe3565b90505b6001811115612988577f3031323334353637383961626364656600000000000000000000000000000000600f86166010811061292a5761292961437b565b5b1a60f81b8282815181106129415761294061437b565b5b60200101907effffffffffffffffffffffffffffffffffffffffffffffffffffffffffffff1916908160001a905350600485901c945080612981906141b8565b90506128eb565b50600084146129cc576040517f08c379a00000000000000000000000000000000000000000000000000000000081526004016129c390613c12565b60405180910390fd5b8091505092915050565b600073ffffffffffffffffffffffffffffffffffffffff168273ffffffffffffffffffffffffffffffffffffffff161415612a46576040517f08c379a0000000000000000000000000000000000000000000000000000000008152600401612a3d90613db2565b60405180910390fd5b612a4f81611653565b15612a8f576040517f08c379a0000000000000000000000000000000000000000000000000000000008152600401612a8690613cb2565b60405180910390fd5b612a9b60008383612265565b6001600360008473ffffffffffffffffffffffffffffffffffffffff1673ffffffffffffffffffffffffffffffffffffffff1681526020019081526020016000206000828254612aeb9190613fe3565b92505081905550816002600083815260200190815260200160002060006101000a81548173ffffffffffffffffffffffffffffffffffffffff021916908373ffffffffffffffffffffffffffffffffffffffff160217905550808273ffffffffffffffffffffffffffffffffffffffff16600073ffffffffffffffffffffffffffffffffffffffff167fddf252ad1be2c89b69c2b068fc378daa952ba7f163c4a11628f55a4df523b3ef60405160405180910390a4612bac600083836122bd565b5050565b6000612bbb82610d26565b9050612bc981600084612265565b612bd46000836116c7565b6001600360008373ffffffffffffffffffffffffffffffffffffffff1673ffffffffffffffffffffffffffffffffffffffff1681526020019081526020016000206000828254612c2491906140c4565b925050819055506002600083815260200190815260200160002060006101000a81549073ffffffffffffffffffffffffffffffffffffffff021916905581600073ffffffffffffffffffffffffffffffffffffffff168273ffffffffffffffffffffffffffffffffffffffff167fddf252ad1be2c89b69c2b068fc378daa952ba7f163c4a11628f55a4df523b3ef60405160405180910390a4612cc9816000846122bd565b5050565b6000808273ffffffffffffffffffffffffffffffffffffffff163b119050919050565b60007f01ffc9a7000000000000000000000000000000000000000000000000000000007bffffffffffffffffffffffffffffffffffffffffffffffffffffffff1916827bffffffffffffffffffffffffffffffffffffffffffffffffffffffff1916149050919050565b505050565b6008805490506009600083815260200190815260200160002081905550600881908060018154018082558091505060019003906000526020600020016000909190919091505550565b60006001612db584610dd8565b612dbf91906140c4565b9050600060076000848152602001908152602001600020549050818114612ea4576000600660008673ffffffffffffffffffffffffffffffffffffffff1673ffffffffffffffffffffffffffffffffffffffff168152602001908152602001600020600084815260200190815260200160002054905080600660008773ffffffffffffffffffffffffffffffffffffffff1673ffffffffffffffffffffffffffffffffffffffff168152602001908152602001600020600084815260200190815260200160002081905550816007600083815260200190815260200160002081905550505b6007600084815260200190815260200160002060009055600660008573ffffffffffffffffffffffffffffffffffffffff1673ffffffffffffffffffffffffffffffffffffffff16815260200190815260200160002060008381526020019081526020016000206000905550505050565b60006001600880549050612f2991906140c4565b9050600060096000848152602001908152602001600020549050600060088381548110612f5957612f5861437b565b5b906000526020600020015490508060088381548110612f7b57612f7a61437b565b5b906000526020600020018190555081600960008381526020019081526020016000208190555060096000858152602001908152602001600020600090556008805480612fca57612fc961434c565b5b6001900381819060005260206000200160009055905550505050565b6000612ff183610dd8565b905081600660008573ffffffffffffffffffffffffffffffffffffffff1673ffffffffffffffffffffffffffffffffffffffff168152602001908152602001600020600083815260200190815260200160002081905550806007600084815260200190815260200160002081905550505050565b828054613071906141e2565b90600052602060002090601f01602090048101928261309357600085556130da565b82601f106130ac57805160ff19168380011785556130da565b828001600101855582156130da579182015b828111156130d95782518255916020019190600101906130be565b5b5090506130e7919061312b565b5090565b5080546130f7906141e2565b6000825580601f106131095750613128565b601f016020900490600052602060002090810190613127919061312b565b5b50565b5b8082111561314457600081600090555060010161312c565b5090565b600061315b61315684613f12565b613eed565b9050808382526020820190508285602086028201111561317e5761317d6143de565b5b60005b858110156131ae5781613194888261323c565b845260208401935060208301925050600181019050613181565b5050509392505050565b60006131cb6131c684613f3e565b613eed565b9050828152602081018484840111156131e7576131e66143e3565b5b6131f2848285614176565b509392505050565b600061320d61320884613f6f565b613eed565b905082815260208101848484011115613229576132286143e3565b5b613234848285614176565b509392505050565b60008135905061324b81614a3e565b92915050565b600082601f830112613266576132656143d9565b5b8135613276848260208601613148565b91505092915050565b60008135905061328e81614a55565b92915050565b6000813590506132a381614a6c565b92915050565b6000813590506132b881614a83565b92915050565b6000815190506132cd81614a83565b92915050565b600082601f8301126132e8576132e76143d9565b5b81356132f88482602086016131b8565b91505092915050565b600082601f830112613316576133156143d9565b5b81356133268482602086016131fa565b91505092915050565b60008135905061333e81614a9a565b92915050565b60006020828403121561335a576133596143ed565b5b60006133688482850161323c565b91505092915050565b60008060408385031215613388576133876143ed565b5b60006133968582860161323c565b92505060206133a78582860161323c565b9150509250929050565b6000806000606084860312156133ca576133c96143ed565b5b60006133d88682870161323c565b93505060206133e98682870161323c565b92505060406133fa8682870161332f565b9150509250925092565b6000806000806080858703121561341e5761341d6143ed565b5b600061342c8782880161323c565b945050602061343d8782880161323c565b935050604061344e8782880161332f565b925050606085013567ffffffffffffffff81111561346f5761346e6143e8565b5b61347b878288016132d3565b91505092959194509250565b6000806040838503121561349e5761349d6143ed565b5b60006134ac8582860161323c565b92505060206134bd8582860161327f565b9150509250929050565b600080604083850312156134de576134dd6143ed565b5b60006134ec8582860161323c565b92505060206134fd8582860161332f565b9150509250929050565b6000806040838503121561351e5761351d6143ed565b5b600083013567ffffffffffffffff81111561353c5761353b6143e8565b5b61354885828601613251565b92505060206135598582860161327f565b9150509250929050565b600060208284031215613579576135786143ed565b5b600061358784828501613294565b91505092915050565b600080604083850312156135a7576135a66143ed565b5b60006135b585828601613294565b92505060206135c68582860161323c565b9150509250929050565b6000602082840312156135e6576135e56143ed565b5b60006135f4848285016132a9565b91505092915050565b600060208284031215613613576136126143ed565b5b6000613621848285016132be565b91505092915050565b6000602082840312156136405761363f6143ed565b5b600082013567ffffffffffffffff81111561365e5761365d6143e8565b5b61366a84828501613301565b91505092915050565b600060208284031215613689576136886143ed565b5b60006136978482850161332f565b91505092915050565b6136a9816140f8565b82525050565b6136b88161410a565b82525050565b6136c781614116565b82525050565b60006136d882613fa0565b6136e28185613fb6565b93506136f2818560208601614185565b6136fb816143f2565b840191505092915050565b600061371182613fab565b61371b8185613fc7565b935061372b818560208601614185565b613734816143f2565b840191505092915050565b600061374a82613fab565b6137548185613fd8565b9350613764818560208601614185565b80840191505092915050565b600061377d602083613fc7565b915061378882614403565b602082019050919050565b60006137a0601483613fc7565b91506137ab8261442c565b602082019050919050565b60006137c3602b83613fc7565b91506137ce82614455565b604082019050919050565b60006137e6603283613fc7565b91506137f1826144a4565b604082019050919050565b6000613809602583613fc7565b9150613814826144f3565b604082019050919050565b600061382c601c83613fc7565b915061383782614542565b602082019050919050565b600061384f602483613fc7565b915061385a8261456b565b604082019050919050565b6000613872601983613fc7565b915061387d826145ba565b602082019050919050565b6000613895602c83613fc7565b91506138a0826145e3565b604082019050919050565b60006138b8601083613fc7565b91506138c382614632565b602082019050919050565b60006138db603883613fc7565b91506138e68261465b565b604082019050919050565b60006138fe602a83613fc7565b9150613909826146aa565b604082019050919050565b6000613921602983613fc7565b915061392c826146f9565b604082019050919050565b6000613944602083613fc7565b915061394f82614748565b602082019050919050565b6000613967602c83613fc7565b915061397282614771565b604082019050919050565b600061398a600583613fd8565b9150613995826147c0565b600582019050919050565b60006139ad602183613fc7565b91506139b8826147e9565b604082019050919050565b60006139d0601b83613fc7565b91506139db82614838565b602082019050919050565b60006139f3603183613fc7565b91506139fe82614861565b604082019050919050565b6000613a16602483613fc7565b9150613a21826148b0565b604082019050919050565b6000613a39602c83613fc7565b9150613a44826148ff565b604082019050919050565b6000613a5c601783613fd8565b9150613a678261494e565b601782019050919050565b6000613a7f603083613fc7565b9150613a8a82614977565b604082019050919050565b6000613aa2601183613fd8565b9150613aad826149c6565b601182019050919050565b6000613ac5602f83613fc7565b9150613ad0826149ef565b604082019050919050565b613ae48161416c565b82525050565b6000613af6828561373f565b9150613b02828461373f565b9150613b0d8261397d565b91508190509392505050565b6000613b2482613a4f565b9150613b30828561373f565b9150613b3b82613a95565b9150613b47828461373f565b91508190509392505050565b6000602082019050613b6860008301846136a0565b92915050565b6000608082019050613b8360008301876136a0565b613b9060208301866136a0565b613b9d6040830185613adb565b8181036060830152613baf81846136cd565b905095945050505050565b6000602082019050613bcf60008301846136af565b92915050565b6000602082019050613bea60008301846136be565b92915050565b60006020820190508181036000830152613c0a8184613706565b905092915050565b60006020820190508181036000830152613c2b81613770565b9050919050565b60006020820190508181036000830152613c4b81613793565b9050919050565b60006020820190508181036000830152613c6b816137b6565b9050919050565b60006020820190508181036000830152613c8b816137d9565b9050919050565b60006020820190508181036000830152613cab816137fc565b9050919050565b60006020820190508181036000830152613ccb8161381f565b9050919050565b60006020820190508181036000830152613ceb81613842565b9050919050565b60006020820190508181036000830152613d0b81613865565b9050919050565b60006020820190508181036000830152613d2b81613888565b9050919050565b60006020820190508181036000830152613d4b816138ab565b9050919050565b60006020820190508181036000830152613d6b816138ce565b9050919050565b60006020820190508181036000830152613d8b816138f1565b9050919050565b60006020820190508181036000830152613dab81613914565b9050919050565b60006020820190508181036000830152613dcb81613937565b9050919050565b60006020820190508181036000830152613deb8161395a565b9050919050565b60006020820190508181036000830152613e0b816139a0565b9050919050565b60006020820190508181036000830152613e2b816139c3565b9050919050565b60006020820190508181036000830152613e4b816139e6565b9050919050565b60006020820190508181036000830152613e6b81613a09565b9050919050565b60006020820190508181036000830152613e8b81613a2c565b9050919050565b60006020820190508181036000830152613eab81613a72565b9050919050565b60006020820190508181036000830152613ecb81613ab8565b9050919050565b6000602082019050613ee76000830184613adb565b92915050565b6000613ef7613f08565b9050613f038282614214565b919050565b6000604051905090565b600067ffffffffffffffff821115613f2d57613f2c6143aa565b5b602082029050602081019050919050565b600067ffffffffffffffff821115613f5957613f586143aa565b5b613f62826143f2565b9050602081019050919050565b600067ffffffffffffffff821115613f8a57613f896143aa565b5b613f93826143f2565b9050602081019050919050565b600081519050919050565b600081519050919050565b600082825260208201905092915050565b600082825260208201905092915050565b600081905092915050565b6000613fee8261416c565b9150613ff98361416c565b9250827fffffffffffffffffffffffffffffffffffffffffffffffffffffffffffffffff0382111561402e5761402d6142bf565b5b828201905092915050565b60006140448261416c565b915061404f8361416c565b92508261405f5761405e6142ee565b5b828204905092915050565b60006140758261416c565b91506140808361416c565b9250817fffffffffffffffffffffffffffffffffffffffffffffffffffffffffffffffff04831182151516156140b9576140b86142bf565b5b828202905092915050565b60006140cf8261416c565b91506140da8361416c565b9250828210156140ed576140ec6142bf565b5b828203905092915050565b60006141038261414c565b9050919050565b60008115159050919050565b6000819050919050565b60007fffffffff0000000000000000000000000000000000000000000000000000000082169050919050565b600073ffffffffffffffffffffffffffffffffffffffff82169050919050565b6000819050919050565b82818337600083830152505050565b60005b838110156141a3578082015181840152602081019050614188565b838111156141b2576000848401525b50505050565b60006141c38261416c565b915060008214156141d7576141d66142bf565b5b600182039050919050565b600060028204905060018216806141fa57607f821691505b6020821081141561420e5761420d61431d565b5b50919050565b61421d826143f2565b810181811067ffffffffffffffff8211171561423c5761423b6143aa565b5b80604052505050565b60006142508261416c565b91507fffffffffffffffffffffffffffffffffffffffffffffffffffffffffffffffff821415614283576142826142bf565b5b600182019050919050565b60006142998261416c565b91506142a48361416c565b9250826142b4576142b36142ee565b5b828206905092915050565b7f4e487b7100000000000000000000000000000000000000000000000000000000600052601160045260246000fd5b7f4e487b7100000000000000000000000000000000000000000000000000000000600052601260045260246000fd5b7f4e487b7100000000000000000000000000000000000000000000000000000000600052602260045260246000fd5b7f4e487b7100000000000000000000000000000000000000000000000000000000600052603160045260246000fd5b7f4e487b7100000000000000000000000000000000000000000000000000000000600052603260045260246000fd5b7f4e487b7100000000000000000000000000000000000000000000000000000000600052604160045260246000fd5b600080fd5b600080fd5b600080fd5b600080fd5b600080fd5b6000601f19601f8301169050919050565b7f537472696e67733a20686578206c656e67746820696e73756666696369656e74600082015250565b7f5061757361626c653a206e6f7420706175736564000000000000000000000000600082015250565b7f455243373231456e756d657261626c653a206f776e657220696e646578206f7560008201527f74206f6620626f756e6473000000000000000000000000000000000000000000602082015250565b7f4552433732313a207472616e7366657220746f206e6f6e20455243373231526560008201527f63656976657220696d706c656d656e7465720000000000000000000000000000602082015250565b7f4552433732313a207472616e736665722066726f6d20696e636f72726563742060008201527f6f776e6572000000000000000000000000000000000000000000000000000000602082015250565b7f4552433732313a20746f6b656e20616c7265616479206d696e74656400000000600082015250565b7f4552433732313a207472616e7366657220746f20746865207a65726f2061646460008201527f7265737300000000000000000000000000000000000000000000000000000000602082015250565b7f4552433732313a20617070726f766520746f2063616c6c657200000000000000600082015250565b7f4552433732313a206f70657261746f7220717565727920666f72206e6f6e657860008201527f697374656e7420746f6b656e0000000000000000000000000000000000000000602082015250565b7f5061757361626c653a2070617573656400000000000000000000000000000000600082015250565b7f4552433732313a20617070726f76652063616c6c6572206973206e6f74206f7760008201527f6e6572206e6f7220617070726f76656420666f7220616c6c0000000000000000602082015250565b7f4552433732313a2062616c616e636520717565727920666f7220746865207a6560008201527f726f206164647265737300000000000000000000000000000000000000000000602082015250565b7f4552433732313a206f776e657220717565727920666f72206e6f6e657869737460008201527f656e7420746f6b656e0000000000000000000000000000000000000000000000602082015250565b7f4552433732313a206d696e7420746f20746865207a65726f2061646472657373600082015250565b7f4552433732313a20617070726f76656420717565727920666f72206e6f6e657860008201527f697374656e7420746f6b656e0000000000000000000000000000000000000000602082015250565b7f2e6a736f6e000000000000000000000000000000000000000000000000000000600082015250565b7f4552433732313a20617070726f76616c20746f2063757272656e74206f776e6560008201527f7200000000000000000000000000000000000000000000000000000000000000602082015250565b7f57686974656c6973742061697264726f70206e6f742073746172740000000000600082015250565b7f4552433732313a207472616e736665722063616c6c6572206973206e6f74206f60008201527f776e6572206e6f7220617070726f766564000000000000000000000000000000602082015250565b7f6163636f756e74206d757374206265206e6f7420657175616c2061646472657360008201527f7320307800000000000000000000000000000000000000000000000000000000602082015250565b7f455243373231456e756d657261626c653a20676c6f62616c20696e646578206f60008201527f7574206f6620626f756e64730000000000000000000000000000000000000000602082015250565b7f416363657373436f6e74726f6c3a206163636f756e7420000000000000000000600082015250565b7f4552433732314275726e61626c653a2063616c6c6572206973206e6f74206f7760008201527f6e6572206e6f7220617070726f76656400000000000000000000000000000000602082015250565b7f206973206d697373696e6720726f6c6520000000000000000000000000000000600082015250565b7f416363657373436f6e74726f6c3a2063616e206f6e6c792072656e6f756e636560008201527f20726f6c657320666f722073656c660000000000000000000000000000000000602082015250565b614a47816140f8565b8114614a5257600080fd5b50565b614a5e8161410a565b8114614a6957600080fd5b50565b614a7581614116565b8114614a8057600080fd5b50565b614a8c81614120565b8114614a9757600080fd5b50565b614aa38161416c565b8114614aae57600080fd5b5056fea264697066735822122095bd550c337fd7e2266670823bc84c900fa6ed0e83644e8386e8316f053db1d964736f6c63430008070033",
  "linkReferences": {},
  "deployedLinkReferences": {}
}