{
  "_format": "hh-sol-artifact-1",
  "contractName": "RunTogetherBoxNFT",
  "sourceName": "contracts/RunTogetherBoxNFT.sol",
  "abi": [
    {
      "inputs": [],
      "stateMutability": "nonpayable",
      "type": "constructor"
    },
    {
      "anonymous": false,
      "inputs": [
        {
          "indexed": true,
          "internalType": "address",
          "name": "owner",
          "type": "address"
        },
        {
          "indexed": true,
          "internalType": "address",
          "name": "approved",
          "type": "address"
        },
        {
          "indexed": true,
          "internalType": "uint256",
          "name": "tokenId",
          "type": "uint256"
        }
      ],
      "name": "Approval",
      "type": "event"
    },
    {
      "anonymous": false,
      "inputs": [
        {
          "indexed": true,
          "internalType": "address",
          "name": "owner",
          "type": "address"
        },
        {
          "indexed": true,
          "internalType": "address",
          "name": "operator",
          "type": "address"
        },
        {
          "indexed": false,
          "internalType": "bool",
          "name": "approved",
          "type": "bool"
        }
      ],
      "name": "ApprovalForAll",
      "type": "event"
    },
    {
      "anonymous": false,
      "inputs": [
        {
          "indexed": true,
          "internalType": "address",
          "name": "previousOwner",
          "type": "address"
        },
        {
          "indexed": true,
          "internalType": "address",
          "name": "newOwner",
          "type": "address"
        }
      ],
      "name": "OwnershipTransferred",
      "type": "event"
    },
    {
      "anonymous": false,
      "inputs": [
        {
          "indexed": true,
          "internalType": "address",
          "name": "from",
          "type": "address"
        },
        {
          "indexed": true,
          "internalType": "address",
          "name": "to",
          "type": "address"
        },
        {
          "indexed": true,
          "internalType": "uint256",
          "name": "tokenId",
          "type": "uint256"
        }
      ],
      "name": "Transfer",
      "type": "event"
    },
    {
      "inputs": [
        {
          "internalType": "address",
          "name": "to",
          "type": "address"
        },
        {
          "internalType": "uint256",
          "name": "tokenId",
          "type": "uint256"
        }
      ],
      "name": "approve",
      "outputs": [],
      "stateMutability": "nonpayable",
      "type": "function"
    },
    {
      "inputs": [
        {
          "internalType": "address",
          "name": "owner",
          "type": "address"
        }
      ],
      "name": "balanceOf",
      "outputs": [
        {
          "internalType": "uint256",
          "name": "",
          "type": "uint256"
        }
      ],
      "stateMutability": "view",
      "type": "function"
    },
    {
      "inputs": [
        {
          "internalType": "uint256",
          "name": "tokenId",
          "type": "uint256"
        }
      ],
      "name": "getApproved",
      "outputs": [
        {
          "internalType": "address",
          "name": "",
          "type": "address"
        }
      ],
      "stateMutability": "view",
      "type": "function"
    },
    {
      "inputs": [
        {
          "internalType": "uint256",
          "name": "tokenId",
          "type": "uint256"
        }
      ],
      "name": "getBoxType",
      "outputs": [
        {
          "internalType": "uint256",
          "name": "",
          "type": "uint256"
        }
      ],
      "stateMutability": "view",
      "type": "function"
    },
    {
      "inputs": [
        {
          "internalType": "address",
          "name": "owner",
          "type": "address"
        },
        {
          "internalType": "address",
          "name": "operator",
          "type": "address"
        }
      ],
      "name": "isApprovedForAll",
      "outputs": [
        {
          "internalType": "bool",
          "name": "",
          "type": "bool"
        }
      ],
      "stateMutability": "view",
      "type": "function"
    },
    {
      "inputs": [
        {
          "internalType": "address",
          "name": "toAddress",
          "type": "address"
        },
        {
          "internalType": "uint256",
          "name": "amount",
          "type": "uint256"
        },
        {
          "internalType": "uint256",
          "name": "boxType",
          "type": "uint256"
        }
      ],
      "name": "multiMint",
      "outputs": [],
      "stateMutability": "nonpayable",
      "type": "function"
    },
    {
      "inputs": [],
      "name": "name",
      "outputs": [
        {
          "internalType": "string",
          "name": "",
          "type": "string"
        }
      ],
      "stateMutability": "view",
      "type": "function"
    },
    {
      "inputs": [],
      "name": "owner",
      "outputs": [
        {
          "internalType": "address",
          "name": "",
          "type": "address"
        }
      ],
      "stateMutability": "view",
      "type": "function"
    },
    {
      "inputs": [
        {
          "internalType": "uint256",
          "name": "tokenId",
          "type": "uint256"
        }
      ],
      "name": "ownerOf",
      "outputs": [
        {
          "internalType": "address",
          "name": "",
          "type": "address"
        }
      ],
      "stateMutability": "view",
      "type": "function"
    },
    {
      "inputs": [],
      "name": "renounceOwnership",
      "outputs": [],
      "stateMutability": "nonpayable",
      "type": "function"
    },
    {
      "inputs": [
        {
          "internalType": "address",
          "name": "to",
          "type": "address"
        },
        {
          "internalType": "uint256",
          "name": "boxType",
          "type": "uint256"
        }
      ],
      "name": "safeMint",
      "outputs": [],
      "stateMutability": "nonpayable",
      "type": "function"
    },
    {
      "inputs": [
        {
          "internalType": "address",
          "name": "from",
          "type": "address"
        },
        {
          "internalType": "address",
          "name": "to",
          "type": "address"
        },
        {
          "internalType": "uint256",
          "name": "tokenId",
          "type": "uint256"
        }
      ],
      "name": "safeTransferFrom",
      "outputs": [],
      "stateMutability": "nonpayable",
      "type": "function"
    },
    {
      "inputs": [
        {
          "internalType": "address",
          "name": "from",
          "type": "address"
        },
        {
          "internalType": "address",
          "name": "to",
          "type": "address"
        },
        {
          "internalType": "uint256",
          "name": "tokenId",
          "type": "uint256"
        },
        {
          "internalType": "bytes",
          "name": "_data",
          "type": "bytes"
        }
      ],
      "name": "safeTransferFrom",
      "outputs": [],
      "stateMutability": "nonpayable",
      "type": "function"
    },
    {
      "inputs": [
        {
          "internalType": "address",
          "name": "operator",
          "type": "address"
        },
        {
          "internalType": "bool",
          "name": "approved",
          "type": "bool"
        }
      ],
      "name": "setApprovalForAll",
      "outputs": [],
      "stateMutability": "nonpayable",
      "type": "function"
    },
    {
      "inputs": [
        {
          "internalType": "uint256",
          "name": "tokenId",
          "type": "uint256"
        },
        {
          "internalType": "uint256",
          "name": "boxType",
          "type": "uint256"
        }
      ],
      "name": "setBoxType",
      "outputs": [],
      "stateMutability": "nonpayable",
      "type": "function"
    },
    {
      "inputs": [
        {
          "internalType": "address",
          "name": "to",
          "type": "address"
        },
        {
          "internalType": "uint256",
          "name": "boxType",
          "type": "uint256"
        }
      ],
      "name": "superMint",
      "outputs": [],
      "stateMutability": "nonpayable",
      "type": "function"
    },
    {
      "inputs": [
        {
          "internalType": "bytes4",
          "name": "interfaceId",
          "type": "bytes4"
        }
      ],
      "name": "supportsInterface",
      "outputs": [
        {
          "internalType": "bool",
          "name": "",
          "type": "bool"
        }
      ],
      "stateMutability": "view",
      "type": "function"
    },
    {
      "inputs": [],
      "name": "symbol",
      "outputs": [
        {
          "internalType": "string",
          "name": "",
          "type": "string"
        }
      ],
      "stateMutability": "view",
      "type": "function"
    },
    {
      "inputs": [
        {
          "internalType": "uint256",
          "name": "index",
          "type": "uint256"
        }
      ],
      "name": "tokenByIndex",
      "outputs": [
        {
          "internalType": "uint256",
          "name": "",
          "type": "uint256"
        }
      ],
      "stateMutability": "view",
      "type": "function"
    },
    {
      "inputs": [
        {
          "internalType": "address",
          "name": "owner",
          "type": "address"
        },
        {
          "internalType": "uint256",
          "name": "index",
          "type": "uint256"
        }
      ],
      "name": "tokenOfOwnerByIndex",
      "outputs": [
        {
          "internalType": "uint256",
          "name": "",
          "type": "uint256"
        }
      ],
      "stateMutability": "view",
      "type": "function"
    },
    {
      "inputs": [
        {
          "internalType": "uint256",
          "name": "tokenId",
          "type": "uint256"
        }
      ],
      "name": "tokenURI",
      "outputs": [
        {
          "internalType": "string",
          "name": "",
          "type": "string"
        }
      ],
      "stateMutability": "view",
      "type": "function"
    },
    {
      "inputs": [],
      "name": "totalSupply",
      "outputs": [
        {
          "internalType": "uint256",
          "name": "",
          "type": "uint256"
        }
      ],
      "stateMutability": "view",
      "type": "function"
    },
    {
      "inputs": [
        {
          "internalType": "address",
          "name": "from",
          "type": "address"
        },
        {
          "internalType": "address",
          "name": "to",
          "type": "address"
        },
        {
          "internalType": "uint256",
          "name": "tokenId",
          "type": "uint256"
        }
      ],
      "name": "transferFrom",
      "outputs": [],
      "stateMutability": "nonpayable",
      "type": "function"
    },
    {
      "inputs": [
        {
          "internalType": "address",
          "name": "newOwner",
          "type": "address"
        }
      ],
      "name": "transferOwnership",
      "outputs": [],
      "stateMutability": "nonpayable",
      "type": "function"
    }
  ],
  "bytecode": "0x60806040523480156200001157600080fd5b506040518060400160405280601181526020017f52756e546f676574686572426f784e46540000000000000000000000000000008152506040518060400160405280600381526020017f5254420000000000000000000000000000000000000000000000000000000000815250816000908051906020019062000096929190620001a6565b508060019080519060200190620000af929190620001a6565b505050620000d2620000c6620000d860201b60201c565b620000e060201b60201c565b620002bb565b600033905090565b6000600a60009054906101000a900473ffffffffffffffffffffffffffffffffffffffff16905081600a60006101000a81548173ffffffffffffffffffffffffffffffffffffffff021916908373ffffffffffffffffffffffffffffffffffffffff1602179055508173ffffffffffffffffffffffffffffffffffffffff168173ffffffffffffffffffffffffffffffffffffffff167f8be0079c531659141344cd1fd0a4f28419497f9722a3daafe3b4186f6b6457e060405160405180910390a35050565b828054620001b49062000256565b90600052602060002090601f016020900481019282620001d8576000855562000224565b82601f10620001f357805160ff191683800117855562000224565b8280016001018555821562000224579182015b828111156200022357825182559160200191906001019062000206565b5b50905062000233919062000237565b5090565b5b808211156200025257600081600090555060010162000238565b5090565b600060028204905060018216806200026f57607f821691505b602082108114156200028657620002856200028c565b5b50919050565b7f4e487b7100000000000000000000000000000000000000000000000000000000600052602260045260246000fd5b61359a80620002cb6000396000f3fe608060405234801561001057600080fd5b50600436106101585760003560e01c80638da5cb5b116100c3578063b66900ee1161007c578063b66900ee146103d7578063b88d4fde146103f3578063c87b56dd1461040f578063e985e9c51461043f578063f2fde38b1461046f578063fa6171e41461048b57610158565b80638da5cb5b1461031757806395d89b4114610335578063980e035e14610353578063a14481941461036f578063a22cb4651461038b578063b546a3bc146103a757610158565b80632f745c59116101155780632f745c591461023157806342842e0e146102615780634f6ccce71461027d5780636352211e146102ad57806370a08231146102dd578063715018a61461030d57610158565b806301ffc9a71461015d57806306fdde031461018d578063081812fc146101ab578063095ea7b3146101db57806318160ddd146101f757806323b872dd14610215575b600080fd5b610177600480360381019061017291906124bc565b6104a7565b6040516101849190612954565b60405180910390f35b6101956104b9565b6040516101a2919061296f565b60405180910390f35b6101c560048036038101906101c09190612516565b61054b565b6040516101d291906128ed565b60405180910390f35b6101f560048036038101906101f09190612429565b6105d0565b005b6101ff6106e8565b60405161020c9190612bd1565b60405180910390f35b61022f600480360381019061022a9190612313565b6106f5565b005b61024b60048036038101906102469190612429565b610755565b6040516102589190612bd1565b60405180910390f35b61027b60048036038101906102769190612313565b6107fa565b005b61029760048036038101906102929190612516565b61081a565b6040516102a49190612bd1565b60405180910390f35b6102c760048036038101906102c29190612516565b61088b565b6040516102d491906128ed565b60405180910390f35b6102f760048036038101906102f291906122a6565b61093d565b6040516103049190612bd1565b60405180910390f35b6103156109f5565b005b61031f610a7d565b60405161032c91906128ed565b60405180910390f35b61033d610aa7565b60405161034a919061296f565b60405180910390f35b61036d60048036038101906103689190612469565b610b39565b005b61038960048036038101906103849190612429565b610b67565b005b6103a560048036038101906103a091906123e9565b610c14565b005b6103c160048036038101906103bc9190612516565b610c2a565b6040516103ce9190612bd1565b60405180910390f35b6103f160048036038101906103ec9190612543565b610c47565b005b61040d60048036038101906104089190612366565b610c63565b005b61042960048036038101906104249190612516565b610cc5565b604051610436919061296f565b60405180910390f35b610459600480360381019061045491906122d3565b610d6c565b6040516104669190612954565b60405180910390f35b610489600480360381019061048491906122a6565b610e00565b005b6104a560048036038101906104a09190612429565b610ef8565b005b60006104b282610f29565b9050919050565b6060600080546104c890612df6565b80601f01602080910402602001604051908101604052809291908181526020018280546104f490612df6565b80156105415780601f1061051657610100808354040283529160200191610541565b820191906000526020600020905b81548152906001019060200180831161052457829003601f168201915b5050505050905090565b600061055682610fa3565b610595576040517f08c379a000000000000000000000000000000000000000000000000000000000815260040161058c90612b11565b60405180910390fd5b6004600083815260200190815260200160002060009054906101000a900473ffffffffffffffffffffffffffffffffffffffff169050919050565b60006105db8261088b565b90508073ffffffffffffffffffffffffffffffffffffffff168373ffffffffffffffffffffffffffffffffffffffff16141561064c576040517f08c379a000000000000000000000000000000000000000000000000000000000815260040161064390612b71565b60405180910390fd5b8073ffffffffffffffffffffffffffffffffffffffff1661066b61100f565b73ffffffffffffffffffffffffffffffffffffffff16148061069a57506106998161069461100f565b610d6c565b5b6106d9576040517f08c379a00000000000000000000000000000000000000000000000000000000081526004016106d090612a91565b60405180910390fd5b6106e38383611017565b505050565b6000600880549050905090565b61070661070061100f565b826110d0565b610745576040517f08c379a000000000000000000000000000000000000000000000000000000000815260040161073c90612b91565b60405180910390fd5b6107508383836111ae565b505050565b60006107608361093d565b82106107a1576040517f08c379a000000000000000000000000000000000000000000000000000000000815260040161079890612991565b60405180910390fd5b600660008473ffffffffffffffffffffffffffffffffffffffff1673ffffffffffffffffffffffffffffffffffffffff168152602001908152602001600020600083815260200190815260200160002054905092915050565b61081583838360405180602001604052806000815250610c63565b505050565b60006108246106e8565b8210610865576040517f08c379a000000000000000000000000000000000000000000000000000000000815260040161085c90612bb1565b60405180910390fd5b6008828154811061087957610878612f8f565b5b90600052602060002001549050919050565b6000806002600084815260200190815260200160002060009054906101000a900473ffffffffffffffffffffffffffffffffffffffff169050600073ffffffffffffffffffffffffffffffffffffffff168173ffffffffffffffffffffffffffffffffffffffff161415610934576040517f08c379a000000000000000000000000000000000000000000000000000000000815260040161092b90612ad1565b60405180910390fd5b80915050919050565b60008073ffffffffffffffffffffffffffffffffffffffff168273ffffffffffffffffffffffffffffffffffffffff1614156109ae576040517f08c379a00000000000000000000000000000000000000000000000000000000081526004016109a590612ab1565b60405180910390fd5b600360008373ffffffffffffffffffffffffffffffffffffffff1673ffffffffffffffffffffffffffffffffffffffff168152602001908152602001600020549050919050565b6109fd61100f565b73ffffffffffffffffffffffffffffffffffffffff16610a1b610a7d565b73ffffffffffffffffffffffffffffffffffffffff1614610a71576040517f08c379a0000000000000000000000000000000000000000000000000000000008152600401610a6890612b31565b60405180910390fd5b610a7b6000611415565b565b6000600a60009054906101000a900473ffffffffffffffffffffffffffffffffffffffff16905090565b606060018054610ab690612df6565b80601f0160208091040260200160405190810160405280929190818152602001828054610ae290612df6565b8015610b2f5780601f10610b0457610100808354040283529160200191610b2f565b820191906000526020600020905b815481529060010190602001808311610b1257829003601f168201915b5050505050905090565b60005b82811015610b6157610b4e8483610ef8565b8080610b5990612e59565b915050610b3c565b50505050565b610b6f61100f565b73ffffffffffffffffffffffffffffffffffffffff16610b8d610a7d565b73ffffffffffffffffffffffffffffffffffffffff1614610be3576040517f08c379a0000000000000000000000000000000000000000000000000000000008152600401610bda90612b31565b60405180910390fd5b6000610bef600b6114db565b9050610bfb600b6114e9565b610c0583826114ff565b610c0f8183610c47565b505050565b610c26610c1f61100f565b838361151d565b5050565b6000600c6000838152602001908152602001600020549050919050565b80600c6000848152602001908152602001600020819055505050565b610c74610c6e61100f565b836110d0565b610cb3576040517f08c379a0000000000000000000000000000000000000000000000000000000008152600401610caa90612b91565b60405180910390fd5b610cbf8484848461168a565b50505050565b6060610cd082610fa3565b610d0f576040517f08c379a0000000000000000000000000000000000000000000000000000000008152600401610d0690612b51565b60405180910390fd5b6000610d196116e6565b90506000815111610d395760405180602001604052806000815250610d64565b80610d43846116fd565b604051602001610d549291906128c9565b6040516020818303038152906040525b915050919050565b6000600560008473ffffffffffffffffffffffffffffffffffffffff1673ffffffffffffffffffffffffffffffffffffffff16815260200190815260200160002060008373ffffffffffffffffffffffffffffffffffffffff1673ffffffffffffffffffffffffffffffffffffffff16815260200190815260200160002060009054906101000a900460ff16905092915050565b610e0861100f565b73ffffffffffffffffffffffffffffffffffffffff16610e26610a7d565b73ffffffffffffffffffffffffffffffffffffffff1614610e7c576040517f08c379a0000000000000000000000000000000000000000000000000000000008152600401610e7390612b31565b60405180910390fd5b600073ffffffffffffffffffffffffffffffffffffffff168173ffffffffffffffffffffffffffffffffffffffff161415610eec576040517f08c379a0000000000000000000000000000000000000000000000000000000008152600401610ee3906129d1565b60405180910390fd5b610ef581611415565b50565b6000610f04600b6114db565b9050610f10600b6114e9565b610f1a83826114ff565b610f248183610c47565b505050565b60007f780e9d63000000000000000000000000000000000000000000000000000000007bffffffffffffffffffffffffffffffffffffffffffffffffffffffff1916827bffffffffffffffffffffffffffffffffffffffffffffffffffffffff19161480610f9c5750610f9b8261185e565b5b9050919050565b60008073ffffffffffffffffffffffffffffffffffffffff166002600084815260200190815260200160002060009054906101000a900473ffffffffffffffffffffffffffffffffffffffff1673ffffffffffffffffffffffffffffffffffffffff1614159050919050565b600033905090565b816004600083815260200190815260200160002060006101000a81548173ffffffffffffffffffffffffffffffffffffffff021916908373ffffffffffffffffffffffffffffffffffffffff160217905550808273ffffffffffffffffffffffffffffffffffffffff1661108a8361088b565b73ffffffffffffffffffffffffffffffffffffffff167f8c5be1e5ebec7d5bd14f71427d1e84f3dd0314c0f7b2291e5b200ac8c7c3b92560405160405180910390a45050565b60006110db82610fa3565b61111a576040517f08c379a000000000000000000000000000000000000000000000000000000000815260040161111190612a71565b60405180910390fd5b60006111258361088b565b90508073ffffffffffffffffffffffffffffffffffffffff168473ffffffffffffffffffffffffffffffffffffffff16148061116757506111668185610d6c565b5b806111a557508373ffffffffffffffffffffffffffffffffffffffff1661118d8461054b565b73ffffffffffffffffffffffffffffffffffffffff16145b91505092915050565b8273ffffffffffffffffffffffffffffffffffffffff166111ce8261088b565b73ffffffffffffffffffffffffffffffffffffffff1614611224576040517f08c379a000000000000000000000000000000000000000000000000000000000815260040161121b906129f1565b60405180910390fd5b600073ffffffffffffffffffffffffffffffffffffffff168273ffffffffffffffffffffffffffffffffffffffff161415611294576040517f08c379a000000000000000000000000000000000000000000000000000000000815260040161128b90612a31565b60405180910390fd5b61129f838383611940565b6112aa600082611017565b6001600360008573ffffffffffffffffffffffffffffffffffffffff1673ffffffffffffffffffffffffffffffffffffffff16815260200190815260200160002060008282546112fa9190612d0c565b925050819055506001600360008473ffffffffffffffffffffffffffffffffffffffff1673ffffffffffffffffffffffffffffffffffffffff16815260200190815260200160002060008282546113519190612c85565b92505081905550816002600083815260200190815260200160002060006101000a81548173ffffffffffffffffffffffffffffffffffffffff021916908373ffffffffffffffffffffffffffffffffffffffff160217905550808273ffffffffffffffffffffffffffffffffffffffff168473ffffffffffffffffffffffffffffffffffffffff167fddf252ad1be2c89b69c2b068fc378daa952ba7f163c4a11628f55a4df523b3ef60405160405180910390a4611410838383611950565b505050565b6000600a60009054906101000a900473ffffffffffffffffffffffffffffffffffffffff16905081600a60006101000a81548173ffffffffffffffffffffffffffffffffffffffff021916908373ffffffffffffffffffffffffffffffffffffffff1602179055508173ffffffffffffffffffffffffffffffffffffffff168173ffffffffffffffffffffffffffffffffffffffff167f8be0079c531659141344cd1fd0a4f28419497f9722a3daafe3b4186f6b6457e060405160405180910390a35050565b600081600001549050919050565b6001816000016000828254019250508190555050565b611519828260405180602001604052806000815250611955565b5050565b8173ffffffffffffffffffffffffffffffffffffffff168373ffffffffffffffffffffffffffffffffffffffff16141561158c576040517f08c379a000000000000000000000000000000000000000000000000000000000815260040161158390612a51565b60405180910390fd5b80600560008573ffffffffffffffffffffffffffffffffffffffff1673ffffffffffffffffffffffffffffffffffffffff16815260200190815260200160002060008473ffffffffffffffffffffffffffffffffffffffff1673ffffffffffffffffffffffffffffffffffffffff16815260200190815260200160002060006101000a81548160ff0219169083151502179055508173ffffffffffffffffffffffffffffffffffffffff168373ffffffffffffffffffffffffffffffffffffffff167f17307eab39ab6107e8899845ad3d59bd9653f200f220920489ca2b5937696c318360405161167d9190612954565b60405180910390a3505050565b6116958484846111ae565b6116a1848484846119b0565b6116e0576040517f08c379a00000000000000000000000000000000000000000000000000000000081526004016116d7906129b1565b60405180910390fd5b50505050565b606060405180602001604052806000815250905090565b60606000821415611745576040518060400160405280600181526020017f30000000000000000000000000000000000000000000000000000000000000008152509050611859565b600082905060005b6000821461177757808061176090612e59565b915050600a826117709190612cdb565b915061174d565b60008167ffffffffffffffff81111561179357611792612fbe565b5b6040519080825280601f01601f1916602001820160405280156117c55781602001600182028036833780820191505090505b5090505b60008514611852576001826117de9190612d0c565b9150600a856117ed9190612ea2565b60306117f99190612c85565b60f81b81838151811061180f5761180e612f8f565b5b60200101907effffffffffffffffffffffffffffffffffffffffffffffffffffffffffffff1916908160001a905350600a8561184b9190612cdb565b94506117c9565b8093505050505b919050565b60007f80ac58cd000000000000000000000000000000000000000000000000000000007bffffffffffffffffffffffffffffffffffffffffffffffffffffffff1916827bffffffffffffffffffffffffffffffffffffffffffffffffffffffff1916148061192957507f5b5e139f000000000000000000000000000000000000000000000000000000007bffffffffffffffffffffffffffffffffffffffffffffffffffffffff1916827bffffffffffffffffffffffffffffffffffffffffffffffffffffffff1916145b80611939575061193882611b47565b5b9050919050565b61194b838383611bb1565b505050565b505050565b61195f8383611cc5565b61196c60008484846119b0565b6119ab576040517f08c379a00000000000000000000000000000000000000000000000000000000081526004016119a2906129b1565b60405180910390fd5b505050565b60006119d18473ffffffffffffffffffffffffffffffffffffffff16611e9f565b15611b3a578373ffffffffffffffffffffffffffffffffffffffff1663150b7a026119fa61100f565b8786866040518563ffffffff1660e01b8152600401611a1c9493929190612908565b602060405180830381600087803b158015611a3657600080fd5b505af1925050508015611a6757506040513d601f19601f82011682018060405250810190611a6491906124e9565b60015b611aea573d8060008114611a97576040519150601f19603f3d011682016040523d82523d6000602084013e611a9c565b606091505b50600081511415611ae2576040517f08c379a0000000000000000000000000000000000000000000000000000000008152600401611ad9906129b1565b60405180910390fd5b805181602001fd5b63150b7a0260e01b7bffffffffffffffffffffffffffffffffffffffffffffffffffffffff1916817bffffffffffffffffffffffffffffffffffffffffffffffffffffffff191614915050611b3f565b600190505b949350505050565b60007f01ffc9a7000000000000000000000000000000000000000000000000000000007bffffffffffffffffffffffffffffffffffffffffffffffffffffffff1916827bffffffffffffffffffffffffffffffffffffffffffffffffffffffff1916149050919050565b611bbc838383611ec2565b600073ffffffffffffffffffffffffffffffffffffffff168373ffffffffffffffffffffffffffffffffffffffff161415611bff57611bfa81611ec7565b611c3e565b8173ffffffffffffffffffffffffffffffffffffffff168373ffffffffffffffffffffffffffffffffffffffff1614611c3d57611c3c8382611f10565b5b5b600073ffffffffffffffffffffffffffffffffffffffff168273ffffffffffffffffffffffffffffffffffffffff161415611c8157611c7c8161207d565b611cc0565b8273ffffffffffffffffffffffffffffffffffffffff168273ffffffffffffffffffffffffffffffffffffffff1614611cbf57611cbe828261214e565b5b5b505050565b600073ffffffffffffffffffffffffffffffffffffffff168273ffffffffffffffffffffffffffffffffffffffff161415611d35576040517f08c379a0000000000000000000000000000000000000000000000000000000008152600401611d2c90612af1565b60405180910390fd5b611d3e81610fa3565b15611d7e576040517f08c379a0000000000000000000000000000000000000000000000000000000008152600401611d7590612a11565b60405180910390fd5b611d8a60008383611940565b6001600360008473ffffffffffffffffffffffffffffffffffffffff1673ffffffffffffffffffffffffffffffffffffffff1681526020019081526020016000206000828254611dda9190612c85565b92505081905550816002600083815260200190815260200160002060006101000a81548173ffffffffffffffffffffffffffffffffffffffff021916908373ffffffffffffffffffffffffffffffffffffffff160217905550808273ffffffffffffffffffffffffffffffffffffffff16600073ffffffffffffffffffffffffffffffffffffffff167fddf252ad1be2c89b69c2b068fc378daa952ba7f163c4a11628f55a4df523b3ef60405160405180910390a4611e9b60008383611950565b5050565b6000808273ffffffffffffffffffffffffffffffffffffffff163b119050919050565b505050565b6008805490506009600083815260200190815260200160002081905550600881908060018154018082558091505060019003906000526020600020016000909190919091505550565b60006001611f1d8461093d565b611f279190612d0c565b905060006007600084815260200190815260200160002054905081811461200c576000600660008673ffffffffffffffffffffffffffffffffffffffff1673ffffffffffffffffffffffffffffffffffffffff168152602001908152602001600020600084815260200190815260200160002054905080600660008773ffffffffffffffffffffffffffffffffffffffff1673ffffffffffffffffffffffffffffffffffffffff168152602001908152602001600020600084815260200190815260200160002081905550816007600083815260200190815260200160002081905550505b6007600084815260200190815260200160002060009055600660008573ffffffffffffffffffffffffffffffffffffffff1673ffffffffffffffffffffffffffffffffffffffff16815260200190815260200160002060008381526020019081526020016000206000905550505050565b600060016008805490506120919190612d0c565b90506000600960008481526020019081526020016000205490506000600883815481106120c1576120c0612f8f565b5b9060005260206000200154905080600883815481106120e3576120e2612f8f565b5b90600052602060002001819055508160096000838152602001908152602001600020819055506009600085815260200190815260200160002060009055600880548061213257612131612f60565b5b6001900381819060005260206000200160009055905550505050565b60006121598361093d565b905081600660008573ffffffffffffffffffffffffffffffffffffffff1673ffffffffffffffffffffffffffffffffffffffff168152602001908152602001600020600083815260200190815260200160002081905550806007600084815260200190815260200160002081905550505050565b60006121e06121db84612c11565b612bec565b9050828152602081018484840111156121fc576121fb612ff2565b5b612207848285612db4565b509392505050565b60008135905061221e81613508565b92915050565b6000813590506122338161351f565b92915050565b60008135905061224881613536565b92915050565b60008151905061225d81613536565b92915050565b600082601f83011261227857612277612fed565b5b81356122888482602086016121cd565b91505092915050565b6000813590506122a08161354d565b92915050565b6000602082840312156122bc576122bb612ffc565b5b60006122ca8482850161220f565b91505092915050565b600080604083850312156122ea576122e9612ffc565b5b60006122f88582860161220f565b92505060206123098582860161220f565b9150509250929050565b60008060006060848603121561232c5761232b612ffc565b5b600061233a8682870161220f565b935050602061234b8682870161220f565b925050604061235c86828701612291565b9150509250925092565b600080600080608085870312156123805761237f612ffc565b5b600061238e8782880161220f565b945050602061239f8782880161220f565b93505060406123b087828801612291565b925050606085013567ffffffffffffffff8111156123d1576123d0612ff7565b5b6123dd87828801612263565b91505092959194509250565b60008060408385031215612400576123ff612ffc565b5b600061240e8582860161220f565b925050602061241f85828601612224565b9150509250929050565b600080604083850312156124405761243f612ffc565b5b600061244e8582860161220f565b925050602061245f85828601612291565b9150509250929050565b60008060006060848603121561248257612481612ffc565b5b60006124908682870161220f565b93505060206124a186828701612291565b92505060406124b286828701612291565b9150509250925092565b6000602082840312156124d2576124d1612ffc565b5b60006124e084828501612239565b91505092915050565b6000602082840312156124ff576124fe612ffc565b5b600061250d8482850161224e565b91505092915050565b60006020828403121561252c5761252b612ffc565b5b600061253a84828501612291565b91505092915050565b6000806040838503121561255a57612559612ffc565b5b600061256885828601612291565b925050602061257985828601612291565b9150509250929050565b61258c81612d40565b82525050565b61259b81612d52565b82525050565b60006125ac82612c42565b6125b68185612c58565b93506125c6818560208601612dc3565b6125cf81613001565b840191505092915050565b60006125e582612c4d565b6125ef8185612c69565b93506125ff818560208601612dc3565b61260881613001565b840191505092915050565b600061261e82612c4d565b6126288185612c7a565b9350612638818560208601612dc3565b80840191505092915050565b6000612651602b83612c69565b915061265c82613012565b604082019050919050565b6000612674603283612c69565b915061267f82613061565b604082019050919050565b6000612697602683612c69565b91506126a2826130b0565b604082019050919050565b60006126ba602583612c69565b91506126c5826130ff565b604082019050919050565b60006126dd601c83612c69565b91506126e88261314e565b602082019050919050565b6000612700602483612c69565b915061270b82613177565b604082019050919050565b6000612723601983612c69565b915061272e826131c6565b602082019050919050565b6000612746602c83612c69565b9150612751826131ef565b604082019050919050565b6000612769603883612c69565b91506127748261323e565b604082019050919050565b600061278c602a83612c69565b91506127978261328d565b604082019050919050565b60006127af602983612c69565b91506127ba826132dc565b604082019050919050565b60006127d2602083612c69565b91506127dd8261332b565b602082019050919050565b60006127f5602c83612c69565b915061280082613354565b604082019050919050565b6000612818602083612c69565b9150612823826133a3565b602082019050919050565b600061283b602f83612c69565b9150612846826133cc565b604082019050919050565b600061285e602183612c69565b91506128698261341b565b604082019050919050565b6000612881603183612c69565b915061288c8261346a565b604082019050919050565b60006128a4602c83612c69565b91506128af826134b9565b604082019050919050565b6128c381612daa565b82525050565b60006128d58285612613565b91506128e18284612613565b91508190509392505050565b60006020820190506129026000830184612583565b92915050565b600060808201905061291d6000830187612583565b61292a6020830186612583565b61293760408301856128ba565b818103606083015261294981846125a1565b905095945050505050565b60006020820190506129696000830184612592565b92915050565b6000602082019050818103600083015261298981846125da565b905092915050565b600060208201905081810360008301526129aa81612644565b9050919050565b600060208201905081810360008301526129ca81612667565b9050919050565b600060208201905081810360008301526129ea8161268a565b9050919050565b60006020820190508181036000830152612a0a816126ad565b9050919050565b60006020820190508181036000830152612a2a816126d0565b9050919050565b60006020820190508181036000830152612a4a816126f3565b9050919050565b60006020820190508181036000830152612a6a81612716565b9050919050565b60006020820190508181036000830152612a8a81612739565b9050919050565b60006020820190508181036000830152612aaa8161275c565b9050919050565b60006020820190508181036000830152612aca8161277f565b9050919050565b60006020820190508181036000830152612aea816127a2565b9050919050565b60006020820190508181036000830152612b0a816127c5565b9050919050565b60006020820190508181036000830152612b2a816127e8565b9050919050565b60006020820190508181036000830152612b4a8161280b565b9050919050565b60006020820190508181036000830152612b6a8161282e565b9050919050565b60006020820190508181036000830152612b8a81612851565b9050919050565b60006020820190508181036000830152612baa81612874565b9050919050565b60006020820190508181036000830152612bca81612897565b9050919050565b6000602082019050612be660008301846128ba565b92915050565b6000612bf6612c07565b9050612c028282612e28565b919050565b6000604051905090565b600067ffffffffffffffff821115612c2c57612c2b612fbe565b5b612c3582613001565b9050602081019050919050565b600081519050919050565b600081519050919050565b600082825260208201905092915050565b600082825260208201905092915050565b600081905092915050565b6000612c9082612daa565b9150612c9b83612daa565b9250827fffffffffffffffffffffffffffffffffffffffffffffffffffffffffffffffff03821115612cd057612ccf612ed3565b5b828201905092915050565b6000612ce682612daa565b9150612cf183612daa565b925082612d0157612d00612f02565b5b828204905092915050565b6000612d1782612daa565b9150612d2283612daa565b925082821015612d3557612d34612ed3565b5b828203905092915050565b6000612d4b82612d8a565b9050919050565b60008115159050919050565b60007fffffffff0000000000000000000000000000000000000000000000000000000082169050919050565b600073ffffffffffffffffffffffffffffffffffffffff82169050919050565b6000819050919050565b82818337600083830152505050565b60005b83811015612de1578082015181840152602081019050612dc6565b83811115612df0576000848401525b50505050565b60006002820490506001821680612e0e57607f821691505b60208210811415612e2257612e21612f31565b5b50919050565b612e3182613001565b810181811067ffffffffffffffff82111715612e5057612e4f612fbe565b5b80604052505050565b6000612e6482612daa565b91507fffffffffffffffffffffffffffffffffffffffffffffffffffffffffffffffff821415612e9757612e96612ed3565b5b600182019050919050565b6000612ead82612daa565b9150612eb883612daa565b925082612ec857612ec7612f02565b5b828206905092915050565b7f4e487b7100000000000000000000000000000000000000000000000000000000600052601160045260246000fd5b7f4e487b7100000000000000000000000000000000000000000000000000000000600052601260045260246000fd5b7f4e487b7100000000000000000000000000000000000000000000000000000000600052602260045260246000fd5b7f4e487b7100000000000000000000000000000000000000000000000000000000600052603160045260246000fd5b7f4e487b7100000000000000000000000000000000000000000000000000000000600052603260045260246000fd5b7f4e487b7100000000000000000000000000000000000000000000000000000000600052604160045260246000fd5b600080fd5b600080fd5b600080fd5b600080fd5b6000601f19601f8301169050919050565b7f455243373231456e756d657261626c653a206f776e657220696e646578206f7560008201527f74206f6620626f756e6473000000000000000000000000000000000000000000602082015250565b7f4552433732313a207472616e7366657220746f206e6f6e20455243373231526560008201527f63656976657220696d706c656d656e7465720000000000000000000000000000602082015250565b7f4f776e61626c653a206e6577206f776e657220697320746865207a65726f206160008201527f6464726573730000000000000000000000000000000000000000000000000000602082015250565b7f4552433732313a207472616e736665722066726f6d20696e636f72726563742060008201527f6f776e6572000000000000000000000000000000000000000000000000000000602082015250565b7f4552433732313a20746f6b656e20616c7265616479206d696e74656400000000600082015250565b7f4552433732313a207472616e7366657220746f20746865207a65726f2061646460008201527f7265737300000000000000000000000000000000000000000000000000000000602082015250565b7f4552433732313a20617070726f766520746f2063616c6c657200000000000000600082015250565b7f4552433732313a206f70657261746f7220717565727920666f72206e6f6e657860008201527f697374656e7420746f6b656e0000000000000000000000000000000000000000602082015250565b7f4552433732313a20617070726f76652063616c6c6572206973206e6f74206f7760008201527f6e6572206e6f7220617070726f76656420666f7220616c6c0000000000000000602082015250565b7f4552433732313a2062616c616e636520717565727920666f7220746865207a6560008201527f726f206164647265737300000000000000000000000000000000000000000000602082015250565b7f4552433732313a206f776e657220717565727920666f72206e6f6e657869737460008201527f656e7420746f6b656e0000000000000000000000000000000000000000000000602082015250565b7f4552433732313a206d696e7420746f20746865207a65726f2061646472657373600082015250565b7f4552433732313a20617070726f76656420717565727920666f72206e6f6e657860008201527f697374656e7420746f6b656e0000000000000000000000000000000000000000602082015250565b7f4f776e61626c653a2063616c6c6572206973206e6f7420746865206f776e6572600082015250565b7f4552433732314d657461646174613a2055524920717565727920666f72206e6f60008201527f6e6578697374656e7420746f6b656e0000000000000000000000000000000000602082015250565b7f4552433732313a20617070726f76616c20746f2063757272656e74206f776e6560008201527f7200000000000000000000000000000000000000000000000000000000000000602082015250565b7f4552433732313a207472616e736665722063616c6c6572206973206e6f74206f60008201527f776e6572206e6f7220617070726f766564000000000000000000000000000000602082015250565b7f455243373231456e756d657261626c653a20676c6f62616c20696e646578206f60008201527f7574206f6620626f756e64730000000000000000000000000000000000000000602082015250565b61351181612d40565b811461351c57600080fd5b50565b61352881612d52565b811461353357600080fd5b50565b61353f81612d5e565b811461354a57600080fd5b50565b61355681612daa565b811461356157600080fd5b5056fea26469706673582212208df6b0f595cfbba1ed88fe1de6339d83a4161eeb59734188466fa8b87744404f64736f6c63430008070033",
  "linkReferences": {},
  "deployedLinkReferences": {}
}