{
  "_format": "hh-sol-artifact-1",
  "contractName": "IRunTogetherPool",
  "sourceName": "contracts/RunTogetherPool2.sol",
  "abi": [
    {
      "inputs": [
        {
          "internalType": "uint256",
          "name": "_amount",
          "type": "uint256"
        },
        {
          "internalType": "address",
          "name": "_user",
          "type": "address"
        }
      ],
      "name": "withdraw",
      "outputs": [],
      "stateMutability": "nonpayable",
      "type": "function"
    }
  ],
  "bytecode": "0x608060405234801561001057600080fd5b5061015e806100206000396000f3fe608060405234801561001057600080fd5b506004361061002a5760003560e01c8062f714ce1461002f575b600080fd5b61004960048036038101906100449190610079565b61004b565b005b5050565b60008135905061005e816100fa565b92915050565b60008135905061007381610111565b92915050565b600080604083850312156100905761008f6100f5565b5b600061009e85828601610064565b92505060206100af8582860161004f565b9150509250929050565b60006100c4826100cb565b9050919050565b600073ffffffffffffffffffffffffffffffffffffffff82169050919050565b6000819050919050565b600080fd5b610103816100b9565b811461010e57600080fd5b50565b61011a816100eb565b811461012557600080fd5b5056fea2646970667358221220c03c6e58773e62350e7b3b50d9e2e925c7e37823a9f7769b20f1402e2228a92764736f6c63430008070033",
  "linkReferences": {},
  "deployedLinkReferences": {}
}