{
  "_format": "hh-sol-artifact-1",
  "contractName": "RunTogetherPool2",
  "sourceName": "contracts/RunTogetherPool2.sol",
  "abi": [
    {
      "inputs": [
        {
          "internalType": "address",
          "name": "_pool",
          "type": "address"
        }
      ],
      "stateMutability": "nonpayable",
      "type": "constructor"
    },
    {
      "anonymous": false,
      "inputs": [
        {
          "indexed": true,
          "internalType": "address",
          "name": "previousOwner",
          "type": "address"
        },
        {
          "indexed": true,
          "internalType": "address",
          "name": "newOwner",
          "type": "address"
        }
      ],
      "name": "OwnershipTransferred",
      "type": "event"
    },
    {
      "inputs": [],
      "name": "owner",
      "outputs": [
        {
          "internalType": "address",
          "name": "",
          "type": "address"
        }
      ],
      "stateMutability": "view",
      "type": "function"
    },
    {
      "inputs": [],
      "name": "renounceOwnership",
      "outputs": [],
      "stateMutability": "nonpayable",
      "type": "function"
    },
    {
      "inputs": [
        {
          "internalType": "uint256",
          "name": "_amount",
          "type": "uint256"
        }
      ],
      "name": "superWithdraw",
      "outputs": [],
      "stateMutability": "nonpayable",
      "type": "function"
    },
    {
      "inputs": [
        {
          "internalType": "address",
          "name": "newOwner",
          "type": "address"
        }
      ],
      "name": "transferOwnership",
      "outputs": [],
      "stateMutability": "nonpayable",
      "type": "function"
    }
  ],
  "bytecode": "0x608060405234801561001057600080fd5b506040516108583803806108588339818101604052810190610032919061017d565b61004e61004361009c60201b60201c565b6100a460201b60201c565b6001808190555080600260006101000a81548173ffffffffffffffffffffffffffffffffffffffff021916908373ffffffffffffffffffffffffffffffffffffffff160217905550506101f8565b600033905090565b60008060009054906101000a900473ffffffffffffffffffffffffffffffffffffffff169050816000806101000a81548173ffffffffffffffffffffffffffffffffffffffff021916908373ffffffffffffffffffffffffffffffffffffffff1602179055508173ffffffffffffffffffffffffffffffffffffffff168173ffffffffffffffffffffffffffffffffffffffff167f8be0079c531659141344cd1fd0a4f28419497f9722a3daafe3b4186f6b6457e060405160405180910390a35050565b600081519050610177816101e1565b92915050565b600060208284031215610193576101926101dc565b5b60006101a184828501610168565b91505092915050565b60006101b5826101bc565b9050919050565b600073ffffffffffffffffffffffffffffffffffffffff82169050919050565b600080fd5b6101ea816101aa565b81146101f557600080fd5b50565b610651806102076000396000f3fe608060405234801561001057600080fd5b506004361061004c5760003560e01c8063345a5b3714610051578063715018a61461006d5780638da5cb5b14610077578063f2fde38b14610095575b600080fd5b61006b6004803603810190610066919061040e565b6100b1565b005b610075610142565b005b61007f6101ca565b60405161008c919061049f565b60405180910390f35b6100af60048036038101906100aa91906103e1565b6101f3565b005b600260009054906101000a900473ffffffffffffffffffffffffffffffffffffffff1673ffffffffffffffffffffffffffffffffffffffff1662f714ce82336040518363ffffffff1660e01b815260040161010d9291906104fa565b600060405180830381600087803b15801561012757600080fd5b505af115801561013b573d6000803e3d6000fd5b5050505050565b61014a6102eb565b73ffffffffffffffffffffffffffffffffffffffff166101686101ca565b73ffffffffffffffffffffffffffffffffffffffff16146101be576040517f08c379a00000000000000000000000000000000000000000000000000000000081526004016101b5906104da565b60405180910390fd5b6101c860006102f3565b565b60008060009054906101000a900473ffffffffffffffffffffffffffffffffffffffff16905090565b6101fb6102eb565b73ffffffffffffffffffffffffffffffffffffffff166102196101ca565b73ffffffffffffffffffffffffffffffffffffffff161461026f576040517f08c379a0000000000000000000000000000000000000000000000000000000008152600401610266906104da565b60405180910390fd5b600073ffffffffffffffffffffffffffffffffffffffff168173ffffffffffffffffffffffffffffffffffffffff1614156102df576040517f08c379a00000000000000000000000000000000000000000000000000000000081526004016102d6906104ba565b60405180910390fd5b6102e8816102f3565b50565b600033905090565b60008060009054906101000a900473ffffffffffffffffffffffffffffffffffffffff169050816000806101000a81548173ffffffffffffffffffffffffffffffffffffffff021916908373ffffffffffffffffffffffffffffffffffffffff1602179055508173ffffffffffffffffffffffffffffffffffffffff168173ffffffffffffffffffffffffffffffffffffffff167f8be0079c531659141344cd1fd0a4f28419497f9722a3daafe3b4186f6b6457e060405160405180910390a35050565b6000813590506103c6816105ed565b92915050565b6000813590506103db81610604565b92915050565b6000602082840312156103f7576103f6610570565b5b6000610405848285016103b7565b91505092915050565b60006020828403121561042457610423610570565b5b6000610432848285016103cc565b91505092915050565b61044481610534565b82525050565b6000610457602683610523565b915061046282610575565b604082019050919050565b600061047a602083610523565b9150610485826105c4565b602082019050919050565b61049981610566565b82525050565b60006020820190506104b4600083018461043b565b92915050565b600060208201905081810360008301526104d38161044a565b9050919050565b600060208201905081810360008301526104f38161046d565b9050919050565b600060408201905061050f6000830185610490565b61051c602083018461043b565b9392505050565b600082825260208201905092915050565b600061053f82610546565b9050919050565b600073ffffffffffffffffffffffffffffffffffffffff82169050919050565b6000819050919050565b600080fd5b7f4f776e61626c653a206e6577206f776e657220697320746865207a65726f206160008201527f6464726573730000000000000000000000000000000000000000000000000000602082015250565b7f4f776e61626c653a2063616c6c6572206973206e6f7420746865206f776e6572600082015250565b6105f681610534565b811461060157600080fd5b50565b61060d81610566565b811461061857600080fd5b5056fea264697066735822122098f690e34d93a8381004247908212685e6b5baec29a1ef275a8daf48ac3213d664736f6c63430008070033",
  "linkReferences": {},
  "deployedLinkReferences": {}
}