{
  "_format": "hh-sol-artifact-1",
  "contractName": "FootEarnBamiINO",
  "sourceName": "contracts/FootEarnBamiINO.sol",
  "abi": [
    {
      "inputs": [
        {
          "internalType": "address",
          "name": "_paymentToken",
          "type": "address"
        },
        {
          "internalType": "address[]",
          "name": "_nftAddress",
          "type": "address[]"
        },
        {
          "internalType": "uint256[]",
          "name": "_maxNumber",
          "type": "uint256[]"
        },
        {
          "internalType": "uint256[]",
          "name": "_price",
          "type": "uint256[]"
        }
      ],
      "stateMutability": "nonpayable",
      "type": "constructor"
    },
    {
      "anonymous": false,
      "inputs": [
        {
          "indexed": false,
          "internalType": "address",
          "name": "user",
          "type": "address"
        },
        {
          "indexed": false,
          "internalType": "uint256",
          "name": "_nftType",
          "type": "uint256"
        },
        {
          "indexed": false,
          "internalType": "uint256",
          "name": "_nftPrice",
          "type": "uint256"
        },
        {
          "indexed": false,
          "internalType": "uint256",
          "name": "_buyTime",
          "type": "uint256"
        }
      ],
      "name": "BuyComplete",
      "type": "event"
    },
    {
      "anonymous": false,
      "inputs": [
        {
          "indexed": false,
          "internalType": "address",
          "name": "receiver",
          "type": "address"
        },
        {
          "indexed": false,
          "internalType": "uint256",
          "name": "_claimTime",
          "type": "uint256"
        }
      ],
      "name": "ClaimComplete",
      "type": "event"
    },
    {
      "anonymous": false,
      "inputs": [
        {
          "indexed": true,
          "internalType": "address",
          "name": "previousOwner",
          "type": "address"
        },
        {
          "indexed": true,
          "internalType": "address",
          "name": "newOwner",
          "type": "address"
        }
      ],
      "name": "OwnershipTransferred",
      "type": "event"
    },
    {
      "anonymous": false,
      "inputs": [
        {
          "indexed": false,
          "internalType": "address",
          "name": "receiver",
          "type": "address"
        },
        {
          "indexed": false,
          "internalType": "uint256",
          "name": "_nftType",
          "type": "uint256"
        },
        {
          "indexed": false,
          "internalType": "uint256",
          "name": "_tokenId",
          "type": "uint256"
        }
      ],
      "name": "TransferComplete",
      "type": "event"
    },
    {
      "inputs": [
        {
          "internalType": "uint256",
          "name": "_nftType",
          "type": "uint256"
        }
      ],
      "name": "buyNft",
      "outputs": [],
      "stateMutability": "nonpayable",
      "type": "function"
    },
    {
      "inputs": [
        {
          "internalType": "uint256",
          "name": "_nftType",
          "type": "uint256"
        }
      ],
      "name": "checkBalanceByType",
      "outputs": [
        {
          "internalType": "uint256",
          "name": "_balance",
          "type": "uint256"
        }
      ],
      "stateMutability": "view",
      "type": "function"
    },
    {
      "inputs": [],
      "name": "claim",
      "outputs": [],
      "stateMutability": "nonpayable",
      "type": "function"
    },
    {
      "inputs": [],
      "name": "emergencyWithdrawPaymentToken",
      "outputs": [],
      "stateMutability": "nonpayable",
      "type": "function"
    },
    {
      "inputs": [],
      "name": "endTimeBuy",
      "outputs": [
        {
          "internalType": "uint256",
          "name": "",
          "type": "uint256"
        }
      ],
      "stateMutability": "view",
      "type": "function"
    },
    {
      "inputs": [],
      "name": "getNftTypeList",
      "outputs": [
        {
          "internalType": "uint256[]",
          "name": "",
          "type": "uint256[]"
        }
      ],
      "stateMutability": "view",
      "type": "function"
    },
    {
      "inputs": [
        {
          "internalType": "address",
          "name": "",
          "type": "address"
        }
      ],
      "name": "inWhiteList",
      "outputs": [
        {
          "internalType": "bool",
          "name": "",
          "type": "bool"
        }
      ],
      "stateMutability": "view",
      "type": "function"
    },
    {
      "inputs": [],
      "name": "isPause",
      "outputs": [
        {
          "internalType": "bool",
          "name": "",
          "type": "bool"
        }
      ],
      "stateMutability": "view",
      "type": "function"
    },
    {
      "inputs": [
        {
          "internalType": "uint256",
          "name": "",
          "type": "uint256"
        }
      ],
      "name": "nftCurrentNumber",
      "outputs": [
        {
          "internalType": "uint256",
          "name": "",
          "type": "uint256"
        }
      ],
      "stateMutability": "view",
      "type": "function"
    },
    {
      "inputs": [
        {
          "internalType": "address",
          "name": "",
          "type": "address"
        },
        {
          "internalType": "address",
          "name": "",
          "type": "address"
        },
        {
          "internalType": "uint256",
          "name": "",
          "type": "uint256"
        },
        {
          "internalType": "bytes",
          "name": "",
          "type": "bytes"
        }
      ],
      "name": "onERC721Received",
      "outputs": [
        {
          "internalType": "bytes4",
          "name": "",
          "type": "bytes4"
        }
      ],
      "stateMutability": "nonpayable",
      "type": "function"
    },
    {
      "inputs": [],
      "name": "owner",
      "outputs": [
        {
          "internalType": "address",
          "name": "",
          "type": "address"
        }
      ],
      "stateMutability": "view",
      "type": "function"
    },
    {
      "inputs": [],
      "name": "paymentToken",
      "outputs": [
        {
          "internalType": "contract ERC20",
          "name": "",
          "type": "address"
        }
      ],
      "stateMutability": "view",
      "type": "function"
    },
    {
      "inputs": [],
      "name": "renounceOwnership",
      "outputs": [],
      "stateMutability": "nonpayable",
      "type": "function"
    },
    {
      "inputs": [
        {
          "internalType": "uint256[]",
          "name": "_maxNumber",
          "type": "uint256[]"
        }
      ],
      "name": "setMaxNumber",
      "outputs": [],
      "stateMutability": "nonpayable",
      "type": "function"
    },
    {
      "inputs": [
        {
          "internalType": "uint256[]",
          "name": "_price",
          "type": "uint256[]"
        }
      ],
      "name": "setNftPrice",
      "outputs": [],
      "stateMutability": "nonpayable",
      "type": "function"
    },
    {
      "inputs": [
        {
          "internalType": "address[]",
          "name": "_nftAddress",
          "type": "address[]"
        }
      ],
      "name": "setNftaddress",
      "outputs": [],
      "stateMutability": "nonpayable",
      "type": "function"
    },
    {
      "inputs": [
        {
          "internalType": "bool",
          "name": "_status",
          "type": "bool"
        }
      ],
      "name": "setPauseContract",
      "outputs": [],
      "stateMutability": "nonpayable",
      "type": "function"
    },
    {
      "inputs": [
        {
          "internalType": "address",
          "name": "_paymentToken",
          "type": "address"
        }
      ],
      "name": "setPaymentToken",
      "outputs": [],
      "stateMutability": "nonpayable",
      "type": "function"
    },
    {
      "inputs": [
        {
          "internalType": "uint256",
          "name": "_startTimeBuy",
          "type": "uint256"
        },
        {
          "internalType": "uint256",
          "name": "_endTimeBuy",
          "type": "uint256"
        }
      ],
      "name": "setTimeBuy",
      "outputs": [],
      "stateMutability": "nonpayable",
      "type": "function"
    },
    {
      "inputs": [
        {
          "internalType": "uint256",
          "name": "_startTimeClaim",
          "type": "uint256"
        }
      ],
      "name": "setTimeClaim",
      "outputs": [],
      "stateMutability": "nonpayable",
      "type": "function"
    },
    {
      "inputs": [],
      "name": "startTimeBuy",
      "outputs": [
        {
          "internalType": "uint256",
          "name": "",
          "type": "uint256"
        }
      ],
      "stateMutability": "view",
      "type": "function"
    },
    {
      "inputs": [],
      "name": "startTimeClaim",
      "outputs": [
        {
          "internalType": "uint256",
          "name": "",
          "type": "uint256"
        }
      ],
      "stateMutability": "view",
      "type": "function"
    },
    {
      "inputs": [
        {
          "internalType": "address",
          "name": "newOwner",
          "type": "address"
        }
      ],
      "name": "transferOwnership",
      "outputs": [],
      "stateMutability": "nonpayable",
      "type": "function"
    },
    {
      "inputs": [
        {
          "internalType": "address",
          "name": "",
          "type": "address"
        },
        {
          "internalType": "uint256",
          "name": "",
          "type": "uint256"
        },
        {
          "internalType": "uint256",
          "name": "",
          "type": "uint256"
        }
      ],
      "name": "userBoughtNft",
      "outputs": [
        {
          "internalType": "uint256",
          "name": "",
          "type": "uint256"
        }
      ],
      "stateMutability": "view",
      "type": "function"
    }
  ],
  "bytecode": "0x60806040523480156200001157600080fd5b5060405162002fb538038062002fb58339818101604052810190620000379190620004c4565b620000576200004b6200026e60201b60201c565b6200027660201b60201c565b600180819055506001600260006101000a81548160ff02191690831515021790555083600660006101000a81548173ffffffffffffffffffffffffffffffffffffffff021916908373ffffffffffffffffffffffffffffffffffffffff16021790555060005b83518110156200026357838181518110620000dd57620000dc62000768565b5b602002602001015160086000600184620000f891906200061a565b815260200190815260200160002060010160006101000a81548173ffffffffffffffffffffffffffffffffffffffff021916908373ffffffffffffffffffffffffffffffffffffffff1602179055508281815181106200015d576200015c62000768565b5b6020026020010151600860006001846200017891906200061a565b815260200190815260200160002060000181905550818181518110620001a357620001a262000768565b5b602002602001015160086000600184620001be91906200061a565b815260200190815260200160002060020181905550828181518110620001e957620001e862000768565b5b6020026020010151600960006001846200020491906200061a565b81526020019081526020016000208190555060076001826200022791906200061a565b908060018154018082558091505060019003906000526020600020016000909190919091505580806200025a90620006eb565b915050620000bd565b50505050506200081f565b600033905090565b60008060009054906101000a900473ffffffffffffffffffffffffffffffffffffffff169050816000806101000a81548173ffffffffffffffffffffffffffffffffffffffff021916908373ffffffffffffffffffffffffffffffffffffffff1602179055508173ffffffffffffffffffffffffffffffffffffffff168173ffffffffffffffffffffffffffffffffffffffff167f8be0079c531659141344cd1fd0a4f28419497f9722a3daafe3b4186f6b6457e060405160405180910390a35050565b6000620003516200034b84620005bc565b62000593565b90508083825260208201905082856020860282011115620003775762000376620007cb565b5b60005b85811015620003ab578162000390888262000430565b8452602084019350602083019250506001810190506200037a565b5050509392505050565b6000620003cc620003c684620005eb565b62000593565b90508083825260208201905082856020860282011115620003f257620003f1620007cb565b5b60005b858110156200042657816200040b8882620004ad565b845260208401935060208301925050600181019050620003f5565b5050509392505050565b6000815190506200044181620007eb565b92915050565b600082601f8301126200045f576200045e620007c6565b5b8151620004718482602086016200033a565b91505092915050565b600082601f830112620004925762000491620007c6565b5b8151620004a4848260208601620003b5565b91505092915050565b600081519050620004be8162000805565b92915050565b60008060008060808587031215620004e157620004e0620007d5565b5b6000620004f18782880162000430565b945050602085015167ffffffffffffffff811115620005155762000514620007d0565b5b620005238782880162000447565b935050604085015167ffffffffffffffff811115620005475762000546620007d0565b5b62000555878288016200047a565b925050606085015167ffffffffffffffff811115620005795762000578620007d0565b5b62000587878288016200047a565b91505092959194509250565b60006200059f620005b2565b9050620005ad8282620006b5565b919050565b6000604051905090565b600067ffffffffffffffff821115620005da57620005d962000797565b5b602082029050602081019050919050565b600067ffffffffffffffff82111562000609576200060862000797565b5b602082029050602081019050919050565b60006200062782620006ab565b91506200063483620006ab565b9250827fffffffffffffffffffffffffffffffffffffffffffffffffffffffffffffffff038211156200066c576200066b62000739565b5b828201905092915050565b600062000684826200068b565b9050919050565b600073ffffffffffffffffffffffffffffffffffffffff82169050919050565b6000819050919050565b620006c082620007da565b810181811067ffffffffffffffff82111715620006e257620006e162000797565b5b80604052505050565b6000620006f882620006ab565b91507fffffffffffffffffffffffffffffffffffffffffffffffffffffffffffffffff8214156200072e576200072d62000739565b5b600182019050919050565b7f4e487b7100000000000000000000000000000000000000000000000000000000600052601160045260246000fd5b7f4e487b7100000000000000000000000000000000000000000000000000000000600052603260045260246000fd5b7f4e487b7100000000000000000000000000000000000000000000000000000000600052604160045260246000fd5b600080fd5b600080fd5b600080fd5b600080fd5b6000601f19601f8301169050919050565b620007f68162000677565b81146200080257600080fd5b50565b6200081081620006ab565b81146200081c57600080fd5b50565b612786806200082f6000396000f3fe608060405234801561001057600080fd5b50600436106101585760003560e01c80636a326ab1116100c3578063bdca7eaf1161007c578063bdca7eaf1461038b578063cfb83037146103bb578063d79a2195146103d9578063e601af73146103e3578063f2fde38b146103ff578063ff0938a71461041b57610158565b80636a326ab1146102df578063715018a6146102fb5780638da5cb5b146103055780639c97f172146103235780639cf484e814610353578063a43020471461036f57610158565b8063243adbdd11610115578063243adbdd1461021f5780633013ce291461023b578063368e9d6a146102595780634e71d92d146102755780635111b6871461027f57806369e0e346146102af57610158565b8063039ea00a1461015d5780630a52fd691461017b5780630b794d9014610197578063150b7a02146101b55780631b2acbdb146101e5578063236d949714610201575b600080fd5b610165610439565b6040516101729190612198565b60405180910390f35b61019560048036038101906101909190611ad1565b61043f565b005b61019f610569565b6040516101ac9190612198565b60405180910390f35b6101cf60048036038101906101ca91906119fb565b61056f565b6040516101dc9190612020565b60405180910390f35b6101ff60048036038101906101fa9190611c1f565b610583565b005b610209610653565b6040516102169190611fe3565b60405180910390f35b61023960048036038101906102349190611bc5565b6106ab565b005b610243610a4d565b604051610250919061203b565b60405180910390f35b610273600480360381019061026e9190611bc5565b610a73565b005b61027d610b3d565b005b61029960048036038101906102949190611bc5565b610c7c565b6040516102a69190612198565b60405180910390f35b6102c960048036038101906102c491906119ce565b610c94565b6040516102d69190612005565b60405180910390f35b6102f960048036038101906102f491906119ce565b610cb4565b005b610303610d74565b005b61030d610dfc565b60405161031a9190611efa565b60405180910390f35b61033d60048036038101906103389190611a7e565b610e25565b60405161034a9190612198565b60405180910390f35b61036d60048036038101906103689190611b1e565b610e63565b005b61038960048036038101906103849190611b1e565b610f45565b005b6103a560048036038101906103a09190611bc5565b611027565b6040516103b29190612198565b60405180910390f35b6103c36110ef565b6040516103d09190612198565b60405180910390f35b6103e16110f5565b005b6103fd60048036038101906103f89190611b6b565b6112d3565b005b610419600480360381019061041491906119ce565b61136c565b005b610423611464565b6040516104309190612005565b60405180910390f35b60035481565b610447611477565b73ffffffffffffffffffffffffffffffffffffffff16610465610dfc565b73ffffffffffffffffffffffffffffffffffffffff16146104bb576040517f08c379a00000000000000000000000000000000000000000000000000000000081526004016104b2906120f8565b60405180910390fd5b60005b82829050811015610564578282828181106104dc576104db61249b565b5b90506020020160208101906104f191906119ce565b600860006001846105029190612274565b815260200190815260200160002060010160006101000a81548173ffffffffffffffffffffffffffffffffffffffff021916908373ffffffffffffffffffffffffffffffffffffffff160217905550808061055c90612423565b9150506104be565b505050565b60045481565b600063150b7a0260e01b9050949350505050565b61058b611477565b73ffffffffffffffffffffffffffffffffffffffff166105a9610dfc565b73ffffffffffffffffffffffffffffffffffffffff16146105ff576040517f08c379a00000000000000000000000000000000000000000000000000000000081526004016105f6906120f8565b60405180910390fd5b818111610641576040517f08c379a000000000000000000000000000000000000000000000000000000000815260040161063890612098565b60405180910390fd5b81600381905550806004819055505050565b606060078054806020026020016040519081016040528092919081815260200182805480156106a157602002820191906000526020600020905b81548152602001906001019080831161068d575b5050505050905090565b600260015414156106f1576040517f08c379a00000000000000000000000000000000000000000000000000000000081526004016106e890612178565b60405180910390fd5b60026001819055506008600082815260200190815260200160002060020154600660009054906101000a900473ffffffffffffffffffffffffffffffffffffffff1673ffffffffffffffffffffffffffffffffffffffff166370a08231336040518263ffffffff1660e01b815260040161076b9190611efa565b60206040518083038186803b15801561078357600080fd5b505afa158015610797573d6000803e3d6000fd5b505050506040513d601f19601f820116820180604052508101906107bb9190611bf2565b116107fb576040517f08c379a00000000000000000000000000000000000000000000000000000000081526004016107f2906120d8565b60405180910390fd5b6000600960008381526020019081526020016000205411610851576040517f08c379a000000000000000000000000000000000000000000000000000000000815260040161084890612118565b60405180910390fd5b6001600a60003373ffffffffffffffffffffffffffffffffffffffff1673ffffffffffffffffffffffffffffffffffffffff16815260200190815260200160002060006101000a81548160ff0219169083151502179055506009600082815260200190815260200160002060008154809291906108cd906123c8565b919050555061093733306008600085815260200190815260200160002060020154600660009054906101000a900473ffffffffffffffffffffffffffffffffffffffff1673ffffffffffffffffffffffffffffffffffffffff1661147f909392919063ffffffff16565b600b60003373ffffffffffffffffffffffffffffffffffffffff1673ffffffffffffffffffffffffffffffffffffffff1681526020019081526020016000206000828152602001908152602001600020600860008381526020019081526020016000206003015490806001815401808255809150506001900390600052602060002001600090919091909150556008600082815260200190815260200160002060030160008154809291906109eb90612423565b91905055507f82e5d9be80e03eea18e97cf67ae330d9c4b81320c50de18bff9ec3f1e80eaf173382600860008581526020019081526020016000206002015442604051610a3b9493929190611f9e565b60405180910390a16001808190555050565b600660009054906101000a900473ffffffffffffffffffffffffffffffffffffffff1681565b610a7b611477565b73ffffffffffffffffffffffffffffffffffffffff16610a99610dfc565b73ffffffffffffffffffffffffffffffffffffffff1614610aef576040517f08c379a0000000000000000000000000000000000000000000000000000000008152600401610ae6906120f8565b60405180910390fd5b6004548111610b33576040517f08c379a0000000000000000000000000000000000000000000000000000000008152600401610b2a90612098565b60405180910390fd5b8060058190555050565b6000600860006001815260200190815260200160002060010160009054906101000a900473ffffffffffffffffffffffffffffffffffffffff16905060008173ffffffffffffffffffffffffffffffffffffffff16632f745c593060006040518363ffffffff1660e01b8152600401610bb7929190611f4c565b60206040518083038186803b158015610bcf57600080fd5b505afa158015610be3573d6000803e3d6000fd5b505050506040513d601f19601f82011682018060405250810190610c079190611bf2565b90508173ffffffffffffffffffffffffffffffffffffffff166342842e0e3033846040518463ffffffff1660e01b8152600401610c4693929190611f15565b600060405180830381600087803b158015610c6057600080fd5b505af1158015610c74573d6000803e3d6000fd5b505050505050565b60096020528060005260406000206000915090505481565b600a6020528060005260406000206000915054906101000a900460ff1681565b610cbc611477565b73ffffffffffffffffffffffffffffffffffffffff16610cda610dfc565b73ffffffffffffffffffffffffffffffffffffffff1614610d30576040517f08c379a0000000000000000000000000000000000000000000000000000000008152600401610d27906120f8565b60405180910390fd5b80600660006101000a81548173ffffffffffffffffffffffffffffffffffffffff021916908373ffffffffffffffffffffffffffffffffffffffff16021790555050565b610d7c611477565b73ffffffffffffffffffffffffffffffffffffffff16610d9a610dfc565b73ffffffffffffffffffffffffffffffffffffffff1614610df0576040517f08c379a0000000000000000000000000000000000000000000000000000000008152600401610de7906120f8565b60405180910390fd5b610dfa6000611508565b565b60008060009054906101000a900473ffffffffffffffffffffffffffffffffffffffff16905090565b600b6020528260005260406000206020528160005260406000208181548110610e4d57600080fd5b9060005260206000200160009250925050505481565b610e6b611477565b73ffffffffffffffffffffffffffffffffffffffff16610e89610dfc565b73ffffffffffffffffffffffffffffffffffffffff1614610edf576040517f08c379a0000000000000000000000000000000000000000000000000000000008152600401610ed6906120f8565b60405180910390fd5b60005b82829050811015610f4057828282818110610f0057610eff61249b565b5b9050602002013560086000600184610f189190612274565b8152602001908152602001600020600201819055508080610f3890612423565b915050610ee2565b505050565b610f4d611477565b73ffffffffffffffffffffffffffffffffffffffff16610f6b610dfc565b73ffffffffffffffffffffffffffffffffffffffff1614610fc1576040517f08c379a0000000000000000000000000000000000000000000000000000000008152600401610fb8906120f8565b60405180910390fd5b60005b8282905081101561102257828282818110610fe257610fe161249b565b5b9050602002013560086000600184610ffa9190612274565b815260200190815260200160002060000181905550808061101a90612423565b915050610fc4565b505050565b60006008600083815260200190815260200160002060010160009054906101000a900473ffffffffffffffffffffffffffffffffffffffff1673ffffffffffffffffffffffffffffffffffffffff166370a08231306040518263ffffffff1660e01b81526004016110989190611efa565b60206040518083038186803b1580156110b057600080fd5b505afa1580156110c4573d6000803e3d6000fd5b505050506040513d601f19601f820116820180604052508101906110e89190611bf2565b9050919050565b60055481565b6110fd611477565b73ffffffffffffffffffffffffffffffffffffffff1661111b610dfc565b73ffffffffffffffffffffffffffffffffffffffff1614611171576040517f08c379a0000000000000000000000000000000000000000000000000000000008152600401611168906120f8565b60405180910390fd5b6000600660009054906101000a900473ffffffffffffffffffffffffffffffffffffffff1673ffffffffffffffffffffffffffffffffffffffff166370a08231306040518263ffffffff1660e01b81526004016111ce9190611efa565b60206040518083038186803b1580156111e657600080fd5b505afa1580156111fa573d6000803e3d6000fd5b505050506040513d601f19601f8201168201806040525081019061121e9190611bf2565b9050600660009054906101000a900473ffffffffffffffffffffffffffffffffffffffff1673ffffffffffffffffffffffffffffffffffffffff1663a9059cbb33836040518363ffffffff1660e01b815260040161127d929190611f75565b602060405180830381600087803b15801561129757600080fd5b505af11580156112ab573d6000803e3d6000fd5b505050506040513d601f19601f820116820180604052508101906112cf9190611b98565b5050565b6112db611477565b73ffffffffffffffffffffffffffffffffffffffff166112f9610dfc565b73ffffffffffffffffffffffffffffffffffffffff161461134f576040517f08c379a0000000000000000000000000000000000000000000000000000000008152600401611346906120f8565b60405180910390fd5b80600260006101000a81548160ff02191690831515021790555050565b611374611477565b73ffffffffffffffffffffffffffffffffffffffff16611392610dfc565b73ffffffffffffffffffffffffffffffffffffffff16146113e8576040517f08c379a00000000000000000000000000000000000000000000000000000000081526004016113df906120f8565b60405180910390fd5b600073ffffffffffffffffffffffffffffffffffffffff168173ffffffffffffffffffffffffffffffffffffffff161415611458576040517f08c379a000000000000000000000000000000000000000000000000000000000815260040161144f90612078565b60405180910390fd5b61146181611508565b50565b600260009054906101000a900460ff1681565b600033905090565b611502846323b872dd60e01b8585856040516024016114a093929190611f15565b604051602081830303815290604052907bffffffffffffffffffffffffffffffffffffffffffffffffffffffff19166020820180517bffffffffffffffffffffffffffffffffffffffffffffffffffffffff83818316178352505050506115cc565b50505050565b60008060009054906101000a900473ffffffffffffffffffffffffffffffffffffffff169050816000806101000a81548173ffffffffffffffffffffffffffffffffffffffff021916908373ffffffffffffffffffffffffffffffffffffffff1602179055508173ffffffffffffffffffffffffffffffffffffffff168173ffffffffffffffffffffffffffffffffffffffff167f8be0079c531659141344cd1fd0a4f28419497f9722a3daafe3b4186f6b6457e060405160405180910390a35050565b600061162e826040518060400160405280602081526020017f5361666545524332303a206c6f772d6c6576656c2063616c6c206661696c65648152508573ffffffffffffffffffffffffffffffffffffffff166116939092919063ffffffff16565b905060008151111561168e578080602001905181019061164e9190611b98565b61168d576040517f08c379a000000000000000000000000000000000000000000000000000000000815260040161168490612158565b60405180910390fd5b5b505050565b60606116a284846000856116ab565b90509392505050565b6060824710156116f0576040517f08c379a00000000000000000000000000000000000000000000000000000000081526004016116e7906120b8565b60405180910390fd5b6116f9856117bf565b611738576040517f08c379a000000000000000000000000000000000000000000000000000000000815260040161172f90612138565b60405180910390fd5b6000808673ffffffffffffffffffffffffffffffffffffffff1685876040516117619190611ee3565b60006040518083038185875af1925050503d806000811461179e576040519150601f19603f3d011682016040523d82523d6000602084013e6117a3565b606091505b50915091506117b38282866117e2565b92505050949350505050565b6000808273ffffffffffffffffffffffffffffffffffffffff163b119050919050565b606083156117f257829050611842565b6000835111156118055782518084602001fd5b816040517f08c379a00000000000000000000000000000000000000000000000000000000081526004016118399190612056565b60405180910390fd5b9392505050565b600061185c611857846121d8565b6121b3565b90508281526020810184848401111561187857611877612508565b5b611883848285612386565b509392505050565b60008135905061189a8161270b565b92915050565b60008083601f8401126118b6576118b56124fe565b5b8235905067ffffffffffffffff8111156118d3576118d26124f9565b5b6020830191508360208202830111156118ef576118ee612503565b5b9250929050565b60008083601f84011261190c5761190b6124fe565b5b8235905067ffffffffffffffff811115611929576119286124f9565b5b60208301915083602082028301111561194557611944612503565b5b9250929050565b60008135905061195b81612722565b92915050565b60008151905061197081612722565b92915050565b600082601f83011261198b5761198a6124fe565b5b813561199b848260208601611849565b91505092915050565b6000813590506119b381612739565b92915050565b6000815190506119c881612739565b92915050565b6000602082840312156119e4576119e3612512565b5b60006119f28482850161188b565b91505092915050565b60008060008060808587031215611a1557611a14612512565b5b6000611a238782880161188b565b9450506020611a348782880161188b565b9350506040611a45878288016119a4565b925050606085013567ffffffffffffffff811115611a6657611a6561250d565b5b611a7287828801611976565b91505092959194509250565b600080600060608486031215611a9757611a96612512565b5b6000611aa58682870161188b565b9350506020611ab6868287016119a4565b9250506040611ac7868287016119a4565b9150509250925092565b60008060208385031215611ae857611ae7612512565b5b600083013567ffffffffffffffff811115611b0657611b0561250d565b5b611b12858286016118a0565b92509250509250929050565b60008060208385031215611b3557611b34612512565b5b600083013567ffffffffffffffff811115611b5357611b5261250d565b5b611b5f858286016118f6565b92509250509250929050565b600060208284031215611b8157611b80612512565b5b6000611b8f8482850161194c565b91505092915050565b600060208284031215611bae57611bad612512565b5b6000611bbc84828501611961565b91505092915050565b600060208284031215611bdb57611bda612512565b5b6000611be9848285016119a4565b91505092915050565b600060208284031215611c0857611c07612512565b5b6000611c16848285016119b9565b91505092915050565b60008060408385031215611c3657611c35612512565b5b6000611c44858286016119a4565b9250506020611c55858286016119a4565b9150509250929050565b6000611c6b8383611ec5565b60208301905092915050565b611c80816122ca565b82525050565b6000611c9182612219565b611c9b8185612247565b9350611ca683612209565b8060005b83811015611cd7578151611cbe8882611c5f565b9750611cc98361223a565b925050600181019050611caa565b5085935050505092915050565b611ced816122dc565b82525050565b611cfc816122e8565b82525050565b6000611d0d82612224565b611d178185612258565b9350611d27818560208601612395565b80840191505092915050565b611d3c8161233e565b82525050565b611d4b81612350565b82525050565b6000611d5c8261222f565b611d668185612263565b9350611d76818560208601612395565b611d7f81612517565b840191505092915050565b6000611d97602683612263565b9150611da282612528565b604082019050919050565b6000611dba600c83612263565b9150611dc582612577565b602082019050919050565b6000611ddd602683612263565b9150611de8826125a0565b604082019050919050565b6000611e00601283612263565b9150611e0b826125ef565b602082019050919050565b6000611e23602083612263565b9150611e2e82612618565b602082019050919050565b6000611e46600c83612263565b9150611e5182612641565b602082019050919050565b6000611e69601d83612263565b9150611e748261266a565b602082019050919050565b6000611e8c602a83612263565b9150611e9782612693565b604082019050919050565b6000611eaf601f83612263565b9150611eba826126e2565b602082019050919050565b611ece81612334565b82525050565b611edd81612334565b82525050565b6000611eef8284611d02565b915081905092915050565b6000602082019050611f0f6000830184611c77565b92915050565b6000606082019050611f2a6000830186611c77565b611f376020830185611c77565b611f446040830184611ed4565b949350505050565b6000604082019050611f616000830185611c77565b611f6e6020830184611d42565b9392505050565b6000604082019050611f8a6000830185611c77565b611f976020830184611ed4565b9392505050565b6000608082019050611fb36000830187611c77565b611fc06020830186611ed4565b611fcd6040830185611ed4565b611fda6060830184611ed4565b95945050505050565b60006020820190508181036000830152611ffd8184611c86565b905092915050565b600060208201905061201a6000830184611ce4565b92915050565b60006020820190506120356000830184611cf3565b92915050565b60006020820190506120506000830184611d33565b92915050565b600060208201905081810360008301526120708184611d51565b905092915050565b6000602082019050818103600083015261209181611d8a565b9050919050565b600060208201905081810360008301526120b181611dad565b9050919050565b600060208201905081810360008301526120d181611dd0565b9050919050565b600060208201905081810360008301526120f181611df3565b9050919050565b6000602082019050818103600083015261211181611e16565b9050919050565b6000602082019050818103600083015261213181611e39565b9050919050565b6000602082019050818103600083015261215181611e5c565b9050919050565b6000602082019050818103600083015261217181611e7f565b9050919050565b6000602082019050818103600083015261219181611ea2565b9050919050565b60006020820190506121ad6000830184611ed4565b92915050565b60006121bd6121ce565b90506121c982826123f2565b919050565b6000604051905090565b600067ffffffffffffffff8211156121f3576121f26124ca565b5b6121fc82612517565b9050602081019050919050565b6000819050602082019050919050565b600081519050919050565b600081519050919050565b600081519050919050565b6000602082019050919050565b600082825260208201905092915050565b600081905092915050565b600082825260208201905092915050565b600061227f82612334565b915061228a83612334565b9250827fffffffffffffffffffffffffffffffffffffffffffffffffffffffffffffffff038211156122bf576122be61246c565b5b828201905092915050565b60006122d582612314565b9050919050565b60008115159050919050565b60007fffffffff0000000000000000000000000000000000000000000000000000000082169050919050565b600073ffffffffffffffffffffffffffffffffffffffff82169050919050565b6000819050919050565b600061234982612362565b9050919050565b600061235b82612334565b9050919050565b600061236d82612374565b9050919050565b600061237f82612314565b9050919050565b82818337600083830152505050565b60005b838110156123b3578082015181840152602081019050612398565b838111156123c2576000848401525b50505050565b60006123d382612334565b915060008214156123e7576123e661246c565b5b600182039050919050565b6123fb82612517565b810181811067ffffffffffffffff8211171561241a576124196124ca565b5b80604052505050565b600061242e82612334565b91507fffffffffffffffffffffffffffffffffffffffffffffffffffffffffffffffff8214156124615761246061246c565b5b600182019050919050565b7f4e487b7100000000000000000000000000000000000000000000000000000000600052601160045260246000fd5b7f4e487b7100000000000000000000000000000000000000000000000000000000600052603260045260246000fd5b7f4e487b7100000000000000000000000000000000000000000000000000000000600052604160045260246000fd5b600080fd5b600080fd5b600080fd5b600080fd5b600080fd5b600080fd5b6000601f19601f8301169050919050565b7f4f776e61626c653a206e6577206f776e657220697320746865207a65726f206160008201527f6464726573730000000000000000000000000000000000000000000000000000602082015250565b7f496e76616c69642074696d650000000000000000000000000000000000000000600082015250565b7f416464726573733a20696e73756666696369656e742062616c616e636520666f60008201527f722063616c6c0000000000000000000000000000000000000000000000000000602082015250565b7f4e6f7420656e6f7567682062616c616e63650000000000000000000000000000600082015250565b7f4f776e61626c653a2063616c6c6572206973206e6f7420746865206f776e6572600082015250565b7f4e465420736f6c64206f75740000000000000000000000000000000000000000600082015250565b7f416464726573733a2063616c6c20746f206e6f6e2d636f6e7472616374000000600082015250565b7f5361666545524332303a204552433230206f7065726174696f6e20646964206e60008201527f6f74207375636365656400000000000000000000000000000000000000000000602082015250565b7f5265656e7472616e637947756172643a207265656e7472616e742063616c6c00600082015250565b612714816122ca565b811461271f57600080fd5b50565b61272b816122dc565b811461273657600080fd5b50565b61274281612334565b811461274d57600080fd5b5056fea2646970667358221220d71086dd68a15a9d5d9d81e97e42405815199ecfad3b93e97c3e2d659458954964736f6c63430008070033",
  "linkReferences": {},
  "deployedLinkReferences": {}
}