{
  "_format": "hh-sol-artifact-1",
  "contractName": "BamiHesmanIDO",
  "sourceName": "contracts/BamiHesmanIDO.sol",
  "abi": [
    {
      "inputs": [
        {
          "internalType": "address",
          "name": "_BamiHesmanPool1",
          "type": "address"
        },
        {
          "internalType": "address",
          "name": "_BamiHesmanPool2",
          "type": "address"
        },
        {
          "internalType": "address",
          "name": "_BamiHesmanPool3",
          "type": "address"
        },
        {
          "internalType": "address",
          "name": "_hesmanToken",
          "type": "address"
        },
        {
          "internalType": "address",
          "name": "_idoOwner",
          "type": "address"
        }
      ],
      "stateMutability": "nonpayable",
      "type": "constructor"
    },
    {
      "anonymous": false,
      "inputs": [
        {
          "indexed": false,
          "internalType": "address",
          "name": "user",
          "type": "address"
        },
        {
          "indexed": false,
          "internalType": "uint256",
          "name": "amount",
          "type": "uint256"
        },
        {
          "indexed": false,
          "internalType": "address",
          "name": "pool",
          "type": "address"
        },
        {
          "indexed": false,
          "internalType": "uint256",
          "name": "time",
          "type": "uint256"
        }
      ],
      "name": "EventUserClaim",
      "type": "event"
    },
    {
      "anonymous": false,
      "inputs": [
        {
          "indexed": true,
          "internalType": "address",
          "name": "previousOwner",
          "type": "address"
        },
        {
          "indexed": true,
          "internalType": "address",
          "name": "newOwner",
          "type": "address"
        }
      ],
      "name": "OwnershipTransferred",
      "type": "event"
    },
    {
      "inputs": [
        {
          "internalType": "address",
          "name": "",
          "type": "address"
        },
        {
          "internalType": "address",
          "name": "",
          "type": "address"
        }
      ],
      "name": "blacklistMap",
      "outputs": [
        {
          "internalType": "bool",
          "name": "",
          "type": "bool"
        }
      ],
      "stateMutability": "view",
      "type": "function"
    },
    {
      "inputs": [],
      "name": "claimPool1",
      "outputs": [],
      "stateMutability": "nonpayable",
      "type": "function"
    },
    {
      "inputs": [],
      "name": "claimPool2",
      "outputs": [],
      "stateMutability": "nonpayable",
      "type": "function"
    },
    {
      "inputs": [],
      "name": "claimPool3",
      "outputs": [],
      "stateMutability": "nonpayable",
      "type": "function"
    },
    {
      "inputs": [],
      "name": "hesmanToken",
      "outputs": [
        {
          "internalType": "contract ERC20",
          "name": "",
          "type": "address"
        }
      ],
      "stateMutability": "view",
      "type": "function"
    },
    {
      "inputs": [],
      "name": "idoOwner",
      "outputs": [
        {
          "internalType": "address",
          "name": "",
          "type": "address"
        }
      ],
      "stateMutability": "view",
      "type": "function"
    },
    {
      "inputs": [],
      "name": "isPause",
      "outputs": [
        {
          "internalType": "bool",
          "name": "",
          "type": "bool"
        }
      ],
      "stateMutability": "view",
      "type": "function"
    },
    {
      "inputs": [],
      "name": "owner",
      "outputs": [
        {
          "internalType": "address",
          "name": "",
          "type": "address"
        }
      ],
      "stateMutability": "view",
      "type": "function"
    },
    {
      "inputs": [],
      "name": "pool1",
      "outputs": [
        {
          "internalType": "address",
          "name": "",
          "type": "address"
        }
      ],
      "stateMutability": "view",
      "type": "function"
    },
    {
      "inputs": [],
      "name": "pool2",
      "outputs": [
        {
          "internalType": "address",
          "name": "",
          "type": "address"
        }
      ],
      "stateMutability": "view",
      "type": "function"
    },
    {
      "inputs": [],
      "name": "pool3",
      "outputs": [
        {
          "internalType": "address",
          "name": "",
          "type": "address"
        }
      ],
      "stateMutability": "view",
      "type": "function"
    },
    {
      "inputs": [
        {
          "internalType": "address[]",
          "name": "userListPool1",
          "type": "address[]"
        },
        {
          "internalType": "address[]",
          "name": "userListPool2",
          "type": "address[]"
        },
        {
          "internalType": "address[]",
          "name": "userListPool3",
          "type": "address[]"
        }
      ],
      "name": "removeBlackList",
      "outputs": [],
      "stateMutability": "nonpayable",
      "type": "function"
    },
    {
      "inputs": [
        {
          "internalType": "address[]",
          "name": "userListPool1",
          "type": "address[]"
        },
        {
          "internalType": "address[]",
          "name": "userListPool2",
          "type": "address[]"
        },
        {
          "internalType": "address[]",
          "name": "userListPool3",
          "type": "address[]"
        }
      ],
      "name": "removeWhiteList",
      "outputs": [],
      "stateMutability": "nonpayable",
      "type": "function"
    },
    {
      "inputs": [],
      "name": "renounceOwnership",
      "outputs": [],
      "stateMutability": "nonpayable",
      "type": "function"
    },
    {
      "inputs": [
        {
          "internalType": "address[]",
          "name": "userListPool1",
          "type": "address[]"
        },
        {
          "internalType": "address[]",
          "name": "userListPool2",
          "type": "address[]"
        },
        {
          "internalType": "address[]",
          "name": "userListPool3",
          "type": "address[]"
        }
      ],
      "name": "setBlackList",
      "outputs": [],
      "stateMutability": "nonpayable",
      "type": "function"
    },
    {
      "inputs": [
        {
          "internalType": "uint256[]",
          "name": "_startTimeList",
          "type": "uint256[]"
        },
        {
          "internalType": "uint256[]",
          "name": "_percentList",
          "type": "uint256[]"
        }
      ],
      "name": "setClaimTime",
      "outputs": [],
      "stateMutability": "nonpayable",
      "type": "function"
    },
    {
      "inputs": [
        {
          "internalType": "address",
          "name": "_hesmanToken",
          "type": "address"
        }
      ],
      "name": "setHesmanToken",
      "outputs": [],
      "stateMutability": "nonpayable",
      "type": "function"
    },
    {
      "inputs": [
        {
          "internalType": "address",
          "name": "_idoOwner",
          "type": "address"
        }
      ],
      "name": "setIdoOwner",
      "outputs": [],
      "stateMutability": "nonpayable",
      "type": "function"
    },
    {
      "inputs": [
        {
          "internalType": "bool",
          "name": "_status",
          "type": "bool"
        }
      ],
      "name": "setPauseContract",
      "outputs": [],
      "stateMutability": "nonpayable",
      "type": "function"
    },
    {
      "inputs": [
        {
          "internalType": "address",
          "name": "_BamiHesmanPool1",
          "type": "address"
        },
        {
          "internalType": "address",
          "name": "_BamiHesmanPool2",
          "type": "address"
        },
        {
          "internalType": "address",
          "name": "_BamiHesmanPool3",
          "type": "address"
        }
      ],
      "name": "setPool",
      "outputs": [],
      "stateMutability": "nonpayable",
      "type": "function"
    },
    {
      "inputs": [
        {
          "internalType": "address[]",
          "name": "userListPool1",
          "type": "address[]"
        },
        {
          "internalType": "address[]",
          "name": "userListPool2",
          "type": "address[]"
        },
        {
          "internalType": "address[]",
          "name": "userListPool3",
          "type": "address[]"
        }
      ],
      "name": "setWhiteList",
      "outputs": [],
      "stateMutability": "nonpayable",
      "type": "function"
    },
    {
      "inputs": [
        {
          "internalType": "uint256",
          "name": "_tokenPerSlotPool1",
          "type": "uint256"
        },
        {
          "internalType": "uint256",
          "name": "_tokenPerSlotPool2",
          "type": "uint256"
        },
        {
          "internalType": "uint256",
          "name": "_tokenPerSlotPool3",
          "type": "uint256"
        }
      ],
      "name": "settokenPerSlot",
      "outputs": [],
      "stateMutability": "nonpayable",
      "type": "function"
    },
    {
      "inputs": [
        {
          "internalType": "uint256",
          "name": "",
          "type": "uint256"
        }
      ],
      "name": "stageList",
      "outputs": [
        {
          "internalType": "uint256",
          "name": "id",
          "type": "uint256"
        },
        {
          "internalType": "uint256",
          "name": "percent",
          "type": "uint256"
        },
        {
          "internalType": "uint256",
          "name": "startTime",
          "type": "uint256"
        }
      ],
      "stateMutability": "view",
      "type": "function"
    },
    {
      "inputs": [
        {
          "internalType": "address",
          "name": "newOwner",
          "type": "address"
        }
      ],
      "name": "transferOwnership",
      "outputs": [],
      "stateMutability": "nonpayable",
      "type": "function"
    },
    {
      "inputs": [],
      "name": "urgentWithdrawAllToken",
      "outputs": [],
      "stateMutability": "nonpayable",
      "type": "function"
    },
    {
      "inputs": [
        {
          "internalType": "address",
          "name": "",
          "type": "address"
        },
        {
          "internalType": "address",
          "name": "",
          "type": "address"
        }
      ],
      "name": "vestingMap",
      "outputs": [
        {
          "internalType": "uint256",
          "name": "",
          "type": "uint256"
        }
      ],
      "stateMutability": "view",
      "type": "function"
    },
    {
      "inputs": [
        {
          "internalType": "address",
          "name": "",
          "type": "address"
        },
        {
          "internalType": "address",
          "name": "",
          "type": "address"
        }
      ],
      "name": "whitelistMap",
      "outputs": [
        {
          "internalType": "bool",
          "name": "",
          "type": "bool"
        }
      ],
      "stateMutability": "view",
      "type": "function"
    }
  ],
  "bytecode": "0x6080604052670de0b6b3a7640000600555600554611388620000229190620004a8565b600f556005546109c4620000379190620004a8565b6010556005546109c46200004c9190620004a8565b6011553480156200005c57600080fd5b506040516200536c3803806200536c833981810160405281019062000082919062000420565b620000a2620000966200033d60201b60201c565b6200034560201b60201c565b6001808190555084600660006101000a81548173ffffffffffffffffffffffffffffffffffffffff021916908373ffffffffffffffffffffffffffffffffffffffff16021790555083600760006101000a81548173ffffffffffffffffffffffffffffffffffffffff021916908373ffffffffffffffffffffffffffffffffffffffff16021790555082600860006101000a81548173ffffffffffffffffffffffffffffffffffffffff021916908373ffffffffffffffffffffffffffffffffffffffff160217905550600660009054906101000a900473ffffffffffffffffffffffffffffffffffffffff16600a60006101000a81548173ffffffffffffffffffffffffffffffffffffffff021916908373ffffffffffffffffffffffffffffffffffffffff160217905550600760009054906101000a900473ffffffffffffffffffffffffffffffffffffffff16600b60006101000a81548173ffffffffffffffffffffffffffffffffffffffff021916908373ffffffffffffffffffffffffffffffffffffffff160217905550600860009054906101000a900473ffffffffffffffffffffffffffffffffffffffff16600c60006101000a81548173ffffffffffffffffffffffffffffffffffffffff021916908373ffffffffffffffffffffffffffffffffffffffff16021790555081600960006101000a81548173ffffffffffffffffffffffffffffffffffffffff021916908373ffffffffffffffffffffffffffffffffffffffff16021790555080600260006101000a81548173ffffffffffffffffffffffffffffffffffffffff021916908373ffffffffffffffffffffffffffffffffffffffff1602179055506001600260146101000a81548160ff021916908315150217905550505050505062000595565b600033905090565b60008060009054906101000a900473ffffffffffffffffffffffffffffffffffffffff169050816000806101000a81548173ffffffffffffffffffffffffffffffffffffffff021916908373ffffffffffffffffffffffffffffffffffffffff1602179055508173ffffffffffffffffffffffffffffffffffffffff168173ffffffffffffffffffffffffffffffffffffffff167f8be0079c531659141344cd1fd0a4f28419497f9722a3daafe3b4186f6b6457e060405160405180910390a35050565b6000815190506200041a816200057b565b92915050565b600080600080600060a086880312156200043f576200043e62000576565b5b60006200044f8882890162000409565b9550506020620004628882890162000409565b9450506040620004758882890162000409565b9350506060620004888882890162000409565b92505060806200049b8882890162000409565b9150509295509295909350565b6000620004b5826200053d565b9150620004c2836200053d565b9250817fffffffffffffffffffffffffffffffffffffffffffffffffffffffffffffffff0483118215151615620004fe57620004fd62000547565b5b828202905092915050565b600062000516826200051d565b9050919050565b600073ffffffffffffffffffffffffffffffffffffffff82169050919050565b6000819050919050565b7f4e487b7100000000000000000000000000000000000000000000000000000000600052601160045260246000fd5b600080fd5b620005868162000509565b81146200059257600080fd5b50565b614dc780620005a56000396000f3fe608060405234801561001057600080fd5b50600436106101a95760003560e01c8063af0efb52116100f9578063e601af7311610097578063ecfb98ad11610071578063ecfb98ad14610436578063f2fde38b14610452578063feda1fd61461046e578063ff0938a71461048a576101a9565b8063e601af73146103ce578063ea5bb7c7146103ea578063eb06110414610406576101a9565b8063b4908ae7116100d3578063b4908ae714610348578063b941d3e014610364578063e02296af14610382578063e1159389146103b2576101a9565b8063af0efb52146102de578063af950b58146102fc578063b2d8cc5b14610318576101a9565b806353ce36a911610166578063715018a611610140578063715018a6146102905780638da5cb5b1461029a5780639a62b39a146102b8578063a807655d146102d4576101a9565b806353ce36a91461024c578063638862621461026a5780637059de6b14610274576101a9565b806305ea3ed5146101ae57806319ec2dba146101cc5780631a9481e3146101e8578063355fdc2d146101f25780633fc6e10d14610210578063474294e214610242575b600080fd5b6101b66104a8565b6040516101c39190614453565b60405180910390f35b6101e660048036038101906101e19190614113565b6104ce565b005b6101f0610564565b005b6101fa610e29565b6040516102079190614453565b60405180910390f35b61022a600480360381019061022591906140b9565b610e4f565b6040516102399392919061474f565b60405180910390f35b61024a610e89565b005b61025461174e565b6040516102619190614453565b60405180910390f35b610272611774565b005b61028e60048036038101906102899190613f2a565b61191b565b005b610298611c9f565b005b6102a2611d27565b6040516102af9190614453565b60405180910390f35b6102d260048036038101906102cd9190613ed7565b611d50565b005b6102dc611fbd565b005b6102e6612882565b6040516102f391906144f7565b60405180910390f35b61031660048036038101906103119190613f2a565b6128a8565b005b610332600480360381019061032d9190613e97565b612c2c565b60405161033f91906144dc565b60405180910390f35b610362600480360381019061035d9190613fde565b612c5b565b005b61036c612e40565b6040516103799190614453565b60405180910390f35b61039c60048036038101906103979190613e97565b612e66565b6040516103a991906144dc565b60405180910390f35b6103cc60048036038101906103c79190613f2a565b612e95565b005b6103e860048036038101906103e3919061405f565b613219565b005b61040460048036038101906103ff9190613e6a565b6132b2565b005b610420600480360381019061041b9190613e97565b613372565b60405161042d9190614734565b60405180910390f35b610450600480360381019061044b9190613f2a565b613397565b005b61046c60048036038101906104679190613e6a565b61371b565b005b61048860048036038101906104839190613e6a565b613813565b005b6104926138d3565b60405161049f91906144dc565b60405180910390f35b600660009054906101000a900473ffffffffffffffffffffffffffffffffffffffff1681565b6104d66138e6565b73ffffffffffffffffffffffffffffffffffffffff166104f4611d27565b73ffffffffffffffffffffffffffffffffffffffff161461054a576040517f08c379a000000000000000000000000000000000000000000000000000000000815260040161054190614634565b60405180910390fd5b82600f819055508160108190555080601181905550505050565b600260015414156105aa576040517f08c379a00000000000000000000000000000000000000000000000000000000081526004016105a1906146f4565b60405180910390fd5b600260018190555060001515600260149054906101000a900460ff16151514610608576040517f08c379a00000000000000000000000000000000000000000000000000000000081526004016105ff906146d4565b60405180910390fd5b6000151560046000600860009054906101000a900473ffffffffffffffffffffffffffffffffffffffff1673ffffffffffffffffffffffffffffffffffffffff1673ffffffffffffffffffffffffffffffffffffffff16815260200190815260200160002060003373ffffffffffffffffffffffffffffffffffffffff1673ffffffffffffffffffffffffffffffffffffffff16815260200190815260200160002060009054906101000a900460ff161515146106fa576040517f08c379a00000000000000000000000000000000000000000000000000000000081526004016106f190614594565b60405180910390fd5b60036000600860009054906101000a900473ffffffffffffffffffffffffffffffffffffffff1673ffffffffffffffffffffffffffffffffffffffff1673ffffffffffffffffffffffffffffffffffffffff16815260200190815260200160002060003373ffffffffffffffffffffffffffffffffffffffff1673ffffffffffffffffffffffffffffffffffffffff16815260200190815260200160002060009054906101000a900460ff166107e5576040517f08c379a00000000000000000000000000000000000000000000000000000000081526004016107dc90614714565b60405180910390fd5b600c60009054906101000a900473ffffffffffffffffffffffffffffffffffffffff1673ffffffffffffffffffffffffffffffffffffffff166332531c3c336040518263ffffffff1660e01b81526004016108409190614453565b60206040518083038186803b15801561085857600080fd5b505afa15801561086c573d6000803e3d6000fd5b505050506040513d601f19601f82011682018060405250810190610890919061408c565b6108cf576040517f08c379a00000000000000000000000000000000000000000000000000000000081526004016108c6906145b4565b60405180910390fd5b6000600e6000600860009054906101000a900473ffffffffffffffffffffffffffffffffffffffff1673ffffffffffffffffffffffffffffffffffffffff1673ffffffffffffffffffffffffffffffffffffffff16815260200190815260200160002060003373ffffffffffffffffffffffffffffffffffffffff1673ffffffffffffffffffffffffffffffffffffffff168152602001908152602001600020541415610ac457600c60009054906101000a900473ffffffffffffffffffffffffffffffffffffffff1673ffffffffffffffffffffffffffffffffffffffff1663782a2737336040518263ffffffff1660e01b81526004016109d19190614453565b60206040518083038186803b1580156109e957600080fd5b505afa1580156109fd573d6000803e3d6000fd5b505050506040513d601f19601f82011682018060405250810190610a2191906140e6565b600e6000600860009054906101000a900473ffffffffffffffffffffffffffffffffffffffff1673ffffffffffffffffffffffffffffffffffffffff1673ffffffffffffffffffffffffffffffffffffffff16815260200190815260200160002060003373ffffffffffffffffffffffffffffffffffffffff1673ffffffffffffffffffffffffffffffffffffffff168152602001908152602001600020819055505b6000600e6000600860009054906101000a900473ffffffffffffffffffffffffffffffffffffffff1673ffffffffffffffffffffffffffffffffffffffff1673ffffffffffffffffffffffffffffffffffffffff16815260200190815260200160002060003373ffffffffffffffffffffffffffffffffffffffff1673ffffffffffffffffffffffffffffffffffffffff1681526020019081526020016000205490506000600d8281548110610b7d57610b7c6149f1565b5b906000526020600020906003020160405180606001604052908160008201548152602001600182015481526020016002820154815250509050600081602001519050600082604001519050600d805490508410610c0f576040517f08c379a0000000000000000000000000000000000000000000000000000000008152600401610c0690614554565b60405180910390fd5b60008211610c52576040517f08c379a0000000000000000000000000000000000000000000000000000000008152600401610c4990614654565b60405180910390fd5b428110610c94576040517f08c379a0000000000000000000000000000000000000000000000000000000008152600401610c8b90614534565b60405180910390fd5b600184610ca191906147b8565b600e6000600860009054906101000a900473ffffffffffffffffffffffffffffffffffffffff1673ffffffffffffffffffffffffffffffffffffffff1673ffffffffffffffffffffffffffffffffffffffff16815260200190815260200160002060003373ffffffffffffffffffffffffffffffffffffffff1673ffffffffffffffffffffffffffffffffffffffff168152602001908152602001600020819055506000610d6d6064610d5f601154866138ee90919063ffffffff16565b61390490919063ffffffff16565b9050610dbc3382600960009054906101000a900473ffffffffffffffffffffffffffffffffffffffff1673ffffffffffffffffffffffffffffffffffffffff1661391a9092919063ffffffff16565b7f2d2219585e0850f45c014c2bd25605cccbe23874434b7c4f8101b3e3b829b0cc3382600860009054906101000a900473ffffffffffffffffffffffffffffffffffffffff1642604051610e139493929190614497565b60405180910390a1505050505060018081905550565b600260009054906101000a900473ffffffffffffffffffffffffffffffffffffffff1681565b600d8181548110610e5f57600080fd5b90600052602060002090600302016000915090508060000154908060010154908060020154905083565b60026001541415610ecf576040517f08c379a0000000000000000000000000000000000000000000000000000000008152600401610ec6906146f4565b60405180910390fd5b600260018190555060001515600260149054906101000a900460ff16151514610f2d576040517f08c379a0000000000000000000000000000000000000000000000000000000008152600401610f24906146d4565b60405180910390fd5b6000151560046000600760009054906101000a900473ffffffffffffffffffffffffffffffffffffffff1673ffffffffffffffffffffffffffffffffffffffff1673ffffffffffffffffffffffffffffffffffffffff16815260200190815260200160002060003373ffffffffffffffffffffffffffffffffffffffff1673ffffffffffffffffffffffffffffffffffffffff16815260200190815260200160002060009054906101000a900460ff1615151461101f576040517f08c379a000000000000000000000000000000000000000000000000000000000815260040161101690614594565b60405180910390fd5b60036000600760009054906101000a900473ffffffffffffffffffffffffffffffffffffffff1673ffffffffffffffffffffffffffffffffffffffff1673ffffffffffffffffffffffffffffffffffffffff16815260200190815260200160002060003373ffffffffffffffffffffffffffffffffffffffff1673ffffffffffffffffffffffffffffffffffffffff16815260200190815260200160002060009054906101000a900460ff1661110a576040517f08c379a000000000000000000000000000000000000000000000000000000000815260040161110190614714565b60405180910390fd5b600b60009054906101000a900473ffffffffffffffffffffffffffffffffffffffff1673ffffffffffffffffffffffffffffffffffffffff166332531c3c336040518263ffffffff1660e01b81526004016111659190614453565b60206040518083038186803b15801561117d57600080fd5b505afa158015611191573d6000803e3d6000fd5b505050506040513d601f19601f820116820180604052508101906111b5919061408c565b6111f4576040517f08c379a00000000000000000000000000000000000000000000000000000000081526004016111eb906145d4565b60405180910390fd5b6000600e6000600760009054906101000a900473ffffffffffffffffffffffffffffffffffffffff1673ffffffffffffffffffffffffffffffffffffffff1673ffffffffffffffffffffffffffffffffffffffff16815260200190815260200160002060003373ffffffffffffffffffffffffffffffffffffffff1673ffffffffffffffffffffffffffffffffffffffff1681526020019081526020016000205414156113e957600b60009054906101000a900473ffffffffffffffffffffffffffffffffffffffff1673ffffffffffffffffffffffffffffffffffffffff1663782a2737336040518263ffffffff1660e01b81526004016112f69190614453565b60206040518083038186803b15801561130e57600080fd5b505afa158015611322573d6000803e3d6000fd5b505050506040513d601f19601f8201168201806040525081019061134691906140e6565b600e6000600760009054906101000a900473ffffffffffffffffffffffffffffffffffffffff1673ffffffffffffffffffffffffffffffffffffffff1673ffffffffffffffffffffffffffffffffffffffff16815260200190815260200160002060003373ffffffffffffffffffffffffffffffffffffffff1673ffffffffffffffffffffffffffffffffffffffff168152602001908152602001600020819055505b6000600e6000600760009054906101000a900473ffffffffffffffffffffffffffffffffffffffff1673ffffffffffffffffffffffffffffffffffffffff1673ffffffffffffffffffffffffffffffffffffffff16815260200190815260200160002060003373ffffffffffffffffffffffffffffffffffffffff1673ffffffffffffffffffffffffffffffffffffffff1681526020019081526020016000205490506000600d82815481106114a2576114a16149f1565b5b906000526020600020906003020160405180606001604052908160008201548152602001600182015481526020016002820154815250509050600081602001519050600082604001519050600d805490508410611534576040517f08c379a000000000000000000000000000000000000000000000000000000000815260040161152b90614554565b60405180910390fd5b60008211611577576040517f08c379a000000000000000000000000000000000000000000000000000000000815260040161156e90614654565b60405180910390fd5b4281106115b9576040517f08c379a00000000000000000000000000000000000000000000000000000000081526004016115b090614534565b60405180910390fd5b6001846115c691906147b8565b600e6000600760009054906101000a900473ffffffffffffffffffffffffffffffffffffffff1673ffffffffffffffffffffffffffffffffffffffff1673ffffffffffffffffffffffffffffffffffffffff16815260200190815260200160002060003373ffffffffffffffffffffffffffffffffffffffff1673ffffffffffffffffffffffffffffffffffffffff1681526020019081526020016000208190555060006116926064611684601054866138ee90919063ffffffff16565b61390490919063ffffffff16565b90506116e13382600960009054906101000a900473ffffffffffffffffffffffffffffffffffffffff1673ffffffffffffffffffffffffffffffffffffffff1661391a9092919063ffffffff16565b7f2d2219585e0850f45c014c2bd25605cccbe23874434b7c4f8101b3e3b829b0cc3382600760009054906101000a900473ffffffffffffffffffffffffffffffffffffffff16426040516117389493929190614497565b60405180910390a1505050505060018081905550565b600860009054906101000a900473ffffffffffffffffffffffffffffffffffffffff1681565b61177c6138e6565b73ffffffffffffffffffffffffffffffffffffffff1661179a611d27565b73ffffffffffffffffffffffffffffffffffffffff16146117f0576040517f08c379a00000000000000000000000000000000000000000000000000000000081526004016117e790614634565b60405180910390fd5b6000600960009054906101000a900473ffffffffffffffffffffffffffffffffffffffff1673ffffffffffffffffffffffffffffffffffffffff166370a08231306040518263ffffffff1660e01b815260040161184d9190614453565b60206040518083038186803b15801561186557600080fd5b505afa158015611879573d6000803e3d6000fd5b505050506040513d601f19601f8201168201806040525081019061189d91906140e6565b9050600081111561191857611917600260009054906101000a900473ffffffffffffffffffffffffffffffffffffffff1682600960009054906101000a900473ffffffffffffffffffffffffffffffffffffffff1673ffffffffffffffffffffffffffffffffffffffff1661391a9092919063ffffffff16565b5b50565b6119236138e6565b73ffffffffffffffffffffffffffffffffffffffff16611941611d27565b73ffffffffffffffffffffffffffffffffffffffff1614611997576040517f08c379a000000000000000000000000000000000000000000000000000000000815260040161198e90614634565b60405180910390fd5b60005b86869050811015611a9657600160046000600660009054906101000a900473ffffffffffffffffffffffffffffffffffffffff1673ffffffffffffffffffffffffffffffffffffffff1673ffffffffffffffffffffffffffffffffffffffff1681526020019081526020016000206000898985818110611a1d57611a1c6149f1565b5b9050602002016020810190611a329190613e6a565b73ffffffffffffffffffffffffffffffffffffffff1673ffffffffffffffffffffffffffffffffffffffff16815260200190815260200160002060006101000a81548160ff0219169083151502179055508080611a8e9061494a565b91505061199a565b5060005b84849050811015611b9657600160046000600760009054906101000a900473ffffffffffffffffffffffffffffffffffffffff1673ffffffffffffffffffffffffffffffffffffffff1673ffffffffffffffffffffffffffffffffffffffff1681526020019081526020016000206000878785818110611b1d57611b1c6149f1565b5b9050602002016020810190611b329190613e6a565b73ffffffffffffffffffffffffffffffffffffffff1673ffffffffffffffffffffffffffffffffffffffff16815260200190815260200160002060006101000a81548160ff0219169083151502179055508080611b8e9061494a565b915050611a9a565b5060005b82829050811015611c9657600160046000600860009054906101000a900473ffffffffffffffffffffffffffffffffffffffff1673ffffffffffffffffffffffffffffffffffffffff1673ffffffffffffffffffffffffffffffffffffffff1681526020019081526020016000206000858585818110611c1d57611c1c6149f1565b5b9050602002016020810190611c329190613e6a565b73ffffffffffffffffffffffffffffffffffffffff1673ffffffffffffffffffffffffffffffffffffffff16815260200190815260200160002060006101000a81548160ff0219169083151502179055508080611c8e9061494a565b915050611b9a565b50505050505050565b611ca76138e6565b73ffffffffffffffffffffffffffffffffffffffff16611cc5611d27565b73ffffffffffffffffffffffffffffffffffffffff1614611d1b576040517f08c379a0000000000000000000000000000000000000000000000000000000008152600401611d1290614634565b60405180910390fd5b611d2560006139a0565b565b60008060009054906101000a900473ffffffffffffffffffffffffffffffffffffffff16905090565b611d586138e6565b73ffffffffffffffffffffffffffffffffffffffff16611d76611d27565b73ffffffffffffffffffffffffffffffffffffffff1614611dcc576040517f08c379a0000000000000000000000000000000000000000000000000000000008152600401611dc390614634565b60405180910390fd5b82600660006101000a81548173ffffffffffffffffffffffffffffffffffffffff021916908373ffffffffffffffffffffffffffffffffffffffff16021790555081600760006101000a81548173ffffffffffffffffffffffffffffffffffffffff021916908373ffffffffffffffffffffffffffffffffffffffff16021790555080600860006101000a81548173ffffffffffffffffffffffffffffffffffffffff021916908373ffffffffffffffffffffffffffffffffffffffff160217905550600660009054906101000a900473ffffffffffffffffffffffffffffffffffffffff16600a60006101000a81548173ffffffffffffffffffffffffffffffffffffffff021916908373ffffffffffffffffffffffffffffffffffffffff160217905550600760009054906101000a900473ffffffffffffffffffffffffffffffffffffffff16600b60006101000a81548173ffffffffffffffffffffffffffffffffffffffff021916908373ffffffffffffffffffffffffffffffffffffffff160217905550600860009054906101000a900473ffffffffffffffffffffffffffffffffffffffff16600c60006101000a81548173ffffffffffffffffffffffffffffffffffffffff021916908373ffffffffffffffffffffffffffffffffffffffff160217905550505050565b60026001541415612003576040517f08c379a0000000000000000000000000000000000000000000000000000000008152600401611ffa906146f4565b60405180910390fd5b600260018190555060001515600260149054906101000a900460ff16151514612061576040517f08c379a0000000000000000000000000000000000000000000000000000000008152600401612058906146d4565b60405180910390fd5b6000151560046000600660009054906101000a900473ffffffffffffffffffffffffffffffffffffffff1673ffffffffffffffffffffffffffffffffffffffff1673ffffffffffffffffffffffffffffffffffffffff16815260200190815260200160002060003373ffffffffffffffffffffffffffffffffffffffff1673ffffffffffffffffffffffffffffffffffffffff16815260200190815260200160002060009054906101000a900460ff16151514612153576040517f08c379a000000000000000000000000000000000000000000000000000000000815260040161214a90614594565b60405180910390fd5b60036000600660009054906101000a900473ffffffffffffffffffffffffffffffffffffffff1673ffffffffffffffffffffffffffffffffffffffff1673ffffffffffffffffffffffffffffffffffffffff16815260200190815260200160002060003373ffffffffffffffffffffffffffffffffffffffff1673ffffffffffffffffffffffffffffffffffffffff16815260200190815260200160002060009054906101000a900460ff1661223e576040517f08c379a000000000000000000000000000000000000000000000000000000000815260040161223590614714565b60405180910390fd5b600a60009054906101000a900473ffffffffffffffffffffffffffffffffffffffff1673ffffffffffffffffffffffffffffffffffffffff166332531c3c336040518263ffffffff1660e01b81526004016122999190614453565b60206040518083038186803b1580156122b157600080fd5b505afa1580156122c5573d6000803e3d6000fd5b505050506040513d601f19601f820116820180604052508101906122e9919061408c565b612328576040517f08c379a000000000000000000000000000000000000000000000000000000000815260040161231f90614674565b60405180910390fd5b6000600e6000600660009054906101000a900473ffffffffffffffffffffffffffffffffffffffff1673ffffffffffffffffffffffffffffffffffffffff1673ffffffffffffffffffffffffffffffffffffffff16815260200190815260200160002060003373ffffffffffffffffffffffffffffffffffffffff1673ffffffffffffffffffffffffffffffffffffffff16815260200190815260200160002054141561251d57600a60009054906101000a900473ffffffffffffffffffffffffffffffffffffffff1673ffffffffffffffffffffffffffffffffffffffff1663782a2737336040518263ffffffff1660e01b815260040161242a9190614453565b60206040518083038186803b15801561244257600080fd5b505afa158015612456573d6000803e3d6000fd5b505050506040513d601f19601f8201168201806040525081019061247a91906140e6565b600e6000600660009054906101000a900473ffffffffffffffffffffffffffffffffffffffff1673ffffffffffffffffffffffffffffffffffffffff1673ffffffffffffffffffffffffffffffffffffffff16815260200190815260200160002060003373ffffffffffffffffffffffffffffffffffffffff1673ffffffffffffffffffffffffffffffffffffffff168152602001908152602001600020819055505b6000600e6000600660009054906101000a900473ffffffffffffffffffffffffffffffffffffffff1673ffffffffffffffffffffffffffffffffffffffff1673ffffffffffffffffffffffffffffffffffffffff16815260200190815260200160002060003373ffffffffffffffffffffffffffffffffffffffff1673ffffffffffffffffffffffffffffffffffffffff1681526020019081526020016000205490506000600d82815481106125d6576125d56149f1565b5b906000526020600020906003020160405180606001604052908160008201548152602001600182015481526020016002820154815250509050600081602001519050600082604001519050600d805490508410612668576040517f08c379a000000000000000000000000000000000000000000000000000000000815260040161265f90614554565b60405180910390fd5b600082116126ab576040517f08c379a00000000000000000000000000000000000000000000000000000000081526004016126a290614654565b60405180910390fd5b4281106126ed576040517f08c379a00000000000000000000000000000000000000000000000000000000081526004016126e490614534565b60405180910390fd5b6001846126fa91906147b8565b600e6000600660009054906101000a900473ffffffffffffffffffffffffffffffffffffffff1673ffffffffffffffffffffffffffffffffffffffff1673ffffffffffffffffffffffffffffffffffffffff16815260200190815260200160002060003373ffffffffffffffffffffffffffffffffffffffff1673ffffffffffffffffffffffffffffffffffffffff1681526020019081526020016000208190555060006127c660646127b8600f54866138ee90919063ffffffff16565b61390490919063ffffffff16565b90506128153382600960009054906101000a900473ffffffffffffffffffffffffffffffffffffffff1673ffffffffffffffffffffffffffffffffffffffff1661391a9092919063ffffffff16565b7f2d2219585e0850f45c014c2bd25605cccbe23874434b7c4f8101b3e3b829b0cc3382600660009054906101000a900473ffffffffffffffffffffffffffffffffffffffff164260405161286c9493929190614497565b60405180910390a1505050505060018081905550565b600960009054906101000a900473ffffffffffffffffffffffffffffffffffffffff1681565b6128b06138e6565b73ffffffffffffffffffffffffffffffffffffffff166128ce611d27565b73ffffffffffffffffffffffffffffffffffffffff1614612924576040517f08c379a000000000000000000000000000000000000000000000000000000000815260040161291b90614634565b60405180910390fd5b60005b86869050811015612a2357600160036000600660009054906101000a900473ffffffffffffffffffffffffffffffffffffffff1673ffffffffffffffffffffffffffffffffffffffff1673ffffffffffffffffffffffffffffffffffffffff16815260200190815260200160002060008989858181106129aa576129a96149f1565b5b90506020020160208101906129bf9190613e6a565b73ffffffffffffffffffffffffffffffffffffffff1673ffffffffffffffffffffffffffffffffffffffff16815260200190815260200160002060006101000a81548160ff0219169083151502179055508080612a1b9061494a565b915050612927565b5060005b84849050811015612b2357600160036000600760009054906101000a900473ffffffffffffffffffffffffffffffffffffffff1673ffffffffffffffffffffffffffffffffffffffff1673ffffffffffffffffffffffffffffffffffffffff1681526020019081526020016000206000878785818110612aaa57612aa96149f1565b5b9050602002016020810190612abf9190613e6a565b73ffffffffffffffffffffffffffffffffffffffff1673ffffffffffffffffffffffffffffffffffffffff16815260200190815260200160002060006101000a81548160ff0219169083151502179055508080612b1b9061494a565b915050612a27565b5060005b82829050811015612c2357600160036000600860009054906101000a900473ffffffffffffffffffffffffffffffffffffffff1673ffffffffffffffffffffffffffffffffffffffff1673ffffffffffffffffffffffffffffffffffffffff1681526020019081526020016000206000858585818110612baa57612ba96149f1565b5b9050602002016020810190612bbf9190613e6a565b73ffffffffffffffffffffffffffffffffffffffff1673ffffffffffffffffffffffffffffffffffffffff16815260200190815260200160002060006101000a81548160ff0219169083151502179055508080612c1b9061494a565b915050612b27565b50505050505050565b60046020528160005260406000206020528060005260406000206000915091509054906101000a900460ff1681565b612c636138e6565b73ffffffffffffffffffffffffffffffffffffffff16612c81611d27565b73ffffffffffffffffffffffffffffffffffffffff1614612cd7576040517f08c379a0000000000000000000000000000000000000000000000000000000008152600401612cce90614634565b60405180910390fd5b60008484905011612d1d576040517f08c379a0000000000000000000000000000000000000000000000000000000008152600401612d1490614614565b60405180910390fd5b818190508484905014612d65576040517f08c379a0000000000000000000000000000000000000000000000000000000008152600401612d5c90614614565b60405180910390fd5b600d6000612d739190613ce1565b60005b84849050811015612e3957612d89613d05565b81816000018181525050858583818110612da657612da56149f1565b5b90506020020135816040018181525050838383818110612dc957612dc86149f1565b5b90506020020135816020018181525050600d8190806001815401808255809150506001900390600052602060002090600302016000909190919091506000820151816000015560208201518160010155604082015181600201555050508080612e319061494a565b915050612d76565b5050505050565b600760009054906101000a900473ffffffffffffffffffffffffffffffffffffffff1681565b60036020528160005260406000206020528060005260406000206000915091509054906101000a900460ff1681565b612e9d6138e6565b73ffffffffffffffffffffffffffffffffffffffff16612ebb611d27565b73ffffffffffffffffffffffffffffffffffffffff1614612f11576040517f08c379a0000000000000000000000000000000000000000000000000000000008152600401612f0890614634565b60405180910390fd5b60005b8686905081101561301057600060036000600660009054906101000a900473ffffffffffffffffffffffffffffffffffffffff1673ffffffffffffffffffffffffffffffffffffffff1673ffffffffffffffffffffffffffffffffffffffff1681526020019081526020016000206000898985818110612f9757612f966149f1565b5b9050602002016020810190612fac9190613e6a565b73ffffffffffffffffffffffffffffffffffffffff1673ffffffffffffffffffffffffffffffffffffffff16815260200190815260200160002060006101000a81548160ff02191690831515021790555080806130089061494a565b915050612f14565b5060005b8484905081101561311057600060036000600760009054906101000a900473ffffffffffffffffffffffffffffffffffffffff1673ffffffffffffffffffffffffffffffffffffffff1673ffffffffffffffffffffffffffffffffffffffff1681526020019081526020016000206000878785818110613097576130966149f1565b5b90506020020160208101906130ac9190613e6a565b73ffffffffffffffffffffffffffffffffffffffff1673ffffffffffffffffffffffffffffffffffffffff16815260200190815260200160002060006101000a81548160ff02191690831515021790555080806131089061494a565b915050613014565b5060005b8282905081101561321057600060036000600860009054906101000a900473ffffffffffffffffffffffffffffffffffffffff1673ffffffffffffffffffffffffffffffffffffffff1673ffffffffffffffffffffffffffffffffffffffff1681526020019081526020016000206000858585818110613197576131966149f1565b5b90506020020160208101906131ac9190613e6a565b73ffffffffffffffffffffffffffffffffffffffff1673ffffffffffffffffffffffffffffffffffffffff16815260200190815260200160002060006101000a81548160ff02191690831515021790555080806132089061494a565b915050613114565b50505050505050565b6132216138e6565b73ffffffffffffffffffffffffffffffffffffffff1661323f611d27565b73ffffffffffffffffffffffffffffffffffffffff1614613295576040517f08c379a000000000000000000000000000000000000000000000000000000000815260040161328c90614634565b60405180910390fd5b80600260146101000a81548160ff02191690831515021790555050565b6132ba6138e6565b73ffffffffffffffffffffffffffffffffffffffff166132d8611d27565b73ffffffffffffffffffffffffffffffffffffffff161461332e576040517f08c379a000000000000000000000000000000000000000000000000000000000815260040161332590614634565b60405180910390fd5b80600960006101000a81548173ffffffffffffffffffffffffffffffffffffffff021916908373ffffffffffffffffffffffffffffffffffffffff16021790555050565b600e602052816000526040600020602052806000526040600020600091509150505481565b61339f6138e6565b73ffffffffffffffffffffffffffffffffffffffff166133bd611d27565b73ffffffffffffffffffffffffffffffffffffffff1614613413576040517f08c379a000000000000000000000000000000000000000000000000000000000815260040161340a90614634565b60405180910390fd5b60005b8686905081101561351257600060046000600660009054906101000a900473ffffffffffffffffffffffffffffffffffffffff1673ffffffffffffffffffffffffffffffffffffffff1673ffffffffffffffffffffffffffffffffffffffff1681526020019081526020016000206000898985818110613499576134986149f1565b5b90506020020160208101906134ae9190613e6a565b73ffffffffffffffffffffffffffffffffffffffff1673ffffffffffffffffffffffffffffffffffffffff16815260200190815260200160002060006101000a81548160ff021916908315150217905550808061350a9061494a565b915050613416565b5060005b8484905081101561361257600060046000600760009054906101000a900473ffffffffffffffffffffffffffffffffffffffff1673ffffffffffffffffffffffffffffffffffffffff1673ffffffffffffffffffffffffffffffffffffffff1681526020019081526020016000206000878785818110613599576135986149f1565b5b90506020020160208101906135ae9190613e6a565b73ffffffffffffffffffffffffffffffffffffffff1673ffffffffffffffffffffffffffffffffffffffff16815260200190815260200160002060006101000a81548160ff021916908315150217905550808061360a9061494a565b915050613516565b5060005b8282905081101561371257600060046000600860009054906101000a900473ffffffffffffffffffffffffffffffffffffffff1673ffffffffffffffffffffffffffffffffffffffff1673ffffffffffffffffffffffffffffffffffffffff1681526020019081526020016000206000858585818110613699576136986149f1565b5b90506020020160208101906136ae9190613e6a565b73ffffffffffffffffffffffffffffffffffffffff1673ffffffffffffffffffffffffffffffffffffffff16815260200190815260200160002060006101000a81548160ff021916908315150217905550808061370a9061494a565b915050613616565b50505050505050565b6137236138e6565b73ffffffffffffffffffffffffffffffffffffffff16613741611d27565b73ffffffffffffffffffffffffffffffffffffffff1614613797576040517f08c379a000000000000000000000000000000000000000000000000000000000815260040161378e90614634565b60405180910390fd5b600073ffffffffffffffffffffffffffffffffffffffff168173ffffffffffffffffffffffffffffffffffffffff161415613807576040517f08c379a00000000000000000000000000000000000000000000000000000000081526004016137fe90614574565b60405180910390fd5b613810816139a0565b50565b61381b6138e6565b73ffffffffffffffffffffffffffffffffffffffff16613839611d27565b73ffffffffffffffffffffffffffffffffffffffff161461388f576040517f08c379a000000000000000000000000000000000000000000000000000000000815260040161388690614634565b60405180910390fd5b80600260006101000a81548173ffffffffffffffffffffffffffffffffffffffff021916908373ffffffffffffffffffffffffffffffffffffffff16021790555050565b600260149054906101000a900460ff1681565b600033905090565b600081836138fc919061483f565b905092915050565b60008183613912919061480e565b905092915050565b61399b8363a9059cbb60e01b848460405160240161393992919061446e565b604051602081830303815290604052907bffffffffffffffffffffffffffffffffffffffffffffffffffffffff19166020820180517bffffffffffffffffffffffffffffffffffffffffffffffffffffffff8381831617835250505050613a64565b505050565b60008060009054906101000a900473ffffffffffffffffffffffffffffffffffffffff169050816000806101000a81548173ffffffffffffffffffffffffffffffffffffffff021916908373ffffffffffffffffffffffffffffffffffffffff1602179055508173ffffffffffffffffffffffffffffffffffffffff168173ffffffffffffffffffffffffffffffffffffffff167f8be0079c531659141344cd1fd0a4f28419497f9722a3daafe3b4186f6b6457e060405160405180910390a35050565b6000613ac6826040518060400160405280602081526020017f5361666545524332303a206c6f772d6c6576656c2063616c6c206661696c65648152508573ffffffffffffffffffffffffffffffffffffffff16613b2b9092919063ffffffff16565b9050600081511115613b265780806020019051810190613ae6919061408c565b613b25576040517f08c379a0000000000000000000000000000000000000000000000000000000008152600401613b1c906146b4565b60405180910390fd5b5b505050565b6060613b3a8484600085613b43565b90509392505050565b606082471015613b88576040517f08c379a0000000000000000000000000000000000000000000000000000000008152600401613b7f906145f4565b60405180910390fd5b613b9185613c57565b613bd0576040517f08c379a0000000000000000000000000000000000000000000000000000000008152600401613bc790614694565b60405180910390fd5b6000808673ffffffffffffffffffffffffffffffffffffffff168587604051613bf9919061443c565b60006040518083038185875af1925050503d8060008114613c36576040519150601f19603f3d011682016040523d82523d6000602084013e613c3b565b606091505b5091509150613c4b828286613c7a565b92505050949350505050565b6000808273ffffffffffffffffffffffffffffffffffffffff163b119050919050565b60608315613c8a57829050613cda565b600083511115613c9d5782518084602001fd5b816040517f08c379a0000000000000000000000000000000000000000000000000000000008152600401613cd19190614512565b60405180910390fd5b9392505050565b5080546000825560030290600052602060002090810190613d029190613d26565b50565b60405180606001604052806000815260200160008152602001600081525090565b5b80821115613d51576000808201600090556001820160009055600282016000905550600301613d27565b5090565b600081359050613d6481614d4c565b92915050565b60008083601f840112613d8057613d7f614a25565b5b8235905067ffffffffffffffff811115613d9d57613d9c614a20565b5b602083019150836020820283011115613db957613db8614a2a565b5b9250929050565b60008083601f840112613dd657613dd5614a25565b5b8235905067ffffffffffffffff811115613df357613df2614a20565b5b602083019150836020820283011115613e0f57613e0e614a2a565b5b9250929050565b600081359050613e2581614d63565b92915050565b600081519050613e3a81614d63565b92915050565b600081359050613e4f81614d7a565b92915050565b600081519050613e6481614d7a565b92915050565b600060208284031215613e8057613e7f614a34565b5b6000613e8e84828501613d55565b91505092915050565b60008060408385031215613eae57613ead614a34565b5b6000613ebc85828601613d55565b9250506020613ecd85828601613d55565b9150509250929050565b600080600060608486031215613ef057613eef614a34565b5b6000613efe86828701613d55565b9350506020613f0f86828701613d55565b9250506040613f2086828701613d55565b9150509250925092565b60008060008060008060608789031215613f4757613f46614a34565b5b600087013567ffffffffffffffff811115613f6557613f64614a2f565b5b613f7189828a01613d6a565b9650965050602087013567ffffffffffffffff811115613f9457613f93614a2f565b5b613fa089828a01613d6a565b9450945050604087013567ffffffffffffffff811115613fc357613fc2614a2f565b5b613fcf89828a01613d6a565b92509250509295509295509295565b60008060008060408587031215613ff857613ff7614a34565b5b600085013567ffffffffffffffff81111561401657614015614a2f565b5b61402287828801613dc0565b9450945050602085013567ffffffffffffffff81111561404557614044614a2f565b5b61405187828801613dc0565b925092505092959194509250565b60006020828403121561407557614074614a34565b5b600061408384828501613e16565b91505092915050565b6000602082840312156140a2576140a1614a34565b5b60006140b084828501613e2b565b91505092915050565b6000602082840312156140cf576140ce614a34565b5b60006140dd84828501613e40565b91505092915050565b6000602082840312156140fc576140fb614a34565b5b600061410a84828501613e55565b91505092915050565b60008060006060848603121561412c5761412b614a34565b5b600061413a86828701613e40565b935050602061414b86828701613e40565b925050604061415c86828701613e40565b9150509250925092565b61416f81614899565b82525050565b61417e816148ab565b82525050565b600061418f82614786565b614199818561479c565b93506141a9818560208601614917565b80840191505092915050565b6141be816148e1565b82525050565b60006141cf82614791565b6141d981856147a7565b93506141e9818560208601614917565b6141f281614a39565b840191505092915050565b600061420a6019836147a7565b915061421582614a4a565b602082019050919050565b600061422d6016836147a7565b915061423882614a73565b602082019050919050565b60006142506026836147a7565b915061425b82614a9c565b604082019050919050565b60006142736014836147a7565b915061427e82614aeb565b602082019050919050565b60006142966014836147a7565b91506142a182614b14565b602082019050919050565b60006142b96014836147a7565b91506142c482614b3d565b602082019050919050565b60006142dc6026836147a7565b91506142e782614b66565b604082019050919050565b60006142ff6013836147a7565b915061430a82614bb5565b602082019050919050565b60006143226020836147a7565b915061432d82614bde565b602082019050919050565b6000614345601a836147a7565b915061435082614c07565b602082019050919050565b60006143686014836147a7565b915061437382614c30565b602082019050919050565b600061438b601d836147a7565b915061439682614c59565b602082019050919050565b60006143ae602a836147a7565b91506143b982614c82565b604082019050919050565b60006143d16012836147a7565b91506143dc82614cd1565b602082019050919050565b60006143f4601f836147a7565b91506143ff82614cfa565b602082019050919050565b6000614417600d836147a7565b915061442282614d23565b602082019050919050565b614436816148d7565b82525050565b60006144488284614184565b915081905092915050565b60006020820190506144686000830184614166565b92915050565b60006040820190506144836000830185614166565b614490602083018461442d565b9392505050565b60006080820190506144ac6000830187614166565b6144b9602083018661442d565b6144c66040830185614166565b6144d3606083018461442d565b95945050505050565b60006020820190506144f16000830184614175565b92915050565b600060208201905061450c60008301846141b5565b92915050565b6000602082019050818103600083015261452c81846141c4565b905092915050565b6000602082019050818103600083015261454d816141fd565b9050919050565b6000602082019050818103600083015261456d81614220565b9050919050565b6000602082019050818103600083015261458d81614243565b9050919050565b600060208201905081810360008301526145ad81614266565b9050919050565b600060208201905081810360008301526145cd81614289565b9050919050565b600060208201905081810360008301526145ed816142ac565b9050919050565b6000602082019050818103600083015261460d816142cf565b9050919050565b6000602082019050818103600083015261462d816142f2565b9050919050565b6000602082019050818103600083015261464d81614315565b9050919050565b6000602082019050818103600083015261466d81614338565b9050919050565b6000602082019050818103600083015261468d8161435b565b9050919050565b600060208201905081810360008301526146ad8161437e565b9050919050565b600060208201905081810360008301526146cd816143a1565b9050919050565b600060208201905081810360008301526146ed816143c4565b9050919050565b6000602082019050818103600083015261470d816143e7565b9050919050565b6000602082019050818103600083015261472d8161440a565b9050919050565b6000602082019050614749600083018461442d565b92915050565b6000606082019050614764600083018661442d565b614771602083018561442d565b61477e604083018461442d565b949350505050565b600081519050919050565b600081519050919050565b600081905092915050565b600082825260208201905092915050565b60006147c3826148d7565b91506147ce836148d7565b9250827fffffffffffffffffffffffffffffffffffffffffffffffffffffffffffffffff0382111561480357614802614993565b5b828201905092915050565b6000614819826148d7565b9150614824836148d7565b925082614834576148336149c2565b5b828204905092915050565b600061484a826148d7565b9150614855836148d7565b9250817fffffffffffffffffffffffffffffffffffffffffffffffffffffffffffffffff048311821515161561488e5761488d614993565b5b828202905092915050565b60006148a4826148b7565b9050919050565b60008115159050919050565b600073ffffffffffffffffffffffffffffffffffffffff82169050919050565b6000819050919050565b60006148ec826148f3565b9050919050565b60006148fe82614905565b9050919050565b6000614910826148b7565b9050919050565b60005b8381101561493557808201518184015260208101905061491a565b83811115614944576000848401525b50505050565b6000614955826148d7565b91507fffffffffffffffffffffffffffffffffffffffffffffffffffffffffffffffff82141561498857614987614993565b5b600182019050919050565b7f4e487b7100000000000000000000000000000000000000000000000000000000600052601160045260246000fd5b7f4e487b7100000000000000000000000000000000000000000000000000000000600052601260045260246000fd5b7f4e487b7100000000000000000000000000000000000000000000000000000000600052603260045260246000fd5b600080fd5b600080fd5b600080fd5b600080fd5b600080fd5b6000601f19601f8301169050919050565b7f436c61696d2074696d65206973206e6f74207374617274656400000000000000600082015250565b7f436c61696d20696e64657820697320696e76616c696400000000000000000000600082015250565b7f4f776e61626c653a206e6577206f776e657220697320746865207a65726f206160008201527f6464726573730000000000000000000000000000000000000000000000000000602082015250565b7f596f752061726520696e20426c61636b6c697374000000000000000000000000600082015250565b7f4e6f742077686974656c69737420706f6f6c2033000000000000000000000000600082015250565b7f4e6f742077686974656c69737420706f6f6c2032000000000000000000000000600082015250565b7f416464726573733a20696e73756666696369656e742062616c616e636520666f60008201527f722063616c6c0000000000000000000000000000000000000000000000000000602082015250565b7f496e70757420737461676520696e76616c696400000000000000000000000000600082015250565b7f4f776e61626c653a2063616c6c6572206973206e6f7420746865206f776e6572600082015250565b7f50657263656e742076657374696e6720697320696e76616c6964000000000000600082015250565b7f4e6f742077686974656c69737420706f6f6c2031000000000000000000000000600082015250565b7f416464726573733a2063616c6c20746f206e6f6e2d636f6e7472616374000000600082015250565b7f5361666545524332303a204552433230206f7065726174696f6e20646964206e60008201527f6f74207375636365656400000000000000000000000000000000000000000000602082015250565b7f436f6e7472616374206973207061757365640000000000000000000000000000600082015250565b7f5265656e7472616e637947756172643a207265656e7472616e742063616c6c00600082015250565b7f4e6f742077686974656c69737400000000000000000000000000000000000000600082015250565b614d5581614899565b8114614d6057600080fd5b50565b614d6c816148ab565b8114614d7757600080fd5b50565b614d83816148d7565b8114614d8e57600080fd5b5056fea2646970667358221220c89e11e7810564551be973539cb5df7ba1faaca29eda82e729c237199e1e2e8d64736f6c63430008070033",
  "linkReferences": {},
  "deployedLinkReferences": {}
}