{
  "_format": "hh-sol-artifact-1",
  "contractName": "BamiHesmanPool1",
  "sourceName": "contracts/BamiHesmanIDO.sol",
  "abi": [
    {
      "inputs": [
        {
          "internalType": "address",
          "name": "",
          "type": "address"
        }
      ],
      "name": "vestingMap",
      "outputs": [
        {
          "internalType": "uint256",
          "name": "",
          "type": "uint256"
        }
      ],
      "stateMutability": "view",
      "type": "function"
    },
    {
      "inputs": [
        {
          "internalType": "address",
          "name": "",
          "type": "address"
        }
      ],
      "name": "whitelistMap",
      "outputs": [
        {
          "internalType": "bool",
          "name": "",
          "type": "bool"
        }
      ],
      "stateMutability": "view",
      "type": "function"
    }
  ],
  "bytecode": "0x608060405234801561001057600080fd5b50610203806100206000396000f3fe608060405234801561001057600080fd5b50600436106100365760003560e01c806332531c3c1461003b578063782a27371461006b575b600080fd5b610055600480360381019061005091906100e8565b61009b565b6040516100629190610133565b60405180910390f35b610085600480360381019061008091906100e8565b6100bb565b604051610092919061014e565b60405180910390f35b60006020528060005260406000206000915054906101000a900460ff1681565b60016020528060005260406000206000915090505481565b6000813590506100e2816101b6565b92915050565b6000602082840312156100fe576100fd6101b1565b5b600061010c848285016100d3565b91505092915050565b61011e8161017b565b82525050565b61012d816101a7565b82525050565b60006020820190506101486000830184610115565b92915050565b60006020820190506101636000830184610124565b92915050565b600061017482610187565b9050919050565b60008115159050919050565b600073ffffffffffffffffffffffffffffffffffffffff82169050919050565b6000819050919050565b600080fd5b6101bf81610169565b81146101ca57600080fd5b5056fea26469706673582212200459d308d2d3dff3fca8c8ff643ee8f349369b64961888cfbbce8da39caf1ab364736f6c63430008070033",
  "linkReferences": {},
  "deployedLinkReferences": {}
}