{
  "_format": "hh-sol-artifact-1",
  "contractName": "RunTogetherBoxNft",
  "sourceName": "contracts/LTDMarketplaceRunTogether.sol",
  "abi": [
    {
      "inputs": [
        {
          "internalType": "uint256",
          "name": "tokenId",
          "type": "uint256"
        }
      ],
      "name": "getBoxType",
      "outputs": [
        {
          "internalType": "uint256",
          "name": "",
          "type": "uint256"
        }
      ],
      "stateMutability": "view",
      "type": "function"
    }
  ],
  "bytecode": "0x608060405234801561001057600080fd5b5061012d806100206000396000f3fe6080604052348015600f57600080fd5b506004361060285760003560e01c8063b546a3bc14602d575b600080fd5b60436004803603810190603f91906086565b6057565b604051604e919060bb565b60405180910390f35b6000806000838152602001908152602001600020549050919050565b60008135905060808160e3565b92915050565b600060208284031215609957609860de565b5b600060a5848285016073565b91505092915050565b60b58160d4565b82525050565b600060208201905060ce600083018460ae565b92915050565b6000819050919050565b600080fd5b60ea8160d4565b811460f457600080fd5b5056fea2646970667358221220624fef8ff31ff2266a75ae7aa29f01cfca22bba25e627eeced2eeacbf481b92c64736f6c63430008070033",
  "linkReferences": {},
  "deployedLinkReferences": {}
}