{
  "_format": "hh-sol-artifact-1",
  "contractName": "ChefRUNToken",
  "sourceName": "contracts/RunTogetherFarm.sol",
  "abi": [
    {
      "inputs": [
        {
          "internalType": "contract IERC20",
          "name": "_RUNToken",
          "type": "address"
        },
        {
          "internalType": "address",
          "name": "_devaddr",
          "type": "address"
        },
        {
          "internalType": "address",
          "name": "_feeAddress",
          "type": "address"
        },
        {
          "internalType": "address",
          "name": "_fundingaddr",
          "type": "address"
        },
        {
          "internalType": "uint256",
          "name": "_RUNTokenPerBlock",
          "type": "uint256"
        },
        {
          "internalType": "uint256",
          "name": "_startBlock",
          "type": "uint256"
        },
        {
          "internalType": "uint256",
          "name": "_finalRewardBlock",
          "type": "uint256"
        }
      ],
      "stateMutability": "nonpayable",
      "type": "constructor"
    },
    {
      "anonymous": false,
      "inputs": [
        {
          "indexed": true,
          "internalType": "address",
          "name": "user",
          "type": "address"
        },
        {
          "indexed": true,
          "internalType": "uint256",
          "name": "pid",
          "type": "uint256"
        },
        {
          "indexed": false,
          "internalType": "uint256",
          "name": "amount",
          "type": "uint256"
        }
      ],
      "name": "Deposit",
      "type": "event"
    },
    {
      "anonymous": false,
      "inputs": [
        {
          "indexed": true,
          "internalType": "address",
          "name": "user",
          "type": "address"
        },
        {
          "indexed": true,
          "internalType": "uint256",
          "name": "pid",
          "type": "uint256"
        },
        {
          "indexed": false,
          "internalType": "uint256",
          "name": "amount",
          "type": "uint256"
        }
      ],
      "name": "EmergencyWithdraw",
      "type": "event"
    },
    {
      "anonymous": false,
      "inputs": [
        {
          "indexed": true,
          "internalType": "address",
          "name": "user",
          "type": "address"
        },
        {
          "indexed": true,
          "internalType": "uint256",
          "name": "pid",
          "type": "uint256"
        },
        {
          "indexed": false,
          "internalType": "uint256",
          "name": "amount",
          "type": "uint256"
        }
      ],
      "name": "Harvest",
      "type": "event"
    },
    {
      "anonymous": false,
      "inputs": [
        {
          "indexed": true,
          "internalType": "address",
          "name": "previousOwner",
          "type": "address"
        },
        {
          "indexed": true,
          "internalType": "address",
          "name": "newOwner",
          "type": "address"
        }
      ],
      "name": "OwnershipTransferred",
      "type": "event"
    },
    {
      "anonymous": false,
      "inputs": [
        {
          "indexed": true,
          "internalType": "address",
          "name": "user",
          "type": "address"
        },
        {
          "indexed": true,
          "internalType": "address",
          "name": "newAddress",
          "type": "address"
        }
      ],
      "name": "SetDevAddress",
      "type": "event"
    },
    {
      "anonymous": false,
      "inputs": [
        {
          "indexed": true,
          "internalType": "address",
          "name": "user",
          "type": "address"
        },
        {
          "indexed": true,
          "internalType": "address",
          "name": "newAddress",
          "type": "address"
        }
      ],
      "name": "SetFeeAddress",
      "type": "event"
    },
    {
      "anonymous": false,
      "inputs": [
        {
          "indexed": true,
          "internalType": "address",
          "name": "user",
          "type": "address"
        },
        {
          "indexed": false,
          "internalType": "uint256",
          "name": "goosePerBlock",
          "type": "uint256"
        }
      ],
      "name": "UpdateEmissionRate",
      "type": "event"
    },
    {
      "anonymous": false,
      "inputs": [
        {
          "indexed": true,
          "internalType": "address",
          "name": "user",
          "type": "address"
        },
        {
          "indexed": false,
          "internalType": "uint256",
          "name": "newFinalBlock",
          "type": "uint256"
        }
      ],
      "name": "UpdateFinalBlock",
      "type": "event"
    },
    {
      "anonymous": false,
      "inputs": [
        {
          "indexed": true,
          "internalType": "address",
          "name": "user",
          "type": "address"
        },
        {
          "indexed": true,
          "internalType": "uint256",
          "name": "pid",
          "type": "uint256"
        },
        {
          "indexed": false,
          "internalType": "uint256",
          "name": "amount",
          "type": "uint256"
        }
      ],
      "name": "Withdraw",
      "type": "event"
    },
    {
      "inputs": [],
      "name": "BONUS_MULTIPLIER",
      "outputs": [
        {
          "internalType": "uint256",
          "name": "",
          "type": "uint256"
        }
      ],
      "stateMutability": "view",
      "type": "function"
    },
    {
      "inputs": [],
      "name": "RUNToken",
      "outputs": [
        {
          "internalType": "contract IERC20",
          "name": "",
          "type": "address"
        }
      ],
      "stateMutability": "view",
      "type": "function"
    },
    {
      "inputs": [],
      "name": "RUNTokenPerBlock",
      "outputs": [
        {
          "internalType": "uint256",
          "name": "",
          "type": "uint256"
        }
      ],
      "stateMutability": "view",
      "type": "function"
    },
    {
      "inputs": [
        {
          "internalType": "uint256",
          "name": "_allocPoint",
          "type": "uint256"
        },
        {
          "internalType": "contract IERC20",
          "name": "_lpToken",
          "type": "address"
        },
        {
          "internalType": "uint16",
          "name": "_depositFeeBP",
          "type": "uint16"
        },
        {
          "internalType": "bool",
          "name": "_withUpdate",
          "type": "bool"
        }
      ],
      "name": "add",
      "outputs": [],
      "stateMutability": "nonpayable",
      "type": "function"
    },
    {
      "inputs": [
        {
          "internalType": "uint256",
          "name": "_pid",
          "type": "uint256"
        },
        {
          "internalType": "uint256",
          "name": "_amount",
          "type": "uint256"
        }
      ],
      "name": "deposit",
      "outputs": [],
      "stateMutability": "nonpayable",
      "type": "function"
    },
    {
      "inputs": [
        {
          "internalType": "address",
          "name": "_devaddr",
          "type": "address"
        }
      ],
      "name": "dev",
      "outputs": [],
      "stateMutability": "nonpayable",
      "type": "function"
    },
    {
      "inputs": [],
      "name": "devaddr",
      "outputs": [
        {
          "internalType": "address",
          "name": "",
          "type": "address"
        }
      ],
      "stateMutability": "view",
      "type": "function"
    },
    {
      "inputs": [
        {
          "internalType": "uint256",
          "name": "_pid",
          "type": "uint256"
        }
      ],
      "name": "emergencyWithdraw",
      "outputs": [],
      "stateMutability": "nonpayable",
      "type": "function"
    },
    {
      "inputs": [],
      "name": "feeAddress",
      "outputs": [
        {
          "internalType": "address",
          "name": "",
          "type": "address"
        }
      ],
      "stateMutability": "view",
      "type": "function"
    },
    {
      "inputs": [],
      "name": "finalRewardBlock",
      "outputs": [
        {
          "internalType": "uint256",
          "name": "",
          "type": "uint256"
        }
      ],
      "stateMutability": "view",
      "type": "function"
    },
    {
      "inputs": [],
      "name": "fundingaddr",
      "outputs": [
        {
          "internalType": "address",
          "name": "",
          "type": "address"
        }
      ],
      "stateMutability": "view",
      "type": "function"
    },
    {
      "inputs": [
        {
          "internalType": "uint256",
          "name": "_from",
          "type": "uint256"
        },
        {
          "internalType": "uint256",
          "name": "_to",
          "type": "uint256"
        },
        {
          "internalType": "uint256",
          "name": "_finalRewardBlock",
          "type": "uint256"
        }
      ],
      "name": "getMultiplier",
      "outputs": [
        {
          "internalType": "uint256",
          "name": "",
          "type": "uint256"
        }
      ],
      "stateMutability": "pure",
      "type": "function"
    },
    {
      "inputs": [
        {
          "internalType": "uint256",
          "name": "_pid",
          "type": "uint256"
        }
      ],
      "name": "harvest",
      "outputs": [],
      "stateMutability": "nonpayable",
      "type": "function"
    },
    {
      "inputs": [],
      "name": "massUpdatePools",
      "outputs": [],
      "stateMutability": "nonpayable",
      "type": "function"
    },
    {
      "inputs": [],
      "name": "owner",
      "outputs": [
        {
          "internalType": "address",
          "name": "",
          "type": "address"
        }
      ],
      "stateMutability": "view",
      "type": "function"
    },
    {
      "inputs": [
        {
          "internalType": "uint256",
          "name": "_pid",
          "type": "uint256"
        },
        {
          "internalType": "address",
          "name": "_user",
          "type": "address"
        }
      ],
      "name": "pendingRUNToken",
      "outputs": [
        {
          "internalType": "uint256",
          "name": "",
          "type": "uint256"
        }
      ],
      "stateMutability": "view",
      "type": "function"
    },
    {
      "inputs": [
        {
          "internalType": "contract IERC20",
          "name": "",
          "type": "address"
        }
      ],
      "name": "poolExistence",
      "outputs": [
        {
          "internalType": "bool",
          "name": "",
          "type": "bool"
        }
      ],
      "stateMutability": "view",
      "type": "function"
    },
    {
      "inputs": [
        {
          "internalType": "uint256",
          "name": "",
          "type": "uint256"
        }
      ],
      "name": "poolInfo",
      "outputs": [
        {
          "internalType": "contract IERC20",
          "name": "lpToken",
          "type": "address"
        },
        {
          "internalType": "uint256",
          "name": "allocPoint",
          "type": "uint256"
        },
        {
          "internalType": "uint256",
          "name": "lastRewardBlock",
          "type": "uint256"
        },
        {
          "internalType": "uint256",
          "name": "accRUNTokenPerShare",
          "type": "uint256"
        },
        {
          "internalType": "uint16",
          "name": "depositFeeBP",
          "type": "uint16"
        }
      ],
      "stateMutability": "view",
      "type": "function"
    },
    {
      "inputs": [],
      "name": "poolLength",
      "outputs": [
        {
          "internalType": "uint256",
          "name": "",
          "type": "uint256"
        }
      ],
      "stateMutability": "view",
      "type": "function"
    },
    {
      "inputs": [],
      "name": "renounceOwnership",
      "outputs": [],
      "stateMutability": "nonpayable",
      "type": "function"
    },
    {
      "inputs": [
        {
          "internalType": "uint256",
          "name": "_pid",
          "type": "uint256"
        },
        {
          "internalType": "uint256",
          "name": "_allocPoint",
          "type": "uint256"
        },
        {
          "internalType": "uint16",
          "name": "_depositFeeBP",
          "type": "uint16"
        },
        {
          "internalType": "bool",
          "name": "_withUpdate",
          "type": "bool"
        }
      ],
      "name": "set",
      "outputs": [],
      "stateMutability": "nonpayable",
      "type": "function"
    },
    {
      "inputs": [
        {
          "internalType": "address",
          "name": "_feeAddress",
          "type": "address"
        }
      ],
      "name": "setFeeAddress",
      "outputs": [],
      "stateMutability": "nonpayable",
      "type": "function"
    },
    {
      "inputs": [],
      "name": "startBlock",
      "outputs": [
        {
          "internalType": "uint256",
          "name": "",
          "type": "uint256"
        }
      ],
      "stateMutability": "view",
      "type": "function"
    },
    {
      "inputs": [],
      "name": "totalAllocPoint",
      "outputs": [
        {
          "internalType": "uint256",
          "name": "",
          "type": "uint256"
        }
      ],
      "stateMutability": "view",
      "type": "function"
    },
    {
      "inputs": [
        {
          "internalType": "address",
          "name": "newOwner",
          "type": "address"
        }
      ],
      "name": "transferOwnership",
      "outputs": [],
      "stateMutability": "nonpayable",
      "type": "function"
    },
    {
      "inputs": [
        {
          "internalType": "uint256",
          "name": "_RUNTokenPerBlock",
          "type": "uint256"
        }
      ],
      "name": "updateEmissionRate",
      "outputs": [],
      "stateMutability": "nonpayable",
      "type": "function"
    },
    {
      "inputs": [
        {
          "internalType": "uint256",
          "name": "_newFinalBlock",
          "type": "uint256"
        }
      ],
      "name": "updateFinalBlockReward",
      "outputs": [],
      "stateMutability": "nonpayable",
      "type": "function"
    },
    {
      "inputs": [
        {
          "internalType": "uint256",
          "name": "_pid",
          "type": "uint256"
        }
      ],
      "name": "updatePool",
      "outputs": [],
      "stateMutability": "nonpayable",
      "type": "function"
    },
    {
      "inputs": [
        {
          "internalType": "uint256",
          "name": "",
          "type": "uint256"
        },
        {
          "internalType": "address",
          "name": "",
          "type": "address"
        }
      ],
      "name": "userInfo",
      "outputs": [
        {
          "internalType": "uint256",
          "name": "amount",
          "type": "uint256"
        },
        {
          "internalType": "uint256",
          "name": "rewardDebt",
          "type": "uint256"
        },
        {
          "internalType": "address",
          "name": "fundedBy",
          "type": "address"
        }
      ],
      "stateMutability": "view",
      "type": "function"
    },
    {
      "inputs": [
        {
          "internalType": "uint256",
          "name": "_pid",
          "type": "uint256"
        },
        {
          "internalType": "uint256",
          "name": "_amount",
          "type": "uint256"
        }
      ],
      "name": "withdraw",
      "outputs": [],
      "stateMutability": "nonpayable",
      "type": "function"
    }
  ],
  "bytecode": "0x608060405260006009553480156200001657600080fd5b5060405162003dea38038062003dea83398181016040528101906200003c91906200029a565b6200005c620000506200018960201b60201c565b6200019160201b60201c565b6001808190555083600460006101000a81548173ffffffffffffffffffffffffffffffffffffffff021916908373ffffffffffffffffffffffffffffffffffffffff16021790555086600260006101000a81548173ffffffffffffffffffffffffffffffffffffffff021916908373ffffffffffffffffffffffffffffffffffffffff16021790555085600360006101000a81548173ffffffffffffffffffffffffffffffffffffffff021916908373ffffffffffffffffffffffffffffffffffffffff16021790555084600660006101000a81548173ffffffffffffffffffffffffffffffffffffffff021916908373ffffffffffffffffffffffffffffffffffffffff16021790555081600a819055508260058190555080600b8190555050505050505050620003f2565b600033905090565b60008060009054906101000a900473ffffffffffffffffffffffffffffffffffffffff169050816000806101000a81548173ffffffffffffffffffffffffffffffffffffffff021916908373ffffffffffffffffffffffffffffffffffffffff1602179055508173ffffffffffffffffffffffffffffffffffffffff168173ffffffffffffffffffffffffffffffffffffffff167f8be0079c531659141344cd1fd0a4f28419497f9722a3daafe3b4186f6b6457e060405160405180910390a35050565b6000815190506200026681620003a4565b92915050565b6000815190506200027d81620003be565b92915050565b6000815190506200029481620003d8565b92915050565b600080600080600080600060e0888a031215620002bc57620002bb6200039f565b5b6000620002cc8a828b016200026c565b9750506020620002df8a828b0162000255565b9650506040620002f28a828b0162000255565b9550506060620003058a828b0162000255565b9450506080620003188a828b0162000283565b93505060a06200032b8a828b0162000283565b92505060c06200033e8a828b0162000283565b91505092959891949750929550565b60006200035a8262000375565b9050919050565b60006200036e826200034d565b9050919050565b600073ffffffffffffffffffffffffffffffffffffffff82169050919050565b6000819050919050565b600080fd5b620003af816200034d565b8114620003bb57600080fd5b50565b620003c98162000361565b8114620003d557600080fd5b50565b620003e38162000395565b8114620003ef57600080fd5b50565b6139e880620004026000396000f3fe608060405234801561001057600080fd5b50600436106101da5760003560e01c80637bafb02911610104578063b7137454116100a2578063d963842211610071578063d963842214610513578063ddc632621461052f578063e2bbb1581461054b578063f2fde38b14610567576101da565b8063b71374541461048b578063c63640cf146104a7578063cbd258b5146104c5578063d49e77cd146104f5576101da565b80638aa28550116100de5780638aa28550146104015780638d88a90e1461041f5780638da5cb5b1461043b57806393f1a40b14610459576101da565b80637bafb0291461039957806384e82a33146103c95780638705fcd4146103e5576101da565b8063491a30f91161017c5780636353858b1161014b5780636353858b146103235780636e021efd14610353578063715018a614610371578063765e003c1461037b576101da565b8063491a30f9146102c357806351eb05a6146102e15780635312ea8e146102fd578063630b5ba114610319576101da565b806317caf6f1116101b857806317caf6f11461024d578063412753581461026b578063441a3e701461028957806348cd4cb1146102a5576101da565b8063081e3eda146101df5780630ba84cd2146101fd5780631526fe2714610219575b600080fd5b6101e7610583565b6040516101f49190613278565b60405180910390f35b61021760048036038101906102129190612a9e565b610590565b005b610233600480360381019061022e9190612a9e565b61066c565b604051610244959493929190613023565b60405180910390f35b6102556106e0565b6040516102629190613278565b60405180910390f35b6102736106e6565b6040516102809190612f72565b60405180910390f35b6102a3600480360381019061029e9190612b9f565b61070c565b005b6102ad610a83565b6040516102ba9190613278565b60405180910390f35b6102cb610a89565b6040516102d89190613278565b60405180910390f35b6102fb60048036038101906102f69190612a9e565b610a8f565b005b61031760048036038101906103129190612a9e565b610c63565b005b610321610df3565b005b61033d60048036038101906103389190612af8565b610e26565b60405161034a9190613278565b60405180910390f35b61035b61106e565b6040516103689190612f72565b60405180910390f35b610379611094565b005b61038361111c565b6040516103909190613008565b60405180910390f35b6103b360048036038101906103ae9190612c46565b611142565b6040516103c09190613278565b60405180910390f35b6103e360048036038101906103de9190612b38565b6111a9565b005b6103ff60048036038101906103fa9190612a17565b61149a565b005b6104096115c8565b6040516104169190613278565b60405180910390f35b61043960048036038101906104349190612a17565b6115cd565b005b6104436116fb565b6040516104509190612f72565b60405180910390f35b610473600480360381019061046e9190612af8565b611724565b60405161048293929190613293565b60405180910390f35b6104a560048036038101906104a09190612a9e565b61177b565b005b6104af61184f565b6040516104bc9190613278565b60405180910390f35b6104df60048036038101906104da9190612a71565b611855565b6040516104ec9190612fed565b60405180910390f35b6104fd611875565b60405161050a9190612f72565b60405180910390f35b61052d60048036038101906105289190612bdf565b61189b565b005b61054960048036038101906105449190612a9e565b611a31565b005b61056560048036038101906105609190612b9f565b611a47565b005b610581600480360381019061057c9190612a17565b611e9e565b005b6000600780549050905090565b610598611f96565b73ffffffffffffffffffffffffffffffffffffffff166105b66116fb565b73ffffffffffffffffffffffffffffffffffffffff161461060c576040517f08c379a000000000000000000000000000000000000000000000000000000000815260040161060390613178565b60405180910390fd5b610614610df3565b806005819055503373ffffffffffffffffffffffffffffffffffffffff167fe2492e003bbe8afa53088b406f0c1cb5d9e280370fc72a74cf116ffd343c4053826040516106619190613278565b60405180910390a250565b6007818154811061067c57600080fd5b90600052602060002090600502016000915090508060000160009054906101000a900473ffffffffffffffffffffffffffffffffffffffff16908060010154908060020154908060030154908060040160009054906101000a900461ffff16905085565b60095481565b600660009054906101000a900473ffffffffffffffffffffffffffffffffffffffff1681565b60026001541415610752576040517f08c379a000000000000000000000000000000000000000000000000000000000815260040161074990613258565b60405180910390fd5b60026001819055506000600783815481106107705761076f613589565b5b9060005260206000209060050201905060006008600085815260200190815260200160002060003373ffffffffffffffffffffffffffffffffffffffff1673ffffffffffffffffffffffffffffffffffffffff1681526020019081526020016000209050828160000154101561081b576040517f08c379a0000000000000000000000000000000000000000000000000000000008152600401610812906131d8565b60405180910390fd5b3373ffffffffffffffffffffffffffffffffffffffff168160020160009054906101000a900473ffffffffffffffffffffffffffffffffffffffff1673ffffffffffffffffffffffffffffffffffffffff16146108ad576040517f08c379a00000000000000000000000000000000000000000000000000000000081526004016108a4906130f8565b60405180910390fd5b6108b684610a8f565b6108c03385611f9e565b600083111561099b576108e083826000015461229490919063ffffffff16565b81600001819055508160000160009054906101000a900473ffffffffffffffffffffffffffffffffffffffff1673ffffffffffffffffffffffffffffffffffffffff1663a9059cbb33856040518363ffffffff1660e01b8152600401610947929190612fc4565b602060405180830381600087803b15801561096157600080fd5b505af1158015610975573d6000803e3d6000fd5b505050506040513d601f19601f820116820180604052508101906109999190612a44565b505b6109cd64e8d4a510006109bf846003015484600001546122aa90919063ffffffff16565b6122c090919063ffffffff16565b8160010181905550600081600001541415610a275760008160020160006101000a81548173ffffffffffffffffffffffffffffffffffffffff021916908373ffffffffffffffffffffffffffffffffffffffff1602179055505b833373ffffffffffffffffffffffffffffffffffffffff167ff279e6a1f5e320cca91135676d9cb6e44ca8a08c0b88342bcdb1144f6511b56885604051610a6e9190613278565b60405180910390a35050600180819055505050565b600a5481565b600b5481565b600060078281548110610aa557610aa4613589565b5b90600052602060002090600502019050806002015443111580610ace57508060020154600b5411155b15610ad95750610c60565b60008160000160009054906101000a900473ffffffffffffffffffffffffffffffffffffffff1673ffffffffffffffffffffffffffffffffffffffff166370a08231306040518263ffffffff1660e01b8152600401610b389190612f72565b60206040518083038186803b158015610b5057600080fd5b505afa158015610b64573d6000803e3d6000fd5b505050506040513d601f19601f82011682018060405250810190610b889190612acb565b90506000811480610b9d575060008260010154145b15610bb2574382600201819055505050610c60565b6000610bc5836002015443600b54611142565b90506000610c08600954610bfa8660010154610bec600554876122aa90919063ffffffff16565b6122aa90919063ffffffff16565b6122c090919063ffffffff16565b9050610c4a610c3784610c2964e8d4a51000856122aa90919063ffffffff16565b6122c090919063ffffffff16565b85600301546122d690919063ffffffff16565b8460030181905550438460020181905550505050505b50565b60026001541415610ca9576040517f08c379a0000000000000000000000000000000000000000000000000000000008152600401610ca090613258565b60405180910390fd5b6002600181905550600060078281548110610cc757610cc6613589565b5b9060005260206000209060050201905060006008600084815260200190815260200160002060003373ffffffffffffffffffffffffffffffffffffffff1673ffffffffffffffffffffffffffffffffffffffff16815260200190815260200160002090506000816000015490506000826000018190555060008260010181905550610d9733828560000160009054906101000a900473ffffffffffffffffffffffffffffffffffffffff1673ffffffffffffffffffffffffffffffffffffffff166122ec9092919063ffffffff16565b833373ffffffffffffffffffffffffffffffffffffffff167fbb757047c2b5f3974fe26b7c10f732e7bce710b0952a71082702781e62ae059583604051610dde9190613278565b60405180910390a35050506001808190555050565b6000600780549050905060005b81811015610e2257610e1181610a8f565b80610e1b906134e2565b9050610e00565b5050565b60008060078481548110610e3d57610e3c613589565b5b9060005260206000209060050201905060006008600086815260200190815260200160002060008573ffffffffffffffffffffffffffffffffffffffff1673ffffffffffffffffffffffffffffffffffffffff168152602001908152602001600020905060008260030154905060008360000160009054906101000a900473ffffffffffffffffffffffffffffffffffffffff1673ffffffffffffffffffffffffffffffffffffffff166370a08231306040518263ffffffff1660e01b8152600401610f099190612f72565b60206040518083038186803b158015610f2157600080fd5b505afa158015610f35573d6000803e3d6000fd5b505050506040513d601f19601f82011682018060405250810190610f599190612acb565b9050836002015443118015610f7357508360020154600b54115b8015610f80575060008114155b1561101e576000610f98856002015443600b54611142565b90506000610fdb600954610fcd8860010154610fbf600554876122aa90919063ffffffff16565b6122aa90919063ffffffff16565b6122c090919063ffffffff16565b905061101961100a84610ffc64e8d4a51000856122aa90919063ffffffff16565b6122c090919063ffffffff16565b856122d690919063ffffffff16565b935050505b611062836001015461105464e8d4a510006110468688600001546122aa90919063ffffffff16565b6122c090919063ffffffff16565b61229490919063ffffffff16565b94505050505092915050565b600460009054906101000a900473ffffffffffffffffffffffffffffffffffffffff1681565b61109c611f96565b73ffffffffffffffffffffffffffffffffffffffff166110ba6116fb565b73ffffffffffffffffffffffffffffffffffffffff1614611110576040517f08c379a000000000000000000000000000000000000000000000000000000000815260040161110790613178565b60405180910390fd5b61111a6000612372565b565b600260009054906101000a900473ffffffffffffffffffffffffffffffffffffffff1681565b600081831115611179576111726001611164868561229490919063ffffffff16565b6122aa90919063ffffffff16565b90506111a2565b61119f6001611191868661229490919063ffffffff16565b6122aa90919063ffffffff16565b90505b9392505050565b6111b1611f96565b73ffffffffffffffffffffffffffffffffffffffff166111cf6116fb565b73ffffffffffffffffffffffffffffffffffffffff1614611225576040517f08c379a000000000000000000000000000000000000000000000000000000000815260040161121c90613178565b60405180910390fd5b8260001515600c60008373ffffffffffffffffffffffffffffffffffffffff1673ffffffffffffffffffffffffffffffffffffffff16815260200190815260200160002060009054906101000a900460ff161515146112b9576040517f08c379a00000000000000000000000000000000000000000000000000000000081526004016112b0906131f8565b60405180910390fd5b6127108361ffff161115611302576040517f08c379a00000000000000000000000000000000000000000000000000000000081526004016112f9906130b8565b60405180910390fd5b811561131157611310610df3565b5b6000600a54431161132457600a54611326565b435b905061133d866009546122d690919063ffffffff16565b6009819055506001600c60008773ffffffffffffffffffffffffffffffffffffffff1673ffffffffffffffffffffffffffffffffffffffff16815260200190815260200160002060006101000a81548160ff02191690831515021790555060076040518060a001604052808773ffffffffffffffffffffffffffffffffffffffff168152602001888152602001838152602001600081526020018661ffff16815250908060018154018082558091505060019003906000526020600020906005020160009091909190915060008201518160000160006101000a81548173ffffffffffffffffffffffffffffffffffffffff021916908373ffffffffffffffffffffffffffffffffffffffff16021790555060208201518160010155604082015181600201556060820151816003015560808201518160040160006101000a81548161ffff021916908361ffff1602179055505050505050505050565b600660009054906101000a900473ffffffffffffffffffffffffffffffffffffffff1673ffffffffffffffffffffffffffffffffffffffff163373ffffffffffffffffffffffffffffffffffffffff161461152a576040517f08c379a000000000000000000000000000000000000000000000000000000000815260040161152190613218565b60405180910390fd5b80600660006101000a81548173ffffffffffffffffffffffffffffffffffffffff021916908373ffffffffffffffffffffffffffffffffffffffff1602179055508073ffffffffffffffffffffffffffffffffffffffff163373ffffffffffffffffffffffffffffffffffffffff167fd44190acf9d04bdb5d3a1aafff7e6dee8b40b93dfb8c5d3f0eea4b9f4539c3f760405160405180910390a350565b600181565b600360009054906101000a900473ffffffffffffffffffffffffffffffffffffffff1673ffffffffffffffffffffffffffffffffffffffff163373ffffffffffffffffffffffffffffffffffffffff161461165d576040517f08c379a000000000000000000000000000000000000000000000000000000000815260040161165490613138565b60405180910390fd5b80600360006101000a81548173ffffffffffffffffffffffffffffffffffffffff021916908373ffffffffffffffffffffffffffffffffffffffff1602179055508073ffffffffffffffffffffffffffffffffffffffff163373ffffffffffffffffffffffffffffffffffffffff167f618c54559e94f1499a808aad71ee8729f8e74e8c48e979616328ce493a1a52e760405160405180910390a350565b60008060009054906101000a900473ffffffffffffffffffffffffffffffffffffffff16905090565b6008602052816000526040600020602052806000526040600020600091509150508060000154908060010154908060020160009054906101000a900473ffffffffffffffffffffffffffffffffffffffff16905083565b611783611f96565b73ffffffffffffffffffffffffffffffffffffffff166117a16116fb565b73ffffffffffffffffffffffffffffffffffffffff16146117f7576040517f08c379a00000000000000000000000000000000000000000000000000000000081526004016117ee90613178565b60405180910390fd5b80600b819055503373ffffffffffffffffffffffffffffffffffffffff167fe2492e003bbe8afa53088b406f0c1cb5d9e280370fc72a74cf116ffd343c4053826040516118449190613278565b60405180910390a250565b60055481565b600c6020528060005260406000206000915054906101000a900460ff1681565b600360009054906101000a900473ffffffffffffffffffffffffffffffffffffffff1681565b6118a3611f96565b73ffffffffffffffffffffffffffffffffffffffff166118c16116fb565b73ffffffffffffffffffffffffffffffffffffffff1614611917576040517f08c379a000000000000000000000000000000000000000000000000000000000815260040161190e90613178565b60405180910390fd5b6127108261ffff161115611960576040517f08c379a000000000000000000000000000000000000000000000000000000000815260040161195790613158565b60405180910390fd5b801561196f5761196e610df3565b5b6119bb836119ad6007878154811061198a57611989613589565b5b90600052602060002090600502016001015460095461229490919063ffffffff16565b6122d690919063ffffffff16565b60098190555082600785815481106119d6576119d5613589565b5b9060005260206000209060050201600101819055508160078581548110611a00576119ff613589565b5b906000526020600020906005020160040160006101000a81548161ffff021916908361ffff16021790555050505050565b611a3a81610a8f565b611a443382611f9e565b50565b60026001541415611a8d576040517f08c379a0000000000000000000000000000000000000000000000000000000008152600401611a8490613258565b60405180910390fd5b6002600181905550600060078381548110611aab57611aaa613589565b5b9060005260206000209060050201905060006008600085815260200190815260200160002060003373ffffffffffffffffffffffffffffffffffffffff1673ffffffffffffffffffffffffffffffffffffffff1681526020019081526020016000209050611b1884610a8f565b611b223385611f9e565b6000831115611e08578160000160009054906101000a900473ffffffffffffffffffffffffffffffffffffffff1673ffffffffffffffffffffffffffffffffffffffff166323b872dd3330866040518463ffffffff1660e01b8152600401611b8c93929190612f8d565b602060405180830381600087803b158015611ba657600080fd5b505af1158015611bba573d6000803e3d6000fd5b505050506040513d601f19601f82011682018060405250810190611bde9190612a44565b5060008260040160009054906101000a900461ffff1661ffff161115611d4a576000611c3d612710611c2f8560040160009054906101000a900461ffff1661ffff16876122aa90919063ffffffff16565b6122c090919063ffffffff16565b90508260000160009054906101000a900473ffffffffffffffffffffffffffffffffffffffff1673ffffffffffffffffffffffffffffffffffffffff1663a9059cbb600660009054906101000a900473ffffffffffffffffffffffffffffffffffffffff16836040518363ffffffff1660e01b8152600401611cc0929190612fc4565b602060405180830381600087803b158015611cda57600080fd5b505af1158015611cee573d6000803e3d6000fd5b505050506040513d601f19601f82011682018060405250810190611d129190612a44565b50611d3c81611d2e8685600001546122d690919063ffffffff16565b61229490919063ffffffff16565b826000018190555050611d6a565b611d618382600001546122d690919063ffffffff16565b81600001819055505b600073ffffffffffffffffffffffffffffffffffffffff168160020160009054906101000a900473ffffffffffffffffffffffffffffffffffffffff1673ffffffffffffffffffffffffffffffffffffffff161415611e0757338160020160006101000a81548173ffffffffffffffffffffffffffffffffffffffff021916908373ffffffffffffffffffffffffffffffffffffffff1602179055505b5b611e3a64e8d4a51000611e2c846003015484600001546122aa90919063ffffffff16565b6122c090919063ffffffff16565b8160010181905550833373ffffffffffffffffffffffffffffffffffffffff167f90890809c654f11d6e72a28fa60149770a0d11ec6c92319d6ceb2bb0a4ea1a1585604051611e899190613278565b60405180910390a35050600180819055505050565b611ea6611f96565b73ffffffffffffffffffffffffffffffffffffffff16611ec46116fb565b73ffffffffffffffffffffffffffffffffffffffff1614611f1a576040517f08c379a0000000000000000000000000000000000000000000000000000000008152600401611f1190613178565b60405180910390fd5b600073ffffffffffffffffffffffffffffffffffffffff168173ffffffffffffffffffffffffffffffffffffffff161415611f8a576040517f08c379a0000000000000000000000000000000000000000000000000000000008152600401611f81906130d8565b60405180910390fd5b611f9381612372565b50565b600033905090565b600060078281548110611fb457611fb3613589565b5b90600052602060002090600502016040518060a00160405290816000820160009054906101000a900473ffffffffffffffffffffffffffffffffffffffff1673ffffffffffffffffffffffffffffffffffffffff1673ffffffffffffffffffffffffffffffffffffffff1681526020016001820154815260200160028201548152602001600382015481526020016004820160009054906101000a900461ffff1661ffff1661ffff1681525050905060006008600084815260200190815260200160002060008573ffffffffffffffffffffffffffffffffffffffff1673ffffffffffffffffffffffffffffffffffffffff168152602001908152602001600020905060006120eb64e8d4a510006120dd856060015185600001546122aa90919063ffffffff16565b6122c090919063ffffffff16565b9050600061210683600101548361229490919063ffffffff16565b9050600081141561211a5750505050612290565b600260009054906101000a900473ffffffffffffffffffffffffffffffffffffffff1673ffffffffffffffffffffffffffffffffffffffff166370a08231600460009054906101000a900473ffffffffffffffffffffffffffffffffffffffff166040518263ffffffff1660e01b81526004016121979190612f72565b60206040518083038186803b1580156121af57600080fd5b505afa1580156121c3573d6000803e3d6000fd5b505050506040513d601f19601f820116820180604052508101906121e79190612acb565b811115612229576040517f08c379a000000000000000000000000000000000000000000000000000000000815260040161222090613098565b60405180910390fd5b81836001018190555061223c8682612436565b843373ffffffffffffffffffffffffffffffffffffffff167f71bab65ced2e5750775a0613be067df48ef06cf92a496ebf7663ae0660924954836040516122839190613278565b60405180910390a3505050505b5050565b600081836122a291906133dd565b905092915050565b600081836122b89190613383565b905092915050565b600081836122ce9190613352565b905092915050565b600081836122e491906132fc565b905092915050565b61236d8363a9059cbb60e01b848460405160240161230b929190612fc4565b604051602081830303815290604052907bffffffffffffffffffffffffffffffffffffffffffffffffffffffff19166020820180517bffffffffffffffffffffffffffffffffffffffffffffffffffffffff8381831617835250505050612707565b505050565b60008060009054906101000a900473ffffffffffffffffffffffffffffffffffffffff169050816000806101000a81548173ffffffffffffffffffffffffffffffffffffffff021916908373ffffffffffffffffffffffffffffffffffffffff1602179055508173ffffffffffffffffffffffffffffffffffffffff168173ffffffffffffffffffffffffffffffffffffffff167f8be0079c531659141344cd1fd0a4f28419497f9722a3daafe3b4186f6b6457e060405160405180910390a35050565b6000600260009054906101000a900473ffffffffffffffffffffffffffffffffffffffff1673ffffffffffffffffffffffffffffffffffffffff166370a08231600460009054906101000a900473ffffffffffffffffffffffffffffffffffffffff166040518263ffffffff1660e01b81526004016124b59190612f72565b60206040518083038186803b1580156124cd57600080fd5b505afa1580156124e1573d6000803e3d6000fd5b505050506040513d601f19601f820116820180604052508101906125059190612acb565b90506000818311156125eb57600260009054906101000a900473ffffffffffffffffffffffffffffffffffffffff1673ffffffffffffffffffffffffffffffffffffffff166323b872dd600460009054906101000a900473ffffffffffffffffffffffffffffffffffffffff1686856040518463ffffffff1660e01b815260040161259293929190612f8d565b602060405180830381600087803b1580156125ac57600080fd5b505af11580156125c0573d6000803e3d6000fd5b505050506040513d601f19601f820116820180604052508101906125e49190612a44565b90506126c1565b600260009054906101000a900473ffffffffffffffffffffffffffffffffffffffff1673ffffffffffffffffffffffffffffffffffffffff166323b872dd600460009054906101000a900473ffffffffffffffffffffffffffffffffffffffff1686866040518463ffffffff1660e01b815260040161266c93929190612f8d565b602060405180830381600087803b15801561268657600080fd5b505af115801561269a573d6000803e3d6000fd5b505050506040513d601f19601f820116820180604052508101906126be9190612a44565b90505b80612701576040517f08c379a00000000000000000000000000000000000000000000000000000000081526004016126f890613198565b60405180910390fd5b50505050565b6000612769826040518060400160405280602081526020017f5361666545524332303a206c6f772d6c6576656c2063616c6c206661696c65648152508573ffffffffffffffffffffffffffffffffffffffff166127ce9092919063ffffffff16565b90506000815111156127c957808060200190518101906127899190612a44565b6127c8576040517f08c379a00000000000000000000000000000000000000000000000000000000081526004016127bf90613238565b60405180910390fd5b5b505050565b60606127dd84846000856127e6565b90509392505050565b60608247101561282b576040517f08c379a000000000000000000000000000000000000000000000000000000000815260040161282290613118565b60405180910390fd5b612834856128fa565b612873576040517f08c379a000000000000000000000000000000000000000000000000000000000815260040161286a906131b8565b60405180910390fd5b6000808673ffffffffffffffffffffffffffffffffffffffff16858760405161289c9190612f5b565b60006040518083038185875af1925050503d80600081146128d9576040519150601f19603f3d011682016040523d82523d6000602084013e6128de565b606091505b50915091506128ee82828661291d565b92505050949350505050565b6000808273ffffffffffffffffffffffffffffffffffffffff163b119050919050565b6060831561292d5782905061297d565b6000835111156129405782518084602001fd5b816040517f08c379a00000000000000000000000000000000000000000000000000000000081526004016129749190613076565b60405180910390fd5b9392505050565b6000813590506129938161393f565b92915050565b6000813590506129a881613956565b92915050565b6000815190506129bd81613956565b92915050565b6000813590506129d28161396d565b92915050565b6000813590506129e781613984565b92915050565b6000813590506129fc8161399b565b92915050565b600081519050612a118161399b565b92915050565b600060208284031215612a2d57612a2c6135b8565b5b6000612a3b84828501612984565b91505092915050565b600060208284031215612a5a57612a596135b8565b5b6000612a68848285016129ae565b91505092915050565b600060208284031215612a8757612a866135b8565b5b6000612a95848285016129c3565b91505092915050565b600060208284031215612ab457612ab36135b8565b5b6000612ac2848285016129ed565b91505092915050565b600060208284031215612ae157612ae06135b8565b5b6000612aef84828501612a02565b91505092915050565b60008060408385031215612b0f57612b0e6135b8565b5b6000612b1d858286016129ed565b9250506020612b2e85828601612984565b9150509250929050565b60008060008060808587031215612b5257612b516135b8565b5b6000612b60878288016129ed565b9450506020612b71878288016129c3565b9350506040612b82878288016129d8565b9250506060612b9387828801612999565b91505092959194509250565b60008060408385031215612bb657612bb56135b8565b5b6000612bc4858286016129ed565b9250506020612bd5858286016129ed565b9150509250929050565b60008060008060808587031215612bf957612bf86135b8565b5b6000612c07878288016129ed565b9450506020612c18878288016129ed565b9350506040612c29878288016129d8565b9250506060612c3a87828801612999565b91505092959194509250565b600080600060608486031215612c5f57612c5e6135b8565b5b6000612c6d868287016129ed565b9350506020612c7e868287016129ed565b9250506040612c8f868287016129ed565b9150509250925092565b612ca281613411565b82525050565b612cb181613423565b82525050565b6000612cc2826132ca565b612ccc81856132e0565b9350612cdc8185602086016134af565b80840191505092915050565b612cf181613479565b82525050565b6000612d02826132d5565b612d0c81856132eb565b9350612d1c8185602086016134af565b612d25816135bd565b840191505092915050565b6000612d3d6030836132eb565b9150612d48826135ce565b604082019050919050565b6000612d606025836132eb565b9150612d6b8261361d565b604082019050919050565b6000612d836026836132eb565b9150612d8e8261366c565b604082019050919050565b6000612da66016836132eb565b9150612db1826136bb565b602082019050919050565b6000612dc96026836132eb565b9150612dd4826136e4565b604082019050919050565b6000612dec6009836132eb565b9150612df782613733565b602082019050919050565b6000612e0f6025836132eb565b9150612e1a8261375c565b604082019050919050565b6000612e326020836132eb565b9150612e3d826137ab565b602082019050919050565b6000612e556025836132eb565b9150612e60826137d4565b604082019050919050565b6000612e78601d836132eb565b9150612e8382613823565b602082019050919050565b6000612e9b6012836132eb565b9150612ea68261384c565b602082019050919050565b6000612ebe6019836132eb565b9150612ec982613875565b602082019050919050565b6000612ee16018836132eb565b9150612eec8261389e565b602082019050919050565b6000612f04602a836132eb565b9150612f0f826138c7565b604082019050919050565b6000612f27601f836132eb565b9150612f3282613916565b602082019050919050565b612f4681613441565b82525050565b612f558161346f565b82525050565b6000612f678284612cb7565b915081905092915050565b6000602082019050612f876000830184612c99565b92915050565b6000606082019050612fa26000830186612c99565b612faf6020830185612c99565b612fbc6040830184612f4c565b949350505050565b6000604082019050612fd96000830185612c99565b612fe66020830184612f4c565b9392505050565b60006020820190506130026000830184612ca8565b92915050565b600060208201905061301d6000830184612ce8565b92915050565b600060a0820190506130386000830188612ce8565b6130456020830187612f4c565b6130526040830186612f4c565b61305f6060830185612f4c565b61306c6080830184612f3d565b9695505050505050565b600060208201905081810360008301526130908184612cf7565b905092915050565b600060208201905081810360008301526130b181612d30565b9050919050565b600060208201905081810360008301526130d181612d53565b9050919050565b600060208201905081810360008301526130f181612d76565b9050919050565b6000602082019050818103600083015261311181612d99565b9050919050565b6000602082019050818103600083015261313181612dbc565b9050919050565b6000602082019050818103600083015261315181612ddf565b9050919050565b6000602082019050818103600083015261317181612e02565b9050919050565b6000602082019050818103600083015261319181612e25565b9050919050565b600060208201905081810360008301526131b181612e48565b9050919050565b600060208201905081810360008301526131d181612e6b565b9050919050565b600060208201905081810360008301526131f181612e8e565b9050919050565b6000602082019050818103600083015261321181612eb1565b9050919050565b6000602082019050818103600083015261323181612ed4565b9050919050565b6000602082019050818103600083015261325181612ef7565b9050919050565b6000602082019050818103600083015261327181612f1a565b9050919050565b600060208201905061328d6000830184612f4c565b92915050565b60006060820190506132a86000830186612f4c565b6132b56020830185612f4c565b6132c26040830184612c99565b949350505050565b600081519050919050565b600081519050919050565b600081905092915050565b600082825260208201905092915050565b60006133078261346f565b91506133128361346f565b9250827fffffffffffffffffffffffffffffffffffffffffffffffffffffffffffffffff038211156133475761334661352b565b5b828201905092915050565b600061335d8261346f565b91506133688361346f565b9250826133785761337761355a565b5b828204905092915050565b600061338e8261346f565b91506133998361346f565b9250817fffffffffffffffffffffffffffffffffffffffffffffffffffffffffffffffff04831182151516156133d2576133d161352b565b5b828202905092915050565b60006133e88261346f565b91506133f38361346f565b9250828210156134065761340561352b565b5b828203905092915050565b600061341c8261344f565b9050919050565b60008115159050919050565b600061343a82613411565b9050919050565b600061ffff82169050919050565b600073ffffffffffffffffffffffffffffffffffffffff82169050919050565b6000819050919050565b60006134848261348b565b9050919050565b60006134968261349d565b9050919050565b60006134a88261344f565b9050919050565b60005b838110156134cd5780820151818401526020810190506134b2565b838111156134dc576000848401525b50505050565b60006134ed8261346f565b91507fffffffffffffffffffffffffffffffffffffffffffffffffffffffffffffffff8214156135205761351f61352b565b5b600182019050919050565b7f4e487b7100000000000000000000000000000000000000000000000000000000600052601160045260246000fd5b7f4e487b7100000000000000000000000000000000000000000000000000000000600052601260045260246000fd5b7f4e487b7100000000000000000000000000000000000000000000000000000000600052603260045260246000fd5b600080fd5b6000601f19601f8301169050919050565b7f4368656652554e546f6b656e3a3a5f686172766573743a3a20777466206e6f7460008201527f20656e6f7567682052554e546f6b656e00000000000000000000000000000000602082015250565b7f6164643a20696e76616c6964206465706f73697420666565206261736973207060008201527f6f696e7473000000000000000000000000000000000000000000000000000000602082015250565b7f4f776e61626c653a206e6577206f776e657220697320746865207a65726f206160008201527f6464726573730000000000000000000000000000000000000000000000000000602082015250565b7f77697468647261773a3a206f6e6c792066756e64657200000000000000000000600082015250565b7f416464726573733a20696e73756666696369656e742062616c616e636520666f60008201527f722063616c6c0000000000000000000000000000000000000000000000000000602082015250565b7f6465763a207775743f0000000000000000000000000000000000000000000000600082015250565b7f7365743a20696e76616c6964206465706f73697420666565206261736973207060008201527f6f696e7473000000000000000000000000000000000000000000000000000000602082015250565b7f4f776e61626c653a2063616c6c6572206973206e6f7420746865206f776e6572600082015250565b7f7361666552554e546f6b656e5472616e736665723a207472616e73666572206660008201527f61696c6564000000000000000000000000000000000000000000000000000000602082015250565b7f416464726573733a2063616c6c20746f206e6f6e2d636f6e7472616374000000600082015250565b7f77697468647261773a206e6f7420676f6f640000000000000000000000000000600082015250565b7f6e6f6e4475706c6963617465643a206475706c69636174656400000000000000600082015250565b7f736574466565416464726573733a20464f5242494444454e0000000000000000600082015250565b7f5361666545524332303a204552433230206f7065726174696f6e20646964206e60008201527f6f74207375636365656400000000000000000000000000000000000000000000602082015250565b7f5265656e7472616e637947756172643a207265656e7472616e742063616c6c00600082015250565b61394881613411565b811461395357600080fd5b50565b61395f81613423565b811461396a57600080fd5b50565b6139768161342f565b811461398157600080fd5b50565b61398d81613441565b811461399857600080fd5b50565b6139a48161346f565b81146139af57600080fd5b5056fea2646970667358221220e748f413c993b8f57a0f0d17f684baa2e0810fe66e30f546df286496cead4ddb64736f6c63430008070033",
  "linkReferences": {},
  "deployedLinkReferences": {}
}