{
  "_format": "hh-sol-artifact-1",
  "contractName": "BamiIDO2",
  "sourceName": "contracts/BamixHesmanPool2.sol",
  "abi": [
    {
      "inputs": [
        {
          "internalType": "address",
          "name": "_devWallet",
          "type": "address"
        },
        {
          "internalType": "address",
          "name": "_idoOwner",
          "type": "address"
        },
        {
          "internalType": "address",
          "name": "_hesmanToken",
          "type": "address"
        },
        {
          "internalType": "address",
          "name": "_bamiToken",
          "type": "address"
        },
        {
          "internalType": "address",
          "name": "_paymentToken",
          "type": "address"
        }
      ],
      "stateMutability": "nonpayable",
      "type": "constructor"
    },
    {
      "anonymous": false,
      "inputs": [
        {
          "indexed": false,
          "internalType": "address",
          "name": "user",
          "type": "address"
        },
        {
          "indexed": false,
          "internalType": "uint256",
          "name": "amount",
          "type": "uint256"
        },
        {
          "indexed": false,
          "internalType": "uint256",
          "name": "time",
          "type": "uint256"
        }
      ],
      "name": "EventUserBuy",
      "type": "event"
    },
    {
      "anonymous": false,
      "inputs": [
        {
          "indexed": false,
          "internalType": "address",
          "name": "user",
          "type": "address"
        },
        {
          "indexed": false,
          "internalType": "uint256",
          "name": "amount",
          "type": "uint256"
        },
        {
          "indexed": false,
          "internalType": "uint256",
          "name": "time",
          "type": "uint256"
        }
      ],
      "name": "EventUserClaim",
      "type": "event"
    },
    {
      "anonymous": false,
      "inputs": [
        {
          "indexed": false,
          "internalType": "address",
          "name": "user",
          "type": "address"
        },
        {
          "indexed": false,
          "internalType": "uint256",
          "name": "amount",
          "type": "uint256"
        },
        {
          "indexed": false,
          "internalType": "uint256",
          "name": "time",
          "type": "uint256"
        }
      ],
      "name": "EventUserStake",
      "type": "event"
    },
    {
      "anonymous": false,
      "inputs": [
        {
          "indexed": false,
          "internalType": "address",
          "name": "user",
          "type": "address"
        },
        {
          "indexed": false,
          "internalType": "uint256",
          "name": "amount",
          "type": "uint256"
        },
        {
          "indexed": false,
          "internalType": "uint256",
          "name": "time",
          "type": "uint256"
        }
      ],
      "name": "EventUserUnstake",
      "type": "event"
    },
    {
      "anonymous": false,
      "inputs": [
        {
          "indexed": true,
          "internalType": "address",
          "name": "previousOwner",
          "type": "address"
        },
        {
          "indexed": true,
          "internalType": "address",
          "name": "newOwner",
          "type": "address"
        }
      ],
      "name": "OwnershipTransferred",
      "type": "event"
    },
    {
      "inputs": [],
      "name": "bamiToken",
      "outputs": [
        {
          "internalType": "contract ERC20",
          "name": "",
          "type": "address"
        }
      ],
      "stateMutability": "view",
      "type": "function"
    },
    {
      "inputs": [
        {
          "internalType": "address",
          "name": "",
          "type": "address"
        }
      ],
      "name": "blacklistMap",
      "outputs": [
        {
          "internalType": "bool",
          "name": "",
          "type": "bool"
        }
      ],
      "stateMutability": "view",
      "type": "function"
    },
    {
      "inputs": [],
      "name": "buyIdo",
      "outputs": [],
      "stateMutability": "nonpayable",
      "type": "function"
    },
    {
      "inputs": [],
      "name": "claimIdo",
      "outputs": [],
      "stateMutability": "nonpayable",
      "type": "function"
    },
    {
      "inputs": [],
      "name": "devWallet",
      "outputs": [
        {
          "internalType": "address",
          "name": "",
          "type": "address"
        }
      ],
      "stateMutability": "view",
      "type": "function"
    },
    {
      "inputs": [],
      "name": "endBuyTime",
      "outputs": [
        {
          "internalType": "uint256",
          "name": "",
          "type": "uint256"
        }
      ],
      "stateMutability": "view",
      "type": "function"
    },
    {
      "inputs": [],
      "name": "endClaimTime",
      "outputs": [
        {
          "internalType": "uint256",
          "name": "",
          "type": "uint256"
        }
      ],
      "stateMutability": "view",
      "type": "function"
    },
    {
      "inputs": [],
      "name": "endStakeTime",
      "outputs": [
        {
          "internalType": "uint256",
          "name": "",
          "type": "uint256"
        }
      ],
      "stateMutability": "view",
      "type": "function"
    },
    {
      "inputs": [],
      "name": "feeBamiAmount",
      "outputs": [
        {
          "internalType": "uint256",
          "name": "",
          "type": "uint256"
        }
      ],
      "stateMutability": "view",
      "type": "function"
    },
    {
      "inputs": [],
      "name": "hesmanToken",
      "outputs": [
        {
          "internalType": "contract ERC20",
          "name": "",
          "type": "address"
        }
      ],
      "stateMutability": "view",
      "type": "function"
    },
    {
      "inputs": [],
      "name": "idoOwner",
      "outputs": [
        {
          "internalType": "address",
          "name": "",
          "type": "address"
        }
      ],
      "stateMutability": "view",
      "type": "function"
    },
    {
      "inputs": [],
      "name": "isPause",
      "outputs": [
        {
          "internalType": "bool",
          "name": "",
          "type": "bool"
        }
      ],
      "stateMutability": "view",
      "type": "function"
    },
    {
      "inputs": [],
      "name": "nextStageIndex",
      "outputs": [
        {
          "internalType": "uint256",
          "name": "",
          "type": "uint256"
        }
      ],
      "stateMutability": "view",
      "type": "function"
    },
    {
      "inputs": [],
      "name": "owner",
      "outputs": [
        {
          "internalType": "address",
          "name": "",
          "type": "address"
        }
      ],
      "stateMutability": "view",
      "type": "function"
    },
    {
      "inputs": [
        {
          "internalType": "address",
          "name": "",
          "type": "address"
        }
      ],
      "name": "paidIdoMap",
      "outputs": [
        {
          "internalType": "bool",
          "name": "",
          "type": "bool"
        }
      ],
      "stateMutability": "view",
      "type": "function"
    },
    {
      "inputs": [],
      "name": "payAmountPerSlot",
      "outputs": [
        {
          "internalType": "uint256",
          "name": "",
          "type": "uint256"
        }
      ],
      "stateMutability": "view",
      "type": "function"
    },
    {
      "inputs": [],
      "name": "paymentToken",
      "outputs": [
        {
          "internalType": "contract ERC20",
          "name": "",
          "type": "address"
        }
      ],
      "stateMutability": "view",
      "type": "function"
    },
    {
      "inputs": [
        {
          "internalType": "address[]",
          "name": "userList",
          "type": "address[]"
        }
      ],
      "name": "removeBlackList",
      "outputs": [],
      "stateMutability": "nonpayable",
      "type": "function"
    },
    {
      "inputs": [],
      "name": "renounceOwnership",
      "outputs": [],
      "stateMutability": "nonpayable",
      "type": "function"
    },
    {
      "inputs": [],
      "name": "requireStakingToken",
      "outputs": [
        {
          "internalType": "uint256",
          "name": "",
          "type": "uint256"
        }
      ],
      "stateMutability": "view",
      "type": "function"
    },
    {
      "inputs": [
        {
          "internalType": "address[]",
          "name": "userList",
          "type": "address[]"
        }
      ],
      "name": "setBlackList",
      "outputs": [],
      "stateMutability": "nonpayable",
      "type": "function"
    },
    {
      "inputs": [
        {
          "internalType": "uint256",
          "name": "_startBuyTime",
          "type": "uint256"
        },
        {
          "internalType": "uint256",
          "name": "_endBuyTime",
          "type": "uint256"
        }
      ],
      "name": "setBuyTime",
      "outputs": [],
      "stateMutability": "nonpayable",
      "type": "function"
    },
    {
      "inputs": [
        {
          "internalType": "uint256[]",
          "name": "_startTimeList",
          "type": "uint256[]"
        },
        {
          "internalType": "uint256[]",
          "name": "_percentList",
          "type": "uint256[]"
        }
      ],
      "name": "setClaimTime",
      "outputs": [],
      "stateMutability": "nonpayable",
      "type": "function"
    },
    {
      "inputs": [
        {
          "internalType": "address",
          "name": "_devWallet",
          "type": "address"
        }
      ],
      "name": "setDevWallet",
      "outputs": [],
      "stateMutability": "nonpayable",
      "type": "function"
    },
    {
      "inputs": [
        {
          "internalType": "uint256",
          "name": "_feeBamiAmount",
          "type": "uint256"
        }
      ],
      "name": "setFeePayIdo",
      "outputs": [],
      "stateMutability": "nonpayable",
      "type": "function"
    },
    {
      "inputs": [
        {
          "internalType": "uint256",
          "name": "_requireStakingToken",
          "type": "uint256"
        },
        {
          "internalType": "uint256",
          "name": "_payAmountPerSlot",
          "type": "uint256"
        },
        {
          "internalType": "uint256",
          "name": "_tokenPerSlot",
          "type": "uint256"
        },
        {
          "internalType": "uint256",
          "name": "_totalOfSlot",
          "type": "uint256"
        },
        {
          "internalType": "uint256",
          "name": "_feeBamiAmount",
          "type": "uint256"
        },
        {
          "internalType": "uint256",
          "name": "_startStakeTime",
          "type": "uint256"
        },
        {
          "internalType": "uint256",
          "name": "_endStakeTime",
          "type": "uint256"
        },
        {
          "internalType": "uint256",
          "name": "_unStakeTime",
          "type": "uint256"
        },
        {
          "internalType": "uint256",
          "name": "_startBuyTime",
          "type": "uint256"
        },
        {
          "internalType": "uint256",
          "name": "_endBuyTime",
          "type": "uint256"
        }
      ],
      "name": "setIdoConfig",
      "outputs": [],
      "stateMutability": "nonpayable",
      "type": "function"
    },
    {
      "inputs": [
        {
          "internalType": "address",
          "name": "_idoOwner",
          "type": "address"
        }
      ],
      "name": "setIdoOwner",
      "outputs": [],
      "stateMutability": "nonpayable",
      "type": "function"
    },
    {
      "inputs": [
        {
          "internalType": "uint256",
          "name": "_startStakeTime",
          "type": "uint256"
        },
        {
          "internalType": "uint256",
          "name": "_endStakeTime",
          "type": "uint256"
        },
        {
          "internalType": "uint256",
          "name": "_unStakeTime",
          "type": "uint256"
        },
        {
          "internalType": "uint256",
          "name": "_startBuyTime",
          "type": "uint256"
        },
        {
          "internalType": "uint256",
          "name": "_endBuyTime",
          "type": "uint256"
        }
      ],
      "name": "setIdoTime",
      "outputs": [],
      "stateMutability": "nonpayable",
      "type": "function"
    },
    {
      "inputs": [
        {
          "internalType": "bool",
          "name": "_status",
          "type": "bool"
        }
      ],
      "name": "setPauseContract",
      "outputs": [],
      "stateMutability": "nonpayable",
      "type": "function"
    },
    {
      "inputs": [
        {
          "internalType": "uint256",
          "name": "_payAmountPerSlot",
          "type": "uint256"
        }
      ],
      "name": "setPayAmountPerSlot",
      "outputs": [],
      "stateMutability": "nonpayable",
      "type": "function"
    },
    {
      "inputs": [
        {
          "internalType": "uint256",
          "name": "_requireStakingToken",
          "type": "uint256"
        }
      ],
      "name": "setRequireStakingAmount",
      "outputs": [],
      "stateMutability": "nonpayable",
      "type": "function"
    },
    {
      "inputs": [
        {
          "internalType": "uint256",
          "name": "_startStakeTime",
          "type": "uint256"
        },
        {
          "internalType": "uint256",
          "name": "_endStakeTime",
          "type": "uint256"
        },
        {
          "internalType": "uint256",
          "name": "_unStakeTime",
          "type": "uint256"
        }
      ],
      "name": "setTimeStake",
      "outputs": [],
      "stateMutability": "nonpayable",
      "type": "function"
    },
    {
      "inputs": [
        {
          "internalType": "address",
          "name": "_hesmanToken",
          "type": "address"
        },
        {
          "internalType": "address",
          "name": "_bamiToken",
          "type": "address"
        },
        {
          "internalType": "address",
          "name": "_paymentToken",
          "type": "address"
        }
      ],
      "name": "setTokenIdo",
      "outputs": [],
      "stateMutability": "nonpayable",
      "type": "function"
    },
    {
      "inputs": [
        {
          "internalType": "uint256",
          "name": "_totalOfSlot",
          "type": "uint256"
        }
      ],
      "name": "setTotalOfSlot",
      "outputs": [],
      "stateMutability": "nonpayable",
      "type": "function"
    },
    {
      "inputs": [
        {
          "internalType": "uint256",
          "name": "",
          "type": "uint256"
        }
      ],
      "name": "stageList",
      "outputs": [
        {
          "internalType": "uint256",
          "name": "id",
          "type": "uint256"
        },
        {
          "internalType": "uint256",
          "name": "percent",
          "type": "uint256"
        },
        {
          "internalType": "uint256",
          "name": "startTime",
          "type": "uint256"
        }
      ],
      "stateMutability": "view",
      "type": "function"
    },
    {
      "inputs": [],
      "name": "stakeBamiGetSlot",
      "outputs": [],
      "stateMutability": "nonpayable",
      "type": "function"
    },
    {
      "inputs": [],
      "name": "startBuyTime",
      "outputs": [
        {
          "internalType": "uint256",
          "name": "",
          "type": "uint256"
        }
      ],
      "stateMutability": "view",
      "type": "function"
    },
    {
      "inputs": [],
      "name": "startClaimTime",
      "outputs": [
        {
          "internalType": "uint256",
          "name": "",
          "type": "uint256"
        }
      ],
      "stateMutability": "view",
      "type": "function"
    },
    {
      "inputs": [],
      "name": "startStakeTime",
      "outputs": [
        {
          "internalType": "uint256",
          "name": "",
          "type": "uint256"
        }
      ],
      "stateMutability": "view",
      "type": "function"
    },
    {
      "inputs": [],
      "name": "tokenPerSlot",
      "outputs": [
        {
          "internalType": "uint256",
          "name": "",
          "type": "uint256"
        }
      ],
      "stateMutability": "view",
      "type": "function"
    },
    {
      "inputs": [],
      "name": "totalOfPaid",
      "outputs": [
        {
          "internalType": "uint256",
          "name": "",
          "type": "uint256"
        }
      ],
      "stateMutability": "view",
      "type": "function"
    },
    {
      "inputs": [],
      "name": "totalOfSlot",
      "outputs": [
        {
          "internalType": "uint256",
          "name": "",
          "type": "uint256"
        }
      ],
      "stateMutability": "view",
      "type": "function"
    },
    {
      "inputs": [],
      "name": "totalOfUserStaked",
      "outputs": [
        {
          "internalType": "uint256",
          "name": "",
          "type": "uint256"
        }
      ],
      "stateMutability": "view",
      "type": "function"
    },
    {
      "inputs": [
        {
          "internalType": "address",
          "name": "newOwner",
          "type": "address"
        }
      ],
      "name": "transferOwnership",
      "outputs": [],
      "stateMutability": "nonpayable",
      "type": "function"
    },
    {
      "inputs": [],
      "name": "unStakeTime",
      "outputs": [
        {
          "internalType": "uint256",
          "name": "",
          "type": "uint256"
        }
      ],
      "stateMutability": "view",
      "type": "function"
    },
    {
      "inputs": [
        {
          "internalType": "address",
          "name": "",
          "type": "address"
        }
      ],
      "name": "unstakeMap",
      "outputs": [
        {
          "internalType": "bool",
          "name": "",
          "type": "bool"
        }
      ],
      "stateMutability": "view",
      "type": "function"
    },
    {
      "inputs": [],
      "name": "unstakeToken",
      "outputs": [],
      "stateMutability": "nonpayable",
      "type": "function"
    },
    {
      "inputs": [],
      "name": "urgentWithdrawAllToken",
      "outputs": [],
      "stateMutability": "nonpayable",
      "type": "function"
    },
    {
      "inputs": [
        {
          "internalType": "address",
          "name": "",
          "type": "address"
        }
      ],
      "name": "vestingMap",
      "outputs": [
        {
          "internalType": "uint256",
          "name": "",
          "type": "uint256"
        }
      ],
      "stateMutability": "view",
      "type": "function"
    },
    {
      "inputs": [
        {
          "internalType": "address",
          "name": "",
          "type": "address"
        }
      ],
      "name": "whitelistMap",
      "outputs": [
        {
          "internalType": "bool",
          "name": "",
          "type": "bool"
        }
      ],
      "stateMutability": "view",
      "type": "function"
    }
  ],
  "bytecode": "0x6080604052670de0b6b3a7640000600a55600a54603262000021919062000398565b600b55600a546109c462000036919062000398565b600c5561015e600d55600a546103e862000051919062000398565b601055600a5460c862000065919062000398565b6011553480156200007557600080fd5b5060405162004d2e38038062004d2e83398181016040528101906200009b919062000310565b620000bb620000af6200022d60201b60201c565b6200023560201b60201c565b6001808190555084600260006101000a81548173ffffffffffffffffffffffffffffffffffffffff021916908373ffffffffffffffffffffffffffffffffffffffff16021790555083600360006101000a81548173ffffffffffffffffffffffffffffffffffffffff021916908373ffffffffffffffffffffffffffffffffffffffff16021790555082601260006101000a81548173ffffffffffffffffffffffffffffffffffffffff021916908373ffffffffffffffffffffffffffffffffffffffff16021790555081601460006101000a81548173ffffffffffffffffffffffffffffffffffffffff021916908373ffffffffffffffffffffffffffffffffffffffff16021790555080601360006101000a81548173ffffffffffffffffffffffffffffffffffffffff021916908373ffffffffffffffffffffffffffffffffffffffff1602179055506001600960006101000a81548160ff021916908315150217905550505050505062000485565b600033905090565b60008060009054906101000a900473ffffffffffffffffffffffffffffffffffffffff169050816000806101000a81548173ffffffffffffffffffffffffffffffffffffffff021916908373ffffffffffffffffffffffffffffffffffffffff1602179055508173ffffffffffffffffffffffffffffffffffffffff168173ffffffffffffffffffffffffffffffffffffffff167f8be0079c531659141344cd1fd0a4f28419497f9722a3daafe3b4186f6b6457e060405160405180910390a35050565b6000815190506200030a816200046b565b92915050565b600080600080600060a086880312156200032f576200032e62000466565b5b60006200033f88828901620002f9565b95505060206200035288828901620002f9565b94505060406200036588828901620002f9565b93505060606200037888828901620002f9565b92505060806200038b88828901620002f9565b9150509295509295909350565b6000620003a5826200042d565b9150620003b2836200042d565b9250817fffffffffffffffffffffffffffffffffffffffffffffffffffffffffffffffff0483118215151615620003ee57620003ed62000437565b5b828202905092915050565b600062000406826200040d565b9050919050565b600073ffffffffffffffffffffffffffffffffffffffff82169050919050565b6000819050919050565b7f4e487b7100000000000000000000000000000000000000000000000000000000600052601160045260246000fd5b600080fd5b6200047681620003f9565b81146200048257600080fd5b50565b61489980620004956000396000f3fe608060405234801561001057600080fd5b50600436106102d65760003560e01c80638130034711610182578063bbdf4526116100e9578063e9dc574b116100a2578063fd8c0e8d1161007c578063fd8c0e8d14610819578063feda1fd614610837578063ff0938a714610853578063ff3841f214610871576102d6565b8063e9dc574b146107c1578063f01d226f146107df578063f2fde38b146107fd576102d6565b8063bbdf452614610725578063c2f2fbf514610741578063c78057c61461075f578063cc6cd0341461077d578063cfd3097b14610787578063e601af73146107a5576102d6565b8063a58f03aa1161013b578063a58f03aa14610689578063aa682682146106a7578063aef5ab48146106c5578063af0efb52146106cf578063b153cc5c146106ed578063b4908ae714610709576102d6565b806381300347146105c757806382941804146105e35780638da5cb5b146106015780638ea5220f1461061f5780639aa0ea191461063d5780639bf411351461066d576102d6565b8063355fdc2d1161024157806370c8e0ed116101fa578063777e092b116101d4578063777e092b14610541578063782a27371461055d5780637908e7641461058d5780637c50db0d146105ab576102d6565b806370c8e0ed1461050f578063715018a61461051957806371aec51514610523576102d6565b8063355fdc2d146104395780633fc6e10d14610457578063552e0c1f1461048957806363886262146104a55780636b91ef3f146104af5780636f3e5771146104df576102d6565b80631f53ac02116102935780631f53ac021461038b57806320eb640c146103a757806329a51e38146103b15780632c27c28f146103cf5780633013ce29146103eb57806332531c3c14610409576102d6565b806309d9754e146102db5780630b4253a4146102f95780631b7e555b146103155780631ba31584146103335780631bbab34a146103515780631bfc751e1461036d575b600080fd5b6102e361088d565b6040516102f09190614095565b60405180910390f35b610313600480360381019061030e9190613764565b610893565b005b61031d610a27565b60405161032a9190614095565b60405180910390f35b61033b610a6e565b6040516103489190614095565b60405180910390f35b61036b600480360381019061036691906135fc565b610a74565b005b610375610afa565b6040516103829190614095565b60405180910390f35b6103a560048036038101906103a09190613454565b610b00565b005b6103af610bc0565b005b6103b9610ef8565b6040516103c69190614095565b60405180910390f35b6103e960048036038101906103e49190613696565b610efe565b005b6103f3611018565b6040516104009190613d38565b60405180910390f35b610423600480360381019061041e9190613454565b61103e565b6040516104309190613d1d565b60405180910390f35b61044161105e565b60405161044e9190613c6b565b60405180910390f35b610471600480360381019061046c91906135fc565b611084565b604051610480939291906140b0565b60405180910390f35b6104a3600480360381019061049e9190613481565b6110be565b005b6104ad611202565b005b6104c960048036038101906104c49190613454565b6114d2565b6040516104d69190613d1d565b60405180910390f35b6104f960048036038101906104f49190613454565b6114f2565b6040516105069190613d1d565b60405180910390f35b610517611512565b005b6105216119ab565b005b61052b611a33565b6040516105389190614095565b60405180910390f35b61055b600480360381019061055691906134d4565b611a39565b005b61057760048036038101906105729190613454565b611b5a565b6040516105849190614095565b60405180910390f35b610595611b72565b6040516105a29190613d38565b60405180910390f35b6105c560048036038101906105c09190613656565b611b98565b005b6105e160048036038101906105dc91906136e9565b611c68565b005b6105eb611dd4565b6040516105f89190614095565b60405180910390f35b610609611dda565b6040516106169190613c6b565b60405180910390f35b610627611e03565b6040516106349190613c6b565b60405180910390f35b61065760048036038101906106529190613454565b611e29565b6040516106649190613d1d565b60405180910390f35b610687600480360381019061068291906134d4565b611e49565b005b610691611f6a565b60405161069e9190614095565b60405180910390f35b6106af611f70565b6040516106bc9190614095565b60405180910390f35b6106cd611f76565b005b6106d7612342565b6040516106e49190613d38565b60405180910390f35b610707600480360381019061070291906135fc565b612368565b005b610723600480360381019061071e9190613521565b6123ee565b005b61073f600480360381019061073a91906135fc565b6125d3565b005b610749612659565b6040516107569190614095565b60405180910390f35b61076761265f565b6040516107749190614095565b60405180910390f35b610785612665565b005b61078f612b45565b60405161079c9190614095565b60405180910390f35b6107bf60048036038101906107ba91906135a2565b612b4b565b005b6107c9612be4565b6040516107d69190614095565b60405180910390f35b6107e7612bea565b6040516107f49190614095565b60405180910390f35b61081760048036038101906108129190613454565b612bf0565b005b610821612ce8565b60405161082e9190614095565b60405180910390f35b610851600480360381019061084c9190613454565b612cee565b005b61085b612dae565b6040516108689190613d1d565b60405180910390f35b61088b600480360381019061088691906135fc565b612dc1565b005b60175481565b61089b612e47565b73ffffffffffffffffffffffffffffffffffffffff166108b9611dda565b73ffffffffffffffffffffffffffffffffffffffff161461090f576040517f08c379a000000000000000000000000000000000000000000000000000000000815260040161090690613f75565b60405180910390fd5b838510610951576040517f08c379a000000000000000000000000000000000000000000000000000000000815260040161094890614075565b60405180910390fd5b828410610993576040517f08c379a000000000000000000000000000000000000000000000000000000000815260040161098a90614075565b60405180910390fd5b8082106109d5576040517f08c379a00000000000000000000000000000000000000000000000000000000081526004016109cc90613e55565b60405180910390fd5b84601581905550836016819055508260178190555081601881905550806019819055508960108190555088600b8190555087600c8190555086600d819055508560118190555050505050505050505050565b6000600660003373ffffffffffffffffffffffffffffffffffffffff1673ffffffffffffffffffffffffffffffffffffffff16815260200190815260200160002054905090565b600e5481565b610a7c612e47565b73ffffffffffffffffffffffffffffffffffffffff16610a9a611dda565b73ffffffffffffffffffffffffffffffffffffffff1614610af0576040517f08c379a0000000000000000000000000000000000000000000000000000000008152600401610ae790613f75565b60405180910390fd5b8060108190555050565b601a5481565b610b08612e47565b73ffffffffffffffffffffffffffffffffffffffff16610b26611dda565b73ffffffffffffffffffffffffffffffffffffffff1614610b7c576040517f08c379a0000000000000000000000000000000000000000000000000000000008152600401610b7390613f75565b60405180910390fd5b80600260006101000a81548173ffffffffffffffffffffffffffffffffffffffff021916908373ffffffffffffffffffffffffffffffffffffffff16021790555050565b60026001541415610c06576040517f08c379a0000000000000000000000000000000000000000000000000000000008152600401610bfd90614055565b60405180910390fd5b60026001819055504260175410610c52576040517f08c379a0000000000000000000000000000000000000000000000000000000008152600401610c4990613ff5565b60405180910390fd5b60001515600860003373ffffffffffffffffffffffffffffffffffffffff1673ffffffffffffffffffffffffffffffffffffffff16815260200190815260200160002060009054906101000a900460ff16151514610ce5576040517f08c379a0000000000000000000000000000000000000000000000000000000008152600401610cdc90613e35565b60405180910390fd5b60011515600460003373ffffffffffffffffffffffffffffffffffffffff1673ffffffffffffffffffffffffffffffffffffffff16815260200190815260200160002060009054906101000a900460ff16151514610d78576040517f08c379a0000000000000000000000000000000000000000000000000000000008152600401610d6f90613df5565b60405180910390fd5b60001515600760003373ffffffffffffffffffffffffffffffffffffffff1673ffffffffffffffffffffffffffffffffffffffff16815260200190815260200160002060009054906101000a900460ff16151514610e0b576040517f08c379a0000000000000000000000000000000000000000000000000000000008152600401610e0290613e95565b60405180910390fd5b6001600760003373ffffffffffffffffffffffffffffffffffffffff1673ffffffffffffffffffffffffffffffffffffffff16815260200190815260200160002060006101000a81548160ff021916908315150217905550610eb233601054601460009054906101000a900473ffffffffffffffffffffffffffffffffffffffff1673ffffffffffffffffffffffffffffffffffffffff16612e4f9092919063ffffffff16565b7f47149093c65ccaad4005584cef4131141e06e2a198dc71167740cf5c6062d5973360105442604051610ee793929190613ce6565b60405180910390a160018081905550565b600b5481565b610f06612e47565b73ffffffffffffffffffffffffffffffffffffffff16610f24611dda565b73ffffffffffffffffffffffffffffffffffffffff1614610f7a576040517f08c379a0000000000000000000000000000000000000000000000000000000008152600401610f7190613f75565b60405180910390fd5b818310610fbc576040517f08c379a0000000000000000000000000000000000000000000000000000000008152600401610fb390614075565b60405180910390fd5b808210610ffe576040517f08c379a0000000000000000000000000000000000000000000000000000000008152600401610ff590614075565b60405180910390fd5b826015819055508160168190555080601781905550505050565b601360009054906101000a900473ffffffffffffffffffffffffffffffffffffffff1681565b60046020528060005260406000206000915054906101000a900460ff1681565b600360009054906101000a900473ffffffffffffffffffffffffffffffffffffffff1681565b601c818154811061109457600080fd5b90600052602060002090600302016000915090508060000154908060010154908060020154905083565b6110c6612e47565b73ffffffffffffffffffffffffffffffffffffffff166110e4611dda565b73ffffffffffffffffffffffffffffffffffffffff161461113a576040517f08c379a000000000000000000000000000000000000000000000000000000000815260040161113190613f75565b60405180910390fd5b82601260006101000a81548173ffffffffffffffffffffffffffffffffffffffff021916908373ffffffffffffffffffffffffffffffffffffffff16021790555081601460006101000a81548173ffffffffffffffffffffffffffffffffffffffff021916908373ffffffffffffffffffffffffffffffffffffffff16021790555080601360006101000a81548173ffffffffffffffffffffffffffffffffffffffff021916908373ffffffffffffffffffffffffffffffffffffffff160217905550505050565b61120a612e47565b73ffffffffffffffffffffffffffffffffffffffff16611228611dda565b73ffffffffffffffffffffffffffffffffffffffff161461127e576040517f08c379a000000000000000000000000000000000000000000000000000000000815260040161127590613f75565b60405180910390fd5b6000601260009054906101000a900473ffffffffffffffffffffffffffffffffffffffff1673ffffffffffffffffffffffffffffffffffffffff166370a08231306040518263ffffffff1660e01b81526004016112db9190613c6b565b60206040518083038186803b1580156112f357600080fd5b505afa158015611307573d6000803e3d6000fd5b505050506040513d601f19601f8201168201806040525081019061132b9190613629565b905060008111156113a6576113a5600360009054906101000a900473ffffffffffffffffffffffffffffffffffffffff1682601260009054906101000a900473ffffffffffffffffffffffffffffffffffffffff1673ffffffffffffffffffffffffffffffffffffffff16612e4f9092919063ffffffff16565b5b6000601460009054906101000a900473ffffffffffffffffffffffffffffffffffffffff1673ffffffffffffffffffffffffffffffffffffffff166370a08231306040518263ffffffff1660e01b81526004016114039190613c6b565b60206040518083038186803b15801561141b57600080fd5b505afa15801561142f573d6000803e3d6000fd5b505050506040513d601f19601f820116820180604052508101906114539190613629565b905060008111156114ce576114cd600360009054906101000a900473ffffffffffffffffffffffffffffffffffffffff1682601460009054906101000a900473ffffffffffffffffffffffffffffffffffffffff1673ffffffffffffffffffffffffffffffffffffffff16612e4f9092919063ffffffff16565b5b5050565b60056020528060005260406000206000915054906101000a900460ff1681565b60076020528060005260406000206000915054906101000a900460ff1681565b4260185410611556576040517f08c379a000000000000000000000000000000000000000000000000000000000815260040161154d90613f35565b60405180910390fd5b601954421061159a576040517f08c379a000000000000000000000000000000000000000000000000000000000815260040161159190613f35565b60405180910390fd5b600260015414156115e0576040517f08c379a00000000000000000000000000000000000000000000000000000000081526004016115d790614055565b60405180910390fd5b600260018190555060001515600960009054906101000a900460ff1615151461163e576040517f08c379a000000000000000000000000000000000000000000000000000000000815260040161163590614035565b60405180910390fd5b60001515600860003373ffffffffffffffffffffffffffffffffffffffff1673ffffffffffffffffffffffffffffffffffffffff16815260200190815260200160002060009054906101000a900460ff161515146116d1576040517f08c379a00000000000000000000000000000000000000000000000000000000081526004016116c890613e35565b60405180910390fd5b60011515600460003373ffffffffffffffffffffffffffffffffffffffff1673ffffffffffffffffffffffffffffffffffffffff16815260200190815260200160002060009054906101000a900460ff16151514611764576040517f08c379a000000000000000000000000000000000000000000000000000000000815260040161175b90613eb5565b60405180910390fd5b60001515600560003373ffffffffffffffffffffffffffffffffffffffff1673ffffffffffffffffffffffffffffffffffffffff16815260200190815260200160002060009054906101000a900460ff161515146117f7576040517f08c379a00000000000000000000000000000000000000000000000000000000081526004016117ee90613db5565b60405180910390fd5b600d54600f541061183d576040517f08c379a000000000000000000000000000000000000000000000000000000000815260040161183490613e75565b60405180910390fd5b6001600560003373ffffffffffffffffffffffffffffffffffffffff1673ffffffffffffffffffffffffffffffffffffffff16815260200190815260200160002060006101000a81548160ff0219169083151502179055506000600660003373ffffffffffffffffffffffffffffffffffffffff1673ffffffffffffffffffffffffffffffffffffffff16815260200190815260200160002081905550600f60008154809291906118ed906142ab565b919050555061196533600360009054906101000a900473ffffffffffffffffffffffffffffffffffffffff16600b54601360009054906101000a900473ffffffffffffffffffffffffffffffffffffffff1673ffffffffffffffffffffffffffffffffffffffff16612ed5909392919063ffffffff16565b7f71e7fc59da617bbf910e2b3b57519b82737429dbdda70a81d4ba4b71d6796e0233600b544260405161199a93929190613ce6565b60405180910390a160018081905550565b6119b3612e47565b73ffffffffffffffffffffffffffffffffffffffff166119d1611dda565b73ffffffffffffffffffffffffffffffffffffffff1614611a27576040517f08c379a0000000000000000000000000000000000000000000000000000000008152600401611a1e90613f75565b60405180910390fd5b611a316000612f5e565b565b60155481565b611a41612e47565b73ffffffffffffffffffffffffffffffffffffffff16611a5f611dda565b73ffffffffffffffffffffffffffffffffffffffff1614611ab5576040517f08c379a0000000000000000000000000000000000000000000000000000000008152600401611aac90613f75565b60405180910390fd5b60005b82829050811015611b5557600160086000858585818110611adc57611adb614352565b5b9050602002016020810190611af19190613454565b73ffffffffffffffffffffffffffffffffffffffff1673ffffffffffffffffffffffffffffffffffffffff16815260200190815260200160002060006101000a81548160ff0219169083151502179055508080611b4d906142ab565b915050611ab8565b505050565b60066020528060005260406000206000915090505481565b601460009054906101000a900473ffffffffffffffffffffffffffffffffffffffff1681565b611ba0612e47565b73ffffffffffffffffffffffffffffffffffffffff16611bbe611dda565b73ffffffffffffffffffffffffffffffffffffffff1614611c14576040517f08c379a0000000000000000000000000000000000000000000000000000000008152600401611c0b90613f75565b60405180910390fd5b808210611c56576040517f08c379a0000000000000000000000000000000000000000000000000000000008152600401611c4d90613e55565b60405180910390fd5b81601881905550806019819055505050565b611c70612e47565b73ffffffffffffffffffffffffffffffffffffffff16611c8e611dda565b73ffffffffffffffffffffffffffffffffffffffff1614611ce4576040517f08c379a0000000000000000000000000000000000000000000000000000000008152600401611cdb90613f75565b60405180910390fd5b838510611d26576040517f08c379a0000000000000000000000000000000000000000000000000000000008152600401611d1d90614075565b60405180910390fd5b828410611d68576040517f08c379a0000000000000000000000000000000000000000000000000000000008152600401611d5f90614075565b60405180910390fd5b808210611daa576040517f08c379a0000000000000000000000000000000000000000000000000000000008152600401611da190613e55565b60405180910390fd5b84601581905550836016819055508260178190555081601881905550806019819055505050505050565b60115481565b60008060009054906101000a900473ffffffffffffffffffffffffffffffffffffffff16905090565b600260009054906101000a900473ffffffffffffffffffffffffffffffffffffffff1681565b60086020528060005260406000206000915054906101000a900460ff1681565b611e51612e47565b73ffffffffffffffffffffffffffffffffffffffff16611e6f611dda565b73ffffffffffffffffffffffffffffffffffffffff1614611ec5576040517f08c379a0000000000000000000000000000000000000000000000000000000008152600401611ebc90613f75565b60405180910390fd5b60005b82829050811015611f6557600060086000858585818110611eec57611eeb614352565b5b9050602002016020810190611f019190613454565b73ffffffffffffffffffffffffffffffffffffffff1673ffffffffffffffffffffffffffffffffffffffff16815260200190815260200160002060006101000a81548160ff0219169083151502179055508080611f5d906142ab565b915050611ec8565b505050565b60165481565b60185481565b4260155410611fba576040517f08c379a0000000000000000000000000000000000000000000000000000000008152600401611fb190613d75565b60405180910390fd5b6016544210611ffe576040517f08c379a0000000000000000000000000000000000000000000000000000000008152600401611ff590613d75565b60405180910390fd5b60026001541415612044576040517f08c379a000000000000000000000000000000000000000000000000000000000815260040161203b90614055565b60405180910390fd5b600260018190555060001515600960009054906101000a900460ff161515146120a2576040517f08c379a000000000000000000000000000000000000000000000000000000000815260040161209990614035565b60405180910390fd5b60001515600860003373ffffffffffffffffffffffffffffffffffffffff1673ffffffffffffffffffffffffffffffffffffffff16815260200190815260200160002060009054906101000a900460ff16151514612135576040517f08c379a000000000000000000000000000000000000000000000000000000000815260040161212c90613e35565b60405180910390fd5b60001515600460003373ffffffffffffffffffffffffffffffffffffffff1673ffffffffffffffffffffffffffffffffffffffff16815260200190815260200160002060009054906101000a900460ff161515146121c8576040517f08c379a00000000000000000000000000000000000000000000000000000000081526004016121bf90613f15565b60405180910390fd5b6001600460003373ffffffffffffffffffffffffffffffffffffffff1673ffffffffffffffffffffffffffffffffffffffff16815260200190815260200160002060006101000a81548160ff021916908315150217905550600e6000815480929190612233906142ab565b91905055506122893330601054601460009054906101000a900473ffffffffffffffffffffffffffffffffffffffff1673ffffffffffffffffffffffffffffffffffffffff16612ed5909392919063ffffffff16565b6122fc33600260009054906101000a900473ffffffffffffffffffffffffffffffffffffffff16601154601460009054906101000a900473ffffffffffffffffffffffffffffffffffffffff1673ffffffffffffffffffffffffffffffffffffffff16612ed5909392919063ffffffff16565b7ff631376cacfb1b6aba2490572db8eba7204cd68f94db54296ec52fc97ae06275336010544260405161233193929190613ce6565b60405180910390a160018081905550565b601260009054906101000a900473ffffffffffffffffffffffffffffffffffffffff1681565b612370612e47565b73ffffffffffffffffffffffffffffffffffffffff1661238e611dda565b73ffffffffffffffffffffffffffffffffffffffff16146123e4576040517f08c379a00000000000000000000000000000000000000000000000000000000081526004016123db90613f75565b60405180910390fd5b80600b8190555050565b6123f6612e47565b73ffffffffffffffffffffffffffffffffffffffff16612414611dda565b73ffffffffffffffffffffffffffffffffffffffff161461246a576040517f08c379a000000000000000000000000000000000000000000000000000000000815260040161246190613f75565b60405180910390fd5b600084849050116124b0576040517f08c379a00000000000000000000000000000000000000000000000000000000081526004016124a790613ef5565b60405180910390fd5b8181905084849050146124f8576040517f08c379a00000000000000000000000000000000000000000000000000000000081526004016124ef90613ef5565b60405180910390fd5b601c600061250691906132cb565b60005b848490508110156125cc5761251c6132ef565b8181600001818152505085858381811061253957612538614352565b5b9050602002013581604001818152505083838381811061255c5761255b614352565b5b90506020020135816020018181525050601c81908060018154018082558091505060019003906000526020600020906003020160009091909190915060008201518160000155602082015181600101556040820151816002015550505080806125c4906142ab565b915050612509565b5050505050565b6125db612e47565b73ffffffffffffffffffffffffffffffffffffffff166125f9611dda565b73ffffffffffffffffffffffffffffffffffffffff161461264f576040517f08c379a000000000000000000000000000000000000000000000000000000000815260040161264690613f75565b60405180910390fd5b80600d8190555050565b600d5481565b600f5481565b600260015414156126ab576040517f08c379a00000000000000000000000000000000000000000000000000000000081526004016126a290614055565b60405180910390fd5b600260018190555060001515600960009054906101000a900460ff16151514612709576040517f08c379a000000000000000000000000000000000000000000000000000000000815260040161270090614035565b60405180910390fd5b60001515600860003373ffffffffffffffffffffffffffffffffffffffff1673ffffffffffffffffffffffffffffffffffffffff16815260200190815260200160002060009054906101000a900460ff1615151461279c576040517f08c379a000000000000000000000000000000000000000000000000000000000815260040161279390613e35565b60405180910390fd5b60011515600460003373ffffffffffffffffffffffffffffffffffffffff1673ffffffffffffffffffffffffffffffffffffffff16815260200190815260200160002060009054906101000a900460ff1615151461282f576040517f08c379a000000000000000000000000000000000000000000000000000000000815260040161282690613fd5565b60405180910390fd5b60011515600560003373ffffffffffffffffffffffffffffffffffffffff1673ffffffffffffffffffffffffffffffffffffffff16815260200190815260200160002060009054906101000a900460ff161515146128c2576040517f08c379a00000000000000000000000000000000000000000000000000000000081526004016128b990613f55565b60405180910390fd5b6000600660003373ffffffffffffffffffffffffffffffffffffffff1673ffffffffffffffffffffffffffffffffffffffff1681526020019081526020016000205490506000601c828154811061291c5761291b614352565b5b906000526020600020906003020160405180606001604052908160008201548152602001600182015481526020016002820154815250509050600081602001519050600082604001519050601c8054905084106129ae576040517f08c379a00000000000000000000000000000000000000000000000000000000081526004016129a590613dd5565b60405180910390fd5b600082116129f1576040517f08c379a00000000000000000000000000000000000000000000000000000000081526004016129e890613f95565b60405180910390fd5b428110612a33576040517f08c379a0000000000000000000000000000000000000000000000000000000008152600401612a2a90613d95565b60405180910390fd5b600184612a409190614119565b600660003373ffffffffffffffffffffffffffffffffffffffff1673ffffffffffffffffffffffffffffffffffffffff168152602001908152602001600020819055506000612aad6064612a9f600c548661302290919063ffffffff16565b61303890919063ffffffff16565b9050612afc3382601260009054906101000a900473ffffffffffffffffffffffffffffffffffffffff1673ffffffffffffffffffffffffffffffffffffffff16612e4f9092919063ffffffff16565b7fd458cbd7941a406cf0211a0f3f08d437b196748d53096e98baf5a27041c2ea26338242604051612b2f93929190613ce6565b60405180910390a1505050505060018081905550565b60105481565b612b53612e47565b73ffffffffffffffffffffffffffffffffffffffff16612b71611dda565b73ffffffffffffffffffffffffffffffffffffffff1614612bc7576040517f08c379a0000000000000000000000000000000000000000000000000000000008152600401612bbe90613f75565b60405180910390fd5b80600960006101000a81548160ff02191690831515021790555050565b600c5481565b60195481565b612bf8612e47565b73ffffffffffffffffffffffffffffffffffffffff16612c16611dda565b73ffffffffffffffffffffffffffffffffffffffff1614612c6c576040517f08c379a0000000000000000000000000000000000000000000000000000000008152600401612c6390613f75565b60405180910390fd5b600073ffffffffffffffffffffffffffffffffffffffff168173ffffffffffffffffffffffffffffffffffffffff161415612cdc576040517f08c379a0000000000000000000000000000000000000000000000000000000008152600401612cd390613e15565b60405180910390fd5b612ce581612f5e565b50565b601b5481565b612cf6612e47565b73ffffffffffffffffffffffffffffffffffffffff16612d14611dda565b73ffffffffffffffffffffffffffffffffffffffff1614612d6a576040517f08c379a0000000000000000000000000000000000000000000000000000000008152600401612d6190613f75565b60405180910390fd5b80600360006101000a81548173ffffffffffffffffffffffffffffffffffffffff021916908373ffffffffffffffffffffffffffffffffffffffff16021790555050565b600960009054906101000a900460ff1681565b612dc9612e47565b73ffffffffffffffffffffffffffffffffffffffff16612de7611dda565b73ffffffffffffffffffffffffffffffffffffffff1614612e3d576040517f08c379a0000000000000000000000000000000000000000000000000000000008152600401612e3490613f75565b60405180910390fd5b8060118190555050565b600033905090565b612ed08363a9059cbb60e01b8484604051602401612e6e929190613cbd565b604051602081830303815290604052907bffffffffffffffffffffffffffffffffffffffffffffffffffffffff19166020820180517bffffffffffffffffffffffffffffffffffffffffffffffffffffffff838183161783525050505061304e565b505050565b612f58846323b872dd60e01b858585604051602401612ef693929190613c86565b604051602081830303815290604052907bffffffffffffffffffffffffffffffffffffffffffffffffffffffff19166020820180517bffffffffffffffffffffffffffffffffffffffffffffffffffffffff838183161783525050505061304e565b50505050565b60008060009054906101000a900473ffffffffffffffffffffffffffffffffffffffff169050816000806101000a81548173ffffffffffffffffffffffffffffffffffffffff021916908373ffffffffffffffffffffffffffffffffffffffff1602179055508173ffffffffffffffffffffffffffffffffffffffff168173ffffffffffffffffffffffffffffffffffffffff167f8be0079c531659141344cd1fd0a4f28419497f9722a3daafe3b4186f6b6457e060405160405180910390a35050565b6000818361303091906141a0565b905092915050565b60008183613046919061416f565b905092915050565b60006130b0826040518060400160405280602081526020017f5361666545524332303a206c6f772d6c6576656c2063616c6c206661696c65648152508573ffffffffffffffffffffffffffffffffffffffff166131159092919063ffffffff16565b905060008151111561311057808060200190518101906130d091906135cf565b61310f576040517f08c379a000000000000000000000000000000000000000000000000000000000815260040161310690614015565b60405180910390fd5b5b505050565b6060613124848460008561312d565b90509392505050565b606082471015613172576040517f08c379a000000000000000000000000000000000000000000000000000000000815260040161316990613ed5565b60405180910390fd5b61317b85613241565b6131ba576040517f08c379a00000000000000000000000000000000000000000000000000000000081526004016131b190613fb5565b60405180910390fd5b6000808673ffffffffffffffffffffffffffffffffffffffff1685876040516131e39190613c54565b60006040518083038185875af1925050503d8060008114613220576040519150601f19603f3d011682016040523d82523d6000602084013e613225565b606091505b5091509150613235828286613264565b92505050949350505050565b6000808273ffffffffffffffffffffffffffffffffffffffff163b119050919050565b60608315613274578290506132c4565b6000835111156132875782518084602001fd5b816040517f08c379a00000000000000000000000000000000000000000000000000000000081526004016132bb9190613d53565b60405180910390fd5b9392505050565b50805460008255600302906000526020600020908101906132ec9190613310565b50565b60405180606001604052806000815260200160008152602001600081525090565b5b8082111561333b576000808201600090556001820160009055600282016000905550600301613311565b5090565b60008135905061334e8161481e565b92915050565b60008083601f84011261336a57613369614386565b5b8235905067ffffffffffffffff81111561338757613386614381565b5b6020830191508360208202830111156133a3576133a261438b565b5b9250929050565b60008083601f8401126133c0576133bf614386565b5b8235905067ffffffffffffffff8111156133dd576133dc614381565b5b6020830191508360208202830111156133f9576133f861438b565b5b9250929050565b60008135905061340f81614835565b92915050565b60008151905061342481614835565b92915050565b6000813590506134398161484c565b92915050565b60008151905061344e8161484c565b92915050565b60006020828403121561346a57613469614395565b5b60006134788482850161333f565b91505092915050565b60008060006060848603121561349a57613499614395565b5b60006134a88682870161333f565b93505060206134b98682870161333f565b92505060406134ca8682870161333f565b9150509250925092565b600080602083850312156134eb576134ea614395565b5b600083013567ffffffffffffffff81111561350957613508614390565b5b61351585828601613354565b92509250509250929050565b6000806000806040858703121561353b5761353a614395565b5b600085013567ffffffffffffffff81111561355957613558614390565b5b613565878288016133aa565b9450945050602085013567ffffffffffffffff81111561358857613587614390565b5b613594878288016133aa565b925092505092959194509250565b6000602082840312156135b8576135b7614395565b5b60006135c684828501613400565b91505092915050565b6000602082840312156135e5576135e4614395565b5b60006135f384828501613415565b91505092915050565b60006020828403121561361257613611614395565b5b60006136208482850161342a565b91505092915050565b60006020828403121561363f5761363e614395565b5b600061364d8482850161343f565b91505092915050565b6000806040838503121561366d5761366c614395565b5b600061367b8582860161342a565b925050602061368c8582860161342a565b9150509250929050565b6000806000606084860312156136af576136ae614395565b5b60006136bd8682870161342a565b93505060206136ce8682870161342a565b92505060406136df8682870161342a565b9150509250925092565b600080600080600060a0868803121561370557613704614395565b5b60006137138882890161342a565b95505060206137248882890161342a565b94505060406137358882890161342a565b93505060606137468882890161342a565b92505060806137578882890161342a565b9150509295509295909350565b6000806000806000806000806000806101408b8d03121561378857613787614395565b5b60006137968d828e0161342a565b9a505060206137a78d828e0161342a565b99505060406137b88d828e0161342a565b98505060606137c98d828e0161342a565b97505060806137da8d828e0161342a565b96505060a06137eb8d828e0161342a565b95505060c06137fc8d828e0161342a565b94505060e061380d8d828e0161342a565b93505061010061381f8d828e0161342a565b9250506101206138318d828e0161342a565b9150509295989b9194979a5092959850565b61384c816141fa565b82525050565b61385b8161420c565b82525050565b600061386c826140e7565b61387681856140fd565b9350613886818560208601614278565b80840191505092915050565b61389b81614242565b82525050565b60006138ac826140f2565b6138b68185614108565b93506138c6818560208601614278565b6138cf8161439a565b840191505092915050565b60006138e7601483614108565b91506138f2826143ab565b602082019050919050565b600061390a601983614108565b9150613915826143d4565b602082019050919050565b600061392d601383614108565b9150613938826143fd565b602082019050919050565b6000613950601683614108565b915061395b82614426565b602082019050919050565b6000613973601883614108565b915061397e8261444f565b602082019050919050565b6000613996602683614108565b91506139a182614478565b604082019050919050565b60006139b9601483614108565b91506139c4826144c7565b602082019050919050565b60006139dc601683614108565b91506139e7826144f0565b602082019050919050565b60006139ff600d83614108565b9150613a0a82614519565b602082019050919050565b6000613a22601f83614108565b9150613a2d82614542565b602082019050919050565b6000613a45601883614108565b9150613a508261456b565b602082019050919050565b6000613a68602683614108565b9150613a7382614594565b604082019050919050565b6000613a8b601383614108565b9150613a96826145e3565b602082019050919050565b6000613aae601483614108565b9150613ab98261460c565b602082019050919050565b6000613ad1601083614108565b9150613adc82614635565b602082019050919050565b6000613af4601783614108565b9150613aff8261465e565b602082019050919050565b6000613b17602083614108565b9150613b2282614687565b602082019050919050565b6000613b3a601a83614108565b9150613b45826146b0565b602082019050919050565b6000613b5d601d83614108565b9150613b68826146d9565b602082019050919050565b6000613b80601c83614108565b9150613b8b82614702565b602082019050919050565b6000613ba3601883614108565b9150613bae8261472b565b602082019050919050565b6000613bc6602a83614108565b9150613bd182614754565b604082019050919050565b6000613be9601283614108565b9150613bf4826147a3565b602082019050919050565b6000613c0c601f83614108565b9150613c17826147cc565b602082019050919050565b6000613c2f601a83614108565b9150613c3a826147f5565b602082019050919050565b613c4e81614238565b82525050565b6000613c608284613861565b915081905092915050565b6000602082019050613c806000830184613843565b92915050565b6000606082019050613c9b6000830186613843565b613ca86020830185613843565b613cb56040830184613c45565b949350505050565b6000604082019050613cd26000830185613843565b613cdf6020830184613c45565b9392505050565b6000606082019050613cfb6000830186613843565b613d086020830185613c45565b613d156040830184613c45565b949350505050565b6000602082019050613d326000830184613852565b92915050565b6000602082019050613d4d6000830184613892565b92915050565b60006020820190508181036000830152613d6d81846138a1565b905092915050565b60006020820190508181036000830152613d8e816138da565b9050919050565b60006020820190508181036000830152613dae816138fd565b9050919050565b60006020820190508181036000830152613dce81613920565b9050919050565b60006020820190508181036000830152613dee81613943565b9050919050565b60006020820190508181036000830152613e0e81613966565b9050919050565b60006020820190508181036000830152613e2e81613989565b9050919050565b60006020820190508181036000830152613e4e816139ac565b9050919050565b60006020820190508181036000830152613e6e816139cf565b9050919050565b60006020820190508181036000830152613e8e816139f2565b9050919050565b60006020820190508181036000830152613eae81613a15565b9050919050565b60006020820190508181036000830152613ece81613a38565b9050919050565b60006020820190508181036000830152613eee81613a5b565b9050919050565b60006020820190508181036000830152613f0e81613a7e565b9050919050565b60006020820190508181036000830152613f2e81613aa1565b9050919050565b60006020820190508181036000830152613f4e81613ac4565b9050919050565b60006020820190508181036000830152613f6e81613ae7565b9050919050565b60006020820190508181036000830152613f8e81613b0a565b9050919050565b60006020820190508181036000830152613fae81613b2d565b9050919050565b60006020820190508181036000830152613fce81613b50565b9050919050565b60006020820190508181036000830152613fee81613b73565b9050919050565b6000602082019050818103600083015261400e81613b96565b9050919050565b6000602082019050818103600083015261402e81613bb9565b9050919050565b6000602082019050818103600083015261404e81613bdc565b9050919050565b6000602082019050818103600083015261406e81613bff565b9050919050565b6000602082019050818103600083015261408e81613c22565b9050919050565b60006020820190506140aa6000830184613c45565b92915050565b60006060820190506140c56000830186613c45565b6140d26020830185613c45565b6140df6040830184613c45565b949350505050565b600081519050919050565b600081519050919050565b600081905092915050565b600082825260208201905092915050565b600061412482614238565b915061412f83614238565b9250827fffffffffffffffffffffffffffffffffffffffffffffffffffffffffffffffff03821115614164576141636142f4565b5b828201905092915050565b600061417a82614238565b915061418583614238565b92508261419557614194614323565b5b828204905092915050565b60006141ab82614238565b91506141b683614238565b9250817fffffffffffffffffffffffffffffffffffffffffffffffffffffffffffffffff04831182151516156141ef576141ee6142f4565b5b828202905092915050565b600061420582614218565b9050919050565b60008115159050919050565b600073ffffffffffffffffffffffffffffffffffffffff82169050919050565b6000819050919050565b600061424d82614254565b9050919050565b600061425f82614266565b9050919050565b600061427182614218565b9050919050565b60005b8381101561429657808201518184015260208101905061427b565b838111156142a5576000848401525b50505050565b60006142b682614238565b91507fffffffffffffffffffffffffffffffffffffffffffffffffffffffffffffffff8214156142e9576142e86142f4565b5b600182019050919050565b7f4e487b7100000000000000000000000000000000000000000000000000000000600052601160045260246000fd5b7f4e487b7100000000000000000000000000000000000000000000000000000000600052601260045260246000fd5b7f4e487b7100000000000000000000000000000000000000000000000000000000600052603260045260246000fd5b600080fd5b600080fd5b600080fd5b600080fd5b600080fd5b6000601f19601f8301169050919050565b7f54696d65207374616b696e6720696e76616c6964000000000000000000000000600082015250565b7f436c61696d2074696d65206973206e6f74207374617274656400000000000000600082015250565b7f596f75206172652070616964206265666f726500000000000000000000000000600082015250565b7f436c61696d20696e64657820697320696e76616c696400000000000000000000600082015250565b7f596f7520617265206e6f74207374616b65206265666f72650000000000000000600082015250565b7f4f776e61626c653a206e6577206f776e657220697320746865207a65726f206160008201527f6464726573730000000000000000000000000000000000000000000000000000602082015250565b7f596f752061726520696e20426c61636b6c697374000000000000000000000000600082015250565b7f496e7075742074696d652062757920696e76616c696400000000000000000000600082015250565b7f46756c6c2062757920736c6f7400000000000000000000000000000000000000600082015250565b7f596f7520617265206e6f74207374616b656420746f6b656e206265666f726500600082015250565b7f596f7520617265206e6f7420696e2077686974656c6973740000000000000000600082015250565b7f416464726573733a20696e73756666696369656e742062616c616e636520666f60008201527f722063616c6c0000000000000000000000000000000000000000000000000000602082015250565b7f496e70757420737461676520696e76616c696400000000000000000000000000600082015250565b7f596f752061726520696e2057686974656c697374000000000000000000000000600082015250565b7f54696d652062757920696e76616c696400000000000000000000000000000000600082015250565b7f596f7520617265206e6f742070616964206265666f7265000000000000000000600082015250565b7f4f776e61626c653a2063616c6c6572206973206e6f7420746865206f776e6572600082015250565b7f50657263656e742076657374696e6720697320696e76616c6964000000000000600082015250565b7f416464726573733a2063616c6c20746f206e6f6e2d636f6e7472616374000000600082015250565b7f596f7520617265206e6f742077686974656c697374206265666f726500000000600082015250565b7f54696d652072657475726e2042414d4920696e76616c69640000000000000000600082015250565b7f5361666545524332303a204552433230206f7065726174696f6e20646964206e60008201527f6f74207375636365656400000000000000000000000000000000000000000000602082015250565b7f436f6e7472616374206973207061757365640000000000000000000000000000600082015250565b7f5265656e7472616e637947756172643a207265656e7472616e742063616c6c00600082015250565b7f496e7075742074696d65207374616b696e6720696e76616c6964000000000000600082015250565b614827816141fa565b811461483257600080fd5b50565b61483e8161420c565b811461484957600080fd5b50565b61485581614238565b811461486057600080fd5b5056fea26469706673582212208056d23309b987d0aa79e41eaaff5877ac9777c09614e7116edd037ea2a98bef64736f6c63430008070033",
  "linkReferences": {},
  "deployedLinkReferences": {}
}