{
  "_format": "hh-sol-artifact-1",
  "contractName": "CreateNFTBronze",
  "sourceName": "contracts/contractNFT1.sol",
  "abi": [
    {
      "inputs": [],
      "stateMutability": "nonpayable",
      "type": "constructor"
    },
    {
      "anonymous": false,
      "inputs": [
        {
          "indexed": true,
          "internalType": "address",
          "name": "owner",
          "type": "address"
        },
        {
          "indexed": true,
          "internalType": "address",
          "name": "approved",
          "type": "address"
        },
        {
          "indexed": true,
          "internalType": "uint256",
          "name": "tokenId",
          "type": "uint256"
        }
      ],
      "name": "Approval",
      "type": "event"
    },
    {
      "anonymous": false,
      "inputs": [
        {
          "indexed": true,
          "internalType": "address",
          "name": "owner",
          "type": "address"
        },
        {
          "indexed": true,
          "internalType": "address",
          "name": "operator",
          "type": "address"
        },
        {
          "indexed": false,
          "internalType": "bool",
          "name": "approved",
          "type": "bool"
        }
      ],
      "name": "ApprovalForAll",
      "type": "event"
    },
    {
      "anonymous": false,
      "inputs": [
        {
          "indexed": true,
          "internalType": "address",
          "name": "previousOwner",
          "type": "address"
        },
        {
          "indexed": true,
          "internalType": "address",
          "name": "newOwner",
          "type": "address"
        }
      ],
      "name": "OwnershipTransferred",
      "type": "event"
    },
    {
      "anonymous": false,
      "inputs": [
        {
          "indexed": false,
          "internalType": "address",
          "name": "account",
          "type": "address"
        }
      ],
      "name": "Paused",
      "type": "event"
    },
    {
      "anonymous": false,
      "inputs": [
        {
          "indexed": true,
          "internalType": "address",
          "name": "from",
          "type": "address"
        },
        {
          "indexed": true,
          "internalType": "address",
          "name": "to",
          "type": "address"
        },
        {
          "indexed": true,
          "internalType": "uint256",
          "name": "tokenId",
          "type": "uint256"
        }
      ],
      "name": "Transfer",
      "type": "event"
    },
    {
      "anonymous": false,
      "inputs": [
        {
          "indexed": false,
          "internalType": "address",
          "name": "account",
          "type": "address"
        }
      ],
      "name": "Unpaused",
      "type": "event"
    },
    {
      "inputs": [
        {
          "internalType": "address",
          "name": "to",
          "type": "address"
        },
        {
          "internalType": "uint256",
          "name": "tokenId",
          "type": "uint256"
        }
      ],
      "name": "approve",
      "outputs": [],
      "stateMutability": "nonpayable",
      "type": "function"
    },
    {
      "inputs": [
        {
          "internalType": "address",
          "name": "owner",
          "type": "address"
        }
      ],
      "name": "balanceOf",
      "outputs": [
        {
          "internalType": "uint256",
          "name": "",
          "type": "uint256"
        }
      ],
      "stateMutability": "view",
      "type": "function"
    },
    {
      "inputs": [
        {
          "internalType": "uint256",
          "name": "tokenId",
          "type": "uint256"
        }
      ],
      "name": "burn",
      "outputs": [],
      "stateMutability": "nonpayable",
      "type": "function"
    },
    {
      "inputs": [
        {
          "internalType": "uint256",
          "name": "tokenId",
          "type": "uint256"
        }
      ],
      "name": "getApproved",
      "outputs": [
        {
          "internalType": "address",
          "name": "",
          "type": "address"
        }
      ],
      "stateMutability": "view",
      "type": "function"
    },
    {
      "inputs": [
        {
          "internalType": "address",
          "name": "owner",
          "type": "address"
        },
        {
          "internalType": "address",
          "name": "operator",
          "type": "address"
        }
      ],
      "name": "isApprovedForAll",
      "outputs": [
        {
          "internalType": "bool",
          "name": "",
          "type": "bool"
        }
      ],
      "stateMutability": "view",
      "type": "function"
    },
    {
      "inputs": [],
      "name": "name",
      "outputs": [
        {
          "internalType": "string",
          "name": "",
          "type": "string"
        }
      ],
      "stateMutability": "view",
      "type": "function"
    },
    {
      "inputs": [],
      "name": "owner",
      "outputs": [
        {
          "internalType": "address",
          "name": "",
          "type": "address"
        }
      ],
      "stateMutability": "view",
      "type": "function"
    },
    {
      "inputs": [
        {
          "internalType": "uint256",
          "name": "tokenId",
          "type": "uint256"
        }
      ],
      "name": "ownerOf",
      "outputs": [
        {
          "internalType": "address",
          "name": "",
          "type": "address"
        }
      ],
      "stateMutability": "view",
      "type": "function"
    },
    {
      "inputs": [],
      "name": "pause",
      "outputs": [],
      "stateMutability": "nonpayable",
      "type": "function"
    },
    {
      "inputs": [],
      "name": "paused",
      "outputs": [
        {
          "internalType": "bool",
          "name": "",
          "type": "bool"
        }
      ],
      "stateMutability": "view",
      "type": "function"
    },
    {
      "inputs": [],
      "name": "renounceOwnership",
      "outputs": [],
      "stateMutability": "nonpayable",
      "type": "function"
    },
    {
      "inputs": [
        {
          "internalType": "address",
          "name": "to",
          "type": "address"
        }
      ],
      "name": "safeMint",
      "outputs": [],
      "stateMutability": "nonpayable",
      "type": "function"
    },
    {
      "inputs": [
        {
          "internalType": "address",
          "name": "to",
          "type": "address"
        },
        {
          "internalType": "uint256",
          "name": "amount",
          "type": "uint256"
        }
      ],
      "name": "safeMintWithAmount",
      "outputs": [],
      "stateMutability": "nonpayable",
      "type": "function"
    },
    {
      "inputs": [
        {
          "internalType": "address",
          "name": "from",
          "type": "address"
        },
        {
          "internalType": "address",
          "name": "to",
          "type": "address"
        },
        {
          "internalType": "uint256",
          "name": "tokenId",
          "type": "uint256"
        }
      ],
      "name": "safeTransferFrom",
      "outputs": [],
      "stateMutability": "nonpayable",
      "type": "function"
    },
    {
      "inputs": [
        {
          "internalType": "address",
          "name": "from",
          "type": "address"
        },
        {
          "internalType": "address",
          "name": "to",
          "type": "address"
        },
        {
          "internalType": "uint256",
          "name": "tokenId",
          "type": "uint256"
        },
        {
          "internalType": "bytes",
          "name": "_data",
          "type": "bytes"
        }
      ],
      "name": "safeTransferFrom",
      "outputs": [],
      "stateMutability": "nonpayable",
      "type": "function"
    },
    {
      "inputs": [
        {
          "internalType": "address",
          "name": "operator",
          "type": "address"
        },
        {
          "internalType": "bool",
          "name": "approved",
          "type": "bool"
        }
      ],
      "name": "setApprovalForAll",
      "outputs": [],
      "stateMutability": "nonpayable",
      "type": "function"
    },
    {
      "inputs": [
        {
          "internalType": "bytes4",
          "name": "interfaceId",
          "type": "bytes4"
        }
      ],
      "name": "supportsInterface",
      "outputs": [
        {
          "internalType": "bool",
          "name": "",
          "type": "bool"
        }
      ],
      "stateMutability": "view",
      "type": "function"
    },
    {
      "inputs": [],
      "name": "symbol",
      "outputs": [
        {
          "internalType": "string",
          "name": "",
          "type": "string"
        }
      ],
      "stateMutability": "view",
      "type": "function"
    },
    {
      "inputs": [
        {
          "internalType": "uint256",
          "name": "index",
          "type": "uint256"
        }
      ],
      "name": "tokenByIndex",
      "outputs": [
        {
          "internalType": "uint256",
          "name": "",
          "type": "uint256"
        }
      ],
      "stateMutability": "view",
      "type": "function"
    },
    {
      "inputs": [
        {
          "internalType": "address",
          "name": "owner",
          "type": "address"
        },
        {
          "internalType": "uint256",
          "name": "index",
          "type": "uint256"
        }
      ],
      "name": "tokenOfOwnerByIndex",
      "outputs": [
        {
          "internalType": "uint256",
          "name": "",
          "type": "uint256"
        }
      ],
      "stateMutability": "view",
      "type": "function"
    },
    {
      "inputs": [
        {
          "internalType": "uint256",
          "name": "tokenId",
          "type": "uint256"
        }
      ],
      "name": "tokenURI",
      "outputs": [
        {
          "internalType": "string",
          "name": "",
          "type": "string"
        }
      ],
      "stateMutability": "view",
      "type": "function"
    },
    {
      "inputs": [],
      "name": "totalSupply",
      "outputs": [
        {
          "internalType": "uint256",
          "name": "",
          "type": "uint256"
        }
      ],
      "stateMutability": "view",
      "type": "function"
    },
    {
      "inputs": [
        {
          "internalType": "address",
          "name": "to",
          "type": "address"
        },
        {
          "internalType": "uint256",
          "name": "totalTranfer",
          "type": "uint256"
        }
      ],
      "name": "tranferMulti",
      "outputs": [],
      "stateMutability": "nonpayable",
      "type": "function"
    },
    {
      "inputs": [
        {
          "internalType": "address",
          "name": "from",
          "type": "address"
        },
        {
          "internalType": "address",
          "name": "to",
          "type": "address"
        },
        {
          "internalType": "uint256",
          "name": "tokenId",
          "type": "uint256"
        }
      ],
      "name": "transferFrom",
      "outputs": [],
      "stateMutability": "nonpayable",
      "type": "function"
    },
    {
      "inputs": [
        {
          "internalType": "address",
          "name": "newOwner",
          "type": "address"
        }
      ],
      "name": "transferOwnership",
      "outputs": [],
      "stateMutability": "nonpayable",
      "type": "function"
    },
    {
      "inputs": [],
      "name": "unpause",
      "outputs": [],
      "stateMutability": "nonpayable",
      "type": "function"
    }
  ],
  "bytecode": "0x60806040523480156200001157600080fd5b506040518060400160405280600e81526020017f466f6f744561726e42726f6e7a650000000000000000000000000000000000008152506040518060400160405280600381526020017f4645420000000000000000000000000000000000000000000000000000000000815250816000908051906020019062000096929190620001c1565b508060019080519060200190620000af929190620001c1565b5050506000600a60006101000a81548160ff021916908315150217905550620000ed620000e1620000f360201b60201c565b620000fb60201b60201c565b620002d6565b600033905090565b6000600a60019054906101000a900473ffffffffffffffffffffffffffffffffffffffff16905081600a60016101000a81548173ffffffffffffffffffffffffffffffffffffffff021916908373ffffffffffffffffffffffffffffffffffffffff1602179055508173ffffffffffffffffffffffffffffffffffffffff168173ffffffffffffffffffffffffffffffffffffffff167f8be0079c531659141344cd1fd0a4f28419497f9722a3daafe3b4186f6b6457e060405160405180910390a35050565b828054620001cf9062000271565b90600052602060002090601f016020900481019282620001f357600085556200023f565b82601f106200020e57805160ff19168380011785556200023f565b828001600101855582156200023f579182015b828111156200023e57825182559160200191906001019062000221565b5b5090506200024e919062000252565b5090565b5b808211156200026d57600081600090555060010162000253565b5090565b600060028204905060018216806200028a57607f821691505b60208210811415620002a157620002a0620002a7565b5b50919050565b7f4e487b7100000000000000000000000000000000000000000000000000000000600052602260045260246000fd5b613c7580620002e66000396000f3fe608060405234801561001057600080fd5b506004361061018e5760003560e01c80635c975abb116100de5780638da5cb5b11610097578063b88d4fde11610071578063b88d4fde14610447578063c87b56dd14610463578063e985e9c514610493578063f2fde38b146104c35761018e565b80638da5cb5b146103ef57806395d89b411461040d578063a22cb4651461042b5761018e565b80635c975abb146103415780636352211e1461035f57806370a082311461038f578063715018a6146103bf57806378c9b163146103c95780638456cb59146103e55761018e565b80632f745c591161014b57806340d097c31161012557806340d097c3146102bd57806342842e0e146102d957806342966c68146102f55780634f6ccce7146103115761018e565b80632f745c591461026757806338b15b43146102975780633f4ba83a146102b35761018e565b806301ffc9a71461019357806306fdde03146101c3578063081812fc146101e1578063095ea7b31461021157806318160ddd1461022d57806323b872dd1461024b575b600080fd5b6101ad60048036038101906101a891906129bf565b6104df565b6040516101ba9190612f1c565b60405180910390f35b6101cb6104f1565b6040516101d89190612f37565b60405180910390f35b6101fb60048036038101906101f69190612a19565b610583565b6040516102089190612e55565b60405180910390f35b61022b6004803603810190610226919061297f565b610608565b005b610235610720565b60405161024291906131f9565b60405180910390f35b61026560048036038101906102609190612869565b61072d565b005b610281600480360381019061027c919061297f565b61078d565b60405161028e91906131f9565b60405180910390f35b6102b160048036038101906102ac919061297f565b610832565b005b6102bb6108da565b005b6102d760048036038101906102d291906127fc565b610960565b005b6102f360048036038101906102ee9190612869565b610a02565b005b61030f600480360381019061030a9190612a19565b610a22565b005b61032b60048036038101906103269190612a19565b610a7e565b60405161033891906131f9565b60405180910390f35b610349610aef565b6040516103569190612f1c565b60405180910390f35b61037960048036038101906103749190612a19565b610b06565b6040516103869190612e55565b60405180910390f35b6103a960048036038101906103a491906127fc565b610bb8565b6040516103b691906131f9565b60405180910390f35b6103c7610c70565b005b6103e360048036038101906103de919061297f565b610cf8565b005b6103ed610e1b565b005b6103f7610ea1565b6040516104049190612e55565b60405180910390f35b610415610ecb565b6040516104229190612f37565b60405180910390f35b6104456004803603810190610440919061293f565b610f5d565b005b610461600480360381019061045c91906128bc565b610f73565b005b61047d60048036038101906104789190612a19565b610fd5565b60405161048a9190612f37565b60405180910390f35b6104ad60048036038101906104a89190612829565b61107c565b6040516104ba9190612f1c565b60405180910390f35b6104dd60048036038101906104d891906127fc565b611110565b005b60006104ea82611208565b9050919050565b60606000805461050090613430565b80601f016020809104026020016040519081016040528092919081815260200182805461052c90613430565b80156105795780601f1061054e57610100808354040283529160200191610579565b820191906000526020600020905b81548152906001019060200180831161055c57829003601f168201915b5050505050905090565b600061058e82611282565b6105cd576040517f08c379a00000000000000000000000000000000000000000000000000000000081526004016105c490613119565b60405180910390fd5b6004600083815260200190815260200160002060009054906101000a900473ffffffffffffffffffffffffffffffffffffffff169050919050565b600061061382610b06565b90508073ffffffffffffffffffffffffffffffffffffffff168373ffffffffffffffffffffffffffffffffffffffff161415610684576040517f08c379a000000000000000000000000000000000000000000000000000000000815260040161067b90613179565b60405180910390fd5b8073ffffffffffffffffffffffffffffffffffffffff166106a36112ee565b73ffffffffffffffffffffffffffffffffffffffff1614806106d257506106d1816106cc6112ee565b61107c565b5b610711576040517f08c379a000000000000000000000000000000000000000000000000000000000815260040161070890613099565b60405180910390fd5b61071b83836112f6565b505050565b6000600880549050905090565b61073e6107386112ee565b826113af565b61077d576040517f08c379a000000000000000000000000000000000000000000000000000000000815260040161077490613199565b60405180910390fd5b61078883838361148d565b505050565b600061079883610bb8565b82106107d9576040517f08c379a00000000000000000000000000000000000000000000000000000000081526004016107d090612f79565b60405180910390fd5b600660008473ffffffffffffffffffffffffffffffffffffffff1673ffffffffffffffffffffffffffffffffffffffff168152602001908152602001600020600083815260200190815260200160002054905092915050565b61083a6112ee565b73ffffffffffffffffffffffffffffffffffffffff16610858610ea1565b73ffffffffffffffffffffffffffffffffffffffff16146108ae576040517f08c379a00000000000000000000000000000000000000000000000000000000081526004016108a590613139565b60405180910390fd5b60005b818110156108d5576108c283610960565b80806108cd90613493565b9150506108b1565b505050565b6108e26112ee565b73ffffffffffffffffffffffffffffffffffffffff16610900610ea1565b73ffffffffffffffffffffffffffffffffffffffff1614610956576040517f08c379a000000000000000000000000000000000000000000000000000000000815260040161094d90613139565b60405180910390fd5b61095e6116f4565b565b6109686112ee565b73ffffffffffffffffffffffffffffffffffffffff16610986610ea1565b73ffffffffffffffffffffffffffffffffffffffff16146109dc576040517f08c379a00000000000000000000000000000000000000000000000000000000081526004016109d390613139565b60405180910390fd5b60006109e8600b611796565b90506109f4600b6117a4565b6109fe82826117ba565b5050565b610a1d83838360405180602001604052806000815250610f73565b505050565b610a33610a2d6112ee565b826113af565b610a72576040517f08c379a0000000000000000000000000000000000000000000000000000000008152600401610a69906131d9565b60405180910390fd5b610a7b816117d8565b50565b6000610a88610720565b8210610ac9576040517f08c379a0000000000000000000000000000000000000000000000000000000008152600401610ac0906131b9565b60405180910390fd5b60088281548110610add57610adc6135c9565b5b90600052602060002001549050919050565b6000600a60009054906101000a900460ff16905090565b6000806002600084815260200190815260200160002060009054906101000a900473ffffffffffffffffffffffffffffffffffffffff169050600073ffffffffffffffffffffffffffffffffffffffff168173ffffffffffffffffffffffffffffffffffffffff161415610baf576040517f08c379a0000000000000000000000000000000000000000000000000000000008152600401610ba6906130d9565b60405180910390fd5b80915050919050565b60008073ffffffffffffffffffffffffffffffffffffffff168273ffffffffffffffffffffffffffffffffffffffff161415610c29576040517f08c379a0000000000000000000000000000000000000000000000000000000008152600401610c20906130b9565b60405180910390fd5b600360008373ffffffffffffffffffffffffffffffffffffffff1673ffffffffffffffffffffffffffffffffffffffff168152602001908152602001600020549050919050565b610c786112ee565b73ffffffffffffffffffffffffffffffffffffffff16610c96610ea1565b73ffffffffffffffffffffffffffffffffffffffff1614610cec576040517f08c379a0000000000000000000000000000000000000000000000000000000008152600401610ce390613139565b60405180910390fd5b610cf660006118f5565b565b60005b81811015610e165760003073ffffffffffffffffffffffffffffffffffffffff16632f745c593360006040518363ffffffff1660e01b8152600401610d41929190612ef3565b60206040518083038186803b158015610d5957600080fd5b505afa158015610d6d573d6000803e3d6000fd5b505050506040513d601f19601f82011682018060405250810190610d919190612a46565b90503073ffffffffffffffffffffffffffffffffffffffff166323b872dd3386846040518463ffffffff1660e01b8152600401610dd093929190612e70565b600060405180830381600087803b158015610dea57600080fd5b505af1158015610dfe573d6000803e3d6000fd5b50505050508080610e0e90613493565b915050610cfb565b505050565b610e236112ee565b73ffffffffffffffffffffffffffffffffffffffff16610e41610ea1565b73ffffffffffffffffffffffffffffffffffffffff1614610e97576040517f08c379a0000000000000000000000000000000000000000000000000000000008152600401610e8e90613139565b60405180910390fd5b610e9f6119bb565b565b6000600a60019054906101000a900473ffffffffffffffffffffffffffffffffffffffff16905090565b606060018054610eda90613430565b80601f0160208091040260200160405190810160405280929190818152602001828054610f0690613430565b8015610f535780601f10610f2857610100808354040283529160200191610f53565b820191906000526020600020905b815481529060010190602001808311610f3657829003601f168201915b5050505050905090565b610f6f610f686112ee565b8383611a5e565b5050565b610f84610f7e6112ee565b836113af565b610fc3576040517f08c379a0000000000000000000000000000000000000000000000000000000008152600401610fba90613199565b60405180910390fd5b610fcf84848484611bcb565b50505050565b6060610fe082611282565b61101f576040517f08c379a000000000000000000000000000000000000000000000000000000000815260040161101690613159565b60405180910390fd5b6000611029611c27565b905060008151116110495760405180602001604052806000815250611074565b8061105384611c3e565b604051602001611064929190612e31565b6040516020818303038152906040525b915050919050565b6000600560008473ffffffffffffffffffffffffffffffffffffffff1673ffffffffffffffffffffffffffffffffffffffff16815260200190815260200160002060008373ffffffffffffffffffffffffffffffffffffffff1673ffffffffffffffffffffffffffffffffffffffff16815260200190815260200160002060009054906101000a900460ff16905092915050565b6111186112ee565b73ffffffffffffffffffffffffffffffffffffffff16611136610ea1565b73ffffffffffffffffffffffffffffffffffffffff161461118c576040517f08c379a000000000000000000000000000000000000000000000000000000000815260040161118390613139565b60405180910390fd5b600073ffffffffffffffffffffffffffffffffffffffff168173ffffffffffffffffffffffffffffffffffffffff1614156111fc576040517f08c379a00000000000000000000000000000000000000000000000000000000081526004016111f390612fb9565b60405180910390fd5b611205816118f5565b50565b60007f780e9d63000000000000000000000000000000000000000000000000000000007bffffffffffffffffffffffffffffffffffffffffffffffffffffffff1916827bffffffffffffffffffffffffffffffffffffffffffffffffffffffff1916148061127b575061127a82611d9f565b5b9050919050565b60008073ffffffffffffffffffffffffffffffffffffffff166002600084815260200190815260200160002060009054906101000a900473ffffffffffffffffffffffffffffffffffffffff1673ffffffffffffffffffffffffffffffffffffffff1614159050919050565b600033905090565b816004600083815260200190815260200160002060006101000a81548173ffffffffffffffffffffffffffffffffffffffff021916908373ffffffffffffffffffffffffffffffffffffffff160217905550808273ffffffffffffffffffffffffffffffffffffffff1661136983610b06565b73ffffffffffffffffffffffffffffffffffffffff167f8c5be1e5ebec7d5bd14f71427d1e84f3dd0314c0f7b2291e5b200ac8c7c3b92560405160405180910390a45050565b60006113ba82611282565b6113f9576040517f08c379a00000000000000000000000000000000000000000000000000000000081526004016113f090613059565b60405180910390fd5b600061140483610b06565b90508073ffffffffffffffffffffffffffffffffffffffff168473ffffffffffffffffffffffffffffffffffffffff1614806114465750611445818561107c565b5b8061148457508373ffffffffffffffffffffffffffffffffffffffff1661146c84610583565b73ffffffffffffffffffffffffffffffffffffffff16145b91505092915050565b8273ffffffffffffffffffffffffffffffffffffffff166114ad82610b06565b73ffffffffffffffffffffffffffffffffffffffff1614611503576040517f08c379a00000000000000000000000000000000000000000000000000000000081526004016114fa90612fd9565b60405180910390fd5b600073ffffffffffffffffffffffffffffffffffffffff168273ffffffffffffffffffffffffffffffffffffffff161415611573576040517f08c379a000000000000000000000000000000000000000000000000000000000815260040161156a90613019565b60405180910390fd5b61157e838383611e81565b6115896000826112f6565b6001600360008573ffffffffffffffffffffffffffffffffffffffff1673ffffffffffffffffffffffffffffffffffffffff16815260200190815260200160002060008282546115d99190613334565b925050819055506001600360008473ffffffffffffffffffffffffffffffffffffffff1673ffffffffffffffffffffffffffffffffffffffff168152602001908152602001600020600082825461163091906132ad565b92505081905550816002600083815260200190815260200160002060006101000a81548173ffffffffffffffffffffffffffffffffffffffff021916908373ffffffffffffffffffffffffffffffffffffffff160217905550808273ffffffffffffffffffffffffffffffffffffffff168473ffffffffffffffffffffffffffffffffffffffff167fddf252ad1be2c89b69c2b068fc378daa952ba7f163c4a11628f55a4df523b3ef60405160405180910390a46116ef838383611e91565b505050565b6116fc610aef565b61173b576040517f08c379a000000000000000000000000000000000000000000000000000000000815260040161173290612f59565b60405180910390fd5b6000600a60006101000a81548160ff0219169083151502179055507f5db9ee0a495bf2e6ff9c91a7834c1ba4fdd244a5e8aa4e537bd38aeae4b073aa61177f6112ee565b60405161178c9190612e55565b60405180910390a1565b600081600001549050919050565b6001816000016000828254019250508190555050565b6117d4828260405180602001604052806000815250611e96565b5050565b60006117e382610b06565b90506117f181600084611e81565b6117fc6000836112f6565b6001600360008373ffffffffffffffffffffffffffffffffffffffff1673ffffffffffffffffffffffffffffffffffffffff168152602001908152602001600020600082825461184c9190613334565b925050819055506002600083815260200190815260200160002060006101000a81549073ffffffffffffffffffffffffffffffffffffffff021916905581600073ffffffffffffffffffffffffffffffffffffffff168273ffffffffffffffffffffffffffffffffffffffff167fddf252ad1be2c89b69c2b068fc378daa952ba7f163c4a11628f55a4df523b3ef60405160405180910390a46118f181600084611e91565b5050565b6000600a60019054906101000a900473ffffffffffffffffffffffffffffffffffffffff16905081600a60016101000a81548173ffffffffffffffffffffffffffffffffffffffff021916908373ffffffffffffffffffffffffffffffffffffffff1602179055508173ffffffffffffffffffffffffffffffffffffffff168173ffffffffffffffffffffffffffffffffffffffff167f8be0079c531659141344cd1fd0a4f28419497f9722a3daafe3b4186f6b6457e060405160405180910390a35050565b6119c3610aef565b15611a03576040517f08c379a00000000000000000000000000000000000000000000000000000000081526004016119fa90613079565b60405180910390fd5b6001600a60006101000a81548160ff0219169083151502179055507f62e78cea01bee320cd4e420270b5ea74000d11b0c9f74754ebdbfc544b05a258611a476112ee565b604051611a549190612e55565b60405180910390a1565b8173ffffffffffffffffffffffffffffffffffffffff168373ffffffffffffffffffffffffffffffffffffffff161415611acd576040517f08c379a0000000000000000000000000000000000000000000000000000000008152600401611ac490613039565b60405180910390fd5b80600560008573ffffffffffffffffffffffffffffffffffffffff1673ffffffffffffffffffffffffffffffffffffffff16815260200190815260200160002060008473ffffffffffffffffffffffffffffffffffffffff1673ffffffffffffffffffffffffffffffffffffffff16815260200190815260200160002060006101000a81548160ff0219169083151502179055508173ffffffffffffffffffffffffffffffffffffffff168373ffffffffffffffffffffffffffffffffffffffff167f17307eab39ab6107e8899845ad3d59bd9653f200f220920489ca2b5937696c3183604051611bbe9190612f1c565b60405180910390a3505050565b611bd684848461148d565b611be284848484611ef1565b611c21576040517f08c379a0000000000000000000000000000000000000000000000000000000008152600401611c1890612f99565b60405180910390fd5b50505050565b606060405180602001604052806000815250905090565b60606000821415611c86576040518060400160405280600181526020017f30000000000000000000000000000000000000000000000000000000000000008152509050611d9a565b600082905060005b60008214611cb8578080611ca190613493565b915050600a82611cb19190613303565b9150611c8e565b60008167ffffffffffffffff811115611cd457611cd36135f8565b5b6040519080825280601f01601f191660200182016040528015611d065781602001600182028036833780820191505090505b5090505b60008514611d9357600182611d1f9190613334565b9150600a85611d2e91906134dc565b6030611d3a91906132ad565b60f81b818381518110611d5057611d4f6135c9565b5b60200101907effffffffffffffffffffffffffffffffffffffffffffffffffffffffffffff1916908160001a905350600a85611d8c9190613303565b9450611d0a565b8093505050505b919050565b60007f80ac58cd000000000000000000000000000000000000000000000000000000007bffffffffffffffffffffffffffffffffffffffffffffffffffffffff1916827bffffffffffffffffffffffffffffffffffffffffffffffffffffffff19161480611e6a57507f5b5e139f000000000000000000000000000000000000000000000000000000007bffffffffffffffffffffffffffffffffffffffffffffffffffffffff1916827bffffffffffffffffffffffffffffffffffffffffffffffffffffffff1916145b80611e7a5750611e7982612088565b5b9050919050565b611e8c8383836120f2565b505050565b505050565b611ea08383612206565b611ead6000848484611ef1565b611eec576040517f08c379a0000000000000000000000000000000000000000000000000000000008152600401611ee390612f99565b60405180910390fd5b505050565b6000611f128473ffffffffffffffffffffffffffffffffffffffff166123e0565b1561207b578373ffffffffffffffffffffffffffffffffffffffff1663150b7a02611f3b6112ee565b8786866040518563ffffffff1660e01b8152600401611f5d9493929190612ea7565b602060405180830381600087803b158015611f7757600080fd5b505af1925050508015611fa857506040513d601f19601f82011682018060405250810190611fa591906129ec565b60015b61202b573d8060008114611fd8576040519150601f19603f3d011682016040523d82523d6000602084013e611fdd565b606091505b50600081511415612023576040517f08c379a000000000000000000000000000000000000000000000000000000000815260040161201a90612f99565b60405180910390fd5b805181602001fd5b63150b7a0260e01b7bffffffffffffffffffffffffffffffffffffffffffffffffffffffff1916817bffffffffffffffffffffffffffffffffffffffffffffffffffffffff191614915050612080565b600190505b949350505050565b60007f01ffc9a7000000000000000000000000000000000000000000000000000000007bffffffffffffffffffffffffffffffffffffffffffffffffffffffff1916827bffffffffffffffffffffffffffffffffffffffffffffffffffffffff1916149050919050565b6120fd838383612403565b600073ffffffffffffffffffffffffffffffffffffffff168373ffffffffffffffffffffffffffffffffffffffff1614156121405761213b81612408565b61217f565b8173ffffffffffffffffffffffffffffffffffffffff168373ffffffffffffffffffffffffffffffffffffffff161461217e5761217d8382612451565b5b5b600073ffffffffffffffffffffffffffffffffffffffff168273ffffffffffffffffffffffffffffffffffffffff1614156121c2576121bd816125be565b612201565b8273ffffffffffffffffffffffffffffffffffffffff168273ffffffffffffffffffffffffffffffffffffffff1614612200576121ff828261268f565b5b5b505050565b600073ffffffffffffffffffffffffffffffffffffffff168273ffffffffffffffffffffffffffffffffffffffff161415612276576040517f08c379a000000000000000000000000000000000000000000000000000000000815260040161226d906130f9565b60405180910390fd5b61227f81611282565b156122bf576040517f08c379a00000000000000000000000000000000000000000000000000000000081526004016122b690612ff9565b60405180910390fd5b6122cb60008383611e81565b6001600360008473ffffffffffffffffffffffffffffffffffffffff1673ffffffffffffffffffffffffffffffffffffffff168152602001908152602001600020600082825461231b91906132ad565b92505081905550816002600083815260200190815260200160002060006101000a81548173ffffffffffffffffffffffffffffffffffffffff021916908373ffffffffffffffffffffffffffffffffffffffff160217905550808273ffffffffffffffffffffffffffffffffffffffff16600073ffffffffffffffffffffffffffffffffffffffff167fddf252ad1be2c89b69c2b068fc378daa952ba7f163c4a11628f55a4df523b3ef60405160405180910390a46123dc60008383611e91565b5050565b6000808273ffffffffffffffffffffffffffffffffffffffff163b119050919050565b505050565b6008805490506009600083815260200190815260200160002081905550600881908060018154018082558091505060019003906000526020600020016000909190919091505550565b6000600161245e84610bb8565b6124689190613334565b905060006007600084815260200190815260200160002054905081811461254d576000600660008673ffffffffffffffffffffffffffffffffffffffff1673ffffffffffffffffffffffffffffffffffffffff168152602001908152602001600020600084815260200190815260200160002054905080600660008773ffffffffffffffffffffffffffffffffffffffff1673ffffffffffffffffffffffffffffffffffffffff168152602001908152602001600020600084815260200190815260200160002081905550816007600083815260200190815260200160002081905550505b6007600084815260200190815260200160002060009055600660008573ffffffffffffffffffffffffffffffffffffffff1673ffffffffffffffffffffffffffffffffffffffff16815260200190815260200160002060008381526020019081526020016000206000905550505050565b600060016008805490506125d29190613334565b9050600060096000848152602001908152602001600020549050600060088381548110612602576126016135c9565b5b906000526020600020015490508060088381548110612624576126236135c9565b5b9060005260206000200181905550816009600083815260200190815260200160002081905550600960008581526020019081526020016000206000905560088054806126735761267261359a565b5b6001900381819060005260206000200160009055905550505050565b600061269a83610bb8565b905081600660008573ffffffffffffffffffffffffffffffffffffffff1673ffffffffffffffffffffffffffffffffffffffff168152602001908152602001600020600083815260200190815260200160002081905550806007600084815260200190815260200160002081905550505050565b600061272161271c84613239565b613214565b90508281526020810184848401111561273d5761273c61362c565b5b6127488482856133ee565b509392505050565b60008135905061275f81613be3565b92915050565b60008135905061277481613bfa565b92915050565b60008135905061278981613c11565b92915050565b60008151905061279e81613c11565b92915050565b600082601f8301126127b9576127b8613627565b5b81356127c984826020860161270e565b91505092915050565b6000813590506127e181613c28565b92915050565b6000815190506127f681613c28565b92915050565b60006020828403121561281257612811613636565b5b600061282084828501612750565b91505092915050565b600080604083850312156128405761283f613636565b5b600061284e85828601612750565b925050602061285f85828601612750565b9150509250929050565b60008060006060848603121561288257612881613636565b5b600061289086828701612750565b93505060206128a186828701612750565b92505060406128b2868287016127d2565b9150509250925092565b600080600080608085870312156128d6576128d5613636565b5b60006128e487828801612750565b94505060206128f587828801612750565b9350506040612906878288016127d2565b925050606085013567ffffffffffffffff81111561292757612926613631565b5b612933878288016127a4565b91505092959194509250565b6000806040838503121561295657612955613636565b5b600061296485828601612750565b925050602061297585828601612765565b9150509250929050565b6000806040838503121561299657612995613636565b5b60006129a485828601612750565b92505060206129b5858286016127d2565b9150509250929050565b6000602082840312156129d5576129d4613636565b5b60006129e38482850161277a565b91505092915050565b600060208284031215612a0257612a01613636565b5b6000612a108482850161278f565b91505092915050565b600060208284031215612a2f57612a2e613636565b5b6000612a3d848285016127d2565b91505092915050565b600060208284031215612a5c57612a5b613636565b5b6000612a6a848285016127e7565b91505092915050565b612a7c81613368565b82525050565b612a8b8161337a565b82525050565b6000612a9c8261326a565b612aa68185613280565b9350612ab68185602086016133fd565b612abf8161363b565b840191505092915050565b612ad3816133dc565b82525050565b6000612ae482613275565b612aee8185613291565b9350612afe8185602086016133fd565b612b078161363b565b840191505092915050565b6000612b1d82613275565b612b2781856132a2565b9350612b378185602086016133fd565b80840191505092915050565b6000612b50601483613291565b9150612b5b8261364c565b602082019050919050565b6000612b73602b83613291565b9150612b7e82613675565b604082019050919050565b6000612b96603283613291565b9150612ba1826136c4565b604082019050919050565b6000612bb9602683613291565b9150612bc482613713565b604082019050919050565b6000612bdc602583613291565b9150612be782613762565b604082019050919050565b6000612bff601c83613291565b9150612c0a826137b1565b602082019050919050565b6000612c22602483613291565b9150612c2d826137da565b604082019050919050565b6000612c45601983613291565b9150612c5082613829565b602082019050919050565b6000612c68602c83613291565b9150612c7382613852565b604082019050919050565b6000612c8b601083613291565b9150612c96826138a1565b602082019050919050565b6000612cae603883613291565b9150612cb9826138ca565b604082019050919050565b6000612cd1602a83613291565b9150612cdc82613919565b604082019050919050565b6000612cf4602983613291565b9150612cff82613968565b604082019050919050565b6000612d17602083613291565b9150612d22826139b7565b602082019050919050565b6000612d3a602c83613291565b9150612d45826139e0565b604082019050919050565b6000612d5d602083613291565b9150612d6882613a2f565b602082019050919050565b6000612d80602f83613291565b9150612d8b82613a58565b604082019050919050565b6000612da3602183613291565b9150612dae82613aa7565b604082019050919050565b6000612dc6603183613291565b9150612dd182613af6565b604082019050919050565b6000612de9602c83613291565b9150612df482613b45565b604082019050919050565b6000612e0c603083613291565b9150612e1782613b94565b604082019050919050565b612e2b816133d2565b82525050565b6000612e3d8285612b12565b9150612e498284612b12565b91508190509392505050565b6000602082019050612e6a6000830184612a73565b92915050565b6000606082019050612e856000830186612a73565b612e926020830185612a73565b612e9f6040830184612e22565b949350505050565b6000608082019050612ebc6000830187612a73565b612ec96020830186612a73565b612ed66040830185612e22565b8181036060830152612ee88184612a91565b905095945050505050565b6000604082019050612f086000830185612a73565b612f156020830184612aca565b9392505050565b6000602082019050612f316000830184612a82565b92915050565b60006020820190508181036000830152612f518184612ad9565b905092915050565b60006020820190508181036000830152612f7281612b43565b9050919050565b60006020820190508181036000830152612f9281612b66565b9050919050565b60006020820190508181036000830152612fb281612b89565b9050919050565b60006020820190508181036000830152612fd281612bac565b9050919050565b60006020820190508181036000830152612ff281612bcf565b9050919050565b6000602082019050818103600083015261301281612bf2565b9050919050565b6000602082019050818103600083015261303281612c15565b9050919050565b6000602082019050818103600083015261305281612c38565b9050919050565b6000602082019050818103600083015261307281612c5b565b9050919050565b6000602082019050818103600083015261309281612c7e565b9050919050565b600060208201905081810360008301526130b281612ca1565b9050919050565b600060208201905081810360008301526130d281612cc4565b9050919050565b600060208201905081810360008301526130f281612ce7565b9050919050565b6000602082019050818103600083015261311281612d0a565b9050919050565b6000602082019050818103600083015261313281612d2d565b9050919050565b6000602082019050818103600083015261315281612d50565b9050919050565b6000602082019050818103600083015261317281612d73565b9050919050565b6000602082019050818103600083015261319281612d96565b9050919050565b600060208201905081810360008301526131b281612db9565b9050919050565b600060208201905081810360008301526131d281612ddc565b9050919050565b600060208201905081810360008301526131f281612dff565b9050919050565b600060208201905061320e6000830184612e22565b92915050565b600061321e61322f565b905061322a8282613462565b919050565b6000604051905090565b600067ffffffffffffffff821115613254576132536135f8565b5b61325d8261363b565b9050602081019050919050565b600081519050919050565b600081519050919050565b600082825260208201905092915050565b600082825260208201905092915050565b600081905092915050565b60006132b8826133d2565b91506132c3836133d2565b9250827fffffffffffffffffffffffffffffffffffffffffffffffffffffffffffffffff038211156132f8576132f761350d565b5b828201905092915050565b600061330e826133d2565b9150613319836133d2565b9250826133295761332861353c565b5b828204905092915050565b600061333f826133d2565b915061334a836133d2565b92508282101561335d5761335c61350d565b5b828203905092915050565b6000613373826133b2565b9050919050565b60008115159050919050565b60007fffffffff0000000000000000000000000000000000000000000000000000000082169050919050565b600073ffffffffffffffffffffffffffffffffffffffff82169050919050565b6000819050919050565b60006133e7826133d2565b9050919050565b82818337600083830152505050565b60005b8381101561341b578082015181840152602081019050613400565b8381111561342a576000848401525b50505050565b6000600282049050600182168061344857607f821691505b6020821081141561345c5761345b61356b565b5b50919050565b61346b8261363b565b810181811067ffffffffffffffff8211171561348a576134896135f8565b5b80604052505050565b600061349e826133d2565b91507fffffffffffffffffffffffffffffffffffffffffffffffffffffffffffffffff8214156134d1576134d061350d565b5b600182019050919050565b60006134e7826133d2565b91506134f2836133d2565b9250826135025761350161353c565b5b828206905092915050565b7f4e487b7100000000000000000000000000000000000000000000000000000000600052601160045260246000fd5b7f4e487b7100000000000000000000000000000000000000000000000000000000600052601260045260246000fd5b7f4e487b7100000000000000000000000000000000000000000000000000000000600052602260045260246000fd5b7f4e487b7100000000000000000000000000000000000000000000000000000000600052603160045260246000fd5b7f4e487b7100000000000000000000000000000000000000000000000000000000600052603260045260246000fd5b7f4e487b7100000000000000000000000000000000000000000000000000000000600052604160045260246000fd5b600080fd5b600080fd5b600080fd5b600080fd5b6000601f19601f8301169050919050565b7f5061757361626c653a206e6f7420706175736564000000000000000000000000600082015250565b7f455243373231456e756d657261626c653a206f776e657220696e646578206f7560008201527f74206f6620626f756e6473000000000000000000000000000000000000000000602082015250565b7f4552433732313a207472616e7366657220746f206e6f6e20455243373231526560008201527f63656976657220696d706c656d656e7465720000000000000000000000000000602082015250565b7f4f776e61626c653a206e6577206f776e657220697320746865207a65726f206160008201527f6464726573730000000000000000000000000000000000000000000000000000602082015250565b7f4552433732313a207472616e736665722066726f6d20696e636f72726563742060008201527f6f776e6572000000000000000000000000000000000000000000000000000000602082015250565b7f4552433732313a20746f6b656e20616c7265616479206d696e74656400000000600082015250565b7f4552433732313a207472616e7366657220746f20746865207a65726f2061646460008201527f7265737300000000000000000000000000000000000000000000000000000000602082015250565b7f4552433732313a20617070726f766520746f2063616c6c657200000000000000600082015250565b7f4552433732313a206f70657261746f7220717565727920666f72206e6f6e657860008201527f697374656e7420746f6b656e0000000000000000000000000000000000000000602082015250565b7f5061757361626c653a2070617573656400000000000000000000000000000000600082015250565b7f4552433732313a20617070726f76652063616c6c6572206973206e6f74206f7760008201527f6e6572206e6f7220617070726f76656420666f7220616c6c0000000000000000602082015250565b7f4552433732313a2062616c616e636520717565727920666f7220746865207a6560008201527f726f206164647265737300000000000000000000000000000000000000000000602082015250565b7f4552433732313a206f776e657220717565727920666f72206e6f6e657869737460008201527f656e7420746f6b656e0000000000000000000000000000000000000000000000602082015250565b7f4552433732313a206d696e7420746f20746865207a65726f2061646472657373600082015250565b7f4552433732313a20617070726f76656420717565727920666f72206e6f6e657860008201527f697374656e7420746f6b656e0000000000000000000000000000000000000000602082015250565b7f4f776e61626c653a2063616c6c6572206973206e6f7420746865206f776e6572600082015250565b7f4552433732314d657461646174613a2055524920717565727920666f72206e6f60008201527f6e6578697374656e7420746f6b656e0000000000000000000000000000000000602082015250565b7f4552433732313a20617070726f76616c20746f2063757272656e74206f776e6560008201527f7200000000000000000000000000000000000000000000000000000000000000602082015250565b7f4552433732313a207472616e736665722063616c6c6572206973206e6f74206f60008201527f776e6572206e6f7220617070726f766564000000000000000000000000000000602082015250565b7f455243373231456e756d657261626c653a20676c6f62616c20696e646578206f60008201527f7574206f6620626f756e64730000000000000000000000000000000000000000602082015250565b7f4552433732314275726e61626c653a2063616c6c6572206973206e6f74206f7760008201527f6e6572206e6f7220617070726f76656400000000000000000000000000000000602082015250565b613bec81613368565b8114613bf757600080fd5b50565b613c038161337a565b8114613c0e57600080fd5b50565b613c1a81613386565b8114613c2557600080fd5b50565b613c31816133d2565b8114613c3c57600080fd5b5056fea2646970667358221220aa9a387de176b0e4db22d4aeca1b46bf614bceb5cd463ef46f8ede6ee67505b064736f6c63430008070033",
  "linkReferences": {},
  "deployedLinkReferences": {}
}