{
  "_format": "hh-sol-artifact-1",
  "contractName": "RunTogetherPool",
  "sourceName": "contracts/RunTogetherPool.sol",
  "abi": [
    {
      "inputs": [
        {
          "internalType": "address",
          "name": "_stakedToken",
          "type": "address"
        },
        {
          "internalType": "address",
          "name": "_rewardToken",
          "type": "address"
        },
        {
          "internalType": "address",
          "name": "_devWallet",
          "type": "address"
        },
        {
          "internalType": "address",
          "name": "_feeWallet",
          "type": "address"
        }
      ],
      "stateMutability": "nonpayable",
      "type": "constructor"
    },
    {
      "anonymous": false,
      "inputs": [
        {
          "indexed": true,
          "internalType": "address",
          "name": "user",
          "type": "address"
        },
        {
          "indexed": false,
          "internalType": "uint256",
          "name": "amount",
          "type": "uint256"
        }
      ],
      "name": "Deposit",
      "type": "event"
    },
    {
      "anonymous": false,
      "inputs": [
        {
          "indexed": true,
          "internalType": "address",
          "name": "user",
          "type": "address"
        },
        {
          "indexed": false,
          "internalType": "uint256",
          "name": "amount",
          "type": "uint256"
        }
      ],
      "name": "EmergencyWithdraw",
      "type": "event"
    },
    {
      "anonymous": false,
      "inputs": [
        {
          "indexed": true,
          "internalType": "address",
          "name": "previousOwner",
          "type": "address"
        },
        {
          "indexed": true,
          "internalType": "address",
          "name": "newOwner",
          "type": "address"
        }
      ],
      "name": "OwnershipTransferred",
      "type": "event"
    },
    {
      "anonymous": false,
      "inputs": [
        {
          "indexed": true,
          "internalType": "address",
          "name": "user",
          "type": "address"
        },
        {
          "indexed": false,
          "internalType": "uint256",
          "name": "amount",
          "type": "uint256"
        }
      ],
      "name": "Reward",
      "type": "event"
    },
    {
      "anonymous": false,
      "inputs": [
        {
          "indexed": true,
          "internalType": "address",
          "name": "user",
          "type": "address"
        },
        {
          "indexed": false,
          "internalType": "uint256",
          "name": "amount",
          "type": "uint256"
        }
      ],
      "name": "Withdraw",
      "type": "event"
    },
    {
      "inputs": [],
      "name": "baseRate",
      "outputs": [
        {
          "internalType": "uint256",
          "name": "",
          "type": "uint256"
        }
      ],
      "stateMutability": "view",
      "type": "function"
    },
    {
      "inputs": [
        {
          "internalType": "address",
          "name": "",
          "type": "address"
        }
      ],
      "name": "blacklistMap",
      "outputs": [
        {
          "internalType": "bool",
          "name": "",
          "type": "bool"
        }
      ],
      "stateMutability": "view",
      "type": "function"
    },
    {
      "inputs": [],
      "name": "blockPerYear",
      "outputs": [
        {
          "internalType": "uint256",
          "name": "",
          "type": "uint256"
        }
      ],
      "stateMutability": "view",
      "type": "function"
    },
    {
      "inputs": [
        {
          "internalType": "uint256",
          "name": "principal",
          "type": "uint256"
        },
        {
          "internalType": "uint256",
          "name": "ratio",
          "type": "uint256"
        },
        {
          "internalType": "uint256",
          "name": "totalBlock",
          "type": "uint256"
        }
      ],
      "name": "compound",
      "outputs": [
        {
          "internalType": "uint256",
          "name": "",
          "type": "uint256"
        }
      ],
      "stateMutability": "view",
      "type": "function"
    },
    {
      "inputs": [],
      "name": "compoundRate",
      "outputs": [
        {
          "internalType": "uint256",
          "name": "",
          "type": "uint256"
        }
      ],
      "stateMutability": "view",
      "type": "function"
    },
    {
      "inputs": [
        {
          "internalType": "uint256",
          "name": "_amount",
          "type": "uint256"
        }
      ],
      "name": "deposit",
      "outputs": [],
      "stateMutability": "nonpayable",
      "type": "function"
    },
    {
      "inputs": [],
      "name": "devWallet",
      "outputs": [
        {
          "internalType": "address",
          "name": "",
          "type": "address"
        }
      ],
      "stateMutability": "view",
      "type": "function"
    },
    {
      "inputs": [],
      "name": "emergencyRewardWithdraw",
      "outputs": [],
      "stateMutability": "nonpayable",
      "type": "function"
    },
    {
      "inputs": [],
      "name": "emergencyWithdraw",
      "outputs": [],
      "stateMutability": "nonpayable",
      "type": "function"
    },
    {
      "inputs": [],
      "name": "endBlock",
      "outputs": [
        {
          "internalType": "uint256",
          "name": "",
          "type": "uint256"
        }
      ],
      "stateMutability": "view",
      "type": "function"
    },
    {
      "inputs": [],
      "name": "endTime",
      "outputs": [
        {
          "internalType": "uint256",
          "name": "",
          "type": "uint256"
        }
      ],
      "stateMutability": "view",
      "type": "function"
    },
    {
      "inputs": [
        {
          "internalType": "uint256",
          "name": "",
          "type": "uint256"
        }
      ],
      "name": "feeUnstake",
      "outputs": [
        {
          "internalType": "uint256",
          "name": "",
          "type": "uint256"
        }
      ],
      "stateMutability": "view",
      "type": "function"
    },
    {
      "inputs": [
        {
          "internalType": "uint256",
          "name": "",
          "type": "uint256"
        }
      ],
      "name": "feeUnstakeDuration",
      "outputs": [
        {
          "internalType": "uint256",
          "name": "",
          "type": "uint256"
        }
      ],
      "stateMutability": "view",
      "type": "function"
    },
    {
      "inputs": [],
      "name": "feeWallet",
      "outputs": [
        {
          "internalType": "address",
          "name": "",
          "type": "address"
        }
      ],
      "stateMutability": "view",
      "type": "function"
    },
    {
      "inputs": [],
      "name": "isCompound",
      "outputs": [
        {
          "internalType": "bool",
          "name": "",
          "type": "bool"
        }
      ],
      "stateMutability": "view",
      "type": "function"
    },
    {
      "inputs": [],
      "name": "isPause",
      "outputs": [
        {
          "internalType": "bool",
          "name": "",
          "type": "bool"
        }
      ],
      "stateMutability": "view",
      "type": "function"
    },
    {
      "inputs": [],
      "name": "lockStakeDuration",
      "outputs": [
        {
          "internalType": "uint256",
          "name": "",
          "type": "uint256"
        }
      ],
      "stateMutability": "view",
      "type": "function"
    },
    {
      "inputs": [],
      "name": "minBlock",
      "outputs": [
        {
          "internalType": "uint256",
          "name": "",
          "type": "uint256"
        }
      ],
      "stateMutability": "view",
      "type": "function"
    },
    {
      "inputs": [],
      "name": "owner",
      "outputs": [
        {
          "internalType": "address",
          "name": "",
          "type": "address"
        }
      ],
      "stateMutability": "view",
      "type": "function"
    },
    {
      "inputs": [
        {
          "internalType": "address",
          "name": "_user",
          "type": "address"
        }
      ],
      "name": "pendingReward",
      "outputs": [
        {
          "internalType": "uint256",
          "name": "_totalGain",
          "type": "uint256"
        }
      ],
      "stateMutability": "view",
      "type": "function"
    },
    {
      "inputs": [
        {
          "internalType": "int128",
          "name": "x",
          "type": "int128"
        },
        {
          "internalType": "uint256",
          "name": "n",
          "type": "uint256"
        }
      ],
      "name": "pow",
      "outputs": [
        {
          "internalType": "int128",
          "name": "r",
          "type": "int128"
        }
      ],
      "stateMutability": "pure",
      "type": "function"
    },
    {
      "inputs": [],
      "name": "rateReward",
      "outputs": [
        {
          "internalType": "uint256",
          "name": "",
          "type": "uint256"
        }
      ],
      "stateMutability": "view",
      "type": "function"
    },
    {
      "inputs": [],
      "name": "rateRewardToken",
      "outputs": [
        {
          "internalType": "uint256",
          "name": "",
          "type": "uint256"
        }
      ],
      "stateMutability": "view",
      "type": "function"
    },
    {
      "inputs": [],
      "name": "rateStakedToken",
      "outputs": [
        {
          "internalType": "uint256",
          "name": "",
          "type": "uint256"
        }
      ],
      "stateMutability": "view",
      "type": "function"
    },
    {
      "inputs": [
        {
          "internalType": "address[]",
          "name": "userList",
          "type": "address[]"
        }
      ],
      "name": "removeBlackList",
      "outputs": [],
      "stateMutability": "nonpayable",
      "type": "function"
    },
    {
      "inputs": [],
      "name": "renounceOwnership",
      "outputs": [],
      "stateMutability": "nonpayable",
      "type": "function"
    },
    {
      "inputs": [],
      "name": "rewardToken",
      "outputs": [
        {
          "internalType": "contract ERC20",
          "name": "",
          "type": "address"
        }
      ],
      "stateMutability": "view",
      "type": "function"
    },
    {
      "inputs": [
        {
          "internalType": "address[]",
          "name": "userList",
          "type": "address[]"
        }
      ],
      "name": "setBlackList",
      "outputs": [],
      "stateMutability": "nonpayable",
      "type": "function"
    },
    {
      "inputs": [
        {
          "internalType": "uint256",
          "name": "_blockPerYear",
          "type": "uint256"
        }
      ],
      "name": "setBlockPerYear",
      "outputs": [],
      "stateMutability": "nonpayable",
      "type": "function"
    },
    {
      "inputs": [
        {
          "internalType": "bool",
          "name": "_status",
          "type": "bool"
        },
        {
          "internalType": "uint256",
          "name": "_compoundRate",
          "type": "uint256"
        }
      ],
      "name": "setCompound",
      "outputs": [],
      "stateMutability": "nonpayable",
      "type": "function"
    },
    {
      "inputs": [
        {
          "internalType": "address",
          "name": "_devWallet",
          "type": "address"
        }
      ],
      "name": "setDevWallet",
      "outputs": [],
      "stateMutability": "nonpayable",
      "type": "function"
    },
    {
      "inputs": [
        {
          "internalType": "uint256[]",
          "name": "_feeUnstake",
          "type": "uint256[]"
        }
      ],
      "name": "setFeeUnstake",
      "outputs": [],
      "stateMutability": "nonpayable",
      "type": "function"
    },
    {
      "inputs": [
        {
          "internalType": "address",
          "name": "_feeWallet",
          "type": "address"
        }
      ],
      "name": "setFeeWallet",
      "outputs": [],
      "stateMutability": "nonpayable",
      "type": "function"
    },
    {
      "inputs": [
        {
          "internalType": "uint256",
          "name": "_minBlock",
          "type": "uint256"
        }
      ],
      "name": "setMinBlock",
      "outputs": [],
      "stateMutability": "nonpayable",
      "type": "function"
    },
    {
      "inputs": [
        {
          "internalType": "bool",
          "name": "_status",
          "type": "bool"
        }
      ],
      "name": "setPauseContract",
      "outputs": [],
      "stateMutability": "nonpayable",
      "type": "function"
    },
    {
      "inputs": [
        {
          "internalType": "uint256",
          "name": "_rateReward",
          "type": "uint256"
        },
        {
          "internalType": "uint256",
          "name": "_rateStakedToken",
          "type": "uint256"
        },
        {
          "internalType": "uint256",
          "name": "_rateRewardToken",
          "type": "uint256"
        }
      ],
      "name": "setRate",
      "outputs": [],
      "stateMutability": "nonpayable",
      "type": "function"
    },
    {
      "inputs": [
        {
          "internalType": "uint256",
          "name": "_startBlock",
          "type": "uint256"
        },
        {
          "internalType": "uint256",
          "name": "_endBlock",
          "type": "uint256"
        }
      ],
      "name": "setStartEndBlockPool",
      "outputs": [],
      "stateMutability": "nonpayable",
      "type": "function"
    },
    {
      "inputs": [
        {
          "internalType": "uint256",
          "name": "_startTime",
          "type": "uint256"
        },
        {
          "internalType": "uint256",
          "name": "_endTime",
          "type": "uint256"
        }
      ],
      "name": "setStartEndTimePool",
      "outputs": [],
      "stateMutability": "nonpayable",
      "type": "function"
    },
    {
      "inputs": [
        {
          "internalType": "uint256",
          "name": "_lockStakeDuration",
          "type": "uint256"
        },
        {
          "internalType": "uint256[]",
          "name": "_feeUnstakeDuration",
          "type": "uint256[]"
        }
      ],
      "name": "setTimeDuration",
      "outputs": [],
      "stateMutability": "nonpayable",
      "type": "function"
    },
    {
      "inputs": [
        {
          "internalType": "address",
          "name": "_stakedToken",
          "type": "address"
        },
        {
          "internalType": "address",
          "name": "_rewardToken",
          "type": "address"
        }
      ],
      "name": "setToken",
      "outputs": [],
      "stateMutability": "nonpayable",
      "type": "function"
    },
    {
      "inputs": [],
      "name": "stakedToken",
      "outputs": [
        {
          "internalType": "contract ERC20",
          "name": "",
          "type": "address"
        }
      ],
      "stateMutability": "view",
      "type": "function"
    },
    {
      "inputs": [],
      "name": "startBlock",
      "outputs": [
        {
          "internalType": "uint256",
          "name": "",
          "type": "uint256"
        }
      ],
      "stateMutability": "view",
      "type": "function"
    },
    {
      "inputs": [],
      "name": "startTime",
      "outputs": [
        {
          "internalType": "uint256",
          "name": "",
          "type": "uint256"
        }
      ],
      "stateMutability": "view",
      "type": "function"
    },
    {
      "inputs": [
        {
          "internalType": "address",
          "name": "newOwner",
          "type": "address"
        }
      ],
      "name": "transferOwnership",
      "outputs": [],
      "stateMutability": "nonpayable",
      "type": "function"
    },
    {
      "inputs": [
        {
          "internalType": "address",
          "name": "",
          "type": "address"
        }
      ],
      "name": "userInfo",
      "outputs": [
        {
          "internalType": "uint256",
          "name": "amount",
          "type": "uint256"
        },
        {
          "internalType": "uint256",
          "name": "stakeBlock",
          "type": "uint256"
        },
        {
          "internalType": "uint256",
          "name": "unstakeLockTime",
          "type": "uint256"
        }
      ],
      "stateMutability": "view",
      "type": "function"
    },
    {
      "inputs": [
        {
          "internalType": "uint256",
          "name": "_amount",
          "type": "uint256"
        },
        {
          "internalType": "address",
          "name": "_user",
          "type": "address"
        }
      ],
      "name": "withdraw",
      "outputs": [],
      "stateMutability": "nonpayable",
      "type": "function"
    }
  ],
  "bytecode": "0x60806040526103e860035562a0668060045560c860055560646006556001600755606460085560006009556040518060400160405280601e60ff168152602001600a60ff16815250600a90600262000059929190620002e6565b5060405180604001604052806202a30062ffffff16815260200162278d0062ffffff16815250600b906002620000919291906200033d565b506001601455348015620000a457600080fd5b5060405162004504380380620045048339818101604052810190620000ca9190620003cc565b620000ea620000de6200021a60201b60201c565b6200022260201b60201c565b6001808190555083601660006101000a81548173ffffffffffffffffffffffffffffffffffffffff021916908373ffffffffffffffffffffffffffffffffffffffff16021790555082601560006101000a81548173ffffffffffffffffffffffffffffffffffffffff021916908373ffffffffffffffffffffffffffffffffffffffff16021790555081601160006101000a81548173ffffffffffffffffffffffffffffffffffffffff021916908373ffffffffffffffffffffffffffffffffffffffff16021790555080601060006101000a81548173ffffffffffffffffffffffffffffffffffffffff021916908373ffffffffffffffffffffffffffffffffffffffff1602179055506001600260006101000a81548160ff0219169083151502179055505050505062000491565b600033905090565b60008060009054906101000a900473ffffffffffffffffffffffffffffffffffffffff169050816000806101000a81548173ffffffffffffffffffffffffffffffffffffffff021916908373ffffffffffffffffffffffffffffffffffffffff1602179055508173ffffffffffffffffffffffffffffffffffffffff168173ffffffffffffffffffffffffffffffffffffffff167f8be0079c531659141344cd1fd0a4f28419497f9722a3daafe3b4186f6b6457e060405160405180910390a35050565b8280548282559060005260206000209081019282156200032a579160200282015b8281111562000329578251829060ff1690559160200191906001019062000307565b5b50905062000339919062000396565b5090565b82805482825590600052602060002090810192821562000383579160200282015b8281111562000382578251829062ffffff169055916020019190600101906200035e565b5b50905062000392919062000396565b5090565b5b80821115620003b157600081600090555060010162000397565b5090565b600081519050620003c68162000477565b92915050565b60008060008060808587031215620003e957620003e862000472565b5b6000620003f987828801620003b5565b94505060206200040c87828801620003b5565b93505060406200041f87828801620003b5565b92505060606200043287828801620003b5565b91505092959194509250565b60006200044b8262000452565b9050919050565b600073ffffffffffffffffffffffffffffffffffffffff82169050919050565b600080fd5b62000482816200043e565b81146200048e57600080fd5b50565b61406380620004a16000396000f3fe608060405234801561001057600080fd5b50600436106102895760003560e01c8063907f5dbe1161015c578063bf0d2e3f116100ce578063f25f4b5611610087578063f25f4b561461073e578063f2fde38b1461075c578063f3c85eba14610778578063f40f0f52146107a8578063f7c618c1146107d8578063ff0938a7146107f657610289565b8063bf0d2e3f146106b8578063cc7a262e146106d4578063d437c6be146106f2578063db2e21bc146106fc578063e601af7314610706578063f080fa111461072257610289565b8063a1c9389a11610120578063a1c9389a146105f6578063a26ecf9814610614578063ad4c19e914610632578063ae581bc21461064e578063b6b55f251461067e578063b9d6ad671461069a57610289565b8063907f5dbe1461055457806390d49b9d146105705780639aa0ea191461058c5780639bf41135146105bc5780639fd98de1146105d857610289565b8063335b2575116102005780636bdfeed7116101b95780636bdfeed7146104b8578063715018a6146104d4578063777e092b146104de57806378e97925146104fa5780638da5cb5b146105185780638ea5220f1461053657610289565b8063335b2575146103e25780633989c6661461041257806348cd4cb11461042e5780634912fc741461044c5780634da13a661461047c57806366425d361461049a57610289565b80631dc7a314116102525780631dc7a314146103325780631f53ac02146103505780631f68f20a1461036c578063225e63d71461038a57806329d8fe47146103a85780633197cbb6146103c457610289565b8062f714ce1461028e57806303700d6b146102aa578063083c6323146102c65780631959a002146102e45780631da26a8b14610316575b600080fd5b6102a860048036038101906102a39190613310565b610814565b005b6102c460048036038101906102bf91906132b6565b610ccc565b005b6102ce610d52565b6040516102db9190613964565b60405180910390f35b6102fe60048036038101906102f991906130d5565b610d58565b60405161030d9392919061397f565b60405180910390f35b610330600480360381019061032b9190613102565b610d82565b005b61033a610e84565b6040516103479190613751565b60405180910390f35b61036a600480360381019061036591906130d5565b610e97565b005b610374610f57565b6040516103819190613964565b60405180910390f35b610392610f5d565b60405161039f9190613964565b60405180910390f35b6103c260048036038101906103bd91906133b0565b610f63565b005b6103cc610ff1565b6040516103d99190613964565b60405180910390f35b6103fc60048036038101906103f791906132b6565b610ff7565b6040516104099190613964565b60405180910390f35b61042c600480360381019061042791906133f0565b61101b565b005b6104366110b1565b6040516104439190613964565b60405180910390f35b610466600480360381019061046191906132b6565b6110b7565b6040516104739190613964565b60405180910390f35b6104846110db565b6040516104919190613964565b60405180910390f35b6104a26110e1565b6040516104af9190613964565b60405180910390f35b6104d260048036038101906104cd9190613350565b6110e7565b005b6104dc611181565b005b6104f860048036038101906104f39190613142565b611209565b005b61050261132a565b60405161050f9190613964565b60405180910390f35b610520611330565b60405161052d91906136d6565b60405180910390f35b61053e611359565b60405161054b91906136d6565b60405180910390f35b61056e6004803603810190610569919061318f565b61137f565b005b61058a600480360381019061058591906130d5565b611411565b005b6105a660048036038101906105a191906130d5565b6114d1565b6040516105b39190613751565b60405180910390f35b6105d660048036038101906105d19190613142565b6114f1565b005b6105e0611612565b6040516105ed9190613964565b60405180910390f35b6105fe611618565b60405161060b9190613964565b60405180910390f35b61061c61161e565b6040516106299190613964565b60405180910390f35b61064c60048036038101906106479190613236565b611624565b005b61066860048036038101906106639190613276565b6116c5565b6040516106759190613787565b60405180910390f35b610698600480360381019061069391906132b6565b611739565b005b6106a2611c95565b6040516106af9190613964565b60405180910390f35b6106d260048036038101906106cd91906132b6565b611c9b565b005b6106dc611d21565b6040516106e9919061376c565b60405180910390f35b6106fa611d47565b005b610704611ee4565b005b610720600480360381019061071b91906131dc565b61203c565b005b61073c600480360381019061073791906133b0565b6120d5565b005b610746612163565b60405161075391906136d6565b60405180910390f35b610776600480360381019061077191906130d5565b612189565b005b610792600480360381019061078d91906133f0565b612281565b60405161079f9190613964565b60405180910390f35b6107c260048036038101906107bd91906130d5565b6122e3565b6040516107cf9190613964565b60405180910390f35b6107e06125fd565b6040516107ed919061376c565b60405180910390f35b6107fe612623565b60405161080b9190613751565b60405180910390f35b6002600154141561085a576040517f08c379a000000000000000000000000000000000000000000000000000000000815260040161085190613944565b60405180910390fd5b600260018190555060001515600260009054906101000a900460ff161515146108b8576040517f08c379a00000000000000000000000000000000000000000000000000000000081526004016108af90613924565b60405180910390fd5b60001515601260008373ffffffffffffffffffffffffffffffffffffffff1673ffffffffffffffffffffffffffffffffffffffff16815260200190815260200160002060009054906101000a900460ff1615151461094b576040517f08c379a000000000000000000000000000000000000000000000000000000000815260040161094290613804565b60405180910390fd5b6000601760008373ffffffffffffffffffffffffffffffffffffffff1673ffffffffffffffffffffffffffffffffffffffff1681526020019081526020016000209050428160020154106109d4576040517f08c379a00000000000000000000000000000000000000000000000000000000081526004016109cb906137c4565b60405180910390fd5b8060000154831115610a1b576040517f08c379a0000000000000000000000000000000000000000000000000000000008152600401610a12906138a4565b60405180910390fd5b6000610a26836122e3565b90506000841115610bc357610a4884836000015461263690919063ffffffff16565b8260000181905550600084905060005b600b80549050811015610b735742846003018281548110610a7c57610a7b613cc2565b5b90600052602060002001541115610b60576000610ad4600354610ac6600a8581548110610aac57610aab613cc2565b5b90600052602060002001548a61264c90919063ffffffff16565b61266290919063ffffffff16565b9050610ae9818461263690919063ffffffff16565b9250610b5a601060009054906101000a900473ffffffffffffffffffffffffffffffffffffffff1682601660009054906101000a900473ffffffffffffffffffffffffffffffffffffffff1673ffffffffffffffffffffffffffffffffffffffff166126789092919063ffffffff16565b50610b73565b8080610b6b90613bbb565b915050610a58565b50610bc18482601660009054906101000a900473ffffffffffffffffffffffffffffffffffffffff1673ffffffffffffffffffffffffffffffffffffffff166126789092919063ffffffff16565b505b6000811115610c7157610c198382601560009054906101000a900473ffffffffffffffffffffffffffffffffffffffff1673ffffffffffffffffffffffffffffffffffffffff166126789092919063ffffffff16565b4382600101819055508273ffffffffffffffffffffffffffffffffffffffff167f619caafabdd75649b302ba8419e48cccf64f37f1983ac4727cfb38b57703ffc982604051610c689190613964565b60405180910390a25b8273ffffffffffffffffffffffffffffffffffffffff167f884edad9ce6fa2440d8a54cc123490eb96d2768479d49ff9c7366125a942436485604051610cb79190613964565b60405180910390a25050600180819055505050565b610cd46126fe565b73ffffffffffffffffffffffffffffffffffffffff16610cf2611330565b73ffffffffffffffffffffffffffffffffffffffff1614610d48576040517f08c379a0000000000000000000000000000000000000000000000000000000008152600401610d3f906138c4565b60405180910390fd5b8060048190555050565b600f5481565b60176020528060005260406000206000915090508060000154908060010154908060020154905083565b610d8a6126fe565b73ffffffffffffffffffffffffffffffffffffffff16610da8611330565b73ffffffffffffffffffffffffffffffffffffffff1614610dfe576040517f08c379a0000000000000000000000000000000000000000000000000000000008152600401610df5906138c4565b60405180910390fd5b81601660006101000a81548173ffffffffffffffffffffffffffffffffffffffff021916908373ffffffffffffffffffffffffffffffffffffffff16021790555080601560006101000a81548173ffffffffffffffffffffffffffffffffffffffff021916908373ffffffffffffffffffffffffffffffffffffffff1602179055505050565b601360009054906101000a900460ff1681565b610e9f6126fe565b73ffffffffffffffffffffffffffffffffffffffff16610ebd611330565b73ffffffffffffffffffffffffffffffffffffffff1614610f13576040517f08c379a0000000000000000000000000000000000000000000000000000000008152600401610f0a906138c4565b60405180910390fd5b80601160006101000a81548173ffffffffffffffffffffffffffffffffffffffff021916908373ffffffffffffffffffffffffffffffffffffffff16021790555050565b60035481565b60065481565b610f6b6126fe565b73ffffffffffffffffffffffffffffffffffffffff16610f89611330565b73ffffffffffffffffffffffffffffffffffffffff1614610fdf576040517f08c379a0000000000000000000000000000000000000000000000000000000008152600401610fd6906138c4565b60405180910390fd5b81600e8190555080600f819055505050565b600d5481565b600b818154811061100757600080fd5b906000526020600020016000915090505481565b6110236126fe565b73ffffffffffffffffffffffffffffffffffffffff16611041611330565b73ffffffffffffffffffffffffffffffffffffffff1614611097576040517f08c379a000000000000000000000000000000000000000000000000000000000815260040161108e906138c4565b60405180910390fd5b826005819055508160068190555080600781905550505050565b600e5481565b600a81815481106110c757600080fd5b906000526020600020016000915090505481565b60095481565b60145481565b6110ef6126fe565b73ffffffffffffffffffffffffffffffffffffffff1661110d611330565b73ffffffffffffffffffffffffffffffffffffffff1614611163576040517f08c379a000000000000000000000000000000000000000000000000000000000815260040161115a906138c4565b60405180910390fd5b826009819055508181600b919061117b929190612ef4565b50505050565b6111896126fe565b73ffffffffffffffffffffffffffffffffffffffff166111a7611330565b73ffffffffffffffffffffffffffffffffffffffff16146111fd576040517f08c379a00000000000000000000000000000000000000000000000000000000081526004016111f4906138c4565b60405180910390fd5b6112076000612706565b565b6112116126fe565b73ffffffffffffffffffffffffffffffffffffffff1661122f611330565b73ffffffffffffffffffffffffffffffffffffffff1614611285576040517f08c379a000000000000000000000000000000000000000000000000000000000815260040161127c906138c4565b60405180910390fd5b60005b82829050811015611325576001601260008585858181106112ac576112ab613cc2565b5b90506020020160208101906112c191906130d5565b73ffffffffffffffffffffffffffffffffffffffff1673ffffffffffffffffffffffffffffffffffffffff16815260200190815260200160002060006101000a81548160ff021916908315150217905550808061131d90613bbb565b915050611288565b505050565b600c5481565b60008060009054906101000a900473ffffffffffffffffffffffffffffffffffffffff16905090565b601160009054906101000a900473ffffffffffffffffffffffffffffffffffffffff1681565b6113876126fe565b73ffffffffffffffffffffffffffffffffffffffff166113a5611330565b73ffffffffffffffffffffffffffffffffffffffff16146113fb576040517f08c379a00000000000000000000000000000000000000000000000000000000081526004016113f2906138c4565b60405180910390fd5b8181600a919061140c929190612ef4565b505050565b6114196126fe565b73ffffffffffffffffffffffffffffffffffffffff16611437611330565b73ffffffffffffffffffffffffffffffffffffffff161461148d576040517f08c379a0000000000000000000000000000000000000000000000000000000008152600401611484906138c4565b60405180910390fd5b80601060006101000a81548173ffffffffffffffffffffffffffffffffffffffff021916908373ffffffffffffffffffffffffffffffffffffffff16021790555050565b60126020528060005260406000206000915054906101000a900460ff1681565b6114f96126fe565b73ffffffffffffffffffffffffffffffffffffffff16611517611330565b73ffffffffffffffffffffffffffffffffffffffff161461156d576040517f08c379a0000000000000000000000000000000000000000000000000000000008152600401611564906138c4565b60405180910390fd5b60005b8282905081101561160d5760006012600085858581811061159457611593613cc2565b5b90506020020160208101906115a991906130d5565b73ffffffffffffffffffffffffffffffffffffffff1673ffffffffffffffffffffffffffffffffffffffff16815260200190815260200160002060006101000a81548160ff021916908315150217905550808061160590613bbb565b915050611570565b505050565b60055481565b60085481565b60075481565b61162c6126fe565b73ffffffffffffffffffffffffffffffffffffffff1661164a611330565b73ffffffffffffffffffffffffffffffffffffffff16146116a0576040517f08c379a0000000000000000000000000000000000000000000000000000000008152600401611697906138c4565b60405180910390fd5b81601360006101000a81548160ff021916908315150217905550806014819055505050565b60006116d160016127ca565b90505b60008211156117335760016002836116ec9190613c04565b1415611712576116fc81846127ed565b905060018261170b9190613ac9565b915061172e565b61171c83846127ed565b925060028261172b9190613a3e565b91505b6116d4565b92915050565b6002600154141561177f576040517f08c379a000000000000000000000000000000000000000000000000000000000815260040161177690613944565b60405180910390fd5b600260018190555060001515600260009054906101000a900460ff161515146117dd576040517f08c379a00000000000000000000000000000000000000000000000000000000081526004016117d490613924565b60405180910390fd5b600c544211611821576040517f08c379a000000000000000000000000000000000000000000000000000000000815260040161181890613864565b60405180910390fd5b600d54421115611866576040517f08c379a000000000000000000000000000000000000000000000000000000000815260040161185d90613844565b60405180910390fd5b600e5443116118aa576040517f08c379a00000000000000000000000000000000000000000000000000000000081526004016118a190613864565b60405180910390fd5b600f544311156118ef576040517f08c379a00000000000000000000000000000000000000000000000000000000081526004016118e690613844565b60405180910390fd5b60001515601260003373ffffffffffffffffffffffffffffffffffffffff1673ffffffffffffffffffffffffffffffffffffffff16815260200190815260200160002060009054906101000a900460ff16151514611982576040517f08c379a000000000000000000000000000000000000000000000000000000000815260040161197990613804565b60405180910390fd5b600081116119c5576040517f08c379a00000000000000000000000000000000000000000000000000000000081526004016119bc90613824565b60405180910390fd5b6000601760003373ffffffffffffffffffffffffffffffffffffffff1673ffffffffffffffffffffffffffffffffffffffff1681526020019081526020016000209050600081600001541115611ac9576000611a20336122e3565b90506000811115611ac757611a783382601560009054906101000a900473ffffffffffffffffffffffffffffffffffffffff1673ffffffffffffffffffffffffffffffffffffffff166126789092919063ffffffff16565b3373ffffffffffffffffffffffffffffffffffffffff167f619caafabdd75649b302ba8419e48cccf64f37f1983ac4727cfb38b57703ffc982604051611abe9190613964565b60405180910390a25b505b611ae082826000015461285890919063ffffffff16565b8160000181905550611afd6009544261285890919063ffffffff16565b8160020181905550600b8054905067ffffffffffffffff811115611b2457611b23613cf1565b5b604051908082528060200260200182016040528015611b525781602001602082028036833780820191505090505b50816003019080519060200190611b6a929190612f41565b5060005b600b80549050811015611be357611bac600b8281548110611b9257611b91613cc2565b5b90600052602060002001544261285890919063ffffffff16565b826003018281548110611bc257611bc1613cc2565b5b90600052602060002001819055508080611bdb90613bbb565b915050611b6e565b50611c33333084601660009054906101000a900473ffffffffffffffffffffffffffffffffffffffff1673ffffffffffffffffffffffffffffffffffffffff1661286e909392919063ffffffff16565b4381600101819055503373ffffffffffffffffffffffffffffffffffffffff167fe1fffcc4923d04b559f4d29a8bfc6cda04eb5b0d3c460751c2402c5c5cc9109c83604051611c829190613964565b60405180910390a2506001808190555050565b60045481565b611ca36126fe565b73ffffffffffffffffffffffffffffffffffffffff16611cc1611330565b73ffffffffffffffffffffffffffffffffffffffff1614611d17576040517f08c379a0000000000000000000000000000000000000000000000000000000008152600401611d0e906138c4565b60405180910390fd5b8060088190555050565b601660009054906101000a900473ffffffffffffffffffffffffffffffffffffffff1681565b611d4f6126fe565b73ffffffffffffffffffffffffffffffffffffffff16611d6d611330565b73ffffffffffffffffffffffffffffffffffffffff1614611dc3576040517f08c379a0000000000000000000000000000000000000000000000000000000008152600401611dba906138c4565b60405180910390fd5b6000601560009054906101000a900473ffffffffffffffffffffffffffffffffffffffff1673ffffffffffffffffffffffffffffffffffffffff166370a08231306040518263ffffffff1660e01b8152600401611e2091906136d6565b60206040518083038186803b158015611e3857600080fd5b505afa158015611e4c573d6000803e3d6000fd5b505050506040513d601f19601f82011682018060405250810190611e7091906132e3565b9050611ee1601160009054906101000a900473ffffffffffffffffffffffffffffffffffffffff1682601560009054906101000a900473ffffffffffffffffffffffffffffffffffffffff1673ffffffffffffffffffffffffffffffffffffffff166126789092919063ffffffff16565b50565b60026001541415611f2a576040517f08c379a0000000000000000000000000000000000000000000000000000000008152600401611f2190613944565b60405180910390fd5b60026001819055506000601760003373ffffffffffffffffffffffffffffffffffffffff1673ffffffffffffffffffffffffffffffffffffffff1681526020019081526020016000209050600081600001549050600082600001819055506000811115611fdf57611fde3382601660009054906101000a900473ffffffffffffffffffffffffffffffffffffffff1673ffffffffffffffffffffffffffffffffffffffff166126789092919063ffffffff16565b5b3373ffffffffffffffffffffffffffffffffffffffff167f5fafa99d0643513820be26656b45130b01e1c03062e1266bf36f88cbd3bd969583600001546040516120299190613964565b60405180910390a2505060018081905550565b6120446126fe565b73ffffffffffffffffffffffffffffffffffffffff16612062611330565b73ffffffffffffffffffffffffffffffffffffffff16146120b8576040517f08c379a00000000000000000000000000000000000000000000000000000000081526004016120af906138c4565b60405180910390fd5b80600260006101000a81548160ff02191690831515021790555050565b6120dd6126fe565b73ffffffffffffffffffffffffffffffffffffffff166120fb611330565b73ffffffffffffffffffffffffffffffffffffffff1614612151576040517f08c379a0000000000000000000000000000000000000000000000000000000008152600401612148906138c4565b60405180910390fd5b81600c8190555080600d819055505050565b601060009054906101000a900473ffffffffffffffffffffffffffffffffffffffff1681565b6121916126fe565b73ffffffffffffffffffffffffffffffffffffffff166121af611330565b73ffffffffffffffffffffffffffffffffffffffff1614612205576040517f08c379a00000000000000000000000000000000000000000000000000000000081526004016121fc906138c4565b60405180910390fd5b600073ffffffffffffffffffffffffffffffffffffffff168173ffffffffffffffffffffffffffffffffffffffff161415612275576040517f08c379a000000000000000000000000000000000000000000000000000000000815260040161226c906137e4565b60405180910390fd5b61227e81612706565b50565b60006122da6122d46122c161229660016127ca565b6122bc876003546014546004546122ad9190613a3e565b6122b79190613a6f565b6128f7565b61295f565b601454856122cf9190613a3e565b6116c5565b856129c6565b90509392505050565b600080601760008473ffffffffffffffffffffffffffffffffffffffff1673ffffffffffffffffffffffffffffffffffffffff1681526020019081526020016000206040518060800160405290816000820154815260200160018201548152602001600282015481526020016003820180548060200260200160405190810160405280929190818152602001828054801561239d57602002820191906000526020600020905b815481526020019060010190808311612389575b50505050508152505090506008548160200151436123bb9190613ac9565b11156125f25760006123cf43600f54612a81565b905060008260200151826123e39190613ac9565b9050600083600001519050601360009054906101000a900460ff16156124cc57612422816124148360055486612281565b61263690919063ffffffff16565b9450601560009054906101000a900473ffffffffffffffffffffffffffffffffffffffff1673ffffffffffffffffffffffffffffffffffffffff16601660009054906101000a900473ffffffffffffffffffffffffffffffffffffffff1673ffffffffffffffffffffffffffffffffffffffff16146124c7576124c46006546124b66007548861264c90919063ffffffff16565b61266290919063ffffffff16565b94505b6125ea565b61254360045461253560035461252760065461251960075461250b6005546124fd8b8d61264c90919063ffffffff16565b61264c90919063ffffffff16565b61264c90919063ffffffff16565b61266290919063ffffffff16565b61266290919063ffffffff16565b61266290919063ffffffff16565b9450601560009054906101000a900473ffffffffffffffffffffffffffffffffffffffff1673ffffffffffffffffffffffffffffffffffffffff16601660009054906101000a900473ffffffffffffffffffffffffffffffffffffffff1673ffffffffffffffffffffffffffffffffffffffff1614156125e9576125e66006546125d86007548861264c90919063ffffffff16565b61266290919063ffffffff16565b94505b5b5050506125f7565b600091505b50919050565b601560009054906101000a900473ffffffffffffffffffffffffffffffffffffffff1681565b600260009054906101000a900460ff1681565b600081836126449190613ac9565b905092915050565b6000818361265a9190613a6f565b905092915050565b600081836126709190613a3e565b905092915050565b6126f98363a9059cbb60e01b8484604051602401612697929190613728565b604051602081830303815290604052907bffffffffffffffffffffffffffffffffffffffffffffffffffffffff19166020820180517bffffffffffffffffffffffffffffffffffffffffffffffffffffffff8381831617835250505050612a9a565b505050565b600033905090565b60008060009054906101000a900473ffffffffffffffffffffffffffffffffffffffff169050816000806101000a81548173ffffffffffffffffffffffffffffffffffffffff021916908373ffffffffffffffffffffffffffffffffffffffff1602179055508173ffffffffffffffffffffffffffffffffffffffff168173ffffffffffffffffffffffffffffffffffffffff167f8be0079c531659141344cd1fd0a4f28419497f9722a3daafe3b4186f6b6457e060405160405180910390a35050565b6000677fffffffffffffff8211156127e157600080fd5b604082901b9050919050565b600080604083600f0b85600f0b02901d90507fffffffffffffffffffffffffffffffff80000000000000000000000000000000600f0b811215801561284557506f7fffffffffffffffffffffffffffffff600f0b8113155b61284e57600080fd5b8091505092915050565b6000818361286691906139e8565b905092915050565b6128f1846323b872dd60e01b85858560405160240161288f939291906136f1565b604051602081830303815290604052907bffffffffffffffffffffffffffffffffffffffffffffffffffffffff19166020820180517bffffffffffffffffffffffffffffffffffffffffffffffffffffffff8381831617835250505050612a9a565b50505050565b60008082141561290657600080fd5b60006129128484612b61565b90506f7fffffffffffffffffffffffffffffff6fffffffffffffffffffffffffffffffff16816fffffffffffffffffffffffffffffffff16111561295557600080fd5b8091505092915050565b60008082600f0b84600f0b0190507fffffffffffffffffffffffffffffffff80000000000000000000000000000000600f0b81121580156129b357506f7fffffffffffffffffffffffffffffff600f0b8113155b6129bc57600080fd5b8091505092915050565b6000808214156129d95760009050612a7b565b600083600f0b12156129ea57600080fd5b600060406fffffffffffffffffffffffffffffffff841685600f0b02901c90506000608084901c85600f0b02905077ffffffffffffffffffffffffffffffffffffffffffffffff811115612a3d57600080fd5b604081901b9050817fffffffffffffffffffffffffffffffffffffffffffffffffffffffffffffffff03811115612a7357600080fd5b818101925050505b92915050565b6000818310612a905781612a92565b825b905092915050565b6000612afc826040518060400160405280602081526020017f5361666545524332303a206c6f772d6c6576656c2063616c6c206661696c65648152508573ffffffffffffffffffffffffffffffffffffffff16612d3e9092919063ffffffff16565b9050600081511115612b5c5780806020019051810190612b1c9190613209565b612b5b576040517f08c379a0000000000000000000000000000000000000000000000000000000008152600401612b5290613904565b60405180910390fd5b5b505050565b600080821415612b7057600080fd5b600077ffffffffffffffffffffffffffffffffffffffffffffffff8411612bad5782604085901b81612ba557612ba4613c93565b5b049050612d17565b600060c09050600060c086901c90506401000000008110612bd657602081901c90506020820191505b620100008110612bee57601081901c90506010820191505b6101008110612c0557600881901c90506008820191505b60108110612c1b57600481901c90506004820191505b60048110612c3157600281901c90506002820191505b60028110612c40576001820191505b600160bf830360018703901c018260ff0387901b81612c6257612c61613c93565b5b0492506fffffffffffffffffffffffffffffffff831115612c8257600080fd5b6000608086901c8402905060006fffffffffffffffffffffffffffffffff871685029050600060c089901c9050600060408a901b905082811015612cc7576001820391505b8281039050608084901b925082811015612ce2576001820391505b8281039050608084901c8214612cfb57612cfa613c35565b5b888181612d0b57612d0a613c93565b5b04870196505050505050505b6fffffffffffffffffffffffffffffffff811115612d3457600080fd5b8091505092915050565b6060612d4d8484600085612d56565b90509392505050565b606082471015612d9b576040517f08c379a0000000000000000000000000000000000000000000000000000000008152600401612d9290613884565b60405180910390fd5b612da485612e6a565b612de3576040517f08c379a0000000000000000000000000000000000000000000000000000000008152600401612dda906138e4565b60405180910390fd5b6000808673ffffffffffffffffffffffffffffffffffffffff168587604051612e0c91906136bf565b60006040518083038185875af1925050503d8060008114612e49576040519150601f19603f3d011682016040523d82523d6000602084013e612e4e565b606091505b5091509150612e5e828286612e8d565b92505050949350505050565b6000808273ffffffffffffffffffffffffffffffffffffffff163b119050919050565b60608315612e9d57829050612eed565b600083511115612eb05782518084602001fd5b816040517f08c379a0000000000000000000000000000000000000000000000000000000008152600401612ee491906137a2565b60405180910390fd5b9392505050565b828054828255906000526020600020908101928215612f30579160200282015b82811115612f2f578235825591602001919060010190612f14565b5b509050612f3d9190612f8e565b5090565b828054828255906000526020600020908101928215612f7d579160200282015b82811115612f7c578251825591602001919060010190612f61565b5b509050612f8a9190612f8e565b5090565b5b80821115612fa7576000816000905550600101612f8f565b5090565b600081359050612fba81613fd1565b92915050565b60008083601f840112612fd657612fd5613d25565b5b8235905067ffffffffffffffff811115612ff357612ff2613d20565b5b60208301915083602082028301111561300f5761300e613d2a565b5b9250929050565b60008083601f84011261302c5761302b613d25565b5b8235905067ffffffffffffffff81111561304957613048613d20565b5b60208301915083602082028301111561306557613064613d2a565b5b9250929050565b60008135905061307b81613fe8565b92915050565b60008151905061309081613fe8565b92915050565b6000813590506130a581613fff565b92915050565b6000813590506130ba81614016565b92915050565b6000815190506130cf81614016565b92915050565b6000602082840312156130eb576130ea613d34565b5b60006130f984828501612fab565b91505092915050565b6000806040838503121561311957613118613d34565b5b600061312785828601612fab565b925050602061313885828601612fab565b9150509250929050565b6000806020838503121561315957613158613d34565b5b600083013567ffffffffffffffff81111561317757613176613d2f565b5b61318385828601612fc0565b92509250509250929050565b600080602083850312156131a6576131a5613d34565b5b600083013567ffffffffffffffff8111156131c4576131c3613d2f565b5b6131d085828601613016565b92509250509250929050565b6000602082840312156131f2576131f1613d34565b5b60006132008482850161306c565b91505092915050565b60006020828403121561321f5761321e613d34565b5b600061322d84828501613081565b91505092915050565b6000806040838503121561324d5761324c613d34565b5b600061325b8582860161306c565b925050602061326c858286016130ab565b9150509250929050565b6000806040838503121561328d5761328c613d34565b5b600061329b85828601613096565b92505060206132ac858286016130ab565b9150509250929050565b6000602082840312156132cc576132cb613d34565b5b60006132da848285016130ab565b91505092915050565b6000602082840312156132f9576132f8613d34565b5b6000613307848285016130c0565b91505092915050565b6000806040838503121561332757613326613d34565b5b6000613335858286016130ab565b925050602061334685828601612fab565b9150509250929050565b60008060006040848603121561336957613368613d34565b5b6000613377868287016130ab565b935050602084013567ffffffffffffffff81111561339857613397613d2f565b5b6133a486828701613016565b92509250509250925092565b600080604083850312156133c7576133c6613d34565b5b60006133d5858286016130ab565b92505060206133e6858286016130ab565b9150509250929050565b60008060006060848603121561340957613408613d34565b5b6000613417868287016130ab565b9350506020613428868287016130ab565b9250506040613439868287016130ab565b9150509250925092565b61344c81613afd565b82525050565b61345b81613b0f565b82525050565b600061346c826139b6565b61347681856139cc565b9350613486818560208601613b88565b80840191505092915050565b61349b81613b52565b82525050565b6134aa81613b1b565b82525050565b60006134bb826139c1565b6134c581856139d7565b93506134d5818560208601613b88565b6134de81613d39565b840191505092915050565b60006134f66017836139d7565b915061350182613d4a565b602082019050919050565b60006135196026836139d7565b915061352482613d73565b604082019050919050565b600061353c6014836139d7565b915061354782613dc2565b602082019050919050565b600061355f601d836139d7565b915061356a82613deb565b602082019050919050565b6000613582600d836139d7565b915061358d82613e14565b602082019050919050565b60006135a56017836139d7565b91506135b082613e3d565b602082019050919050565b60006135c86026836139d7565b91506135d382613e66565b604082019050919050565b60006135eb601d836139d7565b91506135f682613eb5565b602082019050919050565b600061360e6020836139d7565b915061361982613ede565b602082019050919050565b6000613631601d836139d7565b915061363c82613f07565b602082019050919050565b6000613654602a836139d7565b915061365f82613f30565b604082019050919050565b60006136776012836139d7565b915061368282613f7f565b602082019050919050565b600061369a601f836139d7565b91506136a582613fa8565b602082019050919050565b6136b981613b48565b82525050565b60006136cb8284613461565b915081905092915050565b60006020820190506136eb6000830184613443565b92915050565b60006060820190506137066000830186613443565b6137136020830185613443565b61372060408301846136b0565b949350505050565b600060408201905061373d6000830185613443565b61374a60208301846136b0565b9392505050565b60006020820190506137666000830184613452565b92915050565b60006020820190506137816000830184613492565b92915050565b600060208201905061379c60008301846134a1565b92915050565b600060208201905081810360008301526137bc81846134b0565b905092915050565b600060208201905081810360008301526137dd816134e9565b9050919050565b600060208201905081810360008301526137fd8161350c565b9050919050565b6000602082019050818103600083015261381d8161352f565b9050919050565b6000602082019050818103600083015261383d81613552565b9050919050565b6000602082019050818103600083015261385d81613575565b9050919050565b6000602082019050818103600083015261387d81613598565b9050919050565b6000602082019050818103600083015261389d816135bb565b9050919050565b600060208201905081810360008301526138bd816135de565b9050919050565b600060208201905081810360008301526138dd81613601565b9050919050565b600060208201905081810360008301526138fd81613624565b9050919050565b6000602082019050818103600083015261391d81613647565b9050919050565b6000602082019050818103600083015261393d8161366a565b9050919050565b6000602082019050818103600083015261395d8161368d565b9050919050565b600060208201905061397960008301846136b0565b92915050565b600060608201905061399460008301866136b0565b6139a160208301856136b0565b6139ae60408301846136b0565b949350505050565b600081519050919050565b600081519050919050565b600081905092915050565b600082825260208201905092915050565b60006139f382613b48565b91506139fe83613b48565b9250827fffffffffffffffffffffffffffffffffffffffffffffffffffffffffffffffff03821115613a3357613a32613c64565b5b828201905092915050565b6000613a4982613b48565b9150613a5483613b48565b925082613a6457613a63613c93565b5b828204905092915050565b6000613a7a82613b48565b9150613a8583613b48565b9250817fffffffffffffffffffffffffffffffffffffffffffffffffffffffffffffffff0483118215151615613abe57613abd613c64565b5b828202905092915050565b6000613ad482613b48565b9150613adf83613b48565b925082821015613af257613af1613c64565b5b828203905092915050565b6000613b0882613b28565b9050919050565b60008115159050919050565b600081600f0b9050919050565b600073ffffffffffffffffffffffffffffffffffffffff82169050919050565b6000819050919050565b6000613b5d82613b64565b9050919050565b6000613b6f82613b76565b9050919050565b6000613b8182613b28565b9050919050565b60005b83811015613ba6578082015181840152602081019050613b8b565b83811115613bb5576000848401525b50505050565b6000613bc682613b48565b91507fffffffffffffffffffffffffffffffffffffffffffffffffffffffffffffffff821415613bf957613bf8613c64565b5b600182019050919050565b6000613c0f82613b48565b9150613c1a83613b48565b925082613c2a57613c29613c93565b5b828206905092915050565b7f4e487b7100000000000000000000000000000000000000000000000000000000600052600160045260246000fd5b7f4e487b7100000000000000000000000000000000000000000000000000000000600052601160045260246000fd5b7f4e487b7100000000000000000000000000000000000000000000000000000000600052601260045260246000fd5b7f4e487b7100000000000000000000000000000000000000000000000000000000600052603260045260246000fd5b7f4e487b7100000000000000000000000000000000000000000000000000000000600052604160045260246000fd5b600080fd5b600080fd5b600080fd5b600080fd5b600080fd5b6000601f19601f8301169050919050565b7f596f752063616e206e6f7420756e7374616b65206e6f77000000000000000000600082015250565b7f4f776e61626c653a206e6577206f776e657220697320746865207a65726f206160008201527f6464726573730000000000000000000000000000000000000000000000000000602082015250565b7f596f752061726520696e20426c61636b6c697374000000000000000000000000600082015250565b7f416d6f756e74206d7573742062652067726561746572207468616e2030000000600082015250565b7f506f6f6c20697320656e64656400000000000000000000000000000000000000600082015250565b7f506f6f6c206973206e6f74207374617274656420796574000000000000000000600082015250565b7f416464726573733a20696e73756666696369656e742062616c616e636520666f60008201527f722063616c6c0000000000000000000000000000000000000000000000000000602082015250565b7f416d6f756e7420746f207769746864726177206e6f7420656e6f756768000000600082015250565b7f4f776e61626c653a2063616c6c6572206973206e6f7420746865206f776e6572600082015250565b7f416464726573733a2063616c6c20746f206e6f6e2d636f6e7472616374000000600082015250565b7f5361666545524332303a204552433230206f7065726174696f6e20646964206e60008201527f6f74207375636365656400000000000000000000000000000000000000000000602082015250565b7f436f6e7472616374206973207061757365640000000000000000000000000000600082015250565b7f5265656e7472616e637947756172643a207265656e7472616e742063616c6c00600082015250565b613fda81613afd565b8114613fe557600080fd5b50565b613ff181613b0f565b8114613ffc57600080fd5b50565b61400881613b1b565b811461401357600080fd5b50565b61401f81613b48565b811461402a57600080fd5b5056fea2646970667358221220f21344c7c4fe8529027c9264704b2c391abadd278ca92739d8d02b25950cf5aa64736f6c63430008070033",
  "linkReferences": {},
  "deployedLinkReferences": {}
}