{
  "_format": "hh-sol-artifact-1",
  "contractName": "PiPrivateSaleVesting",
  "sourceName": "contracts/PiPrivateSale.sol",
  "abi": [
    {
      "inputs": [
        {
          "internalType": "address",
          "name": "_token",
          "type": "address"
        },
        {
          "internalType": "address",
          "name": "_beneficiary",
          "type": "address"
        },
        {
          "internalType": "uint256",
          "name": "_start",
          "type": "uint256"
        }
      ],
      "stateMutability": "nonpayable",
      "type": "constructor"
    },
    {
      "anonymous": false,
      "inputs": [
        {
          "indexed": true,
          "internalType": "address",
          "name": "previousOwner",
          "type": "address"
        },
        {
          "indexed": true,
          "internalType": "address",
          "name": "newOwner",
          "type": "address"
        }
      ],
      "name": "OwnershipTransferred",
      "type": "event"
    },
    {
      "anonymous": false,
      "inputs": [
        {
          "indexed": false,
          "internalType": "uint256",
          "name": "amount",
          "type": "uint256"
        }
      ],
      "name": "Released",
      "type": "event"
    },
    {
      "inputs": [],
      "name": "amountTotal",
      "outputs": [
        {
          "internalType": "uint256",
          "name": "",
          "type": "uint256"
        }
      ],
      "stateMutability": "view",
      "type": "function"
    },
    {
      "inputs": [],
      "name": "beneficiary",
      "outputs": [
        {
          "internalType": "address",
          "name": "",
          "type": "address"
        }
      ],
      "stateMutability": "view",
      "type": "function"
    },
    {
      "inputs": [
        {
          "internalType": "address",
          "name": "_beneficiary",
          "type": "address"
        }
      ],
      "name": "changeBeneficiary",
      "outputs": [],
      "stateMutability": "nonpayable",
      "type": "function"
    },
    {
      "inputs": [],
      "name": "cliff",
      "outputs": [
        {
          "internalType": "uint256",
          "name": "",
          "type": "uint256"
        }
      ],
      "stateMutability": "view",
      "type": "function"
    },
    {
      "inputs": [
        {
          "internalType": "uint256",
          "name": "currentTime",
          "type": "uint256"
        }
      ],
      "name": "computeReleasableAmount",
      "outputs": [
        {
          "internalType": "uint256",
          "name": "",
          "type": "uint256"
        }
      ],
      "stateMutability": "view",
      "type": "function"
    },
    {
      "inputs": [],
      "name": "duration",
      "outputs": [
        {
          "internalType": "uint256",
          "name": "",
          "type": "uint256"
        }
      ],
      "stateMutability": "view",
      "type": "function"
    },
    {
      "inputs": [],
      "name": "numberOfVest",
      "outputs": [
        {
          "internalType": "uint256",
          "name": "",
          "type": "uint256"
        }
      ],
      "stateMutability": "view",
      "type": "function"
    },
    {
      "inputs": [],
      "name": "owner",
      "outputs": [
        {
          "internalType": "address",
          "name": "",
          "type": "address"
        }
      ],
      "stateMutability": "view",
      "type": "function"
    },
    {
      "inputs": [],
      "name": "release",
      "outputs": [],
      "stateMutability": "nonpayable",
      "type": "function"
    },
    {
      "inputs": [],
      "name": "released",
      "outputs": [
        {
          "internalType": "uint256",
          "name": "",
          "type": "uint256"
        }
      ],
      "stateMutability": "view",
      "type": "function"
    },
    {
      "inputs": [],
      "name": "renounceOwnership",
      "outputs": [],
      "stateMutability": "nonpayable",
      "type": "function"
    },
    {
      "inputs": [],
      "name": "slicePeriod",
      "outputs": [
        {
          "internalType": "uint256",
          "name": "",
          "type": "uint256"
        }
      ],
      "stateMutability": "view",
      "type": "function"
    },
    {
      "inputs": [],
      "name": "start",
      "outputs": [
        {
          "internalType": "uint256",
          "name": "",
          "type": "uint256"
        }
      ],
      "stateMutability": "view",
      "type": "function"
    },
    {
      "inputs": [],
      "name": "tgeAmount",
      "outputs": [
        {
          "internalType": "uint256",
          "name": "",
          "type": "uint256"
        }
      ],
      "stateMutability": "view",
      "type": "function"
    },
    {
      "inputs": [],
      "name": "token",
      "outputs": [
        {
          "internalType": "contract IERC20",
          "name": "",
          "type": "address"
        }
      ],
      "stateMutability": "view",
      "type": "function"
    },
    {
      "inputs": [
        {
          "internalType": "address",
          "name": "newOwner",
          "type": "address"
        }
      ],
      "name": "transferOwnership",
      "outputs": [],
      "stateMutability": "nonpayable",
      "type": "function"
    },
    {
      "inputs": [
        {
          "internalType": "uint256",
          "name": "amount",
          "type": "uint256"
        }
      ],
      "name": "withdraw",
      "outputs": [],
      "stateMutability": "nonpayable",
      "type": "function"
    }
  ],
  "bytecode": "0x6101606040523480156200001257600080fd5b5060405162001f9438038062001f94833981810160405281019062000038919062000235565b620000586200004c6200013b60201b60201c565b6200014360201b60201c565b600180819055508273ffffffffffffffffffffffffffffffffffffffff166101408173ffffffffffffffffffffffffffffffffffffffff1660601b8152505081600260006101000a81548173ffffffffffffffffffffffffffffffffffffffff021916908373ffffffffffffffffffffffffffffffffffffffff16021790555062278d00608081815250508060a081815250506304a2860060c0818152505062278d0060e081815250506a1bead72a838453f9c0000061010081815250506a031a17e847807b1bc000006101208181525050600060038190555050505062000308565b600033905090565b60008060009054906101000a900473ffffffffffffffffffffffffffffffffffffffff169050816000806101000a81548173ffffffffffffffffffffffffffffffffffffffff021916908373ffffffffffffffffffffffffffffffffffffffff1602179055508173ffffffffffffffffffffffffffffffffffffffff168173ffffffffffffffffffffffffffffffffffffffff167f8be0079c531659141344cd1fd0a4f28419497f9722a3daafe3b4186f6b6457e060405160405180910390a35050565b6000815190506200021881620002d4565b92915050565b6000815190506200022f81620002ee565b92915050565b600080600060608486031215620002515762000250620002cf565b5b6000620002618682870162000207565b9350506020620002748682870162000207565b925050604062000287868287016200021e565b9150509250925092565b60006200029e82620002a5565b9050919050565b600073ffffffffffffffffffffffffffffffffffffffff82169050919050565b6000819050919050565b600080fd5b620002df8162000291565b8114620002eb57600080fd5b50565b620002f981620002c5565b81146200030557600080fd5b50565b60805160a05160c05160e05161010051610120516101405160601c611bb0620003e46000396000818161071e0152818161081401528181610ae80152610da401526000818161031801528181610427015261048e015260008181610448015281816105df0152610b9e01526000818161054b01528181610582015261088a0152600081816102f40152818161039601526105ba015260008181610362015281816103db015281816104b601528181610a1b0152610bc201526000818161033c015281816103ba015281816104e801526105140152611bb06000f3fe608060405234801561001057600080fd5b506004361061010b5760003560e01c806386d1a69f116100a2578063be9a655511610071578063be9a655514610260578063bf3f15bf1461027e578063dc0706571461029c578063f2fde38b146102b8578063fc0c546a146102d45761010b565b806386d1a69f146101fc5780638da5cb5b146102065780639613252114610224578063a73c7140146102425761010b565b80632e1a7d4d116100de5780632e1a7d4d1461019a57806338af3eed146101b65780635afd6eb8146101d4578063715018a6146101f25761010b565b80630fb5a6b4146101105780631091827a1461012e57806313d033c01461014c578063145d544b1461016a575b600080fd5b6101186102f2565b604051610125919061167f565b60405180910390f35b610136610316565b604051610143919061167f565b60405180910390f35b61015461033a565b604051610161919061167f565b60405180910390f35b610184600480360381019061017f919061129b565b61035e565b604051610191919061167f565b60405180910390f35b6101b460048036038101906101af919061129b565b610651565b005b6101be610862565b6040516101cb91906114de565b60405180910390f35b6101dc610888565b6040516101e9919061167f565b60405180910390f35b6101fa6108ac565b005b610204610934565b005b61020e610b6d565b60405161021b91906114de565b60405180910390f35b61022c610b96565b604051610239919061167f565b60405180910390f35b61024a610b9c565b604051610257919061167f565b60405180910390f35b610268610bc0565b604051610275919061167f565b60405180910390f35b610286610be4565b604051610293919061167f565b60405180910390f35b6102b660048036038101906102b19190611241565b610bea565b005b6102d260048036038101906102cd9190611241565b610caa565b005b6102dc610da2565b6040516102e99190611522565b60405180910390f35b7f000000000000000000000000000000000000000000000000000000000000000081565b7f000000000000000000000000000000000000000000000000000000000000000081565b7f000000000000000000000000000000000000000000000000000000000000000081565b60007f0000000000000000000000000000000000000000000000000000000000000000821015610391576000905061064c565b6104167f00000000000000000000000000000000000000000000000000000000000000006104087f00000000000000000000000000000000000000000000000000000000000000007f0000000000000000000000000000000000000000000000000000000000000000610dc690919063ffffffff16565b610dc690919063ffffffff16565b821061048a576104836003546104757f00000000000000000000000000000000000000000000000000000000000000007f0000000000000000000000000000000000000000000000000000000000000000610dc690919063ffffffff16565b610ddc90919063ffffffff16565b905061064c565b60007f0000000000000000000000000000000000000000000000000000000000000000905060006104e47f000000000000000000000000000000000000000000000000000000000000000085610ddc90919063ffffffff16565b90507f0000000000000000000000000000000000000000000000000000000000000000811061062f5760006105427f000000000000000000000000000000000000000000000000000000000000000083610ddc90919063ffffffff16565b905060006105797f000000000000000000000000000000000000000000000000000000000000000083610df290919063ffffffff16565b905060006105b07f000000000000000000000000000000000000000000000000000000000000000083610e0890919063ffffffff16565b905061062961061a7f000000000000000000000000000000000000000000000000000000000000000061060c847f0000000000000000000000000000000000000000000000000000000000000000610e0890919063ffffffff16565b610df290919063ffffffff16565b86610dc690919063ffffffff16565b94505050505b61064460035483610ddc90919063ffffffff16565b915081925050505b919050565b60026001541415610697576040517f08c379a000000000000000000000000000000000000000000000000000000000815260040161068e9061165f565b60405180910390fd5b60026001819055506106a7610e1e565b73ffffffffffffffffffffffffffffffffffffffff166106c5610b6d565b73ffffffffffffffffffffffffffffffffffffffff161461071b576040517f08c379a0000000000000000000000000000000000000000000000000000000008152600401610712906115df565b60405180910390fd5b807f000000000000000000000000000000000000000000000000000000000000000073ffffffffffffffffffffffffffffffffffffffff166370a08231306040518263ffffffff1660e01b815260040161077591906114de565b60206040518083038186803b15801561078d57600080fd5b505afa1580156107a1573d6000803e3d6000fd5b505050506040513d601f19601f820116820180604052508101906107c591906112c8565b1015610806576040517f08c379a00000000000000000000000000000000000000000000000000000000081526004016107fd9061155f565b60405180910390fd5b610858610811610b6d565b827f000000000000000000000000000000000000000000000000000000000000000073ffffffffffffffffffffffffffffffffffffffff16610e269092919063ffffffff16565b6001808190555050565b600260009054906101000a900473ffffffffffffffffffffffffffffffffffffffff1681565b7f000000000000000000000000000000000000000000000000000000000000000081565b6108b4610e1e565b73ffffffffffffffffffffffffffffffffffffffff166108d2610b6d565b73ffffffffffffffffffffffffffffffffffffffff1614610928576040517f08c379a000000000000000000000000000000000000000000000000000000000815260040161091f906115df565b60405180910390fd5b6109326000610eac565b565b6002600154141561097a576040517f08c379a00000000000000000000000000000000000000000000000000000000081526004016109719061165f565b60405180910390fd5b6002600181905550600260009054906101000a900473ffffffffffffffffffffffffffffffffffffffff1673ffffffffffffffffffffffffffffffffffffffff166109c3610e1e565b73ffffffffffffffffffffffffffffffffffffffff1614610a19576040517f08c379a0000000000000000000000000000000000000000000000000000000008152600401610a10906115bf565b60405180910390fd5b7f00000000000000000000000000000000000000000000000000000000000000004211610a7b576040517f08c379a0000000000000000000000000000000000000000000000000000000008152600401610a729061161f565b60405180910390fd5b6000610a864261035e565b9050610a9d81600354610dc690919063ffffffff16565b600381905550610ab96001600454610dc690919063ffffffff16565b600481905550610b2c600260009054906101000a900473ffffffffffffffffffffffffffffffffffffffff16827f000000000000000000000000000000000000000000000000000000000000000073ffffffffffffffffffffffffffffffffffffffff16610e269092919063ffffffff16565b7ffb81f9b30d73d830c3544b34d827c08142579ee75710b490bab0b3995468c56581604051610b5b919061167f565b60405180910390a15060018081905550565b60008060009054906101000a900473ffffffffffffffffffffffffffffffffffffffff16905090565b60035481565b7f000000000000000000000000000000000000000000000000000000000000000081565b7f000000000000000000000000000000000000000000000000000000000000000081565b60045481565b610bf2610e1e565b73ffffffffffffffffffffffffffffffffffffffff16610c10610b6d565b73ffffffffffffffffffffffffffffffffffffffff1614610c66576040517f08c379a0000000000000000000000000000000000000000000000000000000008152600401610c5d906115df565b60405180910390fd5b80600260006101000a81548173ffffffffffffffffffffffffffffffffffffffff021916908373ffffffffffffffffffffffffffffffffffffffff16021790555050565b610cb2610e1e565b73ffffffffffffffffffffffffffffffffffffffff16610cd0610b6d565b73ffffffffffffffffffffffffffffffffffffffff1614610d26576040517f08c379a0000000000000000000000000000000000000000000000000000000008152600401610d1d906115df565b60405180910390fd5b600073ffffffffffffffffffffffffffffffffffffffff168173ffffffffffffffffffffffffffffffffffffffff161415610d96576040517f08c379a0000000000000000000000000000000000000000000000000000000008152600401610d8d9061157f565b60405180910390fd5b610d9f81610eac565b50565b7f000000000000000000000000000000000000000000000000000000000000000081565b60008183610dd491906116cc565b905092915050565b60008183610dea91906117ad565b905092915050565b60008183610e009190611722565b905092915050565b60008183610e169190611753565b905092915050565b600033905090565b610ea78363a9059cbb60e01b8484604051602401610e459291906114f9565b604051602081830303815290604052907bffffffffffffffffffffffffffffffffffffffffffffffffffffffff19166020820180517bffffffffffffffffffffffffffffffffffffffffffffffffffffffff8381831617835250505050610f70565b505050565b60008060009054906101000a900473ffffffffffffffffffffffffffffffffffffffff169050816000806101000a81548173ffffffffffffffffffffffffffffffffffffffff021916908373ffffffffffffffffffffffffffffffffffffffff1602179055508173ffffffffffffffffffffffffffffffffffffffff168173ffffffffffffffffffffffffffffffffffffffff167f8be0079c531659141344cd1fd0a4f28419497f9722a3daafe3b4186f6b6457e060405160405180910390a35050565b6000610fd2826040518060400160405280602081526020017f5361666545524332303a206c6f772d6c6576656c2063616c6c206661696c65648152508573ffffffffffffffffffffffffffffffffffffffff166110379092919063ffffffff16565b90506000815111156110325780806020019051810190610ff2919061126e565b611031576040517f08c379a00000000000000000000000000000000000000000000000000000000081526004016110289061163f565b60405180910390fd5b5b505050565b6060611046848460008561104f565b90509392505050565b606082471015611094576040517f08c379a000000000000000000000000000000000000000000000000000000000815260040161108b9061159f565b60405180910390fd5b61109d85611163565b6110dc576040517f08c379a00000000000000000000000000000000000000000000000000000000081526004016110d3906115ff565b60405180910390fd5b6000808673ffffffffffffffffffffffffffffffffffffffff16858760405161110591906114c7565b60006040518083038185875af1925050503d8060008114611142576040519150601f19603f3d011682016040523d82523d6000602084013e611147565b606091505b5091509150611157828286611186565b92505050949350505050565b6000808273ffffffffffffffffffffffffffffffffffffffff163b119050919050565b60608315611196578290506111e6565b6000835111156111a95782518084602001fd5b816040517f08c379a00000000000000000000000000000000000000000000000000000000081526004016111dd919061153d565b60405180910390fd5b9392505050565b6000813590506111fc81611b35565b92915050565b60008151905061121181611b4c565b92915050565b60008135905061122681611b63565b92915050565b60008151905061123b81611b63565b92915050565b600060208284031215611257576112566118f0565b5b6000611265848285016111ed565b91505092915050565b600060208284031215611284576112836118f0565b5b600061129284828501611202565b91505092915050565b6000602082840312156112b1576112b06118f0565b5b60006112bf84828501611217565b91505092915050565b6000602082840312156112de576112dd6118f0565b5b60006112ec8482850161122c565b91505092915050565b6112fe816117e1565b82525050565b600061130f8261169a565b61131981856116b0565b935061132981856020860161185f565b80840191505092915050565b61133e81611829565b82525050565b600061134f826116a5565b61135981856116bb565b935061136981856020860161185f565b611372816118f5565b840191505092915050565b600061138a6028836116bb565b915061139582611906565b604082019050919050565b60006113ad6026836116bb565b91506113b882611955565b604082019050919050565b60006113d06026836116bb565b91506113db826119a4565b604082019050919050565b60006113f36035836116bb565b91506113fe826119f3565b604082019050919050565b60006114166020836116bb565b915061142182611a42565b602082019050919050565b6000611439601d836116bb565b915061144482611a6b565b602082019050919050565b600061145c601e836116bb565b915061146782611a94565b602082019050919050565b600061147f602a836116bb565b915061148a82611abd565b604082019050919050565b60006114a2601f836116bb565b91506114ad82611b0c565b602082019050919050565b6114c18161181f565b82525050565b60006114d38284611304565b915081905092915050565b60006020820190506114f360008301846112f5565b92915050565b600060408201905061150e60008301856112f5565b61151b60208301846114b8565b9392505050565b60006020820190506115376000830184611335565b92915050565b600060208201905081810360008301526115578184611344565b905092915050565b600060208201905081810360008301526115788161137d565b9050919050565b60006020820190508181036000830152611598816113a0565b9050919050565b600060208201905081810360008301526115b8816113c3565b9050919050565b600060208201905081810360008301526115d8816113e6565b9050919050565b600060208201905081810360008301526115f881611409565b9050919050565b600060208201905081810360008301526116188161142c565b9050919050565b600060208201905081810360008301526116388161144f565b9050919050565b6000602082019050818103600083015261165881611472565b9050919050565b6000602082019050818103600083015261167881611495565b9050919050565b600060208201905061169460008301846114b8565b92915050565b600081519050919050565b600081519050919050565b600081905092915050565b600082825260208201905092915050565b60006116d78261181f565b91506116e28361181f565b9250827fffffffffffffffffffffffffffffffffffffffffffffffffffffffffffffffff0382111561171757611716611892565b5b828201905092915050565b600061172d8261181f565b91506117388361181f565b925082611748576117476118c1565b5b828204905092915050565b600061175e8261181f565b91506117698361181f565b9250817fffffffffffffffffffffffffffffffffffffffffffffffffffffffffffffffff04831182151516156117a2576117a1611892565b5b828202905092915050565b60006117b88261181f565b91506117c38361181f565b9250828210156117d6576117d5611892565b5b828203905092915050565b60006117ec826117ff565b9050919050565b60008115159050919050565b600073ffffffffffffffffffffffffffffffffffffffff82169050919050565b6000819050919050565b60006118348261183b565b9050919050565b60006118468261184d565b9050919050565b6000611858826117ff565b9050919050565b60005b8381101561187d578082015181840152602081019050611862565b8381111561188c576000848401525b50505050565b7f4e487b7100000000000000000000000000000000000000000000000000000000600052601160045260246000fd5b7f4e487b7100000000000000000000000000000000000000000000000000000000600052601260045260246000fd5b600080fd5b6000601f19601f8301169050919050565b7f506956657374696e673a206e6f7420656e6f756768207769746864726177616260008201527f6c652066756e6473000000000000000000000000000000000000000000000000602082015250565b7f4f776e61626c653a206e6577206f776e657220697320746865207a65726f206160008201527f6464726573730000000000000000000000000000000000000000000000000000602082015250565b7f416464726573733a20696e73756666696369656e742062616c616e636520666f60008201527f722063616c6c0000000000000000000000000000000000000000000000000000602082015250565b7f506956657374696e673a206f6e6c792062656e65666963696172792063616e2060008201527f72656c656173652076657374656420746f6b656e730000000000000000000000602082015250565b7f4f776e61626c653a2063616c6c6572206973206e6f7420746865206f776e6572600082015250565b7f416464726573733a2063616c6c20746f206e6f6e2d636f6e7472616374000000600082015250565b7f506956657374696e673a206e6f742072656c656173656420706572696f640000600082015250565b7f5361666545524332303a204552433230206f7065726174696f6e20646964206e60008201527f6f74207375636365656400000000000000000000000000000000000000000000602082015250565b7f5265656e7472616e637947756172643a207265656e7472616e742063616c6c00600082015250565b611b3e816117e1565b8114611b4957600080fd5b50565b611b55816117f3565b8114611b6057600080fd5b50565b611b6c8161181f565b8114611b7757600080fd5b5056fea26469706673582212201571f4e8e49440f6483f2c1d4e4fad5a8ad8b106dc40621bbf1b251eb9c4e9ec64736f6c63430008070033",
  "linkReferences": {},
  "deployedLinkReferences": {}
}