{
  "_format": "hh-sol-artifact-1",
  "contractName": "MembershipNFT",
  "sourceName": "contracts/MembershipNFT.sol",
  "abi": [
    {
      "inputs": [
        {
          "internalType": "string",
          "name": "_name",
          "type": "string"
        },
        {
          "internalType": "string",
          "name": "_symbol",
          "type": "string"
        }
      ],
      "stateMutability": "nonpayable",
      "type": "constructor"
    },
    {
      "anonymous": false,
      "inputs": [
        {
          "indexed": true,
          "internalType": "address",
          "name": "owner",
          "type": "address"
        },
        {
          "indexed": true,
          "internalType": "address",
          "name": "approved",
          "type": "address"
        },
        {
          "indexed": true,
          "internalType": "uint256",
          "name": "tokenId",
          "type": "uint256"
        }
      ],
      "name": "Approval",
      "type": "event"
    },
    {
      "anonymous": false,
      "inputs": [
        {
          "indexed": true,
          "internalType": "address",
          "name": "owner",
          "type": "address"
        },
        {
          "indexed": true,
          "internalType": "address",
          "name": "operator",
          "type": "address"
        },
        {
          "indexed": false,
          "internalType": "bool",
          "name": "approved",
          "type": "bool"
        }
      ],
      "name": "ApprovalForAll",
      "type": "event"
    },
    {
      "anonymous": false,
      "inputs": [
        {
          "indexed": true,
          "internalType": "address",
          "name": "previousOwner",
          "type": "address"
        },
        {
          "indexed": true,
          "internalType": "address",
          "name": "newOwner",
          "type": "address"
        }
      ],
      "name": "OwnershipTransferred",
      "type": "event"
    },
    {
      "anonymous": false,
      "inputs": [
        {
          "indexed": true,
          "internalType": "address",
          "name": "from",
          "type": "address"
        },
        {
          "indexed": true,
          "internalType": "address",
          "name": "to",
          "type": "address"
        },
        {
          "indexed": true,
          "internalType": "uint256",
          "name": "tokenId",
          "type": "uint256"
        }
      ],
      "name": "Transfer",
      "type": "event"
    },
    {
      "inputs": [
        {
          "internalType": "address",
          "name": "to",
          "type": "address"
        },
        {
          "internalType": "uint256",
          "name": "tokenId",
          "type": "uint256"
        }
      ],
      "name": "approve",
      "outputs": [],
      "stateMutability": "nonpayable",
      "type": "function"
    },
    {
      "inputs": [
        {
          "internalType": "address",
          "name": "owner",
          "type": "address"
        }
      ],
      "name": "balanceOf",
      "outputs": [
        {
          "internalType": "uint256",
          "name": "",
          "type": "uint256"
        }
      ],
      "stateMutability": "view",
      "type": "function"
    },
    {
      "inputs": [
        {
          "internalType": "uint256",
          "name": "tokenId",
          "type": "uint256"
        }
      ],
      "name": "getApproved",
      "outputs": [
        {
          "internalType": "address",
          "name": "",
          "type": "address"
        }
      ],
      "stateMutability": "view",
      "type": "function"
    },
    {
      "inputs": [
        {
          "internalType": "address",
          "name": "owner",
          "type": "address"
        },
        {
          "internalType": "address",
          "name": "operator",
          "type": "address"
        }
      ],
      "name": "isApprovedForAll",
      "outputs": [
        {
          "internalType": "bool",
          "name": "",
          "type": "bool"
        }
      ],
      "stateMutability": "view",
      "type": "function"
    },
    {
      "inputs": [],
      "name": "name",
      "outputs": [
        {
          "internalType": "string",
          "name": "",
          "type": "string"
        }
      ],
      "stateMutability": "view",
      "type": "function"
    },
    {
      "inputs": [],
      "name": "owner",
      "outputs": [
        {
          "internalType": "address",
          "name": "",
          "type": "address"
        }
      ],
      "stateMutability": "view",
      "type": "function"
    },
    {
      "inputs": [
        {
          "internalType": "uint256",
          "name": "tokenId",
          "type": "uint256"
        }
      ],
      "name": "ownerOf",
      "outputs": [
        {
          "internalType": "address",
          "name": "",
          "type": "address"
        }
      ],
      "stateMutability": "view",
      "type": "function"
    },
    {
      "inputs": [],
      "name": "renounceOwnership",
      "outputs": [],
      "stateMutability": "nonpayable",
      "type": "function"
    },
    {
      "inputs": [
        {
          "internalType": "address",
          "name": "to",
          "type": "address"
        }
      ],
      "name": "safeMint",
      "outputs": [],
      "stateMutability": "nonpayable",
      "type": "function"
    },
    {
      "inputs": [
        {
          "internalType": "address",
          "name": "from",
          "type": "address"
        },
        {
          "internalType": "address",
          "name": "to",
          "type": "address"
        },
        {
          "internalType": "uint256",
          "name": "tokenId",
          "type": "uint256"
        }
      ],
      "name": "safeTransferFrom",
      "outputs": [],
      "stateMutability": "nonpayable",
      "type": "function"
    },
    {
      "inputs": [
        {
          "internalType": "address",
          "name": "from",
          "type": "address"
        },
        {
          "internalType": "address",
          "name": "to",
          "type": "address"
        },
        {
          "internalType": "uint256",
          "name": "tokenId",
          "type": "uint256"
        },
        {
          "internalType": "bytes",
          "name": "_data",
          "type": "bytes"
        }
      ],
      "name": "safeTransferFrom",
      "outputs": [],
      "stateMutability": "nonpayable",
      "type": "function"
    },
    {
      "inputs": [
        {
          "internalType": "address",
          "name": "operator",
          "type": "address"
        },
        {
          "internalType": "bool",
          "name": "approved",
          "type": "bool"
        }
      ],
      "name": "setApprovalForAll",
      "outputs": [],
      "stateMutability": "nonpayable",
      "type": "function"
    },
    {
      "inputs": [
        {
          "internalType": "bytes4",
          "name": "interfaceId",
          "type": "bytes4"
        }
      ],
      "name": "supportsInterface",
      "outputs": [
        {
          "internalType": "bool",
          "name": "",
          "type": "bool"
        }
      ],
      "stateMutability": "view",
      "type": "function"
    },
    {
      "inputs": [],
      "name": "symbol",
      "outputs": [
        {
          "internalType": "string",
          "name": "",
          "type": "string"
        }
      ],
      "stateMutability": "view",
      "type": "function"
    },
    {
      "inputs": [
        {
          "internalType": "uint256",
          "name": "index",
          "type": "uint256"
        }
      ],
      "name": "tokenByIndex",
      "outputs": [
        {
          "internalType": "uint256",
          "name": "",
          "type": "uint256"
        }
      ],
      "stateMutability": "view",
      "type": "function"
    },
    {
      "inputs": [
        {
          "internalType": "address",
          "name": "owner",
          "type": "address"
        },
        {
          "internalType": "uint256",
          "name": "index",
          "type": "uint256"
        }
      ],
      "name": "tokenOfOwnerByIndex",
      "outputs": [
        {
          "internalType": "uint256",
          "name": "",
          "type": "uint256"
        }
      ],
      "stateMutability": "view",
      "type": "function"
    },
    {
      "inputs": [
        {
          "internalType": "uint256",
          "name": "tokenId",
          "type": "uint256"
        }
      ],
      "name": "tokenURI",
      "outputs": [
        {
          "internalType": "string",
          "name": "",
          "type": "string"
        }
      ],
      "stateMutability": "view",
      "type": "function"
    },
    {
      "inputs": [],
      "name": "totalSupply",
      "outputs": [
        {
          "internalType": "uint256",
          "name": "",
          "type": "uint256"
        }
      ],
      "stateMutability": "view",
      "type": "function"
    },
    {
      "inputs": [
        {
          "internalType": "address",
          "name": "from",
          "type": "address"
        },
        {
          "internalType": "address",
          "name": "to",
          "type": "address"
        },
        {
          "internalType": "uint256",
          "name": "tokenId",
          "type": "uint256"
        }
      ],
      "name": "transferFrom",
      "outputs": [],
      "stateMutability": "nonpayable",
      "type": "function"
    },
    {
      "inputs": [
        {
          "internalType": "address",
          "name": "newOwner",
          "type": "address"
        }
      ],
      "name": "transferOwnership",
      "outputs": [],
      "stateMutability": "nonpayable",
      "type": "function"
    }
  ],
  "bytecode": "0x60806040523480156200001157600080fd5b506040516200385e3803806200385e833981810160405281019062000037919062000291565b818181600090805190602001906200005192919062000163565b5080600190805190602001906200006a92919062000163565b5050506200008d620000816200009560201b60201c565b6200009d60201b60201c565b50506200049a565b600033905090565b6000600a60009054906101000a900473ffffffffffffffffffffffffffffffffffffffff16905081600a60006101000a81548173ffffffffffffffffffffffffffffffffffffffff021916908373ffffffffffffffffffffffffffffffffffffffff1602179055508173ffffffffffffffffffffffffffffffffffffffff168173ffffffffffffffffffffffffffffffffffffffff167f8be0079c531659141344cd1fd0a4f28419497f9722a3daafe3b4186f6b6457e060405160405180910390a35050565b8280546200017190620003ab565b90600052602060002090601f016020900481019282620001955760008555620001e1565b82601f10620001b057805160ff1916838001178555620001e1565b82800160010185558215620001e1579182015b82811115620001e0578251825591602001919060010190620001c3565b5b509050620001f09190620001f4565b5090565b5b808211156200020f576000816000905550600101620001f5565b5090565b60006200022a62000224846200033f565b62000316565b9050828152602081018484840111156200024957620002486200047a565b5b6200025684828562000375565b509392505050565b600082601f83011262000276576200027562000475565b5b81516200028884826020860162000213565b91505092915050565b60008060408385031215620002ab57620002aa62000484565b5b600083015167ffffffffffffffff811115620002cc57620002cb6200047f565b5b620002da858286016200025e565b925050602083015167ffffffffffffffff811115620002fe57620002fd6200047f565b5b6200030c858286016200025e565b9150509250929050565b60006200032262000335565b9050620003308282620003e1565b919050565b6000604051905090565b600067ffffffffffffffff8211156200035d576200035c62000446565b5b620003688262000489565b9050602081019050919050565b60005b838110156200039557808201518184015260208101905062000378565b83811115620003a5576000848401525b50505050565b60006002820490506001821680620003c457607f821691505b60208210811415620003db57620003da62000417565b5b50919050565b620003ec8262000489565b810181811067ffffffffffffffff821117156200040e576200040d62000446565b5b80604052505050565b7f4e487b7100000000000000000000000000000000000000000000000000000000600052602260045260246000fd5b7f4e487b7100000000000000000000000000000000000000000000000000000000600052604160045260246000fd5b600080fd5b600080fd5b600080fd5b600080fd5b6000601f19601f8301169050919050565b6133b480620004aa6000396000f3fe608060405234801561001057600080fd5b506004361061012c5760003560e01c80636352211e116100ad578063a22cb46511610071578063a22cb46514610343578063b88d4fde1461035f578063c87b56dd1461037b578063e985e9c5146103ab578063f2fde38b146103db5761012c565b80636352211e1461029d57806370a08231146102cd578063715018a6146102fd5780638da5cb5b1461030757806395d89b41146103255761012c565b806323b872dd116100f457806323b872dd146101e95780632f745c591461020557806340d097c31461023557806342842e0e146102515780634f6ccce71461026d5761012c565b806301ffc9a71461013157806306fdde0314610161578063081812fc1461017f578063095ea7b3146101af57806318160ddd146101cb575b600080fd5b61014b60048036038101906101469190612316565b6103f7565b604051610158919061276e565b60405180910390f35b610169610409565b6040516101769190612789565b60405180910390f35b61019960048036038101906101949190612370565b61049b565b6040516101a69190612707565b60405180910390f35b6101c960048036038101906101c491906122d6565b610520565b005b6101d3610638565b6040516101e091906129eb565b60405180910390f35b61020360048036038101906101fe91906121c0565b610645565b005b61021f600480360381019061021a91906122d6565b6106a5565b60405161022c91906129eb565b60405180910390f35b61024f600480360381019061024a9190612153565b61074a565b005b61026b600480360381019061026691906121c0565b6107ec565b005b61028760048036038101906102829190612370565b61080c565b60405161029491906129eb565b60405180910390f35b6102b760048036038101906102b29190612370565b61087d565b6040516102c49190612707565b60405180910390f35b6102e760048036038101906102e29190612153565b61092f565b6040516102f491906129eb565b60405180910390f35b6103056109e7565b005b61030f610a6f565b60405161031c9190612707565b60405180910390f35b61032d610a99565b60405161033a9190612789565b60405180910390f35b61035d60048036038101906103589190612296565b610b2b565b005b61037960048036038101906103749190612213565b610b41565b005b61039560048036038101906103909190612370565b610ba3565b6040516103a29190612789565b60405180910390f35b6103c560048036038101906103c09190612180565b610c4a565b6040516103d2919061276e565b60405180910390f35b6103f560048036038101906103f09190612153565b610cde565b005b600061040282610dd6565b9050919050565b60606000805461041890612c10565b80601f016020809104026020016040519081016040528092919081815260200182805461044490612c10565b80156104915780601f1061046657610100808354040283529160200191610491565b820191906000526020600020905b81548152906001019060200180831161047457829003601f168201915b5050505050905090565b60006104a682610e50565b6104e5576040517f08c379a00000000000000000000000000000000000000000000000000000000081526004016104dc9061292b565b60405180910390fd5b6004600083815260200190815260200160002060009054906101000a900473ffffffffffffffffffffffffffffffffffffffff169050919050565b600061052b8261087d565b90508073ffffffffffffffffffffffffffffffffffffffff168373ffffffffffffffffffffffffffffffffffffffff16141561059c576040517f08c379a00000000000000000000000000000000000000000000000000000000081526004016105939061298b565b60405180910390fd5b8073ffffffffffffffffffffffffffffffffffffffff166105bb610ebc565b73ffffffffffffffffffffffffffffffffffffffff1614806105ea57506105e9816105e4610ebc565b610c4a565b5b610629576040517f08c379a0000000000000000000000000000000000000000000000000000000008152600401610620906128ab565b60405180910390fd5b6106338383610ec4565b505050565b6000600880549050905090565b610656610650610ebc565b82610f7d565b610695576040517f08c379a000000000000000000000000000000000000000000000000000000000815260040161068c906129ab565b60405180910390fd5b6106a083838361105b565b505050565b60006106b08361092f565b82106106f1576040517f08c379a00000000000000000000000000000000000000000000000000000000081526004016106e8906127ab565b60405180910390fd5b600660008473ffffffffffffffffffffffffffffffffffffffff1673ffffffffffffffffffffffffffffffffffffffff168152602001908152602001600020600083815260200190815260200160002054905092915050565b610752610ebc565b73ffffffffffffffffffffffffffffffffffffffff16610770610a6f565b73ffffffffffffffffffffffffffffffffffffffff16146107c6576040517f08c379a00000000000000000000000000000000000000000000000000000000081526004016107bd9061294b565b60405180910390fd5b60006107d2600b6112c2565b90506107de600b6112d0565b6107e882826112e6565b5050565b61080783838360405180602001604052806000815250610b41565b505050565b6000610816610638565b8210610857576040517f08c379a000000000000000000000000000000000000000000000000000000000815260040161084e906129cb565b60405180910390fd5b6008828154811061086b5761086a612da9565b5b90600052602060002001549050919050565b6000806002600084815260200190815260200160002060009054906101000a900473ffffffffffffffffffffffffffffffffffffffff169050600073ffffffffffffffffffffffffffffffffffffffff168173ffffffffffffffffffffffffffffffffffffffff161415610926576040517f08c379a000000000000000000000000000000000000000000000000000000000815260040161091d906128eb565b60405180910390fd5b80915050919050565b60008073ffffffffffffffffffffffffffffffffffffffff168273ffffffffffffffffffffffffffffffffffffffff1614156109a0576040517f08c379a0000000000000000000000000000000000000000000000000000000008152600401610997906128cb565b60405180910390fd5b600360008373ffffffffffffffffffffffffffffffffffffffff1673ffffffffffffffffffffffffffffffffffffffff168152602001908152602001600020549050919050565b6109ef610ebc565b73ffffffffffffffffffffffffffffffffffffffff16610a0d610a6f565b73ffffffffffffffffffffffffffffffffffffffff1614610a63576040517f08c379a0000000000000000000000000000000000000000000000000000000008152600401610a5a9061294b565b60405180910390fd5b610a6d6000611304565b565b6000600a60009054906101000a900473ffffffffffffffffffffffffffffffffffffffff16905090565b606060018054610aa890612c10565b80601f0160208091040260200160405190810160405280929190818152602001828054610ad490612c10565b8015610b215780601f10610af657610100808354040283529160200191610b21565b820191906000526020600020905b815481529060010190602001808311610b0457829003601f168201915b5050505050905090565b610b3d610b36610ebc565b83836113ca565b5050565b610b52610b4c610ebc565b83610f7d565b610b91576040517f08c379a0000000000000000000000000000000000000000000000000000000008152600401610b88906129ab565b60405180910390fd5b610b9d84848484611537565b50505050565b6060610bae82610e50565b610bed576040517f08c379a0000000000000000000000000000000000000000000000000000000008152600401610be49061296b565b60405180910390fd5b6000610bf7611593565b90506000815111610c175760405180602001604052806000815250610c42565b80610c21846115aa565b604051602001610c329291906126e3565b6040516020818303038152906040525b915050919050565b6000600560008473ffffffffffffffffffffffffffffffffffffffff1673ffffffffffffffffffffffffffffffffffffffff16815260200190815260200160002060008373ffffffffffffffffffffffffffffffffffffffff1673ffffffffffffffffffffffffffffffffffffffff16815260200190815260200160002060009054906101000a900460ff16905092915050565b610ce6610ebc565b73ffffffffffffffffffffffffffffffffffffffff16610d04610a6f565b73ffffffffffffffffffffffffffffffffffffffff1614610d5a576040517f08c379a0000000000000000000000000000000000000000000000000000000008152600401610d519061294b565b60405180910390fd5b600073ffffffffffffffffffffffffffffffffffffffff168173ffffffffffffffffffffffffffffffffffffffff161415610dca576040517f08c379a0000000000000000000000000000000000000000000000000000000008152600401610dc1906127eb565b60405180910390fd5b610dd381611304565b50565b60007f780e9d63000000000000000000000000000000000000000000000000000000007bffffffffffffffffffffffffffffffffffffffffffffffffffffffff1916827bffffffffffffffffffffffffffffffffffffffffffffffffffffffff19161480610e495750610e488261170b565b5b9050919050565b60008073ffffffffffffffffffffffffffffffffffffffff166002600084815260200190815260200160002060009054906101000a900473ffffffffffffffffffffffffffffffffffffffff1673ffffffffffffffffffffffffffffffffffffffff1614159050919050565b600033905090565b816004600083815260200190815260200160002060006101000a81548173ffffffffffffffffffffffffffffffffffffffff021916908373ffffffffffffffffffffffffffffffffffffffff160217905550808273ffffffffffffffffffffffffffffffffffffffff16610f378361087d565b73ffffffffffffffffffffffffffffffffffffffff167f8c5be1e5ebec7d5bd14f71427d1e84f3dd0314c0f7b2291e5b200ac8c7c3b92560405160405180910390a45050565b6000610f8882610e50565b610fc7576040517f08c379a0000000000000000000000000000000000000000000000000000000008152600401610fbe9061288b565b60405180910390fd5b6000610fd28361087d565b90508073ffffffffffffffffffffffffffffffffffffffff168473ffffffffffffffffffffffffffffffffffffffff16148061101457506110138185610c4a565b5b8061105257508373ffffffffffffffffffffffffffffffffffffffff1661103a8461049b565b73ffffffffffffffffffffffffffffffffffffffff16145b91505092915050565b8273ffffffffffffffffffffffffffffffffffffffff1661107b8261087d565b73ffffffffffffffffffffffffffffffffffffffff16146110d1576040517f08c379a00000000000000000000000000000000000000000000000000000000081526004016110c89061280b565b60405180910390fd5b600073ffffffffffffffffffffffffffffffffffffffff168273ffffffffffffffffffffffffffffffffffffffff161415611141576040517f08c379a00000000000000000000000000000000000000000000000000000000081526004016111389061284b565b60405180910390fd5b61114c8383836117ed565b611157600082610ec4565b6001600360008573ffffffffffffffffffffffffffffffffffffffff1673ffffffffffffffffffffffffffffffffffffffff16815260200190815260200160002060008282546111a79190612b26565b925050819055506001600360008473ffffffffffffffffffffffffffffffffffffffff1673ffffffffffffffffffffffffffffffffffffffff16815260200190815260200160002060008282546111fe9190612a9f565b92505081905550816002600083815260200190815260200160002060006101000a81548173ffffffffffffffffffffffffffffffffffffffff021916908373ffffffffffffffffffffffffffffffffffffffff160217905550808273ffffffffffffffffffffffffffffffffffffffff168473ffffffffffffffffffffffffffffffffffffffff167fddf252ad1be2c89b69c2b068fc378daa952ba7f163c4a11628f55a4df523b3ef60405160405180910390a46112bd8383836117fd565b505050565b600081600001549050919050565b6001816000016000828254019250508190555050565b611300828260405180602001604052806000815250611802565b5050565b6000600a60009054906101000a900473ffffffffffffffffffffffffffffffffffffffff16905081600a60006101000a81548173ffffffffffffffffffffffffffffffffffffffff021916908373ffffffffffffffffffffffffffffffffffffffff1602179055508173ffffffffffffffffffffffffffffffffffffffff168173ffffffffffffffffffffffffffffffffffffffff167f8be0079c531659141344cd1fd0a4f28419497f9722a3daafe3b4186f6b6457e060405160405180910390a35050565b8173ffffffffffffffffffffffffffffffffffffffff168373ffffffffffffffffffffffffffffffffffffffff161415611439576040517f08c379a00000000000000000000000000000000000000000000000000000000081526004016114309061286b565b60405180910390fd5b80600560008573ffffffffffffffffffffffffffffffffffffffff1673ffffffffffffffffffffffffffffffffffffffff16815260200190815260200160002060008473ffffffffffffffffffffffffffffffffffffffff1673ffffffffffffffffffffffffffffffffffffffff16815260200190815260200160002060006101000a81548160ff0219169083151502179055508173ffffffffffffffffffffffffffffffffffffffff168373ffffffffffffffffffffffffffffffffffffffff167f17307eab39ab6107e8899845ad3d59bd9653f200f220920489ca2b5937696c318360405161152a919061276e565b60405180910390a3505050565b61154284848461105b565b61154e8484848461185d565b61158d576040517f08c379a0000000000000000000000000000000000000000000000000000000008152600401611584906127cb565b60405180910390fd5b50505050565b606060405180602001604052806000815250905090565b606060008214156115f2576040518060400160405280600181526020017f30000000000000000000000000000000000000000000000000000000000000008152509050611706565b600082905060005b6000821461162457808061160d90612c73565b915050600a8261161d9190612af5565b91506115fa565b60008167ffffffffffffffff8111156116405761163f612dd8565b5b6040519080825280601f01601f1916602001820160405280156116725781602001600182028036833780820191505090505b5090505b600085146116ff5760018261168b9190612b26565b9150600a8561169a9190612cbc565b60306116a69190612a9f565b60f81b8183815181106116bc576116bb612da9565b5b60200101907effffffffffffffffffffffffffffffffffffffffffffffffffffffffffffff1916908160001a905350600a856116f89190612af5565b9450611676565b8093505050505b919050565b60007f80ac58cd000000000000000000000000000000000000000000000000000000007bffffffffffffffffffffffffffffffffffffffffffffffffffffffff1916827bffffffffffffffffffffffffffffffffffffffffffffffffffffffff191614806117d657507f5b5e139f000000000000000000000000000000000000000000000000000000007bffffffffffffffffffffffffffffffffffffffffffffffffffffffff1916827bffffffffffffffffffffffffffffffffffffffffffffffffffffffff1916145b806117e657506117e5826119f4565b5b9050919050565b6117f8838383611a5e565b505050565b505050565b61180c8383611b72565b611819600084848461185d565b611858576040517f08c379a000000000000000000000000000000000000000000000000000000000815260040161184f906127cb565b60405180910390fd5b505050565b600061187e8473ffffffffffffffffffffffffffffffffffffffff16611d4c565b156119e7578373ffffffffffffffffffffffffffffffffffffffff1663150b7a026118a7610ebc565b8786866040518563ffffffff1660e01b81526004016118c99493929190612722565b602060405180830381600087803b1580156118e357600080fd5b505af192505050801561191457506040513d601f19601f820116820180604052508101906119119190612343565b60015b611997573d8060008114611944576040519150601f19603f3d011682016040523d82523d6000602084013e611949565b606091505b5060008151141561198f576040517f08c379a0000000000000000000000000000000000000000000000000000000008152600401611986906127cb565b60405180910390fd5b805181602001fd5b63150b7a0260e01b7bffffffffffffffffffffffffffffffffffffffffffffffffffffffff1916817bffffffffffffffffffffffffffffffffffffffffffffffffffffffff1916149150506119ec565b600190505b949350505050565b60007f01ffc9a7000000000000000000000000000000000000000000000000000000007bffffffffffffffffffffffffffffffffffffffffffffffffffffffff1916827bffffffffffffffffffffffffffffffffffffffffffffffffffffffff1916149050919050565b611a69838383611d6f565b600073ffffffffffffffffffffffffffffffffffffffff168373ffffffffffffffffffffffffffffffffffffffff161415611aac57611aa781611d74565b611aeb565b8173ffffffffffffffffffffffffffffffffffffffff168373ffffffffffffffffffffffffffffffffffffffff1614611aea57611ae98382611dbd565b5b5b600073ffffffffffffffffffffffffffffffffffffffff168273ffffffffffffffffffffffffffffffffffffffff161415611b2e57611b2981611f2a565b611b6d565b8273ffffffffffffffffffffffffffffffffffffffff168273ffffffffffffffffffffffffffffffffffffffff1614611b6c57611b6b8282611ffb565b5b5b505050565b600073ffffffffffffffffffffffffffffffffffffffff168273ffffffffffffffffffffffffffffffffffffffff161415611be2576040517f08c379a0000000000000000000000000000000000000000000000000000000008152600401611bd99061290b565b60405180910390fd5b611beb81610e50565b15611c2b576040517f08c379a0000000000000000000000000000000000000000000000000000000008152600401611c229061282b565b60405180910390fd5b611c37600083836117ed565b6001600360008473ffffffffffffffffffffffffffffffffffffffff1673ffffffffffffffffffffffffffffffffffffffff1681526020019081526020016000206000828254611c879190612a9f565b92505081905550816002600083815260200190815260200160002060006101000a81548173ffffffffffffffffffffffffffffffffffffffff021916908373ffffffffffffffffffffffffffffffffffffffff160217905550808273ffffffffffffffffffffffffffffffffffffffff16600073ffffffffffffffffffffffffffffffffffffffff167fddf252ad1be2c89b69c2b068fc378daa952ba7f163c4a11628f55a4df523b3ef60405160405180910390a4611d48600083836117fd565b5050565b6000808273ffffffffffffffffffffffffffffffffffffffff163b119050919050565b505050565b6008805490506009600083815260200190815260200160002081905550600881908060018154018082558091505060019003906000526020600020016000909190919091505550565b60006001611dca8461092f565b611dd49190612b26565b9050600060076000848152602001908152602001600020549050818114611eb9576000600660008673ffffffffffffffffffffffffffffffffffffffff1673ffffffffffffffffffffffffffffffffffffffff168152602001908152602001600020600084815260200190815260200160002054905080600660008773ffffffffffffffffffffffffffffffffffffffff1673ffffffffffffffffffffffffffffffffffffffff168152602001908152602001600020600084815260200190815260200160002081905550816007600083815260200190815260200160002081905550505b6007600084815260200190815260200160002060009055600660008573ffffffffffffffffffffffffffffffffffffffff1673ffffffffffffffffffffffffffffffffffffffff16815260200190815260200160002060008381526020019081526020016000206000905550505050565b60006001600880549050611f3e9190612b26565b9050600060096000848152602001908152602001600020549050600060088381548110611f6e57611f6d612da9565b5b906000526020600020015490508060088381548110611f9057611f8f612da9565b5b906000526020600020018190555081600960008381526020019081526020016000208190555060096000858152602001908152602001600020600090556008805480611fdf57611fde612d7a565b5b6001900381819060005260206000200160009055905550505050565b60006120068361092f565b905081600660008573ffffffffffffffffffffffffffffffffffffffff1673ffffffffffffffffffffffffffffffffffffffff168152602001908152602001600020600083815260200190815260200160002081905550806007600084815260200190815260200160002081905550505050565b600061208d61208884612a2b565b612a06565b9050828152602081018484840111156120a9576120a8612e0c565b5b6120b4848285612bce565b509392505050565b6000813590506120cb81613322565b92915050565b6000813590506120e081613339565b92915050565b6000813590506120f581613350565b92915050565b60008151905061210a81613350565b92915050565b600082601f83011261212557612124612e07565b5b813561213584826020860161207a565b91505092915050565b60008135905061214d81613367565b92915050565b60006020828403121561216957612168612e16565b5b6000612177848285016120bc565b91505092915050565b6000806040838503121561219757612196612e16565b5b60006121a5858286016120bc565b92505060206121b6858286016120bc565b9150509250929050565b6000806000606084860312156121d9576121d8612e16565b5b60006121e7868287016120bc565b93505060206121f8868287016120bc565b92505060406122098682870161213e565b9150509250925092565b6000806000806080858703121561222d5761222c612e16565b5b600061223b878288016120bc565b945050602061224c878288016120bc565b935050604061225d8782880161213e565b925050606085013567ffffffffffffffff81111561227e5761227d612e11565b5b61228a87828801612110565b91505092959194509250565b600080604083850312156122ad576122ac612e16565b5b60006122bb858286016120bc565b92505060206122cc858286016120d1565b9150509250929050565b600080604083850312156122ed576122ec612e16565b5b60006122fb858286016120bc565b925050602061230c8582860161213e565b9150509250929050565b60006020828403121561232c5761232b612e16565b5b600061233a848285016120e6565b91505092915050565b60006020828403121561235957612358612e16565b5b6000612367848285016120fb565b91505092915050565b60006020828403121561238657612385612e16565b5b60006123948482850161213e565b91505092915050565b6123a681612b5a565b82525050565b6123b581612b6c565b82525050565b60006123c682612a5c565b6123d08185612a72565b93506123e0818560208601612bdd565b6123e981612e1b565b840191505092915050565b60006123ff82612a67565b6124098185612a83565b9350612419818560208601612bdd565b61242281612e1b565b840191505092915050565b600061243882612a67565b6124428185612a94565b9350612452818560208601612bdd565b80840191505092915050565b600061246b602b83612a83565b915061247682612e2c565b604082019050919050565b600061248e603283612a83565b915061249982612e7b565b604082019050919050565b60006124b1602683612a83565b91506124bc82612eca565b604082019050919050565b60006124d4602583612a83565b91506124df82612f19565b604082019050919050565b60006124f7601c83612a83565b915061250282612f68565b602082019050919050565b600061251a602483612a83565b915061252582612f91565b604082019050919050565b600061253d601983612a83565b915061254882612fe0565b602082019050919050565b6000612560602c83612a83565b915061256b82613009565b604082019050919050565b6000612583603883612a83565b915061258e82613058565b604082019050919050565b60006125a6602a83612a83565b91506125b1826130a7565b604082019050919050565b60006125c9602983612a83565b91506125d4826130f6565b604082019050919050565b60006125ec602083612a83565b91506125f782613145565b602082019050919050565b600061260f602c83612a83565b915061261a8261316e565b604082019050919050565b6000612632602083612a83565b915061263d826131bd565b602082019050919050565b6000612655602f83612a83565b9150612660826131e6565b604082019050919050565b6000612678602183612a83565b915061268382613235565b604082019050919050565b600061269b603183612a83565b91506126a682613284565b604082019050919050565b60006126be602c83612a83565b91506126c9826132d3565b604082019050919050565b6126dd81612bc4565b82525050565b60006126ef828561242d565b91506126fb828461242d565b91508190509392505050565b600060208201905061271c600083018461239d565b92915050565b6000608082019050612737600083018761239d565b612744602083018661239d565b61275160408301856126d4565b818103606083015261276381846123bb565b905095945050505050565b600060208201905061278360008301846123ac565b92915050565b600060208201905081810360008301526127a381846123f4565b905092915050565b600060208201905081810360008301526127c48161245e565b9050919050565b600060208201905081810360008301526127e481612481565b9050919050565b60006020820190508181036000830152612804816124a4565b9050919050565b60006020820190508181036000830152612824816124c7565b9050919050565b60006020820190508181036000830152612844816124ea565b9050919050565b600060208201905081810360008301526128648161250d565b9050919050565b6000602082019050818103600083015261288481612530565b9050919050565b600060208201905081810360008301526128a481612553565b9050919050565b600060208201905081810360008301526128c481612576565b9050919050565b600060208201905081810360008301526128e481612599565b9050919050565b60006020820190508181036000830152612904816125bc565b9050919050565b60006020820190508181036000830152612924816125df565b9050919050565b6000602082019050818103600083015261294481612602565b9050919050565b6000602082019050818103600083015261296481612625565b9050919050565b6000602082019050818103600083015261298481612648565b9050919050565b600060208201905081810360008301526129a48161266b565b9050919050565b600060208201905081810360008301526129c48161268e565b9050919050565b600060208201905081810360008301526129e4816126b1565b9050919050565b6000602082019050612a0060008301846126d4565b92915050565b6000612a10612a21565b9050612a1c8282612c42565b919050565b6000604051905090565b600067ffffffffffffffff821115612a4657612a45612dd8565b5b612a4f82612e1b565b9050602081019050919050565b600081519050919050565b600081519050919050565b600082825260208201905092915050565b600082825260208201905092915050565b600081905092915050565b6000612aaa82612bc4565b9150612ab583612bc4565b9250827fffffffffffffffffffffffffffffffffffffffffffffffffffffffffffffffff03821115612aea57612ae9612ced565b5b828201905092915050565b6000612b0082612bc4565b9150612b0b83612bc4565b925082612b1b57612b1a612d1c565b5b828204905092915050565b6000612b3182612bc4565b9150612b3c83612bc4565b925082821015612b4f57612b4e612ced565b5b828203905092915050565b6000612b6582612ba4565b9050919050565b60008115159050919050565b60007fffffffff0000000000000000000000000000000000000000000000000000000082169050919050565b600073ffffffffffffffffffffffffffffffffffffffff82169050919050565b6000819050919050565b82818337600083830152505050565b60005b83811015612bfb578082015181840152602081019050612be0565b83811115612c0a576000848401525b50505050565b60006002820490506001821680612c2857607f821691505b60208210811415612c3c57612c3b612d4b565b5b50919050565b612c4b82612e1b565b810181811067ffffffffffffffff82111715612c6a57612c69612dd8565b5b80604052505050565b6000612c7e82612bc4565b91507fffffffffffffffffffffffffffffffffffffffffffffffffffffffffffffffff821415612cb157612cb0612ced565b5b600182019050919050565b6000612cc782612bc4565b9150612cd283612bc4565b925082612ce257612ce1612d1c565b5b828206905092915050565b7f4e487b7100000000000000000000000000000000000000000000000000000000600052601160045260246000fd5b7f4e487b7100000000000000000000000000000000000000000000000000000000600052601260045260246000fd5b7f4e487b7100000000000000000000000000000000000000000000000000000000600052602260045260246000fd5b7f4e487b7100000000000000000000000000000000000000000000000000000000600052603160045260246000fd5b7f4e487b7100000000000000000000000000000000000000000000000000000000600052603260045260246000fd5b7f4e487b7100000000000000000000000000000000000000000000000000000000600052604160045260246000fd5b600080fd5b600080fd5b600080fd5b600080fd5b6000601f19601f8301169050919050565b7f455243373231456e756d657261626c653a206f776e657220696e646578206f7560008201527f74206f6620626f756e6473000000000000000000000000000000000000000000602082015250565b7f4552433732313a207472616e7366657220746f206e6f6e20455243373231526560008201527f63656976657220696d706c656d656e7465720000000000000000000000000000602082015250565b7f4f776e61626c653a206e6577206f776e657220697320746865207a65726f206160008201527f6464726573730000000000000000000000000000000000000000000000000000602082015250565b7f4552433732313a207472616e736665722066726f6d20696e636f72726563742060008201527f6f776e6572000000000000000000000000000000000000000000000000000000602082015250565b7f4552433732313a20746f6b656e20616c7265616479206d696e74656400000000600082015250565b7f4552433732313a207472616e7366657220746f20746865207a65726f2061646460008201527f7265737300000000000000000000000000000000000000000000000000000000602082015250565b7f4552433732313a20617070726f766520746f2063616c6c657200000000000000600082015250565b7f4552433732313a206f70657261746f7220717565727920666f72206e6f6e657860008201527f697374656e7420746f6b656e0000000000000000000000000000000000000000602082015250565b7f4552433732313a20617070726f76652063616c6c6572206973206e6f74206f7760008201527f6e6572206e6f7220617070726f76656420666f7220616c6c0000000000000000602082015250565b7f4552433732313a2062616c616e636520717565727920666f7220746865207a6560008201527f726f206164647265737300000000000000000000000000000000000000000000602082015250565b7f4552433732313a206f776e657220717565727920666f72206e6f6e657869737460008201527f656e7420746f6b656e0000000000000000000000000000000000000000000000602082015250565b7f4552433732313a206d696e7420746f20746865207a65726f2061646472657373600082015250565b7f4552433732313a20617070726f76656420717565727920666f72206e6f6e657860008201527f697374656e7420746f6b656e0000000000000000000000000000000000000000602082015250565b7f4f776e61626c653a2063616c6c6572206973206e6f7420746865206f776e6572600082015250565b7f4552433732314d657461646174613a2055524920717565727920666f72206e6f60008201527f6e6578697374656e7420746f6b656e0000000000000000000000000000000000602082015250565b7f4552433732313a20617070726f76616c20746f2063757272656e74206f776e6560008201527f7200000000000000000000000000000000000000000000000000000000000000602082015250565b7f4552433732313a207472616e736665722063616c6c6572206973206e6f74206f60008201527f776e6572206e6f7220617070726f766564000000000000000000000000000000602082015250565b7f455243373231456e756d657261626c653a20676c6f62616c20696e646578206f60008201527f7574206f6620626f756e64730000000000000000000000000000000000000000602082015250565b61332b81612b5a565b811461333657600080fd5b50565b61334281612b6c565b811461334d57600080fd5b50565b61335981612b78565b811461336457600080fd5b50565b61337081612bc4565b811461337b57600080fd5b5056fea26469706673582212204b34dd2fee390f8d380c4bfd898d30a456e0f59980d1550b3a6d28a24327e48c64736f6c63430008070033",
  "linkReferences": {},
  "deployedLinkReferences": {}
}