{
  "_format": "hh-sol-artifact-1",
  "contractName": "HesmanShop",
  "sourceName": "contracts/HesmanShop.sol",
  "abi": [
    {
      "inputs": [
        {
          "internalType": "address",
          "name": "_paymentToken",
          "type": "address"
        }
      ],
      "stateMutability": "nonpayable",
      "type": "constructor"
    },
    {
      "anonymous": false,
      "inputs": [
        {
          "indexed": false,
          "internalType": "address",
          "name": "_user",
          "type": "address"
        },
        {
          "indexed": false,
          "internalType": "uint256",
          "name": "_voucherId",
          "type": "uint256"
        },
        {
          "indexed": false,
          "internalType": "uint256",
          "name": "_voucherPrice",
          "type": "uint256"
        }
      ],
      "name": "EventBuyVoucher",
      "type": "event"
    },
    {
      "anonymous": false,
      "inputs": [
        {
          "indexed": true,
          "internalType": "address",
          "name": "previousOwner",
          "type": "address"
        },
        {
          "indexed": true,
          "internalType": "address",
          "name": "newOwner",
          "type": "address"
        }
      ],
      "name": "OwnershipTransferred",
      "type": "event"
    },
    {
      "inputs": [
        {
          "internalType": "uint256",
          "name": "_voucherId",
          "type": "uint256"
        }
      ],
      "name": "buyVoucher",
      "outputs": [],
      "stateMutability": "nonpayable",
      "type": "function"
    },
    {
      "inputs": [
        {
          "internalType": "uint256",
          "name": "",
          "type": "uint256"
        }
      ],
      "name": "idExistedMap",
      "outputs": [
        {
          "internalType": "bool",
          "name": "",
          "type": "bool"
        }
      ],
      "stateMutability": "view",
      "type": "function"
    },
    {
      "inputs": [
        {
          "internalType": "uint256",
          "name": "",
          "type": "uint256"
        }
      ],
      "name": "idToPriceMap",
      "outputs": [
        {
          "internalType": "uint256",
          "name": "",
          "type": "uint256"
        }
      ],
      "stateMutability": "view",
      "type": "function"
    },
    {
      "inputs": [],
      "name": "owner",
      "outputs": [
        {
          "internalType": "address",
          "name": "",
          "type": "address"
        }
      ],
      "stateMutability": "view",
      "type": "function"
    },
    {
      "inputs": [],
      "name": "renounceOwnership",
      "outputs": [],
      "stateMutability": "nonpayable",
      "type": "function"
    },
    {
      "inputs": [
        {
          "internalType": "address",
          "name": "_paymentToken",
          "type": "address"
        }
      ],
      "name": "setPaymentToken",
      "outputs": [],
      "stateMutability": "nonpayable",
      "type": "function"
    },
    {
      "inputs": [
        {
          "internalType": "uint256[]",
          "name": "_idList",
          "type": "uint256[]"
        },
        {
          "internalType": "uint256[]",
          "name": "_priceList",
          "type": "uint256[]"
        }
      ],
      "name": "setVoucherForSell",
      "outputs": [],
      "stateMutability": "nonpayable",
      "type": "function"
    },
    {
      "inputs": [
        {
          "internalType": "uint256[]",
          "name": "_idList",
          "type": "uint256[]"
        }
      ],
      "name": "setVoucherSoldOut",
      "outputs": [],
      "stateMutability": "nonpayable",
      "type": "function"
    },
    {
      "inputs": [
        {
          "internalType": "address",
          "name": "newOwner",
          "type": "address"
        }
      ],
      "name": "transferOwnership",
      "outputs": [],
      "stateMutability": "nonpayable",
      "type": "function"
    },
    {
      "inputs": [
        {
          "internalType": "uint256",
          "name": "",
          "type": "uint256"
        }
      ],
      "name": "voucherSoldOutMap",
      "outputs": [
        {
          "internalType": "bool",
          "name": "",
          "type": "bool"
        }
      ],
      "stateMutability": "view",
      "type": "function"
    },
    {
      "inputs": [],
      "name": "withdrawPaymentToken",
      "outputs": [],
      "stateMutability": "nonpayable",
      "type": "function"
    }
  ],
  "bytecode": "0x60806040523480156200001157600080fd5b50604051620017a6380380620017a6833981810160405281019062000037919062000189565b620000576200004b620000a660201b60201c565b620000ae60201b60201c565b6001808190555080600260006101000a81548173ffffffffffffffffffffffffffffffffffffffff021916908373ffffffffffffffffffffffffffffffffffffffff160217905550506200020e565b600033905090565b60008060009054906101000a900473ffffffffffffffffffffffffffffffffffffffff169050816000806101000a81548173ffffffffffffffffffffffffffffffffffffffff021916908373ffffffffffffffffffffffffffffffffffffffff1602179055508173ffffffffffffffffffffffffffffffffffffffff168173ffffffffffffffffffffffffffffffffffffffff167f8be0079c531659141344cd1fd0a4f28419497f9722a3daafe3b4186f6b6457e060405160405180910390a35050565b6000815190506200018381620001f4565b92915050565b600060208284031215620001a257620001a1620001ef565b5b6000620001b28482850162000172565b91505092915050565b6000620001c882620001cf565b9050919050565b600073ffffffffffffffffffffffffffffffffffffffff82169050919050565b600080fd5b620001ff81620001bb565b81146200020b57600080fd5b50565b611588806200021e6000396000f3fe608060405234801561001057600080fd5b50600436106100a95760003560e01c8063715018a611610071578063715018a61461014e578063756983b3146101585780638da5cb5b14610188578063a07a2ee7146101a6578063bc7b0687146101b0578063f2fde38b146101e0576100a9565b80634144574c146100ae57806358b90d2f146100ca5780635dd1d8b0146100fa5780636a326ab11461011657806370965d2914610132575b600080fd5b6100c860048036038101906100c39190610f45565b6101fc565b005b6100e460048036038101906100df9190610f45565b610561565b6040516100f19190611173565b60405180910390f35b610114600480360381019061010f9190610e4a565b610581565b005b610130600480360381019061012b9190610e1d565b610668565b005b61014c60048036038101906101479190610e97565b610728565b005b6101566108e8565b005b610172600480360381019061016d9190610f45565b610970565b60405161017f9190611173565b60405180910390f35b610190610990565b60405161019d91906110c1565b60405180910390f35b6101ae6109b9565b005b6101ca60048036038101906101c59190610f45565b610b97565b6040516101d7919061126e565b60405180910390f35b6101fa60048036038101906101f59190610e1d565b610baf565b005b60026001541415610242576040517f08c379a00000000000000000000000000000000000000000000000000000000081526004016102399061124e565b60405180910390fd5b6002600181905550600115156003600083815260200190815260200160002060009054906101000a900460ff161515146102b1576040517f08c379a00000000000000000000000000000000000000000000000000000000081526004016102a8906111ae565b60405180910390fd5b600015156004600083815260200190815260200160002060009054906101000a900460ff16151514610318576040517f08c379a000000000000000000000000000000000000000000000000000000000815260040161030f906111ce565b60405180910390fd5b6005600082815260200190815260200160002054600260009054906101000a900473ffffffffffffffffffffffffffffffffffffffff1673ffffffffffffffffffffffffffffffffffffffff166370a08231336040518263ffffffff1660e01b815260040161038791906110c1565b60206040518083038186803b15801561039f57600080fd5b505afa1580156103b3573d6000803e3d6000fd5b505050506040513d601f19601f820116820180604052508101906103d79190610f72565b1015610418576040517f08c379a000000000000000000000000000000000000000000000000000000000815260040161040f9061120e565b60405180910390fd5b600260009054906101000a900473ffffffffffffffffffffffffffffffffffffffff1673ffffffffffffffffffffffffffffffffffffffff166323b872dd333060056000868152602001908152602001600020546040518463ffffffff1660e01b815260040161048a939291906110dc565b602060405180830381600087803b1580156104a457600080fd5b505af11580156104b8573d6000803e3d6000fd5b505050506040513d601f19601f820116820180604052508101906104dc9190610f18565b5060016004600083815260200190815260200160002060006101000a81548160ff0219169083151502179055507f49ab31f68bd648ac4af93117630b73c3396b91cd1a0f5f1f0c8f4acf761fd8d73382600560008581526020019081526020016000205460405161054f9392919061113c565b60405180910390a16001808190555050565b60036020528060005260406000206000915054906101000a900460ff1681565b610589610ca7565b73ffffffffffffffffffffffffffffffffffffffff166105a7610990565b73ffffffffffffffffffffffffffffffffffffffff16146105fd576040517f08c379a00000000000000000000000000000000000000000000000000000000081526004016105f49061122e565b60405180910390fd5b60005b82829050811015610663576001600460008585858181106106245761062361135a565b5b90506020020135815260200190815260200160002060006101000a81548160ff021916908315150217905550808061065b906112e2565b915050610600565b505050565b610670610ca7565b73ffffffffffffffffffffffffffffffffffffffff1661068e610990565b73ffffffffffffffffffffffffffffffffffffffff16146106e4576040517f08c379a00000000000000000000000000000000000000000000000000000000081526004016106db9061122e565b60405180910390fd5b80600260006101000a81548173ffffffffffffffffffffffffffffffffffffffff021916908373ffffffffffffffffffffffffffffffffffffffff16021790555050565b610730610ca7565b73ffffffffffffffffffffffffffffffffffffffff1661074e610990565b73ffffffffffffffffffffffffffffffffffffffff16146107a4576040517f08c379a000000000000000000000000000000000000000000000000000000000815260040161079b9061122e565b60405180910390fd5b8181905084849050146107ec576040517f08c379a00000000000000000000000000000000000000000000000000000000081526004016107e3906111ee565b60405180910390fd5b60005b848490508110156108e1576000600460008787858181106108135761081261135a565b5b90506020020135815260200190815260200160002060006101000a81548160ff0219169083151502179055506001600360008787858181106108585761085761135a565b5b90506020020135815260200190815260200160002060006101000a81548160ff0219169083151502179055508282828181106108975761089661135a565b5b90506020020135600560008787858181106108b5576108b461135a565b5b9050602002013581526020019081526020016000208190555080806108d9906112e2565b9150506107ef565b5050505050565b6108f0610ca7565b73ffffffffffffffffffffffffffffffffffffffff1661090e610990565b73ffffffffffffffffffffffffffffffffffffffff1614610964576040517f08c379a000000000000000000000000000000000000000000000000000000000815260040161095b9061122e565b60405180910390fd5b61096e6000610caf565b565b60046020528060005260406000206000915054906101000a900460ff1681565b60008060009054906101000a900473ffffffffffffffffffffffffffffffffffffffff16905090565b6109c1610ca7565b73ffffffffffffffffffffffffffffffffffffffff166109df610990565b73ffffffffffffffffffffffffffffffffffffffff1614610a35576040517f08c379a0000000000000000000000000000000000000000000000000000000008152600401610a2c9061122e565b60405180910390fd5b6000600260009054906101000a900473ffffffffffffffffffffffffffffffffffffffff1673ffffffffffffffffffffffffffffffffffffffff166370a08231306040518263ffffffff1660e01b8152600401610a9291906110c1565b60206040518083038186803b158015610aaa57600080fd5b505afa158015610abe573d6000803e3d6000fd5b505050506040513d601f19601f82011682018060405250810190610ae29190610f72565b9050600260009054906101000a900473ffffffffffffffffffffffffffffffffffffffff1673ffffffffffffffffffffffffffffffffffffffff1663a9059cbb33836040518363ffffffff1660e01b8152600401610b41929190611113565b602060405180830381600087803b158015610b5b57600080fd5b505af1158015610b6f573d6000803e3d6000fd5b505050506040513d601f19601f82011682018060405250810190610b939190610f18565b5050565b60056020528060005260406000206000915090505481565b610bb7610ca7565b73ffffffffffffffffffffffffffffffffffffffff16610bd5610990565b73ffffffffffffffffffffffffffffffffffffffff1614610c2b576040517f08c379a0000000000000000000000000000000000000000000000000000000008152600401610c229061122e565b60405180910390fd5b600073ffffffffffffffffffffffffffffffffffffffff168173ffffffffffffffffffffffffffffffffffffffff161415610c9b576040517f08c379a0000000000000000000000000000000000000000000000000000000008152600401610c929061118e565b60405180910390fd5b610ca481610caf565b50565b600033905090565b60008060009054906101000a900473ffffffffffffffffffffffffffffffffffffffff169050816000806101000a81548173ffffffffffffffffffffffffffffffffffffffff021916908373ffffffffffffffffffffffffffffffffffffffff1602179055508173ffffffffffffffffffffffffffffffffffffffff168173ffffffffffffffffffffffffffffffffffffffff167f8be0079c531659141344cd1fd0a4f28419497f9722a3daafe3b4186f6b6457e060405160405180910390a35050565b600081359050610d828161150d565b92915050565b60008083601f840112610d9e57610d9d61138e565b5b8235905067ffffffffffffffff811115610dbb57610dba611389565b5b602083019150836020820283011115610dd757610dd6611393565b5b9250929050565b600081519050610ded81611524565b92915050565b600081359050610e028161153b565b92915050565b600081519050610e178161153b565b92915050565b600060208284031215610e3357610e3261139d565b5b6000610e4184828501610d73565b91505092915050565b60008060208385031215610e6157610e6061139d565b5b600083013567ffffffffffffffff811115610e7f57610e7e611398565b5b610e8b85828601610d88565b92509250509250929050565b60008060008060408587031215610eb157610eb061139d565b5b600085013567ffffffffffffffff811115610ecf57610ece611398565b5b610edb87828801610d88565b9450945050602085013567ffffffffffffffff811115610efe57610efd611398565b5b610f0a87828801610d88565b925092505092959194509250565b600060208284031215610f2e57610f2d61139d565b5b6000610f3c84828501610dde565b91505092915050565b600060208284031215610f5b57610f5a61139d565b5b6000610f6984828501610df3565b91505092915050565b600060208284031215610f8857610f8761139d565b5b6000610f9684828501610e08565b91505092915050565b610fa88161129a565b82525050565b610fb7816112ac565b82525050565b6000610fca602683611289565b9150610fd5826113a2565b604082019050919050565b6000610fed601683611289565b9150610ff8826113f1565b602082019050919050565b6000611010601083611289565b915061101b8261141a565b602082019050919050565b6000611033602983611289565b915061103e82611443565b604082019050919050565b6000611056601283611289565b915061106182611492565b602082019050919050565b6000611079602083611289565b9150611084826114bb565b602082019050919050565b600061109c601f83611289565b91506110a7826114e4565b602082019050919050565b6110bb816112d8565b82525050565b60006020820190506110d66000830184610f9f565b92915050565b60006060820190506110f16000830186610f9f565b6110fe6020830185610f9f565b61110b60408301846110b2565b949350505050565b60006040820190506111286000830185610f9f565b61113560208301846110b2565b9392505050565b60006060820190506111516000830186610f9f565b61115e60208301856110b2565b61116b60408301846110b2565b949350505050565b60006020820190506111886000830184610fae565b92915050565b600060208201905081810360008301526111a781610fbd565b9050919050565b600060208201905081810360008301526111c781610fe0565b9050919050565b600060208201905081810360008301526111e781611003565b9050919050565b6000602082019050818103600083015261120781611026565b9050919050565b6000602082019050818103600083015261122781611049565b9050919050565b600060208201905081810360008301526112478161106c565b9050919050565b600060208201905081810360008301526112678161108f565b9050919050565b600060208201905061128360008301846110b2565b92915050565b600082825260208201905092915050565b60006112a5826112b8565b9050919050565b60008115159050919050565b600073ffffffffffffffffffffffffffffffffffffffff82169050919050565b6000819050919050565b60006112ed826112d8565b91507fffffffffffffffffffffffffffffffffffffffffffffffffffffffffffffffff8214156113205761131f61132b565b5b600182019050919050565b7f4e487b7100000000000000000000000000000000000000000000000000000000600052601160045260246000fd5b7f4e487b7100000000000000000000000000000000000000000000000000000000600052603260045260246000fd5b600080fd5b600080fd5b600080fd5b600080fd5b600080fd5b7f4f776e61626c653a206e6577206f776e657220697320746865207a65726f206160008201527f6464726573730000000000000000000000000000000000000000000000000000602082015250565b7f566f7563686572206964206e6f74206578697374656400000000000000000000600082015250565b7f566f756368657220736f6c64206f757400000000000000000000000000000000600082015250565b7f4e756d626572206f662069642073686f756c6420657175616c206e756d62657260008201527f206f662070726963650000000000000000000000000000000000000000000000602082015250565b7f4e6f7420656e6f7567682062616c616e63650000000000000000000000000000600082015250565b7f4f776e61626c653a2063616c6c6572206973206e6f7420746865206f776e6572600082015250565b7f5265656e7472616e637947756172643a207265656e7472616e742063616c6c00600082015250565b6115168161129a565b811461152157600080fd5b50565b61152d816112ac565b811461153857600080fd5b50565b611544816112d8565b811461154f57600080fd5b5056fea2646970667358221220e3f5f9dc797cce0a81695ebd3220d5b00f8ff50f6a306ca143095563546948ad64736f6c63430008070033",
  "linkReferences": {},
  "deployedLinkReferences": {}
}