{
  "_format": "hh-sol-artifact-1",
  "contractName": "RunTogetherMarketplace",
  "sourceName": "contracts/RunTogetherMarketplace.sol",
  "abi": [
    {
      "inputs": [
        {
          "internalType": "address",
          "name": "_addressRunTogether",
          "type": "address"
        },
        {
          "internalType": "address",
          "name": "_addressRunTogetherMarketAdmin",
          "type": "address"
        },
        {
          "internalType": "address",
          "name": "_marketFeeWallet",
          "type": "address"
        },
        {
          "internalType": "uint256",
          "name": "_feeRate",
          "type": "uint256"
        },
        {
          "internalType": "address[]",
          "name": "_currencyTradingList",
          "type": "address[]"
        },
        {
          "internalType": "bool",
          "name": "_isOpenMarket",
          "type": "bool"
        }
      ],
      "stateMutability": "nonpayable",
      "type": "constructor"
    },
    {
      "anonymous": false,
      "inputs": [
        {
          "indexed": false,
          "internalType": "uint256",
          "name": "saleIndex",
          "type": "uint256"
        },
        {
          "indexed": false,
          "internalType": "uint256",
          "name": "nftId",
          "type": "uint256"
        },
        {
          "indexed": false,
          "internalType": "uint256",
          "name": "boxType",
          "type": "uint256"
        },
        {
          "indexed": false,
          "internalType": "address",
          "name": "seller",
          "type": "address"
        },
        {
          "indexed": false,
          "internalType": "address",
          "name": "buyer",
          "type": "address"
        },
        {
          "indexed": false,
          "internalType": "uint256",
          "name": "pricing",
          "type": "uint256"
        },
        {
          "indexed": false,
          "internalType": "bool",
          "name": "isBoxAdmin",
          "type": "bool"
        }
      ],
      "name": "EventBuyCompleted",
      "type": "event"
    },
    {
      "anonymous": false,
      "inputs": [
        {
          "indexed": false,
          "internalType": "uint256",
          "name": "saleIndex",
          "type": "uint256"
        },
        {
          "indexed": false,
          "internalType": "address",
          "name": "seller",
          "type": "address"
        }
      ],
      "name": "EventDelistItem",
      "type": "event"
    },
    {
      "anonymous": false,
      "inputs": [
        {
          "indexed": false,
          "internalType": "uint256",
          "name": "saleId",
          "type": "uint256"
        },
        {
          "indexed": false,
          "internalType": "uint256",
          "name": "nftId",
          "type": "uint256"
        },
        {
          "indexed": false,
          "internalType": "uint256",
          "name": "priceListing",
          "type": "uint256"
        },
        {
          "indexed": false,
          "internalType": "bool",
          "name": "isSold",
          "type": "bool"
        },
        {
          "indexed": false,
          "internalType": "address",
          "name": "seller",
          "type": "address"
        },
        {
          "indexed": false,
          "internalType": "address",
          "name": "buyer",
          "type": "address"
        },
        {
          "indexed": false,
          "internalType": "address",
          "name": "currency",
          "type": "address"
        },
        {
          "indexed": false,
          "internalType": "address",
          "name": "nft",
          "type": "address"
        },
        {
          "indexed": false,
          "internalType": "uint256",
          "name": "boxType",
          "type": "uint256"
        }
      ],
      "name": "EventNewSales",
      "type": "event"
    },
    {
      "anonymous": false,
      "inputs": [
        {
          "indexed": true,
          "internalType": "address",
          "name": "previousOwner",
          "type": "address"
        },
        {
          "indexed": true,
          "internalType": "address",
          "name": "newOwner",
          "type": "address"
        }
      ],
      "name": "OwnershipTransferred",
      "type": "event"
    },
    {
      "anonymous": false,
      "inputs": [
        {
          "indexed": false,
          "internalType": "address",
          "name": "account",
          "type": "address"
        }
      ],
      "name": "Paused",
      "type": "event"
    },
    {
      "anonymous": false,
      "inputs": [
        {
          "indexed": false,
          "internalType": "address",
          "name": "account",
          "type": "address"
        }
      ],
      "name": "Unpaused",
      "type": "event"
    },
    {
      "inputs": [],
      "name": "baseRate",
      "outputs": [
        {
          "internalType": "uint256",
          "name": "",
          "type": "uint256"
        }
      ],
      "stateMutability": "view",
      "type": "function"
    },
    {
      "inputs": [
        {
          "internalType": "address",
          "name": "",
          "type": "address"
        }
      ],
      "name": "blacklistMap",
      "outputs": [
        {
          "internalType": "bool",
          "name": "",
          "type": "bool"
        }
      ],
      "stateMutability": "view",
      "type": "function"
    },
    {
      "inputs": [
        {
          "internalType": "uint256",
          "name": "_saleIndex",
          "type": "uint256"
        }
      ],
      "name": "buyItem",
      "outputs": [],
      "stateMutability": "nonpayable",
      "type": "function"
    },
    {
      "inputs": [
        {
          "internalType": "uint256",
          "name": "_pricing",
          "type": "uint256"
        }
      ],
      "name": "callTradingFee",
      "outputs": [
        {
          "internalType": "uint256",
          "name": "feeTrading",
          "type": "uint256"
        }
      ],
      "stateMutability": "view",
      "type": "function"
    },
    {
      "inputs": [],
      "name": "cleanMarket",
      "outputs": [],
      "stateMutability": "nonpayable",
      "type": "function"
    },
    {
      "inputs": [
        {
          "internalType": "address",
          "name": "",
          "type": "address"
        }
      ],
      "name": "currencyTradingList",
      "outputs": [
        {
          "internalType": "bool",
          "name": "",
          "type": "bool"
        }
      ],
      "stateMutability": "view",
      "type": "function"
    },
    {
      "inputs": [
        {
          "internalType": "uint256",
          "name": "_saleIndex",
          "type": "uint256"
        }
      ],
      "name": "delistItem",
      "outputs": [],
      "stateMutability": "nonpayable",
      "type": "function"
    },
    {
      "inputs": [],
      "name": "feeRate",
      "outputs": [
        {
          "internalType": "uint256",
          "name": "",
          "type": "uint256"
        }
      ],
      "stateMutability": "view",
      "type": "function"
    },
    {
      "inputs": [
        {
          "internalType": "uint256",
          "name": "index",
          "type": "uint256"
        }
      ],
      "name": "getBoxTypeRunTogether",
      "outputs": [
        {
          "internalType": "uint256",
          "name": "",
          "type": "uint256"
        }
      ],
      "stateMutability": "view",
      "type": "function"
    },
    {
      "inputs": [],
      "name": "isOpenMarket",
      "outputs": [
        {
          "internalType": "bool",
          "name": "",
          "type": "bool"
        }
      ],
      "stateMutability": "view",
      "type": "function"
    },
    {
      "inputs": [],
      "name": "marketFeeWallet",
      "outputs": [
        {
          "internalType": "address",
          "name": "",
          "type": "address"
        }
      ],
      "stateMutability": "view",
      "type": "function"
    },
    {
      "inputs": [
        {
          "internalType": "address",
          "name": "",
          "type": "address"
        },
        {
          "internalType": "address",
          "name": "",
          "type": "address"
        },
        {
          "internalType": "uint256",
          "name": "",
          "type": "uint256"
        },
        {
          "internalType": "bytes",
          "name": "",
          "type": "bytes"
        }
      ],
      "name": "onERC721Received",
      "outputs": [
        {
          "internalType": "bytes4",
          "name": "",
          "type": "bytes4"
        }
      ],
      "stateMutability": "pure",
      "type": "function"
    },
    {
      "inputs": [],
      "name": "owner",
      "outputs": [
        {
          "internalType": "address",
          "name": "",
          "type": "address"
        }
      ],
      "stateMutability": "view",
      "type": "function"
    },
    {
      "inputs": [],
      "name": "paused",
      "outputs": [
        {
          "internalType": "bool",
          "name": "",
          "type": "bool"
        }
      ],
      "stateMutability": "view",
      "type": "function"
    },
    {
      "inputs": [
        {
          "internalType": "address[]",
          "name": "userList",
          "type": "address[]"
        }
      ],
      "name": "removeBlackList",
      "outputs": [],
      "stateMutability": "nonpayable",
      "type": "function"
    },
    {
      "inputs": [],
      "name": "renounceOwnership",
      "outputs": [],
      "stateMutability": "nonpayable",
      "type": "function"
    },
    {
      "inputs": [
        {
          "internalType": "uint256",
          "name": "",
          "type": "uint256"
        }
      ],
      "name": "saleItems",
      "outputs": [
        {
          "internalType": "uint256",
          "name": "saleId",
          "type": "uint256"
        },
        {
          "internalType": "uint256",
          "name": "nftId",
          "type": "uint256"
        },
        {
          "internalType": "uint256",
          "name": "priceListing",
          "type": "uint256"
        },
        {
          "internalType": "bool",
          "name": "isSold",
          "type": "bool"
        },
        {
          "internalType": "address",
          "name": "seller",
          "type": "address"
        },
        {
          "internalType": "address",
          "name": "buyer",
          "type": "address"
        },
        {
          "internalType": "contract IERC20",
          "name": "currency",
          "type": "address"
        },
        {
          "internalType": "contract IERC721",
          "name": "nft",
          "type": "address"
        },
        {
          "internalType": "uint256",
          "name": "boxType",
          "type": "uint256"
        }
      ],
      "stateMutability": "view",
      "type": "function"
    },
    {
      "inputs": [],
      "name": "saleItemsCount",
      "outputs": [
        {
          "internalType": "uint256",
          "name": "",
          "type": "uint256"
        }
      ],
      "stateMutability": "view",
      "type": "function"
    },
    {
      "inputs": [
        {
          "internalType": "address",
          "name": "_nftAddress",
          "type": "address"
        },
        {
          "internalType": "uint256",
          "name": "_nftId",
          "type": "uint256"
        },
        {
          "internalType": "uint256",
          "name": "_price",
          "type": "uint256"
        },
        {
          "internalType": "address",
          "name": "_currency",
          "type": "address"
        }
      ],
      "name": "sellItem",
      "outputs": [],
      "stateMutability": "nonpayable",
      "type": "function"
    },
    {
      "inputs": [
        {
          "internalType": "address[]",
          "name": "userList",
          "type": "address[]"
        }
      ],
      "name": "setBlackList",
      "outputs": [],
      "stateMutability": "nonpayable",
      "type": "function"
    },
    {
      "inputs": [
        {
          "internalType": "address[]",
          "name": "_currencySupport",
          "type": "address[]"
        }
      ],
      "name": "setCurrencySupport",
      "outputs": [],
      "stateMutability": "nonpayable",
      "type": "function"
    },
    {
      "inputs": [
        {
          "internalType": "address",
          "name": "_marketFeeWallet",
          "type": "address"
        }
      ],
      "name": "setMarketFeeWallet",
      "outputs": [],
      "stateMutability": "nonpayable",
      "type": "function"
    },
    {
      "inputs": [
        {
          "internalType": "bool",
          "name": "_newStatus",
          "type": "bool"
        }
      ],
      "name": "setMarketStatus",
      "outputs": [],
      "stateMutability": "nonpayable",
      "type": "function"
    },
    {
      "inputs": [
        {
          "internalType": "address",
          "name": "_runTogetherBoxAddress",
          "type": "address"
        }
      ],
      "name": "setRunTogetherBoxNftAddress",
      "outputs": [],
      "stateMutability": "nonpayable",
      "type": "function"
    },
    {
      "inputs": [
        {
          "internalType": "uint256",
          "name": "_newRate",
          "type": "uint256"
        }
      ],
      "name": "setTradingFee",
      "outputs": [],
      "stateMutability": "nonpayable",
      "type": "function"
    },
    {
      "inputs": [
        {
          "internalType": "address",
          "name": "_runTogetherMarketAdminAddress",
          "type": "address"
        }
      ],
      "name": "setrunTogetherMarketAdminAddress",
      "outputs": [],
      "stateMutability": "nonpayable",
      "type": "function"
    },
    {
      "inputs": [
        {
          "internalType": "address",
          "name": "newOwner",
          "type": "address"
        }
      ],
      "name": "transferOwnership",
      "outputs": [],
      "stateMutability": "nonpayable",
      "type": "function"
    }
  ],
  "bytecode": "0x60806040526032600a556103e8600b553480156200001c57600080fd5b50604051620040a6380380620040a68339818101604052810190620000429190620003cc565b62000062620000566200020d60201b60201c565b6200021560201b60201c565b600180819055506000600260006101000a81548160ff02191690831515021790555083600c60006101000a81548173ffffffffffffffffffffffffffffffffffffffff021916908373ffffffffffffffffffffffffffffffffffffffff16021790555082600a8190555080600960006101000a81548160ff02191690831515021790555060005b82518110156200017e576001600860008584815181106200010f576200010e620005dc565b5b602002602001015173ffffffffffffffffffffffffffffffffffffffff1673ffffffffffffffffffffffffffffffffffffffff16815260200190815260200160002060006101000a81548160ff021916908315150217905550808062000175906200055f565b915050620000e9565b5085600460006101000a81548173ffffffffffffffffffffffffffffffffffffffff021916908373ffffffffffffffffffffffffffffffffffffffff16021790555084600560006101000a81548173ffffffffffffffffffffffffffffffffffffffff021916908373ffffffffffffffffffffffffffffffffffffffff160217905550505050505050620006ad565b600033905090565b60008060009054906101000a900473ffffffffffffffffffffffffffffffffffffffff169050816000806101000a81548173ffffffffffffffffffffffffffffffffffffffff021916908373ffffffffffffffffffffffffffffffffffffffff1602179055508173ffffffffffffffffffffffffffffffffffffffff168173ffffffffffffffffffffffffffffffffffffffff167f8be0079c531659141344cd1fd0a4f28419497f9722a3daafe3b4186f6b6457e060405160405180910390a35050565b6000620002f0620002ea84620004b0565b62000487565b905080838252602082019050828560208602820111156200031657620003156200063f565b5b60005b858110156200034a57816200032f888262000354565b84526020840193506020830192505060018101905062000319565b5050509392505050565b60008151905062000365816200065f565b92915050565b600082601f8301126200038357620003826200063a565b5b815162000395848260208601620002d9565b91505092915050565b600081519050620003af8162000679565b92915050565b600081519050620003c68162000693565b92915050565b60008060008060008060c08789031215620003ec57620003eb62000649565b5b6000620003fc89828a0162000354565b96505060206200040f89828a0162000354565b95505060406200042289828a0162000354565b94505060606200043589828a01620003b5565b935050608087015167ffffffffffffffff81111562000459576200045862000644565b5b6200046789828a016200036b565b92505060a06200047a89828a016200039e565b9150509295509295509295565b600062000493620004a6565b9050620004a1828262000529565b919050565b6000604051905090565b600067ffffffffffffffff821115620004ce57620004cd6200060b565b5b602082029050602081019050919050565b6000620004ec82620004ff565b9050919050565b60008115159050919050565b600073ffffffffffffffffffffffffffffffffffffffff82169050919050565b6000819050919050565b62000534826200064e565b810181811067ffffffffffffffff821117156200055657620005556200060b565b5b80604052505050565b60006200056c826200051f565b91507fffffffffffffffffffffffffffffffffffffffffffffffffffffffffffffffff821415620005a257620005a1620005ad565b5b600182019050919050565b7f4e487b7100000000000000000000000000000000000000000000000000000000600052601160045260246000fd5b7f4e487b7100000000000000000000000000000000000000000000000000000000600052603260045260246000fd5b7f4e487b7100000000000000000000000000000000000000000000000000000000600052604160045260246000fd5b600080fd5b600080fd5b600080fd5b600080fd5b6000601f19601f8301169050919050565b6200066a81620004df565b81146200067657600080fd5b50565b6200068481620004f3565b81146200069057600080fd5b50565b6200069e816200051f565b8114620006aa57600080fd5b50565b6139e980620006bd6000396000f3fe608060405234801561001057600080fd5b50600436106101a95760003560e01c80638da5cb5b116100f9578063c1c40dfc11610097578063dd0f29fd11610071578063dd0f29fd1461049c578063e7fb74c7146104b8578063eab7cc7e146104d4578063f2fde38b146104f0576101a9565b8063c1c40dfc14610432578063cce523d014610450578063cda327801461046c576101a9565b80639bf41135116100d35780639bf41135146103d2578063a9070151146103ee578063aeaf0430146103f8578063b0d54bcf14610416576101a9565b80638da5cb5b14610366578063978bbdb9146103845780639aa0ea19146103a2576101a9565b80635c975abb11610166578063734007e511610140578063734007e5146102c6578063777e092b146102f657806385b05b45146103125780638abf20921461032e576101a9565b80635c975abb1461026e5780635e1295121461028c578063715018a6146102bc576101a9565b806310061631146101ae578063150b7a02146101ca5780631f68f20a146101fa5780632e21cf31146102185780632e679170146102345780635b922cc614610250575b600080fd5b6101c860048036038101906101c39190612b8b565b61050c565b005b6101e460048036038101906101df91906129ac565b6108e8565b6040516101f19190612f17565b60405180910390f35b610202610916565b60405161020f9190613114565b60405180910390f35b610232600480360381019061022d9190612b31565b61091c565b005b61024e60048036038101906102499190612952565b6109b5565b005b610258610ae7565b6040516102659190612eaa565b60405180910390f35b610276610b0d565b6040516102839190612efc565b60405180910390f35b6102a660048036038101906102a19190612b8b565b610b24565b6040516102b39190613114565b60405180910390f35b6102c4610b48565b005b6102e060048036038101906102db9190612b8b565b610bd0565b6040516102ed9190613114565b60405180910390f35b610310600480360381019061030b9190612a9b565b610c84565b005b61032c60048036038101906103279190612952565b610da5565b005b61034860048036038101906103439190612b8b565b610e65565b60405161035d99989796959493929190613254565b60405180910390f35b61036e610f50565b60405161037b9190612eaa565b60405180910390f35b61038c610f79565b6040516103999190613114565b60405180910390f35b6103bc60048036038101906103b79190612952565b610f7f565b6040516103c99190612efc565b60405180910390f35b6103ec60048036038101906103e79190612a9b565b610f9f565b005b6103f66110c0565b005b61040061129b565b60405161040d9190612efc565b60405180910390f35b610430600480360381019061042b9190612b8b565b6112ae565b005b61043a611334565b6040516104479190613114565b60405180910390f35b61046a60048036038101906104659190612ae8565b611341565b005b61048660048036038101906104819190612952565b611452565b6040516104939190612efc565b60405180910390f35b6104b660048036038101906104b19190612952565b611472565b005b6104d260048036038101906104cd9190612b8b565b611532565b005b6104ee60048036038101906104e99190612a34565b611c0b565b005b61050a60048036038101906105059190612952565b6121f6565b005b60026001541415610552576040517f08c379a0000000000000000000000000000000000000000000000000000000008152600401610549906130d4565b60405180910390fd5b600260018190555080336007805490508211156105a4576040517f08c379a000000000000000000000000000000000000000000000000000000000815260040161059b90612ff4565b60405180910390fd5b6000600783815481106105ba576105b96135ea565b5b906000526020600020906008020190508173ffffffffffffffffffffffffffffffffffffffff168160030160019054906101000a900473ffffffffffffffffffffffffffffffffffffffff1673ffffffffffffffffffffffffffffffffffffffff161461065c576040517f08c379a000000000000000000000000000000000000000000000000000000000815260040161065390612fb4565b60405180910390fd5b600015158160030160009054906101000a900460ff161515146106b4576040517f08c379a00000000000000000000000000000000000000000000000000000000081526004016106ab90612fd4565b60405180910390fd5b60001515600660003373ffffffffffffffffffffffffffffffffffffffff1673ffffffffffffffffffffffffffffffffffffffff16815260200190815260200160002060009054906101000a900460ff16151514610747576040517f08c379a000000000000000000000000000000000000000000000000000000000815260040161073e90612f74565b60405180910390fd5b6000849050600060078681548110610762576107616135ea565b5b9060005260206000209060080201905060008160030160019054906101000a900473ffffffffffffffffffffffffffffffffffffffff16905060008260010154905060008360060160009054906101000a900473ffffffffffffffffffffffffffffffffffffffff1690508073ffffffffffffffffffffffffffffffffffffffff166342842e0e3085856040518463ffffffff1660e01b815260040161080a93929190612ec5565b600060405180830381600087803b15801561082457600080fd5b505af1158015610838573d6000803e3d6000fd5b5050505060018460030160006101000a81548160ff02191690831515021790555060008460030160016101000a81548173ffffffffffffffffffffffffffffffffffffffff021916908373ffffffffffffffffffffffffffffffffffffffff1602179055507f81f38b391b1a1cb200601259bd80a179e044050e98bde25d4cc1cee370321e8685846040516108ce92919061312f565b60405180910390a150505050505050506001808190555050565b60007f150b7a023d4804d13e8c85fb27262cb750cf6ba9f9dd3bb30d90f482ceeb4b1f905095945050505050565b600b5481565b6109246122ee565b73ffffffffffffffffffffffffffffffffffffffff16610942610f50565b73ffffffffffffffffffffffffffffffffffffffff1614610998576040517f08c379a000000000000000000000000000000000000000000000000000000000815260040161098f90613014565b60405180910390fd5b80600960006101000a81548160ff02191690831515021790555050565b6109bd6122ee565b73ffffffffffffffffffffffffffffffffffffffff166109db610f50565b73ffffffffffffffffffffffffffffffffffffffff1614610a31576040517f08c379a0000000000000000000000000000000000000000000000000000000008152600401610a2890613014565b60405180910390fd5b80600073ffffffffffffffffffffffffffffffffffffffff168173ffffffffffffffffffffffffffffffffffffffff161415610aa2576040517f08c379a0000000000000000000000000000000000000000000000000000000008152600401610a9990613054565b60405180910390fd5b81600c60006101000a81548173ffffffffffffffffffffffffffffffffffffffff021916908373ffffffffffffffffffffffffffffffffffffffff1602179055505050565b600c60009054906101000a900473ffffffffffffffffffffffffffffffffffffffff1681565b6000600260009054906101000a900460ff16905090565b6000600b54600a5483610b379190613395565b610b419190613364565b9050919050565b610b506122ee565b73ffffffffffffffffffffffffffffffffffffffff16610b6e610f50565b73ffffffffffffffffffffffffffffffffffffffff1614610bc4576040517f08c379a0000000000000000000000000000000000000000000000000000000008152600401610bbb90613014565b60405180910390fd5b610bce60006122f6565b565b6000600460009054906101000a900473ffffffffffffffffffffffffffffffffffffffff1673ffffffffffffffffffffffffffffffffffffffff1663b546a3bc836040518263ffffffff1660e01b8152600401610c2d9190613114565b60206040518083038186803b158015610c4557600080fd5b505afa158015610c59573d6000803e3d6000fd5b505050506040513d601f19601f82011682018060405250810190610c7d9190612bb8565b9050919050565b610c8c6122ee565b73ffffffffffffffffffffffffffffffffffffffff16610caa610f50565b73ffffffffffffffffffffffffffffffffffffffff1614610d00576040517f08c379a0000000000000000000000000000000000000000000000000000000008152600401610cf790613014565b60405180910390fd5b60005b82829050811015610da057600160066000858585818110610d2757610d266135ea565b5b9050602002016020810190610d3c9190612952565b73ffffffffffffffffffffffffffffffffffffffff1673ffffffffffffffffffffffffffffffffffffffff16815260200190815260200160002060006101000a81548160ff0219169083151502179055508080610d9890613543565b915050610d03565b505050565b610dad6122ee565b73ffffffffffffffffffffffffffffffffffffffff16610dcb610f50565b73ffffffffffffffffffffffffffffffffffffffff1614610e21576040517f08c379a0000000000000000000000000000000000000000000000000000000008152600401610e1890613014565b60405180910390fd5b80600560006101000a81548173ffffffffffffffffffffffffffffffffffffffff021916908373ffffffffffffffffffffffffffffffffffffffff16021790555050565b60078181548110610e7557600080fd5b90600052602060002090600802016000915090508060000154908060010154908060020154908060030160009054906101000a900460ff16908060030160019054906101000a900473ffffffffffffffffffffffffffffffffffffffff16908060040160009054906101000a900473ffffffffffffffffffffffffffffffffffffffff16908060050160009054906101000a900473ffffffffffffffffffffffffffffffffffffffff16908060060160009054906101000a900473ffffffffffffffffffffffffffffffffffffffff16908060070154905089565b60008060009054906101000a900473ffffffffffffffffffffffffffffffffffffffff16905090565b600a5481565b60066020528060005260406000206000915054906101000a900460ff1681565b610fa76122ee565b73ffffffffffffffffffffffffffffffffffffffff16610fc5610f50565b73ffffffffffffffffffffffffffffffffffffffff161461101b576040517f08c379a000000000000000000000000000000000000000000000000000000000815260040161101290613014565b60405180910390fd5b60005b828290508110156110bb57600060066000858585818110611042576110416135ea565b5b90506020020160208101906110579190612952565b73ffffffffffffffffffffffffffffffffffffffff1673ffffffffffffffffffffffffffffffffffffffff16815260200190815260200160002060006101000a81548160ff02191690831515021790555080806110b390613543565b91505061101e565b505050565b6110c86122ee565b73ffffffffffffffffffffffffffffffffffffffff166110e6610f50565b73ffffffffffffffffffffffffffffffffffffffff161461113c576040517f08c379a000000000000000000000000000000000000000000000000000000000815260040161113390613014565b60405180910390fd5b60005b60078054905081101561127d57600060078281548110611162576111616135ea565b5b90600052602060002090600802019050600015158160030160009054906101000a900460ff1615151415611269578060060160009054906101000a900473ffffffffffffffffffffffffffffffffffffffff1673ffffffffffffffffffffffffffffffffffffffff166342842e0e308360030160019054906101000a900473ffffffffffffffffffffffffffffffffffffffff1684600101546040518463ffffffff1660e01b815260040161121993929190612ec5565b600060405180830381600087803b15801561123357600080fd5b505af1158015611247573d6000803e3d6000fd5b5050505060018160030160006101000a81548160ff0219169083151502179055505b50808061127590613543565b91505061113f565b506000600960006101000a81548160ff021916908315150217905550565b600960009054906101000a900460ff1681565b6112b66122ee565b73ffffffffffffffffffffffffffffffffffffffff166112d4610f50565b73ffffffffffffffffffffffffffffffffffffffff161461132a576040517f08c379a000000000000000000000000000000000000000000000000000000000815260040161132190613014565b60405180910390fd5b80600a8190555050565b6000600780549050905090565b6113496122ee565b73ffffffffffffffffffffffffffffffffffffffff16611367610f50565b73ffffffffffffffffffffffffffffffffffffffff16146113bd576040517f08c379a00000000000000000000000000000000000000000000000000000000081526004016113b490613014565b60405180910390fd5b60005b815181101561144e576001600860008484815181106113e2576113e16135ea565b5b602002602001015173ffffffffffffffffffffffffffffffffffffffff1673ffffffffffffffffffffffffffffffffffffffff16815260200190815260200160002060006101000a81548160ff021916908315150217905550808061144690613543565b9150506113c0565b5050565b60086020528060005260406000206000915054906101000a900460ff1681565b61147a6122ee565b73ffffffffffffffffffffffffffffffffffffffff16611498610f50565b73ffffffffffffffffffffffffffffffffffffffff16146114ee576040517f08c379a00000000000000000000000000000000000000000000000000000000081526004016114e590613014565b60405180910390fd5b80600460006101000a81548173ffffffffffffffffffffffffffffffffffffffff021916908373ffffffffffffffffffffffffffffffffffffffff16021790555050565b60026001541415611578576040517f08c379a000000000000000000000000000000000000000000000000000000000815260040161156f906130d4565b60405180910390fd5b600260018190555060011515600960009054906101000a900460ff161515146115d6576040517f08c379a00000000000000000000000000000000000000000000000000000000081526004016115cd90613094565b60405180910390fd5b60001515600660003373ffffffffffffffffffffffffffffffffffffffff1673ffffffffffffffffffffffffffffffffffffffff16815260200190815260200160002060009054906101000a900460ff16151514611669576040517f08c379a000000000000000000000000000000000000000000000000000000000815260040161166090612f74565b60405180910390fd5b60008190506007805490508111156116b6576040517f08c379a00000000000000000000000000000000000000000000000000000000081526004016116ad90612ff4565b60405180910390fd5b6000600782815481106116cc576116cb6135ea565b5b90600052602060002090600802019050600015158160030160009054906101000a900460ff16151514611734576040517f08c379a000000000000000000000000000000000000000000000000000000000815260040161172b90612fd4565b60405180910390fd5b60008160050160009054906101000a900473ffffffffffffffffffffffffffffffffffffffff16905060008260060160009054906101000a900473ffffffffffffffffffffffffffffffffffffffff16905060008360010154905060008460070154905060008560030160019054906101000a900473ffffffffffffffffffffffffffffffffffffffff169050600086600201549050808673ffffffffffffffffffffffffffffffffffffffff166370a08231336040518263ffffffff1660e01b81526004016118049190612eaa565b60206040518083038186803b15801561181c57600080fd5b505afa158015611830573d6000803e3d6000fd5b505050506040513d601f19601f820116820180604052508101906118549190612bb8565b1015611895576040517f08c379a000000000000000000000000000000000000000000000000000000000815260040161188c906130f4565b60405180910390fd5b60006118a082610b24565b9050600081836118b091906133ef565b9050338960040160006101000a81548173ffffffffffffffffffffffffffffffffffffffff021916908373ffffffffffffffffffffffffffffffffffffffff16021790555060018960030160006101000a81548160ff02191690831515021790555061196133600c60009054906101000a900473ffffffffffffffffffffffffffffffffffffffff16848b73ffffffffffffffffffffffffffffffffffffffff166123ba909392919063ffffffff16565b61198e3385838b73ffffffffffffffffffffffffffffffffffffffff166123ba909392919063ffffffff16565b8673ffffffffffffffffffffffffffffffffffffffff166342842e0e3033896040518463ffffffff1660e01b81526004016119cb93929190612ec5565b600060405180830381600087803b1580156119e557600080fd5b505af11580156119f9573d6000803e3d6000fd5b50505050600073ffffffffffffffffffffffffffffffffffffffff16600560009054906101000a900473ffffffffffffffffffffffffffffffffffffffff1673ffffffffffffffffffffffffffffffffffffffff16638e293b8a886040518263ffffffff1660e01b8152600401611a709190613114565b60206040518083038186803b158015611a8857600080fd5b505afa158015611a9c573d6000803e3d6000fd5b505050506040513d601f19601f82011682018060405250810190611ac0919061297f565b73ffffffffffffffffffffffffffffffffffffffff161415611b25577fcae5f61a8d88f6fd9c98fc6551d0e9b0a916af45dae17c620bf5b1e6c100d3718a87878733886000604051611b189796959493929190613158565b60405180910390a1611bf7565b600560009054906101000a900473ffffffffffffffffffffffffffffffffffffffff1673ffffffffffffffffffffffffffffffffffffffff1663daa3828d876040518263ffffffff1660e01b8152600401611b809190613114565b600060405180830381600087803b158015611b9a57600080fd5b505af1158015611bae573d6000803e3d6000fd5b505050507fcae5f61a8d88f6fd9c98fc6551d0e9b0a916af45dae17c620bf5b1e6c100d3718a87878733886001604051611bee9796959493929190613158565b60405180910390a15b505050505050505050506001808190555050565b60026001541415611c51576040517f08c379a0000000000000000000000000000000000000000000000000000000008152600401611c48906130d4565b60405180910390fd5b600260018190555060011515600960009054906101000a900460ff16151514611caf576040517f08c379a0000000000000000000000000000000000000000000000000000000008152600401611ca690613094565b60405180910390fd5b80600073ffffffffffffffffffffffffffffffffffffffff168173ffffffffffffffffffffffffffffffffffffffff161415611d20576040517f08c379a0000000000000000000000000000000000000000000000000000000008152600401611d1790613054565b60405180910390fd5b60001515600660003373ffffffffffffffffffffffffffffffffffffffff1673ffffffffffffffffffffffffffffffffffffffff16815260200190815260200160002060009054906101000a900460ff16151514611db3576040517f08c379a0000000000000000000000000000000000000000000000000000000008152600401611daa90612f74565b60405180910390fd5b60011515600860008473ffffffffffffffffffffffffffffffffffffffff1673ffffffffffffffffffffffffffffffffffffffff16815260200190815260200160002060009054906101000a900460ff16151514611e46576040517f08c379a0000000000000000000000000000000000000000000000000000000008152600401611e3d90613034565b60405180910390fd5b8473ffffffffffffffffffffffffffffffffffffffff166342842e0e3330876040518463ffffffff1660e01b8152600401611e8393929190612ec5565b600060405180830381600087803b158015611e9d57600080fd5b505af1158015611eb1573d6000803e3d6000fd5b50505050611ebd6126e4565b611ec76003612443565b816000018181525050858160e0019073ffffffffffffffffffffffffffffffffffffffff16908173ffffffffffffffffffffffffffffffffffffffff16815250508481602001818152505033816080019073ffffffffffffffffffffffffffffffffffffffff16908173ffffffffffffffffffffffffffffffffffffffff168152505060008160a0019073ffffffffffffffffffffffffffffffffffffffff16908173ffffffffffffffffffffffffffffffffffffffff168152505083816040018181525050828160c0019073ffffffffffffffffffffffffffffffffffffffff16908173ffffffffffffffffffffffffffffffffffffffff16815250506000816060019015159081151581525050611fdf85610bd0565b81610100018181525050600781908060018154018082558091505060019003906000526020600020906008020160009091909190915060008201518160000155602082015181600101556040820151816002015560608201518160030160006101000a81548160ff02191690831515021790555060808201518160030160016101000a81548173ffffffffffffffffffffffffffffffffffffffff021916908373ffffffffffffffffffffffffffffffffffffffff16021790555060a08201518160040160006101000a81548173ffffffffffffffffffffffffffffffffffffffff021916908373ffffffffffffffffffffffffffffffffffffffff16021790555060c08201518160050160006101000a81548173ffffffffffffffffffffffffffffffffffffffff021916908373ffffffffffffffffffffffffffffffffffffffff16021790555060e08201518160060160006101000a81548173ffffffffffffffffffffffffffffffffffffffff021916908373ffffffffffffffffffffffffffffffffffffffff160217905550610100820151816007015550506121866003612451565b7feeafef76d83660c62b4928be6af17de26c30647eba7b0350eaf45be3a168103c816000015182602001518360400151846060015185608001516000898d8961010001516040516121df999897969594939291906131c7565b60405180910390a150506001808190555050505050565b6121fe6122ee565b73ffffffffffffffffffffffffffffffffffffffff1661221c610f50565b73ffffffffffffffffffffffffffffffffffffffff1614612272576040517f08c379a000000000000000000000000000000000000000000000000000000000815260040161226990613014565b60405180910390fd5b600073ffffffffffffffffffffffffffffffffffffffff168173ffffffffffffffffffffffffffffffffffffffff1614156122e2576040517f08c379a00000000000000000000000000000000000000000000000000000000081526004016122d990612f54565b60405180910390fd5b6122eb816122f6565b50565b600033905090565b60008060009054906101000a900473ffffffffffffffffffffffffffffffffffffffff169050816000806101000a81548173ffffffffffffffffffffffffffffffffffffffff021916908373ffffffffffffffffffffffffffffffffffffffff1602179055508173ffffffffffffffffffffffffffffffffffffffff168173ffffffffffffffffffffffffffffffffffffffff167f8be0079c531659141344cd1fd0a4f28419497f9722a3daafe3b4186f6b6457e060405160405180910390a35050565b61243d846323b872dd60e01b8585856040516024016123db93929190612ec5565b604051602081830303815290604052907bffffffffffffffffffffffffffffffffffffffffffffffffffffffff19166020820180517bffffffffffffffffffffffffffffffffffffffffffffffffffffffff8381831617835250505050612467565b50505050565b600081600001549050919050565b6001816000016000828254019250508190555050565b60006124c9826040518060400160405280602081526020017f5361666545524332303a206c6f772d6c6576656c2063616c6c206661696c65648152508573ffffffffffffffffffffffffffffffffffffffff1661252e9092919063ffffffff16565b905060008151111561252957808060200190518101906124e99190612b5e565b612528576040517f08c379a000000000000000000000000000000000000000000000000000000000815260040161251f906130b4565b60405180910390fd5b5b505050565b606061253d8484600085612546565b90509392505050565b60608247101561258b576040517f08c379a000000000000000000000000000000000000000000000000000000000815260040161258290612f94565b60405180910390fd5b6125948561265a565b6125d3576040517f08c379a00000000000000000000000000000000000000000000000000000000081526004016125ca90613074565b60405180910390fd5b6000808673ffffffffffffffffffffffffffffffffffffffff1685876040516125fc9190612e93565b60006040518083038185875af1925050503d8060008114612639576040519150601f19603f3d011682016040523d82523d6000602084013e61263e565b606091505b509150915061264e82828661267d565b92505050949350505050565b6000808273ffffffffffffffffffffffffffffffffffffffff163b119050919050565b6060831561268d578290506126dd565b6000835111156126a05782518084602001fd5b816040517f08c379a00000000000000000000000000000000000000000000000000000000081526004016126d49190612f32565b60405180910390fd5b9392505050565b604051806101200160405280600081526020016000815260200160008152602001600015158152602001600073ffffffffffffffffffffffffffffffffffffffff168152602001600073ffffffffffffffffffffffffffffffffffffffff168152602001600073ffffffffffffffffffffffffffffffffffffffff168152602001600073ffffffffffffffffffffffffffffffffffffffff168152602001600081525090565b600061279d61279884613306565b6132e1565b905080838252602082019050828560208602820111156127c0576127bf613652565b5b60005b858110156127f057816127d688826127fa565b8452602084019350602083019250506001810190506127c3565b5050509392505050565b6000813590506128098161396e565b92915050565b60008151905061281e8161396e565b92915050565b60008083601f84011261283a5761283961364d565b5b8235905067ffffffffffffffff81111561285757612856613648565b5b60208301915083602082028301111561287357612872613652565b5b9250929050565b600082601f83011261288f5761288e61364d565b5b813561289f84826020860161278a565b91505092915050565b6000813590506128b781613985565b92915050565b6000815190506128cc81613985565b92915050565b60008083601f8401126128e8576128e761364d565b5b8235905067ffffffffffffffff81111561290557612904613648565b5b60208301915083600182028301111561292157612920613652565b5b9250929050565b6000813590506129378161399c565b92915050565b60008151905061294c8161399c565b92915050565b6000602082840312156129685761296761365c565b5b6000612976848285016127fa565b91505092915050565b6000602082840312156129955761299461365c565b5b60006129a38482850161280f565b91505092915050565b6000806000806000608086880312156129c8576129c761365c565b5b60006129d6888289016127fa565b95505060206129e7888289016127fa565b94505060406129f888828901612928565b935050606086013567ffffffffffffffff811115612a1957612a18613657565b5b612a25888289016128d2565b92509250509295509295909350565b60008060008060808587031215612a4e57612a4d61365c565b5b6000612a5c878288016127fa565b9450506020612a6d87828801612928565b9350506040612a7e87828801612928565b9250506060612a8f878288016127fa565b91505092959194509250565b60008060208385031215612ab257612ab161365c565b5b600083013567ffffffffffffffff811115612ad057612acf613657565b5b612adc85828601612824565b92509250509250929050565b600060208284031215612afe57612afd61365c565b5b600082013567ffffffffffffffff811115612b1c57612b1b613657565b5b612b288482850161287a565b91505092915050565b600060208284031215612b4757612b4661365c565b5b6000612b55848285016128a8565b91505092915050565b600060208284031215612b7457612b7361365c565b5b6000612b82848285016128bd565b91505092915050565b600060208284031215612ba157612ba061365c565b5b6000612baf84828501612928565b91505092915050565b600060208284031215612bce57612bcd61365c565b5b6000612bdc8482850161293d565b91505092915050565b612bee81613423565b82525050565b612bfd81613435565b82525050565b612c0c81613441565b82525050565b6000612c1d82613332565b612c278185613348565b9350612c378185602086016134df565b80840191505092915050565b612c4c81613497565b82525050565b612c5b816134a9565b82525050565b6000612c6c8261333d565b612c768185613353565b9350612c868185602086016134df565b612c8f81613661565b840191505092915050565b6000612ca7602683613353565b9150612cb282613672565b604082019050919050565b6000612cca601483613353565b9150612cd5826136c1565b602082019050919050565b6000612ced602683613353565b9150612cf8826136ea565b604082019050919050565b6000612d10601283613353565b9150612d1b82613739565b602082019050919050565b6000612d33600c83613353565b9150612d3e82613762565b602082019050919050565b6000612d56601583613353565b9150612d618261378b565b602082019050919050565b6000612d79602083613353565b9150612d84826137b4565b602082019050919050565b6000612d9c602b83613353565b9150612da7826137dd565b604082019050919050565b6000612dbf601983613353565b9150612dca8261382c565b602082019050919050565b6000612de2601d83613353565b9150612ded82613855565b602082019050919050565b6000612e05601583613353565b9150612e108261387e565b602082019050919050565b6000612e28602a83613353565b9150612e33826138a7565b604082019050919050565b6000612e4b601f83613353565b9150612e56826138f6565b602082019050919050565b6000612e6e602583613353565b9150612e798261391f565b604082019050919050565b612e8d8161348d565b82525050565b6000612e9f8284612c12565b915081905092915050565b6000602082019050612ebf6000830184612be5565b92915050565b6000606082019050612eda6000830186612be5565b612ee76020830185612be5565b612ef46040830184612e84565b949350505050565b6000602082019050612f116000830184612bf4565b92915050565b6000602082019050612f2c6000830184612c03565b92915050565b60006020820190508181036000830152612f4c8184612c61565b905092915050565b60006020820190508181036000830152612f6d81612c9a565b9050919050565b60006020820190508181036000830152612f8d81612cbd565b9050919050565b60006020820190508181036000830152612fad81612ce0565b9050919050565b60006020820190508181036000830152612fcd81612d03565b9050919050565b60006020820190508181036000830152612fed81612d26565b9050919050565b6000602082019050818103600083015261300d81612d49565b9050919050565b6000602082019050818103600083015261302d81612d6c565b9050919050565b6000602082019050818103600083015261304d81612d8f565b9050919050565b6000602082019050818103600083015261306d81612db2565b9050919050565b6000602082019050818103600083015261308d81612dd5565b9050919050565b600060208201905081810360008301526130ad81612df8565b9050919050565b600060208201905081810360008301526130cd81612e1b565b9050919050565b600060208201905081810360008301526130ed81612e3e565b9050919050565b6000602082019050818103600083015261310d81612e61565b9050919050565b60006020820190506131296000830184612e84565b92915050565b60006040820190506131446000830185612e84565b6131516020830184612be5565b9392505050565b600060e08201905061316d600083018a612e84565b61317a6020830189612e84565b6131876040830188612e84565b6131946060830187612be5565b6131a16080830186612be5565b6131ae60a0830185612e84565b6131bb60c0830184612bf4565b98975050505050505050565b6000610120820190506131dd600083018c612e84565b6131ea602083018b612e84565b6131f7604083018a612e84565b6132046060830189612bf4565b6132116080830188612be5565b61321e60a0830187612be5565b61322b60c0830186612be5565b61323860e0830185612be5565b613246610100830184612e84565b9a9950505050505050505050565b60006101208201905061326a600083018c612e84565b613277602083018b612e84565b613284604083018a612e84565b6132916060830189612bf4565b61329e6080830188612be5565b6132ab60a0830187612be5565b6132b860c0830186612c43565b6132c560e0830185612c52565b6132d3610100830184612e84565b9a9950505050505050505050565b60006132eb6132fc565b90506132f78282613512565b919050565b6000604051905090565b600067ffffffffffffffff82111561332157613320613619565b5b602082029050602081019050919050565b600081519050919050565b600081519050919050565b600081905092915050565b600082825260208201905092915050565b600061336f8261348d565b915061337a8361348d565b92508261338a576133896135bb565b5b828204905092915050565b60006133a08261348d565b91506133ab8361348d565b9250817fffffffffffffffffffffffffffffffffffffffffffffffffffffffffffffffff04831182151516156133e4576133e361358c565b5b828202905092915050565b60006133fa8261348d565b91506134058361348d565b9250828210156134185761341761358c565b5b828203905092915050565b600061342e8261346d565b9050919050565b60008115159050919050565b60007fffffffff0000000000000000000000000000000000000000000000000000000082169050919050565b600073ffffffffffffffffffffffffffffffffffffffff82169050919050565b6000819050919050565b60006134a2826134bb565b9050919050565b60006134b4826134bb565b9050919050565b60006134c6826134cd565b9050919050565b60006134d88261346d565b9050919050565b60005b838110156134fd5780820151818401526020810190506134e2565b8381111561350c576000848401525b50505050565b61351b82613661565b810181811067ffffffffffffffff8211171561353a57613539613619565b5b80604052505050565b600061354e8261348d565b91507fffffffffffffffffffffffffffffffffffffffffffffffffffffffffffffffff8214156135815761358061358c565b5b600182019050919050565b7f4e487b7100000000000000000000000000000000000000000000000000000000600052601160045260246000fd5b7f4e487b7100000000000000000000000000000000000000000000000000000000600052601260045260246000fd5b7f4e487b7100000000000000000000000000000000000000000000000000000000600052603260045260246000fd5b7f4e487b7100000000000000000000000000000000000000000000000000000000600052604160045260246000fd5b600080fd5b600080fd5b600080fd5b600080fd5b600080fd5b6000601f19601f8301169050919050565b7f4f776e61626c653a206e6577206f776e657220697320746865207a65726f206160008201527f6464726573730000000000000000000000000000000000000000000000000000602082015250565b7f596f752061726520696e20426c61636b6c697374000000000000000000000000600082015250565b7f416464726573733a20696e73756666696369656e742062616c616e636520666f60008201527f722063616c6c0000000000000000000000000000000000000000000000000000602082015250565b7f596f7520617265206e6f742073656c6c65720000000000000000000000000000600082015250565b7f4974656d20697320736f6c640000000000000000000000000000000000000000600082015250565b7f53616c6520696e64657820697320696e76616c69640000000000000000000000600082015250565b7f4f776e61626c653a2063616c6c6572206973206e6f7420746865206f776e6572600082015250565b7f596f75722063757272656e6379206973206e6f7420696e2063757272656e637960008201527f54726164696e674c697374000000000000000000000000000000000000000000602082015250565b7f436f756c64206e6f7420736574206275726e2077616c6c657400000000000000600082015250565b7f416464726573733a2063616c6c20746f206e6f6e2d636f6e7472616374000000600082015250565b7f4d61726b6574706c61636520697320636c6f7365640000000000000000000000600082015250565b7f5361666545524332303a204552433230206f7065726174696f6e20646964206e60008201527f6f74207375636365656400000000000000000000000000000000000000000000602082015250565b7f5265656e7472616e637947756172643a207265656e7472616e742063616c6c00600082015250565b7f596f75722062616c616e6365206973206e6f7420656e6f75676820666f72206260008201527f7579696e67000000000000000000000000000000000000000000000000000000602082015250565b61397781613423565b811461398257600080fd5b50565b61398e81613435565b811461399957600080fd5b50565b6139a58161348d565b81146139b057600080fd5b5056fea2646970667358221220db9fb66328215093409ac996f4153677db8d74c8c2222647b85c57b5bb493fae64736f6c63430008070033",
  "linkReferences": {},
  "deployedLinkReferences": {}
}