{
  "_format": "hh-sol-artifact-1",
  "contractName": "RunTogetherMarketAdmin",
  "sourceName": "contracts/RunTogetherMarketplace.sol",
  "abi": [
    {
      "inputs": [
        {
          "internalType": "uint256",
          "name": "_tokenId",
          "type": "uint256"
        }
      ],
      "name": "setTokenIdToAddressZero",
      "outputs": [],
      "stateMutability": "nonpayable",
      "type": "function"
    },
    {
      "inputs": [
        {
          "internalType": "uint256",
          "name": "",
          "type": "uint256"
        }
      ],
      "name": "tokenIdToAddressMap",
      "outputs": [
        {
          "internalType": "address",
          "name": "",
          "type": "address"
        }
      ],
      "stateMutability": "view",
      "type": "function"
    }
  ],
  "bytecode": "0x608060405234801561001057600080fd5b50610209806100206000396000f3fe608060405234801561001057600080fd5b50600436106100365760003560e01c80638e293b8a1461003b578063daa3828d1461006b575b600080fd5b61005560048036038101906100509190610124565b610087565b6040516100629190610160565b60405180910390f35b61008560048036038101906100809190610124565b6100ba565b005b60006020528060005260406000206000915054906101000a900473ffffffffffffffffffffffffffffffffffffffff1681565b600080600083815260200190815260200160002060006101000a81548173ffffffffffffffffffffffffffffffffffffffff021916908373ffffffffffffffffffffffffffffffffffffffff16021790555050565b60008135905061011e816101bc565b92915050565b60006020828403121561013a576101396101b7565b5b60006101488482850161010f565b91505092915050565b61015a8161017b565b82525050565b60006020820190506101756000830184610151565b92915050565b60006101868261018d565b9050919050565b600073ffffffffffffffffffffffffffffffffffffffff82169050919050565b6000819050919050565b600080fd5b6101c5816101ad565b81146101d057600080fd5b5056fea2646970667358221220fb79491337400a2dedc9325eeed5f1b281b2e282683a4de8d1e1be6f89a0f90c64736f6c63430008070033",
  "linkReferences": {},
  "deployedLinkReferences": {}
}