{
  "_format": "hh-sol-artifact-1",
  "contractName": "HesmanStaking",
  "sourceName": "contracts/HesmanStakingv2.sol",
  "abi": [
    {
      "inputs": [
        {
          "internalType": "address",
          "name": "_hesmanToken",
          "type": "address"
        },
        {
          "internalType": "address",
          "name": "_hesicNftAddress",
          "type": "address"
        },
        {
          "internalType": "uint256",
          "name": "_benefitPercentPerYear",
          "type": "uint256"
        },
        {
          "internalType": "uint256",
          "name": "_nftToHes",
          "type": "uint256"
        }
      ],
      "stateMutability": "nonpayable",
      "type": "constructor"
    },
    {
      "anonymous": false,
      "inputs": [
        {
          "indexed": true,
          "internalType": "address",
          "name": "user",
          "type": "address"
        },
        {
          "indexed": false,
          "internalType": "address",
          "name": "nft",
          "type": "address"
        },
        {
          "indexed": false,
          "internalType": "uint256",
          "name": "tokenId",
          "type": "uint256"
        },
        {
          "indexed": false,
          "internalType": "uint256",
          "name": "blockNumber",
          "type": "uint256"
        }
      ],
      "name": "EventUserClaimNFT",
      "type": "event"
    },
    {
      "anonymous": false,
      "inputs": [
        {
          "indexed": false,
          "internalType": "address",
          "name": "user",
          "type": "address"
        },
        {
          "indexed": false,
          "internalType": "uint256",
          "name": "numberOfNft",
          "type": "uint256"
        },
        {
          "indexed": false,
          "internalType": "uint256",
          "name": "blockNumber",
          "type": "uint256"
        },
        {
          "indexed": false,
          "internalType": "uint256",
          "name": "amount",
          "type": "uint256"
        }
      ],
      "name": "EventUserStake",
      "type": "event"
    },
    {
      "anonymous": false,
      "inputs": [
        {
          "indexed": true,
          "internalType": "address",
          "name": "user",
          "type": "address"
        },
        {
          "indexed": false,
          "internalType": "address",
          "name": "nft",
          "type": "address"
        },
        {
          "indexed": false,
          "internalType": "uint256",
          "name": "tokenId",
          "type": "uint256"
        },
        {
          "indexed": false,
          "internalType": "uint256",
          "name": "blockNumber",
          "type": "uint256"
        }
      ],
      "name": "EventUserStakeNFT",
      "type": "event"
    },
    {
      "anonymous": false,
      "inputs": [
        {
          "indexed": false,
          "internalType": "address",
          "name": "user",
          "type": "address"
        },
        {
          "indexed": false,
          "internalType": "uint256",
          "name": "blockNumber",
          "type": "uint256"
        },
        {
          "indexed": false,
          "internalType": "uint256",
          "name": "amount",
          "type": "uint256"
        }
      ],
      "name": "EventUserUnstake",
      "type": "event"
    },
    {
      "anonymous": false,
      "inputs": [
        {
          "indexed": true,
          "internalType": "address",
          "name": "previousOwner",
          "type": "address"
        },
        {
          "indexed": true,
          "internalType": "address",
          "name": "newOwner",
          "type": "address"
        }
      ],
      "name": "OwnershipTransferred",
      "type": "event"
    },
    {
      "inputs": [],
      "name": "benefitPercentPerYear",
      "outputs": [
        {
          "internalType": "uint256",
          "name": "",
          "type": "uint256"
        }
      ],
      "stateMutability": "view",
      "type": "function"
    },
    {
      "inputs": [
        {
          "internalType": "address",
          "name": "",
          "type": "address"
        }
      ],
      "name": "blacklistMap",
      "outputs": [
        {
          "internalType": "bool",
          "name": "",
          "type": "bool"
        }
      ],
      "stateMutability": "view",
      "type": "function"
    },
    {
      "inputs": [],
      "name": "emergencyWithdrawSaleToken",
      "outputs": [],
      "stateMutability": "nonpayable",
      "type": "function"
    },
    {
      "inputs": [],
      "name": "endStakeTime",
      "outputs": [
        {
          "internalType": "uint256",
          "name": "",
          "type": "uint256"
        }
      ],
      "stateMutability": "view",
      "type": "function"
    },
    {
      "inputs": [],
      "name": "getNftNumber",
      "outputs": [
        {
          "internalType": "uint256",
          "name": "",
          "type": "uint256"
        }
      ],
      "stateMutability": "view",
      "type": "function"
    },
    {
      "inputs": [],
      "name": "hesicNftAddress",
      "outputs": [
        {
          "internalType": "address",
          "name": "",
          "type": "address"
        }
      ],
      "stateMutability": "view",
      "type": "function"
    },
    {
      "inputs": [],
      "name": "hesmanToken",
      "outputs": [
        {
          "internalType": "contract ERC20",
          "name": "",
          "type": "address"
        }
      ],
      "stateMutability": "view",
      "type": "function"
    },
    {
      "inputs": [],
      "name": "isPause",
      "outputs": [
        {
          "internalType": "bool",
          "name": "",
          "type": "bool"
        }
      ],
      "stateMutability": "view",
      "type": "function"
    },
    {
      "inputs": [
        {
          "internalType": "address",
          "name": "",
          "type": "address"
        }
      ],
      "name": "isStaked",
      "outputs": [
        {
          "internalType": "bool",
          "name": "",
          "type": "bool"
        }
      ],
      "stateMutability": "view",
      "type": "function"
    },
    {
      "inputs": [
        {
          "internalType": "address",
          "name": "",
          "type": "address"
        },
        {
          "internalType": "uint256",
          "name": "",
          "type": "uint256"
        }
      ],
      "name": "nftIdList",
      "outputs": [
        {
          "internalType": "uint256",
          "name": "",
          "type": "uint256"
        }
      ],
      "stateMutability": "view",
      "type": "function"
    },
    {
      "inputs": [],
      "name": "nftToHes",
      "outputs": [
        {
          "internalType": "uint256",
          "name": "",
          "type": "uint256"
        }
      ],
      "stateMutability": "view",
      "type": "function"
    },
    {
      "inputs": [
        {
          "internalType": "address",
          "name": "",
          "type": "address"
        },
        {
          "internalType": "address",
          "name": "",
          "type": "address"
        },
        {
          "internalType": "uint256",
          "name": "",
          "type": "uint256"
        },
        {
          "internalType": "bytes",
          "name": "",
          "type": "bytes"
        }
      ],
      "name": "onERC721Received",
      "outputs": [
        {
          "internalType": "bytes4",
          "name": "",
          "type": "bytes4"
        }
      ],
      "stateMutability": "nonpayable",
      "type": "function"
    },
    {
      "inputs": [],
      "name": "owner",
      "outputs": [
        {
          "internalType": "address",
          "name": "",
          "type": "address"
        }
      ],
      "stateMutability": "view",
      "type": "function"
    },
    {
      "inputs": [
        {
          "internalType": "address[]",
          "name": "userList",
          "type": "address[]"
        }
      ],
      "name": "removeBlackList",
      "outputs": [],
      "stateMutability": "nonpayable",
      "type": "function"
    },
    {
      "inputs": [],
      "name": "renounceOwnership",
      "outputs": [],
      "stateMutability": "nonpayable",
      "type": "function"
    },
    {
      "inputs": [
        {
          "internalType": "address[]",
          "name": "userList",
          "type": "address[]"
        }
      ],
      "name": "setBlackList",
      "outputs": [],
      "stateMutability": "nonpayable",
      "type": "function"
    },
    {
      "inputs": [
        {
          "internalType": "uint256",
          "name": "_startStakeTime",
          "type": "uint256"
        },
        {
          "internalType": "uint256",
          "name": "_endStakeTime",
          "type": "uint256"
        }
      ],
      "name": "setConfig",
      "outputs": [],
      "stateMutability": "nonpayable",
      "type": "function"
    },
    {
      "inputs": [
        {
          "internalType": "bool",
          "name": "_status",
          "type": "bool"
        }
      ],
      "name": "setPauseContract",
      "outputs": [],
      "stateMutability": "nonpayable",
      "type": "function"
    },
    {
      "inputs": [
        {
          "internalType": "address",
          "name": "_hesmanToken",
          "type": "address"
        },
        {
          "internalType": "address",
          "name": "_hesicNftAddress",
          "type": "address"
        }
      ],
      "name": "setToken",
      "outputs": [],
      "stateMutability": "nonpayable",
      "type": "function"
    },
    {
      "inputs": [
        {
          "internalType": "address",
          "name": "",
          "type": "address"
        }
      ],
      "name": "stakeBlock",
      "outputs": [
        {
          "internalType": "uint256",
          "name": "",
          "type": "uint256"
        }
      ],
      "stateMutability": "view",
      "type": "function"
    },
    {
      "inputs": [
        {
          "internalType": "uint256[]",
          "name": "_idNftList",
          "type": "uint256[]"
        }
      ],
      "name": "stakeNft",
      "outputs": [],
      "stateMutability": "nonpayable",
      "type": "function"
    },
    {
      "inputs": [],
      "name": "startStakeTime",
      "outputs": [
        {
          "internalType": "uint256",
          "name": "",
          "type": "uint256"
        }
      ],
      "stateMutability": "view",
      "type": "function"
    },
    {
      "inputs": [],
      "name": "totalUserStaked",
      "outputs": [
        {
          "internalType": "uint256",
          "name": "",
          "type": "uint256"
        }
      ],
      "stateMutability": "view",
      "type": "function"
    },
    {
      "inputs": [
        {
          "internalType": "address",
          "name": "newOwner",
          "type": "address"
        }
      ],
      "name": "transferOwnership",
      "outputs": [],
      "stateMutability": "nonpayable",
      "type": "function"
    },
    {
      "inputs": [],
      "name": "unStakeTime",
      "outputs": [
        {
          "internalType": "uint256",
          "name": "",
          "type": "uint256"
        }
      ],
      "stateMutability": "view",
      "type": "function"
    },
    {
      "inputs": [
        {
          "internalType": "address",
          "name": "",
          "type": "address"
        }
      ],
      "name": "unstakeBlock",
      "outputs": [
        {
          "internalType": "uint256",
          "name": "",
          "type": "uint256"
        }
      ],
      "stateMutability": "view",
      "type": "function"
    },
    {
      "inputs": [
        {
          "internalType": "uint256",
          "name": "_amount",
          "type": "uint256"
        }
      ],
      "name": "unstakeToken",
      "outputs": [],
      "stateMutability": "nonpayable",
      "type": "function"
    }
  ],
  "bytecode": "0x60806040523480156200001157600080fd5b506040516200342a3803806200342a83398181016040528101906200003791906200020d565b620000576200004b6200011360201b60201c565b6200011b60201b60201c565b6001808190555083600a60006101000a81548173ffffffffffffffffffffffffffffffffffffffff021916908373ffffffffffffffffffffffffffffffffffffffff16021790555082600b60006101000a81548173ffffffffffffffffffffffffffffffffffffffff021916908373ffffffffffffffffffffffffffffffffffffffff16021790555081600881905550806009819055506001600760006101000a81548160ff02191690831515021790555050505050620002f6565b600033905090565b60008060009054906101000a900473ffffffffffffffffffffffffffffffffffffffff169050816000806101000a81548173ffffffffffffffffffffffffffffffffffffffff021916908373ffffffffffffffffffffffffffffffffffffffff1602179055508173ffffffffffffffffffffffffffffffffffffffff168173ffffffffffffffffffffffffffffffffffffffff167f8be0079c531659141344cd1fd0a4f28419497f9722a3daafe3b4186f6b6457e060405160405180910390a35050565b600081519050620001f081620002c2565b92915050565b6000815190506200020781620002dc565b92915050565b600080600080608085870312156200022a5762000229620002bd565b5b60006200023a87828801620001df565b94505060206200024d87828801620001df565b93505060406200026087828801620001f6565b92505060606200027387828801620001f6565b91505092959194509250565b60006200028c8262000293565b9050919050565b600073ffffffffffffffffffffffffffffffffffffffff82169050919050565b6000819050919050565b600080fd5b620002cd816200027f565b8114620002d957600080fd5b50565b620002e781620002b3565b8114620002f357600080fd5b50565b61312480620003066000396000f3fe608060405234801561001057600080fd5b50600436106101a95760003560e01c8063715018a6116100f9578063a58f03aa11610097578063d47ae11011610071578063d47ae11014610486578063e601af73146104b6578063f2fde38b146104d2578063ff0938a7146104ee576101a9565b8063a58f03aa1461041a578063af0efb5214610438578063cb22400614610456576101a9565b80637e9ef7af116100d35780637e9ef7af146103925780638da5cb5b146103b05780639aa0ea19146103ce5780639bf41135146103fe576101a9565b8063715018a61461034e57806371aec51514610358578063777e092b14610376576101a9565b80632cfb6688116101665780635481c4df116101405780635481c4df146102c457806360d66f7e146102e25780636177fd181461030057806369bdbfbb14610330576101a9565b80632cfb66881461025c5780633d8bfa58146102785780634017cdce146102a8576101a9565b806309d9754e146101ae5780630f3555a2146101cc578063150b7a02146101ea5780631da26a8b1461021a5780631e34c585146102365780631f2c851f14610252575b600080fd5b6101b661050c565b6040516101c391906129e9565b60405180910390f35b6101d4610512565b6040516101e191906129e9565b60405180910390f35b61020460048036038101906101ff919061223e565b610518565b6040516102119190612811565b60405180910390f35b610234600480360381019061022f91906121fe565b61052c565b005b610250600480360381019061024b919061244f565b61062e565b005b61025a610713565b005b610276600480360381019061027191906123f5565b6108f1565b005b610292600480360381019061028d91906122c1565b611035565b60405161029f91906129e9565b60405180910390f35b6102c260048036038101906102bd919061234e565b611066565b005b6102cc61169c565b6040516102d991906126ff565b60405180910390f35b6102ea6116c2565b6040516102f791906129e9565b60405180910390f35b61031a600480360381019061031591906121d1565b6116c8565b60405161032791906127f6565b60405180910390f35b6103386116e8565b60405161034591906129e9565b60405180910390f35b6103566116ee565b005b610360611776565b60405161036d91906129e9565b60405180910390f35b610390600480360381019061038b9190612301565b61177c565b005b61039a61189d565b6040516103a791906129e9565b60405180910390f35b6103b86118e7565b6040516103c591906126ff565b60405180910390f35b6103e860048036038101906103e391906121d1565b611910565b6040516103f591906127f6565b60405180910390f35b61041860048036038101906104139190612301565b611930565b005b610422611a51565b60405161042f91906129e9565b60405180910390f35b610440611a57565b60405161044d919061282c565b60405180910390f35b610470600480360381019061046b91906121d1565b611a7d565b60405161047d91906129e9565b60405180910390f35b6104a0600480360381019061049b91906121d1565b611a95565b6040516104ad91906129e9565b60405180910390f35b6104d060048036038101906104cb919061239b565b611aad565b005b6104ec60048036038101906104e791906121d1565b611b46565b005b6104f6611c3e565b60405161050391906127f6565b60405180910390f35b600e5481565b60095481565b600063150b7a0260e01b9050949350505050565b610534611c51565b73ffffffffffffffffffffffffffffffffffffffff166105526118e7565b73ffffffffffffffffffffffffffffffffffffffff16146105a8576040517f08c379a000000000000000000000000000000000000000000000000000000000815260040161059f90612909565b60405180910390fd5b81600a60006101000a81548173ffffffffffffffffffffffffffffffffffffffff021916908373ffffffffffffffffffffffffffffffffffffffff16021790555080600b60006101000a81548173ffffffffffffffffffffffffffffffffffffffff021916908373ffffffffffffffffffffffffffffffffffffffff1602179055505050565b610636611c51565b73ffffffffffffffffffffffffffffffffffffffff166106546118e7565b73ffffffffffffffffffffffffffffffffffffffff16146106aa576040517f08c379a00000000000000000000000000000000000000000000000000000000081526004016106a190612909565b60405180910390fd5b8082106106ec576040517f08c379a00000000000000000000000000000000000000000000000000000000081526004016106e3906129c9565b60405180910390fd5b81600c8190555080600d819055506001600c546107099190612a8c565b600e819055505050565b61071b611c51565b73ffffffffffffffffffffffffffffffffffffffff166107396118e7565b73ffffffffffffffffffffffffffffffffffffffff161461078f576040517f08c379a000000000000000000000000000000000000000000000000000000000815260040161078690612909565b60405180910390fd5b6000600a60009054906101000a900473ffffffffffffffffffffffffffffffffffffffff1673ffffffffffffffffffffffffffffffffffffffff166370a08231306040518263ffffffff1660e01b81526004016107ec91906126ff565b60206040518083038186803b15801561080457600080fd5b505afa158015610818573d6000803e3d6000fd5b505050506040513d601f19601f8201168201806040525081019061083c9190612422565b9050600a60009054906101000a900473ffffffffffffffffffffffffffffffffffffffff1673ffffffffffffffffffffffffffffffffffffffff1663a9059cbb33836040518363ffffffff1660e01b815260040161089b929190612751565b602060405180830381600087803b1580156108b557600080fd5b505af11580156108c9573d6000803e3d6000fd5b505050506040513d601f19601f820116820180604052508101906108ed91906123c8565b5050565b60026001541415610937576040517f08c379a000000000000000000000000000000000000000000000000000000000815260040161092e906129a9565b60405180910390fd5b600260018190555060001515600560003373ffffffffffffffffffffffffffffffffffffffff1673ffffffffffffffffffffffffffffffffffffffff16815260200190815260200160002060009054906101000a900460ff161515146109d2576040517f08c379a00000000000000000000000000000000000000000000000000000000081526004016109c9906128a9565b60405180910390fd5b6032811115610a16576040517f08c379a0000000000000000000000000000000000000000000000000000000008152600401610a0d906128e9565b60405180910390fd5b600460003373ffffffffffffffffffffffffffffffffffffffff1673ffffffffffffffffffffffffffffffffffffffff16815260200190815260200160002080549050811115610a9b576040517f08c379a0000000000000000000000000000000000000000000000000000000008152600401610a9290612929565b60405180910390fd5b43600360003373ffffffffffffffffffffffffffffffffffffffff1673ffffffffffffffffffffffffffffffffffffffff168152602001908152602001600020819055506000600460003373ffffffffffffffffffffffffffffffffffffffff1673ffffffffffffffffffffffffffffffffffffffff1681526020019081526020016000208054905090506000610c14629e3400610c066064610bf8600854610bea88610bdc600954600260003373ffffffffffffffffffffffffffffffffffffffff1673ffffffffffffffffffffffffffffffffffffffff16815260200190815260200160002054600360003373ffffffffffffffffffffffffffffffffffffffff1673ffffffffffffffffffffffffffffffffffffffff16815260200190815260200160002054610bce9190612b6d565b611c5990919063ffffffff16565b611c5990919063ffffffff16565b611c5990919063ffffffff16565b611c6f90919063ffffffff16565b611c6f90919063ffffffff16565b905043600260003373ffffffffffffffffffffffffffffffffffffffff1673ffffffffffffffffffffffffffffffffffffffff1681526020019081526020016000208190555060005b83811015610e6157600b60009054906101000a900473ffffffffffffffffffffffffffffffffffffffff1673ffffffffffffffffffffffffffffffffffffffff166323b872dd3033600460003373ffffffffffffffffffffffffffffffffffffffff1673ffffffffffffffffffffffffffffffffffffffff16815260200190815260200160002060018689610cf29190612b6d565b610cfc9190612b6d565b81548110610d0d57610d0c612dbe565b5b90600052602060002001546040518463ffffffff1660e01b8152600401610d369392919061271a565b600060405180830381600087803b158015610d5057600080fd5b505af1158015610d64573d6000803e3d6000fd5b505050503373ffffffffffffffffffffffffffffffffffffffff167f092f1d2f59723a7f07e48bc058ac50cfb9b46c50bf938f7c04a54e64f5f8be59600b60009054906101000a900473ffffffffffffffffffffffffffffffffffffffff16600460003373ffffffffffffffffffffffffffffffffffffffff1673ffffffffffffffffffffffffffffffffffffffff16815260200190815260200160002060018588610e109190612b6d565b610e1a9190612b6d565b81548110610e2b57610e2a612dbe565b5b906000526020600020015443604051610e469392919061277a565b60405180910390a28080610e5990612ce8565b915050610c5d565b50600460003373ffffffffffffffffffffffffffffffffffffffff1673ffffffffffffffffffffffffffffffffffffffff16815260200190815260200160002080549050831415610f1d576000600660003373ffffffffffffffffffffffffffffffffffffffff1673ffffffffffffffffffffffffffffffffffffffff16815260200190815260200160002060006101000a81548160ff021916908315150217905550600f6000815480929190610f1790612c8d565b91905055505b60005b83811015610fa057600460003373ffffffffffffffffffffffffffffffffffffffff1673ffffffffffffffffffffffffffffffffffffffff168152602001908152602001600020805480610f7757610f76612d8f565b5b600190038181906000526020600020016000905590558080610f9890612ce8565b915050610f20565b50610fee3382600a60009054906101000a900473ffffffffffffffffffffffffffffffffffffffff1673ffffffffffffffffffffffffffffffffffffffff16611c859092919063ffffffff16565b7f47149093c65ccaad4005584cef4131141e06e2a198dc71167740cf5c6062d5973343836040516110219392919061277a565b60405180910390a150506001808190555050565b6004602052816000526040600020818154811061105157600080fd5b90600052602060002001600091509150505481565b600260015414156110ac576040517f08c379a00000000000000000000000000000000000000000000000000000000081526004016110a3906129a9565b60405180910390fd5b600260018190555060001515600760009054906101000a900460ff1615151461110a576040517f08c379a000000000000000000000000000000000000000000000000000000000815260040161110190612989565b60405180910390fd5b60001515600560003373ffffffffffffffffffffffffffffffffffffffff1673ffffffffffffffffffffffffffffffffffffffff16815260200190815260200160002060009054906101000a900460ff1615151461119d576040517f08c379a0000000000000000000000000000000000000000000000000000000008152600401611194906128a9565b60405180910390fd5b600082829050116111e3576040517f08c379a00000000000000000000000000000000000000000000000000000000081526004016111da90612869565b60405180910390fd5b603282829050111561122a576040517f08c379a0000000000000000000000000000000000000000000000000000000008152600401611221906128e9565b60405180910390fd5b600061131b629e340061130d60646112ff6008546112f1600460003373ffffffffffffffffffffffffffffffffffffffff1673ffffffffffffffffffffffffffffffffffffffff168152602001908152602001600020805490506112e3600954600260003373ffffffffffffffffffffffffffffffffffffffff1673ffffffffffffffffffffffffffffffffffffffff16815260200190815260200160002054436112d59190612b6d565b611c5990919063ffffffff16565b611c5990919063ffffffff16565b611c5990919063ffffffff16565b611c6f90919063ffffffff16565b611c6f90919063ffffffff16565b905043600260003373ffffffffffffffffffffffffffffffffffffffff1673ffffffffffffffffffffffffffffffffffffffff1681526020019081526020016000208190555060005b8383905081101561153857600b60009054906101000a900473ffffffffffffffffffffffffffffffffffffffff1673ffffffffffffffffffffffffffffffffffffffff166323b872dd33308787868181106113c2576113c1612dbe565b5b905060200201356040518463ffffffff1660e01b81526004016113e79392919061271a565b600060405180830381600087803b15801561140157600080fd5b505af1158015611415573d6000803e3d6000fd5b50505050600460003373ffffffffffffffffffffffffffffffffffffffff1673ffffffffffffffffffffffffffffffffffffffff16815260200190815260200160002084848381811061146b5761146a612dbe565b5b9050602002013590806001815401808255809150506001900390600052602060002001600090919091909150553373ffffffffffffffffffffffffffffffffffffffff167f24657c9e85b3c893a60d35dc5a431bbc724aeed1d7f9951b03cea2ae7901d5ad600b60009054906101000a900473ffffffffffffffffffffffffffffffffffffffff1686868581811061150657611505612dbe565b5b905060200201354360405161151d9392919061277a565b60405180910390a2808061153090612ce8565b915050611364565b5060001515600660003373ffffffffffffffffffffffffffffffffffffffff1673ffffffffffffffffffffffffffffffffffffffff16815260200190815260200160002060009054906101000a900460ff16151514156115ab57600f60008154809291906115a590612ce8565b91905055505b6001600660003373ffffffffffffffffffffffffffffffffffffffff1673ffffffffffffffffffffffffffffffffffffffff16815260200190815260200160002060006101000a81548160ff0219169083151502179055506116503382600a60009054906101000a900473ffffffffffffffffffffffffffffffffffffffff1673ffffffffffffffffffffffffffffffffffffffff16611c859092919063ffffffff16565b7f82c0ec9a5f7e8ab3367d3802d357e9dbf0bc201f9120e7c7f056941ee08416d73384849050438460405161168894939291906127b1565b60405180910390a150600180819055505050565b600b60009054906101000a900473ffffffffffffffffffffffffffffffffffffffff1681565b600f5481565b60066020528060005260406000206000915054906101000a900460ff1681565b60085481565b6116f6611c51565b73ffffffffffffffffffffffffffffffffffffffff166117146118e7565b73ffffffffffffffffffffffffffffffffffffffff161461176a576040517f08c379a000000000000000000000000000000000000000000000000000000000815260040161176190612909565b60405180910390fd5b6117746000611d0b565b565b600c5481565b611784611c51565b73ffffffffffffffffffffffffffffffffffffffff166117a26118e7565b73ffffffffffffffffffffffffffffffffffffffff16146117f8576040517f08c379a00000000000000000000000000000000000000000000000000000000081526004016117ef90612909565b60405180910390fd5b60005b828290508110156118985760016005600085858581811061181f5761181e612dbe565b5b905060200201602081019061183491906121d1565b73ffffffffffffffffffffffffffffffffffffffff1673ffffffffffffffffffffffffffffffffffffffff16815260200190815260200160002060006101000a81548160ff021916908315150217905550808061189090612ce8565b9150506117fb565b505050565b6000600460003373ffffffffffffffffffffffffffffffffffffffff1673ffffffffffffffffffffffffffffffffffffffff16815260200190815260200160002080549050905090565b60008060009054906101000a900473ffffffffffffffffffffffffffffffffffffffff16905090565b60056020528060005260406000206000915054906101000a900460ff1681565b611938611c51565b73ffffffffffffffffffffffffffffffffffffffff166119566118e7565b73ffffffffffffffffffffffffffffffffffffffff16146119ac576040517f08c379a00000000000000000000000000000000000000000000000000000000081526004016119a390612909565b60405180910390fd5b60005b82829050811015611a4c576000600560008585858181106119d3576119d2612dbe565b5b90506020020160208101906119e891906121d1565b73ffffffffffffffffffffffffffffffffffffffff1673ffffffffffffffffffffffffffffffffffffffff16815260200190815260200160002060006101000a81548160ff0219169083151502179055508080611a4490612ce8565b9150506119af565b505050565b600d5481565b600a60009054906101000a900473ffffffffffffffffffffffffffffffffffffffff1681565b60036020528060005260406000206000915090505481565b60026020528060005260406000206000915090505481565b611ab5611c51565b73ffffffffffffffffffffffffffffffffffffffff16611ad36118e7565b73ffffffffffffffffffffffffffffffffffffffff1614611b29576040517f08c379a0000000000000000000000000000000000000000000000000000000008152600401611b2090612909565b60405180910390fd5b80600760006101000a81548160ff02191690831515021790555050565b611b4e611c51565b73ffffffffffffffffffffffffffffffffffffffff16611b6c6118e7565b73ffffffffffffffffffffffffffffffffffffffff1614611bc2576040517f08c379a0000000000000000000000000000000000000000000000000000000008152600401611bb990612909565b60405180910390fd5b600073ffffffffffffffffffffffffffffffffffffffff168173ffffffffffffffffffffffffffffffffffffffff161415611c32576040517f08c379a0000000000000000000000000000000000000000000000000000000008152600401611c2990612889565b60405180910390fd5b611c3b81611d0b565b50565b600760009054906101000a900460ff1681565b600033905090565b60008183611c679190612b13565b905092915050565b60008183611c7d9190612ae2565b905092915050565b611d068363a9059cbb60e01b8484604051602401611ca4929190612751565b604051602081830303815290604052907bffffffffffffffffffffffffffffffffffffffffffffffffffffffff19166020820180517bffffffffffffffffffffffffffffffffffffffffffffffffffffffff8381831617835250505050611dcf565b505050565b60008060009054906101000a900473ffffffffffffffffffffffffffffffffffffffff169050816000806101000a81548173ffffffffffffffffffffffffffffffffffffffff021916908373ffffffffffffffffffffffffffffffffffffffff1602179055508173ffffffffffffffffffffffffffffffffffffffff168173ffffffffffffffffffffffffffffffffffffffff167f8be0079c531659141344cd1fd0a4f28419497f9722a3daafe3b4186f6b6457e060405160405180910390a35050565b6000611e31826040518060400160405280602081526020017f5361666545524332303a206c6f772d6c6576656c2063616c6c206661696c65648152508573ffffffffffffffffffffffffffffffffffffffff16611e969092919063ffffffff16565b9050600081511115611e915780806020019051810190611e5191906123c8565b611e90576040517f08c379a0000000000000000000000000000000000000000000000000000000008152600401611e8790612969565b60405180910390fd5b5b505050565b6060611ea58484600085611eae565b90509392505050565b606082471015611ef3576040517f08c379a0000000000000000000000000000000000000000000000000000000008152600401611eea906128c9565b60405180910390fd5b611efc85611fc2565b611f3b576040517f08c379a0000000000000000000000000000000000000000000000000000000008152600401611f3290612949565b60405180910390fd5b6000808673ffffffffffffffffffffffffffffffffffffffff168587604051611f6491906126e8565b60006040518083038185875af1925050503d8060008114611fa1576040519150601f19603f3d011682016040523d82523d6000602084013e611fa6565b606091505b5091509150611fb6828286611fe5565b92505050949350505050565b6000808273ffffffffffffffffffffffffffffffffffffffff163b119050919050565b60608315611ff557829050612045565b6000835111156120085782518084602001fd5b816040517f08c379a000000000000000000000000000000000000000000000000000000000815260040161203c9190612847565b60405180910390fd5b9392505050565b600061205f61205a84612a29565b612a04565b90508281526020810184848401111561207b5761207a612e2b565b5b612086848285612c4b565b509392505050565b60008135905061209d816130a9565b92915050565b60008083601f8401126120b9576120b8612e21565b5b8235905067ffffffffffffffff8111156120d6576120d5612e1c565b5b6020830191508360208202830111156120f2576120f1612e26565b5b9250929050565b60008083601f84011261210f5761210e612e21565b5b8235905067ffffffffffffffff81111561212c5761212b612e1c565b5b60208301915083602082028301111561214857612147612e26565b5b9250929050565b60008135905061215e816130c0565b92915050565b600081519050612173816130c0565b92915050565b600082601f83011261218e5761218d612e21565b5b813561219e84826020860161204c565b91505092915050565b6000813590506121b6816130d7565b92915050565b6000815190506121cb816130d7565b92915050565b6000602082840312156121e7576121e6612e35565b5b60006121f58482850161208e565b91505092915050565b6000806040838503121561221557612214612e35565b5b60006122238582860161208e565b92505060206122348582860161208e565b9150509250929050565b6000806000806080858703121561225857612257612e35565b5b60006122668782880161208e565b94505060206122778782880161208e565b9350506040612288878288016121a7565b925050606085013567ffffffffffffffff8111156122a9576122a8612e30565b5b6122b587828801612179565b91505092959194509250565b600080604083850312156122d8576122d7612e35565b5b60006122e68582860161208e565b92505060206122f7858286016121a7565b9150509250929050565b6000806020838503121561231857612317612e35565b5b600083013567ffffffffffffffff81111561233657612335612e30565b5b612342858286016120a3565b92509250509250929050565b6000806020838503121561236557612364612e35565b5b600083013567ffffffffffffffff81111561238357612382612e30565b5b61238f858286016120f9565b92509250509250929050565b6000602082840312156123b1576123b0612e35565b5b60006123bf8482850161214f565b91505092915050565b6000602082840312156123de576123dd612e35565b5b60006123ec84828501612164565b91505092915050565b60006020828403121561240b5761240a612e35565b5b6000612419848285016121a7565b91505092915050565b60006020828403121561243857612437612e35565b5b6000612446848285016121bc565b91505092915050565b6000806040838503121561246657612465612e35565b5b6000612474858286016121a7565b9250506020612485858286016121a7565b9150509250929050565b61249881612ba1565b82525050565b6124a781612bb3565b82525050565b6124b681612bbf565b82525050565b60006124c782612a5a565b6124d18185612a70565b93506124e1818560208601612c5a565b80840191505092915050565b6124f681612c15565b82525050565b600061250782612a65565b6125118185612a7b565b9350612521818560208601612c5a565b61252a81612e3a565b840191505092915050565b6000612542601e83612a7b565b915061254d82612e4b565b602082019050919050565b6000612565602683612a7b565b915061257082612e74565b604082019050919050565b6000612588601483612a7b565b915061259382612ec3565b602082019050919050565b60006125ab602683612a7b565b91506125b682612eec565b604082019050919050565b60006125ce600b83612a7b565b91506125d982612f3b565b602082019050919050565b60006125f1602083612a7b565b91506125fc82612f64565b602082019050919050565b6000612614600f83612a7b565b915061261f82612f8d565b602082019050919050565b6000612637601d83612a7b565b915061264282612fb6565b602082019050919050565b600061265a602a83612a7b565b915061266582612fdf565b604082019050919050565b600061267d601283612a7b565b91506126888261302e565b602082019050919050565b60006126a0601f83612a7b565b91506126ab82613057565b602082019050919050565b60006126c3601a83612a7b565b91506126ce82613080565b602082019050919050565b6126e281612c0b565b82525050565b60006126f482846124bc565b915081905092915050565b6000602082019050612714600083018461248f565b92915050565b600060608201905061272f600083018661248f565b61273c602083018561248f565b61274960408301846126d9565b949350505050565b6000604082019050612766600083018561248f565b61277360208301846126d9565b9392505050565b600060608201905061278f600083018661248f565b61279c60208301856126d9565b6127a960408301846126d9565b949350505050565b60006080820190506127c6600083018761248f565b6127d360208301866126d9565b6127e060408301856126d9565b6127ed60608301846126d9565b95945050505050565b600060208201905061280b600083018461249e565b92915050565b600060208201905061282660008301846124ad565b92915050565b600060208201905061284160008301846124ed565b92915050565b6000602082019050818103600083015261286181846124fc565b905092915050565b6000602082019050818103600083015261288281612535565b9050919050565b600060208201905081810360008301526128a281612558565b9050919050565b600060208201905081810360008301526128c28161257b565b9050919050565b600060208201905081810360008301526128e28161259e565b9050919050565b60006020820190508181036000830152612902816125c1565b9050919050565b60006020820190508181036000830152612922816125e4565b9050919050565b6000602082019050818103600083015261294281612607565b9050919050565b600060208201905081810360008301526129628161262a565b9050919050565b600060208201905081810360008301526129828161264d565b9050919050565b600060208201905081810360008301526129a281612670565b9050919050565b600060208201905081810360008301526129c281612693565b9050919050565b600060208201905081810360008301526129e2816126b6565b9050919050565b60006020820190506129fe60008301846126d9565b92915050565b6000612a0e612a1f565b9050612a1a8282612cb7565b919050565b6000604051905090565b600067ffffffffffffffff821115612a4457612a43612ded565b5b612a4d82612e3a565b9050602081019050919050565b600081519050919050565b600081519050919050565b600081905092915050565b600082825260208201905092915050565b6000612a9782612c0b565b9150612aa283612c0b565b9250827fffffffffffffffffffffffffffffffffffffffffffffffffffffffffffffffff03821115612ad757612ad6612d31565b5b828201905092915050565b6000612aed82612c0b565b9150612af883612c0b565b925082612b0857612b07612d60565b5b828204905092915050565b6000612b1e82612c0b565b9150612b2983612c0b565b9250817fffffffffffffffffffffffffffffffffffffffffffffffffffffffffffffffff0483118215151615612b6257612b61612d31565b5b828202905092915050565b6000612b7882612c0b565b9150612b8383612c0b565b925082821015612b9657612b95612d31565b5b828203905092915050565b6000612bac82612beb565b9050919050565b60008115159050919050565b60007fffffffff0000000000000000000000000000000000000000000000000000000082169050919050565b600073ffffffffffffffffffffffffffffffffffffffff82169050919050565b6000819050919050565b6000612c2082612c27565b9050919050565b6000612c3282612c39565b9050919050565b6000612c4482612beb565b9050919050565b82818337600083830152505050565b60005b83811015612c78578082015181840152602081019050612c5d565b83811115612c87576000848401525b50505050565b6000612c9882612c0b565b91506000821415612cac57612cab612d31565b5b600182039050919050565b612cc082612e3a565b810181811067ffffffffffffffff82111715612cdf57612cde612ded565b5b80604052505050565b6000612cf382612c0b565b91507fffffffffffffffffffffffffffffffffffffffffffffffffffffffffffffffff821415612d2657612d25612d31565b5b600182019050919050565b7f4e487b7100000000000000000000000000000000000000000000000000000000600052601160045260246000fd5b7f4e487b7100000000000000000000000000000000000000000000000000000000600052601260045260246000fd5b7f4e487b7100000000000000000000000000000000000000000000000000000000600052603160045260246000fd5b7f4e487b7100000000000000000000000000000000000000000000000000000000600052603260045260246000fd5b7f4e487b7100000000000000000000000000000000000000000000000000000000600052604160045260246000fd5b600080fd5b600080fd5b600080fd5b600080fd5b600080fd5b600080fd5b6000601f19601f8301169050919050565b7f4e465473206861766520746f2062652067726561746572207468616e20300000600082015250565b7f4f776e61626c653a206e6577206f776e657220697320746865207a65726f206160008201527f6464726573730000000000000000000000000000000000000000000000000000602082015250565b7f596f752061726520696e20426c61636b6c697374000000000000000000000000600082015250565b7f416464726573733a20696e73756666696369656e742062616c616e636520666f60008201527f722063616c6c0000000000000000000000000000000000000000000000000000602082015250565b7f4d6178203530204e465473000000000000000000000000000000000000000000600082015250565b7f4f776e61626c653a2063616c6c6572206973206e6f7420746865206f776e6572600082015250565b7f416d6f756e742065786365656465640000000000000000000000000000000000600082015250565b7f416464726573733a2063616c6c20746f206e6f6e2d636f6e7472616374000000600082015250565b7f5361666545524332303a204552433230206f7065726174696f6e20646964206e60008201527f6f74207375636365656400000000000000000000000000000000000000000000602082015250565b7f436f6e7472616374206973207061757365640000000000000000000000000000600082015250565b7f5265656e7472616e637947756172643a207265656e7472616e742063616c6c00600082015250565b7f496e7075742074696d65207374616b696e6720696e76616c6964000000000000600082015250565b6130b281612ba1565b81146130bd57600080fd5b50565b6130c981612bb3565b81146130d457600080fd5b50565b6130e081612c0b565b81146130eb57600080fd5b5056fea264697066735822122029f171a829d8d83bdf0698b1a4558f6fea8831e0ecaa6755aee579581d26b26e64736f6c63430008070033",
  "linkReferences": {},
  "deployedLinkReferences": {}
}