{
  "_format": "hh-sol-artifact-1",
  "contractName": "HemanRefundIDOv1",
  "sourceName": "contracts/HesmanNftIDO.sol",
  "abi": [
    {
      "inputs": [
        {
          "internalType": "address",
          "name": "",
          "type": "address"
        },
        {
          "internalType": "address",
          "name": "",
          "type": "address"
        }
      ],
      "name": "refundedMap",
      "outputs": [
        {
          "internalType": "bool",
          "name": "",
          "type": "bool"
        }
      ],
      "stateMutability": "view",
      "type": "function"
    }
  ],
  "bytecode": "0x608060405234801561001057600080fd5b5061019e806100206000396000f3fe608060405234801561001057600080fd5b506004361061002b5760003560e01c806397747a2b14610030575b600080fd5b61004a600480360381019061004591906100a4565b610060565b60405161005791906100f3565b60405180910390f35b60006020528160005260406000206020528060005260406000206000915091509054906101000a900460ff1681565b60008135905061009e81610151565b92915050565b600080604083850312156100bb576100ba61014c565b5b60006100c98582860161008f565b92505060206100da8582860161008f565b9150509250929050565b6100ed81610120565b82525050565b600060208201905061010860008301846100e4565b92915050565b60006101198261012c565b9050919050565b60008115159050919050565b600073ffffffffffffffffffffffffffffffffffffffff82169050919050565b600080fd5b61015a8161010e565b811461016557600080fd5b5056fea2646970667358221220d3d07498aba2ddaa658990e9a3adc3fe4c73c35447d877b0a3e027f8bd070c8264736f6c63430008070033",
  "linkReferences": {},
  "deployedLinkReferences": {}
}