{
  "_format": "hh-sol-artifact-1",
  "contractName": "HemanNftIDO",
  "sourceName": "contracts/HesmanNftIDO.sol",
  "abi": [
    {
      "inputs": [
        {
          "internalType": "address",
          "name": "_HesmanPoolNft",
          "type": "address"
        },
        {
          "internalType": "address",
          "name": "_HemanRefundIDO",
          "type": "address"
        },
        {
          "internalType": "address",
          "name": "_hesmanToken",
          "type": "address"
        },
        {
          "internalType": "address",
          "name": "_idoOwner",
          "type": "address"
        }
      ],
      "stateMutability": "nonpayable",
      "type": "constructor"
    },
    {
      "anonymous": false,
      "inputs": [
        {
          "indexed": false,
          "internalType": "address",
          "name": "user",
          "type": "address"
        },
        {
          "indexed": false,
          "internalType": "uint256",
          "name": "amount",
          "type": "uint256"
        },
        {
          "indexed": false,
          "internalType": "uint256",
          "name": "time",
          "type": "uint256"
        }
      ],
      "name": "EventUserClaim",
      "type": "event"
    },
    {
      "anonymous": false,
      "inputs": [
        {
          "indexed": true,
          "internalType": "address",
          "name": "previousOwner",
          "type": "address"
        },
        {
          "indexed": true,
          "internalType": "address",
          "name": "newOwner",
          "type": "address"
        }
      ],
      "name": "OwnershipTransferred",
      "type": "event"
    },
    {
      "inputs": [
        {
          "internalType": "address",
          "name": "",
          "type": "address"
        }
      ],
      "name": "blacklistMap",
      "outputs": [
        {
          "internalType": "bool",
          "name": "",
          "type": "bool"
        }
      ],
      "stateMutability": "view",
      "type": "function"
    },
    {
      "inputs": [],
      "name": "claimIdo",
      "outputs": [],
      "stateMutability": "nonpayable",
      "type": "function"
    },
    {
      "inputs": [],
      "name": "hesmanToken",
      "outputs": [
        {
          "internalType": "contract ERC20",
          "name": "",
          "type": "address"
        }
      ],
      "stateMutability": "view",
      "type": "function"
    },
    {
      "inputs": [],
      "name": "idoOwner",
      "outputs": [
        {
          "internalType": "address",
          "name": "",
          "type": "address"
        }
      ],
      "stateMutability": "view",
      "type": "function"
    },
    {
      "inputs": [],
      "name": "isPause",
      "outputs": [
        {
          "internalType": "bool",
          "name": "",
          "type": "bool"
        }
      ],
      "stateMutability": "view",
      "type": "function"
    },
    {
      "inputs": [],
      "name": "owner",
      "outputs": [
        {
          "internalType": "address",
          "name": "",
          "type": "address"
        }
      ],
      "stateMutability": "view",
      "type": "function"
    },
    {
      "inputs": [],
      "name": "poolHesman",
      "outputs": [
        {
          "internalType": "address",
          "name": "",
          "type": "address"
        }
      ],
      "stateMutability": "view",
      "type": "function"
    },
    {
      "inputs": [],
      "name": "poolHesmanRefund",
      "outputs": [
        {
          "internalType": "address",
          "name": "",
          "type": "address"
        }
      ],
      "stateMutability": "view",
      "type": "function"
    },
    {
      "inputs": [
        {
          "internalType": "address[]",
          "name": "userList",
          "type": "address[]"
        }
      ],
      "name": "removeBlackList",
      "outputs": [],
      "stateMutability": "nonpayable",
      "type": "function"
    },
    {
      "inputs": [
        {
          "internalType": "address[]",
          "name": "userList",
          "type": "address[]"
        }
      ],
      "name": "removeWhiteList",
      "outputs": [],
      "stateMutability": "nonpayable",
      "type": "function"
    },
    {
      "inputs": [],
      "name": "renounceOwnership",
      "outputs": [],
      "stateMutability": "nonpayable",
      "type": "function"
    },
    {
      "inputs": [
        {
          "internalType": "address[]",
          "name": "userList",
          "type": "address[]"
        }
      ],
      "name": "setBlackList",
      "outputs": [],
      "stateMutability": "nonpayable",
      "type": "function"
    },
    {
      "inputs": [
        {
          "internalType": "uint256[]",
          "name": "_startTimeList",
          "type": "uint256[]"
        },
        {
          "internalType": "uint256[]",
          "name": "_percentList",
          "type": "uint256[]"
        }
      ],
      "name": "setClaimTime",
      "outputs": [],
      "stateMutability": "nonpayable",
      "type": "function"
    },
    {
      "inputs": [
        {
          "internalType": "address",
          "name": "_hesmanToken",
          "type": "address"
        }
      ],
      "name": "setHesmanToken",
      "outputs": [],
      "stateMutability": "nonpayable",
      "type": "function"
    },
    {
      "inputs": [
        {
          "internalType": "address",
          "name": "_idoOwner",
          "type": "address"
        }
      ],
      "name": "setIdoOwner",
      "outputs": [],
      "stateMutability": "nonpayable",
      "type": "function"
    },
    {
      "inputs": [
        {
          "internalType": "bool",
          "name": "_status",
          "type": "bool"
        }
      ],
      "name": "setPauseContract",
      "outputs": [],
      "stateMutability": "nonpayable",
      "type": "function"
    },
    {
      "inputs": [
        {
          "internalType": "address",
          "name": "_HesmanPoolNft",
          "type": "address"
        },
        {
          "internalType": "address",
          "name": "_HemanRefundIDO",
          "type": "address"
        }
      ],
      "name": "setPool",
      "outputs": [],
      "stateMutability": "nonpayable",
      "type": "function"
    },
    {
      "inputs": [
        {
          "internalType": "address",
          "name": "_user",
          "type": "address"
        },
        {
          "internalType": "uint256",
          "name": "_vesting",
          "type": "uint256"
        }
      ],
      "name": "setVestingUser",
      "outputs": [],
      "stateMutability": "nonpayable",
      "type": "function"
    },
    {
      "inputs": [
        {
          "internalType": "address[]",
          "name": "userList",
          "type": "address[]"
        }
      ],
      "name": "setWhiteList",
      "outputs": [],
      "stateMutability": "nonpayable",
      "type": "function"
    },
    {
      "inputs": [
        {
          "internalType": "uint256",
          "name": "",
          "type": "uint256"
        }
      ],
      "name": "stageList",
      "outputs": [
        {
          "internalType": "uint256",
          "name": "id",
          "type": "uint256"
        },
        {
          "internalType": "uint256",
          "name": "percent",
          "type": "uint256"
        },
        {
          "internalType": "uint256",
          "name": "startTime",
          "type": "uint256"
        }
      ],
      "stateMutability": "view",
      "type": "function"
    },
    {
      "inputs": [
        {
          "internalType": "address",
          "name": "newOwner",
          "type": "address"
        }
      ],
      "name": "transferOwnership",
      "outputs": [],
      "stateMutability": "nonpayable",
      "type": "function"
    },
    {
      "inputs": [],
      "name": "urgentWithdrawAllToken",
      "outputs": [],
      "stateMutability": "nonpayable",
      "type": "function"
    },
    {
      "inputs": [
        {
          "internalType": "address",
          "name": "",
          "type": "address"
        }
      ],
      "name": "vestingMap",
      "outputs": [
        {
          "internalType": "uint256",
          "name": "",
          "type": "uint256"
        }
      ],
      "stateMutability": "view",
      "type": "function"
    },
    {
      "inputs": [
        {
          "internalType": "address",
          "name": "",
          "type": "address"
        }
      ],
      "name": "whitelistMap",
      "outputs": [
        {
          "internalType": "bool",
          "name": "",
          "type": "bool"
        }
      ],
      "stateMutability": "view",
      "type": "function"
    }
  ],
  "bytecode": "0x60806040523480156200001157600080fd5b506040516200350238038062003502833981810160405281019062000037919062000330565b620000576200004b6200024d60201b60201c565b6200025560201b60201c565b6001808190555083600560006101000a81548173ffffffffffffffffffffffffffffffffffffffff021916908373ffffffffffffffffffffffffffffffffffffffff160217905550600560009054906101000a900473ffffffffffffffffffffffffffffffffffffffff16600860006101000a81548173ffffffffffffffffffffffffffffffffffffffff021916908373ffffffffffffffffffffffffffffffffffffffff16021790555082600660006101000a81548173ffffffffffffffffffffffffffffffffffffffff021916908373ffffffffffffffffffffffffffffffffffffffff160217905550600660009054906101000a900473ffffffffffffffffffffffffffffffffffffffff16600960006101000a81548173ffffffffffffffffffffffffffffffffffffffff021916908373ffffffffffffffffffffffffffffffffffffffff16021790555081600760006101000a81548173ffffffffffffffffffffffffffffffffffffffff021916908373ffffffffffffffffffffffffffffffffffffffff16021790555080600260006101000a81548173ffffffffffffffffffffffffffffffffffffffff021916908373ffffffffffffffffffffffffffffffffffffffff1602179055506001600260146101000a81548160ff02191690831515021790555050505050620003f5565b600033905090565b60008060009054906101000a900473ffffffffffffffffffffffffffffffffffffffff169050816000806101000a81548173ffffffffffffffffffffffffffffffffffffffff021916908373ffffffffffffffffffffffffffffffffffffffff1602179055508173ffffffffffffffffffffffffffffffffffffffff168173ffffffffffffffffffffffffffffffffffffffff167f8be0079c531659141344cd1fd0a4f28419497f9722a3daafe3b4186f6b6457e060405160405180910390a35050565b6000815190506200032a81620003db565b92915050565b600080600080608085870312156200034d576200034c620003d6565b5b60006200035d8782880162000319565b9450506020620003708782880162000319565b9350506040620003838782880162000319565b9250506060620003968782880162000319565b91505092959194509250565b6000620003af82620003b6565b9050919050565b600073ffffffffffffffffffffffffffffffffffffffff82169050919050565b600080fd5b620003e681620003a2565b8114620003f257600080fd5b50565b6130fd80620004056000396000f3fe608060405234801561001057600080fd5b50600436106101585760003560e01c80638da5cb5b116100c3578063e601af731161007c578063e601af731461037b578063ea5bb7c714610397578063f2fde38b146103b3578063f5836d1b146103cf578063feda1fd6146103eb578063ff0938a71461040757610158565b80638da5cb5b146102cd5780639aa0ea19146102eb5780639bf411351461031b578063af0efb5214610337578063b4908ae714610355578063cc6cd0341461037157610158565b806363886262116101155780636388626214610233578063715018a61461023d578063775b9c1314610247578063777e092b14610263578063782a27371461027f57806386105a63146102af57610158565b806332531c3c1461015d578063341cb7231461018d578063355fdc2d146101ab57806339745791146101c95780633fc6e10d146101e55780634e847fc714610217575b600080fd5b61017760048036038101906101729190612252565b610425565b6040516101849190612812565b60405180910390f35b610195610445565b6040516101a2919061276e565b60405180910390f35b6101b361046b565b6040516101c0919061276e565b60405180910390f35b6101e360048036038101906101de91906122ff565b610491565b005b6101ff60048036038101906101fa9190612427565b6105b2565b60405161020e93929190612a85565b60405180910390f35b610231600480360381019061022c919061227f565b6105ec565b005b61023b6107b4565b005b61024561095b565b005b610261600480360381019061025c91906122ff565b6109e3565b005b61027d600480360381019061027891906122ff565b610b04565b005b61029960048036038101906102949190612252565b610c25565b6040516102a69190612a6a565b60405180910390f35b6102b7610c3d565b6040516102c4919061276e565b60405180910390f35b6102d5610c63565b6040516102e2919061276e565b60405180910390f35b61030560048036038101906103009190612252565b610c8c565b6040516103129190612812565b60405180910390f35b610335600480360381019061033091906122ff565b610cac565b005b61033f610dcd565b60405161034c919061282d565b60405180910390f35b61036f600480360381019061036a919061234c565b610df3565b005b610379610fd8565b005b610395600480360381019061039091906123cd565b6118e6565b005b6103b160048036038101906103ac9190612252565b61197f565b005b6103cd60048036038101906103c89190612252565b611a3f565b005b6103e960048036038101906103e491906122bf565b611b37565b005b61040560048036038101906104009190612252565b611bfb565b005b61040f611cbb565b60405161041c9190612812565b60405180910390f35b60036020528060005260406000206000915054906101000a900460ff1681565b600660009054906101000a900473ffffffffffffffffffffffffffffffffffffffff1681565b600260009054906101000a900473ffffffffffffffffffffffffffffffffffffffff1681565b610499611cce565b73ffffffffffffffffffffffffffffffffffffffff166104b7610c63565b73ffffffffffffffffffffffffffffffffffffffff161461050d576040517f08c379a00000000000000000000000000000000000000000000000000000000081526004016105049061298a565b60405180910390fd5b60005b828290508110156105ad5760006003600085858581811061053457610533612d27565b5b90506020020160208101906105499190612252565b73ffffffffffffffffffffffffffffffffffffffff1673ffffffffffffffffffffffffffffffffffffffff16815260200190815260200160002060006101000a81548160ff02191690831515021790555080806105a590612c80565b915050610510565b505050565b600a81815481106105c257600080fd5b90600052602060002090600302016000915090508060000154908060010154908060020154905083565b6105f4611cce565b73ffffffffffffffffffffffffffffffffffffffff16610612610c63565b73ffffffffffffffffffffffffffffffffffffffff1614610668576040517f08c379a000000000000000000000000000000000000000000000000000000000815260040161065f9061298a565b60405180910390fd5b81600560006101000a81548173ffffffffffffffffffffffffffffffffffffffff021916908373ffffffffffffffffffffffffffffffffffffffff160217905550600560009054906101000a900473ffffffffffffffffffffffffffffffffffffffff16600860006101000a81548173ffffffffffffffffffffffffffffffffffffffff021916908373ffffffffffffffffffffffffffffffffffffffff16021790555080600660006101000a81548173ffffffffffffffffffffffffffffffffffffffff021916908373ffffffffffffffffffffffffffffffffffffffff160217905550600660009054906101000a900473ffffffffffffffffffffffffffffffffffffffff16600960006101000a81548173ffffffffffffffffffffffffffffffffffffffff021916908373ffffffffffffffffffffffffffffffffffffffff1602179055505050565b6107bc611cce565b73ffffffffffffffffffffffffffffffffffffffff166107da610c63565b73ffffffffffffffffffffffffffffffffffffffff1614610830576040517f08c379a00000000000000000000000000000000000000000000000000000000081526004016108279061298a565b60405180910390fd5b6000600760009054906101000a900473ffffffffffffffffffffffffffffffffffffffff1673ffffffffffffffffffffffffffffffffffffffff166370a08231306040518263ffffffff1660e01b815260040161088d919061276e565b60206040518083038186803b1580156108a557600080fd5b505afa1580156108b9573d6000803e3d6000fd5b505050506040513d601f19601f820116820180604052508101906108dd9190612454565b9050600081111561095857610957600260009054906101000a900473ffffffffffffffffffffffffffffffffffffffff1682600760009054906101000a900473ffffffffffffffffffffffffffffffffffffffff1673ffffffffffffffffffffffffffffffffffffffff16611cd69092919063ffffffff16565b5b50565b610963611cce565b73ffffffffffffffffffffffffffffffffffffffff16610981610c63565b73ffffffffffffffffffffffffffffffffffffffff16146109d7576040517f08c379a00000000000000000000000000000000000000000000000000000000081526004016109ce9061298a565b60405180910390fd5b6109e16000611d5c565b565b6109eb611cce565b73ffffffffffffffffffffffffffffffffffffffff16610a09610c63565b73ffffffffffffffffffffffffffffffffffffffff1614610a5f576040517f08c379a0000000000000000000000000000000000000000000000000000000008152600401610a569061298a565b60405180910390fd5b60005b82829050811015610aff57600160036000858585818110610a8657610a85612d27565b5b9050602002016020810190610a9b9190612252565b73ffffffffffffffffffffffffffffffffffffffff1673ffffffffffffffffffffffffffffffffffffffff16815260200190815260200160002060006101000a81548160ff0219169083151502179055508080610af790612c80565b915050610a62565b505050565b610b0c611cce565b73ffffffffffffffffffffffffffffffffffffffff16610b2a610c63565b73ffffffffffffffffffffffffffffffffffffffff1614610b80576040517f08c379a0000000000000000000000000000000000000000000000000000000008152600401610b779061298a565b60405180910390fd5b60005b82829050811015610c2057600160046000858585818110610ba757610ba6612d27565b5b9050602002016020810190610bbc9190612252565b73ffffffffffffffffffffffffffffffffffffffff1673ffffffffffffffffffffffffffffffffffffffff16815260200190815260200160002060006101000a81548160ff0219169083151502179055508080610c1890612c80565b915050610b83565b505050565b600b6020528060005260406000206000915090505481565b600560009054906101000a900473ffffffffffffffffffffffffffffffffffffffff1681565b60008060009054906101000a900473ffffffffffffffffffffffffffffffffffffffff16905090565b60046020528060005260406000206000915054906101000a900460ff1681565b610cb4611cce565b73ffffffffffffffffffffffffffffffffffffffff16610cd2610c63565b73ffffffffffffffffffffffffffffffffffffffff1614610d28576040517f08c379a0000000000000000000000000000000000000000000000000000000008152600401610d1f9061298a565b60405180910390fd5b60005b82829050811015610dc857600060046000858585818110610d4f57610d4e612d27565b5b9050602002016020810190610d649190612252565b73ffffffffffffffffffffffffffffffffffffffff1673ffffffffffffffffffffffffffffffffffffffff16815260200190815260200160002060006101000a81548160ff0219169083151502179055508080610dc090612c80565b915050610d2b565b505050565b600760009054906101000a900473ffffffffffffffffffffffffffffffffffffffff1681565b610dfb611cce565b73ffffffffffffffffffffffffffffffffffffffff16610e19610c63565b73ffffffffffffffffffffffffffffffffffffffff1614610e6f576040517f08c379a0000000000000000000000000000000000000000000000000000000008152600401610e669061298a565b60405180910390fd5b60008484905011610eb5576040517f08c379a0000000000000000000000000000000000000000000000000000000008152600401610eac9061294a565b60405180910390fd5b818190508484905014610efd576040517f08c379a0000000000000000000000000000000000000000000000000000000008152600401610ef49061294a565b60405180910390fd5b600a6000610f0b91906120c9565b60005b84849050811015610fd157610f216120ed565b81816000018181525050858583818110610f3e57610f3d612d27565b5b90506020020135816040018181525050838383818110610f6157610f60612d27565b5b90506020020135816020018181525050600a8190806001815401808255809150506001900390600052602060002090600302016000909190919091506000820151816000015560208201518160010155604082015181600201555050508080610fc990612c80565b915050610f0e565b5050505050565b6002600154141561101e576040517f08c379a000000000000000000000000000000000000000000000000000000000815260040161101590612a2a565b60405180910390fd5b600260018190555060001515600260149054906101000a900460ff1615151461107c576040517f08c379a000000000000000000000000000000000000000000000000000000000815260040161107390612a0a565b60405180910390fd5b60001515600460003373ffffffffffffffffffffffffffffffffffffffff1673ffffffffffffffffffffffffffffffffffffffff16815260200190815260200160002060009054906101000a900460ff1615151461110f576040517f08c379a0000000000000000000000000000000000000000000000000000000008152600401611106906128ca565b60405180910390fd5b600360003373ffffffffffffffffffffffffffffffffffffffff1673ffffffffffffffffffffffffffffffffffffffff16815260200190815260200160002060009054906101000a900460ff1661119b576040517f08c379a000000000000000000000000000000000000000000000000000000000815260040161119290612a4a565b60405180910390fd5b600860009054906101000a900473ffffffffffffffffffffffffffffffffffffffff1673ffffffffffffffffffffffffffffffffffffffff166332531c3c336040518263ffffffff1660e01b81526004016111f6919061276e565b60206040518083038186803b15801561120e57600080fd5b505afa158015611222573d6000803e3d6000fd5b505050506040513d601f19601f8201168201806040525081019061124691906123fa565b611285576040517f08c379a000000000000000000000000000000000000000000000000000000000815260040161127c9061296a565b60405180910390fd5b600860009054906101000a900473ffffffffffffffffffffffffffffffffffffffff1673ffffffffffffffffffffffffffffffffffffffff16636b91ef3f336040518263ffffffff1660e01b81526004016112e0919061276e565b60206040518083038186803b1580156112f857600080fd5b505afa15801561130c573d6000803e3d6000fd5b505050506040513d601f19601f8201168201806040525081019061133091906123fa565b61136f576040517f08c379a0000000000000000000000000000000000000000000000000000000008152600401611366906128ea565b60405180910390fd5b60001515600960009054906101000a900473ffffffffffffffffffffffffffffffffffffffff1673ffffffffffffffffffffffffffffffffffffffff166397747a2b600560009054906101000a900473ffffffffffffffffffffffffffffffffffffffff16336040518363ffffffff1660e01b81526004016113f2929190612789565b60206040518083038186803b15801561140a57600080fd5b505afa15801561141e573d6000803e3d6000fd5b505050506040513d601f19601f8201168201806040525081019061144291906123fa565b151514611484576040517f08c379a000000000000000000000000000000000000000000000000000000000815260040161147b9061290a565b60405180910390fd5b6000600b60003373ffffffffffffffffffffffffffffffffffffffff1673ffffffffffffffffffffffffffffffffffffffff1681526020019081526020016000205414156115bb57600860009054906101000a900473ffffffffffffffffffffffffffffffffffffffff1673ffffffffffffffffffffffffffffffffffffffff1663782a2737336040518263ffffffff1660e01b8152600401611527919061276e565b60206040518083038186803b15801561153f57600080fd5b505afa158015611553573d6000803e3d6000fd5b505050506040513d601f19601f820116820180604052508101906115779190612454565b600b60003373ffffffffffffffffffffffffffffffffffffffff1673ffffffffffffffffffffffffffffffffffffffff168152602001908152602001600020819055505b6000600b60003373ffffffffffffffffffffffffffffffffffffffff1673ffffffffffffffffffffffffffffffffffffffff1681526020019081526020016000205490506000600a828154811061161557611614612d27565b5b906000526020600020906003020160405180606001604052908160008201548152602001600182015481526020016002820154815250509050600081602001519050600082604001519050600a8054905084106116a7576040517f08c379a000000000000000000000000000000000000000000000000000000000815260040161169e9061288a565b60405180910390fd5b600082116116ea576040517f08c379a00000000000000000000000000000000000000000000000000000000081526004016116e1906129aa565b60405180910390fd5b42811061172c576040517f08c379a00000000000000000000000000000000000000000000000000000000081526004016117239061286a565b60405180910390fd5b6001846117399190612aee565b600b60003373ffffffffffffffffffffffffffffffffffffffff1673ffffffffffffffffffffffffffffffffffffffff16815260200190815260200160002081905550600061184e6064611840600860009054906101000a900473ffffffffffffffffffffffffffffffffffffffff1673ffffffffffffffffffffffffffffffffffffffff1663825935a2336040518263ffffffff1660e01b81526004016117e1919061276e565b60206040518083038186803b1580156117f957600080fd5b505afa15801561180d573d6000803e3d6000fd5b505050506040513d601f19601f820116820180604052508101906118319190612454565b86611e2090919063ffffffff16565b611e3690919063ffffffff16565b905061189d3382600760009054906101000a900473ffffffffffffffffffffffffffffffffffffffff1673ffffffffffffffffffffffffffffffffffffffff16611cd69092919063ffffffff16565b7fd458cbd7941a406cf0211a0f3f08d437b196748d53096e98baf5a27041c2ea263382426040516118d0939291906127db565b60405180910390a1505050505060018081905550565b6118ee611cce565b73ffffffffffffffffffffffffffffffffffffffff1661190c610c63565b73ffffffffffffffffffffffffffffffffffffffff1614611962576040517f08c379a00000000000000000000000000000000000000000000000000000000081526004016119599061298a565b60405180910390fd5b80600260146101000a81548160ff02191690831515021790555050565b611987611cce565b73ffffffffffffffffffffffffffffffffffffffff166119a5610c63565b73ffffffffffffffffffffffffffffffffffffffff16146119fb576040517f08c379a00000000000000000000000000000000000000000000000000000000081526004016119f29061298a565b60405180910390fd5b80600760006101000a81548173ffffffffffffffffffffffffffffffffffffffff021916908373ffffffffffffffffffffffffffffffffffffffff16021790555050565b611a47611cce565b73ffffffffffffffffffffffffffffffffffffffff16611a65610c63565b73ffffffffffffffffffffffffffffffffffffffff1614611abb576040517f08c379a0000000000000000000000000000000000000000000000000000000008152600401611ab29061298a565b60405180910390fd5b600073ffffffffffffffffffffffffffffffffffffffff168173ffffffffffffffffffffffffffffffffffffffff161415611b2b576040517f08c379a0000000000000000000000000000000000000000000000000000000008152600401611b22906128aa565b60405180910390fd5b611b3481611d5c565b50565b611b3f611cce565b73ffffffffffffffffffffffffffffffffffffffff16611b5d610c63565b73ffffffffffffffffffffffffffffffffffffffff1614611bb3576040517f08c379a0000000000000000000000000000000000000000000000000000000008152600401611baa9061298a565b60405180910390fd5b80600b60008473ffffffffffffffffffffffffffffffffffffffff1673ffffffffffffffffffffffffffffffffffffffff168152602001908152602001600020819055505050565b611c03611cce565b73ffffffffffffffffffffffffffffffffffffffff16611c21610c63565b73ffffffffffffffffffffffffffffffffffffffff1614611c77576040517f08c379a0000000000000000000000000000000000000000000000000000000008152600401611c6e9061298a565b60405180910390fd5b80600260006101000a81548173ffffffffffffffffffffffffffffffffffffffff021916908373ffffffffffffffffffffffffffffffffffffffff16021790555050565b600260149054906101000a900460ff1681565b600033905090565b611d578363a9059cbb60e01b8484604051602401611cf59291906127b2565b604051602081830303815290604052907bffffffffffffffffffffffffffffffffffffffffffffffffffffffff19166020820180517bffffffffffffffffffffffffffffffffffffffffffffffffffffffff8381831617835250505050611e4c565b505050565b60008060009054906101000a900473ffffffffffffffffffffffffffffffffffffffff169050816000806101000a81548173ffffffffffffffffffffffffffffffffffffffff021916908373ffffffffffffffffffffffffffffffffffffffff1602179055508173ffffffffffffffffffffffffffffffffffffffff168173ffffffffffffffffffffffffffffffffffffffff167f8be0079c531659141344cd1fd0a4f28419497f9722a3daafe3b4186f6b6457e060405160405180910390a35050565b60008183611e2e9190612b75565b905092915050565b60008183611e449190612b44565b905092915050565b6000611eae826040518060400160405280602081526020017f5361666545524332303a206c6f772d6c6576656c2063616c6c206661696c65648152508573ffffffffffffffffffffffffffffffffffffffff16611f139092919063ffffffff16565b9050600081511115611f0e5780806020019051810190611ece91906123fa565b611f0d576040517f08c379a0000000000000000000000000000000000000000000000000000000008152600401611f04906129ea565b60405180910390fd5b5b505050565b6060611f228484600085611f2b565b90509392505050565b606082471015611f70576040517f08c379a0000000000000000000000000000000000000000000000000000000008152600401611f679061292a565b60405180910390fd5b611f798561203f565b611fb8576040517f08c379a0000000000000000000000000000000000000000000000000000000008152600401611faf906129ca565b60405180910390fd5b6000808673ffffffffffffffffffffffffffffffffffffffff168587604051611fe19190612757565b60006040518083038185875af1925050503d806000811461201e576040519150601f19603f3d011682016040523d82523d6000602084013e612023565b606091505b5091509150612033828286612062565b92505050949350505050565b6000808273ffffffffffffffffffffffffffffffffffffffff163b119050919050565b60608315612072578290506120c2565b6000835111156120855782518084602001fd5b816040517f08c379a00000000000000000000000000000000000000000000000000000000081526004016120b99190612848565b60405180910390fd5b9392505050565b50805460008255600302906000526020600020908101906120ea919061210e565b50565b60405180606001604052806000815260200160008152602001600081525090565b5b8082111561213957600080820160009055600182016000905560028201600090555060030161210f565b5090565b60008135905061214c81613082565b92915050565b60008083601f84011261216857612167612d5b565b5b8235905067ffffffffffffffff81111561218557612184612d56565b5b6020830191508360208202830111156121a1576121a0612d60565b5b9250929050565b60008083601f8401126121be576121bd612d5b565b5b8235905067ffffffffffffffff8111156121db576121da612d56565b5b6020830191508360208202830111156121f7576121f6612d60565b5b9250929050565b60008135905061220d81613099565b92915050565b60008151905061222281613099565b92915050565b600081359050612237816130b0565b92915050565b60008151905061224c816130b0565b92915050565b60006020828403121561226857612267612d6a565b5b60006122768482850161213d565b91505092915050565b6000806040838503121561229657612295612d6a565b5b60006122a48582860161213d565b92505060206122b58582860161213d565b9150509250929050565b600080604083850312156122d6576122d5612d6a565b5b60006122e48582860161213d565b92505060206122f585828601612228565b9150509250929050565b6000806020838503121561231657612315612d6a565b5b600083013567ffffffffffffffff81111561233457612333612d65565b5b61234085828601612152565b92509250509250929050565b6000806000806040858703121561236657612365612d6a565b5b600085013567ffffffffffffffff81111561238457612383612d65565b5b612390878288016121a8565b9450945050602085013567ffffffffffffffff8111156123b3576123b2612d65565b5b6123bf878288016121a8565b925092505092959194509250565b6000602082840312156123e3576123e2612d6a565b5b60006123f1848285016121fe565b91505092915050565b6000602082840312156124105761240f612d6a565b5b600061241e84828501612213565b91505092915050565b60006020828403121561243d5761243c612d6a565b5b600061244b84828501612228565b91505092915050565b60006020828403121561246a57612469612d6a565b5b60006124788482850161223d565b91505092915050565b61248a81612bcf565b82525050565b61249981612be1565b82525050565b60006124aa82612abc565b6124b48185612ad2565b93506124c4818560208601612c4d565b80840191505092915050565b6124d981612c17565b82525050565b60006124ea82612ac7565b6124f48185612add565b9350612504818560208601612c4d565b61250d81612d6f565b840191505092915050565b6000612525601983612add565b915061253082612d80565b602082019050919050565b6000612548601683612add565b915061255382612da9565b602082019050919050565b600061256b602683612add565b915061257682612dd2565b604082019050919050565b600061258e601483612add565b915061259982612e21565b602082019050919050565b60006125b1600c83612add565b91506125bc82612e4a565b602082019050919050565b60006125d4601183612add565b91506125df82612e73565b602082019050919050565b60006125f7602683612add565b915061260282612e9c565b604082019050919050565b600061261a601383612add565b915061262582612eeb565b602082019050919050565b600061263d601983612add565b915061264882612f14565b602082019050919050565b6000612660602083612add565b915061266b82612f3d565b602082019050919050565b6000612683601a83612add565b915061268e82612f66565b602082019050919050565b60006126a6601d83612add565b91506126b182612f8f565b602082019050919050565b60006126c9602a83612add565b91506126d482612fb8565b604082019050919050565b60006126ec601283612add565b91506126f782613007565b602082019050919050565b600061270f601f83612add565b915061271a82613030565b602082019050919050565b6000612732600d83612add565b915061273d82613059565b602082019050919050565b61275181612c0d565b82525050565b6000612763828461249f565b915081905092915050565b60006020820190506127836000830184612481565b92915050565b600060408201905061279e6000830185612481565b6127ab6020830184612481565b9392505050565b60006040820190506127c76000830185612481565b6127d46020830184612748565b9392505050565b60006060820190506127f06000830186612481565b6127fd6020830185612748565b61280a6040830184612748565b949350505050565b60006020820190506128276000830184612490565b92915050565b600060208201905061284260008301846124d0565b92915050565b6000602082019050818103600083015261286281846124df565b905092915050565b6000602082019050818103600083015261288381612518565b9050919050565b600060208201905081810360008301526128a38161253b565b9050919050565b600060208201905081810360008301526128c38161255e565b9050919050565b600060208201905081810360008301526128e381612581565b9050919050565b60006020820190508181036000830152612903816125a4565b9050919050565b60006020820190508181036000830152612923816125c7565b9050919050565b60006020820190508181036000830152612943816125ea565b9050919050565b600060208201905081810360008301526129638161260d565b9050919050565b6000602082019050818103600083015261298381612630565b9050919050565b600060208201905081810360008301526129a381612653565b9050919050565b600060208201905081810360008301526129c381612676565b9050919050565b600060208201905081810360008301526129e381612699565b9050919050565b60006020820190508181036000830152612a03816126bc565b9050919050565b60006020820190508181036000830152612a23816126df565b9050919050565b60006020820190508181036000830152612a4381612702565b9050919050565b60006020820190508181036000830152612a6381612725565b9050919050565b6000602082019050612a7f6000830184612748565b92915050565b6000606082019050612a9a6000830186612748565b612aa76020830185612748565b612ab46040830184612748565b949350505050565b600081519050919050565b600081519050919050565b600081905092915050565b600082825260208201905092915050565b6000612af982612c0d565b9150612b0483612c0d565b9250827fffffffffffffffffffffffffffffffffffffffffffffffffffffffffffffffff03821115612b3957612b38612cc9565b5b828201905092915050565b6000612b4f82612c0d565b9150612b5a83612c0d565b925082612b6a57612b69612cf8565b5b828204905092915050565b6000612b8082612c0d565b9150612b8b83612c0d565b9250817fffffffffffffffffffffffffffffffffffffffffffffffffffffffffffffffff0483118215151615612bc457612bc3612cc9565b5b828202905092915050565b6000612bda82612bed565b9050919050565b60008115159050919050565b600073ffffffffffffffffffffffffffffffffffffffff82169050919050565b6000819050919050565b6000612c2282612c29565b9050919050565b6000612c3482612c3b565b9050919050565b6000612c4682612bed565b9050919050565b60005b83811015612c6b578082015181840152602081019050612c50565b83811115612c7a576000848401525b50505050565b6000612c8b82612c0d565b91507fffffffffffffffffffffffffffffffffffffffffffffffffffffffffffffffff821415612cbe57612cbd612cc9565b5b600182019050919050565b7f4e487b7100000000000000000000000000000000000000000000000000000000600052601160045260246000fd5b7f4e487b7100000000000000000000000000000000000000000000000000000000600052601260045260246000fd5b7f4e487b7100000000000000000000000000000000000000000000000000000000600052603260045260246000fd5b600080fd5b600080fd5b600080fd5b600080fd5b600080fd5b6000601f19601f8301169050919050565b7f436c61696d2074696d65206973206e6f74207374617274656400000000000000600082015250565b7f436c61696d20696e64657820697320696e76616c696400000000000000000000600082015250565b7f4f776e61626c653a206e6577206f776e657220697320746865207a65726f206160008201527f6464726573730000000000000000000000000000000000000000000000000000602082015250565b7f596f752061726520696e20426c61636b6c697374000000000000000000000000600082015250565b7f4e6f7420706169642049444f0000000000000000000000000000000000000000600082015250565b7f596f75206861766520726566756e646564000000000000000000000000000000600082015250565b7f416464726573733a20696e73756666696369656e742062616c616e636520666f60008201527f722063616c6c0000000000000000000000000000000000000000000000000000602082015250565b7f496e70757420737461676520696e76616c696400000000000000000000000000600082015250565b7f4e6f742077686974656c69737420706f6f6c206865736d616e00000000000000600082015250565b7f4f776e61626c653a2063616c6c6572206973206e6f7420746865206f776e6572600082015250565b7f50657263656e742076657374696e6720697320696e76616c6964000000000000600082015250565b7f416464726573733a2063616c6c20746f206e6f6e2d636f6e7472616374000000600082015250565b7f5361666545524332303a204552433230206f7065726174696f6e20646964206e60008201527f6f74207375636365656400000000000000000000000000000000000000000000602082015250565b7f436f6e7472616374206973207061757365640000000000000000000000000000600082015250565b7f5265656e7472616e637947756172643a207265656e7472616e742063616c6c00600082015250565b7f4e6f742077686974656c69737400000000000000000000000000000000000000600082015250565b61308b81612bcf565b811461309657600080fd5b50565b6130a281612be1565b81146130ad57600080fd5b50565b6130b981612c0d565b81146130c457600080fd5b5056fea2646970667358221220eff21e740b0935402a71674e3609f2b8693db5ab49b639b55ca4d820d4ce504f64736f6c63430008070033",
  "linkReferences": {},
  "deployedLinkReferences": {}
}