{
  "_format": "hh-sol-artifact-1",
  "contractName": "HesmanPoolNft",
  "sourceName": "contracts/HesmanNftIDO.sol",
  "abi": [
    {
      "inputs": [
        {
          "internalType": "address",
          "name": "",
          "type": "address"
        }
      ],
      "name": "paidIdoMap",
      "outputs": [
        {
          "internalType": "bool",
          "name": "",
          "type": "bool"
        }
      ],
      "stateMutability": "view",
      "type": "function"
    },
    {
      "inputs": [
        {
          "internalType": "address",
          "name": "",
          "type": "address"
        }
      ],
      "name": "userHesmanTokenRecMap",
      "outputs": [
        {
          "internalType": "uint256",
          "name": "",
          "type": "uint256"
        }
      ],
      "stateMutability": "view",
      "type": "function"
    },
    {
      "inputs": [
        {
          "internalType": "address",
          "name": "",
          "type": "address"
        }
      ],
      "name": "vestingMap",
      "outputs": [
        {
          "internalType": "uint256",
          "name": "",
          "type": "uint256"
        }
      ],
      "stateMutability": "view",
      "type": "function"
    },
    {
      "inputs": [
        {
          "internalType": "address",
          "name": "",
          "type": "address"
        }
      ],
      "name": "whitelistMap",
      "outputs": [
        {
          "internalType": "bool",
          "name": "",
          "type": "bool"
        }
      ],
      "stateMutability": "view",
      "type": "function"
    }
  ],
  "bytecode": "0x608060405234801561001057600080fd5b506102b1806100206000396000f3fe608060405234801561001057600080fd5b506004361061004c5760003560e01c806332531c3c146100515780636b91ef3f14610081578063782a2737146100b1578063825935a2146100e1575b600080fd5b61006b60048036038101906100669190610196565b610111565b60405161007891906101e1565b60405180910390f35b61009b60048036038101906100969190610196565b610131565b6040516100a891906101e1565b60405180910390f35b6100cb60048036038101906100c69190610196565b610151565b6040516100d891906101fc565b60405180910390f35b6100fb60048036038101906100f69190610196565b610169565b60405161010891906101fc565b60405180910390f35b60006020528060005260406000206000915054906101000a900460ff1681565b60036020528060005260406000206000915054906101000a900460ff1681565b60016020528060005260406000206000915090505481565b60026020528060005260406000206000915090505481565b60008135905061019081610264565b92915050565b6000602082840312156101ac576101ab61025f565b5b60006101ba84828501610181565b91505092915050565b6101cc81610229565b82525050565b6101db81610255565b82525050565b60006020820190506101f660008301846101c3565b92915050565b600060208201905061021160008301846101d2565b92915050565b600061022282610235565b9050919050565b60008115159050919050565b600073ffffffffffffffffffffffffffffffffffffffff82169050919050565b6000819050919050565b600080fd5b61026d81610217565b811461027857600080fd5b5056fea26469706673582212209bf020c803b641e03a4988ad610d1075054a81e2d921d9ff168a565b58ff7ca964736f6c63430008070033",
  "linkReferences": {},
  "deployedLinkReferences": {}
}